:100000000C94C3070C94EB070C94EB070C94EB07D0
:100010000C94EB070C94EB070C94EB070C94EB0798
:100020000C94EB070C94EB070C94EB070C94EB0788
:100030000C94EB070C94EB070C94EB070C94EB0778
:100040000C94EB070C94EB070C9452510C94EB07B7
:100050000C9499530C94E0530C94EB070C94EB071D
:100060000C94EB070C94EB070C94A34F0C94EB0748
:10007000485454502F312E3020323030204F4B0D09
:100080000A436F6E74656E742D547970653A2074EE
:100090006578742F68746D6C0D0A507261676D61BC
:1000A0003A206E6F2D63616368650D0A0D0A004882
:1000B0005454502F312E3020323030204F4B0D0A07
:1000C000436F6E74656E742D547970653A2061705B
:1000D000706C69636174696F6E2F6A736F6E0D0A5D
:1000E000436F6E6E6E656374696F6E3A20636C6FFA
:1000F00073650D0A0D0A003C6D657461206E616DBB
:10010000653D76696577706F727420636F6E746594
:100110006E743D2277696474683D363430223E0D3A
:100120000A00485454502F312E302034303120559D
:100130006E617574686F72697A65640D0A436F6EDB
:1001400074656E742D547970653A20746578742FD7
:1001500068746D6C0D0A0D0A3C68313E34303120F4
:10016000556E617574686F72697A65643C2F683189
:100170003E0077696E646F772E6C6F636174696F90
:100180006E3D222F223B3C2F7363726970743E0ACE
:10019000006376007670006D70006470006370001C
:1001A000677000766F00636F00736E007073007687
:1001B00073006373007672006372006A6F006A6E88
:1001C000006A70006A63007375006375002446005E
:1001D00024440024440024460024463C6D65746198
:1001E00020687474702D65717569763D227265663C
:1001F000726573682220636F6E74656E743D223180
:100200003B2075726C3D2F223E0024463C73637286
:100210006970743E616C65727428224F7074696FE6
:100220006E732076616C7565732073617665642EDC
:1002300022293B24460024463C7363726970743E55
:10024000616C65727428224E6577207061737377D4
:100250006F726473206D757374206D6174636821AF
:1002600022293B77696E646F772E6C6F63617469C6
:100270006F6E3D222F766F223B3C2F736372697045
:10028000743E0A0024463C7363726970743E616C6C
:1002900065727428224E65772070617373776F7270
:1002A00064207365742E22293B24460024463C7347
:1002B00063726970743E616C657274282256616C59
:1002C000756573206F7574206F6620626F756E643C
:1002D0002122293B77696E646F772E6C6F6361749E
:1002E000696F6E3D222F766F223B3C2F73637269DC
:1002F00070743E0A0024463C7363726970743E61F8
:100300006C65727428225363726970742075726C04
:100310002073617665642E22293B24460024463CE6
:100320007363726970743E2446005265626F6F7425
:10033000696E672E2E2E0024463C6D657461206820
:100340007474702D65717569763D2272656672658B
:1003500073682220636F6E74656E743D2224443B83
:100360002075726C3D2F223E003C7363726970747D
:10037000207372633D2224452F766965776F702E56
:100380006A73223E3C2F7363726970743E0A003CAC
:100390002F7363726970743E0A00305D3B76617240
:1003A000206E6F7074733D24442C6C6F633D222467
:1003B00045222C646576743D244C2C747A3D24448B
:1003C0003B00222446222C24442C24442C24442C5C
:1003D000003C7363726970743E766172206F707452
:1003E000733D5B0024462446002264756D6D7922BE
:1003F0003A307D00222446223A24442C007B0024FB
:1004000046003C736372697074207372633D2224EA
:10041000452F686F6D652E6A73223E3C2F736372A1
:100420006970743E0A000A766172206C72756E3DC6
:100430005B24442C24442C24442C244C5D3C2F73FA
:1004400063726970743E0A005B302C305D5D3B0A5C
:1004500076617220656E3D24442C72643D24442CE8
:1004600072733D24442C6D6D3D24442C726473746E
:100470003D244C2C6D61733D24442C7572733D24D6
:10048000442C776C3D24442C697061733D24442CCA
:100490006C6F633D222445223B005B24442C244C9A
:1004A0005D2C00305D3B7661722070733D5B0024F3
:1004B000442C00766172206E6272643D24442C7478
:1004C0007A3D24442C73626974733D5B00766172DB
:1004D000207665723D24442C646576743D244C3B43
:1004E0000A00244624463C7363726970743E0030EF
:1004F0002C305D7D0024442C244C2C00305D2C22BB
:100500007073223A5B0024442C007B22646576746D
:10051000223A244C2C226E627264223A24442C2209
:10052000656E223A24442C227264223A24442C22FE
:100530007273223A24442C226D6D223A24442C22D8
:1005400072647374223A244C2C226C6F63223A2218
:100550002445222C227362697473223A5B0024467C
:100560000077696E646F772E6C6F636174696F6E6C
:100570003D222F7670223B3C2F7363726970743E6C
:100580000A00616C657274282250726F6772616D27
:10059000202444206D6F64696669656422293B00EC
:1005A000616C65727428224E65772070726F677275
:1005B000616D2061646465642E22293B0024463C01
:1005C0007363726970743E003C7363726970742067
:1005D0007372633D2224452F706C6F7470726F6765
:1005E0002E6A73223E3C2F7363726970743E0A0058
:1005F000305D3B0024442C00766172206D61736F86
:10060000703D5B00766172207365713D24442C6DF2
:1006100061733D24442C776C3D24442C7364743DF9
:1006200024442C6D746F6E3D24442C6D746F66668B
:100630003D24442C6465766461793D24442C6465D2
:10064000766D696E3D24442C64643D24442C6D6DAC
:100650003D24442C79793D24443B0024463C73637B
:10066000726970743E0024463C7363726970743E14
:1006700077696E646F772E6C6F636174696F6E3D1E
:10068000222F7670223B3C2F7363726970743E0A8E
:10069000003C2F7363726970743E0A3C7363726925
:1006A0007074207372633D2224452F6D6F647072E5
:1006B0006F672E6A73223E3C2F7363726970743EBB
:1006C0000A005D3B002C2444007661722070726F3A
:1006D000673D5B24442C24442C24442C24442C24A7
:1006E000442C24442C244400766172206E626F6195
:1006F0007264733D24442C7069643D24442C6970F9
:1007000061733D24443B00244624463C7363726974
:1007100070743E003C736372697074207372633D41
:100720002224452F7669657770726F672E6A73226F
:100730003E3C2F7363726970743E0A00244624465F
:100740003C7363726970743E0024463C7363726943
:1007500070743E2446003C73637269707420737237
:10076000633D2224452F76696577726F2E6A732266
:100770003E3C2F7363726970743E0A00305D3B3CEF
:100780002F7363726970743E0A0024442C007661F2
:1007900072206E626F617264733D24442C6D6173CC
:1007A0003D24442C697061733D24442C6475723D72
:1007B0005B00244624463C7363726970743E005BA0
:1007C000302C302C302C302C302C302C302C305D18
:1007D0005D7D005D2C002C2444005B24442C2444CB
:1007E0002C24442C24442C24442C24442C24440025
:1007F0007B226E70726F6773223A24442C226E62E1
:100800006F61726473223A24442C226D6E70223A16
:1008100024442C227064223A5B002446003C687217
:10082000202F3E3C666F726D206E616D653D6F6678
:1008300020616374696F6E3D6375206D6574686FC8
:10084000643D6765743E3C703E3C623E4A61766141
:100850007363726970742055524C3A3C2F623E208B
:100860003C696E70757420747970653D7465787438
:100870002073697A653D3332206D61786C656E67EF
:1008800074683D3132372076616C75653D222445B0
:1008900022206E616D653D6A73703E3C2F703E3C58
:1008A000703E5365742055524C2077686572652000
:1008B0004A61766173637269707473206172652036
:1008C00073746F7265642E2044656661756C742064
:1008D000697320687474703A2F2F72617973686F2E
:1008E0006262792E6E65742F736372697074732FF0
:1008F0006A6176612F737663322E302E333C6272DA
:10090000202F3E4966206C6F63616C206F6E2075EE
:10091000534420636172642C20757365202E202857
:10092000692E652E20646F74293C2F703E3C703E0A
:100930003C623E50617373776F72643A3C2F623E43
:100940003C696E70757420747970653D7061737365
:10095000776F72642073697A653D3130206E616D06
:10096000653D70773E3C696E707574207479706572
:100970003D7375626D69743E3C2F703E3C68722019
:100980002F3E3C2F666F726D3E002446003C2F7355
:1009900063726970743E0A005D3B002C2444007051
:1009A000645B24445D3D5B24442C24442C24442C6F
:1009B00024442C24442C24442C24440076617220AA
:1009C0006E70726F67733D24442C6E626F61726447
:1009D000733D24442C697061733D24442C6D6E700A
:1009E0003D24442C70643D5B5D3B0024463C7363B6
:1009F000726970743E616C65727428224368616E1E
:100A00006765732073617665642E22293B24460056
:100A100027275D3B00272453272C00766172207323
:100A20006E616D65733D5B00305D3B3C2F7363729F
:100A30006970743E0A3C73637269707420737263E8
:100A40003D2224452F76696577736E2E6A73223EA8
:100A50003C2F7363726970743E0A0024442C007644
:100A60006172206D61736F703D5B00766172206E04
:100A7000626F617264733D24442C6D61786C656EA5
:100A80003D24442C6D61733D24442C697061733D99
:100A900024443B0024463C7363726970743E00300A
:100AA0005D2C226D61786C656E223A24447D0024B1
:100AB000442C002264756D6D79225D2C226D61736A
:100AC0006F70223A5B00222453222C007B22736E2B
:100AD000616D6573223A5B002446004E54502053EA
:100AE000796E63696E672E2E2E00436F6E6E65639E
:100AF00074696E672E2E2E00446574656374696E8A
:100B000067207553442E2E2E0066777600747A0087
:100B10006E747000646863700069703100697032CF
:100B2000006970330069703400677731006777328D
:100B30000067773300677734006870300068703181
:100B400000617200657874007365710073647400ED
:100B50006D6173006D746F6E006D746F66007572F9
:100B6000730072736F00776C007374740069706146
:100B70007300646576696400636F6E006C6974006D
:100B80006E747031006E747032006E747033006E6B
:100B9000747034007265736574004669726D7761B4
:100BA0007265207665722E0054696D65207A6F6ECD
:100BB000653A004E54502073796E633F005573655B
:100BC00020444843503F005374617469632E697038
:100BD000313A005374617469632E6970323A00537C
:100BE00074617469632E6970333A00537461746977
:100BF000632E6970343A00476174657761792E69B4
:100C000070313A00476174657761792E6970323AC4
:100C100000476174657761792E6970333A004761E6
:100C200074657761792E6970343A004854545020C5
:100C3000706F72743A00004175746F207265636F53
:100C40006E6E6563743F0023206F66206578702E9A
:100C500020626F6172643A0053657175656E7469E4
:100C6000616C206D6F64653F0053746174696F6ED1
:100C70002064656C61793A004D617374657220730C
:100C8000746174696F6E3A004D61737465722020EF
:100C90006F6E2061646A2E3A004D61737465722034
:100CA0006F66662061646A2E3A0055736520726132
:100CB000696E2073656E736F723A004E6F726D616C
:100CC0006C6C79206F70656E3F00252057617465EC
:100CD000722074696D653A0053656C66746573744F
:100CE0002074696D653A0049676E6F7265207061A6
:100CF0007373776F72643F0044657669636520495A
:100D0000443A004C434420436F6E74726173743AEA
:100D1000004C4344204261636B6C696768743A001D
:100D20004E5450207365727665722E6970313A00A8
:100D30004E5450207365727665722E6970323A0097
:100D40004E5450207365727665722E6970333A0086
:100D50004E5450207365727665722E6970343A0075
:100D6000526573657420616C6C3F004D6F6E00546A
:100D700075650057656400546875004672690053D4
:100D800061740053756E00206D696E002073656399
:100D90000025004E6F00596573002B002B00204783
:100DA0004D54003030003A002D002B000020202050
:100DB00020002D5261696E2053746F702D002D44F8
:100DC000697361626C6564212D003A0045004D43F2
:100DD0003A003A002E002D0020002020003A00208A
:100DE0000042333A686F6C6420746F2073617665DB
:100DF0000042333A73656C2042312F42323A6368C5
:100E000067003D3D536574204F7074696F6E733D8C
:100E10003D00506C6561736520576169742E2E2EFC
:100E200000526573657474696E6720454550524F72
:100E30004D0000010800060400014500008200008A
:100E400040002000504F5354202446204854545012
:100E50002F312E300D0A486F73743A2024460D0A44
:100E6000244624534163636570743A202A2F2A0D67
:100E70000A436F6E74656E742D4C656E6774683AC4
:100E80002024440D0A436F6E74656E742D5479707E
:100E9000653A206170706C69636174696F6E2F7858
:100EA0002D7777772D666F726D2D75726C656E6319
:100EB0006F6465640D0A0D0A2453004745542024CD
:100EC00046245320485454502F312E300D0A486F79
:100ED00073743A2024460D0A24460D0A0D0A004177
:100EE00063636570743A20746578742F68746D6CF0
:100EF00000E30004FA0001000000010000210024CA
:100F00000027002A0000002200250028002B0000F6
:100F10000020002300260029000202020202020231
:100F2000020404040404040404030303030303038A
:100F30000301010101010101010102040810204027
:100F400080010204081020408001020408102040A3
:100F5000808040201008040201000000010200000F
:100F6000000000000004030706000000000000006D
:100F700000000000000000000000590A60298F34C2
:100F8000FF463F4EC05411241FBECFEFD0E1DEBF5D
:100F9000CDBF13E0A0E0B1E0E0E8FFEA02C00590B9
:100FA0000D92AC35B107D9F71DE0ACE5B3E001C057
:100FB0001D92A33AB107E1F71FE0C6E8DFE004C0E5
:100FC0002297FE010E948357CA37D107C9F70E94B2
:100FD00010550C94BE570C940000FC0188279927EB
:100FE000E89421912032E9F3293010F02E30C8F333
:100FF0002B3241F02D3239F4689404C00E94270945
:10100000820F911D219120532A30C0F31EF4909538
:1010100081959F4F08951F93FC0199278827BC0154
:10102000E89411911032E9F3193010F01E30C8F332
:101030001B3251F01D3249F4689406C00E94120917
:10104000610F711D811D911D119110531A30B0F364
:101050003EF490958095709561957F4F8F4F9F4F8F
:101060001F910895FB01DC0102C005900D924150D3
:101070005040D8F70895FB01DC0104C08D91019028
:10108000801921F441505040C8F7881B990B0895EE
:10109000DC0101C06D9341505040E0F70895FB0121
:1010A000DC018D91019080190110D9F3990B0895FD
:1010B000FB01DC0101900D920020E1F70895FB0196
:1010C000DC014150504030F08D910190801919F4AD
:1010D0000020B9F7881B990B0895A0E0B0E0E3E782
:1010E000F8E00C9491577C01EB018A01690109C079
:1010F000CE012196F6010995F70181937F010150F8
:10110000104001151105A1F7CDB7DEB7E8E00C944A
:10111000AD57BF92CF92DF92EF92FF920F931F9342
:101120007B018C01FB010995B82EC8010196F701DE
:101130000995C82EC8010296F7010995D82EC80155
:101140000396F7010995982F6B2D7C2D8D2D1F91FE
:101150000F91FF90EF90DF90CF90BF900895A0E0A7
:10116000B0E0E5EBF8E00C949157EC017B018A01CB
:10117000690109C0CE012196F70161917F01F60155
:1011800009950150104001151105A1F7CDB7DEB743
:10119000E8E00C94AD57BF92CF92DF92EF92FF92AE
:1011A0000F931F93D52EC62EB72E79018C01642F75
:1011B000F9010995C80101966D2DF7010995C8013E
:1011C00002966C2DF7010995C80103966B2DF70166
:1011D00009951F910F91FF90EF90DF90CF90BF90F6
:1011E0000895FB019F01E8944230C4F04532B4F405
:1011F0004A3029F497FB1EF4909581959F4F642FF8
:1012000077270E943857805D8A330CF0895D81937F
:10121000CB010097A1F716F45DE251931082C9014A
:101220000C945409592F482F372F262F660F771FFC
:10123000881F991F660F771F881F991F620F731FE2
:10124000841F951F660F771F881F991F08957AE0E6
:10125000979F902D879F802D910D11240895FA015D
:10126000CF93FF93EF932230CCF02532BCF4C22F02
:101270002C2F332744275527FF93EF930E945F5766
:10128000EF91FF91605D6A330CF0695D6193B90184
:10129000CA01605070408040904051F710828F9199
:1012A0009F91CF910C945409DC01FC01672F71913F
:1012B0007723E1F7329704C07C916D93708362913C
:1012C000AE17BF07C8F308959C01F999FECF32BD50
:1012D00021BDF89A80B508959C01F999FECF1FBAF7
:1012E00032BD21BD60BD0FB6F894FA9AF99A0FBECF
:1012F0000895FC01A681B7816D93B783A68381E031
:1013000090E00895CF92DF92EF92FF920F931F9398
:10131000CF93DF937B018C010894E11CF11C011D2C
:10132000111DC090FE08442361F43091FB083695EE
:10133000369536953170A8EEB7E0C8E2D7E0DD24E7
:1013400071C09091FB089695969596959170C8EE10
:10135000D7E068E277E0EC2DF0E0EE0FFF1FEE0F34
:10136000FF1FEC0FFD1F25C0288139814A815B8159
:101370002115310541055105C9F0DB01ED92FD92C2
:101380000D931C931397D801C701820F931FA41FBD
:10139000B51F88839983AA83BB83209144027C0173
:1013A0008D01E20EF11C011D111D91E024966C5F70
:1013B0007F4FCE17DF07C1F69170990F990F990FE4
:1013C0008091FB08877F892B37C04D915D916D918E
:1013D0007C911397411551056105710501F1ED2DC2
:1013E000E695E695E695F0E0E150F74F808190E0D4
:1013F0002D2D277002C0959587952A95E2F780FDDF
:101400000EC0E882F9820A831B834E0D5F1D601FA8
:10141000711F4D935D936D937C93139731E0D3943B
:1014200014962496DC1488F23170330F330F330F87
:101430008091FB08877F832B8093FB08DF91CF91FE
:101440001F910F91FF90EF90DF90CF900895A8EA41
:10145000B8E080E090E0FC01E85DF84F1082118276
:1014600012821382FC01E851F84F1082118212821D
:1014700013821D920496803C910569F7F999FECF7D
:1014800086E694E092BD81BDF89A80B580931F07EF
:101490001092200710922107109223071092220722
:1014A0001092240710922507109226071092270702
:1014B0000895109216071092150788EF92E0909306
:1014C00014078093130708959F92AF92BF92CF9213
:1014D000DF92EF92FF920F931F93CF93DF93EC0174
:1014E000962E87ED99E0BE010E94524A882309F4A6
:1014F00058C087ED99E0BE0141E00E94384BAA2414
:10150000BB24650187ED99E00E943347EC01A8E117
:10151000BAE026E330E040E050E0A20EB31EC41E65
:10152000D51EF501E25AFC4F2AEC3FEF4FEF5FEF7B
:10153000A20EB31EC41ED51E8601750107C00894F5
:10154000E11CF11C011D111D8D918193C7018A19A8
:101550009B098C179D079CF330E0E31632E0F306FD
:1015600030E0030730E0130748F0C70160E140E0D6
:101570000E94ED35AA24BB2465010AC041E09416FF
:1015800029F4C70161E140E00E94ED35570168018F
:10159000C050D24009F4B6CF87ED99E00E94F846DA
:1015A00081E0DF91CF911F910F91FF90EF90DF903D
:1015B000CF90BF90AF909F900895CF92DF92FF920F
:1015C0000F931F93CF93DF9300D000D000D0EDB7DF
:1015D000FEB7319603E117E0ADB7BEB712961C9384
:1015E0000E9311978FEF93E0938382838FEA90E0BD
:1015F000958384830E94093B0F900F90EDB7FEB74F
:10160000128301838DEF93E0948383830E94093BCF
:10161000CDECD1E0FF240F900F900F900F9094EF3E
:10162000C92E93E0D92E2C813D818881F4E1FF16EB
:1016300019F490E0CC9701C090E04DB75EB74850E8
:1016400050400FB6F8945EBF0FBE4DBFEDB7FEB76A
:101650003196ADB7BEB711960C93119712961C93A5
:10166000D382C28235832483978386830E94093B79
:10167000F3942796EDB7FEB738960FB6F894FEBFF1
:101680000FBEEDBFF2E2FF1671F600D000D0ADB78D
:10169000BEB711960C93119712961C93129789EE70
:1016A00093E014969C938E9313970E94093B0F909E
:1016B0000F900F900F9081E0DF91CF911F910F91CC
:1016C000FF90DF90CF9008950F931F9300D000D02C
:1016D00000D0EDB7FEB7319603E117E0ADB7BEB766
:1016E00012961C930E9311978AE899E09383828354
:1016F00080E790E0958384830E94093BEDB7FEB7B5
:101700003196ADB7BEB712961C930E9311978DE12B
:1017100098E09383828380E890E0958384830E949D
:10172000093B8DB79EB706960FB6F8949EBF0FBEC5
:101730008DBF81E01F910F910895CF92DF92EF92BC
:10174000FF920F931F93DF93CF9300D000D0CDB7BC
:10175000DEB70E94A6517B018C016E010894C11C6A
:10176000D11C0E9485420E941438C60160918001FC
:101770000E9413358823E1F0E980FA800B811C81F7
:1017800080EC98EDA4E5BCE7E80EF91E0A1F1B1FCC
:101790006091D40170E080E090E024E833E040E024
:1017A00050E00E940D57E60EF71E081F191F0EC0CD
:1017B0000E94A6516E197F09800B910B685B7B40DC
:1017C0008040904070F2EE24FF248701B701C801E9
:1017D0000F900F900F900F90CF91DF911F910F916D
:1017E000FF90EF90DF90CF900895EF92FF921F93BC
:1017F000DF93CF9300D000D0CDB7DEB780919802B1
:10180000898380919F028A838091A6028B83809135
:10181000AD028C8310E07E010894E11CF11C609104
:1018200080016F5F60938001C7010E9476370E943C
:101830009D0B9B01AC01611571058105910519F4A2
:101840001F5F143161F7B901CA010F900F900F901B
:101850000F90CF91DF911F91FF90EF900895CF935C
:10186000DF939C011092E206FC01A081B181C0E0EF
:10187000D0E00FC09C919D3231F09B3221F0892F36
:1018800080538A3068F4FE01EE51F94F908321961F
:101890001196F901808191810A96A817B90750F332
:1018A000CE51D94F18821196F901B183A08382EEEF
:1018B00096E00E94ED07DF91CF910895BF92CF92FD
:1018C000DF92EF92FF920F931F93CF93DF932DB789
:1018D0003EB7285030400FB6F8943EBF0FBE2DBF24
:1018E000EDB7FEB7319603E117E0ADB7BEB712967C
:1018F0001C930E93119784EE93E09383828380E789
:1019000090E09583848387EF90E0978386830E949D
:10191000093B0F900F900F900F90EDB7FEB7128319
:10192000018381ED93E0948383830E94093B2DEC36
:10193000E22E21E0F22EDD24C0E0D0E00F900F90E7
:101940000F900F90B02EC12E02EC13E05C2F6D2F84
:10195000D70116968C91169781FF33C014962D915E
:101960003C91159711964C9111978C91C43119F4B3
:1019700090E0CC9701C090E0EDB7FEB73C970FB672
:10198000F894FEBF0FBEEDBF3196ADB7BEB711964E
:10199000BC9211971296CC921383028335832483D1
:1019A0004683178291878087528763870E94093B0D
:1019B000D394EDB7FEB73C960FB6F894FEBF0FBEBA
:1019C000EDBF219627E030E0E20EF31EC232D105D2
:1019D00009F0BCCF0E946E46ADB7BEB71E970FB6DA
:1019E000F894BEBF0FBEADBFEDB7FEB7319603E1B1
:1019F00017E012961C930E9311972AE933E0338374
:101A00002283D482158220E630E0378326836087E4
:101A10007187828793878091D401848715860E947D
:101A2000093BEDB7FEB73A960FB6F894FEBF0FBE6E
:101A3000EDBF128301838FE893E0948383830E9438
:101A4000093B00D0EDB7FEB73196ADB7BEB71296E1
:101A50001C930E93119789E693E09383828380E829
:101A600090E0958384830E94093BEDB7FEB73696DC
:101A70000FB6F894FEBF0FBEEDBF81E0DF91CF91AE
:101A80001F910F91FF90EF90DF90CF90BF9008953E
:101A90004F925F926F927F928F929F92AF92BF927E
:101AA000CF92DF92EF92FF920F931F93DF93CF932A
:101AB0000F92CDB7DEB70E946E465B016C0100D07D
:101AC00000D000D0EDB7FEB7319603E117E0ADB717
:101AD000BEB712961C930E9311978EE595E09383F3
:101AE00082838FEA90E0958384830E94093BEDB75F
:101AF000FEB772970FB6F894FEBF0FBEEDBF3196DA
:101B0000ADB7BEB712961C930E9311978AE095E07D
:101B100093838283A482B582C682D7828091FD0896
:101B2000808711868091FB0881708287138680915F
:101B3000FB0886958170848715868091FB088695C1
:101B400086958170868717868091FB0882958170C3
:101B5000808B118A80910B0990910C09A0910D093D
:101B6000B0910E09828B938BA48BB58B80E690E0AD
:101B7000978B868B0E94093B90E0EDB7FEB7789675
:101B80000FB6F894FEBF0FBEEDBF780106E015E07A
:101B900023C000D000D000D0EDB7FEB73196ADB76E
:101BA000BEB71196EC9211971296FC9213830283A2
:101BB000A92FB0E0A150B74F8C91848315829983EF
:101BC0000E94093B99819F5FEDB7FEB736960FB62D
:101BD000F894FEBF0FBEEDBF8091FD08A3E16A2E11
:101BE000A7E07A2E9817A8F200D000D0ADB7BEB704
:101BF00012967C926E9211978CEF94E014969C93BF
:101C00008E9313970E94093B99240F900F900F9089
:101C10000F90C301762C892EF5EF4F2EF4E05F2E46
:101C200066C0A92DB0E0FD01E855F74F608166233D
:101C3000A9F1CD01880F991F880F991FFC01E85D5C
:101C4000F84FE080F18002811381FC01E851F84FE8
:101C5000AE14BF04C006D10648F020813181428114
:101C600053812A193B094C095D0908C02081318143
:101C7000428153812E193F09400B510BAA0FBB1F04
:101C8000AA0FBB1FA851B84F8D919D910D90BC918B
:101C9000A02D8E5F9F4FAF4FBF4F21F420E030E06B
:101CA00040E050E08DB79EB70A970FB6F8949EBFFC
:101CB0000FBE8DBFEDB7FEB73196ADB7BEB711966B
:101CC0007C92119712968C92538242826483158281
:101CD00026833783408751870E94093B9394EDB751
:101CE000FEB73A960FB6F894FEBF0FBEEDBF8091D7
:101CF000FE08981608F495CF00D000D083E197E055
:101D0000ADB7BEB712969C938E9311978FEE94E069
:101D100014969C938E9313970E94093B81E00F9039
:101D20000F900F900F900F90CF91DF911F910F9117
:101D3000FF90EF90DF90CF90BF90AF909F908F90EB
:101D40007F906F905F904F900895BF92CF92DF92F7
:101D5000EF92FF920F931F936C01FC01B080E18022
:101D60000E946E4620E831E541E050E00E945F5756
:101D70008B2D8F77280F311D411D511DFF2400E051
:101D800010E0CA01B901A80197010E945F57F0E86D
:101D9000BF22B62AF601B0821F910F91FF90EF90FB
:101DA000DF90CF90BF9008956F927F928F929F9215
:101DB000AF92BF92CF92DF92EF92FF920F931F9359
:101DC0004C01FC01708061800E946E46A62CBB24F1
:101DD000CC24DD24BFE7EB2EE720FF24E60CF11C2A
:101DE0000027F7FC0095102F20E831E541E050E096
:101DF0000E945F57CA01B901A60195010E945F5771
:101E0000E61AF70A080B190BC801B701A6019501DC
:101E10000E945F57F0E87F22762AF40170821F91BA
:101E20000F91FF90EF90DF90CF90BF90AF909F9079
:101E30008F907F906F900895EF92FF921F93CF93B2
:101E4000DF93182F7B010E946E469B01AC01C12FCE
:101E5000D0E02F5F3F4F4F4F5F4FCE01880F991F4C
:101E6000880F991FFC01E85DF84F2083318342837E
:101E70005383FC01E851F84FE114F10449F48EEF6B
:101E80009FEFAFEFBFEF80839183A283B3830DC039
:101E9000C701AA2797FDA095BA2F280F391F4A1FFF
:101EA0005B1F2083318342835383C855D74F83E61A
:101EB00088838091FB0888608093FB08DF91CF9135
:101EC0001F91FF90EF9008958F929F92AF92BF92D3
:101ED000CF92DF92EF92FF920F931F93CF93DF93F6
:101EE0008C010E5F1F4F20E030E006C0F901EF517A
:101EF000F94F90830F5F1F4FE22FD8019C91892FDC
:101F000080538A3028F42F5F3F4F2530310571F719
:101F1000F0E0EE51F94F108282EE96E00E94ED075C
:101F2000EC0197FD00C18091FE0890E08C179D07A1
:101F30000CF4F9C0F80180818D3309F057C0209767
:101F400009F4F1C08091FB0884FFEDC02197C8011E
:101F500001962181203379F40E946E46EC2FF0E047
:101F6000EE0FFF1FEE0FFF1FE851F84F60837183E4
:101F70008283938319C0213309F0D5C062EE76E0E5
:101F800040E320E031E00E940D41882319F460E035
:101F900070E007C082EE96E00E94ED07BC0197FD5D
:101FA000C2C08C2F0E941C0F00D000D000D0EDB713
:101FB000FEB7319683E197E0ADB7BEB712969C931A
:101FC0008E93119789ED91E09383828380E790E06F
:101FD000958384830E94093B81E0EDB7FEB7369676
:101FE0000FB6F894FEBF0FBEEDBF9EC000D000D06C
:101FF00000D0EDB7FEB7319683E197E0ADB7BEB73D
:1020000012969C938E93119786ED91E09383828331
:1020100080E790E0958384830E94093BEDB7FEB78B
:1020200036960FB6F894FEBF0FBEEDBF209721F491
:102030008091FE0890E003C08C2F9C2F9150C0E04F
:10204000D0E0E92EFF24082F10E073E1C72E77E0DF
:10205000D72E60ED862E61E0962E53EDA52E51E031
:10206000B52E58C09091FB0890FF39C091FD37C044
:1020700080916002882311F092FD31C000D000D021
:1020800000D0ADB7BEB71196EDB7FEB7D282C18210
:102090001396BC92AE921297F90143E0F595E7953D
:1020A0004A95E1F7E150F74F808190E0277030705A
:1020B00002C0959587952A95E2F7817090701596E4
:1020C0009C938E9314970E94093B2DB73EB72A5FCD
:1020D0003F4F0FB6F8943EBF0FBE2DBF1AC000D0C1
:1020E00000D000D0EDB7FEB73196ADB7BEB71296AF
:1020F000DC92CE92119793828282158214820E9482
:10210000093BEDB7FEB736960FB6F894FEBF0FBE8B
:10211000EDBF21969E012E0D3F1D201731070CF4B7
:10212000A1CF81E001C080E0DF91CF911F910F919D
:10213000FF90EF90DF90CF90BF90AF909F908F90E7
:102140000895BF92CF92DF92EF92FF920F931F9369
:10215000CF93DF9300D000D003E117E0ADB7BEB757
:1021600012961C930E9311978BE19AE014969C9310
:102170008E9313970E94093BFF240F900F900F90AE
:102180000F90B02EE12EB2EECB2EB6E0DB2E05E1A5
:102190001AE021C08F2D62EE76E00E94422800D026
:1021A00000D000D0EDB7FEB73196ADB7BEB71196EF
:1021B000BC9211971296EC9213830283D582C4824B
:1021C0000E94093BF394EDB7FEB736960FB6F8942C
:1021D000FEBF0FBEEDBF8091FE08C3E1D7E0F81649
:1021E000C8F200D000D0ADB7BEB71296DC93CE9344
:1021F000119780E19AE014969C938E9313970E9416
:10220000093B0F900F900F900F908E819F812C8132
:102210003D81821B930B60E140E00E94ED35DF9130
:10222000CF911F910F91FF90EF90DF90CF90BF90D3
:1022300008954F925F926F927F928F929F92AF928A
:10224000BF92CF92DF92EF92FF920F931F93DF9393
:10225000CF930F92CDB7DEB70E946E465B016C0143
:102260002DB73EB7285030400FB6F8943EBF0FBE92
:102270002DBFEDB7FEB7319603E117E0ADB7BEB79E
:1022800012961C930E93119782EE94E093838283AF
:1022900080E790E09583848387EF90E0978386833F
:1022A0000E94093BEDB7FEB738960FB6F894FEBF13
:1022B0000FBEEDBF0E94A1101092160710921507D5
:1022C00084E993E0909318078093170790931A0777
:1022D000809319072DB73EB72A5030400FB6F894B7
:1022E0003EBF0FBE2DBFEDB7FEB73196ADB7BEB73F
:1022F00012961C930E9311978DEC94E09383828336
:102300008BEC90E095838483A682B782C086D186C9
:102310000E94093B0F900F90EDB7FEB73196ADB715
:10232000BEB712961C930E93119783EB94E09383A0
:1023300082838091FD08848315828091D4018683F5
:1023400017820E94093B90E0EDB7FEB738960FB6B2
:10235000F894FEBF0FBEEDBF78010FEA14E023C072
:1023600000D000D000D0EDB7FEB73196ADB7BEB704
:102370001196EC9211971296FC9213830283A92F67
:10238000B0E0A150B74F8C918483158299830E944D
:10239000093B99819F5FEDB7FEB736960FB6F8946B
:1023A000FEBF0FBEEDBF8091FD0823E1622E27E046
:1023B000722E9817A8F200D000D0ADB7BEB7129613
:1023C0007C926E92119783EA94E014969C938E937C
:1023D00013970E94093B99240F900F900F900F9034
:1023E000C301762C892E8AE9482E84E0582E66C0D7
:1023F000A92DB0E0FD01E855F74F60816623A9F1F2
:10240000CD01880F991F880F991FFC01E85DF84FD7
:10241000E080F18002811381FC01E851F84FAE1495
:10242000BF04C006D10648F020813181428153812A
:102430002A193B094C095D0908C02081318142817C
:1024400053812E193F09400B510BAA0FBB1FAA0F36
:10245000BB1FA851B84F8D919D910D90BC91A02D9F
:102460008E5F9F4FAF4FBF4F21F420E030E040E040
:1024700050E08DB79EB70A970FB6F8949EBF0FBE77
:102480008DBFEDB7FEB73196ADB7BEB711967C9252
:10249000119712968C92538242826483158226830E
:1024A0003783408751870E94093B9394EDB7FEB76D
:1024B0003A960FB6F894FEBF0FBEEDBF8091FE08AE
:1024C000981608F495CF2DB73EB72A5130400FB675
:1024D000F8943EBF0FBE2DBFEDB7FEB7319603E1B6
:1024E00017E0ADB7BEB712961C930E93119788E410
:1024F00094E0938382838091FB08817084831582AA
:102500008091FB0886958170868317828091FB08F5
:10251000869586958170808711868091FB088295CB
:1025200081708287138680910B0990910C09A0918C
:102530000D09B0910E0984879587A687B78780918A
:102540004B02808B118A80916002828B138A80916A
:102550006E02848B158A80917C02868B178A80E6B6
:1025600090E0918F808F0E94093BEDB7FEB73C96BB
:102570000FB6F894FEBF0FBEEDBF3196ADB7BEB734
:1025800012961C930E93119786E294E093838283B4
:10259000809120078483158280912107868317828A
:1025A000809122079091230791878087809124074B
:1025B00090912507A0912607B091270782879387DE
:1025C000A487B5870E94093BEDB7FEB738960FB6D2
:1025D000F894FEBF0FBEEDBF3196ADB7BEB71296F1
:1025E0001C930E93119782E094E09383828380E89A
:1025F00090E0958384830E94093BEDB7FEB7369641
:102600000FB6F894FEBF0FBEEDBF81E00F90CF91E3
:10261000DF911F910F91FF90EF90DF90CF90BF90CF
:10262000AF909F908F907F906F905F904F900895A4
:10263000FF920F931F93CF93DF938C010E9472360A
:10264000109216071092150784E993E090931807EB
:102650008093170790931A0780931907A8014B5F7F
:102660005F4FD80115968C91803221F4CA010E94E7
:1026700019116EC0C1E8D1E0A0E0B0E0682F772763
:1026800067FD7095FA2EE881F981849190E08617B4
:10269000970709F06CC03196249130E0FA018181EE
:1026A000992787FD90952817390709F060C0AA0F70
:1026B000BB1FAA0FBB1FAD57BE4FED91FC91CA01C6
:1026C0000995882301F500D000D000D0EDB7FEB702
:1026D000319683E197E0ADB7BEB712969C938E9387
:1026E00011978DEC91E09383828382E291E0958350
:1026F00084830E94093BEDB7FEB736960FB6F89477
:10270000FEBF0FBEEDBFF3E1FF1611F58091FB0890
:1027100086FF1EC0402FE2EEF6E0C801DC0101C0DA
:1027200081939A2F941B15968C911597803229F0DE
:10273000119627E0E230F20799F7E92FF0E0EE5129
:10274000F94F108282EE96E061E00E94640A17C0A1
:102750008091190790911A07209117073091180757
:10276000821B930B61E140E00E94ED3508C0F394B9
:1027700011962496A331B10509F084CFC4CFDF911F
:10278000CF911F910F91FF900895BF92CF92DF924A
:10279000EF92FF920F931F93CF93DF932DB73EB726
:1027A000285030400FB6F8943EBF0FBE2DBFEDB796
:1027B000FEB7319603E117E0ADB7BEB712961C9392
:1027C0000E93119782EB97E09383828380E790E0EA
:1027D0009583848387EF90E0978386830E94093BEB
:1027E000EDB7FEB738960FB6F894FEBF0FBEEDBF3B
:1027F0000E94A110109216071092150784E993E029
:10280000909318078093170790931A0780931907DE
:102810002DB73EB72A5030400FB6F8943EBF0FBEDA
:102820002DBFEDB7FEB73196ADB7BEB712961C936C
:102830000E9311978EE897E0938382838091FD0831
:102840008483158280914B028683178280917C025B
:10285000808711860E94093BDD24E12C44E0F42EA0
:10286000EDB7FEB73A960FB6F894FEBF0FBEEDBFB8
:10287000B02EC12E0AE817E033C0F999FECFF2BCA2
:10288000E1BCF89A90B5F999FECF0894E11CF11CCF
:10289000F2BCE1BCF89A80B5D92FC0E000D000D0DE
:1028A00000D0EDB7FEB73196ADB7BEB71196BC926A
:1028B00011971296CC92138302839E01280F311D2B
:1028C000358324830E94093BD3940894E11CF11CB6
:1028D0008DB79EB706960FB6F8949EBF0FBE8DBFFC
:1028E0008091FE08D81608F4C8CF00D000D003E1CC
:1028F00017E0ADB7BEB712961C930E9311978CE7F5
:1029000097E014969C938E9313970E94093B00D0F6
:10291000EDB7FEB73196ADB7BEB712961C930E93C6
:10292000119786E597E09383828380E890E0958312
:1029300084830E94093BEDB7FEB736960FB6F89434
:10294000FEBF0FBEEDBF81E0DF91CF911F910F91D0
:10295000FF90EF90DF90CF90BF900895CF92DF92DD
:10296000FF920F931F93DF93CF930F92CDB7DEB7F4
:1029700000D000D000D0EDB7FEB7319603E117E0EC
:10298000ADB7BEB712961C930E93119784E99AE0E7
:102990009383828380E790E0958384830E94093B40
:1029A000EDB7FEB736960FB6F894FEBF0FBEEDBF7B
:1029B0000E94A110109216071092150784E993E067
:1029C000909318078093170790931A07809319071D
:1029D0002DB73EB72C5030400FB6F8943EBF0FBE17
:1029E0002DBFEDB7FEB73196ADB7BEB712961C93AB
:1029F0000E9311978BE69AE0938382838091FD0872
:102A00008483158280E190E09783868380914B02D6
:102A10008087118680917C02828713860E94093B01
:102A2000EDB7FEB738960FB6F894FEBF0FBEEDBFF8
:102A3000128301838FE59AE0948383830E94093B8C
:102A400090E00F900F900F900F90F02E012F5BE50C
:102A5000C52E5AE0D52E23C000D000D000D0EDB74F
:102A6000FEB73196ADB7BEB71196FC92119712968C
:102A70000C93D382C282A92FB0E0AB5FB64F8C918A
:102A80008483158299830E94093B99819F5FEDB7EA
:102A9000FEB736960FB6F894FEBF0FBEEDBF80911D
:102AA000FD089817C8F200D000D000D0EDB7FEB7EF
:102AB000319683E197E0ADB7BEB712969C938E93A3
:102AC000119788E29AE09383828380E890E095836F
:102AD00084830E94093BEDB7FEB736960FB6F89493
:102AE000FEBF0FBEEDBF81E00F90CF91DF911F9130
:102AF0000F91FF90DF90CF900895BF92CF92DF9219
:102B0000EF92FF920F931F93CF93DF9300D000D0EB
:102B100000D0EDB7FEB7319603E117E0ADB7BEB711
:102B200012961C930E93119788ED9AE093838283FB
:102B30008FEA90E0958384830E94093B0F900F9069
:102B4000EDB7FEB7128301838CEC9AE09483838304
:102B50000E94093BFF240F900F900F900F90B02E12
:102B6000E12E72EEC72E76E0D72E06EC1AE021C0D9
:102B70008F2D62EE76E00E94422800D000D000D077
:102B8000EDB7FEB73196ADB7BEB71196BC921197AF
:102B90001296EC9213830283D582C4820E94093B71
:102BA000F394EDB7FEB736960FB6F894FEBF0FBE9E
:102BB000EDBF8091FE08C3E1D7E0F816C8F200D05F
:102BC00000D0ADB7BEB71296DC93CE93119783EBCE
:102BD0009AE014969C938E9313970E94093B00E011
:102BE0000F900F900F900F90CE01DC2E192F6FEAEF
:102BF000E62E6AE0F62E21C000D000D000D0EDB75E
:102C0000FEB73196ADB7BEB71196DC92119712960A
:102C10001C93F382E282A02FB0E0AB5FB64F8C91A1
:102C2000848315820E94093B0F5FEDB7FEB736968D
:102C30000FB6F894FEBF0FBEEDBF8091FD08C3E153
:102C4000D7E00817C8F200D000D000D0EDB7FEB72B
:102C50003196ADB7BEB71296DC93CE9311978FE93C
:102C60009AE09383828380E190E0958384830E943D
:102C7000093BEDB7FEB736960FB6F894FEBF0FBE10
:102C8000EDBF81E0DF91CF911F910F91FF90EF9009
:102C9000DF90CF90BF9008959C0180917C028823A3
:102CA00011F081E00895C90162EE76E040E322E090
:102CB00031E00E940D41882331F082EE96E00E94BF
:102CC0004129811181E008954F925F926F927F9226
:102CD0008F929F92AF92BF92CF92DF92EF92FF922C
:102CE0000F931F93DF93CF93CDB7DEB7E5970FB662
:102CF000F894DEBF0FBECDBFF3E0AF2EB12CA80E0F
:102D0000B91EC5010E944C16882309F436C15090A3
:102D1000D4014090DB010DEC11E0EE24CC24DD2445
:102D20004E010894811C911CE2E06E2E712C6C0EF9
:102D30007D1E2C2D9D2DD80116968C91169781FF06
:102D40003BC011968C911197813009F41C92D401EB
:102D5000ECEFF2E085E001900D928150E1F7822FD7
:102D6000B3014AE050E00E94F108C50162EE76E04E
:102D700040E394010E940D418823F1F0F801F180B5
:102D8000F1E0FF1619F4D801FC9216C082EE96E02D
:102D90000E94ED079C01B4E1CB1611F4245C3F4F77
:102DA00037FD08C08F2D90E0821793071CF0F801C3
:102DB000208302C0EE24E3940894C11CD11C095F57
:102DC0001F4FF2E2CF16D10409F0B3CFC50162EE76
:102DD00076E040E325E031E00E940D41882351F088
:102DE00082EE96E00E94594180E690E062EE76E045
:102DF0000E941C29C50162EE76E040E329E031E043
:102E00000E940D418823C1F082EE96E00E94594154
:102E100082EE96E00E940B08162F072FF82ED92E6F
:102E20000E9441468091FB0885FF06C0612F702FEC
:102E30008F2D9D2D0E944F34EE2089F000D000D0C0
:102E400000D0EDB7FEB7319683E197E0ADB7BEB7DE
:102E500012969C938E9311978CEA92E0B5C00E94D3
:102E6000F828C50162EE76E040E32DE031E00E94F3
:102E70000D41882309F444C08E010A5F1F4FC5012C
:102E8000B80140E321E131E00E940D41882309F4BB
:102E90008BC082EE96E0B80140E150E00E945F08EE
:102EA000009709F081C080E490E062EE76E00E9435
:102EB0001C292DB73EB7285030400FB6F8943EBFBE
:102EC0000FBE2DBFEDB7FEB7319683E197E0ADB7EA
:102ED000BEB712969C938E93119784E892E09383E9
:102EE000828380E790E09583848382E791E09783F3
:102EF00086830E94093B81E0EDB7FEB7389670C02B
:102F00002DB73EB7285030400FB6F8943EBF0FBEE5
:102F10002DBFEDB7FEB7319683E197E0ADB7BEB7F1
:102F200012969C938E9311978AE092E0938382830A
:102F300080E790E09583848382E791E0978386839E
:102F40000E94093BEDB7FEB738960FB6F894FEBF66
:102F50000FBEEDBF8091D401851531F4442061F49A
:102F60008091DB01882341F010921B0710921C070F
:102F700010921D0710921E0781E0E5960FB6F89497
:102F8000DEBF0FBECDBFCF91DF911F910F91FF909C
:102F9000EF90DF90CF90BF90AF909F908F907F90F9
:102FA0006F905F904F90089500D000D000D0EDB7A3
:102FB000FEB7319683E197E0ADB7BEB712969C930A
:102FC0008E93119786E392E09383828380E790E06B
:102FD000958384830E94093B81E0EDB7FEB7369666
:102FE0000FB6F894FEBF0FBEEDBFC7CF0F931F9370
:102FF000DF93CF93CDB7DEB7C058D0400FB6F8946B
:10300000DEBF0FBECDBF8C010D5F1F4FC8010E94F8
:103010004C16882309F440C0C8018E010F5F1F4F72
:10302000B80140E825E131E00E940D41882341F0DC
:10303000C8010E94594180E890E0B8010E941C2913
:103040002DB73EB7285030400FB6F8943EBF0FBEA4
:103050002DBFEDB7FEB7319683E197E0ADB7BEB7B0
:1030600012969C938E93119785EF92E093838283BF
:1030700080E790E09583848382E791E0978386835D
:103080000E94093B81E02DB73EB7285F3F4F0FB646
:10309000F8943EBF0FBE2DBFC058DF4F0FB6F89457
:1030A000DEBF0FBECDBFCF91DF911F910F9108956D
:1030B0008F929F92AF92BF92CF92DF92FF920F9327
:1030C0001F93DF93CF9300D000D0CDB7DEB713E0CE
:1030D000C12ED12CC80ED91EC6010E944C168823C1
:1030E00009F483C083E789831A821B821C8210E063
:1030F000B2E08B2E912C8C0E9D1E5E010894A11CBB
:10310000B11C1AC0812F90E0B4014AE050E00E9447
:10311000F108C60162EE76E040E395010E940D41A0
:10312000882349F082EE96E00E945941812F62EE99
:1031300076E00E9467281F5F8091FE08181710F341
:103140008DE68983FF24A2E08A2E912C8C0E9D1E91
:103150005E010894A11CB11C1AC00F2D10E0C8011B
:10316000B4014AE050E00E94F108C60162EE76E048
:1031700040E395010E940D41882341F082EE96E0E4
:103180000E94ED070B5F164FD8018C93F39480914A
:10319000FD08F81610F30E949128EDB7FEB7389796
:1031A0000FB6F894FEBF0FBEEDBF319683E197E0F6
:1031B000ADB7BEB712969C938E9311978BEE99E0A4
:1031C0009383828380E790E09583848382E791E014
:1031D000978386830E94093B81E0EDB7FEB738965E
:1031E0000FB6F894FEBF0FBEEDBF0F900F900F907B
:1031F0000F90CF91DF911F910F91FF90DF90CF90B3
:10320000BF90AF909F908F9008958F929F92AF92B2
:10321000BF92CF92DF92EF92FF920F931F93CF93C3
:10322000DF93EC017A018B01CB01BA010E945B456F
:103230004C01C801B7010E9455455C01888988236B
:1032400009F481C0D880D7FE21C0C98021E02C15A7
:10325000E8F4C801B70120E831E541E050E00E9400
:103260005F57CA01B9012C2D30E040E050E00E94C8
:103270005F572FE7D2222D2D30E040E050E062175B
:1032800073078407950709F05EC031C0C801B70114
:103290000E944945288130E090E0059667E070E0A3
:1032A0000E944C5702C0359527958A95E2F720FF7A
:1032B0004AC0C801B7010E944F45D82E888187FFB8
:1032C00016C08981882319F4D0FE11C03CC081301A
:1032D00071F48FE1D816B9F12DE1D21609F042C090
:1032E000C801B7010E9443450297E1F52CC08CE369
:1032F00090E0889E9001899E300D989E300D11249B
:103300002A0D3B1D4A815B8124173507E0F08C8133
:103310009D8182179307B8F0EE81FF81309799F075
:10332000241B350B40E0C901BF010E9438576E9F36
:10333000C0016F9F900D7E9F900D112482179307FF
:1033400019F441E001C040E0842FDF91CF911F913B
:103350000F91FF90EF90DF90CF90BF90AF909F9034
:103360008F900895D0FCC3CFEECF982F9B01809112
:103370001F07981768F461E1969FB00111246859FE
:103380007B4FC90141E150E024E639E00E946D081D
:103390000895CF92DF92EF92FF920F931F93DF93E6
:1033A000CF93CDB7DEB762970FB6F894DEBF0FBEEE
:1033B000CDBF8C010D5F1F4FC8010E945941C8014C
:1033C00062EE76E040E329E131E00E940D4188237E
:1033D00009F42BC182EE96E00E94ED077C012FEFED
:1033E0008F3F92070CF421C180911F0790E0E816EF
:1033F000F9060CF01AC18DB79EB708970FB6F8946E
:103400009EBF0FBE8DBFEDB7FEB7319603E117E04B
:10341000ADB7BEB712961C930E93119787E097E055
:103420009383828380E790E09583848387EF90E0A5
:10343000978386830E94093BEDB7FEB738960FB697
:10344000F894FEBF0FBEEDBF0E94A11010921607A8
:103450001092150784E993E090931807809317075B
:1034600090931A07809319072DB73EB72A50304022
:103470000FB6F8943EBF0FBE2DBFEDB7FEB7319625
:10348000ADB7BEB712961C930E93119788EE96E0D7
:10349000938382838091FD0884831582F782E6827C
:1034A00080917C02808711860E94093BEDB7FEB7B0
:1034B0003A960FB6F894FEBF0FBEEDBFFFEFEF16C2
:1034C000FFEFFF0609F48FC08E2D7E010894E11CEA
:1034D000F11CB7010E94B5198A81823018F0C7012A
:1034E0000E94D40E2DB73EB7225130400FB6F8944B
:1034F0003EBF0FBE2DBFEDB7FEB7319603E117E01B
:10350000ADB7BEB712961C930E93119789EC96E057
:103510009383828389898483158289818683178234
:103520008A81808711868B819C81938782878D8198
:103530009E81958784878F819885978786878985DF
:103540009A85918B808B0E94093B90E0EDB7FEB786
:1035500072960FB6F894FEBF0FBEEDBF680105EC82
:10356000E02E06E0F02E8E01055F1F4F22C000D036
:1035700000D000D0EDB7FEB73196ADB7BEB711960B
:10358000CC9211971296DC92F382E282D801A90FB5
:10359000B11D8C91848315829A8B0E94093B9A8974
:1035A0009F5FEDB7FEB736960FB6F894FEBF0FBE1D
:1035B000EDBF8091FD089817D0F200D000D083E1D4
:1035C00097E0ADB7BEB712969C938E93119782EC9D
:1035D00096E014969C938E9313970E94093B0F904C
:1035E0000F900F900F9000D000D000D0EDB7FEB735
:1035F000319683E197E0ADB7BEB712969C938E9358
:10360000119781E996E09383828380E890E0958327
:1036100084830E94093B81E0EDB7FEB736960FB672
:10362000F894FEBF0FBEEDBF01C080E062960FB6FA
:10363000F894DEBF0FBECDBFCF91DF911F910F91E8
:10364000FF90EF90DF90CF9008952F923F924F928E
:103650005F926F927F928F929F92AF92BF92CF9222
:10366000DF92EF92FF920F931F93DF93CF93CDB72B
:10367000DEB761970FB6F894DEBF0FBECDBF00D0A6
:1036800000D000D0EDB7FEB7319603E117E0ADB73B
:10369000BEB712961C930E9311978AE198E093831C
:1036A00082838FEA90E0958384830E94093B00D057
:1036B00000D0EDB7FEB73196ADB7BEB712961C93EA
:1036C0000E93119780EF97E09383828380911F0779
:1036D000848315828091FD088683178286E390E0BB
:1036E000918780870E94093BDD24EDB7FEB73A96AB
:1036F0000FB6F894FEBF0FBEEDBF4E010894811CBB
:10370000911CC02E012F2BE0222E312C2C0E3D1EA1
:103710004C2C512E93ED692E97E0792E84E9A82E3A
:1037200083E0B82E9AC08D2DB4010E94B5198A810C
:10373000823018F0C4010E94D40EED2CFF248DB706
:103740009EB744970FB6F8949EBF0FBE8DBFEDB7DE
:10375000FEB73196ADB7BEB71196CC9211971296BF
:103760000C938AED97E093838283F582E4828989C2
:10377000868317828981808711868A818287138652
:103780008B819C81958784878D819E819787868791
:103790008F819885918B808B89859A85938B828B7D
:1037A0000E94093B10E0ADB7BEB754961DC000D0D3
:1037B00000D000D0EDB7FEB73196ADB7BEB71196C9
:1037C000CC92119712960C9386ED97E093838283A7
:1037D000D101A10FB11D8C91848315820E94093BF8
:1037E0001F5FADB7BEB716960FB6F894BEBF0FBE3B
:1037F000ADBF8091FD081817D0F200D000D0EDB712
:10380000FEB741825282748263820E94093BF3E0D8
:10381000EF22FF240F900F900F900F9083E0E81697
:10382000F104D1F48091190790911A07209117079C
:1038300030911807821B930B60E140E00E94ED3548
:103840001092160710921507B0921807A09217074A
:10385000B0921A07A0921907D39480911F07D81627
:1038600008F461CF00D000D083E197E0ADB7BEB7D8
:1038700012969C938E9311978FEB97E014969C93DE
:103880008E9313970E94093B0F900F900F900F900B
:1038900081E061960FB6F894DEBF0FBECDBFCF9129
:1038A000DF911F910F91FF90EF90DF90CF90BF902D
:1038B000AF909F908F907F906F905F904F903F90D0
:1038C0002F9008952F923F924F925F926F927F9226
:1038D0008F929F92AF92BF92CF92DF92EF92FF9220
:1038E0000F931F93DF93CF93CDB7DEB761970FB6DA
:1038F000F894DEBF0FBECDBF8DB79EB70C970FB645
:10390000F8949EBF0FBE8DBFEDB7FEB7319603E1B1
:1039100017E0ADB7BEB712961C930E9311978CEBC0
:1039200099E09383828380911F078483158280911D
:10393000FD088683178280917C028087118686E34A
:1039400090E0938782870E94093BDD24EDB7FEB7A4
:103950003C960FB6F894FEBF0FBEEDBF4E01089423
:10396000811C911CC02E012F5BE0252E312C2C0ECA
:103970003D1E4C2C512E48E9642E49E0742E34E94A
:10398000A32E33E0B32E9AC08D2DB4010E94B51939
:103990008A81823018F0C4010E94D40EED2CFF24DD
:1039A0008DB79EB744970FB6F8949EBF0FBE8DBFDC
:1039B000EDB7FEB73196ADB7BEB71196CC92119761
:1039C00012960C938FE999E093838283F582E482C7
:1039D0008989868317828981808711868A81828777
:1039E00013868B819C81958784878D819E819787A3
:1039F00086878F819885918B808B89859A85938B1B
:103A0000828B0E94093B10E0ADB7BEB754961DC033
:103A100000D000D000D0EDB7FEB73196ADB7BEB73D
:103A20001196CC92119712960C938BE999E093839F
:103A30008283D101A10FB11D8C91848315820E94D4
:103A4000093B1F5FADB7BEB716960FB6F894BEBF61
:103A50000FBEADBF8091FD081817D0F200D000D086
:103A6000EDB7FEB741825282748263820E94093BA5
:103A7000F3E0EF22FF240F900F900F900F9083E060
:103A8000E816F104D1F48091190790911A0720915A
:103A9000170730911807821B930B60E140E00E94EA
:103AA000ED351092160710921507B0921807A092E4
:103AB0001707B0921A07A0921907D39480911F0795
:103AC000D81608F461CF00D000D083E197E0ADB7FD
:103AD000BEB712969C938E9311978DE899E0149639
:103AE0009C938E9313970E94093B0F900F900F9019
:103AF0000F9061960FB6F894DEBF0FBECDBFCF9189
:103B0000DF911F910F91FF90EF90DF90CF90BF90CA
:103B1000AF909F908F907F906F905F904F903F906D
:103B20002F9008952F923F924F925F926F927F92C3
:103B30008F929F92AF92BF92CF92DF92EF92FF92BD
:103B40000F931F93DF93CF9300D0CDB7DEB78C01D7
:103B50000D5F1F4FC8010E9459410E946E465B01D4
:103B60006C010E943A452C01C601B5010E944345F3
:103B70003C01C601B5010E944F454C01C601B5018B
:103B80000E945B459A838983C601B5010E94554511
:103B90001C01C80162EE76E040E32DE131E00E94B5
:103BA0000D41882361F082EE96E00E94ED074C0102
:103BB000009729F4C601B5010E944F454C01C80188
:103BC00062EE76E040E32FE131E00E940D41882370
:103BD00029F082EE96E00E94ED073C01C80162EEFA
:103BE00076E040E321E231E00E940D41882329F094
:103BF00082EE96E00E94ED072C0100D000D000D0AC
:103C0000EDB7FEB73196A3E1EA2EA7E0FA2EADB7E5
:103C1000BEB71296FC92EE9211978BE596E09383D5
:103C2000828380E790E0958384830E94093BEDB70F
:103C3000FEB736960FB6F894FEBF0FBEEDBF0E94DA
:103C4000A110109216071092150784E993E0909343
:103C500018078093170790931A07809319072DB7B9
:103C60003EB72A5130400FB6F8943EBF0FBE2DBF6D
:103C70000DB71EB70F5F1F4FADB7BEB71296FC92C0
:103C8000EE92119784E096E0F8019383828380910D
:103C90003D028483158280914B0286831782809136
:103CA0006E028087118680914402828713868091FC
:103CB0005202848715868091590286871786C6012D
:103CC000B50120E831E541E050E00E945F57D8019E
:103CD00051963C932E9350978CE390E0E981FA81C2
:103CE0009C01E29FC001E39F900DF29F900D112473
:103CF000820D931D53969C938E93529755969C924A
:103D00008E92549757967C926E92569759965C92E3
:103D10004E9258970E94093B4DB75EB74A5E5F4F7F
:103D20000FB6F8945EBF0FBE4DBFADB7BEB71296CB
:103D3000FC92EE92119788EF95E014969C938E93E7
:103D400013970E94093B00E00F900F900F900F9087
:103D5000BE2CEF2C74EFC72E75E0D72E21C000D0FB
:103D600000D000D0EDB7FEB73196ADB7BEB7119613
:103D7000BC9211971296EC92D382C282A02FB0E02F
:103D8000AB5FB64F8C91848315820E94093B0F5F15
:103D9000EDB7FEB736960FB6F894FEBF0FBEEDBF77
:103DA0008091FD0863E1862E67E0962E0817B8F231
:103DB00000D000D0ADB7BEB712969C928E921197EC
:103DC00080EF95E014969C938E9313970E94093B85
:103DD0000F900F900F900F900E94621C00D000D0A7
:103DE00000D0EDB7FEB73196ADB7BEB712969C9234
:103DF0008E92119788EC95E09383828380E890E01F
:103E0000958384830E94093BEDB7FEB736960FB6C3
:103E1000F894FEBF0FBEEDBF81E00F900F90CF91E1
:103E2000DF911F910F91FF90EF90DF90CF90BF90A7
:103E3000AF909F908F907F906F905F904F903F904A
:103E40002F9008950F931F938DB79EB708970FB6C5
:103E5000F8949EBF0FBE8DBFEDB7FEB7319603E15C
:103E600017E0ADB7BEB712961C930E9311978CE373
:103E700097E09383828380E790E09583848387EF44
:103E800090E0978386830E94093B8DB79EB7089682
:103E90000FB6F8949EBF0FBE8DBF0E94A110109266
:103EA00016071092150784E993E090931807809302
:103EB000170790931A07809319070E94621C00D07D
:103EC00000D000D0EDB7FEB73196ADB7BEB71296B1
:103ED0001C930E93119784E197E09383828380E88B
:103EE00090E0958384830E94093B8DB79EB7069628
:103EF0000FB6F8949EBF0FBE8DBF81E01F910F914A
:103F00000895DF92EF92FF920F931F93DF93CF9369
:103F1000CDB7DEB761970FB6F894DEBF0FBECDBF49
:103F200020911F07821708F043C0222309F440C0E4
:103F300090E001968C0124E0000F111F2A95E1F713
:103F4000080F191F08591B4FB1E1DB2E7E010894A1
:103F5000E11CF11C13C0C701B80141E150E024E6A7
:103F600039E00E946D08C8014197B70141E150E076
:103F70002CE639E00E94AF080F5E1F4F20911F070B
:103F80002D9DC001112488599B4F0817190718F35C
:103F9000215020931F07F999FECF1FBA86E694E0BF
:103FA00092BD81BD20BD0FB6F894FA9AF99A0FBE62
:103FB00061960FB6F894DEBF0FBECDBFCF91DF91F3
:103FC0001F910F91FF90EF90DF900895CF93DF93B3
:103FD000EC012396CE010E945941CE010E944C165D
:103FE000882309F450C0CE0162EE76E040E329E177
:103FF00031E00E940D41882309F445C082EE96E02D
:104000000E94ED079C018FEF2F3F380781F410923B
:104010001F07F999FECF1FBA86E694E092BD81BDD5
:1040200010BC0FB6F894FA9AF99A0FBE09C08091A5
:104030001F0790E02817390734F5822F0E94811F4F
:1040400000D000D000D0EDB7FEB7319683E197E005
:10405000ADB7BEB712969C938E93119786E696E005
:104060009383828380E790E0958384830E94093B59
:1040700081E02DB73EB72A5F3F4F0FB6F8943EBFA1
:104080000FBE2DBF01C080E0DF91CF910895982F22
:1040900080911F07981760F481E1989FC001112457
:1040A00088599B4F41E150E02CE639E00E94AF086F
:1040B0000895BC0190911F079633F0F481E1989F19
:1040C000C001112488599B4F41E150E02CE639E0B2
:1040D0000E94AF0820911F072F5F20931F07F999B7
:1040E000FECF1FBA86E694E092BD81BD20BD0FB61B
:1040F000F894FA9AF99A0FBE0895BF92CF92DF9280
:10410000EF92FF920F931F93DF93CF93CDB7DEB75C
:1041100063970FB6F894DEBF0FBECDBF7C018C0154
:104120000D5F1F4FC8010E945941C8010E944C16E3
:10413000882309F403C1C80162EE76E040E329E177
:1041400031E00E940D41882309F4F8C082EE96E028
:104150000E94ED076C012FEF8F3F92070CF4EEC029
:1041600080911F0790E0C816D9060CF0E7C01A83AB
:10417000098387E690E0E80EF91E0DC0C80163E2EE
:1041800071E043E050E00E945F08009779F00F5F14
:104190001F4F1A83098309811A81D8018C918823C2
:1041A00009F4CCC00E151F0548F3C8C00D5F1F4FA2
:1041B0001A8309838E010F5F1F4FC8010E942F0CC5
:1041C0008B8BC8010E942F0C8B83C8010E942F0C7F
:1041D0008C83C8010E942F0C9E838D83C8010E948E
:1041E0002F0C98878F83C8010E942F0C9A8789878C
:1041F000C8010E942F0C9C878B87FF24B02EE12ED4
:104200008E01035F1F4F09C08B2D9E2D0E942F0C26
:10421000F801EF0DF11D8083F3948091FD08F816ED
:1042200098F306C0FC01EF0DF11D1082F39402C05B
:10423000CE010D96B5E0BF15A8F78C81823020F035
:10424000CE0103960E94A50E00D000D000D0EDB79D
:10425000FEB7319603E117E0ADB7BEB712961C93D7
:104260000E9311978DEB95E09383828380E790E026
:10427000958384830E94093BEDB7FEB736960FB64F
:10428000F894FEBF0FBEEDBFBE016D5F7F4FFFEF25
:10429000CF16FFEFDF06C1F4CB010E94592000D0FA
:1042A00000D0ADB7BEB712961C930E93119780EA5B
:1042B00095E014969C938E9313970E94093B0F9060
:1042C0000F900F900F9022C08C2D0E94472000D09D
:1042D00000D000D0EDB7FEB73196ADB7BEB712969D
:1042E0001C930E93119782E895E093838283089440
:1042F000C11CD11CD582C4820E94093BEDB7FEB718
:1043000036960FB6F894FEBF0FBEEDBF00D000D0BA
:1043100083E197E0ADB7BEB712969C938E93119749
:1043200081E695E014969C938E9313970E94093B27
:1043300081E00F900F900F900F9001C080E0639686
:104340000FB6F894DEBF0FBECDBFCF91DF911F91A6
:104350000F91FF90EF90DF90CF90BF9008950E9453
:10436000CC280E94432DA8EAB8E080E090E0FC0150
:10437000E85DF84F1082118212821382FC01E8512D
:10438000F84F10821182128213821D920496803C93
:10439000910569F70895EF92FF920F931F93CF93C2
:1043A000DF93EC012396CE010E944C16882309F47A
:1043B00007C1CE0162EE76E040E327E231E00E94E1
:1043C0000D41882311F00E94AF21CE0162EE76E00C
:1043D00040E32BE231E00E940D41882309F44CC0F8
:1043E00082EE96E00E94ED07181619060CF044C004
:1043F0002DB73EB7285030400FB6F8943EBF0FBEE1
:104400002DBFEDB7FEB7319603E117E0ADB7BEB7EC
:1044100012961C930E93119787E393E09383828304
:1044200080E790E09583848384E190E0978386839E
:104430000E94093B0F900F900F900F90EDB7FEB7C1
:10444000128301838AE293E0948383830E94093B71
:104450000F900F900F900F908091190790911A076D
:104460002091170730911807821B930B61E140E000
:104470000E94ED350E943C28CE0162EE76E040E3DA
:104480002FE231E00E940D41882399F08091E206ED
:10449000813339F48091FB0880FD0BC00E94B22D5E
:1044A00008C0803331F48091FB0880FF02C00E9475
:1044B000A82DCE0162EE76E040E322E331E00E94D7
:1044C0000D418823E9F08091E206813351F4809117
:1044D000FB0884FD15C00E94AF218091FB0880611C
:1044E0000BC0803369F48091FB0884FF09C00E94EF
:1044F000AF218091FB088F7E8093FB080E94E42C03
:10450000CE0162EE76E040E325E331E00E940D410A
:10451000882351F182EE96E00E94ED07EC01181617
:104520001906F4F40E946E467B018C01BE018827B7
:1045300077FD8095982F20E13EE040E050E00E941A
:104540000D57E60EF71E081F191FE0920B09F09297
:104550000C0900930D0910930E090E949E2D04C0B2
:10456000009771F50E948C2D2DB73EB72850304032
:104570000FB6F8943EBF0FBE2DBFEDB7FEB7319614
:1045800083E197E0ADB7BEB712969C938E931197D7
:104590008DE193E09383828380E790E09583848329
:1045A00082E791E0978386830E94093B81E0EDB723
:1045B000FEB738960FB6F894FEBF0FBEEDBF01C030
:1045C00080E0DF91CF911F910F91FF90EF900895C0
:1045D000BF92CF92DF92EF92FF920F931F93DF93E0
:1045E000CF9300D0CDB7DEB77C018C010D5F1F4F9C
:1045F000C8010E945941C8010E944C16882309F441
:10460000A0C01A83098327E630E0E20EF31E0DC036
:10461000C80168E371E043E050E00E945F08009742
:1046200079F00F5F1F4F1A83098309811A81D8011E
:104630008C91882309F485C00E151F0548F381C0AD
:104640000D5F1F4F1A8309830E94AF21FF2400E0F2
:1046500014E0EE246E010894C11CD11C5EEFB52E4F
:1046600037C0C6010E942F0CF999FECF1FBA12BDA8
:1046700001BD90BD0FB6F894FA9AF99A0FBEF99958
:10468000FECF1FBA0F5F1F4F12BD01BD015010407A
:1046900080BD0FB6F894FA9AF99A0FBE0097A9F068
:1046A0002F2D30E0F901EE0FFF1FEE0FFF1FE85135
:1046B000F84FA0E0B0E080839183A283B3832855B4
:1046C000374FF901B082EE24E394F3940E5F1F4F4D
:1046D0008091FE08F81608F4C4CFEE2031F00E9455
:1046E0006E4640913D020E9482092DB73EB7285088
:1046F00030400FB6F8943EBF0FBE2DBFEDB7FEB7EA
:10470000319683E197E0ADB7BEB712969C938E9336
:10471000119789E497E09383828380E790E0958303
:10472000848382E791E0978386830E94093B81E03E
:10473000EDB7FEB738960FB6F894FEBF0FBEEDBFCB
:1047400001C080E00F900F90CF91DF911F910F91EA
:10475000FF90EF90DF90CF90BF900895EF92FF927F
:104760000F931F939B01AC018091D8089091D908B9
:10477000A091DA08B091DB080097A105B10549F4D2
:104780002093D8083093D9084093DA085093DB0877
:1047900054C079018A01E81AF90A0A0B1B0BD801E7
:1047A000C701CD97A105B10508F447C02093D808EB
:1047B0003093D9084093DA085093DB0889E599E0F3
:1047C0000E94C7370E94A6517B018C010E9485423E
:1047D0000E94143889E599E00E94883A882361F4A0
:1047E0000E94A6516E197F09800B910B683C7105E0
:1047F0008105910558F319C08091FC088F70809352
:10480000FC088091FC0882958F7090E00397ACF0D3
:1048100080912F02882389F060915C0370915D0381
:104820008AE791E00E94BC3008C08091FC08982F74
:10483000907F905F8F70892BE2CF1F910F91FF9037
:10484000EF900895EF92FF920F931F939B01AC019D
:104850008091DB01882309F443C08091FC08829594
:104860008F7009F03DC08091FB0883FD39C08091B5
:104870001B0790911C07A0911D07B0911E07009780
:10488000A105B10569F079018A01E81AF90A0A0B54
:104890001B0BD801C70181589145A140B04000F1E0
:1048A00020931B0730931C0740931D0750931E074E
:1048B0008BED9AE061E00E943D2A0E94F50B7B019E
:1048C0008C01611571058105910551F00E944146E9
:1048D0008091FB0885FF04C0C801B7010E944F34D6
:1048E0001F910F91FF90EF9008950E94AF2F0E94AB
:1048F0000E2E0E94270A9091280280E0209121022A
:10490000820F911D90935D0380935C036CE370E0D4
:1049100080E090E00E9438468091FB0885FD03C04E
:1049200080E090E002C08FE694E30E94E14664EFED
:1049300071E080E090E00E94B45180E00E94652F19
:1049400088EF9AE061E00E943D2A87ED99E060E0FF
:104950000E94664C882329F48091FB088064809330
:10496000FB088AEE9AE061E00E943D2A60915C03B8
:1049700070915D038AE791E00E94BC30882321F0AA
:104980008091FC088F7004C08091FC088F7080615A
:104990008093FC0864EF71E080E090E00E94B451E5
:1049A0000E94432D089582E00E94AE29282F30E016
:1049B00086FF41C02F7030702230310591F02430D5
:1049C000310509F121303105B1F587FF03C00E949F
:1049D000B22D08956091CD027091CE0281E599E0EB
:1049E00009C087FF03C00E94A82D089589E599E0BA
:1049F00060E070E00E949C2C60ED77E080E090E049
:104A00000E94B451089587FF06C081E00E94AE293C
:104A10000E943C2808952091FC08822F8F7090E01E
:104A20006091FD08019670E00E944C578F70207FC6
:104A3000282B2093FC0808952F923F924F925F926B
:104A40006F927F928F929F92AF92BF92CF92DF929E
:104A5000EF92FF920F931F93DF93CF93CDB7DEB703
:104A6000AA970FB6F894DEBF0FBECDBF20913D02CE
:104A70002C8B30914B023B8B0E9485420E94143854
:104A80009093DD088093DC08009721F0825A9C4FB8
:104A90000E9418130E94D3240E946E465B016C0191
:104AA0008091E2089091E308A091E408B091E508B4
:104AB0008A159B05AC05BD0509F4B0C2A092E208B9
:104AC000B092E308C092E408D092E50880E00E942A
:104AD000652F8091FB0820910B0930910C094091C2
:104AE0000D0950910E0981FF08C0A216B306C40635
:104AF000D50650F00E948C2D07C0A216B306C4063E
:104B0000D50610F40E949E2D0E94F7298091FB0883
:104B100084FDC4C083FF04C04C89442309F0BEC097
:104B2000C601B5012CE330E040E050E00E945F5741
:104B300079018A018091DE089091DF08A091E00858
:104B4000B091E108E816F9060A071B0709F4A6C0A8
:104B5000E092DE08F092DF080093E0081093E1088D
:104B6000662410E09B89892F90E09AA789A78AC0C4
:104B7000862DBE016F5F7F4F0E94B519CE01019651
:104B8000B601A5010E940519882309F47AC0298578
:104B90003A852115310509F474C0A091FD08AE8B4A
:104BA00077241A8A190144245524B62DBF5FB8A76B
:104BB00053C08A89880DE82EFF24C7010196E9A514
:104BC000FAA5E817F907E1F1ACA1BDA18C9190E03D
:104BD000082C02C0959587950A94E2F780FD30C0B5
:104BE000EEA1FFA1808190E0082C02C095958795E9
:104BF0000A94E2F780FF24C08701000F111F000F05
:104C0000111F0851184F60916E0270E080E090E033
:104C1000A20191010E940D5724E630E040E050E0EF
:104C20000E945F57D8012D933D934D935C9313974A
:104C3000E8EAF8E0EE0EFF1EE8A5D701EC9311E0DC
:104C40000894811C911CF8E08F16910409F0B1CFF3
:104C500073942A89285F2A8B3E89731690F4872DD6
:104C600090E088249924AC014150574F5DA34CA398
:104C7000ABE0B0E0AC0FBD1FA80FB91FBFA3AEA340
:104C800098CF639480911F07681608F471CF1123A1
:104C900029F0C601B5014C890E9482098091FB0868
:104CA00083FF50C14424FB89EF2FF0E0FC8FEB8F92
:104CB0002B8921502D8F30E0C901880F991F880F53
:104CC000991FAC01485D584F5F8F4E8FDC01A85192
:104CD000B84FB9A3A8A3F901E855F74FFBA3EAA37E
:104CE00014C1842D90E0FC01E150F74F2081F42D98
:104CF000FF0FFF0FFF0FFD8B66247724422F50E03C
:104D0000588F4F8BDC01AB5FB64FBA8FA98F5D8890
:104D1000560C852C992498EAE92E98E0F92EE80C97
:104D2000F91CF7018081882309F44DC08401000F2C
:104D3000111F000F111FF801E851F84F8081918178
:104D4000A281B381A816B906CA06DB06E0F1852D5B
:104D500060E00E94A828C40101962B8D3C8D281785
:104D60003907D1F050922007D7018C918093210709
:104D7000085D184FF801808191819501281B390B3E
:104D80003093230720932207A0922407B09225078F
:104D9000C0922607D0922707F401EE0FFF1FEE0FF7
:104DA000FF1FDF01A85DB84F1D921D921D921C923E
:104DB0001397E851F84F1082118212821382F40186
:104DC000E855F74F10828F89988D062C02C0959573
:104DD00087950A94E2F780FD8FC09401220F331F5C
:104DE000220F331F8901085D184FF80180819181DE
:104DF000A281B381A816B906CA06DB0608F47CC0F6
:104E0000F8EE2F2EF7E03F2E220E331EF1018081A7
:104E10009181A281B381A816B906CA06DB0608F003
:104E20006BC0852D61E00E94A828FB89FF2309F44F
:104E300063C0C40101962B8D3C8D2817390709F4F6
:104E40005BC0A98DBA8D8C9190E0062C02C095951F
:104E500087950A94E2F780FF4FC0BC89BB2309F411
:104E60004BC08091FB0884FD47C080915202F8013D
:104E70002081318142815381280F311D411D511DF7
:104E8000AE8DBF8D2D933D934D935C931397809181
:104E90005902E82EFF2400E010E084EC9FEFAFEF12
:104EA000BFEFE80EF91E0A1F1B1FF10180819181DF
:104EB000A281B381E80EF91E0A1F1B1FA8A1B9A188
:104EC000ED92FD920D931C931397E8EAF8E08E0E95
:104ED0009F1ED4018C91EAA1FBA18083A216B30688
:104EE000C406D50648F0AE14BF04C006D10620F4AF
:104EF0008D8D61E00E94A8280894611C711CF8E067
:104F00006F16710409F003CF43948091FD08481691
:104F100008F4E7CE0E94432D3091FE08E8EEF7E05A
:104F200020E00DC081919191A191B1910197A109CA
:104F3000B1098E5F9F4FAF4FBF4F20F02F5F2317F8
:104F400088F361C05B89552369F08091FB0884FF79
:104F500009C01091FE0840E021E030E08B89682F05
:104F600070E02EC09C899923A1F331C0842F90E07A
:104F70006217730711F1DC01E3E0B695A795EA9596
:104F8000E1F7542F5770FD01E150F74F808190E019
:104F9000052E02C0959587950A94E2F780FF0DC013
:104FA000AB5FB64F8C9190E002C0959587955A956E
:104FB000E2F780FF02C061E006C04F5F2F5F3F4F06
:104FC0004117A0F260E08B8981500E94A8280E94BE
:104FD000432DC601B50123E030E040E050E00E94DF
:104FE0005F579B01AC012F5F3C4F81E0D9016C9171
:104FF0000E94122CC601B5010E94AE23C601B50164
:105000000E9422240BC00E94CC288091FB08877F3D
:105010008093FB08B0914B02BB8B94CFAA960FB63E
:10502000F894DEBF0FBECDBFCF91DF911F910F91DE
:10503000FF90EF90DF90CF90BF90AF909F908F90B8
:105040007F906F905F904F903F902F9008959C01BC
:10505000F999FECF32BD21BDF89A80B508959C0123
:10506000F999FECF1FBA32BD21BD60BD0FB6F894CD
:10507000FA9AF99A0FBE0895E0910F09F09110097C
:1050800009950895DB01482F50E0405F5F4F84E0B1
:10509000440F551F8A95E1F750961C92509720E0D7
:1050A00030E0F999FECFC901840F951F92BD81BDF3
:1050B000F89A80B5FD01E20FF31F8083882331F059
:1050C0002F30310519F02F5F3F4FEBCF0895DB01F3
:1050D000482F50E0405F5F4F94E0440F551F9A9572
:1050E000E1F750961C92509720E030E0FD01E20F6E
:1050F000F31FE081F999FECF1FBAC901840F951FF4
:1051000092BD81BDE0BD0FB6F894FA9AF99A0FBE30
:10511000EE2331F02F30310519F02F5F3F4FE6CFEE
:10512000089580E694E0FC01EB55FB4FE081F9998E
:10513000FECF1FBA92BD81BDE0BD0FB6F894FA9ABA
:10514000F99A0FBE019624E08636920761F708951A
:10515000282F277086958695869590E0662369F0BE
:10516000FC01E150F74F81E090E002C0880F991FE9
:105170002A95E2F72081282B0DC0FC01E150F74F62
:1051800081E090E002C0880F991F2A95E2F7809590
:1051900020812823208308951092FF08109200098F
:1051A0001092010910920209109203091092040949
:1051B0000895EDECF1E020E030E0F999FECF32BD4A
:1051C00021BDF89A80B580832F5F3F4F37962232FA
:1051D000310599F7809136028F5F8093FD0890E04A
:1051E00023E0880F991F2A95E1F78093FE08089520
:1051F000E4EBF2E081E290E02081F999FECF1FBA62
:1052000092BD81BD20BD0FB6F894FA9AF99A0FBEEF
:10521000019737972FEF8F3F920771F780913602F2
:105220008F5F8093FD0890E033E0880F991F3A95D7
:10523000E1F78093FE080895AC01FB010FC0F999D6
:10524000FECF1FBADA01A80FB11DB2BDA1BD20BDAE
:105250000FB6F894FA9AF99A0FBE31968E2F861BE4
:105260002081222361F7F999FECF1FBA480F511D03
:1052700052BD41BD10BC0FB6F894FA9AF99A0FBE10
:105280000895582F282F392FF9018E2F851BF99952
:10529000FECF90E0805C9F4F92BD81BDF89A80B5B3
:1052A0009081882331F0992349F0891739F4319698
:1052B000ECCF80E0992319F481E0089580E008950F
:1052C0001092E9081092E80888E193E09093E708CB
:1052D0008093E6080895EF92FF920F931F93CF9368
:1052E000DF93E82E162F042FF22E662321F0623072
:1052F00081F4222371F08E2D0E944553892B11F0E9
:1053000000E024C0FF2011F480E001C080E8082BF9
:105310001DC0C0E0D0E08E2D0E944553892B81F442
:10532000113031F0123061F483E0C032D80744F418
:1053300061E070E080E090E00E94B4512196EBCFF4
:10534000FF2019F4C052D3400CF00068802FDF9189
:10535000CF911F910F91FF90EF9008950F931F939E
:10536000082F10911109107861E070E080E090E062
:105370000E94B4518FE10E944553892B21F48FE1A3
:10538000602F41E013C08EE10E944553892B21F428
:105390008EE1602F42E00AC08DE10E944553892BC7
:1053A00011F040E007C08DE1602F44E0212F0E9402
:1053B0006B29482F8091110990E08F709070242FF5
:1053C00030E0892B39F42F703070232B71F0842F4B
:1053D000806406C02F703070232B39F4842F8062D4
:1053E000409311091F910F910895842FF9CF8BE0FD
:1053F0000E94455340E02091670230E082179307F6
:1054000009F041E0440F440F8091FB088B7F842B0F
:105410008093FB080895EF92FF920F931F938C01E6
:1054200046EEE42E48E0F42E6AE070E00E944C570D
:10543000C7014AE050E00E940956C8016AE070E0E6
:105440000E944C57BC01C7014AE050E00E94095637
:105450001F910F91FF90EF900895CF93DF93EC0190
:1054600004C086EE98E00E944955FE0121966491A1
:105470006623B9F7DF91CF9108950F931F93CF93D0
:10548000DF938C01462F86EE98E060E00E9419328F
:10549000E80104C086EE98E00E9449559E01201B59
:1054A000822FFE01219664916623A1F7992787FD3B
:1054B0009095C0E1D0E0C81BD90B05C08FED9DE0F1
:1054C0000E942D2A2197D7FFF9CFDF91CF911F910D
:1054D0000F910895EF92FF920F931F93CF93DF9355
:1054E0007C018C01F3E0000F111FFA95E1F7081B16
:1054F000190B03531E4FF8018281938160E00E94D3
:105500003D2A8CEA9DE061E00E943D2A86EE98E00B
:1055100060E041E00E941932F801868180FF05C0F9
:1055200086EE98E00E94FD3104C086EE98E00E946D
:105530000732F3E1EF16F10409F45EC084E1E816E6
:10554000F10454F4E1E0EE16F104B1F0FCE0EF16E2
:10555000F10409F08CC065C08BE1E816F10409F490
:105560006AC0ECE1EE16F10409F475C0F4E1EF163F
:10557000F10409F07CC047C08091D401C82FD0E06D
:10558000E097D7FD05C08AEA9DE00E942D2A07C05A
:1055900088EA9DE00E942D2AD095C195DF4FCE016B
:1055A00064E070E00E944C5786EE98E04AE050E0DC
:1055B0000E94095686EA9DE00E942D2ACE0164E0F1
:1055C00070E00E944C57BC01E4E0660F771FEA953B
:1055D000E1F7681B790B29F483EA9DE00E942D2AEC
:1055E00006C086EE98E04AE050E00E9409568EE937
:1055F0009DE00E942D2A61C08CE99DE00E942D2A29
:105600006091520220C0809159028C3320F08AE9C7
:105610009DE00E942D2A6091590270E06C53704009
:1056200007C07091280260E080912102680F711D0F
:1056300086EE98E00BC060918A028DE070E00E94D7
:10564000525260918A0286EE98E070E04AE050E0A3
:105650000E94095632C0809191026FEF70E0681B82
:1056600071098CE00E94525260919102ECCFF701D7
:1056700053E0EE0FFF1F5A95E1F7EE19FF09E353D0
:10568000FE4F81816081813051F4662319F483E9F2
:105690009DE002C086E99DE00E942D2A07C086EEAB
:1056A00098E070E04AE050E00E94095687E1E81671
:1056B000F10419F481E99DE011C0C70143970297F5
:1056C00020F0E8E1EE16F10419F48CE89DE006C044
:1056D000F1E1EF16F10421F487E89DE00E942D2A04
:1056E000DF91CF911F910F91FF90EF900895EF926E
:1056F000FF920F931F93182F092F0E946A2A212FC0
:10570000302FC9018C018AEAE82E82E00E94AE297E
:10571000482F282F30E0C9018F709070823091059A
:10572000D9F08430910561F1019709F068C0F80162
:10573000B3E0EE0FFF1FBA95E1F7E01BF10BE35367
:10574000FE4F868180FF5EC090818181891709F4B8
:1057500059C09F5F908356C0F801A3E0EE0FFF1F72
:10576000AA95E1F7E01BF10BE353FE4F868180FF22
:1057700046C08081882309F442C0815080833FC0A5
:1057800046FF3DC047FF0BC08091B402882311F053
:10579000E092B4020E94F828FF24F39434C003304E
:1057A000110541F48091E201882309F1FF240CE006
:1057B00010E029C00C30110521F4FF240EE010E0A8
:1057C00022C00531110541F480916002882379F4EB
:1057D000FF2407E110E017C00231110541F4809168
:1057E0004B02882321F4FF2405E110E00CC0C8011E
:1057F000019662E270E00E944C578C0103C0442382
:1058000009F483CFFF24C8010E946A2AFF2009F40B
:105810007CCF86EE98E00E9407321F910F91FF9097
:10582000EF9008950F931F93CF93DF93482F062F88
:1058300086EE98E060E00E9419328091FC088F703B
:1058400019F48EEC9DE010C08CEC9DE00E942D2A96
:105850006091FC086F7086EE98E070E04AE050E0DE
:105860000E9409568AEC9DE00E942D2A8091FB0837
:1058700080FD03C08EEB9DE00AC081FD06C082FF63
:105880000AC080916002882331F082EB9DE061E0E4
:105890000E943D2A26C0E091FC08EF70F0E0E15044
:1058A000F74F1081C1E0D0E08091FC088F7051F477
:1058B00080914B0290E0C817D90721F410FD06C073
:1058C0006DE405C010FD02C06FE501C0602F86EEDB
:1058D00098E00E9449552196C930D10511F01695DE
:1058E000E3CF8DEA9DE00E942D2A86EE98E06EE0DF
:1058F00041E00E94193260E08091FC0882958F702F
:1059000090E003970CF061E086EE98E00E94CB31C6
:1059100086EE98E06FE041E00E9419328091FB082A
:1059200086FF05C086EE98E062E00E94CB31DF91F1
:10593000CF911F910F910895EF92FF920F931F93B4
:10594000CF93DF938C017B0186EE98E00E94483272
:1059500086EE98E060E040E00E941932C0E0D0E0BE
:10596000F801EC0FFD1F608186EE98E070E04AE0E0
:1059700050E00E94095684ED9DE00E942D2A219658
:10598000C330D10569F7F801638186EE98E070E0D5
:105990004AE050E00E94095686EE98E060E041E05F
:1059A0000E94193282ED9DE00E942D2A86EE98E039
:1059B000B7014AE050E00E940956DF91CF911F9154
:1059C0000F91FF90EF9008952091FB082170F999B5
:1059D000FECF1FBA80E390E092BD81BD20BD0FB61F
:1059E000F894FA9AF99A0FBE2091FB08229521703B
:1059F000F999FECF1FBA81E390E092BD81BD20BD31
:105A00000FB6F894FA9AF99A0FBE40910B0950918B
:105A10000C0960910D0970910E0982E390E02FE26C
:105A200038E20E94CB080895F999FECF80E390E018
:105A300092BD81BDF89A90B591708091FB088E7FE0
:105A4000892B8093FB08F999FECF81E390E092BD0A
:105A500081BDF89A90B591709295907F8091FB08E6
:105A60008F7E892B8093FB0882E390E067E278E2E7
:105A70000E94890860930B0970930C0980930D09AB
:105A800090930E090895EF92FF920F931F93CF9377
:105A9000DF9383E060E00E94F15204E019E090910E
:105AA000FB0890FF0BC091FD09C080916002882324
:105AB00011F092FD03C0F801608101C060E0C7E011
:105AC000D0E0E62EFF2486E160E00E94F152B701AB
:105AD0000C2E02C0759567950A94E2F7617085E116
