:100000000C941D080C9445080C9445080C94450864
:100010000C9445080C9445080C9445080C9445082C
:100020000C94EE0B0C9445080C9445080C94450870
:100030000C9445080C9445080C9445080C9445080C
:100040000C9445080C9445080C94ED630C944508F9
:100050000C94DD680C9424690C9445080C944508B4
:100060000C9445080C9445080C943E620C94450889
:10007000485454502F312E3020323030204F4B0D09
:100080000A436F6E74656E742D547970653A2074EE
:100090006578742F68746D6C0D0A507261676D61BC
:1000A0003A206E6F2D63616368650D0A4163636575
:1000B00073732D436F6E74726F6C2D416C6C6F7720
:1000C0002D4F726967696E3A202A0D0A0D0A0048A1
:1000D0005454502F312E3020323030204F4B0D0AE7
:1000E000436F6E74656E742D547970653A2061703B
:1000F000706C69636174696F6E2F6A736F6E0D0A3D
:10010000436F6E6E6E656374696F6E3A20636C6FD9
:1001100073650D0A4163636573732D436F6E74726B
:100120006F6C2D416C6C6F772D4F726967696E3AF9
:10013000202A0D0A0D0A003C6D657461206E616D08
:10014000653D76696577706F727420636F6E746554
:100150006E743D2277696474683D363430223E0DFA
:100160000A00485454502F312E302034303120555D
:100170006E617574686F72697A65640D0A436F6E9B
:1001800074656E742D547970653A20746578742F97
:1001900068746D6C0D0A0D0A3C68313E34303120B4
:1001A000556E617574686F72697A65643C2F683149
:1001B0003E0077696E646F772E6C6F636174696F50
:1001C0006E3D222F223B3C2F7363726970743E0A8E
:1001D000006376007670006D7000647000637000DC
:1001E000677000766F00636F00736E007073007647
:1001F00073006373007672006372006A6F006A6E48
:10020000006A70006A63006A73006A6C00646C00C4
:1002100073750063750024460024460024463C7331
:1002200063726970743E2446005D002C24530024E0
:10023000530024465B0024440024460024463C6DC1
:1002400065746120687474702D65717569763D22DE
:10025000726566726573682220636F6E74656E7472
:100260003D22313B2075726C3D2F223E005D2C22D9
:100270006E73746174696F6E73223A24447D002C2E
:10028000002444007B22736E223A5B002446002443
:10029000463C7363726970743E616C6572742822A7
:1002A0004F7074696F6E732076616C75657320731F
:1002B000617665642E22293B24460024463C736304
:1002C000726970743E616C65727428224E65772085
:1002D00070617373776F726473206D757374206DC2
:1002E000617463682122293B77696E646F772E6C95
:1002F0006F636174696F6E3D222F766F223B3C2FD6
:100300007363726970743E0A0024463C73637269B9
:1003100070743E616C65727428224E65772070613E
:100320007373776F7264207365742E22293B2446A1
:100330000024463C7363726970743E616C6572742C
:10034000282256616C756573206F7574206F662066
:10035000626F756E642122293B77696E646F772E18
:100360006C6F636174696F6E3D222F766F223B3C28
:100370002F7363726970743E0A0024463C73637283
:100380006970743E616C657274282253637269707F
:10039000742075726C2073617665642E22293B246B
:1003A000460024463C7363726970743E24460052D2
:1003B00065626F6F74696E672E2E2E0024463C6D49
:1003C00065746120687474702D65717569763D225D
:1003D000726566726573682220636F6E74656E74F1
:1003E0003D2224443B2075726C3D2F223E003C731D
:1003F0006372697074207372633D2224452F76699D
:1004000065776F702E6A73223E3C2F73637269703A
:10041000743E0A003C2F7363726970743E0A0030A8
:100420005D3B766172206E6F7074733D24442C6C5A
:100430006F633D222445222C646576743D244C2C48
:10044000747A3D24442C646578703D24442C6D6599
:1004500078703D24443B00222446222C24442C2442
:10046000442C24442C003C7363726970743E7661A2
:1004700072206F7074733D5B0024462446007D003B
:100480002C00222446223A2444007B002446003CCF
:10049000736372697074207372633D2224452F6800
:1004A0006F6D652E6A73223E3C2F736372697074A0
:1004B0003E0A000A766172206C72756E3D5B2444C0
:1004C0002C24442C24442C244C5D3C2F73637269EF
:1004D00070743E0A005B302C305D5D3B0A766172C1
:1004E00020656E3D24442C72643D24442C72733D7F
:1004F00024442C6D6D3D24442C726473743D244C53
:100500002C6D61733D24442C7572733D24442C770B
:100510006C3D24442C697061733D24442C6C6F63E2
:100520003D222445223B005B24442C244C5D2C00BE
:10053000305D3B7661722070733D5B0024442C007B
:10054000766172206E6272643D24442C747A3D247C
:10055000442C73626974733D5B007661722076652A
:10056000723D24442C646576743D244C3B0A00247F
:100570004624463C7363726970743E005B302C30D5
:100580005D5D2C226C72756E223A5B24442C2444EF
:100590002C24442C244C5D7D005B24442C244C5D95
:1005A0002C00305D2C227073223A5B0024442C0016
:1005B0007B2264657674223A244C2C226E6272642B
:1005C000223A24442C22656E223A24442C2272645E
:1005D000223A24442C227273223A24442C226D6D38
:1005E000223A24442C2272647374223A244C2C2222
:1005F0006C6F63223A222445222C22736269747341
:10060000223A5B0024460077696E646F772E6C6F28
:10061000636174696F6E3D222F7670223B3C2F73AD
:1006200063726970743E0A00616C657274282250AE
:10063000726F6772616D202444206D6F6469666912
:10064000656422293B00616C65727428224E6577CF
:100650002070726F6772616D2061646465642E2220
:10066000293B0024463C7363726970743E003C73FE
:100670006372697074207372633D2224452F706C1D
:100680006F7470726F672E6A73223E3C2F736372B1
:100690006970743E0A00305D3B0024442C00766192
:1006A00072206D61736F703D5B00766172207365BF
:1006B000713D24442C6D61733D24442C776C3D24A2
:1006C000442C7364743D24442C6D746F6E3D24443B
:1006D0002C6D746F66663D24442C64657664617984
:1006E0003D24442C6465766D696E3D24442C64641D
:1006F0003D24442C6D6D3D24442C79793D24443BAC
:100700000024463C7363726970743E0024463C7357
:1007100063726970743E77696E646F772E6C6F6375
:100720006174696F6E3D222F7670223B3C2F73639C
:10073000726970743E0A003C2F7363726970743E74
:100740000A3C736372697074207372633D2224459E
:100750002F6D6F6470726F672E6A73223E3C2F7329
:1007600063726970743E0A005D3B002C244400767D
:1007700061722070726F673D5B24442C24442C24EA
:10078000442C24442C24442C24442C2444007661FE
:1007900072206E626F617264733D24442C706964D0
:1007A0003D24442C697061733D24443B002446245D
:1007B000463C7363726970743E003C736372697087
:1007C00074207372633D2224452F766965777072B9
:1007D0006F672E6A73223E3C2F7363726970743E9A
:1007E0000A00244624463C7363726970743E0024F8
:1007F000463C7363726970743E2446003C736372B6
:10080000697074207372633D2224452F7669657781
:10081000726F2E6A73223E3C2F7363726970743E4E
:100820000A00305D3B3C2F7363726970743E0A00AE
:1008300024442C00766172206E626F617264733D95
:1008400024442C6D61733D24442C697061733D24F4
:10085000442C6475723D5B00244624463C736372ED
:100860006970743E005D7D005D005D2C002C2444A9
:10087000005B24442C24442C24442C24442C244465
:100880002C24442C2444007B226E70726F677322E8
:100890003A24442C226E626F61726473223A2444BB
:1008A0002C226D6E70223A24442C227064223A5B12
:1008B000002446003C6872202F3E3C666F726D201B
:1008C0006E616D653D6F6620616374696F6E3D6337
:1008D00075206D6574686F643D6765743E3C703E5D
:1008E0003C623E4A6176617363726970742055524E
:1008F0004C3A3C2F623E203C696E707574207479CE
:1009000070653D746578742073697A653D33322073
:100910006D61786C656E6774683D31323720766141
:100920006C75653D22244522206E616D653D6A73BC
:10093000703E3C2F703E3C703E5365742055524CC7
:10094000207768657265204A6176617363726970A9
:100950007473206172652073746F7265642E204415
:10096000656661756C742069732024533C62722043
:100970002F3E4966206C6F63616C206F6E2075534B
:100980004420636172642C20757365202E202869D1
:100990002E652E20646F74293C2F703E3C703E3CC7
:1009A000623E50617373776F72643A3C2F623E3CD3
:1009B000696E70757420747970653D7061737377BA
:1009C0006F72642073697A653D3130206E616D65A8
:1009D0003D70773E3C696E70757420747970653D2A
:1009E0007375626D69743E3C2F703E3C6872202FB7
:1009F0003E3C2F666F726D3E002446003C2F7363B1
:100A0000726970743E0A005D3B002C2444007064DF
:100A10005B24445D3D5B24442C24442C24442C243E
:100A2000442C24442C24442C244400766172206EEF
:100A300070726F67733D24442C6E626F61726473D1
:100A40003D24442C697061733D24442C6D6E703DCF
:100A500024442C70643D5B5D3B0024463C73637210
:100A60006970743E616C65727428224368616E67B8
:100A700065732073617665642E22293B2446002726
:100A8000275D3B00272453272C0076617220736E6C
:100A9000616D65733D5B00305D3B3C2F7363726934
:100AA00070743E0A3C736372697074207372633DA4
:100AB0002224452F76696577736E2E6A73223E3C39
:100AC0002F7363726970743E0A0024442C00305DF9
:100AD0003B7661722069723D5B0024442C00766194
:100AE00072206D61736F703D5B00766172206E6283
:100AF0006F617264733D24442C6D61786C656E3D4A
:100B000024442C6D61733D24442C697061733D2431
:100B1000443B0024463C7363726970743E005D2C54
:100B2000226D61786C656E223A24447D002C00248D
:100B300044005D2C2269676E6F72655F7261696E39
:100B4000223A5B002C002444005D2C226D61736FFF
:100B500070223A5B002C0022245322007B22736E09
:100B6000616D6573223A5B002446005265636F6EC7
:100B70006E656374696E672E2E2E004E545020539E
:100B8000796E63696E672E2E2E00436F6E6E6563FD
:100B900074696E672E2E2E00446574656374696EE9
:100BA00067207553442E2E2E000001080006040015
:100BB0000145000082000040002000504F535420A7
:100BC000244620485454502F312E300D0A486F735C
:100BD000743A2024460D0A24462453416363657009
:100BE000743A202A2F2A0D0A436F6E74656E742D95
:100BF0004C656E6774683A2024440D0A436F6E7426
:100C0000656E742D547970653A206170706C6963FB
:100C10006174696F6E2F782D7777772D666F726D9F
:100C20002D75726C656E636F6465640D0A0D0A2420
:100C30005300474554202446245320485454502FF1
:100C4000312E300D0A486F73743A2024460D0A2461
:100C5000460D0A0D0A004163636570743A2074659D
:100C600078742F68746D6C00E30004FA00010000D2
:100C7000000166777600747A006E747000646863B1
:100C800070006970310069703200697033006970FA
:100C90003400677731006777320067773300677712
:100CA00034006870300068703100617200657874DB
:100CB0000073657100736474006D6173006D746F0F
:100CC0006E006D746F66007572730072736F0077DB
:100CD0006C00737474006970617300646576696494
:100CE00000636F6E006C69740064696D006E7470EF
:100CF00031006E747032006E747033006E74703434
:100D0000007265736574004669726D776172652063
:100D10007665722E0054696D65207A6F6E653A00B3
:100D20004E54502073796E633F00557365204448DC
:100D300043503F005374617469632E6970313A0007
:100D40005374617469632E6970323A00537461742C
:100D500069632E6970333A005374617469632E6954
:100D600070343A00476174657761792E6970313A61
:100D700000476174657761792E6970323A00476186
:100D800074657761792E6970333A004761746577CD
:100D900061792E6970343A004854545020706F7253
:100DA000743A00004175746F207265636F6E6E65F2
:100DB00063743F0023206F66206578702E20626F79
:100DC0006172643A0053657175656E7469616C2077
:100DD0006D6F64653F0053746174696F6E20646564
:100DE0006C61793A004D617374657220737461743B
:100DF000696F6E3A004D617374657220206F6E20CA
:100E000061646A2E3A004D6173746572206F666684
:100E10002061646A2E3A00557365207261696E2004
:100E200073656E736F723A004E6F726D616C6C79A0
:100E3000206F70656E3F00252057617465722074C5
:100E4000696D653A0053656C6674657374207469E6
:100E50006D653A0049676E6F7265207061737377D4
:100E60006F72643F004465766963652049443A00C7
:100E70004C434420436F6E74726173743A004C4368
:100E800044204261636B6C696768743A004C434468
:100E90002044696D6D696E673A004E545020736549
:100EA000727665722E6970313A004E545020736527
:100EB000727665722E6970323A004E545020736516
:100EC000727665722E6970333A004E545020736505
:100ED000727665722E6970343A00526573657420BB
:100EE000616C6C3F004D6F6E005475650057656412
:100EF0000054687500467269005361740053756E42
:100F000000206D696E00207365630025004E6F0040
:100F1000596573002B002B0020474D5400303000E2
:100F20003A002D002B000020202020002D44697362
:100F300061626C6564212D003A0045004D433A0022
:100F40003A002E002D0020002020003A0020004210
:100F5000333A686F6C6420746F2073617665004269
:100F6000333A73656C2042312F42323A636867002E
:100F70003D3D536574204F7074696F6E733D3D0045
:100F8000506C6561736520576169742E2E2E005276
:100F90006573657474696E6720454550524F4D0006
:100FA0007C3C3E5E2B3D3F2F5B5D3B2C2A225C0050
:100FB00000002100240027002A0000002200250054
:100FC00028002B0000002000230026002900020238
:100FD00002020202020204040404040404040303DF
:100FE00003030303030301010101010101010102E4
:100FF00004081020408001020408102040800102F3
:1010000004081020408080402010080402010000E5
:1010100000010200000000000000040307060000B9
:101020000000000000000000000000000000F50CBF
:10103000FC4351459560DA60046A11241FBECFEF6E
:10104000D0E1DEBFCDBF13E0A0E0B1E0E2E6F6ED17
:1010500002C005900D92AA3DB107D9F71EE0AAED96
:10106000B3E001C01D92A431B107E1F710E1CAE37A
:10107000D0E104C02297FE010E94F46ACE32D1076B
:10108000C9F70E94546A0C942F6B0C940000CF9304
:10109000DF93BC018230910510F462E070E0A09112
:1010A000120EB091130EED0140E050E0E0E0F0E0F0
:1010B00021C0888199818617970769F48A819B816D
:1010C000309719F09383828304C09093130E80931A
:1010D000120EFE0134C06817790738F44115510526
:1010E00019F08417950708F4AC01FE018A819B81F1
:1010F0009C01E9012097E9F641155105A9F1CA01C2
:10110000861B970B049708F4BA01E0E0F0E02AC0D0
:101110008D919C91119784179507F9F464177507C1
:1011200081F412968D919C911397309719F09383C7
:10113000828304C09093130E8093120EFD013296A9
:101140004CC0CA01861B970BFD01E80FF91F619384
:10115000719302978D939C9340C0FD01828193818E
:101160009C01D9011097A1F68091100E9091110E5B
:10117000892B41F48091C3019091C4019093110E89
:101180008093100E4091C5015091C6014115510543
:1011900041F44DB75EB78091C1019091C201481BE7
:1011A000590B2091100E3091110ECA01821B930B26
:1011B0008617970780F0AB014E5F5F4F8417950746
:1011C00050F0420F531F5093110E4093100EF9012F
:1011D0006193719302C0E0E0F0E0CF01DF91CF9125
:1011E0000895CF93DF93009709F450C0EC01229744
:1011F0001B821A82A091120EB091130E109709F162
:1012000040E050E0AC17BD0708F1BB83AA83FE01A4
:1012100021913191E20FF31FAE17BF0779F48D9141
:101220009C911197280F391F2E5F3F4F39832883D8
:1012300012968D919C9113979B838A83411551053A
:1012400071F4D093130EC093120E20C012968D919C
:101250009C911397AD01009711F0DC01D3CFFA01F7
:10126000D383C28321913191E20FF31FCE17DF07A1
:1012700069F488819981280F391F2E5F3F4FFA0149
:10128000318320838A819B8193838283DF91CF91F5
:101290000895A0E0B0E0EFE4F9E00C94FA6A6C0184
:1012A000009729F4CB010E9447086C01C1C08EEF62
:1012B000882E8FEF982E8C0C9D1C8601060F171F11
:1012C0000815190508F4B2C0F401A081B181A61770
:1012D000B707B8F0A530B10508F4AAC0CD0104974E
:1012E0008617970708F4A4C01297A61BB70BF8013E
:1012F000A193B193D4016D937C93CF010E94F10827
:1013000097C07B01EA1AFB0AEEEFFFEFEE0EFF1E1D
:1013100036016A0E7B1EC091120ED091130EAA24C4
:10132000BB24442455244AC0C615D705E1F548819D
:1013300059814E155F05B8F1CA0104978E159F05B6
:10134000B0F41296A40FB51FF401B183A0832A81D3
:101350003B814114510431F0D20113963C932E93FA
:10136000129766C03093130E2093120E61C08A81CB
:101370009B81F80193838283425050404E195F094C
:10138000518340834114510431F0D20113961C93D0
:101390000E93129704C01093130E0093120EF401D3
:1013A0007183608345C088819981A816B90608F4C5
:1013B0005C012E018A819B819C01E901209709F043
:1013C000B3CF8091100E9091110E86159705E9F418
:1013D000A616B706D0F42091C5013091C60121159B
:1013E000310541F42DB73EB78091C1019091C20102
:1013F000281B390B02171307C8F41093110E009322
:10140000100ED4016D937C9313C0CB010E9447084A
:10141000EC01009759F0F40140815181B6010E941E
:10142000790AC6010E94F1086E0102C0CC24DD24B5
:10143000C601CDB7DEB7E0E10C94166BFC0188273E
:101440009927E89421912032E9F3293010F02E30C9
:10145000C8F32B3241F02D3239F4689404C00E9455
:101460007D0B820F911D219120532A30C0F31EF471
:10147000909581959F4F08951F93FC019927882788
:10148000BC01E89411911032E9F3193010F01E30CC
:10149000C8F31B3251F01D3249F4689406C00E9413
:1014A000680B610F711D811D911D119110531A3030
:1014B000B0F33EF490958095709561957F4F8F4F76
:1014C0009F4F1F910895FB01DC0102C005900D9212
:1014D00041505040D8F70895FB01DC0104C08D91C4
:1014E0000190801921F441505040C8F7881B990B96
:1014F0000895FB01DC0102C001900D924150504063
:10150000D8F70895DC0101C06D9341505040E0F7D9
:101510000895FB01DC010D900020E9F7119701907F
:101520000D920020E1F70895FC018191861721F0CA
:101530008823D9F7992708953197CF010895FB01A2
:10154000DC0101900D920020E1F70895FB01DC0120
:101550004150504030F08D910190801919F40020D5
:10156000B9F7881B990B0895FB01DC0141505040ED
:1015700048F001900D920020C9F701C01D92415022
:101580005040E0F70895A0E0B0E0E9ECFAE00C94F8
:10159000026B7C01EB018A01690109C0CE01219631
:1015A000F6010995F70181937F0101501040011563
:1015B0001105A1F7CDB7DEB7E8E00C941E6BBF9222
:1015C000CF92DF92EF92FF920F931F937B018C01DA
:1015D000FB010995B82EC8010196F7010995C82E9F
:1015E000C8010296F7010995D82EC8010396F701A4
:1015F0000995982F6B2D7C2D8D2D1F910F91FF90AC
:10160000EF90DF90CF90BF900895A0E0B0E0EBE0C6
:10161000FBE00C94026BEC017B018A01690109C0BB
:10162000CE012196F70161917F01F60109950150E4
:10163000104001151105A1F7CDB7DEB7E8E00C9415
:101640001E6BBF92CF92DF92EF92FF920F931F9388
:10165000D52EC62EB72E79018C01642FF90109957C
:10166000C80101966D2DF7010995C80102966C2DF0
:10167000F7010995C80103966B2DF70109951F9194
:101680000F91FF90EF90DF90CF90BF900895FB01F6
:101690009F01E8944230C4F04532B4F44A3029F452
:1016A00097FB1EF4909581959F4F642F77270E949A
:1016B0008E6A805D8A330CF0895D8193CB0100973F
:1016C000A1F716F45DE251931082C9010C94C00B8E
:1016D000592F482F372F262F660F771F881F991FE6
:1016E000660F771F881F991F620F731F841F951F36
:1016F000660F771F881F991F08957AE0979F902D96
:10170000879F802D910D11240895FA01CF93FF93A7
:10171000EF932230CCF02532BCF4C22F2C2F33278C
:1017200044275527FF93EF930E94B56AEF91FF91ED
:10173000605D6A330CF0695D6193B901CA01605064
:1017400070408040904051F710828F919F91CF91CF
:101750000C94C00BFB019F01423074F0453264F4DD
:10176000642F77270E948E6A805D8A330CF0895D32
:101770008193CB010097A1F71082C9010C94C00B93
:10178000DC01FC01672F71917723E1F7329704C0E8
:101790007C916D9370836291AE17BF07C8F3089573
:1017A0009C01F999FECF32BD21BDF89A80B508950C
:1017B0009C01F999FECF1FBA32BD21BD60BD0FB6A5
:1017C000F894FA9AF99A0FBE0895FC01A681B781A0
:1017D0006D93B783A68381E090E008951F920F92E6
:1017E0000FB60F9211242F933F934F935F936F93F4
:1017F0007F938F939F93AF93BF93EF93FF938091CA
:10180000D7078F5F8093D7078091D707803128F063
:10181000E091D507F091D6070995FF91EF91BF911F
:10182000AF919F918F917F916F915F914F913F9178
:101830002F910F900FBE0F901F901895CF92DF92AF
:10184000EF92FF920F931F93CF93DF937B018C0155
:101850000894E11CF11C011D111DC0906D0A442368
:1018600061F430916A0A3695369536953170A1EA61
:10187000B8E0C1EED7E0DD2471C090916A0A969578
:10188000969596959170C1EAD8E061EE77E0EC2DDF
:10189000F0E0EE0FFF1FEE0FFF1FEC0FFD1F25C046
:1018A000288139814A815B81211531054105510526
:1018B000C9F0DB01ED92FD920D931C931397D801B3
:1018C000C701820F931FA41FB51F88839983AA8322
:1018D000BB832091C4027C018D01E20EF11C011D2D
:1018E000111D91E024966C5F7F4FCE17DF07C1F684
:1018F0009170990F990F990F80916A0A877F892BB0
:1019000037C04D915D916D917C91139741155105B3
:101910006105710501F1ED2DE695E695E695F0E09E
:10192000E259F54F808190E02D2D277002C09595EA
:1019300087952A95E2F780FD0EC0E882F9820A8336
:101940001B834E0D5F1D601F711F4D935D936D9343
:101950007C93139731E0D39414962496DC1488F288
:101960003170330F330F330F80916A0A877F832BD7
:1019700080936A0ADF91CF911F910F91FF90EF90B2
:10198000DF90CF900895A1E6B9E080E090E0FC01FF
:10199000EF51F84F1082118212821382FC01EF5531
:1019A000F74F10821182128213821D920496803C9E
:1019B000910569F7F999FECF8CE694E092BD81BD5F
:1019C000F89A80B58093D8071092D9071092DA0759
:1019D0001092DC071092DB071092DD071092DE07F1
:1019E0001092DF071092E00708951092940710926A
:1019F000930785E593E0909392078093910789E19F
:101A000080939E071092A1071092B4071092BB0713
:101A10001092BD0708950F931F93DF93CF93CDB717
:101A2000DEB76E970FB6F894DEBF0FBECDBF8C0148
:101A30008DE997E0B8010E943E4E8823F1F1CE0176
:101A40000196B80141E00E9478608E010B5F1F4F44
:101A500019C0C80162E174E040E052E00E941052F7
:101A60009C01442737FD4095542F203082E03807F1
:101A700080E0480780E05807B0F0C90160E143E02A
:101A80000E94BF342F89388D498D5A8D8F85988952
:101A9000A989BA89281739074A075B07D1F620E0D8
:101AA00030E040E050E0C90161E143E00E94BF3412
:101AB000CE0105960E94EA5181E06E960FB6F89429
:101AC000DEBF0FBECDBFCF91DF911F910F91089563
:101AD000AF92BF92DF92EF92FF920F931F93CF933B
:101AE000DF9300D000D000D0EDB7FEB7319601E90A
:101AF00017E0ADB7BEB712961C930E9311978CE802
:101B000092E0938382838FEC90E0958384830E949C
:101B1000E2390F900F90EDB7FEB71283018384E88E
:101B200092E0948383830E94E239FF240F900F9008
:101B30000F900F90D02EE12E21E8A22E22E0B22E9F
:101B4000CFE7D2E04FC00F2D10E000D000D000D082
:101B5000ADB7BEB71196EDB7FEB7D182E28213964C
:101B6000BC92AE921297F80193E0F595E7959A959D
:101B7000E1F7E259F54F808190E0980127703070CD
:101B800002C0959587952A95E2F781709070159619
:101B90009C938E9314970E94E23980916D0A90E095
:101BA00001972DB73EB72A5F3F4F0FB6F8943EBF5F
:101BB0000FBE2DBF08171907A1F000D000D0ADB798
:101BC000BEB71196DC9211971296EC92129714966A
:101BD000DC93CE9313970E94E2390F900F900F90F1
:101BE0000F90F39420916D0AF21608F4ACCF00D058
:101BF00000D000D0EDB7FEB7319681E997E0ADB7E0
:101C0000BEB712969C938E9311978DE692E09383C4
:101C10008283248315820E94E239EDB7FEB736969F
:101C20000FB6F894FEBF0FBEEDBF81E0DF91CF91FC
:101C30001F910F91FF90EF90DF90BF90AF900895AC
:101C4000AF92BF92CF92DF92EF92FF920F931F93CA
:101C5000CF93DF9300D000D000D0EDB7FEB7319620
:101C600001E917E0ADB7BEB712961C930E9311971A
:101C70008CE894E0938382838FEC90E09583848357
:101C80000E94E2390F900F90EDB7FEB712830183E7
:101C90008AE894E0948383830E94E239CDE4D2E021
:101CA000FF240F900F900F900F90E02E012F42E82D
:101CB000A42E44E0B42E30E8C32E34E0D32E2C8181
:101CC0003D818881F4E1FF1619F490E0CC9701C0C2
:101CD00090E04DB75EB7485050400FB6F8945EBFE5
:101CE0000FBE4DBFEDB7FEB73196ADB7BEB711967B
:101CF000EC92119712960C93B382A28235832483BF
:101D0000978386830E94E239EDB7FEB738960FB607
:101D1000F894FEBF0FBEEDBFF2E2FF16A1F000D0B7
:101D200000D0ADB7BEB71196EC92119712960C93F6
:101D300012971496DC92CE9213970E94E2390F907C
:101D40000F900F900F90F3942796B3E2FB1609F0D3
:101D5000B6CF00D000D081E997E0EDB7FEB792830F
:101D600081838EE794E0948383830E94E2390F900D
:101D70000F900F900F9081E0DF91CF911F910F9105
:101D8000FF90EF90DF90CF90BF90AF9008950F93AA
:101D90001F9300D000D000D0EDB7FEB7319601E917
:101DA00017E0ADB7BEB712961C930E93119789EF4B
:101DB00099E09383828380E790E0958384830E94F7
:101DC000E23900D0EDB7FEB73196ADB7BEB7129687
:101DD0001C930E93119784EB98E09383828380E8A1
:101DE00090E09583848380E091E0978386830E94CE
:101DF000E2398DB79EB708960FB6F8949EBF0FBE16
:101E00008DBF81E01F910F910895CF92DF92EF92E5
:101E1000FF920F931F93DF93CF9300D000D0CDB7E5
:101E2000DEB70E9435647B018C016E010894C11CF1
:101E3000D11C0E94D9310E94ED36C6016091CD01BE
:101E40000E94E5338823E1F0E980FA800B811C8150
:101E500080EC98EDA4E5BCE7E80EF91E0A1F1B1FF5
:101E60006091540270E080E090E024E833E040E0CC
:101E700050E00E94636AE60EF71E081F191F0EC08D
:101E80000E9435646E197F09800B910B685E734068
:101E90008040904070F2EE24FF248701B701C80112
:101EA0000F900F900F900F90CF91DF911F910F9196
:101EB000FF90EF90DF90CF900895EF92FF921F93E5
:101EC000DF93CF9300D000D0CDB7DEB780911F0352
:101ED0008983809126038A8380912D038B8380914F
:101EE00034038C8310E07E010894E11CF11C6091A6
:101EF000CD016F5F6093CD01C7010E944F366AEF3D
:101F000070E080E090E00E9443640E94050F9B0116
:101F1000AC01611571058105910519F41F5F14313C
:101F200031F7B901CA010F900F900F900F90CF9128
:101F3000DF911F91FF90EF9008952F923F925F9253
:101F40006F927F928F929F92AF92BF92CF92DF92C9
:101F5000EF92FF920F931F93DF93CF93CDB7DEB72E
:101F60006E970FB6F894DEBF0FBECDBF6C018091A7
:101F70006A0A86FF1DC1C60160E677E040E32BE2F6
:101F800031E00E94684D882309F412C180E697E091
:101F90000E943C0A7B018C01C60160E677E040E3C9
:101FA00021E331E00E94684D882309F401C1C80192
:101FB000B70120E831E541E050E00E94D76A6901AD
:101FC0007A01890180E697E00E943C0A20E831E529
:101FD00041E050E00E94D76A59012C153D0508F4F4
:101FE000E7C0025F1F4F0217130708F4E1C000D0DB
:101FF00000D000D0EDB7FEB7319601E917E0ADB7DC
:10200000BEB712961C930E93119782E392E09383CE
:1020100082838FEC90E0958384830E94E239EE24E2
:10202000FF2477247394EDB7FEB736960FB6F89475
:10203000FEBF0FBEEDBF60E6262E67E0362E55E0F0
:10204000852E912C8C0E9D1E502E612E02E114E0E7
:1020500097C0C60160E677E04AE050E00E94470B77
:1020600080E697E065E371E00E94890A8DE997E0D8
:1020700060E677E00E943E4E882309F47EC01D8210
:102080001F821C821B828DEA93E09A838983C4019C
:1020900060E677E041E00E94905801C07724C401D7
:1020A00060E677E04FE250E020E030E00E94AD5380
:1020B0001816190624F0C4010E94EA515EC0FC0102
:1020C000E15AF84F80818A3009F41082772081F03C
:1020D00000D000D000D0EDB7FEB73196ADB7BEB797
:1020E00011965C92119712966C928FE292E00FC05B
:1020F00000D000D000D0EDB7FEB73196ADB7BEB777
:1021000011965C92119712966C928BE292E09383F7
:102110008283358224820E94E239ADB7BEB716961B
:102120000FB6F894BEBF0FBEADBF0894E11CF11C02
:10213000C70169E170E00E94A26A892B09F0AECF65
:102140008091970790919807209195073091960775
:10215000821B930B60E140E00E94BF341092940711
:102160001092930710939607009395071093980782
:1021700000939707EE24FF2491CF0894C11CD11C33
:10218000AC14BD0408F065CF00D000D081E997E021
:10219000EDB7FEB79283818389E292E094838383D3
:1021A0000E94E23981E00F900F900F900F9001C0D4
:1021B00080E06E960FB6F894DEBF0FBECDBFCF9114
:1021C000DF911F910F91FF90EF90DF90CF90BF9024
:1021D000AF909F908F907F906F905F903F902F90E7
:1021E0000895CF93DF939C0110926007FC01A081BA
:1021F000B181C0E0D0E00FC09C919D3231F09B32A4
:1022000021F0892F80538A3068F4FE01E05AF84F9C
:10221000908321961196F901808191810A96A817E1
:10222000B90750F3C05AD84F18821196F901B183FB
:10223000A08380E697E00E941E0ADF91CF91089567
:102240004F925F926F927F928F929F92AF92BF92C6
:10225000CF92DF92EF92FF920F931F93DF93CF9372
:102260000F92CDB7DEB70E94E9415B016C0100D04F
:1022700000D000D0EDB7FEB7319601E917E0ADB759
:10228000BEB712961C930E93119784E096E0938349
:1022900082838FEC90E0958384830E94E239EDB7CE
:1022A000FEB772970FB6F894FEBF0FBEEDBF319622
:1022B000ADB7BEB712961C930E93119780EB95E0C5
:1022C00093838283A482B582C682D78280916C0A6E
:1022D0008087118680916A0A817082871386809137
:1022E0006A0A869581708487158680916A0A869528
:1022F000869581708687178680916A0A829581709B
:10230000808B118A8091800A9091810AA091820A23
:10231000B091830A828B938BA48BB58B80E690E07F
:10232000978B868B0E94E23990E0EDB7FEB77896E6
:102330000FB6F894FEBF0FBEEDBF78010CEA15E0B2
:1023400023C000D000D000D0EDB7FEB73196ADB7B6
:10235000BEB71196EC9211971296FC9213830283EA
:10236000A92FB0E0A259B54F8C918483158299832F
:102370000E94E23999819F5FEDB7FEB736960FB69E
:10238000F894FEBF0FBEEDBF80916C0AA1E96A2EE2
:10239000A7E07A2E9817A8F200D000D0ADB7BEB74C
:1023A00012967C926E92119782EA95E014969C9315
:1023B0008E9313970E94E23999240F900F900F90FB
:1023C0000F90C301762C892EF9E94F2EF5E05F2E90
:1023D00066C0A92DB0E0FD01EF59F64F608166237C
:1023E000A9F1CD01880F991F880F991FFC01EF51AA
:1023F000F84FE080F18002811381FC01EF55F74F27
:10240000AE14BF04C006D10648F02081318142815C
:1024100053812A193B094C095D0908C0208131818B
:10242000428153812E193F09400B510BAA0FBB1F4C
:10243000AA0FBB1FAF55B74F8D919D910D90BC91C9
:10244000A02D8E5F9F4FAF4FBF4F21F420E030E0B3
:1024500040E050E08DB79EB70A970FB6F8949EBF44
:102460000FBE8DBFEDB7FEB73196ADB7BEB71196B3
:102470007C92119712968C925382428264831582C9
:1024800026833783408751870E94E2399394EDB7C2
:10249000FEB73A960FB6F894FEBF0FBEEDBF80911F
:1024A0006D0A981608F495CF2DB73EB72E503040E0
:1024B0000FB6F8943EBF0FBE2DBFEDB7FEB73196F5
:1024C00081E997E0ADB7BEB712969C938E931197B2
:1024D0008CE795E0938382838091D907848315826A
:1024E0008091DA07868317828091DB079091DC0761
:1024F000918780878091DD079091DE07A091DF07AB
:10250000B091E00782879387A487B5870E94E2395C
:10251000EDB7FEB73E960FB6F894FEBF0FBEEDBF07
:1025200081E00F90CF91DF911F910F91FF90EF907D
:10253000DF90CF90BF90AF909F908F907F906F90E3
:102540005F904F900895BF92CF92DF92EF92FF92EB
:102550000F931F936C01FC01B080E1800E94E94160
:1025600020E831E541E050E00E94B56A8B2D8F777D
:10257000280F311D411D511DFF2400E010E0CA014C
:10258000B901A80197010E94B56AF0E8BF22B62AF6
:10259000F601B0821F910F91FF90EF90DF90CF90E6
:1025A000BF9008956F927F928F929F92AF92BF9249
:1025B000CF92DF92EF92FF920F931F934C01FC0199
:1025C000708061800E94E941A62CBB24CC24DD24CC
:1025D000BFE7EB2EE720FF24E60CF11C0027F7FCF9
:1025E0000095102F20E831E541E050E00E94B56AE7
:1025F000CA01B901A60195010E94B56AE61AF70A57
:10260000080B190BC801B701A60195010E94B56A14
:10261000F0E87F22762AF40170821F910F91FF90DB
:10262000EF90DF90CF90BF90AF909F908F907F9072
:102630006F900895EF92FF921F93CF93DF93182F1F
:102640007B010E94E9419B01AC01C12FD0E02F5FCB
:102650003F4F4F4F5F4FCE01880F991F880F991F33
:10266000FC01EF51F84F2083318342835383FC01F7
:10267000EF55F74FE114F10449F48EEF9FEFAFEF00
:10268000BFEF80839183A283B3830DC0C701AA27C4
:1026900097FDA095BA2F280F391F4A1F5B1F208373
:1026A000318342835383CF59D64F83E68883809109
:1026B0006A0A886080936A0ADF91CF911F91FF9028
:1026C000EF900895AF92BF92CF92DF92EF92FF9278
:1026D0000F931F93CF93DF938C010E5F1F4F20E06A
:1026E00030E006C0F901E15AF84F90830F5F1F4FA9
:1026F000E22FD8019C91892F80538A3028F42F5FD4
:102700003F4F2530310571F7F0E0E05AF84F108265
:1027100080E697E00E941E0AEC0197FDD4C08091EC
:102720006D0A90E08C179D070CF4CDC0F8018081F4
:102730008D3309F057C0209709F4C5C080916A0A0B
:1027400084FFC1C02197C80101962181203379F40B
:102750000E94E941EC2FF0E0EE0FFF1FEE0FFF1F8C
:10276000EF55F74F608371838283938319C02133C0
:1027700009F0A9C060E677E040E32AE331E00E9477
:10278000684D882319F460E070E007C080E697E0A8
:102790000E941E0ABC0197FD96C08C2F0E941A133E
:1027A00000D000D000D0EDB7FEB7319681E997E0B8
:1027B000ADB7BEB712969C938E9311978CE392E0BF
:1027C0009383828380E790E0958384830E94E2393B
:1027D00081E0EDB7FEB736960FB6F894FEBF0FBE98
:1027E000EDBF72C000D000D000D0EDB7FEB731967B
:1027F00081E997E0ADB7BEB712969C938E9311977F
:1028000089E392E09383828380E790E095838483D9
:102810000E94E239EDB7FEB736960FB6F894FEBFC8
:102820000FBEEDBF209721F480916D0A90E003C0A8
:102830008C2F9C2F9150C0E0D0E0E92EFF24082F70
:1028400010E061E9A62E67E0B62E56E3C52E52E0F1
:10285000D52E31C000D000D000D0ADB7BEB7119694
:10286000EDB7FEB7B282A1821396DC92CE92129798
:10287000F90143E0F595E7954A95E1F7E259F54FFF
:10288000808190E02770307002C0959587952A95D9
:10289000E2F78170907015969C938E9314970E9426
:1028A000E23921962DB73EB72A5F3F4F0FB6F89415
:1028B0003EBF0FBE2DBF9E012E0D3F1D20173107BD
:1028C0004CF281E001C080E0DF91CF911F910F9128
:1028D000FF90EF90DF90CF90BF90AF900895AF92B0
:1028E000BF92CF92DF92EF92FF920F931F93CF93FD
:1028F000DF932DB73EB7285030400FB6F8943EBF57
:102900000FBE2DBFEDB7FEB7319601E917E0ADB7A9
:10291000BEB712961C930E93119789E794E09383A8
:10292000828380E790E09583848387E391E09783B7
:1029300086830E94E2390F900F900F900F90EDB7B1
:10294000FEB71283018386E694E0948383830E941A
:10295000E239BDE4EB2EB2E0FB2EAA24C0E0D0E0C9
:102960000F900F900F900F90B02EC12E07E514E03E
:102970005C2F6D2FD70116968C91169781FF33C06F
:1029800014962D913C91159711964C9111978C911D
:10299000C43119F490E0CC9701C090E0EDB7FEB7D8
:1029A0003C970FB6F894FEBF0FBEEDBF3196ADB7A2
:1029B000BEB71196BC9211971296CC9213830283E4
:1029C0003583248346831782918780875287638764
:1029D0000E94E239A394EDB7FEB73C960FB6F89487
:1029E000FEBF0FBEEDBF219627E030E0E20EF31EE2
:1029F000C332D10509F0BCCF0E94E9416B017C01D3
:102A0000B09054020E94DF48ADB7BEB752970FB6E0
:102A1000F894BEBF0FBEADBFEDB7FEB7319601E96A
:102A200017E012961C930E9311972FE134E0338335
:102A30002283A482158220E630E037832683C08675
:102A4000D186E286F386B48615868687178685E06A
:102A500090E0918B808B0E94E239EDB7FEB73E96F5
:102A60000FB6F894FEBF0FBEEDBF1283018384E161
:102A700094E0948383830E94E23900D0EDB7FEB7DF
:102A80003196ADB7BEB712961C930E9311978EEE8A
:102A900093E09383828380E890E0958384830E940F
:102AA000E239EDB7FEB736960FB6F894FEBF0FBE0B
:102AB000EDBF81E0DF91CF911F910F91FF90EF90DB
:102AC000DF90CF90BF90AF900895BF92CF92DF92EA
:102AD000EF92FF920F931F93CF93DF9300D000D01C
:102AE00001E917E0ADB7BEB712961C930E9311978C
:102AF0008AE89AE014969C938E9313970E94E23989
:102B0000FF240F900F900F900F90B02EE12E10E643
:102B1000C12E17E0D12E04E81AE021C08F2D60E607
:102B200077E00E941C4400D000D000D0EDB7FEB783
:102B30003196ADB7BEB71196BC9211971296EC9232
:102B400013830283D582C4820E94E239F394EDB7E5
:102B5000FEB736960FB6F894FEBF0FBEEDBF80915C
:102B60006D0AC1E9D7E0F816C8F200D000D0ADB7C1
:102B7000BEB71296DC93CE9311978FE79AE0149626
:102B80009C938E9313970E94E2390F900F900F90B1
:102B90000F908E819F812C813D81821B930B60E180
:102BA00040E00E94BF34DF91CF911F910F91FF90C1
:102BB000EF90DF90CF90BF9008954F925F926F9209
:102BC0007F928F929F92AF92BF92CF92DF92EF92BD
:102BD000FF920F931F93DF93CF930F92CDB7DEB782
:102BE0000E94E9415B016C012DB73EB7285030408F
:102BF0000FB6F8943EBF0FBE2DBFEDB7FEB73196AE
:102C000001E917E0ADB7BEB712961C930E9311976A
:102C10008FE695E09383828380E790E095838483B9
:102C200087E391E0978386830E94E239EDB7FEB790
:102C300038960FB6F894FEBF0FBEEDBF0E94651523
:102C4000109294071092930782E194E09093960774
:102C50008093950790939807809397072DB73EB779
:102C60002A5030400FB6F8943EBF0FBE2DBFEDB7CF
:102C7000FEB73196ADB7BEB712961C930E9311975F
:102C80008AE595E0938382838FEC90E0958384833B
:102C9000A682B782C086D1860E94E2390F900F903B
:102CA000EDB7FEB73196ADB7BEB712961C930E9333
:102CB000119780E495E09383828380916C0A8483EA
:102CC000158280915402868317820E94E23990E037
:102CD000EDB7FEB738960FB6F894FEBF0FBEEDBF46
:102CE00078010CE315E023C000D000D000D0EDB790
:102CF000FEB73196ADB7BEB71196EC92119712960A
:102D0000FC9213830283A92FB0E0A259B54F8C9196
:102D10008483158299830E94E23999819F5FEDB780
:102D2000FEB736960FB6F894FEBF0FBEEDBF80918A
:102D30006C0A41E9642E47E0742E9817A8F200D07F
:102D400000D0ADB7BEB712967C926E92119780E319
:102D500095E014969C938E9313970E94E2399924E0
:102D60000F900F900F900F90C301762C892E37E2B1
:102D7000432E35E0532E66C0A92DB0E0FD01EF597A
:102D8000F64F60816623A9F1CD01880F991F880F46
:102D9000991FFC01EF51F84FE080F180028113810F
:102DA000FC01EF55F74FAE14BF04C006D10648F042
:102DB00020813181428153812A193B094C095D09E7
:102DC00008C020813181428153812E193F09400B77
:102DD000510BAA0FBB1FAA0FBB1FAF55B74F8D9149
:102DE0009D910D90BC91A02D8E5F9F4FAF4FBF4F17
:102DF00021F420E030E040E050E08DB79EB70A9724
:102E00000FB6F8949EBF0FBE8DBFEDB7FEB73196DB
:102E1000ADB7BEB711967C92119712968C925382E1
:102E200042826483158226833783408751870E94BC
:102E3000E2399394EDB7FEB73A960FB6F894FEBF19
:102E40000FBEEDBF80916D0A981608F495CF2DB78F
:102E50003EB72A5130400FB6F8943EBF0FBE2DBF8B
:102E6000EDB7FEB7319601E917E0ADB7BEB71296E0
:102E70001C930E93119785ED94E093838283809148
:102E80006A0A81708483158280916A0A86958170AE
:102E90008683178280916A0A8695869581708087DD
:102EA000118680916A0A829581708287138680914B
:102EB000800A9091810AA091820AB091830A848746
:102EC0009587A687B7878091CB02808B118A8091E6
:102ED000E002828B138A8091EE02848B158A8091A6
:102EE000FC02868B178A80E690E0918F808F0E948B
:102EF000E239EDB7FEB73C960FB6F894FEBF0FBEB1
:102F0000EDBF3196ADB7BEB712961C930E931197D5
:102F100083EB94E0938382838091D9078483158225
:102F20008091DA07868317828091DB079091DC0716
:102F3000918780878091DD079091DE07A091DF0760
:102F4000B091E00782879387A487B5870E94E23912
:102F5000EDB7FEB738960FB6F894FEBF0FBEEDBFC3
:102F60003196ADB7BEB712961C930E9311978FE8AA
:102F700094E09383828380E890E0958384830E9429
:102F8000E239EDB7FEB736960FB6F894FEBF0FBE26
:102F9000EDBF81E00F90CF91DF911F910F91FF90D6
:102FA000EF90DF90CF90BF90AF909F908F907F90E9
:102FB0006F905F904F900895FF920F931F93CF9360
:102FC000DF938C010E944B35109294071092930767
:102FD00082E194E0909396078093950790939807E9
:102FE00080939707A8014B5F5F4FD80115968C918E
:102FF000803221F4CA010E94DD158FC0CEECD1E0F1
:10300000A0E0B0E0682F772767FD7095FA2EE88181
:10301000F981849190E08617970709F08DC0319669
:10302000249130E0FA018181992787FD9095281736
:10303000390709F081C0AA0FBB1FAA0FBB1FA053FD
:10304000BE4FED91FC91CA010995882301F500D08E
:1030500000D000D0EDB7FEB7319681E997E0ADB76B
:10306000BEB712969C938E93119789E192E0938359
:10307000828382E691E0958384830E94E239EDB7F2
:10308000FEB736960FB6F894FEBF0FBEEDBFF6E161
:10309000FF1609F042C080916A0A86FF3EC0402FA9
:1030A000E0E6F7E0C801DC0101C081939A2F941B90
:1030B00015968C911597803229F0119627E0E0380B
:1030C000F20799F7E92FF0E0E05AF84F108280E616
:1030D00097E00E940B0D8823B9F500D000D000D0F6
:1030E000EDB7FEB7319681E997E0ADB7BEB712965E
:1030F0009C938E93119786E192E09383828382E67C
:1031000091E0958384830E94E239EDB7FEB736964D
:103110000FB6F894FEBF0FBEEDBF80919707909158
:1031200098072091950730919607821B930B61E1D8
:1031300040E00E94BF3408C0F39411962496A63153
:10314000B10509F063CFA3CFDF91CF911F910F910C
:10315000FF900895BF92CF92DF92EF92FF920F936C
:103160001F93CF93DF932DB73EB7285030400FB653
:10317000F8943EBF0FBE2DBFEDB7FEB7319601E903
:1031800017E0ADB7BEB712961C930E93119788E562
:1031900098E09383828380E790E09583848387E33C
:1031A00091E0978386830E94E239EDB7FEB73896A7
:1031B0000FB6F894FEBF0FBEEDBF0E9465151092CA
:1031C00094071092930782E194E09093960780937E
:1031D000950790939807809397072DB73EB72A508D
:1031E00030400FB6F8943EBF0FBE2DBFEDB7FEB70F
:1031F0003196ADB7BEB712961C930E93119784E328
:1032000098E09383828380916C0A848315828091F5
:10321000CB02868317828091FC02808711860E94F0
:10322000E239DD24E12C74E0F72EEDB7FEB73A96D3
:103230000FB6F894FEBF0FBEEDBFB02EC12E00E357
:1032400018E033C0F999FECFF2BCE1BCF89A90B512
:10325000F999FECF0894E11CF11CF2BCE1BCF89A8C
:1032600080B5D92FC0E000D000D000D0EDB7FEB7B8
:103270003196ADB7BEB71196BC9211971296CC920B
:10328000138302839E01280F311D358324830E94FE
:10329000E239D3940894E11CF11C8DB79EB70696D1
:1032A0000FB6F8949EBF0FBE8DBF80916D0AD816E1
:1032B00008F4C8CF00D000D001E917E0ADB7BEB721
:1032C00012961C930E93119782E298E014969C93A9
:1032D0008E9313970E94E23900D0EDB7FEB7319676
:1032E000ADB7BEB712961C930E9311978CEF97E073
:1032F0009383828380E890E0958384830E94E239FF
:10330000EDB7FEB736960FB6F894FEBF0FBEEDBF11
:1033100081E0DF91CF911F910F91FF90EF90DF90AF
:10332000CF90BF900895AF92BF92DF92EF92FF923D
:103330000F931F93DF93CF930F92CDB7DEB700D0DB
:1033400000D000D0EDB7FEB7319601E917E0ADB778
:10335000BEB712961C930E93119783E19BE0938363
:10336000828380E790E0958384830E94E239EDB701
:10337000FEB736960FB6F894FEBF0FBEEDBF0E94A3
:103380006515109294071092930782E194E0909350
:1033900096078093950790939807809397072DB78A
:1033A0003EB72C5030400FB6F8943EBF0FBE2DBF35
:1033B000EDB7FEB73196ADB7BEB712961C930E931C
:1033C00011978AEE9AE09383828380916C0A8483BA
:1033D000158280E190E0978386838091CB0280877D
:1033E00011868091FC02828713860E94E239EDB734
:1033F000FEB738960FB6F894FEBF0FBEEDBF12832E
:1034000001838EED9AE0948383830E94E23990E0F9
:103410000F900F900F900F9078010AED1AE023C0E3
:1034200000D000D000D0EDB7FEB73196ADB7BEB733
:103430001196EC9211971296FC9213830283A92F96
:10344000B0E0AC58B54F8C918483158299830E946B
:10345000E23999819F5FEDB7FEB736960FB6F894C3
:10346000FEBF0FBEEDBF80916C0AA1E9AA2EA7E0B6
:10347000BA2E9817A8F200D000D0ADB7BEB71296FA
:10348000BC92AE9211978EEC9AE014969C938E9318
:1034900013970E94E23900E00F900F900F900F9069
:1034A000C501DA2C192FFAECEF2EFAE0FF2E21C01D
:1034B00000D000D000D0EDB7FEB73196ADB7BEB7A3
:1034C0001196DC92119712961C93F382E282A02F40
:1034D000B0E0A658B54F8C91848315820E94E239E2
:1034E0000F5FEDB7FEB736960FB6F894FEBF0FBE6E
:1034F000EDBF80916C0AE1E9AE2EE7E0BE2E081721
:10350000B8F200D000D000D0EDB7FEB73196ADB71D
:10351000BEB71296BC92AE92119787E99AE0938358
:10352000828380E890E0958384830E94E239EDB73E
:10353000FEB736960FB6F894FEBF0FBEEDBF81E022
:103540000F90CF91DF911F910F91FF90EF90DF903F
:10355000BF90AF9008958F929F92AF92BF92CF92FB
:10356000DF92EF92FF920F931F93CF93DF9300D0E0
:1035700000D000D0EDB7FEB7319601E917E0ADB746
:10358000BEB712961C930E93119788E69BE0938327
:1035900082838FEC90E0958384830E94E2390F90C0
:1035A0000F90EDB7FEB7128301838CE59BE0948307
:1035B00083830E94E239FF240F900F900F900F90A9
:1035C000E02E012F30E6C32E37E0D32E27E5822EE2
:1035D0002BE0922E95E5A92E9BE0B92E3EC08F2DB3
:1035E00060E677E00E941C4400D000D000D0EDB728
:1035F000FEB73196ADB7BEB71196EC921197129601
:103600000C9393828282D582C4820E94E2392F2D4C
:1036100030E080916D0A90E00197EDB7FEB73696E5
:103620000FB6F894FEBF0FBEEDBF28173907A1F003
:1036300000D000D0ADB7BEB71196EC92119712969C
:103640000C9312971496BC92AE9213970E94E23993
:103650000F900F900F900F90F39480916D0AC1E935
:10366000D7E0F81608F4BBCF00D000D0EDB7FEB716
:10367000D283C18389E49BE0948383830E94E239EF
:10368000FF240F900F900F900F90CE01DC2EE92EAB
:1036900086E4882E8BE0982E04E4A02E0BE0B02E5A
:1036A00040C00F2D10E000D000D000D0ADB7BEB7A5
:1036B0001196EDB7FEB7D182E28213969C928E925C
:1036C0001297F801EC58F54F808114968C9314975B
:1036D00015961C920E94E23980916C0A90E0019745
:1036E0002DB73EB72A5F3F4F0FB6F8943EBF0FBECF
:1036F0002DBF08171907A1F000D000D0ADB7BEB795
:103700001196DC9211971296EC9212971496BC9235
:10371000AE9213970E94E2390F900F900F900F9086
:10372000F39480916C0AC1E9D7E0F81608F4B9CF98
:1037300000D000D0EDB7FEB7D283C18382E39BE017
:10374000948383830E94E239FF240F900F900F909F
:103750000F90CE01DC2EE92E1FE2812E1BE0912E70
:10376000BDE2AB2EBBE0BB2E40C00F2D10E000D061
:1037700000D000D0ADB7BEB71196EDB7FEB7D1827D
:10378000E28213969C928E921297F801E658F54FBA
:10379000808114968C93149715961C920E94E2399E
:1037A00080916C0A90E001972DB73EB72A5F3F4F9A
:1037B0000FB6F8943EBF0FBE2DBF08171907A1F032
:1037C00000D000D0ADB7BEB71196DC92119712961B
:1037D000EC9212971496BC92AE9213970E94E23923
:1037E0000F900F900F900F90F39480916C0AC1E9A5
:1037F000D7E0F81608F4B9CF00D000D000D0EDB76C
:10380000FEB73196ADB7BEB71296DC93CE93119743
:103810008EE19BE09383828380E190E095838483B3
:103820000E94E239EDB7FEB736960FB6F894FEBFA8
:103830000FBEEDBF81E0DF91CF911F910F91FF90FF
:10384000EF90DF90CF90BF90AF909F908F900895B2
:103850009C018091FC02882311F081E00895C90148
:1038600060E677E040E32CE331E00E94684D882376
:1038700031F080E697E00E943245811181E00895A1
:103880000F931F93DF93CF93CDB7DEB7C058D040CF
:103890000FB6F894DEBF0FBECDBF8C010D5F1F4F7A
:1038A000C8010E94281C882309F440C0C8018E0169
:1038B0000F5F1F4FB80140E82FE331E00E94684DD1
:1038C000882341F0C8010E94B44D80E890E0B8011F
:1038D0000E940D452DB73EB7285030400FB6F894E2
:1038E0003EBF0FBE2DBFEDB7FEB7319681E997E021
:1038F000ADB7BEB712969C938E9311978AE793E06B
:103900009383828380E790E09583848382EB91E0C8
:10391000978386830E94E23981E02DB73EB7285F06
:103920003F4F0FB6F8943EBF0FBE2DBFC058DF4FBC
:103930000FB6F894DEBF0FBECDBFCF91DF911F91C0
:103940000F9108958F929F92AF92BF92CF92DF9284
:10395000FF920F931F93DF93CF9300D000D0CDB78A
:10396000DEB773E0C72ED12CC80ED91EC6010E9447
:10397000281C882309F4B3C083E789831A821B8239
:103980001C8210E062E0862E912C8C0E9D1E5E0142
:103990000894A11CB11C1AC0812F90E0B4014AE028
:1039A00050E00E94470BC60160E677E040E39501D6
:1039B0000E94684D882349F080E697E00E94B44D4C
:1039C000812F60E677E00E9441441F5F80916D0A7D
:1039D000181710F38DE68983FF2452E0852E912C71
:1039E0008C0E9D1E5E010894A11CB11C1AC00F2DE7
:1039F00010E0C801B4014AE050E00E94470BC60144
:103A000060E677E040E395010E94684D882341F02D
:103A100080E697E00E941E0A0C58154FD8018C933F
:103A2000F39480916C0AF81610F30E94824489E6A0
:103A30008983FF2442E0842E912C8C0E9D1E5E0112
:103A40000894A11CB11C1AC00F2D10E0C801B401CC
:103A50004AE050E00E94470BC60160E677E040E391
:103A600095010E94684D882341F080E697E00E940E
:103A70001E0A0658154FF8018083F39480916C0A52
:103A8000F81610F30E946B442DB73EB72850304013
:103A90000FB6F8943EBF0FBE2DBFEDB7FEB73196FF
:103AA00081E997E0ADB7BEB712969C938E931197BC
:103AB0008AE59AE09383828380E790E0958384830C
:103AC00082EB91E0978386830E94E23981E0EDB733
:103AD000FEB738960FB6F894FEBF0FBEEDBF0F903D
:103AE0000F900F900F90CF91DF911F910F91FF904A
:103AF000DF90CF90BF90AF909F908F9008958F925E
:103B00009F92AF92BF92CF92DF92EF92FF920F936C
:103B10001F93CF93DF93EC017A018B01CB01BA01A4
:103B20000E94D6404C01C801B7010E94D0405C0100
:103B30008889882309F481C0D880D7FE21C0C98034
:103B400021E02C15E8F4C801B70120E831E541E097
:103B500050E00E94B56ACA01B9012C2D30E040E066
:103B600050E00E94B56A2FE7D2222D2D30E040E0D0
:103B700050E0621773078407950709F05EC031C0F3
:103B8000C801B7010E94C440288130E090E005964A
:103B900067E070E00E94A26A02C0359527958A9579
:103BA000E2F720FF4AC0C801B7010E94CA40D82EE0
:103BB000888187FF16C08981882319F4D0FE11C03F
:103BC0003CC0813071F48FE1D816B9F12DE1D216E5
:103BD00009F042C0C801B7010E94BE400297E1F55A
:103BE0002CC08CE390E0889E9001899E300D989EB9
:103BF000300D11242A0D3B1D4A815B8124173507A6
:103C0000E0F08C819D8182179307B8F0EE81FF81EF
:103C1000309799F0241B350B40E0C901BF010E9489
:103C20008E6A6E9FC0016F9F900D7E9F900D112434
:103C30008217930719F441E001C040E0842FDF911F
:103C4000CF911F910F91FF90EF90DF90CF90BF9099
:103C5000AF909F908F900895D0FCC3CFEECF982F58
:103C60009B018091D807981768F461E1969FB00195
:103C7000112462597B4FC90141E150E020ED3BE046
:103C80000E94C30A0895CF92DF92EF92FF920F93A2
:103C90001F93DF93CF93CDB7DEB762970FB6F8943B
:103CA000DEBF0FBECDBF8C010D5F1F4FC8010E944C
:103CB000B44DC80160E677E040E323E431E00E94C0
:103CC000684D882309F42BC180E697E00E941E0A04
:103CD0007C012FEF8F3F92070CF421C18091D80710
:103CE00090E0E816F9060CF01AC18DB79EB7089758
:103CF0000FB6F8949EBF0FBE8DBFEDB7FEB73196DD
:103D000001E917E0ADB7BEB712961C930E93119759
:103D10008DEA97E09383828380E790E095838483A4
:103D200087E391E0978386830E94E239EDB7FEB77F
:103D300038960FB6F894FEBF0FBEEDBF0E94651512
:103D4000109294071092930782E194E09093960763
:103D50008093950790939807809397072DB73EB768
:103D60002A5030400FB6F8943EBF0FBE2DBFEDB7BE
:103D7000FEB73196ADB7BEB712961C930E9311974E
:103D80008EE897E09383828380916C0A8483158206
:103D9000F782E6828091FC02808711860E94E239D8
:103DA000EDB7FEB73A960FB6F894FEBF0FBEEDBF63
:103DB000FFEFEF16FFEFFF0609F48FC08E2D7E0197
:103DC0000894E11CF11CB7010E942F1E8A818230E9
:103DD00018F0C7010E94D2122DB73EB722513040D1
:103DE0000FB6F8943EBF0FBE2DBFEDB7FEB73196AC
:103DF00001E917E0ADB7BEB712961C930E93119769
:103E00008FE697E0938382838989848315828981F1
:103E1000868317828A81808711868B819C81938714
:103E200082878D819E81958784878F8198859787EA
:103E3000868789859A85918B808B0E94E23990E0F4
:103E4000EDB7FEB772960FB6F894FEBF0FBEEDBF8A
:103E50006801EBE6EE2EE7E0FE2E8E01055F1F4FB8
:103E600022C000D000D000D0EDB7FEB73196ADB77C
:103E7000BEB71196CC9211971296DC92F382E28231
:103E8000D801A90FB11D8C91848315829A8B0E9451
:103E9000E2399A899F5FEDB7FEB736960FB6F89470
:103EA000FEBF0FBEEDBF80916C0A9817D0F200D014
:103EB00000D081E997E0ADB7BEB712969C938E9380
:103EC000119788E697E014969C938E9313970E941F
:103ED000E2390F900F900F900F9000D000D000D0DB
:103EE000EDB7FEB7319681E997E0ADB7BEB7129650
:103EF0009C938E93119787E397E09383828380E866
:103F000090E0958384830E94E23981E0EDB7FEB7AB
:103F100036960FB6F894FEBF0FBEEDBF01C080E02D
:103F200062960FB6F894DEBF0FBECDBFCF91DF9182
:103F30001F910F91FF90EF90DF90CF9008952F92F7
:103F40003F924F925F926F927F928F929F92AF9229
:103F5000BF92DF92EF92FF920F931F93DF93CF9365
:103F6000CDB7DEB761970FB6F894DEBF0FBECDBFF9
:103F700000D000D000D0EDB7FEB7319601E917E0D0
:103F8000ADB7BEB712961C930E93119781EB98E0D4
:103F9000938382838FEC90E0958384830E94E2393F
:103FA00000D000D0EDB7FEB73196ADB7BEB71296D0
:103FB0001C930E93119787E898E0938382838091F6
:103FC000D8078483158280916C0A8683178285E3E3
:103FD00090E0918780870E94E239FF24EDB7FEB719
:103FE0003A960FB6F894FEBF0FBEEDBF4E0108948F
:103FF000811C911CD02EE12E1BE0212E312C2C0E89
:104000003D1EB8E64B2EB8E05B2EAAE66A2EA8E06D
:104010007A2EF2E1AF2EF4E0BF2EACC08F2DB401AA
:104020000E942F1E8A81823018F0C4010E94D21291
:104030008DB79EB742970FB6F8949EBF0FBE8DBF47
:10404000EDB7FEB73196ADB7BEB71196DC921197BA
:104050001296EC9281E798E0938382838989848326
:1040600015828981868317828A81808711868B8158
:104070009C81938782878D819E81958784878F819C
:1040800098859787868789859A85918B808B0E94F2
:10409000E23910E0ADB7BEB752961DC000D000D0D7
:1040A00000D0EDB7FEB73196ADB7BEB71196DC9232
:1040B00011971296EC928DE698E093838283D1015A
:1040C000A10FB11D8C91848315820E94E2391F5F7C
:1040D000ADB7BEB716960FB6F894BEBF0FBEADBF54
:1040E00080916C0A1817D0F20F2D10E08091D8073C
:1040F00090E001970817190749F000D000D0EDB7FC
:10410000FEB7D182E282748263820EC000D000D0FA
:10411000ADB7BEB71196DC9211971296EC9212973A
:1041200014965C924E9213970E94E2390F900F9072
:104130000F900F900370107003301105D1F480912F
:104140009707909198072091950730919607821BC9
:10415000930B60E140E00E94BF34109294071092EC
:104160009307B0929607A0929507B0929807A092F5
:104170009707F3948091D807F81608F44FCF00D032
:1041800000D081E997E0EDB7FEB79283818385E6A1
:1041900098E0948383830E94E2390F900F900F90F0
:1041A0000F9081E061960FB6F894DEBF0FBECDBFD1
:1041B000CF91DF911F910F91FF90EF90DF90BF9013
:1041C000AF909F908F907F906F905F904F903F90B7
:1041D0002F9008952F923F924F925F926F927F920D
:1041E0008F929F92AF92BF92CF92DF92EF92FF9207
:1041F0000F931F93DF93CF93CDB7DEB761970FB6C1
:10420000F894DEBF0FBECDBF8DB79EB70C970FB62B
:10421000F8949EBF0FBE8DBFEDB7FEB7319601E992
:1042200017E0ADB7BEB712961C930E9311978BE2B1
:104230009AE0938382838091D8078483158280914A
:104240006C0A868317828091FC028087118685E341
:1042500090E0938782870E94E239DD24EDB7FEB7B4
:104260003C960FB6F894FEBF0FBEEDBF4E0108940A
:10427000811C911CC02E012F2BE0222E312C2C0EE4
:104280003D1E4C2C512E97E0692E9AE0792E82E14A
:10429000A82E84E0B82E9AC08D2DB4010E942F1E46
:1042A0008A81823018F0C4010E94D212ED2CFF24C2
:1042B0008DB79EB744970FB6F8949EBF0FBE8DBFC3
:1042C000EDB7FEB73196ADB7BEB71196CC92119748
:1042D00012960C938EE09AE093838283F582E482B7
:1042E0008989868317828981808711868A8182875E
:1042F00013868B819C81958784878D819E8197878A
:1043000086878F819885918B808B89859A85938B01
:10431000828B0E94E23910E0ADB7BEB754961DC043
:1043200000D000D000D0EDB7FEB73196ADB7BEB724
:104330001196CC92119712960C938AE09AE093838F
:104340008283D101A10FB11D8C91848315820E94BB
:10435000E2391F5FADB7BEB716960FB6F894BEBF71
:104360000FBEADBF80916C0A1817D0F200D000D0FC
:10437000EDB7FEB741825282748263820E94E239B5
:10438000F3E0EF22FF240F900F900F900F9083E047
:10439000E816F104D1F48091970790919807209145
:1043A000950730919607821B930B60E140E00E94D5
:1043B000BF341092940710929307B0929607A09280
:1043C0009507B0929807A0929707D3948091D80749
:1043D000D81608F461CF00D000D081E997E0ADB7DE
:1043E000BEB712969C938E9311978CEF99E014961A
:1043F0009C938E9313970E94E2390F900F900F9029
:104400000F9061960FB6F894DEBF0FBECDBFCF916F
:10441000DF911F910F91FF90EF90DF90CF90BF90B1
:10442000AF909F908F907F906F905F904F903F9054
:104430002F9008952F923F924F925F926F927F92AA
:104440008F929F92AF92BF92CF92DF92EF92FF92A4
:104450000F931F93DF93CF9300D0CDB7DEB78C01BE
:104460000D5F1F4FC8010E94B44D0E94E9415B01DE
:104470006C010E94B5402C01C601B5010E94BE40EE
:104480003C01C601B5010E94CA404C01C601B501FC
:104490000E94D6409A838983C601B5010E94D0400C
:1044A0001C01C80160E677E040E327E431E00E94A8
:1044B000684D882361F080E697E00E941E0A4C0157
:1044C000009729F4C601B5010E94CA404C01C801F9
:1044D00060E677E040E329E431E00E94684D8823FC
:1044E00029F080E697E00E941E0A3C01C80160E6C0
:1044F00077E040E32BE431E00E94684D882329F007
:1045000080E697E00E941E0A2C0100D000D000D067
:10451000EDB7FEB7319651E9E52E57E0F52EADB770
:10452000BEB71296FC92EE92119781E097E09383CA
:10453000828380E790E0958384830E94E239EDB71F
:10454000FEB736960FB6F894FEBF0FBEEDBF0E94C1
:104550006515109294071092930782E194E090936E
:1045600096078093950790939807809397072DB7A8
:104570003EB72A5130400FB6F8943EBF0FBE2DBF54
:104580000DB71EB70F5F1F4FADB7BEB71296FC92A7
:10459000EE9211978AEA96E0F801938382838091E4
:1045A000BD02848315828091CB028683178280911D
:1045B000EE02808711868091C402828713868091E3
:1045C000D202848715868091D90286871786C60114
:1045D000B50120E831E541E050E00E94B56AD8011C
:1045E00051963C932E9350978CE390E0E981FA81A9
:1045F0009C01E29FC001E39F900DF29F900D11245A
:10460000820D931D53969C938E93529755969C9230
:104610008E92549757967C926E92569759965C92CA
:104620004E9258970E94E2394DB75EB74A5E5F4F8F
:104630000FB6F8945EBF0FBE4DBFADB7BEB71296B2
:10464000FC92EE9211978EE996E014969C938E93CD
:1046500013970E94E23900E00F900F900F900F9097
:10466000BE2CEF2C4AE9C42E46E0D42E21C000D047
:1046700000D000D0EDB7FEB73196ADB7BEB71196FA
:10468000BC9211971296EC92D382C282A02FB0E016
:10469000AC58B54F8C91848315820E94E2390F5F2C
:1046A000EDB7FEB736960FB6F894FEBF0FBEEDBF5E
:1046B00080916C0A31E9832E37E0932E0817B8F207
:1046C00000D000D0ADB7BEB712969C928E921197D3
:1046D00086E996E014969C938E9313970E94E23994
:1046E0000F900F900F900F900E94EA2000D000D002
:1046F00000D0EDB7FEB73196ADB7BEB712969C921B
:104700008E9211978EE696E09383828380E890E004
:10471000958384830E94E239EDB7FEB736960FB6D3
:10472000F894FEBF0FBEEDBF81E00F900F90CF91C8
:10473000DF911F910F91FF90EF90DF90CF90BF908E
:10474000AF909F908F907F906F905F904F903F9031
:104750002F9008950F931F938DB79EB708970FB6AC
:10476000F8949EBF0FBE8DBFEDB7FEB7319601E93D
:1047700017E0ADB7BEB712961C930E93119782EE59
:1047800097E09383828380E790E09583848387E337
:1047900091E0978386830E94E2398DB79EB7089691
:1047A0000FB6F8949EBF0FBE8DBF0E946515109284
:1047B00094071092930782E194E090939607809378
:1047C000950790939807809397070E94EA2000D05E
:1047D00000D000D0EDB7FEB73196ADB7BEB7129698
:1047E0001C930E9311978AEB97E09383828380E862
:1047F00090E0958384830E94E2398DB79EB7069638
:104800000FB6F8949EBF0FBE8DBF81E01F910F9130
:104810000895DF92EF92FF920F931F93DF93CF9350
:10482000CDB7DEB761970FB6F894DEBF0FBECDBF30
:104830002091D807821708F043C0222309F440C012
:1048400090E001968C0174E0000F111F7A95E1F75A
:10485000080F191F02591B4F61E1D62E7E010894E3
:10486000E11CF11C13C0C701B80141E150E020ED8B
:104870003BE00E94C30AC8014197B70141E150E003
:1048800028ED3BE00E94050B0F5E1F4F2091D807DB
:104890002D9DC001112482599B4F0817190718F349
:1048A00021502093D807F999FECF1FBA8CE694E0E7
:1048B00092BD81BD20BD0FB6F894FA9AF99A0FBE49
:1048C00061960FB6F894DEBF0FBECDBFCF91DF91DA
:1048D0001F910F91FF90EF90DF900895CF93DF939A
:1048E000EC012396CE010E94B44DCE010E94281CFB
:1048F000882309F450C0CE0160E677E040E323E46A
:1049000031E00E94684D882309F445C080E697E0B5
:104910000E941E0A9C018FEF2F3F380781F41092EE
:10492000D807F999FECF1FBA8CE694E092BD81BDFD
:1049300010BC0FB6F894FA9AF99A0FBE09C080918C
:10494000D80790E02817390734F5822F0E940924F0
:1049500000D000D000D0EDB7FEB7319681E997E0E6
:10496000ADB7BEB712969C938E9311978CE097E0EB
:104970009383828380E790E0958384830E94E23969
:1049800081E02DB73EB72A5F3F4F0FB6F8943EBF88
:104990000FBE2DBF01C080E0DF91CF910895982F09
:1049A0008091D807981760F481E1989FC001112485
:1049B00082599B4F41E150E028ED3BE00E94050BFE
:1049C0000895BC019091D8079533F0F481E1989F48
:1049D000C001112482599B4F41E150E028ED3BE09A
:1049E0000E94050B2091D8072F5F2093D807F999D3
:1049F000FECF1FBA8CE694E092BD81BD20BD0FB6FC
:104A0000F894FA9AF99A0FBE0895BF92CF92DF9266
:104A1000EF92FF920F931F93DF93CF93CDB7DEB743
:104A200063970FB6F894DEBF0FBECDBF7C018C013B
:104A30000D5F1F4FC8010E94B44DC8010E94281C81
:104A4000882309F403C1C80160E677E040E323E46A
:104A500031E00E94684D882309F4F8C080E697E0B1
:104A60000E941E0A6C012FEF8F3F92070CF4EEC0DC
:104A70008091D80790E0C816D9060CF0E7C01A83D9
:104A8000098387E690E0E80EF91E0DC0C8016DE4C9
:104A900071E043E050E00E94A60A009779F00F5FB2
:104AA0001F4F1A83098309811A81D8018C918823A9
:104AB00009F4CCC00E151F0548F3C8C00D5F1F4F89
:104AC0001A8309838E010F5F1F4FC8010E94F110E6
:104AD0008B8BC8010E94F1108B83C8010E94F110DA
:104AE0008C83C8010E94F1109E838D83C8010E94AF
:104AF000F11098878F83C8010E94F1109A878987E7
:104B0000C8010E94F1109C878B87FF24B02EE12EF4
:104B10008E01035F1F4F09C08B2D9E2D0E94F11047
:104B2000F801EF0DF11D8083F39480916C0AF81663
:104B300098F306C0FC01EF0DF11D1082F39402C042
:104B4000CE010D96B5E0BF15A8F78C81823020F01C
:104B5000CE0103960E94A31200D000D000D0EDB782
:104B6000FEB7319601E917E0ADB7BEB712961C93B8
:104B70000E93119783E696E09383828380E790E01B
:104B8000958384830E94E239EDB7FEB736960FB65F
:104B9000F894FEBF0FBEEDBFBE016D5F7F4FFFEF0C
:104BA000CF16FFEFDF06C1F4CB010E94E12400D055
:104BB00000D0ADB7BEB712961C930E93119786E442
:104BC00096E014969C938E9313970E94E2390F906F
:104BD0000F900F900F9022C08C2D0E94CF2400D0F8
:104BE00000D000D0EDB7FEB73196ADB7BEB7129684
:104BF0001C930E93119788E296E093838283089426
:104C0000C11CD11CD582C4820E94E239EDB7FEB727
:104C100036960FB6F894FEBF0FBEEDBF00D000D0A1
:104C200081E997E0ADB7BEB712969C938E9311972A
:104C300087E096E014969C938E9313970E94E23936
:104C400081E00F900F900F900F9001C080E063966D
:104C50000FB6F894DEBF0FBECDBFCF91DF911F918D
:104C60000F91FF90EF90DF90CF90BF900895EF925B
:104C7000FF920F931F93DF93CF93CDB7DEB7A59726
:104C80000FB6F894DEBF0FBECDBF80916A0A86FFD3
:104C900088C06091DD077091DE078091DF079091F9
:104CA000E00720E831E541E050E00E94B56ACA0122
:104CB000B90140E657E02AE030E00E94850B80E62B
:104CC00097E065E371E00E94890A1C861E861B86B8
:104CD0001A868DEA93E099878887ECE0EE2EF12C16
:104CE000EC0EFD1EC70160E677E042E40E9490589A
:104CF0004E8D5F8D68A179A1C7010E94824F8E0100
:104D00000F5F1F4FC80161E571E00E94BC68C801D8
:104D10006091DA070E944D68C80163E571E00E9466
:104D20007968C8016091D9070E944D68C80163E5A0
:104D300071E00E9479686091DB077091DC07C8011F
:104D40000E941F68C80163E571E00E947968409184
:104D5000DD075091DE076091DF077091E007C80121
:104D60000E94ED67C80165E571E00E947968C8019D
:104D700067E571E00E947968C80160E677E040E38A
:104D800050E020E030E00E945D67CE01089660E6CA
:104D900077E00E945360C7010E94EA51C8010E9457
:104DA000D668A5960FB6F894DEBF0FBECDBFCF91E3
:104DB000DF911F910F91FF90EF900895CF93DF93B4
:104DC000EC0180916A0A86FF11C0CE0165E371E0B3
:104DD0000E94890A8DE997E0BE010E943E4E882319
:104DE00029F08DE997E0BE010E943A4EDF91CF9104
:104DF0000895CF93DF93EC012396CE010E94B44D2A
:104E0000CE010E94281C8823D9F1CE0160E677E00C
:104E100040E32AE531E00E94684D882389F180E66D
:104E200097E00E94DE262DB73EB7285030400FB6DF
:104E3000F8943EBF0FBE2DBFEDB7FEB7319681E9A6
:104E400097E0ADB7BEB712969C938E9311978CE105
:104E500092E09383828380E790E09583848382EB62
:104E600091E0978386830E94E23981E02DB73EB7B7
:104E7000285F3F4F0FB6F8943EBF0FBE2DBF01C055
:104E800080E0DF91CF9108950E94BD440E94674960
:104E9000A1E6B9E080E090E0FC01EF51F84F10820C
:104EA000118212821382FC01EF55F74F108211829A
:104EB000128213821D920496803C910569F7089531
:104EC0004F925F926F927F928F929F92AF92BF921A
:104ED000CF92DF92EF92FF920F931F93DF93CF93C6
:104EE000CDB7DEB7E5970FB6F894DEBF0FBECDBFE6
:104EF000A3E0AA2EB12CA80EB91EC5010E94281C41
:104F0000882309F43CC15090540240905B020DE4A8
:104F100012E0EE24CC24DD244E010894811C911C67
:104F2000F2E06F2E712C6C0E7D1E2C2D9D2DD80164
:104F300016968C91169781FF3BC011968C91119714
:104F4000813009F41C92D401E9E5F3E085E0019099
:104F50000D928150E1F7822FB3014AE050E00E94A8
:104F6000470BC50160E677E040E394010E94684D7D
:104F70008823F1F0F801F180F1E0FF1619F4D8016F
:104F8000FC9216C080E697E00E941E0A9C01B4E1E4
:104F9000CB1611F4245C3F4F37FD08C08F2D90E0F5
:104FA000821793071CF0F801208302C0EE24E394DB
:104FB0000894C11CD11C095F1F4FF3E2CF16D10426
:104FC00009F0B3CFC50160E677E040E32EE531E0BC
:104FD0000E94684D882351F080E697E00E94B44D0E
:104FE00080E690E060E677E00E940D45C50160E64E
:104FF00077E040E322E631E00E94684D8823F1F03B
:1050000080E697E00E94B44D80E697E00E943C0A5B
:10501000162F072FF82ED92E0E944427612F702FAC
:105020008F2D9D2D0E94BC4180916A0A85FF06C08C
:10503000612F702F8F2D9D2D0E94BC43EE2089F093
:1050400000D000D000D0EDB7FEB7319681E997E0EF
:10505000ADB7BEB712969C938E93119781E393E000
:10506000B5C00E94E944C50160E677E040E326E66A
:1050700031E00E94684D882309F444C08E010A5F24
:105080001F4FC501B80140E32AE631E00E94684D98
:10509000882309F48BC080E697E0B80140E150E036
:1050A0000E94A60A009709F081C080E490E060E6C3
:1050B00077E00E940D452DB73EB7285030400FB61F
:1050C000F8943EBF0FBE2DBFEDB7FEB7319681E914
:1050D00097E0ADB7BEB712969C938E93119789E077
:1050E00093E09383828380E790E09583848382EBCF
:1050F00091E0978386830E94E23981E0EDB7FEB7A5
:10510000389670C02DB73EB7285030400FB6F8948F
:105110003EBF0FBE2DBFEDB7FEB7319681E997E0D8
:10512000ADB7BEB712969C938E9311978FE892E01D
:105130009383828380E790E09583848382EB91E080
:10514000978386830E94E239EDB7FEB738960FB693
:10515000F894FEBF0FBEEDBF80915402851531F467
:10516000442061F480915B02882341F010929907FA
:1051700010929A0710929B0710929C0781E0E59687
:105180000FB6F894DEBF0FBECDBFCF91DF911F9158
:105190000F91FF90EF90DF90CF90BF90AF909F90D6
:1051A0008F907F906F905F904F90089500D000D0C7
:1051B00000D0EDB7FEB7319681E997E0ADB7BEB745
:1051C00012969C938E9311978BEB92E0938382833C
:1051D00080E790E0958384830E94E23981E0EDB717
:1051E000FEB736960FB6F894FEBF0FBEEDBFC7CF21
:1051F000EF92FF920F931F93CF93DF93EC012396CF
:10520000CE010E94281C882309F407C1CE0160E664
:1052100077E040E32EE631E00E94684D882311F0EC
:105220000E944427CE0160E677E040E322E731E0C8
:105230000E94684D882309F44CC080E697E00E94E4
:105240001E0A181619060CF044C02DB73EB7285098
:1052500030400FB6F8943EBF0FBE2DBFEDB7FEB77E
:10526000319601E917E0ADB7BEB712961C930E93C5
:1052700011978CEB93E09383828380E790E0958392
:10528000848384E190E0978386830E94E2390F90C3
:105290000F900F900F90EDB7FEB7128301838FEA46
:1052A00093E0948383830E94E2390F900F900F90D4
:1052B0000F908091970790919807209195073091D2
:1052C0009607821B930B61E140E00E94BF340E946D
:1052D0001644CE0160E677E040E326E731E00E9425
:1052E000684D882399F080916007813339F480916B
:1052F0006A0A80FD0BC00E94CE4908C0803331F499
:1053000080916A0A80FF02C00E94C449CE0160E613
:1053100077E040E329E731E00E94684D8823E9F017
:1053200080916007813351F480916A0A84FD15C031
:105330000E94442780916A0A80610BC0803369F41F
:1053400080916A0A84FF09C00E94442780916A0AFA
:105350008F7E80936A0A0E940849CE0160E677E05A
:1053600040E32CE731E00E94684D882351F180E64C
:1053700097E00E941E0AEC0118161906F4F40E9428
:10538000E9417B018C01BE01882777FD8095982F2C
:1053900020E13EE040E050E00E94636AE60EF71E26
:1053A000081F191FE092800AF092810A0093820A76
:1053B0001093830A0E94BA4904C0009771F50E94B5
:1053C000A8492DB73EB7285030400FB6F8943EBFDD
:1053D0000FBE2DBFEDB7FEB7319681E997E0ADB7AF
:1053E000BEB712969C938E93119782EA93E09383B3
:1053F000828380E790E09583848382EB91E09783BA
:1054000086830E94E23981E0EDB7FEB738960FB689
:10541000F894FEBF0FBEEDBF01C080E0DF91CF91D9
:105420001F910F91FF90EF900895BF92CF92DF925E
:10543000EF92FF920F931F93DF93CF9300D0CDB7DE
:10544000DEB77C018C010D5F1F4FC8010E94B44D77
:10545000C8010E94281C882309F4A0C01A8309836C
:1054600027E630E0E20EF31E0DC0C8016FE771E0E1
:1054700043E050E00E94A60A009779F00F5F1F4FAB
:105480001A83098309811A81D8018C91882309F430
:1054900085C00E151F0548F381C00D5F1F4F1A838D
:1054A00009830E944427FF2400E014E0EE246E01EB
:1054B0000894C11CD11C8EEFB82E37C0C6010E94C3
:1054C000F110F999FECF1FBA12BD01BD90BD0FB604
:1054D000F894FA9AF99A0FBEF999FECF1FBA0F5FA6
:1054E0001F4F12BD01BD0150104080BD0FB6F89492
:1054F000FA9AF99A0FBE0097A9F02F2D30E0F90122
:10550000EE0FFF1FEE0FFF1FEF55F74FA0E0B0E0CB
:1055100080839183A283B3832F59364FF901B082E0
:10552000EE24E394F3940E5F1F4F80916D0AF816FA
:1055300008F4C4CFEE2031F00E94E9414091BD0251
:105540000E941E0C2DB73EB7285030400FB6F8947D
:105550003EBF0FBE2DBFEDB7FEB7319681E997E094
:10556000ADB7BEB712969C938E9311978FEE97E0CE
:105570009383828380E790E09583848382EB91E03C
:10558000978386830E94E23981E0EDB7FEB73896B3
:105590000FB6F894FEBF0FBEEDBF01C080E00F90C4
:1055A0000F90CF91DF911F910F91FF90EF90DF90BF
:1055B000CF90BF9008952F923F924F925F926F923B
:1055C0007F928F929F92AF92BF92CF92DF92EF9293
:1055D000FF920F931F93DF93CF9300D000D0CDB7EE
:1055E000DEB71091CB0290916A0A292F21702A838D
:1055F000892E82944FE0842231E0832291FD0CC0F9
:105600008091E002882311F4EE2408C0E92EE6948C
:10561000E69441E0E42211F0EE24E3940E94E94193
:105620005B016C019924212E3324A7C0892D90E0C1
:10563000FC01E658F54F3081FC01E259F54F20811D
:10564000A92DAA0FAA0FAA0FA98300E010E0422EED
:105650005524632E7724882009F088C0F980F00E45
:10566000EF2DF0E0FC83EB83EF59F64FE081EE3F46
:1056700009F47CC0FA81FF2361F0EE2009F476C0C2
:10568000C301002E02C0959587950A94E2F780FD2C
:105690006DC0C201002E02C0959587950A94E2F76D
:1056A00080FF49C08F2D60E00E9499448B819C81CE
:1056B00001962816390621F1F092D907EB81FC8179
:1056C000EF59F64F80818093DA07EB81FC81EE0F72
:1056D000FF1FEE0FFF1FEF51F84F80819181950161
:1056E000281B390B3093DC072093DB07A092DD07E2
:1056F000B092DE07C092DF07D092E0070E94372603
:10570000EB81FC81EE0FFF1FEE0FFF1FDF01AF519A
:10571000B84F1D921D921D921C921397EF55F74F93
:1057200010821182128213828B819C818F59964F35
:10573000DC011C921BC0EE23C9F0EB81FC81EE0F53
:10574000FF1FEE0FFF1FDF01AF51B84F1D921D92DB
:105750001D921C921397EF55F74F108211821282FF
:105760001382EB81FC81EF59F64F10820F5F1F4FC0
:105770000830110509F06FCF939480916C0A981648
:1057800008F454CF0F900F900F900F90CF91DF91AE
:105790001F910F91FF90EF90DF90CF90BF90AF904F
:1057A0009F908F907F906F905F904F903F902F9041
:1057B0000895EF92FF920F931F939B01AC0180918C
:1057C0005B02882309F443C080916B0A82958F7035
:1057D00009F03DC080916A0A83FD39C08091990724
:1057E00090919A07A0919B07B0919C070097A10503
:1057F000B10569F079018A01E81AF90A0A0B1B0B55
:10580000D801C70181589145A140B04000F12093D3
:10581000990730939A0740939B0750939C078BE717
:105820009BE061E00E942E460E945D0F7B018C018F
:10583000611571058105910551F00E94BC4180916F
:105840006A0A85FF04C0C801B7010E94BC431F91CA
:105850000F91FF90EF900895AF92BF92CF92DF9299
:10586000EF92FF920F931F935B016C01E0909109FF
:10587000F09092090091930910919409E114F104B8
:105880000105110549F46093910970939209809381
:105890009309909394099AC080916A0A83FD96C0F7
:1058A00080916B0A82958F7021E030E002C0220F58
:1058B000331F8A95E2F7442737FD4095542FD601D0
:1058C000C5018E199F09A00BB10B7C018D01DA0176
:1058D000C90164E0880F991FAA1FBB1F6A95D1F701
:1058E000821B930BA40BB50B8E159F05A007B10768
:1058F00008F06CC085E59AE06FE041E00E94A03EB0
:1059000085E59AE064E00E94523EA0929109B0922F
:105910009209C0929309D09294098AEE99E00E946C
:10592000A0360E9435647B018C010E94D9310E940F
:10593000ED368AEE99E00E946139882361F40E9475
:1059400035646E197F09800B910B683C71058105E8
:10595000910558F328C080916B0A8F7002C08F7038
:10596000806680936B0A80916B0A82958F7090E0BD
:10597000039764F18091AF02882341F18BE69BE0AD
:1059800060E00E942E466091DA037091DB0387ECA1
:1059900091E00E940F4D8823C9F080916B0A8F70AF
:1059A00080936B0A13C080916B0A282F22952F7069
:1059B0002F5F2F70922F9295907F8F70892B8093FD
:1059C0006B0A30E02730310554F6CDCF1F910F918F
:1059D000FF90EF90DF90CF90BF90AF90089584B785
:1059E000877F84BF8091600088618093600081E23E
:1059F00080936000809160008064809360000E94CA
:105A0000DD4B0E942A4A0E94C30C9091A80280E0BC
:105A10002091A102820F911D9093DB038093DA0302
:105A20006CE370E080E090E00E94B34180916A0AEC
:105A300085FD03C080E090E002C08CED93E40E94FD
:105A40005C4264EF71E080E090E00E94436480E09B
:105A50000E94934B88E99BE061E00E942E468DE90D
:105A600097E060E044E00E945D4E882329F0809139
:105A70006A0A806480936A0A8AE89BE061E00E9477
:105A80002E466091DA037091DB0387EC91E00E946F
:105A90000F4D882321F080916B0A8F7004C0809194
:105AA0006B0A8F70806180936B0A64EF71E080E015
:105AB00090E00E9443640E9467490E94E94160931C
:105AC000840A7093850A8093860A9093870A0895C2
:105AD0001F93CF93DF9382E00E949F45182FC82F1A
