:100000000C9440080C9468080C9468080C946808D8
:100010000C9468080C9468080C9468080C946808A0
:100020000C94110C0C9468080C9468080C946808E3
:100030000C9468080C9468080C9468080C94680880
:100040000C9468080C9468080C948B680C946808ED
:100050000C9497690C94DE690C9468080C946808F9
:100060000C9468080C9468080C9474650C946808E7
:10007000485454502F312E3020323030204F4B0D09
:100080000A436F6E74656E742D547970653A2074EE
:100090006578742F68746D6C0D0A507261676D61BC
:1000A0003A206E6F2D63616368650D0A4163636575
:1000B00073732D436F6E74726F6C2D416C6C6F7720
:1000C0002D4F726967696E3A202A0D0A0D0A0048A1
:1000D0005454502F312E3020323030204F4B0D0AE7
:1000E000436F6E74656E742D547970653A2061703B
:1000F000706C69636174696F6E2F6A736F6E0D0A3D
:10010000436F6E6E6E656374696F6E3A20636C6FD9
:1001100073650D0A4163636573732D436F6E74726B
:100120006F6C2D416C6C6F772D4F726967696E3AF9
:10013000202A0D0A0D0A003C6D657461206E616D08
:10014000653D2276696577706F72742220636F6EE9
:1001500074656E743D2277696474683D363430226C
:100160003E0D0A00485454502F312E302034303187
:1001700020556E617574686F72697A65640D0A4303
:100180006F6E74656E742D547970653A207465785D
:10019000742F68746D6C0D0A0D0A3C68313E343062
:1001A0003120556E617574686F72697A65643C2F91
:1001B00068313E0077696E646F772E6C6F6361748F
:1001C000696F6E3D222F223B3C2F736372697074FE
:1001D0003E0A006376007670006D70006470006304
:1001E0007000677000766F00636F00736E0070734D
:1001F000007673006373007672006372006A6F00AA
:100200006A6E006A70006A63006A73006A6C006458
:100210006C007375006375007370002446002446FB
:100220000024463C7363726970743E2446005D008E
:100230002C24530024530024465B0024440024460D
:100240000024463C6D65746120687474702D65717E
:100250007569763D22726566726573682220636FE8
:100260006E74656E743D22313B2075726C3D2F2299
:100270003E005D2C226E73746174696F6E73223A56
:1002800024447D002C002444007B22736E223A5BC0
:100290000024460024467B22726573756C74223AF2
:1002A00024447D0024467B22726573756C74223A67
:1002B00024447D0024467B22726573756C74223A57
:1002C00024447D0024463C7363726970743E616C03
:1002D00065727428224F7074696F6E732076616C3A
:1002E0007565732073617665642E22293B24460070
:1002F00024463C7363726970743E616C6572742845
:100300002256616C756573206F7574206F6620626C
:100310006F756E642122293B77696E646F772E6C4E
:100320006F636174696F6E3D222F766F223B3C2FA5
:100330007363726970743E0A0024463C7363726989
:1003400070743E616C6572742822536372697074B4
:100350002075726C2073617665642E22293B2446D9
:100360000024463C7363726970743E2446005265F3
:10037000626F6F74696E672E2E2E0024463C6D6589
:10038000746120687474702D65717569763D227290
:100390006566726573682220636F6E74656E743D66
:1003A0002224443B2075726C3D2F223E003C736337
:1003B00072697074207372633D2224452F766965DB
:1003C000776F702E6A73223E3C2F7363726970746C
:1003D0003E0A003C2F7363726970743E0A00305D00
:1003E0003B766172206E6F7074733D24442C6C6F89
:1003F000633D222445222C646576743D244C2C7484
:100400007A3D24442C646578703D24442C6D6578D5
:10041000703D24443B00222446222C24442C2444B6
:100420002C24442C003C7363726970743E766172B4
:10043000206F7074733D5B0024462446002C2264B8
:10044000657870223A24442C226D657870223A2413
:10045000447D002C00222446223A2444007B0024C0
:1004600046003C736372697074207372633D22248A
:10047000452F686F6D652E6A73223E3C2F73637241
:100480006970743E0A3C2F626F64793E0A3C2F68A3
:10049000746D6C3E000A766172206C72756E3D5B05
:1004A00024442C24442C24442C244C5D3C2F736382
:1004B000726970743E0A005B302C305D5D3B0A76D9
:1004C000617220656E3D24442C72643D24442C727C
:1004D000733D24442C6D6D3D24442C726473743D33
:1004E000244C2C6D61733D24442C7572733D24445F
:1004F0002C776C3D24442C697061733D24442C6C32
:100500006F633D222445223B005B24442C244C5D38
:100510002C00305D3B7661722070733D5B0024449B
:100520002C00766172206E6272643D24442C747AD1
:100530003D24442C73626974733D5B0076617220C4
:100540007665723D24442C646576743D244C3B0AE8
:100550000024463C21444F43545950452068746D53
:100560006C3E0A3C68746D6C3E0A3C686561643E92
:100570000A24463C2F686561643E0A3C626F6479D8
:100580003E0A3C7363726970743E005D7D002C000E
:100590002444005B302C305D5D2C226C72756E2221
:1005A0003A5B24442C24442C24442C244C5D2C22DF
:1005B000726F647572223A5B005B24442C244C5D9C
:1005C0002C00305D2C227073223A5B0024442C00F6
:1005D0007B2264657674223A244C2C226E6272640B
:1005E000223A24442C22656E223A24442C2272643E
:1005F000223A24442C227273223A24442C226D6D18
:10060000223A24442C2272647374223A244C2C2201
:100610006C6F63223A222445222C22736269747320
:10062000223A5B0024460077696E646F772E6C6F08
:10063000636174696F6E3D222F7670223B3C2F738D
:1006400063726970743E0A00616C6572742822508E
:10065000726F6772616D202444206D6F64696669F2
:10066000656422293B00616C65727428224E6577AF
:100670002070726F6772616D2061646465642E2200
:10068000293B0024463C7363726970743E003C73DE
:100690006372697074207372633D2224452F706CFD
:1006A0006F7470726F672E6A73223E3C2F73637291
:1006B0006970743E0A00305D3B0024442C00766172
:1006C00072206D61736F703D5B007661722073659F
:1006D000713D24442C6D61733D24442C776C3D2482
:1006E000442C7364743D24442C6D746F6E3D24441B
:1006F0002C6D746F66663D24442C64657664617964
:100700003D24442C6465766D696E3D24442C6464FC
:100710003D24442C6D6D3D24442C79793D24443B8B
:100720000024463C7363726970743E0024463C7337
:1007300063726970743E77696E646F772E6C6F6355
:100740006174696F6E3D222F7670223B3C2F73637C
:10075000726970743E0A003C2F7363726970743E54
:100760000A3C736372697074207372633D2224457E
:100770002F6D6F6470726F672E6A73223E3C2F7309
:1007800063726970743E0A005D3B002C244400765D
:1007900061722070726F673D5B24442C24442C24CA
:1007A000442C24442C24442C24442C2444007661DE
:1007B00072206E626F617264733D24442C706964B0
:1007C0003D24442C697061733D24443B002446243D
:1007D000463C7363726970743E003C736372697067
:1007E00074207372633D2224452F76696577707299
:1007F0006F672E6A73223E3C2F7363726970743E7A
:100800000A00244624463C7363726970743E0024D7
:10081000463C7363726970743E2446003C73637295
:10082000697074207372633D2224452F7669657761
:10083000726F2E6A73223E3C2F7363726970743E2E
:100840000A00305D3B3C2F7363726970743E0A008E
:1008500024442C00766172206E626F617264733D75
:1008600024442C6D61733D24442C697061733D24D4
:10087000442C6475723D5B00244624463C736372CD
:100880006970743E005D7D005D005D2C002C244489
:10089000005B24442C24442C24442C24442C244445
:1008A0002C24442C2444007B226E70726F677322C8
:1008B0003A24442C226E626F61726473223A24449B
:1008C0002C226D6E70223A24442C227064223A5BF2
:1008D000002446003C6872202F3E3C666F726D20FB
:1008E0006E616D653D6F6620616374696F6E3D6317
:1008F00075206D6574686F643D6765743E3C703E3D
:100900003C623E4A6176617363726970742055522D
:100910004C3A3C2F623E203C696E707574207479AD
:1009200070653D746578742073697A653D33322053
:100930006D61786C656E6774683D31323720766121
:100940006C75653D22244522206E616D653D6A739C
:10095000703E3C2F703E3C703E5365742055524CA7
:10096000207768657265204A617661736372697089
:100970007473206172652073746F7265642E2044F5
:10098000656661756C742069732024533C62722023
:100990002F3E4966206C6F63616C206F6E2075532B
:1009A0004420636172642C20757365202E202869B1
:1009B0002E652E20646F74293C2F703E3C703E3CA7
:1009C000623E50617373776F72643A3C2F623E3CB3
:1009D000696E70757420747970653D70617373779A
:1009E0006F72642073697A653D3130206E616D6588
:1009F0003D70773E3C696E70757420747970653D0A
:100A00007375626D69743E3C2F703E3C6872202F96
:100A10003E3C2F666F726D3E002446003C2F736390
:100A2000726970743E0A005D3B002C2444007064BF
:100A30005B24445D3D5B24442C24442C24442C241E
:100A4000442C24442C24442C244400766172206ECF
:100A500070726F67733D24442C6E626F61726473B1
:100A60003D24442C697061733D24442C6D6E703DAF
:100A700024442C70643D5B5D3B0024463C736372F0
:100A80006970743E616C65727428224368616E6798
:100A900065732073617665642E22293B2446002706
:100AA000275D3B00272453272C0076617220736E4C
:100AB000616D65733D5B00305D3B3C2F7363726914
:100AC00070743E0A3C736372697074207372633D84
:100AD0002224452F76696577736E2E6A73223E3C19
:100AE0002F7363726970743E0A0024442C00305DD9
:100AF0003B7661722061723D5B0024442C00305DC6
:100B00003B7661722069723D5B0024442C00766163
:100B100072206D61736F703D5B00766172206E6252
:100B20006F617264733D24442C6D61786C656E3D19
:100B300024442C6D61733D24442C697061733D2401
:100B4000443B0024463C7363726970743E005D2C24
:100B5000226D61786C656E223A24447D002C00245D
:100B600044005D2C226163745F72656C6179223A86
:100B70005B002C002444005D2C2269676E6F726557
:100B80005F7261696E223A5B002C002444005D2C88
:100B9000226D61736F70223A5B002C002224532275
:100BA000007B22736E616D6573223A5B0024460000
:100BB0004E54502053796E63696E672E2E2E00447A
:100BC0006574656374696E67207553442E2E2E001C
:100BD00000010800060400014500008200004000FA
:100BE0002000504F535420244620485454502F3155
:100BF0002E300D0A486F73743A2024460D0A24469D
:100C000024534163636570743A202A2F2A0D0A43E6
:100C10006F6E74656E742D4C656E6774683A20242F
:100C2000440D0A436F6E74656E742D547970653A85
:100C3000206170706C69636174696F6E2F782D77B5
:100C400077772D666F726D2D75726C656E636F644C
:100C500065640D0A0D0A2453004745542024462498
:100C60005320485454502F312E300D0A486F73745E
:100C70003A2024460D0A24460D0A0D0A00416363FA
:100C80006570743A20746578742F68746D6C00E335
:100C90000004FA00010000000166777600747A0013
:100CA0006E7470006468637000697031006970323E
:100CB00000697033006970340067773100677732FC
:100CC00000677733006777340068703000687031F0
:100CD000006172006578740073657100736474005C
:100CE0006D6173006D746F6E006D746F6600757268
:100CF000730072736F00776C0073747400697061B5
:100D00007300646576696400636F6E006C697400DB
:100D100064696D00726C70006E747031006E747076
:100D200032006E747033006E7470340072657365D7
:100D300074004669726D77617265207665722E0067
:100D400054696D65207A6F6E653A004E5450207379
:100D5000796E633F0055736520444843503F00530C
:100D600074617469632E6970313A005374617469F7
:100D7000632E6970323A005374617469632E69702E
:100D8000333A005374617469632E6970343A0047D2
:100D90006174657761792E6970313A0047617465D5
:100DA0007761792E6970323A0047617465776179AD
:100DB0002E6970333A00476174657761792E6970E6
:100DC000343A004854545020706F72743A00004115
:100DD00075746F207265636F6E6E6563743F002378
:100DE000206F66206578702E20626F6172643A0011
:100DF00053657175656E7469616C206D6F64653FD4
:100E00000053746174696F6E2064656C61793A0097
:100E10004D61737465722073746174696F6E3A000A
:100E20004D617374657220206F6E2061646A2E3A82
:100E3000004D6173746572206F66662061646A2E6E
:100E40003A00557365207261696E2073656E736F29
:100E5000723A004E6F726D616C6C79206F70656EC6
:100E60003F00252057617465722074696D653A00F2
:100E700053656C66746573742074696D653A0049D6
:100E8000676E6F72652070617373776F72643F0075
:100E90004465766963652049443A004C43442043E5
:100EA0006F6E74726173743A004C43442042616304
:100EB0006B6C696768743A004C43442044696D6DFB
:100EC000696E673A0052656C61792050756C736584
:100ED0003A004E5450207365727665722E697031F7
:100EE0003A004E5450207365727665722E697032E6
:100EF0003A004E5450207365727665722E697033D5
:100F00003A004E5450207365727665722E697034C3
:100F10003A00526573657420616C6C3F004D6F6ED2
:100F20000054756500576564005468750046726921
:100F3000005361740053756E00206D696E0020735C
:100F400065630025004E6F00596573002B002B0070
:100F500020474D54003030003A002D002B00002077
:100F6000202020002D44697361626C6564212D008E
:100F70003A0045004D433A003A002E002D00200073
:100F80002020003A00200042333A686F6C642074DD
:100F90006F20736176650042333A73656C2042318D
:100FA0002F42323A636867003D3D536574204F70AD
:100FB00074696F6E733D3D00506C656173652057B9
:100FC0006169742E2E2E00526573657474696E67A4
:100FD00020454550524F4D00436F6E6E65637469F6
:100FE0006E672E2E2E007C3C3E5E2B3D3F2F5B5DC0
:100FF0003B2C2A225C0000002100240027002A004C
:1010000000002200250028002B0000002000230003
:101010002600290002020202020202020404040461
:101020000404040403030303030303030101010194
:10103000010101010102040810204080010204089E
:1010400010204080010204081020408080402010C1
:10105000080402010000000102000000000000007E
:10106000040307060000000000000000000000006C
:1010700000000000180D74382742E2551064BE6A63
:1010800011241FBECFEFD0E1DEBFCDBF13E0A0E043
:10109000B1E0E0E0FDED02C005900D92A63FB10782
:1010A000D9F71EE0A6EFB3E001C01D92A434B1074A
:1010B000E1F710E1C0E8D0E104C02297FE010E94F0
:1010C000436EC437D107C9F70E940B6C0C947E6E37
:1010D0000C940000CF93DF93BC018230910510F493
:1010E00062E070E0A091420EB091430EED0140E04D
:1010F00050E0E0E0F0E021C08881998186179707F1
:1011000069F48A819B81309719F09383828304C0AC
:101110009093430E8093420EFE0134C06817790706
:1011200038F44115510519F08417950708F4AC01FE
:10113000FE018A819B819C01E9012097E9F6411516
:101140005105A9F1CA01861B970B049708F4BA014F
:10115000E0E0F0E02AC08D919C91119784179507EB
:10116000F9F46417750781F412968D919C91139789
:10117000309719F09383828304C09093430E809339
:10118000420EFD0132964CC0CA01861B970BFD0131
:10119000E80FF91F6193719302978D939C9340C060
:1011A000FD01828193819C01D9011097A1F6809164
:1011B000400E9091410E892B41F48091D401909181
:1011C000D5019093410E8093400E4091D6015091ED
:1011D000D7014115510541F44DB75EB78091D20159
:1011E0009091D301481B590B2091400E3091410E34
:1011F000CA01821B930B8617970780F0AB014E5FE5
:101200005F4F8417950750F0420F531F5093410EC4
:101210004093400EF9016193719302C0E0E0F0E069
:10122000CF01DF91CF910895CF93DF93009709F419
:1012300050C0EC0122971B821A82A091420EB091FD
:10124000430E109709F140E050E0AC17BD0708F1DC
:10125000BB83AA83FE0121913191E20FF31FAE17E8
:10126000BF0779F48D919C911197280F391F2E5F3C
:101270003F4F3983288312968D919C9113979B83BE
:101280008A834115510571F4D093430EC093420EE9
:1012900020C012968D919C911397AD01009711F08B
:1012A000DC01D3CFFA01D383C28321913191E20FC4
:1012B000F31FCE17DF0769F488819981280F391F42
:1012C0002E5F3F4FFA01318320838A819B81938374
:1012D0008283DF91CF910895A0E0B0E0E2E7F9E0EA
:1012E0000C94496E6C01009729F4CB010E946A08A6
:1012F0006C01C1C08EEF882E8FEF982E8C0C9D1C38
:101300008601060F171F0815190508F4B2C0F4016D
:10131000A081B181A617B707B8F0A530B10508F4D0
:10132000AAC0CD0104978617970708F4A4C01297A6
:10133000A61BB70BF801A193B193D4016D937C93D5
:10134000CF010E94140997C07B01EA1AFB0AEEEF55
:10135000FFEFEE0EFF1E36016A0E7B1EC091420E9D
:10136000D091430EAA24BB24442455244AC0C61558
:10137000D705E1F5488159814E155F05B8F1CA01DD
:1013800004978E159F05B0F41296A40FB51FF401B3
:10139000B183A0832A813B814114510431F0D201F1
:1013A00013963C932E93129766C03093430E20936E
:1013B000420E61C08A819B81F801938382834250EF
:1013C00050404E195F09518340834114510431F05C
:1013D000D20113961C930E93129704C01093430EE0
:1013E0000093420EF4017183608345C08881998126
:1013F000A816B90608F45C012E018A819B819C0124
:10140000E901209709F0B3CF8091400E9091410EF1
:1014100086159705E9F4A616B706D0F42091D601F3
:101420003091D7012115310541F42DB73EB7809198
:10143000D2019091D301281B390B02171307C8F46E
:101440001093410E0093400ED4016D937C9313C012
:10145000CB010E946A08EC01009759F0F401408129
:101460005181B6010E949C0AC6010E9414096E01B6
:1014700002C0CC24DD24C601CDB7DEB7E0E10C9478
:10148000656EFC0188279927E89421912032E9F3C1
:10149000293010F02E30C8F32B3241F02D3239F4C0
:1014A000689404C00E94A00B820F911D21912053CB
:1014B0002A30C0F31EF4909581959F4F08951F9395
:1014C000FC0199278827BC01E89411911032E9F3B7
:1014D000193010F01E30C8F31B3251F01D3249F4A0
:1014E000689406C00E948B0B610F711D811D911DB8
:1014F000119110531A30B0F33EF490958095709589
:1015000061957F4F8F4F9F4F1F910895FB01DC0125
:1015100002C005900D9241505040D8F70895FB014C
:10152000DC0104C08D910190801921F4415050409C
:10153000C8F7881B990B0895FB01DC0102C00190DC
:101540000D9241505040D8F70895DC0101C06D93D1
:1015500041505040E0F70895FB01DC010D90002060
:10156000E9F7119701900D920020E1F70895FC0131
:101570008191861721F08823D9F79927089531970B
:10158000CF010895FB01DC0101900D920020E1F7ED
:101590000895FB01DC014150504030F08D910190E5
:1015A000801919F40020B9F7881B990B0895FB01E5
:1015B000DC014150504048F001900D920020C9F7E5
:1015C00001C01D9241505040E0F70895A0E0B0E006
:1015D000ECEEFAE00C94516E7C01EB018A0169019A
:1015E00009C0CE012196F6010995F70181937F018B
:1015F0000150104001151105A1F7CDB7DEB7E8E0A5
:101600000C946D6EBF92CF92DF92EF92FF920F9388
:101610001F937B018C01FB010995B82EC80101962F
:10162000F7010995C82EC8010296F7010995D82E31
:10163000C8010396F7010995982F6B2D7C2D8D2DF0
:101640001F910F91FF90EF90DF90CF90BF90089582
:10165000A0E0B0E0EEE2FBE00C94516EEC017B0107
:101660008A01690109C0CE012196F70161917F01CC
:10167000F60109950150104001151105A1F7CDB7EC
:10168000DEB7E8E00C946D6EBF92CF92DF92EF92DE
:10169000FF920F931F93D52EC62EB72E79018C0182
:1016A000642FF9010995C80101966D2DF70109957F
:1016B000C80102966C2DF7010995C80103966B2DA0
:1016C000F70109951F910F91FF90EF90DF90CF9058
:1016D000BF900895FB019F01E8944230C4F0453269
:1016E000B4F44A3029F497FB1EF4909581959F4FEE
:1016F000642F77270E94DD6D805D8A330CF0895D51
:101700008193CB010097A1F716F45DE2519310820B
:10171000C9010C94E30B592F482F372F262F660F42
:10172000771F881F991F660F771F881F991F620FE9
:10173000731F841F951F660F771F881F991F0895B9
:101740007AE0979F902D879F802D910D1124089509
:10175000FA01CF93FF93EF932230CCF02532BCF403
:10176000C22F2C2F332744275527FF93EF930E9436
:10177000046EEF91FF91605D6A330CF0695D6193D7
:10178000B901CA01605070408040904051F710820A
:101790008F919F91CF910C94E30BFB019F014230FD
:1017A00074F0453264F4642F77270E94DD6D805D0C
:1017B0008A330CF0895D8193CB010097A1F71082E9
:1017C000C9010C94E30BDC01FC01672F71917723B5
:1017D000E1F7329704C07C916D9370836291AE17EC
:1017E000BF07C8F308959C01F999FECF32BD21BD12
:1017F000F89A80B508959C01F999FECF1FBA32BDC1
:1018000021BD60BD0FB6F894FA9AF99A0FBE0895FB
:10181000FC01A681B7816D93B783A68381E090E038
:1018200008951F920F920FB60F9211242F933F939A
:101830004F935F936F937F938F939F93AF93BF93D8
:10184000EF93FF938091F3078F5F8093F30780916D
:10185000F307803128F0E091F107F091F207099544
:10186000FF91EF91BF91AF919F918F917F916F9178
:101870005F914F913F912F910F900FBE0F901F904E
:101880001895CF92DF92EF92FF920F931F93CF9311
:10189000DF937B018C010894E11CF11C011D111DDB
:1018A000C090760A442361F43091710A36953695DA
:1018B00036953170ADEBB8E0CDEFD7E0DD2471C0E7
:1018C0009091710A9695969596959170CDEBD8E08A
:1018D0006DEF77E0EC2DF0E0EE0FFF1FEE0FFF1F36
:1018E000EC0FFD1F25C0288139814A815B812115BC
:1018F000310541055105C9F0DB01ED92FD920D93D3
:101900001C931397D801C701820F931FA41FB51F03
:1019100088839983AA83BB832091BC027C018D01BB
:10192000E20EF11C011D111D91E024966C5F7F4FAA
:10193000CE17DF07C1F69170990F990F990F80911B
:10194000710A877F892B37C04D915D916D917C9194
:101950001397411551056105710501F1ED2DE695CE
:10196000E695E695F0E0E958F54F808190E02D2D61
:10197000277002C0959587952A95E2F780FD0EC0E5
:10198000E882F9820A831B834E0D5F1D601F711F61
:101990004D935D936D937C93139731E0D39414969C
:1019A0002496DC1488F23170330F330F330F80919B
:1019B000710A877F832B8093710ADF91CF911F91EA
:1019C0000F91FF90EF90DF90CF900895ADE7B9E0D1
:1019D00080E090E0FC01E350F84F10821182128207
:1019E0001382FC01E354F74F10821182128213829A
:1019F0001D920496803C910569F7F999FECF82E724
:101A000094E092BD81BDF89A80B58093F40710925E
:101A1000F5071092F6071092F8071092F707109248
:101A2000F9071092FA071092FB071092FC0708952D
:101A30001092B0071092AF0781E793E09093AE0742
:101A40008093AD0789E18093BA071092BD07109289
:101A5000D0071092D7071092D90708950F931F93BC
:101A6000DF93CF93CDB7DEB76E970FB6F894DEBF96
:101A70000FBECDBF8C0189EB97E0B8010E944551A4
:101A80008823F1F1CE010196B80141E00E94C663BE
:101A90008E010B5F1F4F19C0C8016EE274E040E079
:101AA00052E00E9478599C01442737FD4095542FFD
:101AB000203082E0380780E0480780E05807B0F027
:101AC000C90160E143E00E94D2392F89388D498DE8
:101AD0005A8D8F859889A989BA89281739074A07A5
:101AE0005B07D1F620E030E040E050E0C90161E161
:101AF00043E00E94D239CE0105960E94525981E0FE
:101B00006E960FB6F894DEBF0FBECDBFCF91DF91BA
:101B10001F910F910895AF92BF92DF92EF92FF92C3
:101B20000F931F93CF93DF9300D000D000D0EDB779
:101B3000FEB731960DEA17E0ADB7BEB712961C930B
:101B40000E93119781E992E0938382838FEC90E06A
:101B5000958384830E94E43F0F900F90EDB7FEB70A
:101B60001283018389E892E0948383830E94E43F97
:101B7000FF240F900F900F900F90D02EE12E26E8AB
:101B8000A22E22E0B22EC4E8D2E04FC00F2D10E00A
:101B900000D000D000D0ADB7BEB71196EDB7FEB7FC
:101BA000D182E2821396BC92AE921297F80193E032
:101BB000F595E7959A95E1F7E958F54F808190E022
:101BC00098012770307002C0959587952A95E2F7A5
:101BD0008170907015969C938E9314970E94E43FA9
:101BE0008091760A90E001972DB73EB72A5F3F4F6C
:101BF0000FB6F8943EBF0FBE2DBF08171907A1F00E
:101C000000D000D0ADB7BEB71196DC9211971296F6
:101C1000EC9212971496DC93CE9313970E94E43FB4
:101C20000F900F900F900F90F3942091760AF21678
:101C300008F4ACCF00D000D000D0EDB7FEB731969D
:101C40008DEA97E0ADB7BEB712969C938E9311972D
:101C500082E792E093838283248315820E94E43F8B
:101C6000EDB7FEB736960FB6F894FEBF0FBEEDBFC8
:101C700081E0DF91CF911F910F91FF90EF90DF9066
:101C8000BF90AF9008950F931F9300D000D000D065
:101C9000EDB7FEB731960DEA17E0ADB7BEB71296B5
:101CA0001C930E93119789E19AE09383828380E7D6
:101CB00090E0958384830E94E43F00D0EDB7FEB7A7
:101CC0003196ADB7BEB712961C930E93119784ED63
:101CD00098E09383828380E890E09583848380E01A
:101CE00091E0978386830E94E43F8DB79EB7089664
:101CF0000FB6F8949EBF0FBE8DBF81E01F910F916C
:101D00000895CF92DF92EF92FF920F931F93DF938C
:101D1000CF9300D000D0CDB7DEB70E94D3687B014F
:101D20008C016E010894C11CD11C0E94B44F0E940A
:101D3000003CC6016091DE010E94F8388823E1F082
:101D4000E980FA800B811C8180EC98EDA4E5BCE76A
:101D5000E80EF91E0A1F1B1F60914C0270E080E024
:101D600090E024E833E040E050E00E94B26DE60EDF
:101D7000F71E081F191F0EC00E94D3686E197F0935
:101D8000800B910B685E73408040904070F2EE24AF
:101D9000FF248701B701C8010F900F900F900F909B
:101DA000CF91DF911F910F91FF90EF90DF90CF9037
:101DB0000895EF92FF921F93DF93CF9300D000D04E
:101DC000CDB7DEB780911E038983809125038A8376
:101DD00080912C038B83809133038C8310E07E01F0
:101DE0000894E11CF11C6091DE016F5F6093DE01DD
:101DF000C7010E94623B6AEF70E080E090E00E94C1
:101E0000E1680E94810E9B01AC016115710581059D
:101E1000910519F41F5F143131F7B901CA010F9010
:101E20000F900F900F90CF91DF911F91FF90EF9047
:101E300008952F923F925F926F927F928F929F921E
:101E4000AF92BF92CF92DF92EF92FF920F931F93C8
:101E5000DF93CF93CDB7DEB76E970FB6F894DEBFA2
:101E60000FBECDBF6C018091710A86FF1DC1C601F6
:101E70006CE777E040E32BE231E00E948F3E88235D
:101E800009F412C18CE797E00E945F0A7B018C0184
:101E9000C6016CE777E040E321E331E00E948F3E2A
:101EA000882309F401C1C801B70120E831E541E008
:101EB00050E00E94266E69017A0189018CE797E063
:101EC0000E945F0A20E831E541E050E00E94266E62
:101ED00059012C153D0508F4E7C0025F1F4F02179A
:101EE000130708F4E1C000D000D000D0EDB7FEB772
:101EF00031960DEA17E0ADB7BEB712961C930E935C
:101F0000119787E392E0938382838FEC90E095832F
:101F100084830E94E43FEE24FF2477247394EDB77A
:101F2000FEB736960FB6F894FEBF0FBEEDBF4CE776
:101F3000242E47E0342E35E0832E912C8C0E9D1EEE
:101F4000502E612E0EE214E097C0C6016CE777E0D8
:101F50004AE050E00E946A0B8CE797E065E371E08D
:101F60000E94AC0A89EB97E06CE777E00E9445514C
:101F7000882309F47EC01D821F821C821B8281ED92
:101F800093E09A838983C4016CE777E041E00E9483
:101F9000F85F01C07724C4016CE777E04FE250E0BE
:101FA00020E030E00E94155B1816190624F0C401E9
:101FB0000E9452595EC0FC01E558F84F80818A307A
:101FC00009F41082772081F000D000D000D0EDB766
:101FD000FEB73196ADB7BEB711965C9211971296C7
:101FE0006C9284E392E00FC000D000D000D0EDB737
:101FF000FEB73196ADB7BEB711965C9211971296A7
:102000006C9280E392E093838283358224820E94E3
:10201000E43FADB7BEB716960FB6F894BEBF0FBE7D
:10202000ADBF0894E11CF11CC70169E170E00E949A
:10203000F16D892B09F0AECF8091B3079091B40771
:102040002091B1073091B207821B930B60E140E011
:102050000E94D2391092B0071092AF071093B207C6
:102060000093B1071093B4070093B307EE24FF2445
:1020700091CF0894C11CD11CAC14BD0408F065CFED
:1020800000D000D08DEA97E0EDB7FEB79283818350
:102090008EE292E0948383830E94E43F81E00F907C
:1020A0000F900F900F9001C080E06E960FB6F894DD
:1020B000DEBF0FBECDBFCF91DF911F910F91FF907B
:1020C000EF90DF90CF90BF90AF909F908F907F90D8
:1020D0006F905F903F902F900895CF93DF939C0176
:1020E00010927C07FC01A081B181C0E0D0E00FC05C
:1020F0009C919D3231F09B3221F0892F80538A30A0
:1021000068F4FE01E458F84F908321961196F90186
:10211000808191810A96A817B90750F3C458D84F07
:1021200018821196F901B183A0838CE797E00E9491
:10213000410ADF91CF9108954F925F926F927F9203
:102140008F929F92AF92BF92CF92DF92EF92FF92C7
:102150000F931F93DF93CF930F92CDB7DEB70E94FB
:1021600061365B016C0100D000D000D0EDB7FEB746
:1021700031960DEA17E0ADB7BEB712961C930E93D9
:10218000119784E296E0938382838FEC90E09583AD
:1021900084830E94E43FEDB7FEB772970FB6F894C0
:1021A000FEBF0FBEEDBF3196ADB7BEB712961C9302
:1021B0000E93119780ED95E093838283A482B5827C
:1021C000C682D7828091750A808711868091710AB4
:1021D0008170828713868091710A869581708487C9
:1021E00015868091710A86958695817086871786F7
:1021F0008091710A82958170808B118A80918F0AFB
:102200009091900AA091910AB091920A828B938B3F
:10221000A48BB58B80E690E0978B868B0E94E43F81
:1022200090E0EDB7FEB778960FB6F894FEBF0FBEFC
:10223000EDBF78010CEC15E023C000D000D000D039
:10224000EDB7FEB73196ADB7BEB71196EC921197C8
:102250001296FC9213830283A92FB0E0A958B54FC0
:102260008C918483158299830E94E43F99819F5FBA
:10227000EDB7FEB736960FB6F894FEBF0FBEEDBFB2
:102280008091750ABDEA6B2EB7E07B2E9817A8F2F5
:1022900000D000D0ADB7BEB712967C926E92119767
:1022A00082EC95E014969C938E9313970E94E43FE2
:1022B00099240F900F900F900F90C301762C892EC8
:1022C000A9EB4A2EA5E05A2E66C0A92DB0E0FD016B
:1022D000E358F64F60816623A9F1CD01880F991F5D
:1022E000880F991FFC01E350F84FE080F1800281D4
:1022F0001381FC01E354F74FAE14BF04C006D106AE
:1023000048F020813181428153812A193B094C09CF
:102310005D0908C020813181428153812E193F0916
:10232000400B510BAA0FBB1FAA0FBB1FA354B74FE3
:102330008D919D910D90BC91A02D8E5F9F4FAF4FC1
:10234000BF4F21F420E030E040E050E08DB79EB771
:102350000A970FB6F8949EBF0FBE8DBFEDB7FEB7BC
:102360003196ADB7BEB711967C92119712968C92AA
:102370005382428264831582268337834087518744
:102380000E94E43F9394EDB7FEB73A960FB6F894E7
:10239000FEBF0FBEEDBF8091760A981608F495CF68
:1023A0002DB73EB72E5030400FB6F8943EBF0FBE4B
:1023B0002DBFEDB7FEB731960DEA17E0ADB7BEB74A
:1023C00012961C930E93119783E995E09383828371
:1023D0008091F507848315828091F60786831782A2
:1023E0008091F7079091F807918780878091F9078E
:1023F0009091FA07A091FB07B091FC078287938721
:10240000A487B5870E94E43FFF24612C74E0772EF7
:10241000EDB7FEB73E960FB6F894FEBF0FBEEDBF08
:10242000D02EE12E60E9862E65E0962E5EE8A52E80
:1024300055E0B52E55C0F999FECF72BC61BCF89A33
:1024400090B5F999FECF0894611C711C72BC61BCF7
:10245000089461087108F89A80B5192F00E000D03F
:1024600000D000D0EDB7FEB73196ADB7BEB711962C
:10247000DC9211971296EC92938282829801280F37
:10248000311D358324830E94E43F2F2D30E080915D
:10249000760A90E001974DB75EB74A5F5F4F0FB67F
:1024A000F8945EBF0FBE4DBF28173907A1F000D0CA
:1024B00000D0ADB7BEB71196DC9211971296EC9290
:1024C00012971496BC92AE9213970E94E43F0F901D
:1024D0000F900F900F90F394E2E0F0E06E0E7F1EED
:1024E0008091760AF81608F4A6CF00D000D08DEAC5
:1024F00097E0ADB7BEB712969C938E9311978BE879
:1025000095E014969C938E9313970E94E43F81E08C
:102510000F900F900F900F900F90CF91DF911F9120
:102520000F91FF90EF90DF90CF90BF90AF909F9072
:102530008F907F906F905F904F900895BF92CF9251
:10254000DF92EF92FF920F931F936C01FC01B0801A
:10255000E1800E94613620E831E541E050E00E94D0
:10256000046E8B2D8F77280F311D411D511DFF24C7
:1025700000E010E0CA01B901A80197010E94046EB1
:10258000F0E8BF22B62AF601B0821F910F91FF90AA
:10259000EF90DF90CF90BF9008956F927F928F92CF
:1025A0009F92AF92BF92CF92DF92EF92FF920F93E2
:1025B0001F934C01FC01708061800E946136A62C43
:1025C000BB24CC24DD241FE7E12EE720FF24E60C0A
:1025D000F11C0027F7FC0095102F20E831E541E0C1
:1025E00050E00E94046ECA01B901A60195010E9443
:1025F000046EE61AF70A080B190BC801B701A60109
:1026000095010E94046EF0E87F22762AF401708220
:102610001F910F91FF90EF90DF90CF90BF90AF9000
:102620009F908F907F906F9008950E946136AB01CC
:10263000BC018091760AEDE7F9E0ADEBB8E0282F18
:1026400030E02E0F3F1F0AC08081882329F04D9370
:102650005D936D937C93139731961496E217F3076D
:1026600099F70895EF92FF921F93CF93DF93182F5E
:102670007B010E9461369B01AC01C12FD0E02F5F2E
:102680003F4F4F4F5F4FCE01880F991F880F991F03
:10269000FC01E350F84F2083318342835383FC01D4
:1026A000E354F74FE114F10449F48EEF9FEFAFEFDD
:1026B000BFEF80839183A283B3830DC0C701AA2794
:1026C00097FDA095BA2F280F391F4A1F5B1F208343
:1026D000318342835383C358D64F83E688838091E6
:1026E000710A88608093710ADF91CF911F91FF90EA
:1026F000EF900895AF92BF92CF92DF92EF92FF9248
:102700000F931F93CF93DF938C010E5F1F4F20E039
:1027100030E006C0F901E558F84F90830F5F1F4F76
:10272000E22FD8019C91892F80538A3028F42F5FA3
:102730003F4F2530310571F7F0E0E458F84F108233
:102740008CE797E00E94410AEC0197FDD4C080918C
:10275000760A90E08C179D070CF4CDC0F8018081BB
:102760008D3309F057C0209709F4C5C08091710AD4
:1027700084FFC1C02197C80101962181203379F4DB
:102780000E946136EC2FF0E0EE0FFF1FEE0FFF1FEF
:10279000E354F74F608371838283938319C021339D
:1027A00009F0A9C06CE777E040E32AE331E00E943A
:1027B0008F3E882319F460E070E007C08CE797E053
:1027C0000E94410ABC0197FD96C08C2F0E943213D3
:1027D00000D000D000D0EDB7FEB731968DEA97E07B
:1027E000ADB7BEB712969C938E93119781E492E099
:1027F0009383828380E790E0958384830E94E43F03
:1028000081E0EDB7FEB736960FB6F894FEBF0FBE67
:10281000EDBF72C000D000D000D0EDB7FEB731964A
:102820008DEA97E0ADB7BEB712969C938E93119741
:102830008EE392E09383828380E790E095838483A4
:102840000E94E43FEDB7FEB736960FB6F894FEBF90
:102850000FBEEDBF209721F48091760A90E003C06F
:102860008C2F9C2F9150C0E0D0E0E92EFF24082F40
:1028700010E02DEAA22E27E0B22E9BE3C92E92E0B3
:10288000D92E31C000D000D000D0ADB7BEB7119660
:10289000EDB7FEB7B282A1821396DC92CE92129768
:1028A000F90183E0F595E7958A95E1F7E958F54F49
:1028B000808190E02770307002C0959587952A95A9
:1028C000E2F78170907015969C938E9314970E94F6
:1028D000E43F21962DB73EB72A5F3F4F0FB6F894DD
:1028E0003EBF0FBE2DBF9E012E0D3F1D201731078D
:1028F0004CF281E001C080E0DF91CF911F910F91F8
:10290000FF90EF90DF90CF90BF90AF900895AF927F
:10291000BF92CF92DF92EF92FF920F931F93CF93CC
:10292000DF932DB73EB7285030400FB6F8943EBF26
:102930000FBE2DBFEDB7FEB731960DEA17E0ADB76C
:10294000BEB712961C930E93119788E394E093837D
:10295000828380E790E09583848387E391E0978387
:1029600086830E94E43F0F900F900F900F90EDB779
:10297000FEB71283018385E294E0948383830E94EF
:10298000E43FC5E4D2E0AA24EE24FF240F900F9088
:102990000F900F90B02EC12E06E114E0A7018E819A
:1029A00081FF3EC08881282F30E0443119F42C5338
:1029B00030400CC04E3151F4C901880F991F63E0BB
:1029C000220F331F6A95E1F7280F391F8DB79EB785
:1029D0000C970FB6F8949EBF0FBE8DBFEDB7FEB734
:1029E0003196ADB7BEB71196BC9211971296CC92A4
:1029F000138302838C819D8195838483898186835F
:102A0000178231872087428753870E94E43FA3942F
:102A1000EDB7FEB73C960FB6F894FEBF0FBEEDBF04
:102A20000894E11CF11C2796F4E2EF16F10409F07A
:102A3000B5CF0E9461366B017C01B0904C020E94C0
:102A4000B5452DB73EB7225130400FB6F8943EBF82
:102A50000FBE2DBFEDB7FEB731960DEA17E0ADB74B
:102A6000BEB712961C930E9311972EED33E033836D
:102A70002283A482158220E630E037832683C08635
:102A8000D186E286F386B48615868687178685E02A
:102A900090E0918B808B0E94E43FEDB7FEB73E96AD
:102AA0000FB6F894FEBF0FBEEDBF1283018383ED16
:102AB00093E0948383830E94E43F00D0EDB7FEB798
:102AC0003196ADB7BEB712961C930E9311978DEA4F
:102AD00093E09383828380E890E0958384830E94CF
:102AE000E43FEDB7FEB736960FB6F894FEBF0FBEC3
:102AF000EDBF81E0DF91CF911F910F91FF90EF909B
:102B0000DF90CF90BF90AF900895AF92BF92CF92D9
:102B1000DF92EF92FF920F931F93CF93DF9300D03A
:102B200000D000D0EDB7FEB731960DEA17E0ADB793
:102B3000BEB712961C930E9311978FE594E0938382
:102B400082838FEC90E0958384830E94E43F0F9012
:102B50000F90EDB7FEB7128301838DE594E0948367
:102B600083830E94E43FC5E4D2E0FF240F900F90DE
:102B70000F900F90E02E012FB5E5AB2EB4E0BB2EE9
:102B8000A3E5CA2EA4E0DA2E8881282F30E0F4E1F4
:102B9000FF1619F42C5330400DC08EE1F81651F495
:102BA000C901880F991FE3E0220F331FEA95E1F76F
:102BB000280F391FADB7BEB718970FB6F894BEBF30
:102BC0000FBEADBFEDB7FEB731961196EC921197DF
:102BD00012960C93B382A2828C819D81958384830B
:102BE000378326830E94E43FEDB7FEB738960FB6D1
:102BF000F894FEBF0FBEEDBFF3E2FF16A1F000D0C8
:102C000000D0ADB7BEB71196EC92119712960C9307
:102C100012971496DC92CE9213970E94E43F0F9085
:102C20000F900F900F90F3942796B4E2FB1609F0E3
:102C3000ABCF0E94B545EDB7FEB738970FB6F89405
:102C4000FEBF0FBEEDBF31962DEA37E0ADB7BEB780
:102C500012963C932E9311972DE334E03383228315
:102C60008483158285E090E0978386830E94E43F09
:102C7000EDB7FEB738960FB6F894FEBF0FBEEDBFA6
:102C800081E0DF91CF911F910F91FF90EF90DF9046
:102C9000CF90BF90AF900895BF92CF92DF92EF9206
:102CA000FF920F931F93CF93DF9300D000D00DEAD4
:102CB00017E0ADB7BEB712961C930E9311978AEA30
:102CC0009AE014969C938E9313970E94E43FFF24FE
:102CD0000F900F900F900F90B02EE12E1CE7C12E99
:102CE00017E0D12E04EA1AE021C08F2D6CE777E0BF
:102CF0000E94DB4000D000D000D0EDB7FEB7319687
:102D0000ADB7BEB71196BC9211971296EC92138391
:102D10000283D582C4820E94E43FF394EDB7FEB7EC
:102D200036960FB6F894FEBF0FBEEDBF8091760ABF
:102D3000CDEAD7E0F816C8F200D000D0ADB7BEB7E4
:102D40001296DC93CE9311978FE99AE014969C9398
:102D50008E9313970E94E43F0F900F900F900F9067
:102D60008E819F812C813D81821B930B60E140E02D
:102D70000E94D239DF91CF911F910F91FF90EF9078
:102D8000DF90CF90BF9008954F925F926F927F92A5
:102D90008F929F92AF92BF92CF92DF92EF92FF926B
:102DA0000F931F93DF93CF930F92CDB7DEB70E949F
:102DB00061365B016C012DB73EB7285030400FB62D
:102DC000F8943EBF0FBE2DBFEDB7FEB731960DEAAA
:102DD00017E0ADB7BEB712961C930E93119781E51D
:102DE00095E09383828380E790E09583848387E3F3
:102DF00091E0978386830E94E43FEDB7FEB7389653
:102E00000FB6F894FEBF0FBEEDBF0E944C16109295
:102E1000B0071092AF078EE294E09093B2078093D0
:102E2000B1079093B4078093B3072DB73EB72A50EC
:102E300030400FB6F8943EBF0FBE2DBFEDB7FEB7C2
:102E40003196ADB7BEB712961C930E9311978CE3D3
:102E500095E09383828380ED90E095838483A682BE
:102E6000B782C086D1860E94E43F0F900F90EDB7E5
:102E7000FEB73196ADB7BEB712961C930E9311975D
:102E800082E295E0938382838091750A8483158220
:102E900080914C02868317820E94E43F90E0EDB758
:102EA000FEB738960FB6F894FEBF0FBEEDBF78019F
:102EB0000EE115E023C000D000D000D0EDB7FEB782
:102EC0003196ADB7BEB71196EC9211971296FC925F
:102ED00013830283A92FB0E0A958B54F8C91848346
:102EE000158299830E94E43F99819F5FEDB7FEB7F9
:102EF00036960FB6F894FEBF0FBEEDBF8091750AEF
:102F00004DEA642E47E0742E9817A8F200D000D046
:102F1000ADB7BEB712967C926E92119782E195E0A2
:102F200014969C938E9313970E94E43F99240F90DC
:102F30000F900F900F90C301762C892E39E0432E0D
:102F400035E0532E66C0A92DB0E0FD01E358F64FE1
:102F500060816623A9F1CD01880F991F880F991F01
:102F6000FC01E350F84FE080F18002811381FC0105
:102F7000E354F74FAE14BF04C006D10648F02081D9
:102F80003181428153812A193B094C095D0908C0EE
:102F900020813181428153812E193F09400B510B11
:102FA000AA0FBB1FAA0FBB1FA354B74F8D919D91B2
:102FB0000D90BC91A02D8E5F9F4FAF4FBF4F21F45E
:102FC00020E030E040E050E08DB79EB70A970FB6A2
:102FD000F8949EBF0FBE8DBFEDB7FEB73196ADB76B
:102FE000BEB711967C92119712968C9253824282B0
:102FF0006483158226833783408751870E94E43F8C
:103000009394EDB7FEB73A960FB6F894FEBF0FBE95
:10301000EDBF8091760A981608F495CF2DB73EB78C
:103020002A5130400FB6F8943EBF0FBE2DBFEDB70A
:10303000FEB731960DEA17E0ADB7BEB712961C93F6
:103040000E93119787EB94E0938382838091710AAA
:103050008170848315828091710A86958170868340
:1030600017828091710A8695869581708087118676
:103070008091710A829581708287138680918F0A70
:103080009091900AA091910AB091920A84879587B5
:10309000A687B7878091C302808B118A8091D8025E
:1030A000828B138A8091E602848B158A8091F402C8
:1030B000868B178A80E690E0918F808F0E94E43F94
:1030C000EDB7FEB73C960FB6F894FEBF0FBEEDBF4E
:1030D0003196ADB7BEB712961C930E93119785E942
:1030E00094E0938382838091F50784831582809195
:1030F000F607868317828091F7079091F8079187EA
:1031000080878091F9079091FA07A091FB07B09111
:10311000FC0782879387A487B5870E94E43FEDB7B9
:10312000FEB738960FB6F894FEBF0FBEEDBF3196CE
:10313000ADB7BEB712961C930E93119782E694E03A
:103140009383828380E890E0958384830E94E43FA8
:10315000EDB7FEB736960FB6F894FEBF0FBEEDBFC3
:1031600081E00F90CF91DF911F910F91FF90EF9031
:10317000DF90CF90BF90AF909F908F907F906F9097
:103180005F904F900895DF92EF92FF920F931F93FD
:10319000CF93DF937C010E945E3A1092B0071092A9
:1031A000AF078EE294E09093B2078093B1079093BB
:1031B000B4078093B30787010B5F1F4FD7011596A4
:1031C0008C91803239F4C8010E94DB3EC8010E9414
:1031D000C41692C0AFEDB1E0C0E0D0E0482F552753
:1031E00047FD5095DC2EED91FC911197849190E074
:1031F0008417950709F08FC03196249130E0F801CB
:103200008181992787FD90952817390709F083C098
:10321000C8010E94DB3ECC0FDD1FCC0FDD1FCF515C
:10322000DE4FE881F981C8010995882301F500D0B6
:1032300000D000D0EDB7FEB731968DEA97E0ADB77C
:10324000BEB712969C938E9311978EE192E0938372
:10325000828384E691E0958384830E94E43FEDB706
:10326000FEB736960FB6F894FEBF0FBEEDBFF7E17E
:10327000DF1609F041C08091710A86FF3DC04E2DD6
:10328000CCE7D7E0C701DC0101C08993EA2FE41B3A
:1032900015968C911597803229F0119697E0CC39CC
:1032A000D90799F7F0E0E458F84F10828CE797E0DF
:1032B0000E942E0D8823B9F500D000D000D0EDB7C4
:1032C000FEB731968DEA97E0ADB7BEB712969C93E4
:1032D0008E9311978BE192E09383828384E691E051
:1032E000958384830E94E43FEDB7FEB736960FB610
:1032F000F894FEBF0FBEEDBF8091B3079091B40765
:103300002091B1073091B207821B930B61E140E03D
:103310000E94D23908C0D39421961496C731D105A2
:1033200009F060CFA4CFDF91CF911F910F91FF9053
:10333000EF90DF900895BF92CF92DF92EF92FF92CD
:103340000F931F93CF93DF932DB73EB72850304094
:103350000FB6F8943EBF0FBE2DBFEDB7FEB7319646
:103360000DEA17E0ADB7BEB712961C930E931197F6
:1033700088E798E09383828380E790E09583848355
:1033800087E391E0978386830E94E43FEDB7FEB721
:1033900038960FB6F894FEBF0FBEEDBF0E944C16D4
:1033A0001092B0071092AF078EE294E09093B207AC
:1033B0008093B1079093B4078093B3072DB73EB7BE
:1033C0002A5030400FB6F8943EBF0FBE2DBFEDB768
:1033D000FEB73196ADB7BEB712961C930E931197F8
:1033E00084E598E0938382838091750A84831582B3
:1033F0008091C302868317828091F40280871186B0
:103400000E94E43FDD24E12C64E0F62EEDB7FEB728
:103410003A960FB6F894FEBF0FBEEDBFB02EC12E88
:1034200000E518E033C0F999FECFF2BCE1BCF89A90
:1034300090B5F999FECF0894E11CF11CF2BCE1BCF7
:10344000F89A80B5D92FC0E000D000D000D0EDB7F9
:10345000FEB73196ADB7BEB71196BC9211971296D2
:10346000CC92138302839E01280F311D3583248360
:103470000E94E43FD3940894E11CF11C8DB79EB7E1
:1034800006960FB6F8949EBF0FBE8DBF8091760A48
:10349000D81608F4C8CF00D000D00DEA17E0ADB7B9
:1034A000BEB712961C930E93119782E498E014967F
:1034B0009C938E9313970E94E43F00D0EDB7FEB724
:1034C0003196ADB7BEB712961C930E9311978CE14F
:1034D00098E09383828380E890E0958384830E94C0
:1034E000E43FEDB7FEB736960FB6F894FEBF0FBEB9
:1034F000EDBF81E0DF91CF911F910F91FF90EF9091
:10350000DF90CF90BF900895AF92BF92DF92EF927D
:10351000FF920F931F93DF93CF930F92CDB7DEB738
:1035200000D000D000D0EDB7FEB731960DEA17E01D
:10353000ADB7BEB712961C930E93119783E49BE030
:103540009383828380E790E0958384830E94E43FA5
:10355000EDB7FEB736960FB6F894FEBF0FBEEDBFBF
:103560000E944C161092B0071092AF078EE294E0C2
:103570009093B2078093B1079093B4078093B307F9
:103580002DB73EB72C5030400FB6F8943EBF0FBE5B
:103590002DBFEDB7FEB73196ADB7BEB712961C93EF
:1035A0000E9311978AE19BE0938382838091750A41
:1035B0008483158280E190E0978386838091C302A3
:1035C000808711868091F402828713860E94E43FEF
:1035D000EDB7FEB738960FB6F894FEBF0FBEEDBF3D
:1035E000128301838EE09BE0948383830E94E43FF7
:1035F00090E00F900F900F900F9078010AE01BE081
:1036000023C000D000D000D0EDB7FEB73196ADB7E3
:10361000BEB71196EC9211971296FC921383028317
:10362000A92FB0E0A358B54F8C918483158299835C
:103630000E94E43F99819F5FEDB7FEB736960FB6C3
:10364000F894FEBF0FBEEDBF8091750ABDEAAB2EA8
:10365000B7E0BB2E9817A8F200D000D0ADB7BEB728
:103660001296BC92AE9211978EEF9AE014969C93AC
:103670008E9313970E94E43F00E00F900F900F90FD
:103680000F90C501DA2C192FAAEFEA2EAAE0FA2E24
:1036900021C000D000D000D0EDB7FEB73196ADB755
:1036A000BEB71196DC92119712961C93F382E282B8
:1036B000A02FB0E0AD57B54F8C91848315820E9446
:1036C000E43F0F5FEDB7FEB736960FB6F894FEBF36
:1036D0000FBEEDBF8091750AFDEAAF2EF7E0BF2E59
:1036E0000817B8F200D000D0ADB7BEB71296BC92A2
:1036F000AE9211978EEE9AE014969C938E93139748
:103700000E94E43F00E00F900F900F900F90C501D2
:10371000DA2C192FEAEEEE2EEAE0FE2E21C000D0C0
:1037200000D000D0EDB7FEB73196ADB7BEB7119659
:10373000DC92119712961C93F382E282A02FB0E0E4
:10374000A757B54F8C91848315820E94E43F0F5F89
:10375000EDB7FEB736960FB6F894FEBF0FBEEDBFBD
:103760008091750A7DEAA72E77E0B72E0817B8F288
:1037700000D000D000D0EDB7FEB73196ADB7BEB7E0
:103780001296BC92AE92119787EB9AE09383828354
:1037900080E890E0958384830E94E43FEDB7FEB714
:1037A00036960FB6F894FEBF0FBEEDBF81E00F90C6
:1037B000CF91DF911F910F91FF90EF90DF90BF901D
:1037C000AF9008958F929F92AF92BF92CF92DF9267
:1037D000EF92FF920F931F93CF93DF9300D000D00F
:1037E00000D0EDB7FEB731960DEA17E0ADB7BEB722
:1037F00012961C930E9311978DEA9BE0938382831C
:103800008FEC90E0958384830E94E43F0F900F90AB
:10381000EDB7FEB71283018381EA9BE09483838333
:103820000E94E43FFF240F900F900F900F90E02E26
:10383000012F6CE7C62E67E0D62E5CE9852E5BE093
:10384000952E4AE9A42E4BE0B42E3EC08F2D6CE796
:1038500077E00E94DB4000D000D000D0EDB7FEB78B
:103860003196ADB7BEB71196EC92119712960C93A4
:1038700093828282D582C4820E94E43F2F2D30E061
:103880008091760A90E00197EDB7FEB736960FB6B5
:10389000F894FEBF0FBEEDBF28173907A1F000D086
:1038A00000D0ADB7BEB71196EC92119712960C935B
:1038B00012971496BC92AE9213970E94E43F0F9019
:1038C0000F900F900F90F3948091760ACDEAD7E095
:1038D000F81608F4BBCF00D000D0EDB7FEB7D28306
:1038E000C1838EE89BE0948383830E94E43FFF249E
:1038F0000F900F900F900F90CE01DC2EE92E3BE839
:10390000832E3BE0932E29E8A22E2BE0B22E40C05E
:103910000F2D10E000D000D000D0ADB7BEB711968B
:10392000EDB7FEB7D182E28213969C928E921297E7
:10393000F801E358F54F808114968C9314971596EF
:103940001C920E94E43F8091750A90E001972DB788
:103950003EB72A5F3F4F0FB6F8943EBF0FBE2DBF54
:1039600008171907A1F000D000D0ADB7BEB7119667
:10397000DC9211971296EC9212971496BC92AE922A
:1039800013970E94E43F0F900F900F900F90F394C5
:103990008091750ACDEAD7E0F81608F4B9CF00D0C7
:1039A00000D0EDB7FEB7D283C18387E79BE0948355
:1039B00083830E94E43FFF240F900F900F900F909D
:1039C000CE01DC2EE92E94E7892E9BE0992E82E72A
:1039D000A82E8BE0B82E40C00F2D10E000D000D0F4
:1039E00000D0ADB7BEB71196EDB7FEB7D182E28277
:1039F00013969C928E921297F801ED57F54F8081A5
:103A000014968C93149715961C920E94E43F809113
:103A1000750A90E001972DB73EB72A5F3F4F0FB66A
:103A2000F8943EBF0FBE2DBF08171907A1F000D0B4
:103A300000D0ADB7BEB71196DC9211971296EC92FA
:103A400012971496BC92AE9213970E94E43F0F9087
:103A50000F900F900F90F3948091750ACDEAD7E004
:103A6000F81608F4B9CF00D000D0EDB7FEB7D28376
:103A7000C18382E69BE0948383830E94E43FFF241A
:103A80000F900F900F900F90CE01DC2EE92E0FE5D6
:103A9000802E0BE0902E1DE5A12E1BE0B12E40C024
:103AA0000F2D10E000D000D000D0ADB7BEB71196FA
:103AB000EDB7FEB7D182E28213969C928E92129756
:103AC000F801E757F54F808114968C93149715965B
:103AD0001C920E94E43F8091750A90E001972DB7F7
:103AE0003EB72A5F3F4F0FB6F8943EBF0FBE2DBFC3
:103AF00008171907A1F000D000D0ADB7BEB71196D6
:103B0000DC9211971296EC9212971496BC92AE9298
:103B100013970E94E43F0F900F900F900F90F39433
:103B20008091750ACDEAD7E0F81608F4B9CF00D035
:103B300000D000D0EDB7FEB73196ADB7BEB7129644
:103B4000DC93CE9311978EE49BE09383828380E194
:103B500090E0958384830E94E43FEDB7FEB73696EC
:103B60000FB6F894FEBF0FBEEDBF81E0DF91CF919D
:103B70001F910F91FF90EF90DF90CF90BF90AF908B
:103B80009F908F9008959C018091F402882311F0FA
:103B900081E00895C9016CE777E040E32CE331E070
:103BA0000E948F3E882331F08CE797E00E94084204
:103BB000811181E008950F931F93DF93CF93CDB7C9
:103BC000DEB7E0970FB6F894DEBF0FBECDBF8C0115
:103BD0000D5F1F4FC8010E94C31D813009F045C011
:103BE000C8016CE777E040E32FE331E00E948F3EAD
:103BF0008823D9F1C8018E010F5F1F4FB80140E340
:103C000023E431E00E948F3E882309F461C08CE7F1
:103C100097E0B80140E150E00E94C90A009709F01E
:103C200057C080E490E06CE777E00E94E3418DB7F5
:103C30009EB708970FB6F8949EBF0FBE8DBFEDB725
:103C4000FEB731968DEA97E0ADB7BEB712969C935A
:103C50008E93119784EB92E0938382838FEC90E0B4
:103C60009583848381E090E01BC0ADB7BEB7189701
:103C70000FB6F894BEBF0FBEADBFEDB7FEB731961D
:103C80008DEA97E012969C938E93119784E992E0C7
:103C9000938382838FEC90E09583848382E090E02D
:103CA000978386830E94E43F8DB79EB708960FB630
:103CB000F8949EBF0FBE8DBF81E0E0960FB6F894DA
:103CC000DEBF0FBECDBFCF91DF911F910F91089541
:103CD000ADB7BEB718970FB6F894BEBF0FBEADBF55
:103CE000EDB7FEB731968DEA97E012969C938E93CE
:103CF000119784EA92E0938382838FEC90E095831E
:103D0000848383E090E0CCCF4F925F926F927F925A
:103D10008F929F92AF92BF92CF92DF92EF92FF92DB
:103D20000F931F93DF93CF9300D000D00F92CDB7A6
:103D3000DEB7F3E0AF2EB12CA80EB91EC5010E946C
:103D4000C31D882309F4FDC050904C0240905302DB
:103D500005E412E0CC24EE24FF244E010894811CDB
:103D6000911CE2E06E2E712C6C0E7D1E2E2D9F2D6F
:103D7000D80116968C91169781FF44C011968C91AC
:103D80001197813009F41C92D401E5E7F3E085E056
:103D900001900D928150E1F7822FB3014AE050E08B
:103DA0000E946A0BC5016CE777E040E394010E9432
:103DB0008F3E882339F1F801D180F1E0DF1619F444
:103DC000D801DC921FC08CE797E00E94410A9C0159
:103DD0008E2D843119F4245C3F4F08C08E3131F4AC
:103DE000C9016AE070E00E94F16D9B0137FD08C0D7
:103DF0008D2D90E0821793071CF0F801208302C0FC
:103E0000CC24C3940894E11CF11C095F1F4FF4E219
:103E1000EF16F10409F0AACFC5016CE777E040E3A3
:103E200027E431E00E948F3E882331F080E690E065
:103E30006CE777E00E94E341C5016CE777E040E37F
:103E40002BE431E00E948F3E8823D1F08CE797E08D
:103E50000E945F0A162F072FF82EE92E0E941513D5
:103E6000612F702F8F2D9E2D0E9434368091710A04
:103E700085FF06C0612F702F8F2D9E2D0E94343834
:103E80000DEA17E070E7E72E70E0F72ECC20F1F096
:103E900000D000D000D0EDB7FEB73196ADB7BEB7B9
:103EA00012961C930E93119780EF92E09383828376
:103EB000F582E4820E94E43F81E0EDB7FEB73696DA
:103EC0000FB6F894FEBF0FBEEDBF3BC00E94BF41CE
:103ED0002DB73EB7285030400FB6F8943EBF0FBE06
:103EE0002DBFEDB7FEB73196ADB7BEB712961C9396
:103EF0000E93119784EC92E093838283F582E4829F
:103F000084EB91E0978386830E94E43FEDB7FEB790
:103F100038960FB6F894FEBF0FBEEDBF80914C02ED
:103F2000851531F4442061F480915302882341F0D7
:103F30001092B5071092B6071092B7071092B80703
:103F400081E00F900F900F900F900F90CF91DF9125
:103F50001F910F91FF90EF90DF90CF90BF90AF90A7
:103F60009F908F907F906F905F904F9008950F93E8
:103F70001F93DF93CF93CDB7DEB7C058D0400FB6B5
:103F8000F894DEBF0FBECDBF8C010D5F1F4FC8017F
:103F90000E94C31D8823E9F1C8018E010F5F1F4FE6
:103FA000B80140E82FE431E00E948F3E882329F0D9
:103FB00080E890E0B8010E94E3412DB73EB7285059
:103FC00030400FB6F8943EBF0FBE2DBFEDB7FEB721
:103FD00031968DEA97E0ADB7BEB712969C938E935B
:103FE000119789E393E09383828380E790E0958340
:103FF000848384EB91E0978386830E94E43F81E091
:104000002DB73EB7285F3F4F0FB6F8943EBF0FBEA7
:104010002DBFC058DF4F0FB6F894DEBF0FBECDBF27
:10402000CF91DF911F910F910895EF92FF920F931F
:104030001F93CF93DF93EC012396CE010E94C31D03
:10404000882309F407C1CE016CE777E040E323E55C
:1040500031E00E948F3E882311F00E941513CE019B
:104060006CE777E040E327E531E00E948F3E88234C
:1040700009F44CC08CE797E00E94410A1816190613
:104080000CF044C02DB73EB7285030400FB6F8941E
:104090003EBF0FBE2DBFEDB7FEB731960DEA17E05C
:1040A000ADB7BEB712961C930E9311978BE793E0B2
:1040B0009383828380E790E09583848384E190E01A
:1040C000978386830E94E43F0F900F900F900F908C
:1040D000EDB7FEB7128301838EE693E0948383836A
:1040E0000E94E43F0F900F900F900F908091B307C4
:1040F0009091B4072091B1073091B207821B930BC6
:1041000061E140E00E94D2390E94D540CE016CE7C7
:1041100077E040E32BE531E00E948F3E882399F061
:1041200080917C07813339F48091710A80FD0BC046
:104130000E94AC4608C0803331F48091710A80FF40
:1041400002C00E94A246CE016CE777E040E32EE574
:1041500031E00E948F3E8823E9F080917C07813313
:1041600051F48091710A84FD15C00E94151380914D
:10417000710A80610BC0803369F48091710A84FFF9
:1041800009C00E9415138091710A8F7E8093710A75
:104190000E94DE45CE016CE777E040E321E631E0A6
:1041A0000E948F3E882351F18CE797E00E94410ADC
:1041B000EC0118161906F4F40E9461367B018C019B
:1041C000BE01882777FD8095982F20E13EE040E0F2
:1041D00050E00E94B26DE60EF71E081F191FE09214
:1041E0008F0AF092900A0093910A1093920A0E940B
:1041F000984604C0009771F50E9486462DB73EB7D9
:10420000285030400FB6F8943EBF0FBE2DBFEDB71B
:10421000FEB731968DEA97E0ADB7BEB712969C9384
:104220008E93119781E693E09383828380E790E0F9
:104230009583848384EB91E0978386830E94E43F97
:1042400081E0EDB7FEB738960FB6F894FEBF0FBE0B
:10425000EDBF01C080E0DF91CF911F910F91FF90E2
:10426000EF900895BF92CF92DF92EF92FF920F935B
:104270001F93DF93CF9300D0CDB7DEB77C018C01C5
:104280000D5F1F4FC8010E94C31D882309F4A0C001
:104290001A83098327E630E0E20EF31E0DC0C80141
:1042A00064E671E043E050E00E94C90A009779F0AB
:1042B0000F5F1F4F1A83098309811A81D8018C91DE
:1042C000882309F485C00E151F0548F381C00D5FD2
:1042D0001F4F1A8309830E941513FF2400E014E086
:1042E000EE246E010894C11CD11CBEEFBB2E37C05A
:1042F000C6010E946D10F999FECF1FBA12BD01BD13
:1043000090BD0FB6F894FA9AF99A0FBEF999FECFBC
:104310001FBA0F5F1F4F12BD01BD0150104080BD7D
:104320000FB6F894FA9AF99A0FBE0097A9F02F2DBC
:1043300030E0F901EE0FFF1FEE0FFF1FE354F74FC0
:10434000A0E0B0E080839183A283B3832358364FEB
:10435000F901B082EE24E394F3940E5F1F4F809135
:10436000760AF81608F4C4CFEE2031F00E946136C8
:104370004091B5020E94410C2DB73EB72850304005
:104380000FB6F8943EBF0FBE2DBFEDB7FEB7319606
:104390008DEA97E0ADB7BEB712969C938E931197B6
:1043A0008FE098E09383828380E790E09583848315
:1043B00084EB91E0978386830E94E43F81E0EDB730
:1043C000FEB738960FB6F894FEBF0FBEEDBF01C022
:1043D00080E00F900F90CF91DF911F910F91FF9090
:1043E000EF90DF90CF90BF9008958F929F92AF9201
:1043F000BF92CF92DF92EF92FF920F931F93DF93C2
:10440000CF9300D000D0CDB7DEB723E0C22ED12CA1
:10441000C80ED91EC6010E94C31D882309F4D9C045
:1044200083E789831A821B821C8210E092E0A92E06
:10443000B12CAC0EBD1E7E010894E11CF11C16C00F
:10444000812F90E0B5014AE050E00E946A0BC6015E
:104450006CE777E040E397010E948F3E882329F0C4
:10446000812F6CE777E00E9400411F5F8091760A00
:10447000181730F38DE68983FF2482E0882E912C73
:104480008C0E9D1E5E010894A11CB11C1AC00F2D3C
:1044900010E0C801B4014AE050E00E946A0BC60176
:1044A0006CE777E040E395010E948F3E882341F05E
:1044B0008CE797E00E94410A0358154FD8018C936E
:1044C000F3948091750AF81610F30E94584189E61A
:1044D0008983FF2402E0802E912C8C0E9D1E5E01AC
:1044E0000894A11CB11C1AC00F2D10E0C801B40122
:1044F0004AE050E00E946A0BC6016CE777E040E3B7
:1045000095010E948F3E882341F08CE797E00E943E
:10451000410A0D57154FF8018083F3948091750A75
:10452000F81610F30E942A4181E68983FF2412E0E5
:10453000812E912C8C0E9D1E5E010894A11CB11C35
:104540001AC00F2D10E0C801B4014AE050E00E94EB
:104550006A0BC6016CE777E040E395010E948F3E4D
:10456000882341F08CE797E00E94410A0757154FD6
:10457000D8018C93F3948091750AF81610F30E9479
:104580004141EDB7FEB738970FB6F894FEBF0FBEA6
:10459000EDBF31968DEA97E0ADB7BEB712969C930A
:1045A0008E9311978AE79AE09383828380E790E065
:1045B0009583848384EB91E0978386830E94E43F14
:1045C00081E0EDB7FEB738960FB6F894FEBF0FBE88
:1045D000EDBF0F900F900F900F90CF91DF911F9133
:1045E0000F91FF90EF90DF90CF90BF90AF909F9092
:1045F0008F9008958F929F92AF92BF92CF92DF9249
:10460000EF92FF920F931F93CF93DF93EC017A0108
:104610008B01CB01BA010E944E354C01C801B70194
:104620000E9448355C018889882309F481C0D880BC
:10463000D7FE21C0C98021E02C15E8F4C801B701DC
:1046400020E831E541E050E00E94046ECA01B90162
:104650002C2D30E040E050E00E94046E2FE7D22283
:104660002D2D30E040E050E0621773078407950776
:1046700009F05EC031C0C801B7010E943C352881F5
:1046800030E090E0059667E070E00E94F16D02C0B6
:10469000359527958A95E2F720FF4AC0C801B701F2
:1046A0000E944235D82E888187FF16C089818823D1
:1046B00019F4D0FE11C03CC0813071F48FE1D816DE
:1046C000B9F12DE1D21609F042C0C801B7010E942C
:1046D00036350297E1F52CC08CE390E0889E90017E
:1046E000899E300D989E300D11242A0D3B1D4A8164
:1046F0005B8124173507E0F08C819D818217930739
:10470000B8F0EE81FF81309799F0241B350B40E023
:10471000C901BF010E94DD6D6E9FC0016F9F900DAA
:104720007E9F900D11248217930719F441E001C078
:1047300040E0842FDF91CF911F910F91FF90EF9078
:10474000DF90CF90BF90AF909F908F900895D0FC56
:10475000C3CFEECF982F9B018091F407981768F490
:1047600061E1969FB00111246C587B4FC90141E172
:1047700050E023EF3BE00E94E60A0895CF92DF92DB
:10478000EF92FF920F931F93DF93CF93CDB7DEB7D6
:1047900062970FB6F894DEBF0FBECDBF03966CE7ED
:1047A00077E040E328E631E00E948F3E882309F459
:1047B0002BC18CE797E00E94410A7C012FEF8F3FCD
:1047C00092070CF421C18091F40790E0E816F906F5
:1047D0000CF01AC18DB79EB708970FB6F8949EBF1C
:1047E0000FBE8DBFEDB7FEB731960DEA17E0ADB73E
:1047F000BEB712961C930E9311978DEC97E093839E
:10480000828380E790E09583848387E391E09783B8
:1048100086830E94E43FEDB7FEB738960FB6F89452
:10482000FEBF0FBEEDBF0E944C161092B007109253
:10483000AF078EE294E09093B2078093B107909314
:10484000B4078093B3072DB73EB72A5030400FB658
:10485000F8943EBF0FBE2DBFEDB7FEB73196ADB792
:10486000BEB712961C930E9311978EEA97E093832E
:1048700082838091750A84831582F782E682809113
:10488000F402808711860E94E43FEDB7FEB73A96A6
:104890000FB6F894FEBF0FBEEDBFFFEFEF16FFEFB0
:1048A000FF0609F48FC08E2D7E010894E11CF11CD7
:1048B000B7010E94AA238A81823018F0C7010E94A2
:1048C000CD122DB73EB7225130400FB6F8943EBFFF
:1048D0000FBE2DBFEDB7FEB731960DEA17E0ADB7AD
:1048E000BEB712961C930E9311978FE897E09383AF
:1048F00082838989848315828981868317828A814C
:10490000808711868B819C81938782878D819E8190
:10491000958784878F8198859787868789859A85EB
:10492000918B808B0E94E43F90E0EDB7FEB77296CA
:104930000FB6F894FEBF0FBEEDBF68013BE8E32E53
:1049400037E0F32E8E01055F1F4F22C000D000D04C
:1049500000D0EDB7FEB73196ADB7BEB71196CC9289
:1049600011971296DC92F382E282D801A90FB11D51
:104970008C91848315829A8B0E94E43F9A899F5F71
:10498000EDB7FEB736960FB6F894FEBF0FBEEDBF7B
:104990008091750A9817D0F200D000D08DEA97E088
:1049A000ADB7BEB712969C938E93119788E897E0A7
:1049B00014969C938E9313970E94E43F0F900F9050
:1049C0000F900F9000D000D000D0EDB7FEB7319619
:1049D0008DEA97E0ADB7BEB712969C938E93119770
:1049E00087E597E09383828380E890E095838483D2
:1049F0000E94E43F81E0EDB7FEB736960FB6F8941B
:104A0000FEBF0FBEEDBF01C080E062960FB6F89406
:104A1000DEBF0FBECDBFCF91DF911F910F91FF90F1
:104A2000EF90DF90CF9008952F923F924F925F9238
:104A30006F927F928F929F92AF92BF92DF92EF928E
:104A4000FF920F931F93DF93CF93CDB7DEB761979C
:104A50000FB6F894DEBF0FBECDBF00D000D000D09F
:104A6000EDB7FEB731960DEA17E0ADB7BEB71296B7
:104A70001C930E93119781ED98E0938382838FECC2
:104A800090E0958384830E94E43F00D000D0EDB78E
:104A9000FEB73196ADB7BEB712961C930E93119721
:104AA00087EA98E0938382838091F4078483158258
:104AB0008091750A8683178285E390E091878087CD
:104AC0000E94E43FFF24EDB7FEB73A960FB6F89484
:104AD000FEBF0FBEEDBF4E010894811C911CD02E6D
:104AE000E12E7BE0272E312C2C0E3D1E68E8462E51
:104AF00068E0562E5AE8652E58E0752E4EE2A42E38
:104B000044E0B42EACC08F2DB4010E94AA238A8148
:104B1000823018F0C4010E94CD128DB79EB7429723
:104B20000FB6F8949EBF0FBE8DBFEDB7FEB731969E
:104B3000ADB7BEB71196DC9211971296EC9281E94F
:104B400098E093838283898984831582898186830F
:104B500017828A81808711868B819C8193878287C7
:104B60008D819E81958784878F8198859787868799
:104B700089859A85918B808B0E94E43F10E0ADB7C8
:104B8000BEB752961DC000D000D000D0EDB7FEB722
:104B90003196ADB7BEB71196DC9211971296EC9292
:104BA0008DE898E093838283D101A10FB11D8C9190
:104BB000848315820E94E43F1F5FADB7BEB716968F
:104BC0000FB6F894BEBF0FBEADBF8091750A18171F
:104BD000D0F20F2D10E08091F40790E001970817B4
:104BE000190749F000D000D0EDB7FEB7D182E282BC
:104BF000748263820EC000D000D0ADB7BEB71196EC
:104C0000DC9211971296EC92129714965C924E9247
:104C100013970E94E43F0F900F900F900F90037036
:104C2000107003301105D1F48091B3079091B4074F
:104C30002091B1073091B207821B930B60E140E0F5
:104C40000E94D2391092B0071092AF07B092B2070B
:104C5000A092B107B092B407A092B307F3948091E9
:104C6000F407F81608F44FCF00D000D08DEA97E093
:104C7000EDB7FEB79283818385E898E094838383C0
:104C80000E94E43F0F900F900F900F9081E061968B
:104C90000FB6F894DEBF0FBECDBFCF91DF911F914D
:104CA0000F91FF90EF90DF90BF90AF909F908F900B
:104CB0007F906F905F904F903F902F9008952F922C
:104CC0003F924F925F926F927F928F929F92AF929C
:104CD000BF92CF92DF92EF92FF920F931F93DF93D9
:104CE000CF93CDB7DEB761970FB6F894DEBF0FBE96
:104CF000CDBF8DB79EB70C970FB6F8949EBF0FBE71
:104D00008DBFEDB7FEB731960DEA17E0ADB7BEB770
:104D100012961C930E9311978BE49AE093838283EF
:104D20008091F407848315828091750A86831782A7
:104D30008091F4028087118685E390E093878287D3
:104D40000E94E43FDD24EDB7FEB73C960FB6F89421
:104D5000FEBF0FBEEDBF4E010894811C911CC02EFA
:104D6000012FABE02A2E312C2C0E3D1E4C2C512E47
:104D7000F7E26F2EFAE07F2EEEE2AE2EE4E0BE2EDA
:104D80009AC08D2DB4010E94AA238A81823018F026
:104D9000C4010E94CD12ED2CFF248DB79EB744971D
:104DA0000FB6F8949EBF0FBE8DBFEDB7FEB731961C
:104DB000ADB7BEB71196CC92119712960C938EE2B6
:104DC0009AE093838283F582E482898986831782BD
:104DD0008981808711868A81828713868B819C8155
:104DE000958784878D819E81978786878F81988517
:104DF000918B808B89859A85938B828B0E94E43F6F
:104E000010E0ADB7BEB754961DC000D000D000D0A2
:104E1000EDB7FEB73196ADB7BEB71196CC921197EC
:104E200012960C938AE29AE093838283D101A10FB8
:104E3000B11D8C91848315820E94E43F1F5FADB742
:104E4000BEB716960FB6F894BEBF0FBEADBF809129
:104E5000750A1817D0F200D000D0EDB7FEB7418226
:104E60005282748263820E94E43FF3E0EF22FF24C7
:104E70000F900F900F900F9083E0E816F104D1F49B
:104E80008091B3079091B4072091B1073091B20798
:104E9000821B930B60E140E00E94D2391092B00770
:104EA0001092AF07B092B207A092B107B092B407C8
:104EB000A092B307D3948091F407D81608F461CF79
:104EC00000D000D08DEA97E0ADB7BEB712969C93A4
:104ED0008E9311978CE19AE014969C938E9313977E
:104EE0000E94E43F0F900F900F900F9061960FB6C5
:104EF000F894DEBF0FBECDBFCF91DF911F910F9110
:104F0000FF90EF90DF90CF90BF90AF909F908F90E9
:104F10007F906F905F904F903F902F9008952F92C9
:104F20003F924F925F926F927F928F929F92AF9239
:104F3000BF92CF92DF92EF92FF920F931F93DF9376
:104F4000CF9300D0CDB7DEB78C010D5F1F4F0E940D
:104F500061365B016C010E942D352C01C601B50143
:104F60000E9436353C01C601B5010E9442354C0114
:104F7000C601B5010E944E359A838983C601B501E9
:104F80000E9448351C01C8016CE777E040E32CE63D
:104F900031E00E948F3E882361F08CE797E00E9409
:104FA000410A4C01009729F4C601B5010E9442351F
:104FB0004C01C8016CE777E040E32EE631E00E9447
:104FC0008F3E882329F08CE797E00E94410A3C013C
:104FD000C8016CE777E040E320E731E00E948F3EB4
:104FE000882329F08CE797E00E94410A2C0100D029
:104FF00000D000D0EDB7FEB731960DEAE02E07E005
:10500000F02EADB7BEB71296FC92EE92119781E2E8
:1050100097E09383828380E790E0958384830E9466
:10502000E43FEDB7FEB736960FB6F894FEBF0FBE5D
:10503000EDBF0E944C161092B0071092AF078EE29F
:1050400094E09093B2078093B1079093B407809354
:10505000B3072DB73EB72A5130400FB6F8943EBF84
:105060000FBE2DBF0DB71EB70F5F1F4FADB7BEB739
:105070001296FC92EE9211978AEC96E0F8019383D7
:1050800082838091B502848315828091C3028683D6
:1050900017828091E602808711868091BC02828708
:1050A00013868091CA02848715868091D1028687F3
:1050B0001786C601B50120E831E541E050E00E94C5
:1050C000046ED80151963C932E9350978CE390E058
:1050D000E981FA819C01E29FC001E39F900DF29F5C
:1050E000900D1124820D931D53969C938E9352978D
:1050F00055969C928E92549757967C926E925697A4
:1051000059965C924E9258970E94E43F4DB75EB715
:105110004A5E5F4F0FB6F8945EBF0FBE4DBFADB78E
:10512000BEB71296FC92EE9211978EEB96E0149613
:105130009C938E9313970E94E43F00E00F900F9092
:105140000F900F90BE2CEF2C1AEBC12E16E0D12E33
:1051500021C000D000D000D0EDB7FEB73196ADB77A
:10516000BEB71196BC9211971296EC92D382C2826E
:10517000A02FB0E0A358B54F8C91848315820E9474
:10518000E43F0F5FEDB7FEB736960FB6F894FEBF5B
:105190000FBEEDBF8091750ABDEA8B2EB7E09B2E46
:1051A0000817B8F200D000D0ADB7BEB712969C92E7
:1051B0008E92119786EB96E014969C938E9313979C
:1051C0000E94E43F0F900F900F900F900E945F2677
:1051D00000D000D000D0EDB7FEB73196ADB7BEB766
:1051E00012969C928E9211978EE896E0938382831A
:1051F00080E890E0958384830E94E43FEDB7FEB79A
:1052000036960FB6F894FEBF0FBEEDBF81E00F904B
:105210000F90CF91DF911F910F91FF90EF90DF9052
:10522000CF90BF90AF909F908F907F906F905F9046
:105230004F903F902F9008950F931F938DB79EB777
:1052400008970FB6F8949EBF0FBE8DBFEDB7FEB79F
:1052500031960DEA17E0ADB7BEB712961C930E93C8
:10526000119782E098E09383828380E790E09583B2
:10527000848387E391E0978386830E94E43F8DB720
:105280009EB708960FB6F8949EBF0FBE8DBF0E94C2
:105290004C161092B0071092AF078EE294E09093F4
:1052A000B2078093B1079093B4078093B3070E942D
:1052B0005F2600D000D000D0EDB7FEB73196ADB775
:1052C000BEB712961C930E9311978AED97E09383C5
:1052D000828380E890E0958384830E94E43F8DB7C9
:1052E0009EB706960FB6F8949EBF0FBE8DBF81E0A5
:1052F0001F910F910895DF92EF92FF920F931F93EA
:10530000DF93CF93CDB7DEB761970FB6F894DEBFCA
:105310000FBECDBF2091F407821708F043C02223AF
:1053200009F440C090E001968C0124E0000F111FA9
:105330002A95E1F7080F191F0C581B4F81E1D82E51
:105340007E010894E11CF11C13C0C701B80141E1C2
:1053500050E023EF3BE00E94E60AC8014197B70105
:1053600041E150E02BEF3BE00E94280B0F5E1F4F06
:105370002091F4072D9DC00111248C589B4F0817D4
:10538000190718F321502093F407F999FECF1FBA9B
:1053900082E794E092BD81BD20BD0FB6F894FA9AE1
:1053A000F99A0FBE61960FB6F894DEBF0FBECDBF5F
:1053B000CF91DF911F910F91FF90EF90DF900895B3
:1053C000CF93DF93EC012396CE010E94C31D882367
:1053D00009F450C0CE016CE777E040E328E631E005
:1053E0000E948F3E882309F445C08CE797E00E9415
:1053F000410A9C018FEF2F3F380781F41092F40788
:10540000F999FECF1FBA82E794E092BD81BD10BC2E
:105410000FB6F894FA9AF99A0FBE09C08091F40772
:1054200090E02817390734F5822F0E947B2900D09D
:1054300000D000D0EDB7FEB731968DEA97E0ADB75A
:10544000BEB712969C938E9311978CE297E093834C
:10545000828380E790E0958384830E94E43F81E02B
:105460002DB73EB72A5F3F4F0FB6F8943EBF0FBE31
:105470002DBF01C080E0DF91CF910895982F8091DA
:10548000F407981760F481E1989FC00111248C58AB
:105490009B4F41E150E02BEF3BE00E94280B089529
:1054A000BC019091F4079533F0F481E1989FC0011D
:1054B00011248C589B4F41E150E02BEF3BE00E94C0
:1054C000280B2091F4072F5F2093F407F999FECF62
:1054D0001FBA82E794E092BD81BD20BD0FB6F8945B
:1054E000FA9AF99A0FBE0895BF92CF92DF92EF9287
:1054F000FF920F931F93DF93CF93CDB7DEB76397E0
:105500000FB6F894DEBF0FBECDBF7C018C010D5FDE
:105510001F4FC8010E94C31D882309F403C1C8019D
:105520006CE777E040E328E631E00E948F3E882375
:1055300009F4F8C08CE797E00E94410A6C012FEF54
:105540008F3F92070CF4EEC08091F40790E0C816EC
:10555000D9060CF0E7C01A83098387E690E0E80ECD
:10556000F91E0DC0C80162E771E043E050E00E94FF
:10557000C90A009779F00F5F1F4F1A8309830981C9
:105580001A81D8018C91882309F4CCC00E151F050F
:1055900048F3C8C00D5F1F4F1A8309838E010F5F48
:1055A0001F4FC8010E946D108B8BC8010E946D10A7
:1055B0008B83C8010E946D108C83C8010E946D10FE
:1055C0009E838D83C8010E946D1098878F83C801C8
:1055D0000E946D109A878987C8010E946D109C8770
:1055E0008B87FF24B02EE12E8E01035F1F4F09C071
:1055F0008B2D9E2D0E946D10F801EF0DF11D808303
:10560000F3948091750AF81698F306C0FC01EF0D2B
:10561000F11D1082F39402C0CE010D96B5E0BF15C6
:10562000A8F78C81823020F0CE0103960E949E1252
:1056300000D000D000D0EDB7FEB731960DEA17E0EC
:10564000ADB7BEB712961C930E93119783E896E000
:105650009383828380E790E0958384830E94E43F74
:10566000EDB7FEB736960FB6F894FEBF0FBEEDBF8E
:10567000BE016D5F7F4FFFEFCF16FFEFDF06C1F476
:10568000CB010E94502A00D000D0ADB7BEB7129611
:105690001C930E93119786E696E014969C938E9336
:1056A00013970E94E43F0F900F900F900F9022C02D
:1056B0008C2D0E943E2A00D000D000D0EDB7FEB75E
:1056C0003196ADB7BEB712961C930E93119788E42E
:1056D00096E0938382830894C11CD11CD582C48236
:1056E0000E94E43FEDB7FEB736960FB6F894FEBFC2
:1056F0000FBEEDBF00D000D08DEA97E0ADB7BEB7CA
:1057000012969C938E93119787E296E014969C9341
:105710008E9313970E94E43F81E00F900F900F90BB
:105720000F9001C080E063960FB6F894DEBF0FBE05
:10573000CDBFCF91DF911F910F91FF90EF90DF9040
:10574000CF90BF900895BF92CF92DF92EF92FF92D9
:105750000F931F93DF93CF93CDB7DEB7A5970FB607
:10576000F894DEBF0FBECDBFB82E6A017B018091D9
:10577000710A86FFB2C0CB01BA0120E831E541E0F1
:1057800050E00E94046ECA01B9014CE757E02AE0DC
:1057900030E00E94A80B8CE797E065E371E00E947F
:1057A000AC0A1C861E861B861A8681ED93E09987BB
:1057B00088878E01045F1F4FC8016CE777E042E4E1
:1057C0000E94F85F4E8D5F8D68A179A1C8010E948B
:1057D000EA568E010F5F1F4FC80166E771E00E9415
:1057E000796DC80167E771E00E94936D81E0B8169A
:1057F00019F1B81628F082E0B81609F041C02AC0A5
:10580000C8016091F6070E940A6DC80169E771E05E
:105810000E94366DC8016091F5070E940A6DC801AB
:1058200069E771E00E94366D6091F7077091F807A3
:10583000C8010E94DC6C24C0C8016BE771E00E94C3
:10584000366D8091930A9091940AA091950AB09137
:10585000960A0DC0C80163E871E00E94366D809120
:10586000970A9091980AA091990AB0919A0AB70163
:10587000A601481B590B6A0B7B0BC8010E94AA6C3E
:105880008E010F5F1F4FC80169E771E00E94366DFE
:10589000C801B701A6010E94AA6CC8016BE871E0BB
:1058A0000E94366DC8016DE871E00E94366DC80136
:1058B0006CE777E040E350E020E030E00E941A6CB3
:1058C000CE0108966CE777E00E94A163CE010C96AA
:1058D0000E945259C8010E94AC6DA5960FB6F8946B
:1058E000DEBF0FBECDBFCF91DF911F910F91FF9013
:1058F000EF90DF90CF90BF900895CF93DF93EC01AE
:105900008091710A86FF11C0CE0165E371E00E94AB
:10591000AC0A89EB97E0BE010E944551882329F02B
:1059200089EB97E0BE010E944151DF91CF9108952C
:10593000CF93DF93EC012396CE010E94C31D8823F1
:10594000D9F1CE016CE777E040E320E931E00E9435
:105950008F3E882389F18CE797E00E947D2C2DB73C
:105960003EB7285030400FB6F8943EBF0FBE2DBF53
:10597000EDB7FEB731968DEA97E0ADB7BEB7129698
:105980009C938E93119781E292E09383828380E7C8
:1059900090E09583848384EB91E0978386830E94D3
:1059A000E43F81E02DB73EB7285F3F4F0FB6F89434
:1059B0003EBF0FBE2DBF01C080E0DF91CF910895A3
:1059C0002F923F924F925F926F927F928F929F920F
:1059D000AF92BF92CF92DF92EF92FF920F931F93FD
:1059E000DF93CF93CDB7DEB727970FB6F894DEBF1E
:1059F0000FBECDBFD090C3029091710A292F2170A4
:105A00002983792E72947FE0772231E0732291FD11
:105A10000CC08091D802882311F4AA2408C0A92EB2
:105A2000A694A69441E0A42211F0AA24A3940E9473
:105A300061367B018C0188248D2D90E09D838C83C1
:105A4000E0C0882D90E0FC01ED57F54F3081FC015E
:105A5000E958F54F2081682C660C660C660CCC2446
:105A6000DD24A22FB0E0BB83AA8369E8262E6AE07A
:105A7000362E280E391E432E5524772009F0B8C043
:105A8000B62CBC0CEB2DF0E0FF83EE83E358F64F11
:105A9000E081EE3F09F4ACC0F981FF2361F0AA2058
:105AA00009F4A6C0C2010C2C02C0959587950A94F2
:105AB000E2F780FD9DC09C2C8A819B810C2C02C04A
:105AC000959587950A94E2F780FF76C08B2D60E06C
:105AD0000E946F418E819F8101962C813D81281704
