:100000000C9487050C94AF050C94AF050C94AF05C8
:100010000C94AF050C94AF050C94AF050C94AF0590
:100020000C9401090C94AF050C94AF050C94AF052A
:100030000C94AF050C94AF050C94AF050C94AF0570
:100040000C94AF050C94AF050C9414630C94AF059D
:100050000C9415640C945C640C94AF050C94AF057F
:100060000C94AF050C94AF050C94FD5F0C94AF0598
:100070006376006A630064700063700063720075E9
:1000800070006A7000636F006A6F007370006A73BB
:1000900000636D006373006A6E006A6C00646C003C
:1000A0007375006375007777772E72617973686F67
:1000B0006262792E6E6574002F7363726970747357
:1000C0002F776561746865720024442E70793F6CE7
:1000D0006F633D2445266B65793D2445266677761A
:1000E0003D244400485454502F312E3020323030BB
:1000F000204F4B0D0A43616368652D436F6E747228
:100100006F6C3A206D61782D6167653D363034380B
:1001100030302C207075626C69630D0A0D0A002462
:100120004600485454502F312E3020323030204F6A
:100130004B0D0A436F6E74656E742D547970653A79
:1001400020746578742F68746D6C0D0A5072616745
:100150006D613A206E6F2D63616368650D0A4163BE
:10016000636573732D436F6E74726F6C2D416C6C8D
:100170006F772D4F726967696E3A202A0D0A0D0A52
:10018000003C7363726970743E77696E646F772E9A
:100190006C6F636174696F6E3D222F223B3C2F733D
:1001A00063726970743E0A00485454502F312E30E7
:1001B00020323030204F4B0D0A436F6E74656E74E1
:1001C0002D547970653A206170706C69636174694F
:1001D0006F6E2F6A736F6E0D0A436F6E6E6E65637E
:1001E00074696F6E3A20636C6F73650D0A416363C7
:1001F0006573732D436F6E74726F6C2D416C6C6FF1
:10020000772D4F726967696E3A202A0D0A43616340
:1002100068652D436F6E74726F6C3A206E6F2D633C
:10022000616368650D0A0D0A0024467B22726573BE
:10023000756C74223A24447D0024467B22726573D7
:10024000756C74223A24447D0024462446002224FE
:1002500046223A24447D005D002C245300245300A0
:1002600024465B005D2C226E73746174696F6E733B
:10027000223A24447D002C0024440022736E223A4A
:100280005B0024465265626F6F74696E672E2E2E76
:10029000002C2264657870223A24442C226D657803
:1002A00070223A24447D002C00222446223A244421
:1002B00000222446223A244C0024467B003C6D65F3
:1002C0007461206E616D653D2276696577706F722D
:1002D000742220636F6E74656E743D227769647456
:1002E000683D6465766963652D77696474682C6917
:1002F0006E697469616C2D7363616C653D312E307C
:100300002C6D696E696D756D2D7363616C653D3122
:100310002E302C757365722D7363616C61626C6530
:100320003D6E6F223E0D0A003C736372697074204B
:100330007372633D2224452F686F6D652E6A7322A8
:100340003E3C2F7363726970743E0A3C2F626F6487
:10035000793E0A3C2F68746D6C3E0076617220769F
:1003600065723D24442C697061733D24443B3C2FED
:100370007363726970743E0A0024463C21444F4303
:10038000545950452068746D6C3E0A3C68746D6C1D
:100390003E0A3C686561643E0A24463C2F686561FC
:1003A000643E0A3C626F64793E0A3C736372697012
:1003B000743E005B302C305D5D7D005B24442C245A
:1003C0004C2C244C5D2C00305D2C227073223A5B47
:1003D0000024442C002264657674223A244C2C229A
:1003E0006E627264223A24442C22656E223A2444BE
:1003F0002C227264223A24442C227273223A24441E
:100400002C2272647374223A244C2C226C6F632267
:100410003A222445222C2277746B6579223A2224D1
:1004200045222C2273756E72697365223A24442C1E
:100430002273756E736574223A24442C22736269A8
:100440007473223A5B005D7D00225D00225D2C000A
:10045000245300244C5D2C2200244C2C0024445DA9
:100460002C5B0024442C005B24442C24442C244486
:100470002C5B00226E70726F6773223A24442C2228
:100480006E626F61726473223A24442C226D6E7026
:10049000223A24442C226D6E7374223A24442C2276
:1004A000706E73697A65223A24442C227064223A71
:1004B0005B003C6872202F3E3C666F726D206E615F
:1004C0006D653D6F6620616374696F6E3D63752075
:1004D0006D6574686F643D6765743E3C703E3C6258
:1004E0003E5363726970742055524C3A3C2F623E01
:1004F000203C696E70757420747970653D74657800
:10050000742073697A653D3332206D61786C656E55
:100510006774683D3132372076616C75653D222401
:100520004522206E616D653D6A73703E3C2F703EC2
:100530003C703E466163746F7279206465666175D4
:100540006C742075726C2069732024533C62722095
:100550002F3E4966206C6F63616C206F6E2075536F
:100560004420636172642C20757365202E2F3C2F0C
:10057000703E3C703E3C623E50617373776F7264B4
:100580003A3C2F623E3C696E7075742074797065D8
:100590003D70617373776F72642073697A653D3261
:1005A00030206E616D653D70773E3C696E7075748C
:1005B00020747970653D7375626D69743E3C2F706F
:1005C0003E3C6872202F3E3C2F666F726D3E0024C9
:1005D00046005D2C226D61786C656E223A24447D64
:1005E0000073746E5F646973006163745F72656C3D
:1005F00061790069676E6F72655F7261696E006D27
:1006000061736F70002C00222453220022736E61EC
:100610006D6573223A5B002C002444005D2C22247B
:1006200046223A5B004E54502053796E63696E67E0
:100630002E2E2E00446574656374696E67207553B1
:10064000442E2E2E00302E20546573742028312025
:100650006D696E29002E20002000486F6C642042D6
:100660003320746F20737461727400436C69636B20
:1006700020423320746F206C6973740052756E20B1
:10068000612050726F6772616D3A000001080006C8
:1006900004000145000082000040002000504F533C
:1006A0005420244620485454502F312E300D0A48EF
:1006B0006F73743A2024460D0A2446245341636321
:1006C0006570743A202A2F2A0D0A436F6E74656E86
:1006D000742D4C656E6774683A2024440D0A436F8C
:1006E0006E74656E742D547970653A206170706C0B
:1006F00069636174696F6E2F782D7777772D666FD8
:10070000726D2D75726C656E636F6465640D0A0D94
:100710000A24530047455420244624532048545467
:10072000502F312E300D0A486F73743A2024460D35
:100730000A24460D0A0D0A004163636570743A206D
:10074000746578742F68746D6C00E30004FA00011E
:100750000000000166777600747A006E74700064A1
:10076000686370006970310069703200697033002D
:10077000697034006777310067773200677733003C
:10078000677734006870300068703100617200650E
:1007900078740073657100736474006D6173006D2B
:1007A000746F6E006D746F66007572730072736F94
:1007B00000776C0064656E00697061730064657633
:1007C000696400636F6E006C69740064696D007227
:1007D0006C7000757774006E747031006E747032D6
:1007E000006E747033006E747034007265736574DB
:1007F000004669726D77617265207665722E0054CD
:100800005A6F6E653A004E54503F00557365204450
:100810004843503F005374617469632E6970313AE4
:10082000005374617469632E6970323A00537461C5
:100830007469632E6970333A005374617469632E6E
:100840006970343A00476174657761792E69703157
:100850003A00476174657761792E6970323A0047D2
:100860006174657761792E6970333A004761746508
:100870007761792E6970343A004854545020706F73
:1008800072743A00004175746F207265636F6E6E0A
:100890006563743F004578702E20626F6172643A20
:1008A0000053657175656E7469616C3F0053746EB9
:1008B0002064656C61793A004D61732E2073746118
:1008C00074696F6E3A004D61732E20206F6E206147
:1008D000646A2E3A004D61732E206F666620616453
:1008E0006A2E3A005261696E2073656E736F723AB8
:1008F000004E6F726D616C6C79206F70656E3F0099
:10090000252057617465722074696D653A004465ED
:100910007669636520656E61626C653F0049676E4C
:100920002070617373776F72643F004465762E2088
:1009300049443A004C434420636F6E74726173748F
:100940003A004C4344206261636B6C696768743A97
:10095000004C43442064696D6D696E673A005265CE
:100960006C61792070756C73653A005573652077FA
:100970006561746865723F004E54502E6970313A5B
:10098000004E54502E6970323A004E54502E697009
:10099000333A004E54502E6970343A0052657365F4
:1009A0007420616C6C3F004D6F6E0054756500578C
:1009B00065640054687500467269005361740053A1
:1009C000756E00206D73002073656300207365638E
:1009D0000025004E6F00596573002B002B00204747
:1009E0004D54003030003A002D002B000020202014
:1009F00020002D44697361626C6564212D003A000A
:100A000045004D433A003A002E002D0020002020E2
:100A1000003A002000486F6C6420423320746F203D
:100A2000736176650042312F42323A2B2F2D2C20F4
:100A300042333A2D3E003D3D536574204F7074693A
:100A40006F6E733D3D00506C656173652057616941
:100A5000742E2E2E00526573657474696E6720447F
:100A6000657669636500436F6E6E656374696E6772
:100A70002E2E2E007C3C3E5E2B3D3F2F5B5D3B2CA3
:100A80002A225C0000002100240027002A00000028
:100A90002200250028002B00000020002300260053
:100AA00029000202020202020202040404040404F5
:100AB0000404030303030303030301010101010110
:100AC00001010102040810204080010204081020E6
:100AD000408001020408102040808040201008045B
:100AE00002010000000102000000000000000403F9
:100AF00007060000000000000000000000000000E9
:100B00000000A309802DE839AD4D995E3C651124A4
:100B10001FBECFEFD0E1DEBFCDBF13E0A0E0B1E05C
:100B2000E2E4F2ED02C005900D92A43EB107D9F7C0
:100B30001EE0A4EEB3E001C01D92A439B107E1F7B5
:100B40001BE0CEE0DBE004C02297FE010E94E468D7
:100B5000C230D107C9F70E94AC660C941F690C948F
:100B60000000CF93DF93BC018230910510F462E066
:100B700070E0A091920EB091930EED0140E050E034
:100B8000E0E0F0E021C0888199818617970769F439
:100B90008A819B81309719F09383828304C090935C
:100BA000930E8093920EFE0134C06817790738F4D3
:100BB0004115510519F08417950708F4AC01FE01A1
:100BC0008A819B819C01E9012097E9F64115510535
:100BD000A9F1CA01861B970B049708F4BA01E0E05B
:100BE000F0E02AC08D919C91119784179507F9F434
:100BF0006417750781F412968D919C911397309725
:100C000019F09383828304C09093930E8093920E85
:100C1000FD0132964CC0CA01861B970BFD01E80FFF
:100C2000F91F6193719302978D939C9340C0FD01CE
:100C3000828193819C01D9011097A1F68091900E39
:100C40009091910E892B41F48091F2019091F301E2
:100C50009093910E8093900E4091F4015091F50184
:100C60004115510541F44DB75EB78091F001909167
:100C7000F101481B590B2091900E3091910ECA0141
:100C8000821B930B8617970780F0AB014E5F5F4F77
:100C90008417950750F0420F531F5093910E4093C5
:100CA000900EF9016193719302C0E0E0F0E0CF0192
:100CB000DF91CF910895CF93DF93009709F450C04F
:100CC000EC0122971B821A82A091920EB091930E92
:100CD000109709F140E050E0AC17BD0708F1BB8365
:100CE000AA83FE0121913191E20FF31FAE17BF07D6
:100CF00079F48D919C911197280F391F2E5F3F4FEA
:100D00003983288312968D919C9113979B838A83B4
:100D10004115510571F4D093930EC093920E20C0EB
:100D200012968D919C911397AD01009711F0DC0103
:100D3000D3CFFA01D383C28321913191E20FF31F04
:100D4000CE17DF0769F488819981280F391F2E5F3C
:100D50003F4FFA01318320838A819B819383828371
:100D6000DF91CF910895A0E0B0E0E9EBF6E00C94BC
:100D7000EA686C01009729F4CB010E94B1056C016F
:100D8000C1C08EEF882E8FEF982E8C0C9D1C860193
:100D9000060F171F0815190508F4B2C0F401A08149
:100DA000B181A617B707B8F0A530B10508F4AAC0FD
:100DB000CD0104978617970708F4A4C01297A61BC5
:100DC000B70BF801A193B193D4016D937C93CF013C
:100DD0000E945B0697C07B01EA1AFB0AEEEFFFEF69
:100DE000EE0EFF1E36016A0E7B1EC091920ED09150
:100DF000930EAA24BB24442455244AC0C615D70503
:100E0000E1F5488159814E155F05B8F1CA01049793
:100E10008E159F05B0F41296A40FB51FF401B1838F
:100E2000A0832A813B814114510431F0D2011396F1
:100E30003C932E93129766C03093930E2093920E9C
:100E400061C08A819B81F801938382834250504024
:100E50004E195F09518340834114510431F0D2018E
:100E600013961C930E93129704C01093930E009345
:100E7000920EF4017183608345C088819981A81620
:100E8000B90608F45C012E018A819B819C01E9016D
:100E9000209709F0B3CF8091900E9091910E861516
:100EA0009705E9F4A616B706D0F42091F401309125
:100EB000F5012115310541F42DB73EB78091F001C0
:100EC0009091F101281B390B02171307C8F41093F6
:100ED000910E0093900ED4016D937C9313C0CB01BF
:100EE0000E94B105EC01009759F0F4014081518155
:100EF000B6010E94E307C6010E945B066E0102C0B4
:100F0000CC24DD24C601CDB7DEB7E0E10C94066940
:100F1000FC0188279927E89421912032E9F32930B0
:100F200010F02E30C8F32B3241F02D3239F4689492
:100F300004C00E949008820F911D219120532A30F5
:100F4000C0F31EF4909581959F4F08951F93FC0167
:100F500099278827BC01E89411911032E9F31930E0
:100F600010F01E30C8F31B3251F01D3249F4689462
:100F700006C00E947B08610F711D811D911D11919A
:100F800010531A30B0F33EF49095809570956195AA
:100F90007F4F8F4F9F4F1F910895FB01DC0102C0CF
:100FA00005900D9241505040D8F70895FB01DC01A7
:100FB00004C08D910190801921F441505040C8F730
:100FC000881B990B0895FB01DC0102C001900D9272
:100FD00041505040D8F70895DC0101C06D93415055
:100FE0005040E0F70895FC018191861721F0882395
:100FF000D9F7992708953197CF010895FB01DC01B6
:1010000001900D920020E1F70895FB01DC014150B1
:10101000504030F08D910190801919F40020B9F7FB
:10102000881B990B0895FB01DC014150504048F0AA
:1010300001900D920020C9F701C01D92415050400F
:10104000E0F70895A0E0B0E0E8E2F8E00C94F26880
:101050007C01EB018A01690109C0CE012196F601EC
:101060000995F70181937F01015010400115110589
:10107000A1F7CDB7DEB7E8E00C940E69A0E0B0E0D0
:10108000E4E4F8E00C94F268EC017B018A01690168
:1010900009C0CE012196F70161917F01F601099502
:1010A0000150104001151105A1F7CDB7DEB7E8E0FA
:1010B0000C940E69FB019F01E8944230C4F0453264
:1010C000B4F44A3029F497FB1EF4909581959F4F14
:1010D000642F77270E947E68805D8A330CF0895DDB
:1010E0008193CB010097A1F716F45DE25193108232
:1010F000C9010C94D308592F482F372F262F660F7C
:10110000771F881F991F660F771F881F991F620F0F
:10111000731F841F951F660F771F881F991F0895DF
:101120007AE0979F902D879F802D910D112408952F
:10113000FA01CF93FF93EF932230CCF02532BCF429
:10114000C22F2C2F332744275527FF93EF930E945C
:10115000A568EF91FF91605D6A330CF0695D619362
:10116000B901CA01605070408040904051F7108230
:101170008F919F91CF910C94D308FB019F01423036
:1011800074F0453264F4642F77270E947E68805D96
:101190008A330CF0895D8193CB010097A1F710820F
:1011A000C9010C94D308DC01FC01672F71917723EE
:1011B000E1F7329704C07C916D9370836291AE1712
:1011C000BF07C8F308959C01F999FECF32BD21BD38
:1011D000F89A80B508959C01F999FECF1FBA32BDE7
:1011E00021BD60BD0FB6F894FA9AF99A0FBE089522
:1011F000FC01A681B7816D93B783A68381E090E05F
:1012000008951F920F920FB60F9211242F933F93C0
:101210004F935F936F937F938F939F93AF93BF93FE
:10122000EF93FF9380910F088F5F80930F08809159
:101230000F08803128F0E0910D08F0910E08099513
:10124000FF91EF91BF91AF919F918F917F916F919E
:101250005F914F913F912F910F900FBE0F901F9074
:101260001895A1E9B9E080E090E0FC01EF5EF74F4E
:101270001082118212821382FC01EF52F74F10820A
:101280001182128213821D920496803C910569F7A7
:101290001092C9091092CA091092CB091092CC0978
:1012A000F999FECF81E090E092BD81BDF89A80B5BA
:1012B000809310080895982F80911008981708F0CF
:1012C00041C0992309F43EC0892F90E0019727E49B
:1012D00030E0AC01429FC001439F900D529F900DA2
:1012E00011249C012E5F3F4F875B9F4F24C0F999CB
:1012F000FECF32BD21BDF89A50B5F999FECF72BD2F
:1013000061BDF89A40B5F999FECF1FBA32BD21BD33
:1013100040BD0FB6F894FA9AF99A0FBEF999FECF2C
:101320001FBA72BD61BD50BD0FB6F894FA9AF99A12
:101330000FBE2F5F3F4FB901695B7F4F28173907F9
:1013400009F0D5CF08951092D0071092CF0785E508
:1013500093E09093CE078093CD0789E18093D607E1
:101360001092D9071092EC071092F3071092F5072C
:101370000895AF92BF92DF92EF92FF920F931F9367
:10138000CF93DF9300D000D00DEC17E0ADB7BEB720
:1013900012961C930E9311978BE792E014969C93F0
:1013A0008E9313970E947436FF240F900F900F9026
:1013B0000F90D02EE12E98E7A92E92E0B92EC6E725
:1013C000D2E04FC00F2D10E000D000D000D0ADB75C
:1013D000BEB71196EDB7FEB7D182E2821396BC92EA
:1013E000AE921297F80183E0F595E7958A95E1F7BB
:1013F000E754F54F808190E098012770307002C06B
:10140000959587952A95E2F78170907015969C9333
:101410008E9314970E9474368091B80A90E00197D9
:101420002DB73EB72A5F3F4F0FB6F8943EBF0FBEB1
:101430002DBF08171907A1F000D000D0ADB7BEB777
:101440001196DC9211971296EC9212971496DC93F7
:10145000CE9313970E9474360F900F900F900F90B9
:10146000F3942091B80AF21608F4ACCF00D000D063
:1014700000D0EDB7FEB731968DEC97E0ADB7BEB7B3
:1014800012969C938E93119784E692E093838283C5
:10149000248315820E947436EDB7FEB736960FB6D8
:1014A000F894FEBF0FBEEDBFDF91CF911F910F915A
:1014B000FF90EF90DF90BF90AF90089500D000D0E4
:1014C00000D0EDB7FEB731968DEC97E0ADB7BEB763
:1014D00012969C938E93119789EB92E0938382836B
:1014E00088EA91E0958384830E9474368DB79EB715
:1014F00006960FB6F8949EBF0FBE8DBF08950E944A
:101500005E0A0E94B90980E008950F931F9300D0EE
:1015100000D000D0EDB7FEB731960DEC17E0ADB7B7
:10152000BEB712961C930E9311978FEC95E09383A0
:10153000828382E291E0958384830E94743600D096
:10154000EDB7FEB73196ADB7BEB712961C930E93AA
:10155000119782EB94E09383828384E494E09583F3
:10156000848380E091E0978386830E9474368DB7F0
:101570009EB708960FB6F8949EBF0FBE8DBF80E051
:101580001F910F9108958F929F92AF92BF92DF9219
:10159000EF92FF920F931F93CF93DF93EB0100D055
:1015A00000D000D0EDB7FEB731960DEC17E0ADB727
:1015B000BEB712961C930E9311972CE136E033833D
:1015C0002283958384830E947436FF24EDB7FEB78F
:1015D00036960FB6F894FEBF0FBEEDBFD02EE12EAB
:1015E00039E1832E36E0932E27E1A22E26E0B22E9B
:1015F00040C000D000D000D0ADB7BEB71196EDB757
:10160000FEB7D182E28213969C928E9212970F2D92
:1016100010E0FE01E00FF11F808114968C93149767
:1016200015961C920E9474368091B70A90E001973B
:101630002DB73EB72A5F3F4F0FB6F8943EBF0FBE9F
:101640002DBF08171907A1F000D000D0ADB7BEB765
:101650001196DC9211971296EC9212971496BC9206
:10166000AE9213970E9474360F900F900F900F90C8
:10167000F3948091B70AF81608F4BBCFDF91CF91AD
:101680001F910F91FF90EF90DF90BF90AF909F90D0
:101690008F9008950F931F93CF93DF9380918B0AC0
:1016A000882329F486EA90E060E00E945037109287
:1016B000D0071092CF070AE114E01093D2070093ED
:1016C000D1071093D4070093D3078DB79EB70C971B
:1016D0000FB6F8949EBF0FBE8DBFEDB7FEB7319623
:1016E0008DEC97E0ADB7BEB712969C938E93119791
:1016F00089EC90E093838283809107038483158231
:1017000084E194E09783868384E894E091878087DE
:1017100080914D02828713860E947436E801A8E604
:10172000B7E08DB79EB70C960FB6F8949EBF0FBE6C
:101730008DBF35E222E390E301C01196899180329A
:1017400041F4FD01319311962C939183DF011296A0
:10175000F5CF8C93882389F78091B10A8F77809396
:10176000B10A88EB90E068E677E046EA50E02EE2C6
:101770003CE00E94502EDF91CF911F910F91089570
:10178000AF92BF92CF92DF92EF92FF920F931F938F
:101790007B018C018091B20A82958F7079F58091DE
:1017A000B10A83FD2BC087FF03C084E893E002C029
:1017B0008AE090E02091E70A3091E80A4091E90A36
:1017C0005091EA0A211531054105510569F057018B
:1017D0006801A21AB30AC40AD50AA0E0B0E08A15CB
:1017E0009B05AC05BD0550F4E092E70AF092E80ACB
:1017F0000093E90A1093EA0A0E944A0B1F910F9185
:10180000FF90EF90DF90CF90BF90AF9008950F932F
:101810001F9368E677E044E62FE131E000E010E056
:101820000E940335882311F480E115C088E697E013
:101830000E9488079C018FEF2F3F38075CF0809152
:10184000100890E0281739072CF4822F0E945B09BA
:1018500081E001C081E11F910F9108950F931F93C3
:10186000CF93DF93EB01CC51DC4F01C021968881EF
:10187000882309F475C08632C9F764C088E697E00A
:101880000E9488079C0185E0213A380720F43093B4
:10189000AA0A2093A90ACE0168E677E044E623E28B
:1018A00031E000E010E00E940335882369F088E60B
:1018B00097E00E9488079C0185E0213A380720F4D0
:1018C0003093AC0A2093AB0A0E94C03DCE0168E67B
:1018D00077E044E62AE231E000E010E00E940335C0
:1018E000882359F088E697E00E9488078B3F91058E
:1018F00020F48093D7020E946939CE0168E677E030
:1019000044E620E331E000E010E00E940335882344
:1019100099F088E697E00E9488078136910560F487
:10192000809353021092E30A1092E40A1092E50A9F
:101930001092E60A0E9469398091B10A806880930A
:10194000B10A0EC0CE0168E677E044E623E331E059
:1019500000E010E00E940335882309F49CCF8ECF6D
:10196000DF91CF911F910F9108956F927F928F9287
:101970009F92BF92CF92DF92EF92FF920F931F93AD
:10198000DF93CF93CDB7DEB728970FB6F894DEBFBD
:101990000FBECDBF80910D038983809113038A838D
:1019A000809119038B8380911F038C83BB243E019C
:1019B0000894611C711C45E0842E912C8C0E9D1E98
:1019C00060913E026F5F60933E02C3010E94D1307E
:1019D0000E9468636B017C0188EE93E0A0E0B0E0B8
:1019E000C80ED91EEA1EFB1E0E9410478C010E94E1
:1019F0006F31012B09F441C0C40160913E020E9485
:101A0000042E8823D1F1ED80FE800F81188580ECB3
:101A100098EDA4E5BCE7E80EF91E0A1F1B1F6091B4
:101A2000530270E080E090E024E833E040E050E0D2
:101A30000E945368E60EF71E081F191F08C0B394D2
:101A400094E1B91609F0BCCFEE24FF248701B70159
:101A5000C80128960FB6F894DEBF0FBECDBFCF9158
:101A6000DF911F910F91FF90EF90DF90CF90BF908B
:101A70009F908F907F906F9008950E9468636C157F
:101A80007D058E059F0508F4AFCFD9CF0F931F9327
:101A9000DF93CF93CDB7DEB76E970FB6F894DEBF66
:101AA0000FBECDBF8C0185ED97E0B8010E94C14803
:101AB000882309F47AC0CE010196B80141E00E9462
:101AC0004F5E00D000D000D0EDB7FEB731968DEC60
:101AD00097E0ADB7BEB712969C938E9311978FE1A6
:101AE00091E09383828384EE90E0958384830E94C7
:101AF00074368DB79EB706960FB6F8949EBF0FBE8C
:101B00008DBF8091D3079091D4072091D107309158
:101B1000D207821B930B60E140E00E94432F10929A
:101B2000D0071092CF078AE194E09093D207809378
:101B3000D1079093D4078093D3078E010B5F1F4F7B
:101B400019C0C8016AE174E040E052E00E944351CC
:101B50009C01442737FD4095542F203092E03907EF
:101B600090E0490790E05907B0F0C90160E143E017
:101B70000E94432F2F89388D498D5A8D8F859889E2
:101B8000A989BA89281739074A075B07D1F620E0E7
:101B900030E040E050E0C90161E143E00E94432FA2
:101BA000CE0105960E941D5181E06E960FB6F89405
:101BB000DEBF0FBECDBFCF91DF911F910F91089572
:101BC000CF93DF939C0110926807FC01A081B18143
:101BD000C0E0D0E00FC09C919D3231F09B3221F0EB
:101BE000892F80538A3068F4FE01E859F84F9083BA
:101BF00021961196F901808191810A96A817B9075B
:101C000050F3C859D84F18821196F901B183A083B7
:101C100088E697E00E94A607CB01DF91CF91089557
:101C20006F927F928F929F92AF92BF92CF92DF92EC
:101C3000FF920F931F93DF93CF9300D00F92CDB7F6
:101C4000DEB75C016A01DE011196EEE5F3E083E0A8
:101C500001900D928150E1F76983FF2452E0652ED7
:101C6000712C6C0E7D1E4E010894811C911C1BC0B2
:101C70008F2D90E0B3014AE050E00E945A08C50160
:101C800068E677E044E6940100E010E00E94033546
:101C9000882341F088E697E00E948807F601EF0D5F
:101CA000F11D8083F3948091B70AF81608F30F9022
:101CB0000F900F90CF91DF911F910F91FF90DF90C8
:101CC000CF90BF90AF909F908F907F906F9008952E
:101CD0000F931F930E946D2B8DB79EB708970FB679
:101CE000F8949EBF0FBE8DBFEDB7FEB731960DECD9
:101CF00017E0ADB7BEB712961C930E93119789E704
:101D000093E09383828382E291E0958384838DEBD9
:101D100092E0978386830E947436EDB7FEB73196C2
:101D2000ADB7BEB712961C930E9311978BE593E057
:101D30009383828382ED90E0958384838091E30294
:101D4000868317820E9474360F900F90EDB7FEB70E
:101D50003196ADB7BEB712961C930E93119788E2D9
:101D600093E09383828384E494E0958384830E9448
:101D700074368DB79EB706960FB6F8949EBF0FBE09
:101D80008DBF80E01F910F9108954F925F926F92E7
:101D90007F928F929F92AF92BF92CF92DF92EF92FB
:101DA000FF920F931F93DF93CF930F92CDB7DEB7C0
:101DB0000E946D2B5B016C012DB73EB72C5130405A
:101DC0000FB6F8943EBF0FBE2DBFEDB7FEB73196EC
:101DD0000DEC17E0ADB7BEB712961C930E9311979A
:101DE00085ED93E093838283A482B582C682D782F5
:101DF0008091B70A808711868091B10A81708287AD
:101E000013868091B10A86958170848715868091AA
:101E1000B10A869586958170868717868091AD0A6E
:101E20009091AE0AA091AF0AB091B00A808B918BCD
:101E3000A28BB38B84E194E0958B848B84E894E04F
:101E4000978B868B8091A90A9091AA0A918F808F97
:101E50008091AB0A9091AC0A938F828F0E94743666
:101E600090E0EDB7FEB77C960FB6F894FEBF0FBEBC
:101E7000EDBF780101ED13E023C000D000D000D009
:101E8000EDB7FEB73196ADB7BEB71196EC9211978C
:101E90001296FC9213830283A92FB0E0A754B54F8A
:101EA0008C918483158299830E94743699819F5FF7
:101EB000EDB7FEB736960FB6F894FEBF0FBEEDBF76
:101EC0008091B70AFDEC6F2EF7E07F2E9817A8F2ED
:101ED00000D000D0ADB7BEB712967C926E9211972B
:101EE00087EC93E014969C938E9313970E9474361C
:101EF00099240F900F900F900F90C301762C892E8C
:101F0000EBEB4E2EE3E05E2E64C0A92DB0E0FD01A8
:101F1000EF56F64F6081662329F420E030E040E080
:101F200050E025C0CD01880F991F880F991FFC0133
:101F3000EF5EF74FE080F18002811381FC01EF52E8
:101F4000F74FAE14BF04C006D10648F0208131819E
:101F5000428153812A193B094C095D0908C020813F
:101F60003181428153812E193F09400B510BEDB74E
:101F7000FEB73E970FB6F894FEBF0FBEEDBF0DB78C
:101F80001EB70F5F1F4F71828282F8015382428217
:101F9000648315822683378340875187AA0FBB1F2E
:101FA000AA0FBB1FAF5EB74F8D919D910D90BC9155
:101FB000A02D82879387A487B5870E947436939457
:101FC0002DB73EB7225F3F4F0FB6F8943EBF0FBE0E
:101FD0002DBF8091B80A981608F497CF00D000D092
:101FE0008DEC97E0ADB7BEB712969C938E93119788
:101FF00083EB93E014969C938E9313970E94743610
:102000000F900F900F900F900F90CF91DF911F9135
:102010000F91FF90EF90DF90CF90BF90AF909F9087
:102020008F907F906F905F904F9008950E945E0A0E
:102030000E94C50E80E00895BF92CF92DF92EF928A
:10204000FF920F931F936C01FC01B080E1800E940E
:102050006D2B20E831E541E050E00E94A5682B0D92
:10206000311D411D511DFF2400E010E0CA01B901DE
:10207000A80197010E94A568F60160831F910F9146
:10208000FF90EF90DF90CF90BF9008958F929F9236
:10209000AF92BF92CF92DF92EF92FF920F931F9376
:1020A0004C01FC01A180E080FF24EA0CF11C002718
:1020B000F7FC0095102F0E946D2BBB24CC24DD244F
:1020C00020E831E541E050E00E94A568CA01B9016D
:1020D000A60195010E94A568E61AF70A080B190BDC
:1020E000C801B701A60195010E94A568F4016083AB
:1020F0001F910F91FF90EF90DF90CF90BF90AF9026
:102100009F908F9008950E946D2BAB01BC01809130
:10211000B80AE1E9F9E0A1EDB8E0282F30E02E0F90
:102120003F1F0AC08081882329F04D935D936D93F2
:102130007C93139731961496E217F30799F7089555
:10214000EF92FF920F931F93DF93CF93CDB7DEB73C
:10215000C456D0400FB6F894DEBF0FBECDBF7C0191
:1021600068E677E044E62BE331E000E010E00E940F
:102170000335882311F480E127C0C7017E0108944C
:10218000E11CF11CB70144E62FE331E000E010E070
:102190000E9403358823B9F088E697E0B70140E153
:1021A00050E00E940508009771F488E697E00E94CD
:1021B00058351092880784EF93E068E677E00E9434
:1021C000B83881E001C083E0CC59DF4F0FB6F894F6
:1021D000DEBF0FBECDBFCF91DF911F910F91FF905A
:1021E000EF9008950F931F9368E677E044E623E4A9
:1021F00031E000E010E00E940335882361F088E6BA
:1022000097E00E9458351092A80784E494E068E6AD
:1022100077E00E94B8388FEF1F910F910895EF92E9
:10222000FF920F931F93CF93DF93EC0168E677E063
:1022300044E627E431E000E010E00E940335882303
:1022400011F00E948310CE0168E677E044E62BE4AB
:1022500031E000E010E00E9403358823B9F188E600
:1022600097E00E9488071816190684F500D000D060
:1022700000D0EDB7FEB731968DEC97E0ADB7BEB7A5
:1022800012969C938E93119782E892E093838283B7
:1022900082E291E0958384830E9474368DB79EB765
:1022A00006960FB6F8949EBF0FBE8DBF8091D307E0
:1022B0009091D4072091D1073091D207821B930BC4
:1022C00061E140E00E94432F0E947238CE0168E62F
:1022D00077E044E62FE431E000E010E00E940335AF
:1022E000882399F080916807813339F48091B10A8D
:1022F00080FD0BC00E94963908C0803331F4809174
:10230000B10A80FF02C00E94A139CE0168E677E0E1
:1023100044E622E531E000E010E00E940335882326
:1023200061F188E697E00E948807EC01181619060B
:10233000F4F40E946D2B7B018C01BE01882777FD90
:102340008095982F20E13EE040E050E00E945368E5
:10235000E60EF71E081F191FE092AD0AF092AE0AB2
:102360000093AF0A1093B00A0E94DB3D06C00097AD
:1023700011F081E103C00E94CB3D81E0DF91CF915C
:102380001F910F91FF90EF9008952F923F924F92DF
:102390005F926F927F928F929F92AF92BF92CF92F5
:1023A000DF92EF92FF920F931F93DF93CF93CDB7FE
:1023B000DEB728970FB6F894DEBF0FBECDBF7B0106
:1023C0008C014A830894E11CF11C011D111D8091B0
:1023D000B3020E94C7399C018A818823A9F08091A9
:1023E000C9099091CA09A091CB09B091CC09009775
:1023F000A105B10549F079010027F7FC0095102FE0
:10240000E80EF91E0A1F1B1F9091B80A998380914C
:10241000B30A282E33244091B10A46954695469535
:10242000417050E081E0882E912C2901662457FCF0
:102430006094762C65C0E52FF0E02814390409F487
:102440005BC0CF01880F991F880F991FBC016F5285
:10245000774FDB01AD90BD90CD90DC90A114B1041D
:10246000C104D10409F448C09C012F5E374F3C835E
:102470002B83D9018D919D910D90BC91A02D00973A
:10248000A105B105C9F5A3E0F695E795AA95E1F791
:10249000E754F54F808190E0252F277002C0959575
:1024A00087952A95E2F780FD27C0D601C5018E0DDC
:1024B0009F1DA01FB11FEA81EE2391F0EB81FC81EB
:1024C000E082F18202831383FB0180839183A283E4
:1024D000B3837C018D01E40CF51C061D171D0BC098
:1024E000EB81FC81E082F18202831383FB01808314
:1024F0009183A283B38341E05F5F0894811C911CA8
:10250000F9815F1708F497CF4170440F440F440FCF
:102510008091B10A877F842B8093B10A28960FB6E9
:10252000F894DEBF0FBECDBFCF91DF911F910F9109
:10253000FF90EF90DF90CF90BF90AF909F908F90E3
:102540007F906F905F904F903F902F9008958F9263
:102550009F92AF92BF92CF92DF92EF92FF921F9322
:10256000CF93DF93CDE4D2E010E04DECE42E47E0D2
:10257000F42E37EA832E32E0932E29EAA22E22E0AF
:10258000B22E91EBC92E92E0D92E8881282F30E00F
:1025900040E050E0143129F42C533040404050408A
:1025A0003AC01E3159F4CA01B9012AE030E040E0D6
:1025B00050E00E9453689B01AC012DC0113159F5C8
:1025C0000E94C7392DB73EB72A5030400FB6F89455
:1025D0003EBF0FBE2DBFEDB7FEB73196ADB7BEB74C
:1025E0001296FC92EE921197D382C2822C813D8189
:1025F00035832483A0E0B0E086839783A087B187EA
:102600000E947436EDB7FEB73A960FB6F894FEBF47
:102610000FBEEDBF27C08DB79EB70A970FB6F894CF
:102620009EBF0FBE8DBFEDB7FEB73196ADB7BEB73B
:102630001296FC92EE921197B382A2828C819D81B8
:102640009583848326833783408751870E9474361D
:10265000EDB7FEB73A960FB6F894FEBF0FBEEDBFCA
:10266000143291F000D000D0ADB7BEB71296FC92F4
:10267000EE92119714969C928E9213970E94743644
:102680000F900F900F900F901F5F2696153209F054
:102690007CCF0E94973DEDB7FEB738970FB6F89400
:1026A000FEBF0FBEEDBF31962DEC37E0ADB7BEB724
:1026B00012963C932E93119721E932E033832283C3
:1026C0008483158285E090E0978386830E94743628
:1026D000EDB7FEB738960FB6F894FEBF0FBEEDBF4C
:1026E000DF91CF911F91FF90EF90DF90CF90BF903F
:1026F000AF909F908F9008950E945E0A0E94A7124B
:1027000080E008958F929F92AF92BF92CF92DF9216
:10271000FF920F931F93DF93CF9300D000D0CDB7DC
:10272000DEB76C0183E789831A821B821C82FF2437
:1027300052E0852E912C8C0E9D1E5E010894A11CEA
:10274000B11C1CC08F2D90E0B4014AE050E00E9403
:102750005A08C60168E677E044E6950100E010E01B
:102760000E940335882349F088E697E00E94583597
:102770008F2D68E677E00E949638F3948091B80A2E
:10278000F81600F3C6016DE64FEB5AE00E94100EFA
:1027900084EA97E06FEB7AE00E94E33DC60169E6C8
:1027A00045EC5AE00E94100E8AEA97E065EC7AE068
:1027B0000E94E33DC60161E64BEC5AE00E94100E18
:1027C00080EB97E06BEC7AE00E94E33DC60164E6A3
:1027D00041ED5AE00E94100E86EB97E061ED7AE041
:1027E0000E94E33D81E00F900F900F900F90CF91EA
:1027F000DF911F910F91FF90DF90CF90BF90AF902E
:102800009F908F900895AF92BF92CF92DF92EF92F8
:10281000FF920F931F93CF93DF9300D000D00DEC66
:1028200017E0ADB7BEB712961C930E9311978CE0CC
:1028300096E014969C938E9313970E947436FF240F
:102840000F900F900F900F90E02E012F78E6A72E9B
:1028500077E0B72E67E0C62E66E0D62EC5E0D6E05C
:102860003EC08F2D68E677E00E94783800D000D017
:1028700000D0EDB7FEB73196ADB7BEB71196EC926A
:10288000119712960C93D382C282B582A4820E94C1
:1028900074362F2D30E08091B80A90E00197EDB7A3
:1028A000FEB736960FB6F894FEBF0FBEEDBF2817E1
:1028B0003907A1F000D000D0ADB7BEB71196EC92A9
:1028C000119712960C9312971496DC93CE9313974C
:1028D0000E9474360F900F900F900F90F394809198
:1028E000B80AF81608F4BDCF8FEF95E06FEB7AE0E9
:1028F0000E94C30A83EF95E065EC7AE00E94C30A68
:1029000089EE95E06BEC7AE00E94C30A81EE95E0D7
:1029100061ED7AE00E94C30A00D000D000D0EDB78C
:10292000FEB731968DEC97E0ADB7BEB712969C938B
:102930008E93119782ED95E09383828380E190E0FE
:10294000958384830E947436EDB7FEB736960FB632
:10295000F894FEBF0FBEEDBFDF91CF911F910F9195
:10296000FF90EF90DF90CF90BF90AF9008950E94BE
:102970005E0A0E94031480E008950F931F939C0148
:102980008091E3028823A9F4C90168E677E044E670
:1029900025E531E000E010E00E940335882351F086
:1029A00088E697E00E94583588E697E00E94DD3877
:1029B000811181E01F910F910895DF92EF92FF92B4
:1029C0000F931F93CF93DF93EC010E94CF2F1092B0
:1029D000D0071092CF078AE194E09093D2078093BA
:1029E000D1079093D4078093D307BE016B5F7F4FCD
:1029F000FD8080E2F81621F0EC2EDD2EFE0104C0F1
:102A0000CB010E94680E18C18581882359F080325D
:102A100049F08A3039F08F3329F031968F32A1F79F
:102A200052E1B1C050E0AFC0C52FD0E0FE01EE0FC3
:102A3000FF1FEE0FFF1FEA50FE4F0190F081E02DC7
:102A4000849190E08017910709F005C13196849137
:102A500090E04C91242F332727FD30958217930760
:102A600009F0F9C093E7F91669F44537D9F5CC0FA9
:102A7000DD1FCC0FDD1FC850DE4FE881F981CB018F
:102A8000039641C0AAE6FA1669F54F3659F58B014F
:102A90000D5F1F4FC8010E94BD14882359F50E9485
:102AA0005E0A8DB79EB708970FB6F8949EBF0FBE0B
:102AB0008DBFEDB7FEB731968DEC97E0ADB7BEB7E1
:102AC00012969C938E9311978EE492E09383828367
:102AD00080915102909152029583848380914D029E
:102AE00086834FC08B010D5F1F4FC8010E94BD142C
:102AF000882361F1CC0FDD1FCC0FDD1FC850DE4FE6
:102B0000E881F981C8010995282F882309F494C028
:102B10008F3FE9F4ADB7BEB718970FB6F894BEBFB4
:102B20000FBEADBFEDB7FEB731968DEC97E01296B4
:102B30009C938E93119789E492E09383828382E23F
:102B400091E09583848381E891E06AC022E0ADB78B
:102B5000BEB718970FB6F894BEBF0FBEADBFEDB7A6
:102B6000FEB731968DEC97E012969C938E93119759
:102B700089E392E09383828388EA91E0958384835A
:102B8000268317824FC00F2D112707FD1095DB01FB
:102B90001196523109F048CF8091B10A85FF4CC09F
:102BA000C8E6D7E08E2D9D2D9C01D90101C08993E7
:102BB000EA2FEE1915968C911597803229F011960F
:102BC00097E0C838D90799F7F0E0E859F84F108234
:102BD00085ED97E068E571E040E00E94E04888E616
:102BE00097E00E94460D8823C1F5ADB7BEB7189790
:102BF0000FB6F894BEBF0FBEADBFEDB7FEB73196AE
:102C00008DEC97E012969C938E93119789E292E057
:102C10009383828388EA91E09583848380E290E0C5
:102C2000978386830E9474368DB79EB708960FB639
:102C3000F8949EBF0FBE8DBF8091D3079091D407AB
:102C40002091D1073091D207821B930B61E140E0C4
:102C50000E94432F02C05F5F9CCFDF91CF911F91F5
:102C60000F91FF90EF90DF9008958F929F92AF9217
:102C7000BF92CF92DF92EF92FF920F931F93CF9369
:102C8000DF93EC017A018B01CB01BA010E945A2A31
:102C90004C01C801B7010E94542A5C01888180FF61
:102CA000ACC0C801B7010E94482AC82EC801B701AC
:102CB0000E944E2AD82E88818295837090E08230BF
:102CC0009105B1F083309105F1F0892BB1F529819F
:102CD00030E08C2D90E0059667E070E00E949268ED
:102CE00002C0359527958A95E2F720FD26C085C05C
:102CF0002D2D30E0898190E08F7190702817390771
:102D000009F07BC01AC0C801B70120E831E541E0F5
:102D100050E00E94A568CA01B9012A8130E040E074
:102D200050E00E94A568298130E040E050E0621741
:102D300073078407950709F060C08881869586959A
:102D40008370B9F0823019F4D0FE13C056C08130C0
:102D500081F48FE1D81609F450C08DE1D81609F03E
:102D60005BC0C801B7010E94422A029709F054C013
:102D700044C08CE390E0889E9001899E300D989E1F
:102D8000300D11242A0D3B1D888186FD29C00D813F
:102D90001E81EF81F8858B819C812817390768F1A6
:102DA0000115110529F460E02817390739F51FC00E
:102DB000309719F1281B390BC901BF010E947E68A9
:102DC000AB016E9FC0016F9F900D7E9F900D1124EF
:102DD0008217930791F460E0041715077CF007C091
:102DE000FE0140E0838194812817390711F461E0E6
:102DF00005C04F5F32964430A9F760E0862FDF911F
:102E0000CF911F910F91FF90EF90DF90CF90BF90E7
:102E1000AF909F908F900895D0FCABCFEECF982FBE
:102E20009B0180911008981768F467E4969FB001A1
:102E300011246E5F7F4FC90147E450E023EE38E074
:102E40000E94220808952F923F924F925F926F92B4
:102E50007F928F929F92AF92BF92CF92DF92EF922A
:102E6000FF920F931F93DF93CF93CDB7DEB7C75475
:102E7000D0400FB6F894DEBF0FBECDBF2DB73EB722
:102E80002E5030400FB6F8943EBF0FBE2DBFEDB7A9
:102E9000FEB731960DEC17E0ADB7BEB712961C9396
:102EA0000E93119783E794E09383828380911008B7
:102EB000848315828091B70A868317828EE090E022
:102EC0009187808784E090E0938782878CE090E010
:102ED000958784870E947436EE24EDB7FEB73E9640
:102EE0000FB6F894FEBF0FBEEDBFF02E012F53E6D4
:102EF000C52E54E0D52E4CE0642E712C6C0E7D1E38
:102F00008F2C912E39E4232E34E0332E2CE4422EE4
:102F100024E0522E9AE1A92E94E0B92E57C18E2DAD
:102F2000BE016F5F7F4F0E940F178981829583706A
:102F3000833039F48B81823020F0CE0102960E94DA
:102F400046102DB73EB72A5030400FB6F8943EBF1A
:102F50000FBE2DBFEDB7FEB73196ADB7BEB7119618
:102F6000FC92119712960C9327E634E03383228368
:102F70008981848315828A81868317828B818087E9
:102F800011860E9474360F900F900F900F90EDB73E
:102F9000FEB73196ADB7BEB71196FC921197129657
:102FA0000C93D382C2828C819D81958384830E94FD
:102FB0007436EDB7FEB73196ADB7BEB71196FC9239
:102FC000119712960C93D382C2828E819F81958332
:102FD00084830E947436EDB7FEB73196ADB7BEB7A5
:102FE0001196FC92119712960C93D382C282888517
:102FF0009985958384830E947436EDB7FEB7319628
:10300000ADB7BEB71196FC92119712960C932DE5B1
:1030100034E0338322838A859B85958384830E9451
:10302000743610E04DB75EB74A5F5F4F26C0E60DBD
:10303000F71D80810E94C739ADB7BEB718970FB68C
:10304000F894BEBF0FBEADBFEDB7FEB73196119677
:10305000FC92119712960C9329E534E03383228376
:10306000A0E0B0E084839583A683B7830E94743682
:103070001F5F4DB75EB7485F5F4F0FB6F8945EBFF6
:103080000FBE4DBFE12FF0E08091B80A90E00197AC
:10309000E817F90764F2E60DF71D80810E94C73931
:1030A000ADB7BEB718970FB6F894BEBF0FBEADBF91
:1030B000EDB7FEB7319611968C92119712969C92AD
:1030C00023E534E033832283A0E0B0E0848395835A
:1030D000A683B7830E9474364DB75EB7485F5F4FD3
:1030E0000FB6F8945EBF0FBE4DBF88E697E0BE01F5
:1030F000645C7F4F4CE050E00E941308109274070C
:1031000000D000D000D0EDB7FEB73196ADB7BEB756
:1031100011968C92119712969C9220E534E033839D
:10312000228348E657E0558344830E9474362E2D4F
:1031300030E08091100890E00197ADB7BEB71696C9
:103140000FB6F894BEBF0FBEADBF2817390749F0C0
:1031500000D000D0EDB7FEB7F182028354824382E3
:103160000EC000D000D0ADB7BEB71196FC9211973B
:1031700012960C93129714963C922E9213970E94DB
:1031800074360F900F900F900F908E2D63E00E9479
:1031900072689230D1F48091D3079091D407209136
:1031A000D1073091D207821B930B60E140E00E946F
:1031B000432F1092D0071092CF07B092D207A0925F
:1031C000D107B092D407A092D307E394809110085E
:1031D000E81608F4A4CE00D000D08DEC97E0EDB74F
:1031E000FEB79283818386E494E0948383830E9474
:1031F00074360F900F900F900F90C95BDF4F0FB692
:10320000F894DEBF0FBECDBFCF91DF911F910F911C
:10321000FF90EF90DF90CF90BF90AF909F908F90F6
:103220007F906F905F904F903F902F9008950E94F5
:103230005E0A0E94231780E00895DF92EF92FF92CA
:103240000F931F93DF93CF93CDB7DEB7C754D04012
:103250000FB6F894DEBF0FBECDBF209110088217C5
:1032600008F046C0222309F443C090E0019627E409
:1032700030E0829F8001839F100D929F100D1124DA
:103280000E5F1F4F67E4D62E7E010894E11CF11CEF
:1032900014C0C701B80147E450E023EE38E00E94B3
:1032A0002208C80187549040B70147E450E02BEE54
:1032B00038E00E943E08095B1F4F209110082D9DA9
:1032C000C001112402960817190718F32150209302
:1032D0001008F999FECF1FBA81E090E092BD81BD40
:1032E00020BD0FB6F894FA9AF99A0FBE81E001C09A
:1032F00080E0C95BDF4F0FB6F894DEBF0FBECDBFD5
:10330000CF91DF911F910F91FF90EF90DF90089583
:103310000F931F9368E677E044E62FE131E000E089
:1033200010E00E940335882311F480E125C088E66F
:1033300097E00E9488079C018FEF2F3F380781F4A8
:1033400010921008F999FECF1FBA81E090E092BD6B
:1033500081BD10BC0FB6F894FA9AF99A0FBE0BC053
:103360008091100890E02817390714F081E104C01B
:10337000822F0E941D1981E01F910F910895982FAF
:1033800080911008981710F080E0089587E4989FC6
:10339000C0011124029647E450E02BEE38E00E9471
:1033A0003E0881E00895BC01909110089E3010F015
:1033B00080E0089587E4989FC0011124029647E4B5
:1033C00050E02BEE38E00E943E08209110082F5F5D
:1033D00020931008F999FECF1FBA81E090E092BDCA
:1033E00081BD20BD0FB6F894FA9AF99A0FBE81E01C
:1033F0000895BF92CF92DF92EF92FF920F931F93A7
:10340000DF93CF93CDB7DEB7C954D0400FB6F89451
:10341000DEBF0FBECDBF7C0168E677E044E62FE15A
:1034200031E000E010E00E940335882309F4D7C0A2
:1034300088E697E00E9488076C012FEF8F3F920784
:103440000CF4CFC08091100890E0C816D9060CF09B
:10345000C8C0FA82E98284E690E0E80EF91E0DC049
:10346000C8016AE571E043E050E00E94050800975A
:1034700079F00F5F1F4F1A83098309811A81F801C0
:103480008081882309F4ABC00E151F0548F3A7C03F
:103490000D5F1F4F1A8309838E010F5F1F4FC801F5
:1034A0000E94E00D8B83C8010E94E00D8C83C8014F
:1034B0000E94E00D8D8389819A8101969A83898388
:1034C000C8010E94E00D9F838E83C8010E94E00D19
:1034D00099878887C8010E94E00D9B878A87C80169
:1034E0000E94E00D9D878C8789819A8102969A833C
:1034F0008983FF24B02EE12E8E01025F1F4F0BC087
:103500008B2D9E2D0E94E00D0E94AB39F801EF0D2E
:10351000F11D8083F3948091B80AF81688F38981AD
:103520009A8102969A83898368E677E044E62EE5DD
:1035300031E000E010E00E9403358E01025C1F4F75
:10354000882361F088E697E00E945835C80168E654
:1035500077E04CE050E00E9413081EC0C80163E60B
:1035600071E00E94FE07FFEFCF16FFEFDF0621F4A8
:103570008091100890E001C0C6010196BE016A5B0F
:103580007F4F4AE050E00E945A0806C0FC01EF0D50
:10359000F11D1082F39402C0CE010E962FE22F157A
:1035A000A8F78B8182958370833039F48D818230C6
:1035B00020F0CE0104960E941C10BE016D5F7F4F6B
:1035C0008FEFC8168FEFD80621F4CB010E94D319D4
:1035D00003C08C2D0E94BF19882329F402C080E10A
:1035E00003C081E101C081E0C75BDF4F0FB6F894F3
:1035F000DEBF0FBECDBFCF91DF911F910F91FF9026
:10360000EF90DF90CF90BF900895EF92FF920F93CD
:103610001F93DF93CF93CDB7DEB727970FB6F894FC
:10362000DEBF0FBECDBF7C0185ED97E068E571E0A0
:1036300040E00E94E0488E010F5F1F4FC80161E625
:1036400073E00E941A68C801B7010E94D767C801D9
:103650006CE671E00E94D767C80168E677E044E64F
:1036600050E020E030E00E94BB66C8010E944D6837
:1036700027960FB6F894DEBF0FBECDBFCF91DF9176
:103680001F910F91FF90EF9008952F923F925F92BC
:103690006F927F928F929F92AF92BF92CF92DF9262
:1036A000EF92FF920F931F93DF93CF93CDB7DEB7C7
:1036B0006E970FB6F894DEBF0FBECDBF5C01809150
:1036C000B10A85FD02C080E220C1C50168E677E04D
:1036D00044E621E731E000E010E00E940335882352
:1036E00009F410C188E697E00E94A6076B017C01EF
:1036F000C50168E677E044E627E731E00E9403353C
:10370000882309F4FFC0C701B60120E831E541E094
:1037100050E00E94C76869017A0188E697E00E943C
:10372000A60720E831E541E050E00E94C768590152
:103730002C153D0508F4E8C0C9018C199D098E5669
:10374000914008F0E1C000D000D000D0EDB7FEB746
:1037500031960DEC17E0ADB7BEB712961C930E93E1
:10376000119780E692E09383828388EA91E09583C3
:1037700084830E947436EE24FF2477247394EDB77B
:10378000FEB736960FB6F894FEBF0FBEEDBFE8E663
:103790002E2EE7E03E2E75E0872E912C8C0E9D1E7E
:1037A000502E612E0AE114E095C0C60168E677E06C
:1037B0004AE050E00E945A0888E697E00E94051B04
:1037C00085ED97E068E677E00E94C148882309F418
:1037D0007EC01D821F821C821B828FEB93E09A8326
:1037E0008983C40168E677E041E00E94195901C06D
:1037F0007724C40168E677E043E650E020E030E05B
:103800000E9436541816190624F0C4010E941D5156
:103810005EC0FC01E959F84F80818A3009F41082BA
:10382000772081F000D000D000D0EDB7FEB7319600
:10383000ADB7BEB711965C92119712966C928DE55A
:1038400092E00FC000D000D000D0EDB7FEB73196A7
:10385000ADB7BEB711965C92119712966C9289E53E
:1038600092E093838283358224820E947436ADB7BE
:10387000BEB716960FB6F894BEBF0FBEADBF089484
:10388000E11CF11CC70169E170E00E949268892B7C
:1038900009F0AECF8091D3079091D4072091D10742
:1038A0003091D207821B930B60E140E00E94432FCE
:1038B0001092D0071092CF071093D2070093D10730
:1038C0001093D4070093D307EE24FF2491CF0894DC
:1038D000C11CD11CAC14BD0408F067CF00D000D0CF
:1038E0008DEC97E0EDB7FEB79283818387E592E098
:1038F000948383830E94743680E00F900F900F9022
:103900000F9003C080E101C081E16E960FB6F8947C
:10391000DEBF0FBECDBFCF91DF911F910F91FF9002
:10392000EF90DF90CF90BF90AF909F908F907F905F
:103930006F905F903F902F900895BF92CF92DF924B
:10394000EF92FF920F931F93DF93CF93CDB7DEB724
:10395000A5970FB6F894DEBF0FBECDBFB82E6A0193
:103960007B018091B10A85FFCAC0CB01BA0120E872
:1039700031E541E050E00E94A568CA01B90148E67E
:1039800057E02AE030E00E94980888E697E00E941D
:10399000051B85ED97E068E571E040E00E94E04896
:1039A00085ED97E061E673E040E00E94E0488823FF
:1039B00051F485ED97E061E673E041E00E94A24892
:1039C000882309F49CC01C861E861B861A868FEBF2
:1039D00093E0998788878E01045F1F4FC80168E6CE
:1039E00077E042E40E9419594E8D5F8D68A179A15C
:1039F000C8010E94B54E8E010F5F1F4FC8016BE7D3
:103A000071E00E941A68C8016CE771E00E94346896
:103A100081E0B81619F1B81628F082E0B81609F05E
:103A200041C02AC0C8016091C2090E94AB67C801A9
:103A30006EE771E00E94D767C8016091C1090E94DA
:103A4000AB67C8016EE771E00E94D7676091C30958
:103A50007091C409C8010E947D6724C0C80160E854
:103A600071E00E94D7678091D70A9091D80AA091FF
:103A7000D90AB091DA0A0DC0C80168E871E00E9465
:103A8000D7678091DB0A9091DC0AA091DD0AB091A2
:103A9000DE0AB701A601481B590B6A0B7B0BC80154
:103AA0000E944B678E010F5F1F4FC8016EE771E0E8
:103AB0000E94D767C801B701A6010E944B67C801E1
:103AC00060E971E00E94D767C80162E971E00E9475
:103AD000D767C80168E677E044E650E020E030E0D0
:103AE0000E94BB66CE01089668E677E00E942A5ED7
:103AF000CE010C960E941D51C8010E944D68A596EA
:103B00000FB6F894DEBF0FBECDBFCF91DF911F91EE
:103B10000F91FF90EF90DF90CF90BF900895CF93DB
:103B2000DF93EC018091B10A85FF28C0CE0165E9E1
:103B300071E043E050E00E940508009771F485EDC4
:103B400097E061E673E040E00E94E0488823B1F02E
:103B500083EF97E00E94975311C0CE010E94051B8E
:103B600085ED97E068E677E00E94C148882331F050
:103B700085ED97E068E677E00E949E48DF91CF915F
:103B800008950F931F9368E677E044E629E931E052
:103B900000E010E00E940335882311F480E105C0A5
:103BA00088E697E00E948F1D81E01F910F91089594
:103BB0000E9433390E94273FA1E9B9E080E090E0FC
:103BC000FC01EF5EF74F1082118212821382FC011A
:103BD000EF52F74F10821182128213821D920496C7
:103BE000803C910569F71092C9091092CA09109298
:103BF000CB091092CC0908952F923F924F925F9279
:103C00006F927F928F929F92AF92BF92CF92DF92EC
:103C1000EF92FF920F931F93DF93CF9300D000D0CA
:103C200000D0CDB7DEB74C0120905302309059023E
:103C3000BDE4EB2EB2E0FB2EAA24CC24DD24A2E0CE
:103C40006A2E712C6C0E7D1EF3E04F2E512C4C0E03
:103C50005D1EBC2C84E2C81609F464C098E1C91644
:103C600009F460C02C2D9D2DF7018181813009F46C
:103C70001082D301E9E5F3E085E001900D928150D7
:103C8000E1F7822FB2014AE050E00E945A08C401D5
:103C900068E677E044E6930100E010E00E94033517
:103CA000882309F43FC0F7018181813011F48083BA
:103CB00039C088E697E00E94A6079B01AC01F4E1B9
:103CC000BF1629F4245C3F4F4F4F5F4F1BC08EE15E
:103CD000B81669F4CA01B9012AE030E040E050E0CA
:103CE0000E94C768C901DA019C01AD010BC091E1D6
:103CF000B91641F4C9010E94AB39282F30E040E0E9
:103D000050E002C057FD0CC0F701818190E0A0E0B7
:103D1000B0E082179307A407B50714F0208302C010
:103D2000AA24A3940894C11CD11C86E090E0E80E5C
:103D3000F91E95E2C916D10409F08BCFC40168E6DB
:103D400077E044E62DE931E000E010E00E94033521
:103D50008823E1F088E697E00E9458351092980792
:103D600088E697E064E174E00E94F738882371F0F8
:103D700084E194E068E677E00E94B8381092E70AA0
:103D80001092E80A1092E90A1092EA0A1982C40114
:103D900068E677E044E621EA31E08E010F5F1F4FCD
:103DA0000E9403358823E9F088E697E00E945835A1
:103DB0001092880788E697E064E874E00E94F7387C
:103DC0008823D1F084E894E068E677E00E94B83870
:103DD0001092E70A1092E80A1092E90A1092EA0A91
:103DE0000BC08981882341F01092680784E894E031
:103DF00068E677E00E94B83880915902882331F54F
:103E0000C40168E677E044E627EA31E000E010E02C
:103E10000E9403358823D1F088E697E00E94A60728
:103E2000162F072FF82EE92E0E94D81D612F702F14
:103E30008F2D9E2D0E94402B8091B10A84FF06C0D9
:103E4000612F702F8F2D9E2D0E94402DAA2011F0E2
:103E500081E129C00E94693980915302821531F4B1
:103E60003320A1F480915902882381F01092E30A53
:103E70001092E40A1092E50A1092E60A1092E70AFC
:103E80001092E80A1092E90A1092EA0A8091070358
:103E9000882341F01092E70A1092E80A1092E90A8A
:103EA0001092EA0A81E026960FB6F894DEBF0FBEA4
:103EB000CDBFCF91DF911F910F91FF90EF90DF90D9
:103EC000CF90BF90AF909F908F907F906F905F90BA
:103ED0004F903F902F900895DF92EF92FF920F93B3
:103EE0001F93DF93CF9300D0CDB7DEB79A8389833A
:103EF00024E6E22EF12CE80EF91E0DC0C8016BEA93
:103F000071E043E050E00E940508009779F00F5FF0
:103F10001F4F1A83098309811A81F8018081882340
:103F200009F453C00E151F0548F34FC00D5F1F4F16
:103F30001A8309830E94D81D00E010E07E010894D6
:103F4000E11CF11C8EEFD82E2EC0C7010E94E00D9F
:103F5000BC01009739F1412F50E0E12FE695E6953D
:103F6000E695F0E0EF52F54F808190E0212F277029
:103F700002C0959587952A95E2F780FD13C0FA0156
:103F8000EE0FFF1FEE0FFF1FEF52F74FCB01A0E028
:103F9000B0E080839183A283B3834F56564FFA01DA
:103FA000D08201E01F5F8091B80A181770F20023D9
:103FB00061F00E946D2B4091B10A4295469546955D
:103FC00041700E94C51181E001C080E10F900F9007
:103FD000CF91DF911F910F91FF90EF90DF900895A7
:103FE000AF92BF92CF92DF92EF92FF920F931F9307
:103FF000DF93CF93CDB7DEB7C754D0400FB6F89458
:10400000DEBF0FBECDBFE82E0E94D81D8E2D815081
:104010008E3F28F4BE016F5F7F4F0E940F17DD2493
:10402000FF24EEEFCE2E7CE0A72EB12CAC0EBD1EF1
:104030003CC00F2D10E08FEFE81619F442E050E07D
:104040000CC0EE2009F443C0F501E00FF11F8081A0
:104050000E94C739AC01009739F1F80163E0F69589
:10406000E7956A95E1F7EF52F54F808190E02F2DAB
:10407000277002C0959587952A95E2F780FD14C0B8
:10408000F801EE0FFF1FEE0FFF1FEF52F74FCA01AF
:10409000A0E0B0E080839183A283B3830F56164FD4
:1040A000F801C082DD24D394F3948091B80AF81605
:1040B00008F4BFCFDD2071F00E946D2B4091B10A52
:1040C00042954695469541700E94C51103C04CE348
:1040D00050E0C3CFC95BDF4F0FB6F894DEBF0FBE11
:1040E000CDBFCF91DF911F910F91FF90EF90DF90A7
:1040F000CF90BF90AF9008958F929F92AF92BF9252
:10410000CF92DF92EF92FF920F931F93CF93DF93A3
:10411000B82EA62E79018A01C82EDD2460E00E9407
:104120000F39F601EE0FFF1FEE0FFF1FEF5EF74F87
:10413000208131814281538121153105410551058D
:1041400009F49AC02E153F054007510708F07BC0BF
:10415000C60143E0959587954A95E1F7982E87E04B
:10416000882E8B20CA2DD0E0C6010196C817D9072A
:1041700009F444C0B092C109F601EF56F64F8081B0
:104180008093C209C701821B930B9093C40980934B
:10419000C309E092C509F092C6090093C7091093BC
:1041A000C80980E0B801A7010E949D1CE92DF0E03C
:1041B000E154F54F808190E0082C02C095958795D9
:1041C0000A94E2F780FF1AC08091B10A86FF16C0F8
:1041D000CC0FDD1FCC0FDD1FC353D74F8091C5021D
:1041E00090E0A0E0B0E0CC97A109B1098E0D9F1D31
:1041F000A01FB11F88839983AA83BB83E92DF0E0B8
:10420000E553F54F808190E002C0959587958A949B
:10421000E2F780FF18C080910103882381F08EE0CF
:1042200061E00E946D62609101032AE0629FB0012B
:104230001124882777FD8095982F0E9476638EE061
:1042400060E00E946D62F601EE0FFF1FEE0FFF1F90
:10425000DF01AF5EB74F1D921D921D921C92139706
:10426000EF52F74F108211821282138281E999E096
:10427000C80ED91EF6011082DF91CF911F910F91C8
:10428000FF90EF90DF90CF90BF90AF909F908F9076
:104290000895AF92BF92CF92DF92EF92FF920F9369
:1042A0001F93CF93DF937C0168E677E044E62FEA23
:1042B00031E000E010E00E940335882309F492C049
:1042C00088E697E00E948807EC0197FD89C08091FD
:1042D000B80A90E0C817D9070CF082C0C70168E699
:1042E00077E044E62FE431E00E940335882309F4A7
:1042F00079C088E697E00E948807182F0E946D2BEE
:104300005B016C01112309F462C0C70168E677E024
:1043100044E623EB31E000E010E00E9403358823FF
:1043200009F460C088E697E00E94A607CB010197D8
:1043300080529D4F08F054C08091B30A90E09E01D6
:104340002F5F3F4F8217930709F44EC0FE0113E021
:10435000F595E7951A95E1F7F0E0E754F54F808180
:1043600090E0AE014770042E02C0959587950A949F
:10437000E2F780FD39C0FE01EE0FFF1FEE0FFF1FB9
:10438000EF52F74F80819181A281B3810097A105FF
:10439000B10551F5FE01EE0FFF1FEE0FFF1FEF52AB
:1043A000F74FCB01A0E0B0E080839183A283B38379
:1043B000CF56D64F83E688834091B10A4295469501
:1043C00046954170C601B5010E94C51107C08C2FEA
:1043D0006091B30AA60195010E947C2081E005C08E
:1043E00081E103C080E101C080E3DF91CF911F91A3
:1043F0000F91FF90EF90DF90CF90BF90AF90089516
:104400004F925F926F927F928F929F92AF92BF92E4
:10441000CF92DF92EF92FF920F931F93CF93DF9390
:104420005B016C019091B10A44244394492291FDAF
:104430000CC08091CB02882311F4FF2408C0F92E10
:10444000F694F69481E0F82211F0FF24F394EE2420
:104450005BC08E2D90E0FC01EB53F54F3081FC01E9
:10446000E754F54F20815E2C550C550C550C00E09F
:1044700010E0622E7724832E9924252D200FC22F41
:10448000D0E0FE01EF56F64FE081E336B0F5442070
:1044900059F0FF2091F1C401002E02C09595879537
:1044A0000A94E2F780FD29C0C301002E02C0959551
:1044B00087950A94E2F780FF08C0822F6091B30AC3
:1044C000A60195010E947C2018C0EE23B1F0FE01E8
:1044D000EE0FFF1FEE0FFF1FDF01AF5EB74F1D9204
:1044E0001D921D921C921397EF52F74F108211826A
:1044F00012821382CF56D64F18820F5F1F4F08309B
:10450000110509F0BACFE3948091B70AE81608F4D0
:10451000A0CFDF91CF911F910F91FF90EF90DF908F
:10452000CF90BF90AF909F908F907F906F905F9053
:104530004F900895AF92BF92CF92DF92EF92FF9289
:104540000F931F935B016C018091D4099091D50961
:10455000A091D609B091D7090097A105B10581F4C2
:10456000A092D409B092D509C092D609D092D709A9
:10457000A092D009B092D109C092D209D092D309A9
:104580008091B10A83FDB2C02091B20A22952F70AA
:1045900061E070E002C0660F771F2A95E2F7882776
:1045A00077FD8095982F2091D4093091D5094091BD
:1045B000D6095091D70986017501E21AF30A040B56
:1045C000150B2EE130E040E050E00E9453686E157C
:1045D0007F058007910708F089C08091CD09882365
:1045E00059F484E99AE06FE041E00E94364584E99D
:1045F0009AE064E00E94F244A092D409B092D509F6
:10460000C092D609D092D7098FE79AE00E94223152
:104610000E9468637B018C010E9410470E946F31E9
:104620008FE79AE00E94E433882361F40E94686374
:104630006E197F09800B910B683C7105810591050E
:1046400058F340C08091B20A8F7002C08F708066AC
:104650008093B20A8091B20A82958F7090E003979E
:10466000ACF48091D0099091D109A091D209B09178
:10467000D309A6019501281B390B4A0B5B0BDA0104
:10468000C901815C984AA040B04080F18091A102AC
:10469000882361F1A092D009B092D109C092D209C9
:1046A000D092D3096091CE097091CF098FE392E047
:1046B0000E940D418823D1F08091B20A8F708093BF
:1046C000B20A14C08091B20A282F22952F702F5F52
:1046D0002F70922F9295907F8F70892B8093B20AC2
:1046E00030E0273031050CF0B1CFB4CF1F910F91DE
:1046F000FF90EF90DF90CF90BF90AF900895EF9232
:10470000FF920F931F939B01AC0180915902882364
:1047100009F447C08091B20A82958F7009F041C0B8
:104720008091B10A83FD3DC08091E30A9091E40A33
:10473000A091E50AB091E60A0097A105B10569F0DC
:1047400079018A01E81AF90A0A0B1B0BD801C70183
:1047500081589145A140B04020F12093E30A309365
:10476000E40A4093E50A5093E60A8091CD09882334
:1047700029F485E296E061E00E94C53A0E94B50CFA
:104780007B018C01611571058105910551F00E9435
:10479000402B8091B10A84FF04C0C801B7010E9478
:1047A000402D1F910F91FF90EF90089584B7877F60
:1047B00084BF0E94D03F0E94083E0E943109909120
:1047C0009B0280E020919502820F911D9093CF096A
:1047D0008093CE096CE370E080E090E00E94372B7C
:1047E0008091B10A84FD03C080E090E002C080E6C1
:1047F0009DE20E94E02B64EF71E080E090E00E9477
:10480000766380E00E94863F80916000886180939B
:10481000600081E2809360008091600080648093FA
:10482000600084E396E061E00E94C53A85ED97E080
:1048300060E044E00E942F49882329F08091B10A6A
:1048400080628093B10A6091CE097091CF098FE3A5
:1048500092E00E940D41882321F08091B20A8F706E
:1048600004C08091B20A8F7080618093B20A64EFB5
:1048700071E080E090E00E9476630E94273F0E94F2
:104880006D2B6093DF0A7093E00A8093E10A9093A6
:10489000E20A0895BF92CF92DF92EF92FF920F93B8
:1048A0001F93DF93CF93CDB7DEB7C754D0400FB679
:1048B000F894DEBF0FBECDBF6B017C018091DF0A93
:1048C0009091E00AA091E10AB091E20A0097A10557
:1048D000B105D9F04496A11DB11D8C159D05AE05FD
:1048E000BF0598F48091FB026FEF70E0681B7109BF
:1048F0008CE00E94CE611092DF0A1092E00A1092C2
:10490000E10A1092E20A1092CD0982E00E94363A42
:10491000B82E082F10E086FFBFC0C092DF0AD092E9
:10492000E00AE092E10AF092E20A8091F5026FEF6C
:1049300070E0681B71098CE00E94CE618091CD0906
:10494000833020F4813008F063C004C0833009F064
:10495000A3C052C0C8018F70907082309105F1F0F1
:104960008430910551F1019709F096C0B7FE0CC053
:104970008EE10E94C162892B21F48FEF0E94F01F0B
:104980008BC00E94831088C060914B0270914C02D2
:1049900083E79AE00E944F3D81E00CC0B7FE03C060
:1049A0000E94723879C08FE79AE060E070E00E9460
:1049B0004F3D82E08093CD096FC0B7FE0CC08CE7FD
:1049C00096E060E00E94C53A8BE696E061E00E94C6
:1049D000C53A83E0EFCF2091B20A822F8F7090E02A
:1049E0006091B70A019670E00E9492688F70207FF4
:1049F000282B2093B20A50C00F701070043011059C
:104A000009F04AC0B7FE07C08091E2090E94F01F7A
:104A10001092CD0941C08091E20990E060911008A8
:104A200070E06F5F7F4F01960E9492688093E20969
:104A30008AE596E060E00E94C53A8091E209882309
:104A400031F18150BE016F5F7F4F0E940F1788E5E3
:104A500096E061E00E94C53A84E99AE060E041E0B6
:104A60000E9436456091E20984E99AE070E04AE0EC
:104A700050E00E94966685E596E00E94B53A84E98A
:104A80009AE0BE01645C7F4F0E94A96605C085E480
:104A900096E061E00E94C53AC95BDF4F0FB6F8941B
:104AA000DEBF0FBECDBFCF91DF911F910F91FF9061
:104AB000EF90DF90CF90BF9008952F923F924F924A
:104AC0005F926F927F928F929F92AF92BF92CF929E
:104AD000DF92EF92FF920F931F93DF93CF93CDB7A7
:104AE000DEB7C155D0400FB6F894DEBF0FBECDBFC4
:104AF0008091AD0281708295880F880F807C9091A3
:104B0000B10A9F7B982B9093B10A8091B902809350
:104B1000B30A0E9410470E946F319093D909809385
:104B2000D809009721F08C519C4F0E94DD14A89564
:104B300010920F080E946D2B4B015C010E944A24C9
:104B40008091DE099091DF09A091E009B091E1091F
:104B500088159905AA05BB0509F452C38092DE09A0
:104B60009092DF09A092E009B092E1098091CD090D
:104B7000882311F40E94863F8091B10A81FF10C002
:104B80008091AD0A9091AE0AA091AF0AB091B00A9F
:104B900088169906AA06BB0690F00E94CB3D0FC06E
:104BA0008091AD0A9091AE0AA091AF0AB091B00A7F
:104BB00088169906AA06BB0610F40E94DB3D0E94E7
:104BC0007F3A9091B10A969591708091B40A86953A
:104BD00081708917C9F0992349F08092DB0A90927D
:104BE000DC0AA092DD0AB092DE0A05C082E0B501BF
:104BF000A4010E949D1C9091B10A92708091B40A08
:104C00008D7F892B8093B40A9091B10A96959695E1
:104C100091708091B40A8695869581708917C9F044
:104C2000992349F08092D70A9092D80AA092D90A83
:104C3000B092DA0A05C081E0B501A4010E949D1C72
:104C40009091B10A94708091B40A8B7F892B8093E4
:104C5000B40AC501B4012CE330E040E050E00E940A
:104C6000A56879018A018091DA099091DB09A09108
:104C7000DC09B091DD09E816F9060A071B0709F4FB
:104C8000B0C0E092DA09F092DB090093DC091093DE
:104C9000DD09662455241E010894211C311C90C096
:104CA000862DB1010E940F17C101B501A4010E9418
:104CB0003516882309F483C07724462C43947AC0A0
:104CC000C72CDD248091B30A90E096012F5F3F4FFF
:104CD0008217930709F46DC0D60123E0B695A79516
:104CE0002A95E1F7272D2770FD01E754F54F8081C4
:104CF00090E0022E02C0959587950A94E2F780FD18
:104D000058C0AF52B54F8C9190E002C095958795F1
:104D10002A95E2F780FD4DC0ECE0F0E0EC0FFD1FBE
:104D2000EC0DFD1D2081222309F443C0F601EE0F96
:104D3000FF1FEE0FFF1FEF52F74F80819181A2817D
:104D4000B3810097A105B105A1F5822F0E94C73953
:104D50007C0100E010E0898181FF13C02091D7021F
:104D600030E040E050E0C801B7010E94536824E6FB
:104D700030E040E050E00E94A568C901DA017C0102
:104D80008D01F601EE0FFF1FEE0FFF1FEF52F74FE1
:104D9000E082F18202831383E114F104010511051D
:104DA00041F021E939E0C20ED31ED6014C925524C0
:104DB000539473948091B80A781608F481CF639461
:104DC00080911008681608F46BCF552051F040917F
:104DD000B10A4295469546954170C501B4010E94BD
:104DE000C5118091B10A83FFA3C12A961FAE2A97ED
:104DF0002EC12A96BFAD2A978B2F90E0FC01E75475
:104E0000F54F2081EB2FEE0FEE0FEE0F2B96EFAF4D
:104E10002B9744245524422F50E02E965FAF4EAF7F
:104E20002E97DC01A553B54F6096BFAFAEAF60972C
:104E3000FC01E154F54F6296FFAFEEAF62972B96FF
:104E40001FAD2B97140D612E7724F301EF56F64F0B
:104E500080818823B9F0F301EE0FFF1FEE0FFF1FD3
:104E6000EF52F74F80819181A281B3818816990614
:104E7000AA06BB0638F0812F6091B30AA501940100
:104E80000E947C202C964FAE2C972E968EAD9FAD17
:104E90002E97042C02C0959587950A94E2F780FD21
:104EA000C7C09301220F331F220F331FA1E1EA2E47
:104EB000A8E0FA2EE20EF31EF70180819181A28113
:104EC000B38188169906AA06BB0608F4B1C0F1EDB5
:104ED0002F2EF8E03F2E220E331EF10180819181AA
:104EE000A281B38188169906AA06BB0608F0A0C065
:104EF000812F61E00E940F390091B30A002309F469
:104F000071C0202F30E0C30101962817390709F43A
:104F100069C06296AEADBFAD62978C9190E02C9661
:104F20000FAC2C9702C0959587950A94E2F780FF05
:104F300059C08091B10A86FF55C0015029960FAF24
:104F4000299710E08091BF02F701208131814281D1
:104F50005381280F311D411D511DB801660F771F68
:104F6000660F771FFB01EF5EF74F2083318342838B
:104F700053838091C502C82EDD24EE24FF2484ECE7
:104F80009FEFAFEFBFEFC80ED91EEA1EFB1EF10167
:104F900080819181A281B381C80ED91EEA1EFB1EB9
:104FA0006F52774FDB01CD92DD92ED92FC92139719
:104FB0000F56164FE1E9F9E06E0E7F1ED3018C917A
:104FC000F801808382169306A406B50658F08C1467
:104FD0009D04AE04BF0430F429968FAD299761E09B
:104FE0000E940F396096AEADBFAD60978C9190E096
:104FF0002C960FAC2C9702C0959587950A94E2F7F2
:1050000080FF16C08EE061E00E946D628091010316
:10501000882371F0BAE08B9FB0011124882777FDB7
:105020008095982F0E9476638EE060E00E946D620A
:105030000894411C511CE8E04E16510409F0FFCEC3
:105040002A96FFAD2A97FF5F2A96FFAF2A97809195
:10505000B70A2A962FAD2A97281708F4CACEC50199
:10506000B4010E9400220E94273F8091B80AE1ED1E
:10507000F8E060E0EE24FF24870190E0880F991F9C
:10508000880F991F8E0F9F1F12C02081318142818E
:10509000538182169306A406B50640F4E216F30681
:1050A0000407150710F479018A0161E03496E817C6
:1050B000F90759F7E092C909F092CA090093CB09A0
:1050C0001093CC096623A1F50E9433390E94273F33
:1050D000A1E9B9E080E090E0FC01EF5EF74F1082BB
:1050E000118212821382FC01EF52F74F108211825B
:1050F000128213821D920496803C910569F71092EA
:10510000C9091092CA091092CB091092CC0990914A
:10511000B10A8091B9028093B30A8091AD02817087
:105120008295880F880F807C977B982B9093B10A8B
:105130007091B30A7723E9F18091B10A86FD39C0F5
:105140006091B80A40E021E030E0072F10E02AC06B
:10515000842F90E00217130711F1DC0193E0B6955C
:10516000A7959A95E1F7542F5770FD01E754F54F35
:10517000808190E0052E02C0959587950A94E2F70C
:1051800080FF0DC0A154B54F8C9190E002C0959561
:1051900087955A95E2F780FF02C061E006C04F5F35
:1051A0002F5F3F4F4617A0F260E0872F81500E948B
:1051B0000F39C501B4010E9400220E94273F80914F
:1051C000CD09882389F4C501B40123E030E040E033
:1051D00050E00E94A5689B01AC0128593C4F81E03A
:1051E000D9016C910E94BB3CC501B4010E949A2276
:1051F000C501B4010E947F23C501B4010E94C00B08
:10520000CF5ADF4F0FB6F894DEBF0FBECDBFCF91A0
:10521000DF911F910F91FF90EF90DF90CF90BF90A3
:10522000AF909F908F907F906F905F904F903F9046
:105230002F9008958F929F92AF92BF92CF92DF925C
:10524000EF92FF920F931F93CF93DF937B018C011B
:10525000EA012CE330E040E050E00E94A56868835A
:10526000C801B7012CE330E040E050E00E94A5689F
:10527000122F032FF42EE52E622F732F842F952FDC
:105280002CE330E040E050E00E94A5686983612F84
:10529000702F8F2D9E2D2CE330E040E050E00E94D7
:1052A000A568122F032FF42EE52E622F732F842F63
:1052B000952F28E130E040E050E00E94A5686A8325
:1052C000612F702F8F2D9E2D28E130E040E050E0BF
:1052D0000E94A56879018A01C801B7016C5F7F4F00
:1052E0008F4F9F4F27E030E040E050E00E94A568DC
:1052F0006F5F6B8320E0AA24BB24650101C02F5F90
:10530000822E9924F401EE54F84FCF0183709070EF
:10531000892B99F4CF0164E670E00E949268892B92
:1053200039F4CF0160E971E00E949268892B29F479
:105330008EE691E0A0E0B0E004C08DE691E0A0E050
:10534000B0E0A80EB91ECA1EDB1EC501A0E0B0E089
:10535000E816F9060A071B0790F62E83F401EE54AF
:10536000F84F83E0882E912C8E229F228114910485
:1053700099F4CF0164E670E00E949268892B39F4B9
:10538000CF0160E971E00E949268892B29F48EE6D2
:1053900091E0A0E0B0E004C08DE691E0A0E0B0E0D4
:1053A000A81AB90ACA0ADB0A980187010A191B0957
:1053B0002C093D09CF0164E670E00E9492687C01EF
:1053C000CF0160E971E00E949268AC01EBE6F3E086
:1053D00060E0613051F48114910449F4E114F10466
:1053E00041F44115510529F002C0808103C08CE1D0
:1053F00001C08DE190E0A0E0B0E0081719072A078E
:105400003B0740F0081B190B2A0B3B0B6F5F3196D3
:105410006C30F9F66F5F6D83802F8F5F8C83DF9127
:10542000CF911F910F91FF90EF90DF90CF90BF90A1
:10543000AF909F908F900895EF92FF920F931F93DC
:105440007B018C018091FA099091FB09A091FC09E4
:10545000B091FD09E816F9060A071B0771F0C801AB
:10546000B7014FEE59E00E941A29E092FA09F09232
:10547000FB090093FC091093FD091F910F91FF9008
:10548000EF9008950E941C2A8091F40990E00895FD
:105490000E941C2A8091F20990E008950E941C2A23
:1054A0008091F30990E008950E941C2A8091F009F0
:1054B00090E008950E941C2A8091F10990E00895DF
:1054C0004F925F926F927F928F929F92AF92BF9214
:1054D000CF92DF92EF92FF920F931F93CF93DF93C0
:1054E0004C01DC0116961C91612F70E080E090E089
:1054F00020E833E341EE51E00E9453685B016C0108
:1055000022EB37E0E12FF0E0EE54F84F1DC0C90167
:1055100083709070892BB1F4C90164E670E00E9439
:105520009268892B39F4C90160E971E00E949268A0
:10553000892B41F480E891E5A1E0B0E0A80EB91E06
:10554000CA1EDB1E2F5F3F4F2E173F0701F7D40106
:1055500015968C91482E5524C90164E670E00E948E
:1055600092687C01C90160E971E00E9492688C0137
:10557000C1E0D0E093E0692E712C6222732227C033
:10558000C230D10591F46114710479F4E114F1048D
:1055900019F40115110549F480E89BE3A6E2B0E097
:1055A000A80EB91ECA1EDB1E11C0FE01E659FC4F33
:1055B000608170E080E090E020E831E541E050E07B
:1055C0000E945368A60EB71EC81ED91E2196C41588
:1055D000D505B4F2D40112966C9170E080E090E0B1
:1055E00020E13EE040E050E00E9453687B018C01E6
:1055F000F401618170E080E090E02CE330E040E075
:1056000050E00E945368E60EF71E081F191FD401D0
:105610008C91E80EF11C011D111D14966C9170E027
:1056200061507040882777FD8095982F20E831E5FC
:1056300041E050E00E945368E60EF71E081F191F54
:10564000EA0CFB1C0C1D1D1DB701C801DF91CF9199
:105650001F910F91FF90EF90DF90CF90BF90AF9090
:105660009F908F907F906F905F904F900895609380
:105670004502709346028093470290934802089532
:105680006093E5097093E6098093E7099093E80930
:1056900020914502309146024091470250914802C4
:1056A000260F371F481F591F2093E9093093EA0935
:1056B0004093EB095093EC0982E090E09093EE095F
:1056C0008093ED090E9468636093F6097093F7096F
:1056D0008093F8099093F9090895EF92FF920F9340
:1056E0001F931CC02F5F3F4F4F4F5F4F2093E50923
:1056F0003093E6094093E7095093E80988EE93E078
:10570000A0E0B0E0E80EF91E0A1F1B1FE092F609A8
:10571000F092F7090093F8091093F9090E94686361
:10572000E090F609F090F7090091F8091091F90955
:105730006E197F09800B910B2091E5093091E609E4
:105740004091E7095091E809685E734080409040BD
:1057500048F68091E9099091EA09A091EB09B0918E
:10576000EC09281739074A075B07E8F0E091E309DD
:10577000F091E4093097B9F009956115710581053B
:10578000910519F00E94402B0EC020E030E080917E
:10579000ED099091EE09892B11F021E030E0309372
:1057A000EE092093ED096091E5097091E609809179
:1057B000E7099091E8091F910F91FF90EF900895EC
:1057C0009093E4098093E3098091E5099091E609BB
:1057D000A091E709B091E8098093E9099093EA095B
:1057E000A093EB09B093EC090E946D2B0895482F0C
:1057F0006AE00E947268282F30E084E0220F331F95
:105800008A95E1F7842F0E947268892F820F08958C
:10581000CF93DF93EC018091FE099091FF098836C8
:10582000910559F586E69DE068E670E00E945F5EAE
:1058300086E69DE060E00E94E15E88810E94F72B91
:10584000682F70E06F77707086E69DE00E94E15EE1
:1058500089810E94F72B682F86E69DE00E94E15E19
:105860008A810E94F72B682F86E69DE00E94E15E08
:105870008B810E94F72B682F2DC08F36910509F080
:105880004AC086E69DE06FE670E00E945F5E86E6B5
:105890009DE060E00E94E15E88810E94F72B682F06
:1058A000606886E69DE00E94E15E89810E94F72B98
:1058B000682F86E69DE00E94E15E8A810E94F72BB8
:1058C000682F86E69DE00E94E15E8B810E94F72BA7
:1058D000682F686086E69DE00E94E15E8C810E94F0
:1058E000F72B682F86E69DE00E94E15E8D810E9485
:1058F000F72B682F86E69DE00E94E15E8E818E5137
:105900000E94F72B682F86E69DE00E94E15E86E606
:105910009DE00E94245FDF91CF91089588E690E09A
:105920009093FF098093FE0986E69DE068E670E0AB
:105930000E945F5E86E69DE060E00E94E15E86E692
:105940009DE00E94245F8823D9F08FE690E0909339
:10595000FF098093FE0986E69DE06FE670E00E94F5
:105960005F5E86E69DE060E00E94E15E86E69DE087
:105970000E94245F882321F01092FF091092FE09F3
:1059800008951F93CF93DF93EC016091FE0970910E
:10599000FF096115710509F46FC086E69DE00E945C
:1059A0005F5E86E69DE060E00E94E15E86E69DE047
:1059B0000E94245F6091FE097091FF0986E69DE0D8
:1059C00047E050E00E94355F86E69DE00E94725EEF
:1059D000282F2F7722952F701AE0219F90011124F4
:1059E0008F70820F888386E69DE00E94725E282F6A
:1059F00022952F70219F900111248F70820F89832F
:105A000086E69DE00E94725E282F2F7322952F70EC
:105A1000219F900111248F70820F8A8386E69DE07A
:105A20000E94725E87708B8386E69DE00E94725EA4
:105A3000282F22952F70219F900111248F70820FA3
:105A40008C8386E69DE00E94725E282F22952F703F
:105A5000219F900111248F70820F8D8386E69DE037
:105A60000E94725E282F2F70225E82958F70819F18
:105A7000C0011124280F2E83DF91CF911F9108952B
:105A80000F931F93DF93CF93CDB7DEB727970FB652
:105A9000F894DEBF0FBECDBF8E010F5F1F4FA80170
:105AA0000E941A29C8010E94082C27960FB6F89464
:105AB000DEBF0FBECDBFCF91DF911F910F91089533
:105AC0000F931F93DF93CF93CDB7DEB727970FB612
:105AD000F894DEBF0FBECDBF8E010F5F1F4FC80110
