:100000000C9409060C9431060C9431060C943106BC
:100010000C9431060C9431060C9431060C94310684
:100020000C9431060C9431060C9431060C94310674
:100030000C9431060C9431060C9431060C94310664
:100040000C946D3B0C9431060C9431060C943106E3
:100050000C9431060C9431060C9431060C94310644
:100060000C9462390C943106687474703A2F2F72B4
:10007000617973686F6262792E6E65742F73637233
:10008000697074732F6A6176612F737663312E38CD
:1000900000485454502F312E3020323030204F4BF6
:1000A0000D0A436F6E74656E742D547970653A2035
:1000B000746578742F68746D6C0D0A507261676D89
:1000C000613A206E6F2D63616368650D0A0D0A0049
:1000D0003C6D657461206E616D653D766965777014
:1000E0006F727420636F6E74656E743D22776964FD
:1000F00074683D363430223E0D0A00485454502F67
:10010000312E302034303120556E617574686F7235
:10011000697A65640D0A436F6E74656E742D547947
:1001200070653A20746578742F68746D6C0D0A0DD3
:100130000A3C68313E34303120556E617574686F09
:1001400072697A65643C2F68313E0077696E646F2E
:10015000772E6C6F636174696F6E3D222F223B3C7A
:100160002F7363726970743E0A00637600767000C4
:100170006D7000647000637000677000766F0063DC
:100180006F00736E00707300767300637300767295
:1001900000637200706E0024460024440024440072
:1001A00024460024463C6D65746120687474702D8B
:1001B00065717569763D2272656672657368222085
:1001C000636F6E74656E743D22313B2075726C3DB9
:1001D0002F223E0024463C7363726970743E616C4A
:1001E00065727428224F7074696F6E732076616C2B
:1001F0007565732073617665642E22293B24460061
:1002000024463C7363726970743E616C6572742835
:10021000224E65772070617373776F726473206DFF
:10022000757374206D617463682122293B77696E50
:10023000646F772E6C6F636174696F6E3D222F76E9
:100240006F223B3C2F7363726970743E0A00244630
:100250003C7363726970743E616C65727428224EDF
:1002600065772070617373776F7264207365742E85
:1002700022293B24460024463C7363726970743E15
:10028000616C657274282256616C756573206F7598
:1002900074206F6620626F756E642122293B776936
:1002A0006E646F772E6C6F636174696F6E3D222F81
:1002B000766F223B3C2F7363726970743E0A002490
:1002C000463C7363726970743E2446005265626FE7
:1002D0006F74696E672E2E2E0024463C6D65746126
:1002E00020687474702D65717569763D227265663B
:1002F000726573682220636F6E74656E743D22248C
:10030000443B2075726C3D2F223E003C7363726942
:100310007074207372633D2224462F766965776F6F
:100320007074696F6E732E6A73223E3C2F73637212
:100330006970743E0A003C2F7363726970743E0AE0
:1003400000305D3B766172206E6F7074733D2444A3
:100350002C6C6F633D222453223B00222446222C26
:1003600024442C24442C24442C003C736372697074
:10037000743E766172206F7074733D5B0024462476
:1003800046003C736372697074207372633D22246B
:10039000462F686F6D652E6A73223E3C2F73637221
:1003A0006970743E0A003C736372697074207372E2
:1003B000633D22706E2E6A73223E3C2F7363726916
:1003C00070743E0A000A766172206C72756E3D5B35
:1003D00024442C24442C24442C244C5D3C2F736353
:1003E000726970743E0A005B302C305D5D3B0A76AA
:1003F000617220656E3D24442C72643D24442C724D
:10040000733D24442C6D6D3D24442C726473743D03
:10041000244C2C6D61733D24442C7572733D24442F
:100420002C776C3D24442C697061733D24442C6C02
:100430006F633D222453223B005B24442C244C5DFB
:100440002C00305D3B7661722070733D5B0024446C
:100450002C00766172206E6272643D24442C747AA2
:100460003D24442C73626974733D5B003C7363727A
:100470006970743E766172207665723D24442C6406
:100480006576743D244C3B0A002446244600776977
:100490006E646F772E6C6F636174696F6E3D222F8F
:1004A0007670223B3C2F7363726970743E0A006160
:1004B0006C657274282250726F6772616D202444DB
:1004C000206D6F64696669656422293B00616C6513
:1004D000727428224E65772070726F6772616D208A
:1004E00061646465642E22293B0024463C73637278
:1004F0006970743E003C7363726970742073726338
:100500003D2224462F706C6F7470726F672E6A7371
:10051000223E3C2F7363726970743E0A003C736321
:1005200072697074207372633D22706E2E6A73223A
:100530003E3C2F7363726970743E0A00305D3B006D
:1005400024442C00766172206D61736F703D5B00F6
:1005500024463C7363726970743E766172206D61EB
:10056000733D24442C776C3D24442C7364743D24E7
:10057000442C6D746F6E3D24442C6D746F66663D23
:1005800024442C6465766461793D24442C6465764A
:100590006D696E3D24442C64643D24442C6D6D3D96
:1005A00024442C79793D24443B0024463C736372F7
:1005B0006970743E77696E646F772E6C6F636174D7
:1005C000696F6E3D222F7670223B3C2F73637269F8
:1005D00070743E0A003C73637269707420737263B6
:1005E0003D2224462F6D6F6470726F672E6A7322EE
:1005F0003E3C2F7363726970743E0A003C2F736334
:10060000726970743E0A3C7363726970742073720D
:10061000633D22706E2E6A73223E3C2F73637269B3
:1006200070743E0A005D3B002C2444007661722009
:1006300070726F673D5B24442C24442C24442C248A
:10064000442C24442C24442C2444003C73637269BD
:1006500070743E766172206E626F617264733D24C5
:10066000442C7069643D24442C697061733D2444BA
:100670003B0024462446003C736372697074207307
:1006800072633D2224462F7669657770726F672EFC
:100690006A73223E3C2F7363726970743E0A003C99
:1006A000736372697074207372633D22706E2E6A78
:1006B00073223E3C2F7363726970743E0A002446B5
:1006C00024463C7363726970743E0024463C736335
:1006D000726970743E2446003C73637269707420C2
:1006E0007372633D2224462F76696577726F2E6A96
:1006F00073223E3C2F7363726970743E0A003C7330
:100700006372697074207372633D22706E2E6A7317
:10071000223E3C2F7363726970743E0A00305D3B69
:100720003C2F7363726970743E0A0024442C0024C9
:100730004624463C7363726970743E766172206E23
:10074000626F617264733D24442C6D61733D244477
:100750002C697061733D24442C6475723D5B003CD0
:10076000736372697074207372633D707324442ED6
:100770006A733E3C2F7363726970743E0A003C2FAB
:100780007363726970743E0A00766172206E7072D3
:100790006F67733D24442C6E626F617264733D24F5
:1007A000442C697061733D24442C6D6E703D24446B
:1007B0002C70643D5B5D3B002446005D3B002C24B7
:1007C000440070645B24445D3D5B24442C24442C31
:1007D00024442C24442C24442C24442C244400243D
:1007E000463C7363726970743E616C657274282252
:1007F00053746174696F6E206368616E67657320FE
:1008000073617665642E22293B2446002446766176
:10081000722000305D3B3C2F7363726970743E0A36
:100820003C736372697074207372633D2224462F97
:100830007669657773746174696F6E732E6A73225B
:100840003E3C2F7363726970743E0A0024442C008E
:10085000766172206D61736F703D5B0024463C735E
:1008600063726970743E766172206E626F61726449
:10087000733D24442C6D61786C656E3D24442C6D71
:1008800061733D24442C697061733D24442C00271E
:10089000275D3B0A00272453272C00736E616D658A
:1008A000733D5B005265636F6E6E656374696E675E
:1008B0002E2E2E0020746865206E6574776F726B23
:1008C0002E2E2E00436F6E6E656374696E67207402
:1008D0006F004669726D77617265207665722E00D1
:1008E00054696D65207A6F6E653A004E54502053FE
:1008F000796E633A0055736520444843503A00537B
:1009000074617469632E6970313A006970323A001B
:100910006970333A006970343A00476174657761F1
:10092000792E6970313A006970323A006970333A51
:10093000006970343A004854545020706F72743A11
:1009400000004175746F207265636F6E6E6563742D
:100950003A004578742E20626F617264733A0053D6
:10096000657175656E7469616C3A00537461746980
:100970006F6E2064656C61793A004D6173746572C5
:100980002073746174696F6E3A004D61732E206F2D
:100990006E2061646A2E3A004D61732E206F666688
:1009A0002061646A2E3A00557365207261696E2079
:1009B00073656E736F723A004E6F726D616C6C7915
:1009C000206F70656E3A005761746572206C6576B1
:1009D000656C202825293A0053656C66746573742C
:1009E0002074696D653A0049676E6F7265207061A9
:1009F0007373776F72643A00526573657420616C2B
:100A00006C3F004D6F6E005475650057656400546F
:100A1000687500467269005361740053756E00205A
:100A20007365630025004E6F00596573002B002B22
:100A30000020474D54003030003A002D002B0000BC
:100A400020202020002D5261696E2053746F702D7C
:100A5000002D44697361626C6564212D003A004584
:100A6000004D433A003A002E002D002000202000C7
:100A70003A00200042333A686F6C6420746F207330
:100A80006176650042333A73656C2042312F423201
:100A90003A636867003D3D536574204F7074696F19
:100AA0006E733D3D00506C656173652057616974DC
:100AB0002E2E2E00526573657474696E672045454D
:100AC00050524F4D0000010800060400014500008F
:100AD000820000400020504F5354202446204854A8
:100AE00054502F312E310D0A486F73743A2024462A
:100AF0000D0A244624534163636570743A202A2FFB
:100B00002A0D0A436F6E6E656374696F6E3A2063D7
:100B10006C6F73650D0A436F6E74656E742D4C6552
:100B20006E6774683A2024440D0A436F6E74656ED4
:100B3000742D547970653A206170706C69636174CA
:100B4000696F6E2F782D7777772D666F726D2D75A3
:100B5000726C656E636F6465640D0A0D0A24530040
:100B6000474554202446245320485454502F312EB6
:100B7000310D0A486F73743A2024460D0A416363AD
:100B80006570743A20746578742F68746D6C0D0A02
:100B9000436F6E6E656374696F6E3A20636C6F733A
:100BA000650D0A0D0A00E30004FA000100000001CF
:100BB00000000000240027002A000000000025009B
:100BC00028002B0000000000230026002900040458
:100BD00004040404040402020202020203030303E5
:100BE00003030102040810204080010204081020C1
:100BF00001020408102000000007000201000003A9
:100C000004060000000000000000F41D3228F92F47
:100C10009C3811241FBECFEFD8E0DEBFCDBF12E05D
:100C2000A0E0B1E0E4EFFDE702C005900D92A23B29
:100C3000B107D9F718E0A2EBB2E001C01D92AA34C7
:100C4000B107E1F71CE0C2E1DCE004C02297FE013D
:100C50000E94063ECA30D107C9F70E94893D0C9414
:100C6000F83E0C940000CF93DF93EBEBF2E0CBE384
:100C7000D3E0ABEBB3E01192119211921192199261
:100C80001992199219921D9283E0EB33F80799F7A4
:100C9000DF91CF91089584E192E00E94C83E809355
:100CA000B20208950E9433060E944B061092B302CE
:100CB0001092B4021092B6021092B5021092B702CE
:100CC0001092B8021092B9021092BA02089584E10B
:100CD00092E06091B2020E94DA3E08951092B20250
:100CE0000E9467060895282FCB013091B202231786
:100CF00050F46FE0269FB00111246A5E7D4F4FE0F3
:100D000050E00E94B83E08952091B202203288F44B
:100D10006FE0269FB00111246A5E7D4F4FE050E0E6
:100D20000E94D03E8091B2028F5F8093B2020E94F7
:100D300067060895282FCB013091B202231750F493
:100D40006FE0269FB00111246A5E7D4F4FE050E0B6
:100D50000E94D03E0895EF92FF920F931F93DF936E
:100D6000CF93CDB7DEB760970FB6F894DEBF0FBE56
:100D7000CDBF9091B2028917A8F5992399F190E01F
:100D800001968C0124E0000F111F2A95E1F7081B42
:100D9000190B0A5E1D4F2FE07E010894E11CF11C27
:100DA00012C0C701B8014FE050E0288B0E94B83E46
:100DB000B8016F507040C7014FE050E00E94D03E34
:100DC000015F1F4F28893091B202329FC001112468
:100DD0008A5E9D4F0817190720F331503093B202F5
:100DE0000E94670660960FB6F894DEBF0FBECDBFB7
:100DF000CF91DF911F910F91FF90EF9008956F9227
:100E00007F928F929F92AF92BF92CF92DF92EF929A
:100E1000FF920F931F93DF93CF930F92CDB7DEB75F
:100E20003C017A018B01CB01BA010E9421314C01B6
:100E3000C801B7010E941B315C01D3011E968C9141
:100E40001E97882309F48EC0CC90C7FE23C011964C
:100E5000DC90BD2DB230F0F0C801B70120E831E5DB
:100E600041E050E00E94E23D79018A012D2D30E001
:100E700040E050E0C801B7010E94E23DEFE7CE221A
:100E8000DD24EE24FF246C157D058E059F0509F0F9
:100E900069C036C0C801B7010E940F31D3012C913F
:100EA00030E090E0059667E070E00E94CF3D02C020
:100EB000359527958A95E2F720FF54C0C801B70100
:100EC0000E941531282FF301808187FF19C081818D
:100ED000882319F420FF14C045C0813089F42F31D4
:100EE00009F440C02D3109F04EC0C801B701298373
:100EF0000E94093129818230910509F044C032C035
:100F00008CE390E0889EF001899EF00D989EF00D94
:100F10001124EA0DFB1DD30112968D919C9113971C
:100F2000E817F907F8F014962D913C9115972E17B4
:100F30003F07C0F016962D913C911797211531056A
:100F400089F0E81BF90BCF01B9010E94BB3D629FFC
:100F5000A001639F500D729F500D112481E04E1728
:100F60005F0709F080E00F90CF91DF911F910F9103
:100F7000FF90EF90DF90CF90BF90AF909F908F90B9
:100F80007F906F90089520FDBBCFECCF9F92AF92E2
:100F9000BF92CF92DF92EF92FF920F931F93CF9366
:100FA000DF93EC01988019810E943432A12EBB247A
:100FB000CC24DD24292D2F77E22EFF24E10EF11C15
:100FC0000027F7FC0095102F20E831E541E050E0C4
:100FD0000E94E23DCA01B901A60195010E94E23DCD
:100FE000E61AF70A080B190BC801B701A60195010B
:100FF0000E94E23D892D8078862B8883DF91CF91F6
:101000001F910F91FF90EF90DF90CF90BF90AF9026
:101010009F900895CF92DF92EF92FF920F931F93CC
:10102000CF93DF93EC01D880C9800E94343220E84E
:1010300031E541E050E00E94E23D79018A018D2DC9
:101040008F77E80EF11C011D111D2C2D30E040E0C2
:1010500050E0C801B7010E94E23D8D2D8078862BBB
:101060008883DF91CF911F910F91FF90EF90DF90D8
:10107000CF900895FC01A481B5816D93B583A483BD
:1010800008958F929F92BF92CF92DF92EF92FF923C
:101090000F931F93CF93DF938DB79EB708970FB62B
:1010A000F8949EBF0FBE8DBFEDB7FEB731969EEC94
:1010B000E92E96E0F92EADB7BEB71296FC92EE92ED
:1010C00011978DE793E09383828381E990E0958384
:1010D000848380ED90E0978386830E942E2E0F906C
:1010E0000F900F900F90EDB7FEB7F282E1828AE683
:1010F00093E0948383830E942E2E06EB11E00F90E1
:101100000F900F900F90C0E0D0E0DD24BE2CCF2CCC
:101110008BE5E82E83E0F82E4E017C2F692DD80157
:1011200014968C91149781FF3AC012964D915C9160
:10113000139721E030E011968C911197813011F0D6
:1011400020E030E0F8018081C43119F490E0CC97C0
:1011500001C090E0EDB7FEB73C970FB6F894FEBF24
:101160000FBEEDBF3196ADB7BEB71196BC921197C9
:101170001296CC92F382E28255834483378326838E
:1011800091878087728763870E942E2ED394EDB754
:10119000FEB73C960FB6F894FEBF0FBEEDBF21968A
:1011A0000B5F1F4FCB31D10509F0B6CFCDEAD6E0AA
:1011B00080E390E0BE010E94EB278DB79EB70897B1
:1011C0000FB6F8949EBF0FBE8DBFEDB7FEB7319638
:1011D0000EEC16E0ADB7BEB712961C930E931197A6
:1011E00081E493E093838283D4821582D783C6837C
:1011F0000E942E2E0F900F900F900F90EDB7FEB71C
:101200001283018386E393E0948383830E942E2ECE
:1012100000D0EDB7FEB73196ADB7BEB712961C93AE
:101220000E9311978BE093E09383828388E690E09E
:10123000958384830E942E2EEDB7FEB736960FB6A7
:10124000F894FEBF0FBEEDBF81E0DF91CF911F91FB
:101250000F91FF90EF90DF90CF90BF909F908F9075
:101260000895BF92CF92DF92EF92FF920F931F9358
:10127000DF93CF93CDB7DEB72F970FB6F894DEBFCD
:101280000FBECDBF8C010D5F1F4FC8010E94D72D2F
:10129000C8016DEA76E040E220E031E00E948B2D4B
:1012A000882309F411C18DEA96E00E940A3E8C0160
:1012B0008FEF0F3F18070CF407C18091B20290E046
:1012C000081719070CF000C1ADB7BEB718970FB6D5
:1012D000F894BEBF0FBEADBFEDB7FEB731963EEC82
:1012E000E32E36E0F32E1296FC92EE92119782E7EF
:1012F00096E09383828381E990E09583848380EDF7
:1013000090E0978386830E942E2E00D0EDB7FEB723
:101310003196ADB7BEB71296FC92EE9211978BE460
:1013200096E09383828380910A07848315821783D2
:10133000068380913302808711860E942E2EEDB79E
:10134000FEB73A960FB6F894FEBF0FBEEDBFFFEFA3
:101350000F3F1F0709F48CC0802F8E010F5F1F4FB6
:10136000B8010E9473068A81823018F0C8010E9479
:10137000C6078DB79EB742970FB6F8949EBF0FBEB3
:101380008DBFEDB7FEB731960EEC16E0ADB7BEB728
:1013900012961C930E9311978CE296E093838283AE
:1013A0008F85848315828981868317828A818087CD
:1013B00011868B819C81938782878D819E81958701
:1013C00084878F8198859787868789859A85918B71
:1013D000808B0E942E2EEDB7FEB772960FB6F89452
:1013E000FEBF0FBEEDBFDD24B02EC12E28E2E22EDF
:1013F00026E0F22E8E01055F1F4F20C000D000D0E6
:1014000000D0EDB7FEB73196ADB7BEB71196BC921E
:1014100011971296CC92F382E282D801AD0DB11DE4
:101420008C91848315820E942E2ED394EDB7FEB743
:1014300036960FB6F894FEBF0FBEEDBF80910A0737
:10144000D816E0F200D000D08EEC96E0ADB7BEB773
:1014500012969C938E93119785E296E014969C9336
:101460008E9313970E942E2E0F900F900F900F9037
:1014700000D000D00EEC16E0EDB7FEB7128301836A
:101480008CEF95E0948383830E942E2E00D0EDB7DD
:10149000FEB73196ADB7BEB712961C930E93119757
:1014A00085ED95E09383828388E690E0958384833D
:1014B0000E942E2EEDB7FEB736960FB6F894FEBFFB
:1014C0000FBEEDBF81E001C080E02F960FB6F8940B
:1014D000DEBF0FBECDBFCF91DF911F910F91FF9067
:1014E000EF90DF90CF90BF9008959F92AF92BF9200
:1014F000CF92DF92EF92FF920F931F93CF93DF93E0
:101500002DB73EB72E5030400FB6F8943EBF0FBEF9
:101510002DBFEDB7FEB731966EECE62E66E0F62EE7
:10152000ADB7BEB71296FC92EE9211978FE297E09C
:101530009383828381E990E09583848380ED90E0BA
:101540009783868380910A07808711868091100295
:101550008287138680913302848715860E942E2EFF
:10156000EDB7FEB73E960FB6F894FEBF0FBEEDBFC7
:10157000C0EDD1E0BB24AE2C9F2C5BE2E52E57E002
:10158000F52E29C0CE010E94C83E182F00E0CE01E2
:1015900001960E94C83E00D000D000D0EDB7FEB743
:1015A0003196ADB7BEB71196AC92119712969C9238
:1015B000F382E2829801280F311D358324830E9433
:1015C0002E2EB39422968DB79EB706960FB6F8943A
:1015D0009EBF0FBE8DBF80910B074EECC42E46E020
:1015E000D42EB81678F200D000D0ADB7BEB71296A0
:1015F000DC92CE9211978DE197E014969C938E9396
:1016000013970E942E2EEDB7FEB7D282C1828EEFC5
:1016100096E0948383830E942E2E00D0EDB7FEB710
:101620003196ADB7BEB71296DC92CE92119788ED87
:1016300096E09383828388E690E0958384830E947A
:101640002E2EEDB7FEB736960FB6F894FEBF0FBE3E
:10165000EDBF81E0DF91CF911F910F91FF90EF904F
:10166000DF90CF90BF90AF909F90089582E00E944E
:101670000526282F30E086FF41C02F7030702230C1
:10168000310591F02430310509F121303105B1F5F2
:1016900087FF03C00E94E722089560914F02709176
:1016A000500284E597E009C087FF03C00E94F12241
:1016B00008958CE597E060E070E00E94FC2360ED07
:1016C00077E080E090E00E94F53B089587FF06C038
:1016D00081E00E9405260E94E120089520910907DB
:1016E000822F8F7090E0019660910A0770E00E944F
:1016F000CF3D8F70207F282B2093090708951F93DB
:10170000182F0E943432E12FF0E0EE0FFF1FEE0F92
:10171000FF1FE55CFC4F60837183828393831F917D
:1017200008950F931F93CF93DF93182FEB010E941F
:101730003432012F10E06F5F7F4F8F4F9F4FD801E2
:10174000AA0FBB1FAA0FBB1F9D0125543D4FF901D6
:101750006083718382839383A55CBC4F209729F4B7
:101760002EEF3FEF4FEF5FEF09C09E01442737FD9B
:101770004095542F260F371F481F591F2D933D9317
:101780004D935C931397F801E554FC4F83E68083F7
:1017900080910807886080930807DF91CF911F919F
:1017A0000F910895AF92BF92CF92DF92EF92FF9286
:1017B0000F931F93CF93DF93DC011296CDEAD6E00F
:1017C000E0E08D018D91982F90539A3028F4E43009
:1017D00019F08993EF5FF5CFF0E0E355F94F1082F0
:1017E0008DEA96E00E940A3EEC0197FDE5C08091EB
:1017F0000B0790E08C179D070CF4DEC0D8018C918C
:101800008D3309F04DC0209709F4D6C080910807A8
:1018100084FFD2C02197C801019611962C9111978F
:10182000203321F48C2F0E947F0B19C0213309F043
:10183000C3C06DEA76E040E224E031E00E948B2DE7
:10184000882341F08DEA96E00E940A3EBC0197FF92
:1018500003C0B2C060E070E08C2F0E94910B00D0FA
:1018600000D000D0EDB7FEB731968EEC96E0ADB764
:10187000BEB712969C938E93119783EA91E093835F
:10188000828381E990E0958384830E942E2EEDB7B8
:10189000FEB736960FB6F894FEBF0FBEEDBF8AC0F6
:1018A00000D000D000D0EDB7FEB731968EEC96E0B8
:1018B000ADB7BEB712969C938E93119780EA91E0D4
:1018C0009383828381E990E0958384830E942E2E06
:1018D000EDB7FEB736960FB6F894FEBF0FBEEDBF5C
:1018E000209721F480910B0700E003C08C2F0C2F70
:1018F000015010E0C82FD0E06EECE62E66E0F62E28
:101900005AE9C52E51E0D52E4DE9A42E41E0B42E62
:101910004DC080910807982F9370913059F59091A0
:101920001F02992311F082FD25C000D000D000D005
:10193000EDB7FEB73196ADB7BEB71296FC92EE92F8
:101940001197B382A282D80133E0B595A7953A9555
:10195000E1F7A45FB84F8C9190E098012770307048
:1019600002C0959587952A95E2F7817090709583CE
:10197000848310C000D000D000D0EDB7FEB7319600
:10198000ADB7BEB71296FC92EE921197D382C28287
:10199000158214820E942E2EEDB7FEB736960FB632
:1019A000F894FEBF0FBEEDBF0F5F1F4F0C171D0752
:1019B0000CF4AFCF81E001C080E0DF91CF911F91A7
:1019C0000F91FF90EF90DF90CF90BF90AF90089570
:1019D000EF92FF920F931F932091D4063091D5067A
:1019E0004091D6065091D706211531054105510584
:1019F00049F46093D4067093D5068093D6069093ED
:101A0000D7065BC07B018C01E21AF30A040B150BAD
:101A1000A80197012D3331054105510508F44DC04A
:101A20006093D4067093D5068093D6069093D7061C
:101A30008CE597E00E949C290E94C13B7B018C01B0
:101A40000E9432340E94E62A8CE597E00E94CA2A5E
:101A5000882361F40E94C13B6E197F09800B910BB2
:101A6000683C71058105910558F31FC080910907F5
:101A70008F70809309078091090782958F7090E09D
:101A800085309105D4F08091FC018823B1F084EA7F
:101A900098E060E00E9458236091DB037091DC03C2
:101AA00085E591E00E94902008C080910907982F59
:101AB000907F905F8F70892BDCCF1F910F91FF90EB
:101AC000EF9008951F93CF93DF936F5F7F4F8F4FFA
:101AD0009F4F109108071695169516951170ABE358
:101AE000B3E0CBEBD2E0E0910B07F0E0EE0FFF1F8D
:101AF000EE0FFF1FEA0FFB1F20C02D913D914D916E
:101B00005C9113972115310541055105A1F06883BA
:101B100079838A839B83620F731F841F951F6D9344
:101B20007D938D939C93139720910B02620F711DEF
:101B3000811D911D11E014962496AE17BF07E9F69A
:101B40001170110F110F110F80910807877F812BE2
:101B500080930807DF91CF911F9108950E949921EA
:101B60000E94A2210E94330608952091330222236D
:101B700089F46DEA76E040E226E031E00E948B2DA8
:101B8000882351F08DEA96E00E940E2891E0882388
:101B900021F402C091E001C090E0892F08955F9286
:101BA0006F927F928F929F92AF92BF92CF92DF926D
:101BB000EF92FF920F931F93DF93CF93CDB7DEB7D2
:101BC000A0970FB6F894DEBF0FBECDBF53E0E52E51
:101BD000F12CE80EF91EC7010E94B50D882309F407
:101BE000E7C006EB11E0CC24DD24BB244FE6A42E95
:101BF00032E0632E712C6C0E7D1E4E010894811C08
:101C0000911CC601D80114962C91149721FF35C060
:101C100011962C911197213009F41C92A9821A82F5
:101C20001B821C821D82B3014AE050E00E946A3E82
:101C3000C7016DEA76E040E294010E948B2D882373
:101C4000E1F0F8015180F52DF13019F4D8015C92E2
:101C500014C08DEA96E00E940A3EBC2DB43109F40E
:101C6000CC9697FD08C0252D30E0281739071CF0C9
:101C7000F801808302C0BB24B3940894C11CD11C1A
:101C80000B5F1F4FFBE1CF16D10409F0BACFC7019C
:101C90006DEA76E040E229E031E00E948B2D882356
:101CA00051F08DEA96E00E94D72D80E390E06DEA36
:101CB00076E00E940427BB2089F000D000D000D03D
:101CC000EDB7FEB731968EEC96E0ADB7BEB7129683
:101CD0009C938E93119786E792E091C00E94C42254
:101CE000C7016DEA76E040E22DE031E00E948B2DE5
:101CF000882399F1C7018E010F5F1F4FB80140E2A1
:101D000021E131E00E948B2D882309F468C08DEA1F
:101D100096E0B80140E150E00E945C3E009709F077
:101D20005EC080E290E06DEA76E00E9404278DB705
:101D30009EB708970FB6F8949EBF0FBE8DBFEDB744
:101D4000FEB731968EEC96E0ADB7BEB712969C9377
:101D50008E9311978EE492E015C08DB79EB70897C9
:101D60000FB6F8949EBF0FBE8DBFEDB7FEB731968C
:101D70008EEC96E0ADB7BEB712969C938E931197FA
:101D800084ED91E09383828381E990E0958384835D
:101D90008BE491E0978386830E942E2EEDB7FEB7E9
:101DA00038960FB6F894FEBF0FBEEDBF81E001C0BC
:101DB00080E0A0960FB6F894DEBF0FBECDBFCF91E6
:101DC000DF911F910F91FF90EF90DF90CF90BF9028
:101DD000AF909F908F907F906F905F90089500D00C
:101DE00000D000D0EDB7FEB731968EEC96E0ADB7DF
:101DF000BEB712969C938E93119780E092E09383E6
:101E0000828381E990E0958384830E942E2EEDB732
:101E1000FEB73696C6CF0F931F93CF93DF93EC0197
:101E20002396CE010E94B50D882309F4E5C0CE01AA
:101E30006DEA76E040E225E131E00E948B2D8823B7
:101E400011F00E94AE0DCE016DEA76E040E229E18C
:101E500031E00E948B2D882309F449C08DEA96E079
:101E60000E940A3E181619060CF041C08DB79EB7A5
:101E700008970FB6F8949EBF0FBE8DBFEDB7FEB7A3
:101E800031960EEC16E0ADB7BEB712961C930E93CA
:101E9000119789ED92E09383828381E990E09583A5
:101EA00084838AE090E0978386830E942E2E0F9091
:101EB0000F900F900F90EDB7FEB7128301838CEC5B
:101EC00092E0948383830E942E2E0F900F900F90A8
:101ED0000F908091D2069091D3062091D006309138
:101EE000D106821B930B0E9489290E94E120CE011A
:101EF0006DEA76E040E22DE131E00E948B2D8823EF
:101F000099F08091AD06813339F48091080780FD06
:101F10000BC00E94E72208C0803331F4809108078B
:101F200080FF02C00E94F122CE016DEA76E040E21D
:101F300020E231E00E948B2D8823D9F08091AD06FC
:101F4000813351F48091080784FD13C00E94AE0DC7
:101F50008091080780610BC0803359F48091080795
:101F600084FF07C00E94AE0D809108078F7E80938A
:101F70000807CE016DEA76E040E223E231E00E94FC
:101F80008B2D882371F08DEA96E00E940A3E181688
:101F900019061CF40E94FB2204C0009769F50E94F8
:101FA0002A238DB79EB708970FB6F8949EBF0FBE31
:101FB0008DBFEDB7FEB731968EEC96E0ADB7BEB7EC
:101FC00012969C938E9311978FEB92E0938382836A
:101FD00081E990E0958384838BE491E09783868305
:101FE0000E942E2EEDB7FEB738960FB6F894FEBFBE
:101FF0000FBEEDBF81E001C080E0DF91CF911F9166
:102000000F910895CF93DF93EC012396CE010E94A8
:10201000D72DCE010E94B50D882309F43FC0CE0113
:102020006DEA76E040E220E031E00E948B2D8823CB
:10203000A9F18DEA96E00E940A3E2FEF8F3F9207AA
:1020400019F40E946E0608C02091B20230E0821797
:10205000930724F50E94AB0600D000D000D0EDB766
:10206000FEB731968EEC96E0ADB7BEB712969C9354
:102070008E9311978AEA95E09383828381E990E0B9
:10208000958384830E942E2E8DB79EB706960FB639
:10209000F8949EBF0FBE8DBF81E001C080E0DF914C
:1020A000CF9108958F929F92AF92BF92CF92DF927D
:1020B000EF92FF920F931F93DF93CF9300D000D046
:1020C000CDB7DEB7E3E0CE2ED12CC80ED91EC601A7
:1020D0000E94B50D882309F486C083E789831A829C
:1020E0001B821C8200E072E0A72EB12CAC0EBD1E3C
:1020F0007E010894E11CF11C1AC0802F90E0B5010C
:102100004AE050E00E946A3EC6016DEA76E040E295
:1021100097010E948B2D882349F08DEA96E00E945A
:10212000D72D802F6DEA76E00E940F210F5F8091FE
:102130000B07081710F38DE68983FF2462E0862ED3
:10214000912C8C0E9D1E5E010894A11CB11C1AC01E
:102150000F2D10E0C801B4014AE050E00E946A3E31
:10216000C6016DEA76E040E295010E948B2D88233E
:1021700041F08DEA96E00E940A3EF801E05FF84FD8
:102180008083F39480910A07F81610F30E943E2191
:102190008DB79EB708970FB6F8949EBF0FBE8DBF40
:1021A000EDB7FEB731968EEC96E0ADB7BEB712969E
:1021B0009C938E9311978FED97E09383828381E9AF
:1021C00090E0958384838BE491E0978386830E94DB
:1021D0002E2E8DB79EB708960FB6F8949EBF0FBEF1
:1021E0008DBF81E001C080E00F900F900F900F90A5
:1021F000CF91DF911F910F91FF90EF90DF90CF90E3
:10220000BF90AF909F908F900895AF92BF92DF9252
:10221000EF92FF920F931F93CF93DF9300D000D0E4
:10222000CEECD6E0ADB7BEB71296DC93CE93119745
:102230008BE998E014969C938E9313970E942E2E10
:102240000F900F900F900F90FF24FE01DC2EEF2EC9
:102250000DEA16E0C5E9D8E021C08F2D6DEA76E0E1
:102260000E94E72000D000D000D0EDB7FEB7319635
:10227000ADB7BEB71196DC9211971296EC92D3834C
:10228000C283158304830E942E2EF394EDB7FEB70C
:1022900036960FB6F894FEBF0FBEEDBF80910B07C8
:1022A000F816D8F200D000D08EEC96E0ADB7BEB7ED
:1022B00012969C938E9311978FE898E014969C93B6
:1022C0008E9313970E942E2E0F900F900F900F90C9
:1022D000DF91CF911F910F91FF90EF90DF90BF9012
:1022E000AF90089500D000D000D0EDB7FEB7319682
:1022F0008EEC96E0ADB7BEB712969C938E93119775
:102300008CE098E09383828381E990E095838483D5
:102310000E942E2E8DB79EB706960FB6F8949EBFDC
:102320000FBE8DBF0E94051181E00895CF92DF920C
:10233000FF920F931F93CF93DF938DB79EB70E97A6
:102340000FB6F8949EBF0FBE8DBFEDB7FEB73196A6
:10235000CEECD6E0ADB7BEB71296DC93CE93119714
:102360008CE598E09383828381E990E09583848370
:1023700080910A07868317828CE090E0918780879E
:10238000809110028287138680913302848715869C
:102390000E942E2EEDB7FEB73E960FB6F894FEBF04
:1023A0000FBEEDBF0E94051100D000D0ADB7BEB783
:1023B0001296DC93CE93119780E598E014969C9347
:1023C0008E9313970E942E2E0F900F900F900F90C8
:1023D00010E0FE01FC2E0F2FCCE4D8E021C000D08D
:1023E00000D000D0EDB7FEB73196ADB7BEB71196AD
:1023F000FC92119712960C93D383C283A12FB0E065
:10240000A05FB84F8C91848315820E942E2E1F5F8F
:10241000EDB7FEB736960FB6F894FEBF0FBEEDBF10
:1024200080910A071817D8F200D000D000D0EDB77D
:10243000FEB731968EEC96E0ADB7BEB712969C9380
:102440008E93119783E198E09383828388E690E0EE
:10245000958384830E942E2EEDB7FEB736960FB675
:10246000F894FEBF0FBEEDBF81E0DF91CF911F91C9
:102470000F91FF90DF90CF9008952F923F924F924F
:102480005F926F927F928F929F92AF92BF92CF9204
:10249000DF92EF92FF920F931F93DF93CF93CDB70D
:1024A000DEB760970FB6F894DEBF0FBECDBF782EB3
:1024B000082F10E0095F1F4F6E010894C11CD11C4A
:1024C0008EECE82E86E0F82EB2EC4B2EB7E05B2EB9
:1024D000ABE08A2E912C8C0E9D1EC701E88A692ED6
:1024E000FBEB2F2EF7E03F2E72C0C6010E94C607FD
:1024F0008DB79EB744970FB6F8949EBF0FBE8DBFA1
:10250000EDB7FEB73196ADB7BEB71296FC92EE921C
:10251000119753824282B582A4828F858683178267
:102520008981808711868A81828713868B819C812D
:10253000958784878D819E81978786878F819885EF
:10254000918B808B89859A85938B828B0E942E2E0E
:10255000EDB7FEB774960FB6F894FEBF0FBEEDBF91
:10256000AA2421C000D000D000D0EDB7FEB731962C
:10257000ADB7BEB71296FC92EE9211978EEB97E034
:1025800093838283D401AA0DB11D8C91848315821B
:102590000E942E2EA394ADB7BEB716960FB6F89430
:1025A000BEBF0FBEADBF80910A07A816D8F200D0FB
:1025B00000D08889EDB7FEB781836282348223829E
:1025C0000E942E2E73940F900F900F900F90A72CB7
:1025D000BB240A151B056CF08091B202781648F4F2
:1025E000872DB6010E9473068A81823008F07DCF64
:1025F0007FCF60960FB6F894DEBF0FBECDBFCF91F0
:10260000DF911F910F91FF90EF90DF90CF90BF90DF
:10261000AF909F908F907F906F905F904F903F9082
:102620002F9008950F931F93DF93CF930F92CDB701
:10263000DEB78C0102960E94D72DD80112968C919C
:10264000880F880F880F805800D000D000D0EDB7D9
:10265000FEB731962EEC36E0ADB7BEB712963C937E
:102660002E93119728EB37E03383228321E930E062
:102670003583248389830E942E2EEDB7FEB73696CC
:102680000FB6F894FEBF0FBEEDBF89810E943D12C8
:1026900081E00F90CF91DF911F910F910895DF920C
:1026A000EF92FF920F931F93CF93DF938DB79EB757
:1026B0000C970FB6F8949EBF0FBE8DBFEDB7FEB757
:1026C00031960EEC16E0ADB7BEB712961C930E9382
:1026D000119789E897E0938382838091B202848383
:1026E000158280910A078683178280913302808742
:1026F000118680E290E0938782870E942E2EEDB7AC
:10270000FEB73C960FB6F894FEBF0FBEEDBF80E05B
:102710000E943D1200D000D0ADB7BEB712961C93F8
:102720000E9311978EE797E014969C938E931397D0
:102730000E942E2E0F900F900F900F908091B2025A
:10274000893088F1FF24F394C8E0D0E0D02EE12E48
:102750000FE517E01CC000D000D000D0EDB7FEB7E9
:102760003196ADB7BEB71196DC9211971296EC92E6
:1027700013830283358324830E942E2EF394EDB7B6
:10278000FEB736960FB6F894FEBF0FBEEDBF2F2DE5
:1027900030E08091B20290E00197BE010E94CF3DEF
:1027A00062177307C4F6DF91CF911F910F91FF90CD
:1027B000EF90DF9008952F923F924F925F926F9229
:1027C0007F928F929F92AF92BF92CF92DF92EF92C1
:1027D000FF920F931F93CF93DF93EC012396CE01CB
:1027E0000E94D72D0E9434327B018C010E9400315F
:1027F0003C01C801B7010E9409314C01C801B70171
:102800000E9415316C01C801B70120E831E541E0B3
:1028100050E00E94E23D1901C801B7010E94213138
:102820002C01C801B7010E941B312CE330E0429E0D
:102830005001439EB00C529EB00C1124A80EB91E3C
:10284000CE016DEA76E040E226E231E00E948B2D77
:10285000882361F08DEA96E00E940A3E6C010097A1
:1028600029F4C801B7010E9415316C01CE016DEA4F
:1028700076E040E228E231E00E948B2D882329F0A7
:102880008DEA96E00E940A3E4C01CE016DEA76E0A8
:1028900040E22AE231E00E948B2D882329F08DEA64
:1028A00096E00E940A3E3C018DB79EB74A970FB64C
:1028B000F8949EBF0FBE8DBFEDB7FEB73196CEEC3C
:1028C000D6E0ADB7BEB71296DC93CE93119780E5F4
:1028D00095E09383828381E990E09583848380915E
:1028E0001002868317828091290280871186809149
:1028F0000B0282871386809115028487158680914A
:102900001A0286871786318A208AB38AA28AD58AD4
:10291000C48A978A868A718E608E0E942E2EEDB7A9
:10292000FEB776960FB6F894FEBF0FBEEDBFD2830A
:10293000C18384E495E0948383830E942E2E0F90BC
:102940000F900F900F90EE244E01AC2EC92C00E496
:1029500015E021C000D000D000D0EDB7FEB7319611
:10296000ADB7BEB71196AC9211971296CC92138365
:102970000283AE2DB0E0A05FB84F8C9184831582A6
:102980000E942E2EE394EDB7FEB736960FB6F8945C
:10299000FEBF0FBEEDBF80910A07CEECD6E0E81671
:1029A000C8F200D000D0ADB7BEB71296DC93CE937C
:1029B00011978CE395E014969C938E9313970E9445
:1029C0002E2E0F900F900F900F900E944F1300D05B
:1029D00000D0EDB7FEB7D283C1838DE195E094833B
:1029E00083830E942E2E00D0EDB7FEB73196ADB78F
:1029F000BEB71296DC93CE93119785EF94E0938344
:102A0000828388E690E0958384830E942E2EEDB722
:102A1000FEB736960FB6F894FEBF0FBEEDBF81E04D
:102A2000DF91CF911F910F91FF90EF90DF90CF90AA
:102A3000BF90AF909F908F907F906F905F904F90DE
:102A40003F902F900895CF93DF938DB79EB708974F
:102A50000FB6F8949EBF0FBE8DBFEDB7FEB731968F
:102A6000CEECD6E0ADB7BEB71296DC93CE931197FD
:102A70008EEB96E09383828381E990E09583848353
:102A800080ED90E0978386830E942E2EEDB7FEB7EF
:102A900038960FB6F894FEBF0FBEEDBF0E944F13DD
:102AA00000D000D0ADB7BEB71296DC93CE9311978D
:102AB0008FE996E014969C938E9313970E942E2E86
:102AC00000D0EDB7FEB73196ADB7BEB71296DC9326
:102AD000CE93119787E796E09383828388E690E010
:102AE000958384830E942E2EEDB7FEB736960FB6DF
:102AF000F894FEBF0FBEEDBF81E0DF91CF91089546
:102B0000CF93DF93DC011092AD06CDEAD6E0ED91D4
:102B1000FC91119780E090E00BC021912D3231F0B3
:102B20002B3221F0322F30533A3058F4299301964A
:102B3000AF012D913C911197265F3F4FE217F307AC
:102B400060F38355994FFC011082CA0101968D9361
:102B50009C938DEA96E00E940A3EDF91CF91089502
:102B6000CF92DF92EF92FF920F931F93DF93CF9359
:102B7000CDB7DEB762970FB6F894DEBF0FBECDBFFC
:102B80006C018C010D5F1F4FC8010E94D72DC80139
:102B90000E94B50D882309F405C1C8016DEA76E0ED
:102BA00040E220E031E00E948B2D882309F4FAC036
:102BB0008DEA96E00E940A3E7C018FEFE8168FEFC7
:102BC000F8060CF4EFC08091B20290E0E816F90626
:102BD0000CF0E8C01A830983A7E6B0E0CA0EDB1E3A
:102BE00004C00F5F1F4F1A83098309811A81F801FE
:102BF0008081882309F4D6C00C151D0508F0D2C0C9
:102C0000C8016CE271E043E050E00E945C3E009736
:102C100041F70D5F1F4F1A8309838E010F5F1F4F0E
:102C2000C8010E948015898BC8010E9480158B8382
:102C3000C8010E9480158C83C8010E9480159E8364
:102C40008D83C8010E94801598878F83C8010E94D8
:102C500080159A878987C8010E9480159C878B8779
:102C600020E0D02EC12E8E01035F1F4F0BC08D2D93
:102C70009C2D2A8B0E9480152A89F801E20FF11DF4
:102C800080832F5F80910A07281788F306C0FC0114
:102C9000E20FF11D10822F5F02C0CE010D9624308D
:102CA000B0F38C81823020F0CE0103960E940A0896
:102CB00000D000D000D0EDB7FEB731960EEC16E094
:102CC000ADB7BEB712961C930E9311978AEE94E09F
:102CD0009383828381E990E0958384830E942E2EE2
:102CE000EDB7FEB736960FB6F894FEBF0FBEEDBF38
:102CF000BE016D5F7F4FFFEFEF16FFEFFF06C1F4E0
:102D0000CB010E94840600D000D0ADB7BEB71296AA
:102D10001C930E9311978DEC94E014969C938E93D4
:102D200013970E942E2E0F900F900F900F9022C09D
:102D30008E2D0E949A0600D000D000D0EDB7FEB7CD
:102D40003196ADB7BEB712961C930E9311978FEACA
:102D500094E0938382830894E11CF11CF582E48261
:102D60000E942E2EEDB7FEB736960FB6F894FEBF32
:102D70000FBEEDBF00D000D08EEC96E0ADB7BEB771
:102D800012969C938E9311978EE894E014969C93E0
:102D90008E9313970E942E2E0F900F900F900F90EE
:102DA00081E001C080E062960FB6F894DEBF0FBEEE
:102DB000CDBFCF91DF911F910F91FF90EF90DF90EA
:102DC000CF900895AF92BF92CF92DF92EF92FF9291
:102DD0000F931F93DF93CF9300D00F92CDB7DEB741
:102DE0007C018C010D5F1F4FC8010E94D72DC801C7
:102DF0000E94B50D882309F48FC01A83098387E6E2
:102E000090E0E80EF91E04C00F5F1F4F1A8309837C
:102E100009811A81D8018C91882309F47DC00E158F
:102E20001F0508F079C0C80160E371E043E050E09D
:102E30000E945C3E009741F70D5F1F4F1A83098384
:102E40000E94AE0D20E000ED11E0BB246E0108945D
:102E5000C11CD11C32E6A32E2AC0C6012B830E94BE
:102E600080157C01C8016F2D0E94DA3EC8010196D1
:102E70006E2D0E94DA3E2B81E114F104A9F08B2D16
:102E800090E0FC01EE0FFF1FEE0FFF1FE55CFC4F13
:102E9000970140E050E0208331834283538385547F
:102EA0009C4FFC01A08221E0B3940E5F1F4F8091E4
:102EB0000B07B81690F2222321F00E9434320E94B0
:102EC000620D8DB79EB708970FB6F8949EBF0FBEE0
:102ED0008DBFEDB7FEB731968EEC96E0ADB7BEB7BD
:102EE00012969C938E9311978BEC96E0938382833A
:102EF00081E990E0958384838BE491E097838683D6
:102F00000E942E2EEDB7FEB738960FB6F894FEBF8E
:102F10000FBEEDBF81E001C080E00F900F900F90D9
:102F2000CF91DF911F910F91FF90EF90DF90CF90A5
:102F3000BF90AF9008958F929F92AF92BF92CF9221
:102F4000DF92EF92FF920F931F93CF93DF930E9434
:102F500034327B018C012DB73EB7285030400FB67C
:102F6000F8943EBF0FBE2DBFEDB7FEB73196CEEC45
:102F7000D6E0ADB7BEB71296DC93CE93119789E831
:102F800094E09383828381E990E09583848380ED4C
:102F900090E0978386830E942E2E00D0EDB7FEB777
:102FA0003196ADB7BEB71296DC93CE9311978CE6EF
:102FB00094E09383828386EB90E095838483E6821A
:102FC000F782008711870E942E2E0F900F90EDB789
:102FD000FEB73196ADB7BEB71296DC93CE9311977C
:102FE00082E594E09383828380910A07848315822B
:102FF0008091BB01868317820E942E2EEDB7FEB70B
:1030000038960FB6F894FEBF0FBEEDBFBB246E011D
:103010009C2EAD2C7EE4C72E74E0D72E21C000D0AC
:1030200000D000D0EDB7FEB73196ADB7BEB7119660
:103030009C9211971296AC92D382C282AB2DB0E0D3
:10304000A45FB84F8C91848315820E942E2EB39476
:10305000CDB7DEB726960FB6F894DEBF0FBECDBF54
:1030600080910A07CEECD6E0B816C8F200D000D0A6
:10307000EDB7FEB7D283C18382E494E09483838367
:103080000E942E2E0F900F900F900F90DD244E0176
:10309000CC2EA92C69E3862E64E0962E63C06D2D9C
:1030A00070E0FB01E554FC4FB080BB20C1F1FB0197
:1030B000EE0FFF1FEE0FFF1FDF01A554BD4F2D9137
:1030C0003D914D915C911397E55CFC4FE216F30640
:1030D0000407150748F080819181A281B3818E1980
:1030E0009F09A00BB10B08C080819181A281B3819F
:1030F000821B930BA40BB50BFB01EE0FFF1FEE0F12
:10310000FF1FE55CFC4F20813181428153812E3FBE
:103110006FEF36076FEF46076FEF560719F480E041
:1031200090E0DC01CDB7DEB72A970FB6F894DEBF8A
:103130000FBECDBFEDB7FEB73196C982AA8293828A
:103140008282B482158286839783A087B1870E948A
:103150002E2ED394EDB7FEB73A960FB6F894FEBF75
:103160000FBEEDBF80910B07D81608F498CFCDEABB
:10317000D6E080E390E0BE010E94EB272DB73EB77A
:103180002A5130400FB6F8943EBF0FBE2DBFEDB7A9
:10319000FEB731960EEC16E0ADB7BEB712961C9393
:1031A0000E93119787EE93E09383828380910807B3
:1031B000817084831582809108078695817086834B
:1031C0001782809108078695869581708087118681
:1031D00080910807829581708287138680911407F9
:1031E00090911507A0911607B091170784879587CE
:1031F000A687B78780911002808B118A80911F0269
:10320000828B138A80912902848B158A80913302E4
:10321000868B178AD18FC08F0E942E2ECDB7DEB736
:103220002C960FB6F894DEBF0FBECDBFEDB7FEB73C
:103230003196ADB7BEB712961C930E93119785ECDD
:1032400093E0938382838091B3028483158280917B
:10325000B402868317828091B5029091B60291875D
:1032600080878091B7029091B802A091B902B09185
:10327000BA0282879387A487B5870E942E2ECDB786
:10328000DEB72A960FB6F894DEBF0FBECDBF1A8305
:10329000098386EA93E09C838B830E942E2E00D0C4
:1032A000EDB7FEB73196ADB7BEB712961C930E932D
:1032B000119782E893E09383828388E690E0958378
:1032C00084830E942E2ECDB7DEB726960FB6F894D3
:1032D000DEBF0FBECDBF81E0DF91CF911F910F9177
:1032E000FF90EF90DF90CF90BF90AF909F908F9026
:1032F0000895AF92BF92CF92DF92EF92FF920F9319
:103300001F93DF93CF9300D000D0CDB7DEB70E94DC
:10331000C13B5B016C017E010894E11CF11C0E9421
:1033200032340E94E62AC70160915F010E94372A69
:103330008823E1F0E980FA800B811C8180EC98ED14
:10334000A4E5BCE7E80EF91E0A1F1B1F6091BB0134
:1033500070E080E090E024E833E040E050E00E943C
:10336000903DE60EF71E081F191F11C00E94C13BB9
:103370006A197B098C099D09683EA3E07A07A0E0E1
:103380008A07A0E09A0758F2EE24FF248701B701CC
:10339000C8010F900F900F900F90CF91DF911F9168
:1033A0000F91FF90EF90DF90CF90BF90AF90089576
:1033B0001F9310E060915F016F5F60935F018BE589
:1033C00091E00E94E7296AEF70E080E090E00E94BF
:1033D000F53B0E9479199B01AC01611571058105CE
:1033E000910519F41F5F153029F7B901CA011F9122
:1033F0000895EF92FF920F931F932091C001222313
:10340000E9F12091090722952F70C1F52091D80686
:103410003091D9064091DA065091DB06211531052D
:103420004105510581F07B018C01E21AF30A040B7E
:10343000150BA8019701213801E5300701E040078D
:1034400000E05007D8F06093D8067093D9068093B7
:10345000DA069093DB060E94D8197B018C01611576
:1034600071058105910551F00E9405328091080790
:1034700085FF04C0C801B7010E94F5371F910F9165
:10348000FF90EF9008950E941E220E9424270E9420
:1034900052069091F70180E02091F201820F911D78
:1034A0009093DC038093DB0384EC98E060E00E945F
:1034B000582384EB98E061E00E9458236091DB037D
:1034C0007091DC0385E591E00E94902090910907BE
:1034D000882311F09F7002C09F709061909309073C
:1034E00064EF71E080E090E00E94F53B6CE370E0F7
:1034F00080E090E00E94C8328091080785FF03C0F9
:103500008CE798E302C080E090E00E94B1320E9414
:10351000A2210E9434320E94F91980E00E94AC235B
:103520000895CF93DF93FC0105964581403219F44D
:103530000E949B1748C0A0E6B1E020E030E055278C
:1035400047FD5095ED91FC911197649170E06417DF
:10355000750709F041C03196E491F0E0EC01698112
:10356000772767FD7095E617F707B1F5F901EE0FBC
:10357000FF1FEE0FFF1FE05AFE4F0280F381E02D88
:103580000995882301F500D000D000D0EDB7FEB733
:1035900031968EEC96E0ADB7BEB712969C938E93A3
:1035A000119787E991E0938382838BEF90E0958375
:1035B00084830E942E2ECDB7DEB726960FB6F894E0
:1035C000DEBF0FBECDBF62E370E080E090E00E94FE
:1035D000F53BDF91CF9108952F5F3F4F14962F3029
:1035E000310509F0AFCFEFCF2F923F924F925F920C
:1035F0006F927F928F929F92AF92BF92CF92DF9203
:10360000EF92FF920F931F93DF93CF93CDB7DEB767
:10361000A1970FB6F894DEBF0FBECDBF7090100219
:103620000E9432340E94E62A9093DD068093DC06E5
:103630000097D1F023E134E03093D1062093D006F7
:103640003093D3062093D20683529C4F0E94911A46
:103650008091D2069091D3062091D0063091D10668
:10366000821B930B0E9489290E94360B0E943432E0
:103670007B018C018091E2069091E306A091E40623
:10368000B091E5068E159F05A007B10709F493C216
:10369000E092E206F092E3060093E4061093E5065A
:1036A00080E00E94AC238091080781FF0FC08091C9
:1036B000140790911507A0911607B0911707E81607
:1036C000F9060A071B0710F00E942A230E943223E2
:1036D00080910807887109F0C7C0C801B7012CE3C1
:1036E00030E040E050E00E94E23D8091DE069091A3
:1036F000DF06A091E006B091E106281739074A07D6
:103700005B0709F4B1C02093DE063093DF064093D7
:10371000E0065093E10620E0CC241E010894211C11
:10372000311C472D50E05D8F4C8F572C91C08C2D54
:10373000B10129A30E947306C101B801A7010E942B
:10374000FF0629A1882309F482C089859A850097FC
:1037500009F47DC050910A07588BAC0160E070E01D
:103760004A8B5B8B6C8B7D8B4424DD245C2D5F5FEF
:103770005A8F4701580165C000E010E08D2D90E0A0
:10378000BC01645F784F7F8B6E8BEBE0F0E0EC0F59
:10379000FD1FE80FF91FF98FE88F6D2C7C2CC42CCE
:1037A000C00EDD24C60101964C8D5D8D481759076A
:1037B000E9F1EE89FF89808190E0002E02C09595A5
:1037C00087950A94E2F7009789F5E88DF98D808155
:1037D00090E0002E02C0959587950A94E2F780FF4D
:1037E00025C07601EE0CFF1CEE0CFF1C2BE333E032
:1037F000E20EF31E6091290270E080E090E02A89D9
:103800003B894C895D890E94903D24E630E040E090
:1038100050E00E94E23DF7012083318342835383CD
:10382000F601E554FC4F2A8D208321E00F5F1F4FE6
:103830000830110509F0B3CFD62CC72CD39438E04B
:10384000430E4889D41608F497CF85017401C394B8
:103850008091B202C81608F46ACF752C222321F099
:10386000C801B7010E94620D8091080783FF42C121
:10387000662440E0672D70E0798B688B772D71505E
:103880007A8B872F90E09C01220F331F220F331F6A
:10389000F901E554FD4FFB8FEA8FB901655C7C4F60
:1038A0007D8F6C8FFC01E554FC4FFF8FEE8F342E23
:1038B000272CFFC0832D90E0FC01E45FF84F2081AE
:1038C00044245524422F50E05F8B4E8BBC01605F37
:1038D000784F798F688FB62CB40C8E899F89042C11
:1038E00002C0959587950A94E2F7CB2CDD2480FFE2
:1038F00051C04601880C991C880C991CF401E55CA8
:10390000FC4F80819181A281B381E816F9060A07F4
:103910001B0708F4C3C08B2D60E00E947721C6010D
:103920000196E889F989E817F907E1F0B092B30246
:10393000F601E554FC4F80818093B402F401E55414
:10394000FD4F808191819701281B390B3093B6027E
:103950002093B502E092B702F092B8020093B90248
:103960001093BA02C601880F991F880F991FFC0196
:10397000E554FD4F1082118212821382855C9C4FA8
:10398000FC011082118212821382F601E554FC4F71
:10399000108284C0B601660F771F660F771F4BEB4E
:1039A000842E42E0942E860E971EF40120813181F0
:1039B00042815381E216F3060407150708F46EC02E
:1039C0009B01255C3C4FF90180819181A281B381EB
:1039D000E816F9060A071B0708F060C08B2D61E0A6
:1039E00029A338A30E94772129A138A1222009F414
:1039F00055C0C6010196488959894817590709F4E5
:103A00004DC0E88DF98D808190E0042C02C0959521
:103A100087950A94E2F780FF41C08091080784FDF2
:103A20003DC080911502F40180809180A280B38016
:103A3000880E911CA11CB11CEA8DFB8D80829182A5
:103A4000A282B38280911A0290E0A0E0B0E0CC970D
:103A5000A109B109F9012081318142815381820F8D
:103A6000931FA41FB51FEC8DFD8D80839183A283CE
:103A7000B383F601E554FC4F2081EE8DFF8D20834A
:103A8000E814F9040A051B0548F0E816F9060A07C8
:103A90001B0720F48A8961E00E9477210894411C69
:103AA000511CF8E04F16510409F015CF339428E06B
:103AB000620E80910A07381608F4FCCE722C0E9420
:103AC000A22130910B07EBE3F3E020E010C08191DD
:103AD0009191A191B1910197A109B1098E3F4FEF49
:103AE00094074FEFA4074FEFB40720F02F5F231781
:103AF00070F357C07720D9F18091080784FF37C051
:103B0000B0910B0780E090E0472D50E026C0BC014B
:103B100001964817590709F133E0759567953A956D
:103B2000E1F770E0A22FA770FB01E45FF84F20815E
:103B300030E00A2E02C0359527950A94E2F720FF5F
:103B40000CC0605F784FFB01208130E002C03595EA
:103B50002795AA95E2F720FD05C0282F8B17B8F20C
:103B600060E001C061E0872D81500E9477210E94B2
:103B7000A221C801B70123E030E040E050E00E94FC
:103B8000E23DFB01E05AFD4F81E060810E945E242E
:103B9000C801B7010E94E80CC801B7010E94F919D9
:103BA0000AC00E94992180910807877F80930807A7
:103BB000709010029FCFA1960FB6F894DEBF0FBE93
:103BC000CDBFCF91DF911F910F91FF90EF90DF90CC
:103BD000CF90BF90AF909F908F907F906F905F90AD
:103BE0004F903F902F9008958AE592E09093CF06F2
:103BF0008093CE060895E091F306F091F406819348
:103C0000F093F406E093F30608951F93CF93DF93A8
:103C1000182FEB0104C089910E94FB1D1150112344
:103C2000D1F7DF91CF911F9108958B32910508F460
:103C300053C080910004833409F04EC08091070482
:103C4000823009F049C020910B0430910C0440915E
:103C50000D0450910E048091E7069091E806A09122
:103C6000E906B091EA06281739074A075B07A1F56C
:103C70009091ED0380E02091EE03820F911D8C5016
:103C80009140E7EFF4E01AC08281853029F0863058
:103C900069F0823009F51EC0E091E606E350E43099
:103CA000D8F4F0E0E159FD4F8081089581E0089556
:103CB000218130E02F5F3F4FE20FF31F40814F3FE4
:103CC00059F09F01275F34402817390738F44533EE
:103CD00079F7DACF82E0089580E0089580E00895D2
:103CE000FF920F931F93CF93DF93F82E062F0E941E
:103CF000E433882309F4B1C0CDEDD3E08AE191E04B
:103D0000FE019C01119221503040E1F784E490E0E3
:103D100064E577E043E450E00E945C2ACE01069619
:103D20006EE477E00E947F2DCE0169E672E00E948A
:103D30007F2D82E88093EE0381E18093F4030023DA
:103D400029F0CE014E9669E672E004C0CE014E968F
:103D500060E677E00E94742DE7E0F4E081E0809374
:103D60000704818386E0828313828091E706909125
:103D7000E806A091E906B091EA0684839583A683BC
:103D8000B78311861086002319F080E890E002C006
:103D900080E090E09387828783E294E06EE477E0AE
:103DA0000E947F2D83EF94E09093F4068093F306B6
:103DB00084E062EB71E00E94051E85E30E94FB1D1A
:103DC00081E00E94FB1D8F2D0E94FB1D8DE30E9450
:103DD000FB1D87E00E94FB1D81E00E94FB1D86E029
:103DE0006EE477E00E94051E8CE00E94FB1D0CE94A
:103DF00011E0E80109900020E9F72197C01BD10BE1
:103E00008C2F0E94FB1D8C2FB8010E94051E3F2D98
:103E10003330B1F482E30E94FB1D84E00E94FB1D5D
:103E200084E064E577E00E94051E86E30E94FB1DA6
:103E300084E00E94FB1D84E060E677E00E94051E9E
:103E400086E06CEA71E00E94051E8091F306909175
:103E5000F406875094400E949C2ADF91CF911F91D5
:103E60000F91FF9008957F928F929F92AF92BF9291
:103E7000CF92DF92EF92FF920F931F93CF93DF9336
:103E80000E9496340E94C13B4B015C0180E29EE49B
:103E9000A0E0B0E0880E991EAA1EBB1EDD24D394BC
:103EA00004E0C02E12E0712EF9C08091E606813048
:103EB00061F00E943234EC01009709F4EFC00E94D7
:103EC000E62A009709F411C1E9C0C0E0D0E0809172
:103ED000E606833009F4C1C0843030F4813071F0DB
:103EE000823009F0D9C042C0853009F4BEC08530A7
:103EF00008F4D4C0863009F0CFC0B7C084E597E09D
:103F000063E672E00E94742D80E697E063E672E05B
:103F10000E94742D0E94C13B7B018C016093E706D7
:103F20007093E8068093E9069093EA060E94C13BED
:103F30008701FF24EE24E60EF71E081F191FE092EA
:103F4000E706F092E8060093E9061093EA0681E09E
:103F500061E00E94701E7092E6061092EB061092CD
:103F6000EC061092ED061092EE0698C0CE010E946B
:103F7000151E823009F090C084E597E067E174E097
:103F80000E94742DE7EFF4E08E0103521C4FDF0115
:103F90001196E180ED01219680818630A1F0873075
:103FA00030F4813051F0833009F04AC009C08333C6
:103FB00069F0863309F044C03EC088E597E03DC013
:103FC0008CE597E03AC084E697E037C02B811196E4
:103FD0006C91119770E080E090E0962F882777270A
:103FE0006627620F711D811D911D298130E040E01F
:103FF00050E0A90133272227620F731F841F951FEA
:104000002A8130E040E050E0542F432F322F222706
:10401000620F731F841F951F28EE33E040E050E0CD
:104020000E94903D6093EF067093F0068093F10636
:104030009093F20605C080E697E0BE010E94742DC1
:10404000FE01EE0DF11DE017F10708F4A0CF83E0AB
:1040500060E00E94701E83E01CC0CE010E94151E0D
:104060008330D1F4C092E60607C0CE010E94151E2F
:10407000843069F48093E6060E94C13B6093EB06AE
:104080007093EC068093ED069093EE0607C08130A6
:1040900029F48093E60602C0D092E6068091E606F7
:1040A000843041F10E94C13B681579058A059B0562
:1040B00008F50E94E433882389F3F7CE80915C07EA
:1040C000882321F08CE597E00E94C12A81E0DF91EE
:1040D000CF911F910F91FF90EF90DF90CF90BF9005
:1040E000AF909F908F907F9008958091F4038131DD
:1040F000A9F6EDCE0E945A35809154078823F1F637
:10410000E6CFBC0110929C018CE991E04FE050E0B9
:104110000E944C3E81E08093E6060E94331F089582
:104120000F931F93DF93CF93CDB7DEB728970FB6CA
:10413000F894DEBF0FBECDBF9C018B0180ED92E0F5
:10414000B90148E00E94F62E882379F110935002BD
:1041500000934F028091C501882329F084E391E008
:104160000E94812023C08091CA0189838091CF0160
:104170008A838091D4018B838091D9018C83809133
:10418000DE018D838091E3018E838091E8018F832E
:104190008091ED018887CE010196BE016B5F7F4F54
:1041A00040E050E00E941E2F01C080E028960FB62C
:1041B000F894DEBF0FBECDBFCF91DF911F910F915D
:1041C0000895E0911807F091190709950895EF9265
:1041D000FF920F931F93CF93DF939CE0899FC001C1
:1041E0001124FB011486EC01C05BDF4F8B012CE531
:1041F000E22EF12CE80EF91ECE010E94C83EF80115
:1042000081938F01882321F02196CE15DF05A1F738
:10421000DF91CF911F910F91FF90EF900895CF9272
:10422000DF92EF92FF920F931F93CF93DF939CE067
:10423000899FC0011124FB011486EC01C05BDF4F94
:104240007B013CE5C32ED12CC80ED91E8701CE01BF
:10425000F70161917F010E94DA3EF8018081882395
:1042600021F02196CC15DD0589F7DF91CF911F91C3
:104270000F91FF90EF90DF90CF9008950F931F93D1
:10428000CF93DF9300E117E0C0E1D2E0F801619144
:104290008F01CE010E94DA3E2196F2E0C431DF07A1
:1042A000A9F7DF91CF911F910F9108950F931F935D
:1042B000CF93DF9300E117E0C0E1D2E0CE010E948E
:1042C000C83EF80181938F012196F2E0C431DF07E7
:1042D000A9F7DF91CF911F910F9108950E94A93204
:1042E00090E0059667E070E00E94CF3D0895E82FCA
:1042F000E695E695E6958770F0E0662361F0E45F69
:10430000F84F21E030E002C0220F331F8A95E2F718
:104310008081822B0CC0E45FF84F21E030E002C0C6
:10432000220F331F8A95E2F72095808182238083B4
:10433000089510920C0710920D0710920E0710921C
:104340000F070895EF92FF920F931F93CF93DF9380
:1043500087E060E00E94093BCFE0D7E0809108074A
:10436000982F9370913041F490911F02992311F08E
:1043700082FD02C0888101C080E007E010E0E82EE5
:10438000FF2486E060E00E94093BB701002E02C0D6
:10439000759567950A94E2F76170707085E00E94E8
:1043A000093B86E061E00E94093B015010408FEF1D
:1043B0000F3F180731F7219787E0CB30D80771F608
:1043C00087E061E00E94093BDF91CF911F910F913F
:1043D000FF90EF9008951F9310E02AC085EF96E0BC
:1043E0000E949B3685EF96E060E040E00E946D36CB
:1043F000612F70E06F5F7F4F85EF96E04AE050E0FD
:104400000E94753D0E949921812F61E00E947721D1
:104410000E94A22160912E0270E080E090E028EEE0
:1044200033E040E050E00E94903D0E94F53B1F5F6A
:1044300080910B07181790F210E0FCCF0F931F9399
:10444000DF93CF93CDB7DEB728970FB6F894DEBFD2
:104450000FBECDBF87E061E00E94E53A83E061E0F6
:104460000E94E53A86E061E00E94E53A85E061E07D
:104470000E94E53A87E061E00E94093B83E061E049
:104480000E94093B0E9499210E94A22183E060E0E2
:104490000E94093B8FE060E00E94E53A8FE061E016
:1044A0000E94093B82EB97E00E94C12F8091080790
:1044B0008160817C809308071092090781E08093D6
:1044C0000A0788E080930B071092140710921507D3
:1044D0001092160710921707DE011196E3E7F2E03B
:1044E00001900D928150E1F785EF96E061E08E0139
:1044F0000F5F1F4FA8010E941D361A821B8281E0A8
:104500008C8385EF96E060E0A8010E941D3685EF60
:1045100096E060E142E020E00E94A3360E948A37E4
:10452000882329F4809108078062809308072896E1
:104530000FB6F894DEBF0FBECDBFCF91DF911F91B4
:104540000F9108950F931F93CF93DF9306EB11E024
:10455000C0E0D0E0CE010E94C83EF80180832196E1
:104560000B5F1F4FCB31D105A9F7809101028F5FFF
:1045700080930A07880F880F880F80930B07DF91BD
:10458000CF911F910F9108950F931F93CF93DF93B6
:1045900008E312E0CAE1D0E0CE01F80160810E9498
:1045A000DA3E219705501040FFEFCF3FDF07A1F71C
:1045B000809101028F5F80930A07880F880F880F10
:1045C00080930B07DF91CF911F910F9108958091F8
:1045D00008078160809308070E94A2210E94C422DC
:1045E0000895809108078E7F809308070E94A2217A
:1045F0000E94C4220895DF92EF92FF920F931F93BF
:10460000D82E882309F10E9434327B018C016D2D54
:1046100070E080E090E020E13EE040E050E00E9469
:10462000903DE60EF71E081F191FE0921407F09246
:1046300015070093160710931707809108078260EB
:10464000809308070E94A2211F910F91FF90EF9085
:10465000DF900895809108078D7F809308070E945E
:10466000A22108958FE00E94433B2091240230E074
:1046700041E08217930709F440E0440F440F809112
:1046800008078B7F842B809308070895CF93DF93CF
:10469000EC0106C085EF96E040E050E00E947F3DCF
:1046A000FE01219664916623A9F7DF91CF910895C9
:1046B000EF92FF920F931F93CF93DF93182F092F41
:1046C000462F85EF96E060E00E946D36C801E92E26
:1046D000E7017E01F82EE70106C085EF96E040E095
:1046E00050E00E947F3D7E01E11A8E2DFE01219651
:1046F0006491662391F7992787FD9095C0E1D0E0FA
:10470000C81BD90B05C082E79AE00E944623219777
:10471000D7FFF9CFDF91CF911F910F91FF90EF90CD
:1047200008950F931F93CF93DF93C5EFD6E06AE010
:1047300070E00E94CF3D8C01CE014AE050E00E9423
:10474000753DCE01B8014AE050E00E94753DDF9111
:10475000CF911F910F910895EF92FF920F931F93A6
:10476000DF93CF930F92CDB7DEB789830E943432A7
:104770007B018C0185EF96E060E049810E946D36F7
:10478000C801B7010E9421310E94912380E79AE07D
:104790000E944623C801B7010E941B310E94912349
:1047A0008DE69AE00E9446230E946E21E82FF0E0F9
:1047B000EE0FFF1FE35CFD4F808191810E94462335
:1047C0008BE69AE00E944623C801B7010E94093196
:1047D0000E94912389E69AE00E944623C801B7010E
:1047E0000E9415310E9491230F90CF91DF911F916C
:1047F0000F91FF90EF900895CF92DF92EF92FF928A
:104800000F931F93DF93CF930F92CDB7DEB78C0139
:104810007B0185EF96E00E949B3685EF96E060E095
:1048200040E00E946D36680120E0F60161916F0161
:1048300085EF96E070E04AE050E029830E94753DE4
:1048400087E69AE00E94462329812F5F233069F78B
:10485000F801638185EF96E070E04AE050E00E9445
:10486000753D85EF96E060E041E00E946D3685E69B
:104870009AE00E94462385EF96E0B7014AE050E0B7
:104880000E94753D0F90CF91DF911F910F91FF9086
:10489000EF90DF90CF90089585EF96E06FE041E0D4
:1048A0000E946D368091090782958F7061E009F44E
:1048B00060E085EF96E00E94153608950F931F93F0
:1048C000CF93DF93482F162F85EF96E060E00E948C
:1048D0006D36809109078F7019F481E69AE010C057
:1048E0008FE59AE00E944623609109076F7085EF7B
:1048F00096E070E04AE050E00E94753D8DE59AE058
:104900000E9446238091080780FD03C081E59AE05C
:104910000AC081FD06C082FF0AC080911F02882361
:1049200031F085E49AE061E00E9458232BC0E091C9
:104930000907EF70F0E0E45FF84F0081C0E0D0E0DD
:10494000809109078F7069F49E012F5F3F4F80911E
:10495000100290E02817390721F400FD04C06DE42F
:1049600005C000FF02C0612F01C06FE585EF96E032
:1049700040E050E00E947F3D2196C830D10511F003
:104980000695DECF80E49AE00E9446230E944C24E4
:10499000DF91CF911F910F9108950F931F93CF93A4
:1049A000DF938C01EC01CC0FDD1FCC0FDD1FC80F96
:1049B000D91FCA54DE4F8A819B8160E00E94582330
:1049C0008FE39AE061E00E94582385EF96E060E073
:1049D00041E00E946D368C8180FF05C085EF96E036
:1049E0000E94533604C085EF96E00E945C360C307E
:1049F000110509F466C00D3011052CF401301105C4
:104A000009F06DC009C00331110509F442C0043139
:104A1000110509F064C047C08091BB01C82FD0E0E8
:104A2000E097D7FD05C08DE39AE00E94462307C0BA
:104A30008BE39AE00E944623D095C195DF4FBE01DB
:104A4000759567957595679585EF96E04AE050E016
:104A50000E94753D89E39AE00E944623C370D0709E
:104A6000BE01E4E0660F771FEA95E1F76C1B7D0B52
:104A700029F486E39AE00E94462306C085EF96E07B
:104A80004AE050E00E94753D81E39AE00E9446238F
:104A90004AC08FE29AE00E9446236091150285EF9A
:104AA00096E070E017C080911A028C3320F08DE2FE
:104AB0009AE00E94462360911A0270E06C537040A5
:104AC00007C07091F70160E08091F201680F711DDD
:104AD00085EF96E04AE050E00E94753D24C0F80161
:104AE000EE0FFF1FEE0FFF1FE00FF11FEA54FE4F06
:104AF00081816081813051F4662319F089E29AE066
:104B000002C086E29AE00E94462307C085EF96E045
:104B100070E04AE050E00E94753D0731110519F43C
:104B200084E29AE00DC0C80143978230910530F0CD
:104B30000831110519F00131110521F48FE19AE0D6
:104B40000E944623DF91CF911F910F910895AF925C
:104B5000BF92CF92DF92EF92FF920F931F93DF935A
:104B6000CF930F92CDB7DEB77C01D62EC22E80E058
:104B700049830E94613C8C014981DD2041F08D2DEB
:104B8000823011F4CC2019F4AA24BB240AC0E01608
:104B9000F1066CF5CC2011F080E801C080E0482BD4
:104BA00027C0E016F106D4F4ED2DE13039F0E23003
:104BB000A9F4F0E2AF16F3E0BF0684F480E0498385
:104BC0000E94613C8C0161E070E080E090E00E9416
:104BD000F53B0894A11CB11C4981E3CFCC2029F4FA
:104BE00080E2A81683E0B8061CF0406801C040E0EF
:104BF000842F0F90CF91DF911F910F91FF90EF9035
:104C0000DF90CF90BF90AF900895EF92FF921F93E7
:104C1000DF93CF930F92CDB7DEB7182F20911A07ED
:104C2000207880E029830E94613C7C0161E070E093
:104C300080E090E00E94F53B298183ECE81681E05A
:104C4000F8062CF082EC91E0612F41E012C0EDE219
:104C5000EE16E1E0FE062CF08CE291E0612F42E0DE
:104C600008C0F7E9EF16F1043CF086E990E0612F07
:104C700044E00E94A72501C080E020911A0730E09F
:104C80002F703070482F50E02115310541F44F70DE
:104C900050704115510559F0982F906409C04F701C
:104CA00050704115510519F4982F906201C0982F4A
:104CB00080931A07892F0F90CF91DF911F91FF905A
:104CC000EF900895CF92DF92FF920F931F93DF939F
:104CD000CF930F92CDB7DEB7F82E092F0E94CD24C7
:104CE000802F0F2D182F2BE1C22ED12C9AEAF92EEE
:104CF00082E00E940526482F50E09A012F70307004
:104D000022303105D9F02430310551F121303105FF
:104D100009F055C0F801EE0FFF1FEE0FFF1FE00F67
:104D2000F11FEA54FE4F848180FF4CC08081918145
:104D3000981709F447C08F5F808344C0F801EE0FD5
:104D4000FF1FEE0FFF1FE00FF11FEA54FE4F94818B
:104D500090FF35C09081992391F1915090832FC09D
:104D600086FF2DC087FF0AC080913802882311F08A
:104D7000F09238020E94C42221E025C003301105C0
:104D800029F48091C501882399F512C00C301105D2
:104D900091F10531110529F480911F02882371F1E9
:104DA00007C00231110521F480911002882349F1D6
:104DB000C8010196B6010E94CF3D8C0103C0882333
:104DC00009F496CF20E0C80129830E94CD242981CF
:104DD000222309F48DCF85EF96E00E945C360F9078
:104DE000CF91DF911F910F91FF90DF90CF900895A9
:104DF0000CE010E0E7CF0EE010E0E4CF07E110E0B8
:104E0000E1CF05E110E0DECFFF920F931F93CF9328
:104E1000DF93EC01F62E062F172F04C08C0F9D1F79
:104E20000E94DA3E802F8F19F80161918F0190E086
:104E30006623A1F78C0F9D1F0E94DA3EDF91CF9170
:104E40001F910F91FF900895DF92EF92FF920F93C1
:104E50001F93CF93DF9364EF71E080E090E00E94B6
:104E6000F53B80E090E00E94C83E843630F4982FF5
:104E7000990F892F880F880F890F863B39F48AE1B3
:104E800090E00E94C83E8A3A09F059C00E94C422AC
:104E900080E290E062E471E00E94042780E390E009
:104EA0006BE471E00E94042784EB9AE060E00E94CA
:104EB000582385EA9AE061E00E945823C0E5D0E0DB
:104EC000CE0160E00E94DA3E219684E0C030D8072F
:104ED000B9F701E010E0C0E5D0E03AE0E32EF12CB4
:104EE000CE0163E50E94DA3EC801B7010E94CF3DC2
:104EF000D82E605DCE0101960E94DA3E6D2D605D78
:104F0000CE0102960E94DA3E2C960F5F1F4F81E081
:104F1000C03DD80729F7C0E1D2E0CE016FEF0E9473
:104F2000DA3E219682E0C431D807B9F764EF71E028
:104F300080E090E00E94F53B0E94E12004C00E94C6
:104F4000A2220E94562180E00E94052690E08F70E8
:104F500090708230910549F08430910549F081309C
:104F6000910589F50E94EB212EC08AE190E020C0D6
:104F700085E99AE060E00E94582360ED77E080E0E8
:104F800090E00E94F53B84E89AE060E00E9458239C
:104F900084E79AE061E00E94582380E00E940526A1
:104FA00086FFFBCF85EF96E00E949B3680E090E085
:104FB0000E94622680913802882329F0E091180728
:104FC000F09119070995DF91CF911F910F91FF90F3
:104FD000EF90DF900895EF92FF920F931F93DF936E
:104FE000CF930F92CDB7DEB77C01062F172F802FFE
:104FF000861B9701280F311DC90169830E94C83E95
:10500000F80181938F016981882389F70F90CF91EF
:10501000DF911F910F91FF90EF900895EF92FF9213
:105020001F93CF93DF93182FE12EE7017E01F92E16
:10503000E701CE01811B282F30E0C90180960E9434
:10504000C83E9991882329F0992329F0891789F37B
:1050500002C081E0911180E0DF91CF911F91FF901C
:10506000EF900895CF92EF920F9385EF96E060E076
:1050700044E021E005E076E0E72E59E0C52E0E94ED
:1050800059370F91EF90CF900895CF92DF92EF9222
:10509000FF920F931F93CF93DF93FA0170E0635257
:1050A0007C4F213021F49A01275F3F4F05C0223009
:1050B00031F49A012250304040E050E003C020E03B
:1050C00030E0A901DB01EF0110C0DC90CC24119687
:1050D000EC901197FF24EC28FD2800E010E02E0D45
:1050E0003F1D401F511F12962297C230D10568F70D
:1050F000DF01AE7FA60FB71FE0FF0FC0EC90FF24CB
:1051000000E010E0102F0F2DFE2CEE2402C040E036
:1051100050E02E0D3F1D401F511F7A01002711271F
:10512000E114F1040105110591F720953095E82F60
:10513000F0E0E352FC4F30832183DF91CF911F9148
:105140000F91FF90EF90DF90CF9008951092F503AC
:105150001092F60380E48093F1031092F20380939F
:10516000F30388E16EE044E150E020E00E9445282E
:105170000895209101043091FF033093010420939E
:10518000FF03209102043091000430930204209325
:105190000004E7E0F4E02291820F911D24818483D2
:1051A000662311F0208301C0108224E0E330F2076F
:1051B00019F0892F9927EFCF10920F041092100445
:1051C00080E580930B0408959091ED0380E0209199
:1051D000EE0330E0282B392B80910B0490E0F4E0B3
:1051E00095958795FA95E1F7880F991F880F991F74
:1051F000281B390B2451304037FF02C020E030E03B
:10520000C9010895CF93DF93BC01CDEDD3E0CE016A
:105210000E947F2DCE0106966EE477E00E947F2DDE
:10522000DF91CF9108950F931F93CF93DF938B015D
:105230000E940229CBEFD3E0CE01B8010E94742D69
:10524000CE01049764E577E00E94742DDF91CF9141
:105250001F910F9108950F931F93CF93DF9303EE48
:1052600013E0C8010E940229E8016496C80148962B
:10527000BE010E94742DCE0164E577E00E94742D7A
:105280000E94A628DF91CF911F910F910895CF938F
:10529000DF93EC0188969093ED038093EE030E94D8
:1052A000A62810920F0410921004AE01445E5F4FC6
:1052B00082E36AE122E00E944528CE01C6960E9460
:1052C000FD33DF91CF910895262F206120930C04A8
:1052D000643021F0009711F481E090E061E00E94D9
:1052E000B9281092ED0388E28093EE030E942B29E7
:1052F00084E080930D0410920E0482E36AE14CE195
:1053000050E022E00E94452886E390E00E94FD33B1
:105310000895CF93DF93EC018091260790912707A2
:1053200060E00E94642989E180930C04CE010E9410
:105330004729DF91CF9108950F931F93CF93DF9368
:10534000BC0188E297E00E941329C9EED3E018E07F
:105350001093E9031092EA03CE0102966DEC7AE015
:1053600049E050E00E94283E84E58093EE0301E08E
:105370000093F4030E94A6281093FF0310920004E8
:10538000109201041092020485E08093030480913E
:105390005707809304041092050400930604CE017D
:1053A0004E9662E470E048E350E00E943E3E84E2A4
:1053B00062E240E450E020E00E94452882E690E06E
:1053C0000E94FD33DF91CF911F910F9108951F939C
:1053D000CF93DF939C01162F88E297E0B9010E94DA
:1053E0001329C9EED3E088E08093E9031092EA0321
:1053F000CE0102966DEC7AE049E050E00E94283E32
:105400008CE48093EE0381E18093F4030E94A6284C
:10541000109201048BE7809302048AE08093FF03DB
:10542000109300041092030488E380930404109204
:10543000050410920604CE014E9620E3FC01119261
:105440002A95E9F766EA7BE04AE050E00E94283EB0
:1054500088E26AE140E450E021E00E9445288AE5C4
:1054600090E00E94FD33DF91CF911F910895662354
:1054700021F0209102042617D9F42091030422235D
:10548000B9F420910404283399F4209100042B37B7
:1054900089F4FC0180912F048383809130048283FE
:1054A00080913104818380913204808381E008956A
:1054B00080E0089580E00895EF92FF920F931F938C
:1054C000CF93DF93182F092FEB01F42EE52E88E2FE
:1054D00097E00E9413298881807F803E31F48DED12
:1054E00093E06BE772E00E947F2D88E08093E903F0
:1054F0001092EA038BEE93E06DEC7AE049E050E025
:105500000E94283E1092ED0381E18093F403E09223
:105510000104F09202040093FF0310930004109220
:1055200003041092050410920604DF91CF911F919D
:105530000F91FF90EF9008951F93CF93DF93EC01AD
:105540004C969093ED03CE011C2F845E8093EE0366
:105550000E94A628CE01089690930304185F10932A
:105560000404AE01405F5F4F88E26AE121E00E94DF
:105570004528CE018A960E94FD33DF91CF911F917D
:105580000895BC0181E080931B078CE597E00E94A1
:10559000742D0895BC018091F403813099F48091B9
:1055A000FF03882379F480910704823469F487EF3C
:1055B00093E044E050E00E94313E9C0181E02115DF
:1055C000310519F080E0089580E00895DF92EF92B0
:1055D000FF920F931F93CF93DF938C01009709F0F5
:1055E000B5C080911B078570E9F180914B029091C5
:1055F0004C020097B9F50E94E433882399F18BE7B8
:1056000092E00E94022988E08093E90316E010935B
:10561000EA038BEE93E065EC7AE048E050E00E940C
:10562000283ECDEFD3E0DE011D921A95E9F7CE01B9
:105630000A976EE477E00E947F2DCE0106966CE516
:1056400077E00E94742DCE01049764E577E00E9414
:10565000742D80911B07886080931B078AE290E07D
:105660000E94FD3380914B0290914C0201969093E1
:105670004C0280934B0280911C07813009F024C2B8
:1056800080911B0781FF20C212E010931C078091BC
:105690004D028F5F80934D028F7100911D0702951F
:1056A000000F007E082BD0901E07F0901F0788E2A5
:1056B00097E068E677E00E941329E8E0EE2EE0929A
:1056C000E9031092EA038BEE93E06DEC7AE049E097
:1056D00050E00E94283E8CE28093EE0386E08093A7
:1056E000F4030E94A628D0920104F09202048BE0F9
:1056F0008093FF0300930004E3E0F4E0DF011D92D8
:10570000EA94E9F780914E02809305048D5F8093BF
:105710004E0280E680930B0410930C0483E0809388
:105720000D0410920E0410920F04109210041092A7
:105730001104109212041093130484E08093140453
:105740001093150486E2809316048DC18932910569
:1057500008F4BAC1E090E903BE2DB83009F0BFC12A
:105760008091EA03863009F0BAC183E094E064E5F1
:1057700077E044E050E00E94313E009709F0AFC16D
:105780008091F203813029F583EE93E00E94022993
:105790001092F10382E08093F2038DEF93E063EFC8
:1057A00073E00E947F2D83EF93E06EE477E00E9428
:1057B0007F2D83E094E069EF73E00E94742D89EF00
:1057C00093E064E577E00E94742D8AE290E00E9405
:1057D000FD3380911B0783FF77C11091F2031230D4
:1057E00009F072C189EF93E06CE577E044E050E0A6
:1057F0000E94313E009709F067C188E297E063EFAD
:1058000073E00E947F2D10931B075EC1EE2DE830E0
:1058100009F05AC18091EA03882309F055C18091AB
:10582000EB03853409F050C18BEF93E064E577E03A
:1058300044E050E00E94313E009709F045C180915C
:10584000F4038130F9F49091FF039830D9F4E0919A
:105850002007F0912107309719F087EF93E0099521
:105860000E942B291092FF0390910104983F28F089
:10587000809102048F5F80930204985F90930104EB
:10588000C801FAC00633110518F4863009F01CC1AE
:10589000209101042B3009F0A4C087EF93E068E663
:1058A00077E044E050E00E94313E009709F00CC1DF
:1058B000E0900C04FF24E2FE13C0E0912207F09177
:1058C0002307309709F484C080910204829586955D
:1058D000877063E040E050E020E030E0099578C058
:1058E0000E94E428EC0180911C07823079F5C70101
:1058F0008271907082319105E9F480E090E060E07F
:105900000E94642988E180930C04E0912407F091BF
:105910002507309739F0809100048295869587702D
:10592000099502C080E090E023E020931C070E94CC
:105930004729CAC081E080931C07E4FC03C0CE0164
:10594000019602C080E090E064E0BCC0833091F535
:10595000209781F1E0912207F0912307309751F1D0
:1059600040910B0450E074E0559547957A95E1F726
:10597000440F551F440F551FC80108974E5D5F4FD8
:105980008417950708F4AC01CE01840F951F081702
:10599000190720F49801241B350B01C09E0180914A
:1059A000020482958695877060E00995882311F03E
:1059B000CE010BC080911C07853009F485C0809111
:1059C0000C0480FF09C0CE01019669E00E946429A1
:1059D00085E080931C0778C0209709F477C0CE013A
:1059E00070C040914F0230E08091500290E0281743
:1059F000390709F069C080910204841709F064C076
:105A0000F0900C04F1FE3BC01092ED038CE2809309
:105A1000EE030E942B2982E180930C0481E090E048
:105A200060E00E94B928109203041092040480914F
:105A30004E0280930504109206048D5F80934E02FF
:105A400082E08093130484E08093140485E08093C3
:105A500015041092160490E690930B0480930D04A5
:105A600088E780930E0482E36AE140E250E022E09E
:105A70000E9445288AE390E00E94FD3325C0F4FE91
:105A800023C00E94E428909327078093260700975D
:105A9000A1F080910B04C82FD0E054E0D595C795B4
:105AA0005A95E1F7CC0FDD1FCC0FDD1FA2960850F1
:105AB00010400C171D0750F407C0F0FE05C080E031
:105AC00090E060E00E946429C0E0D0E0CE01DF9168
:105AD000CF911F910F91FF90EF90DF9008950A32C0
