:100000000C9426060C944E060C944E060C944E0648
:100010000C944E060C944E060C944E060C944E0610
:100020000C944E060C944E060C944E060C944E0600
:100030000C944E060C944E060C944E060C944E06F0
:100040000C947B3B0C944E060C944E060C944E067E
:100050000C944E060C944E060C944E060C944E06D0
:100060000C944F390C944E06687474703A2F2F72AA
:10007000617973686F6262792E6E65742F73637233
:10008000697074732F6A6176612F737663312E38CD
:1000900000485454502F312E3020323030204F4BF6
:1000A0000D0A436F6E74656E742D547970653A2035
:1000B000746578742F68746D6C0D0A507261676D89
:1000C000613A206E6F2D63616368650D0A0D0A0049
:1000D0003C6D657461206E616D653D766965777014
:1000E0006F727420636F6E74656E743D22776964FD
:1000F00074683D363430223E0D0A00485454502F67
:10010000312E302034303120556E617574686F7235
:10011000697A65640D0A436F6E74656E742D547947
:1001200070653A20746578742F68746D6C0D0A0DD3
:100130000A3C68313E34303120556E617574686F09
:1001400072697A65643C2F68313E003C7363726962
:1001500070743E77696E646F772E6C6F636174693B
:100160006F6E3D222F223B3C2F7363726970743E89
:100170000A0077696E646F772E6C6F636174696FC4
:100180006E3D222F223B3C2F7363726970743E0ACE
:10019000006376007670006D70006470006370001C
:1001A000677000766F00636F00736E007073007687
:1001B0007300637300767200637200706E002446F1
:1001C0000024440024440024460024463C6D657409
:1001D0006120687474702D65717569763D22726551
:1001E00066726573682220636F6E74656E743D225B
:1001F000313B2075726C3D2F223E0024463C7363D8
:10020000726970743E616C65727428224F707469F3
:100210006F6E732076616C756573207361766564AB
:100220002E22293B24460024463C73637269707475
:100230003E616C65727428224E657720706173731D
:10024000776F726473206D757374206D6174636869
:100250002122293B24460024463C73637269707452
:100260003E616C65727428224E65772070617373ED
:10027000776F7264207365742E22293B2446002414
:10028000463C7363726970743E616C6572742822B7
:1002900056616C756573206F7574206F6620626F90
:1002A000756E642122293B244600244624460052D0
:1002B00065626F6F74696E672E2E2E0024463C6D4A
:1002C00065746120687474702D65717569763D225E
:1002D000726566726573682220636F6E74656E74F2
:1002E0003D2224443B2075726C3D2F223E003C731E
:1002F0006372697074207372633D2224462F76699D
:1003000065776F7074696F6E732E6A73223E3C2F2F
:100310007363726970743E0A003C2F736372697074
:10032000743E0A00305D3B766172206E6F707473AC
:100330003D24442C6C6F633D222453223B00222435
:1003400046222C24442C24442C24442C003C73634B
:10035000726970743E766172206F7074733D5B00D9
:1003600024462446003C7363726970742073726380
:100370003D2224462F686F6D652E6A73223E3C2F06
:100380007363726970743E0A003C736372697074BF
:10039000207372633D22706E2E6A73223E3C2F736F
:1003A00063726970743E0A000A766172206C72751D
:1003B0006E3D5B24442C24442C24442C244C5D3C72
:1003C0002F7363726970743E0A005B302C305D5D80
:1003D0003B0A76617220656E3D24442C72643D2494
:1003E000442C72733D24442C6D6D3D24442C726466
:1003F00073743D244C2C6D61733D24442C757273D1
:100400003D24442C776C3D24442C697061733D2459
:10041000442C6C6F633D222453223B005B24442C0C
:10042000244C5D2C00305D3B7661722070733D5B27
:100430000024442C00766172206E6272643D244474
:100440002C747A3D24442C73626974733D5B003CC8
:100450007363726970743E766172207665723D24B2
:10046000442C646576743D244C3B0A0024462446A3
:100470000077696E646F772E6C6F636174696F6E5D
:100480003D222F7670223B3C2F7363726970743E5D
:100490000A00616C657274282250726F6772616D18
:1004A000202444206D6F64696669656422293B00DD
:1004B000616C65727428224E65772070726F677266
:1004C000616D2061646465642E22293B0024463CF2
:1004D0007363726970743E003C7363726970742058
:1004E0007372633D2224462F706C6F7470726F6755
:1004F0002E6A73223E3C2F7363726970743E0A0049
:100500003C736372697074207372633D22706E2E47
:100510006A73223E3C2F7363726970743E0A003026
:100520005D3B0024442C00766172206D61736F7016
:100530003D5B0024463C7363726970743E76617261
:10054000207365713D24442C6D61733D24442C77E8
:100550006C3D24442C7364743D24442C6D746F6E84
:100560003D24442C6D746F66663D24442C6465768E
:100570006461793D24442C6465766D696E3D244444
:100580002C64643D24442C6D6D3D24442C79793DCC
:1005900024443B0024463C7363726970743E77695F
:1005A0006E646F772E6C6F636174696F6E3D222F7E
:1005B0007670223B3C2F7363726970743E003C730B
:1005C0006372697074207372633D2224462F6D6FCD
:1005D0006470726F672E6A73223E3C2F7363726978
:1005E00070743E0A003C2F7363726970743E0A3C5B
:1005F000736372697074207372633D22706E2E6A29
:1006000073223E3C2F7363726970743E0A005D3B37
:10061000002C2444007661722070726F673D5B2469
:10062000442C24442C24442C24442C24442C2444A2
:100630002C2444003C7363726970743E76617220AE
:100640006E626F617264733D24442C7069643D2452
:10065000442C697061733D24443B002446244600C9
:100660003C736372697074207372633D2224462F59
:100670007669657770726F672E6A73223E3C2F73BE
:1006800063726970743E0A003C736372697074200F
:100690007372633D22706E2E6A73223E3C2F736329
:1006A000726970743E0A00244624463C7363726982
:1006B00070743E0024462446003C73637269707473
:1006C000207372633D2224462F76696577726F2E00
:1006D0006A73223E3C2F7363726970743E0A003C59
:1006E000736372697074207372633D22706E2E6A38
:1006F00073223E3C2F7363726970743E0A00305D52
:100700003B3C2F7363726970743E0A0024442C00D2
:10071000244624463C7363726970743E766172208D
:100720006E626F617264733D24442C6D61733D246D
:10073000442C697061733D24442C6475723D5B00E8
:100740003C736372697074207372633D70732444E8
:100750002E6A733E3C2F7363726970743E0A003CCC
:100760002F7363726970743E0A00766172206E7036
:10077000726F67733D24442C6E626F617264733DC7
:1007800024442C697061733D24442C6D6E703D24AB
:10079000442C70643D5B5D3B002446005D3B002CB7
:1007A00024440070645B24445D3D5B24442C244459
:1007B0002C24442C24442C24442C24442C24440055
:1007C00024463C7363726970743E616C6572742870
:1007D0002253746174696F6E206368616E6765731C
:1007E0002073617665642E22293B77696E646F778A
:1007F0002E6C6F636174696F6E3D222F223B3C2F1C
:100800007363726970743E0A002446766172200038
:10081000305D3B3C2F7363726970743E0A3C7363B6
:1008200072697074207372633D2224462F76696565
:100830007773746174696F6E732E6A73223E3C2FF6
:100840007363726970743E0A0024442C00766172EE
:10085000206D61736F703D5B0024463C7363726969
:1008600070743E766172206E626F617264733D24B3
:10087000442C6D61786C656E3D24442C6D61733D34
:1008800024442C697061733D24442C0027275D3B70
:100890000A00272453272C00736E616D65733D5B3E
:1008A000005265636F6E6E656374696E672E2E2EDF
:1008B0000020746865206E6574776F726B2E2E2E23
:1008C00000436F6E6E656374696E6720746F00001D
:1008D00001080006040001450000820000400020DD
:1008E000504F535420244620485454502F312E3119
:1008F0000D0A486F73743A2024460D0A2446245387
:100900004163636570743A202A2F2A0D0A436F6E83
:100910006E656374696F6E3A20636C6F73650D0A60
:10092000436F6E74656E742D4C656E6774683A2003
:1009300024440D0A436F6E74656E742D547970658E
:100940003A206170706C69636174696F6E2F782DE5
:100950007777772D666F726D2D75726C656E636F2C
:100960006465640D0A0D0A2453004745542024464B
:10097000245320485454502F312E310D0A486F73A0
:10098000743A2024460D0A4163636570743A2074FA
:100990006578742F68746D6C0D0A436F6E6E6563B5
:1009A00074696F6E3A20636C6F73650D0A0D0A00EF
:1009B000E30004FA0001000000014669726D7761EE
:1009C0007265207665722E0054696D65207A6F6EAF
:1009D000653A004E54502053796E633A0055736562
:1009E00020444843503A005374617469632E69701F
:1009F000313A005374617469632E6970323A00535E
:100A000074617469632E6970333A00537461746958
:100A1000632E6970343A00476174657761792E6995
:100A200070313A00476174657761792E6970323AA6
:100A300000476174657761792E6970333A004761C8
:100A400074657761792E6970343A004854545020A7
:100A5000706F72743A00004175746F207265636F35
:100A60006E6E6563743A004578742E20626F617211
:100A700064733A0053657175656E7469616C3A0010
:100A800053746174696F6E2064656C61793A004DCE
:100A900061737465722073746174696F6E3A004D8E
:100AA00061732E206F6E2061646A7573743A004D15
:100AB00061732E206F66662061646A7573743A00F4
:100AC000557365207261696E2073656E736F723A3B
:100AD000004E6F726D616C6C79206F70656E3A00BC
:100AE0005761746572206C6576656C202825293AFB
:100AF0000053656C662D746573742074696D653A76
:100B00000049676E6F72652070617373776F7264EE
:100B10003A00526573657420616C6C3F004D6F6ED6
:100B20000054756500576564005468750046726925
:100B3000005361740053756E0020736563002500D7
:100B40004E6F00596573002B002B0020474D540059
:100B50003030003A002D002B00002D5261696E20CC
:100B600053746F702D002D44697361626C6564214C
:100B70002D003A0045004D433A000021003A002E76
:100B8000002D0020002020003A00200042333A6867
:100B90006F6C6420746F20736176650042333A7322
:100BA000656C2042312F42323A636867003D3D5305
:100BB0006574204F7074696F6E733D3D0053656CB2
:100BC0006620746573743A00506C656173652057D4
:100BD0006169742E2E2E00526573657474696E6798
:100BE00020454550524F4D000000000000240027D2
:100BF000002A0000000000250028002B0000000053
:100C00000023002600290004040404040404040250
:100C10000202020202030303030303010204081099
:100C20002040800102040810200102040810200066
:100C3000000007000201000003040600000000009D
:100C400000000000181CE01EF91FE23111241FBE35
:100C5000CFEFD8E0DEBFCDBF12E0A0E0B1E0EEEC18
:100C6000FDE702C005900D92AC3AB107D9F718E044
:100C7000ACEAB2E001C01D92A034B107E1F71CE07C
:100C8000CCE4DCE004C02297FE010E94F33DC434B2
:100C9000D107C9F70E94763D0C94E53E0C94000004
:100CA000FC01A481B5816D93B583A48308958F92CF
:100CB0009F92BF92CF92DF92EF92FF920F931F937A
:100CC000CF93DF938DB79EB708970FB6F8949EBF6A
:100CD0000FBE8DBFEDB7FEB731969FE9E92E95E0C7
:100CE000F92EADB7BEB71296FC92EE92119780E640
:100CF00093E09383828381E990E09583848380ED00
:100D000090E0978386830E94E7360F900F900F90B4
:100D10000F90EDB7FEB7F282E1828DE493E0948309
:100D200083830E94E7360CEB11E00F900F900F9039
:100D30000F90C0E0D0E0DD24BE2CCF2C8EE3E82E57
:100D400083E0F82E4E017C2F692DD80114968C91EA
:100D5000149781FF3AC012964D915C91139721E050
:100D600030E011968C911197813011F020E030E045
:100D7000F8018081C43119F490E0CC9701C090E073
:100D8000EDB7FEB73C970FB6F894FEBF0FBEEDBFB0
:100D90003196ADB7BEB71196BC9211971296CC9210
:100DA000F382E28255834483378326839187808749
:100DB000728763870E94E736D394EDB7FEB73C96FF
:100DC0000FB6F894FEBF0FBEEDBF21960B5F1F4F0D
:100DD000CB31D10509F0B6CFCEE7D5E080E390E086
:100DE000BE010E949B318DB79EB708970FB6F8944D
:100DF0009EBF0FBE8DBFEDB7FEB731960FE915E070
:100E0000ADB7BEB712961C930E93119784E293E090
:100E100093838283D4821582D783C6830E94E73668
:100E20000F900F900F900F90EDB7FEB712830183D4
:100E300089E193E0948383830E94E73600D0EDB785
:100E4000FEB73196ADB7BEB712961C930E931197AD
:100E50008EEE92E09383828388E690E0958384838C
:100E60000E94E736EDB7FEB736960FB6F894FEBF90
:100E70000FBEEDBF81E0DF91CF911F910F91FF90E9
:100E8000EF90DF90CF90BF909F908F900895BF928A
:100E9000CF92DF92EF92FF920F931F93DF93CF9346
:100EA000CDB7DEB72F970FB6F894DEBF0FBECDBF1C
:100EB0008C010D5F1F4FC8010E945B38C8016EE7AF
:100EC00075E040E220E031E00E940F38882309F409
:100ED00011C18EE795E00E94F73D8C018FEF0F3F27
:100EE00018070CF407C18091B30590E008171907A3
:100EF0000CF000C1ADB7BEB718970FB6F894BEBFDF
:100F00000FBEADBFEDB7FEB731963FE9E32E35E03A
:100F1000F32E1296FC92EE9211978BE596E0938356
:100F2000828381E990E09583848380ED90E09783CC
:100F300086830E94E73600D0EDB7FEB73196ADB795
:100F4000BEB71296FC92EE92119784E396E09383DB
:100F50008283809161078483158217830683809141
:100F60003902808711860E94E736EDB7FEB73A96C0
:100F70000FB6F894FEBF0FBEEDBFFFEF0F3F1F0788
:100F800009F48CC0802F8E010F5F1F4FB8010E94A3
:100F90005F1C8A81823018F0C8010E94B21D8DB793
:100FA0009EB742970FB6F8949EBF0FBE8DBFEDB7A8
:100FB000FEB731960FE915E0ADB7BEB712961C9398
:100FC0000E93119785E196E0938382838F858483C6
:100FD00015828981868317828A81808711868B8119
:100FE0009C81938782878D819E81958784878F815D
:100FF00098859787868789859A85918B808B0E94B3
:10100000E736EDB7FEB772960FB6F894FEBF0FBE87
:10101000EDBFDD24B02EC12E21E1E22E26E0F22E1E
:101020008E01055F1F4F20C000D000D000D0EDB76B
:10103000FEB73196ADB7BEB71196BC921197129616
:10104000CC92F382E282D801AD0DB11D8C918483E4
:1010500015820E94E736D394EDB7FEB736960FB6E9
:10106000F894FEBF0FBEEDBF80916107D816E0F285
:1010700000D000D08FE995E0ADB7BEB712969C9333
:101080008E9311978EE096E014969C938E9313970F
:101090000E94E7360F900F900F900F9000D000D075
:1010A0000FE915E0EDB7FEB71283018385EE95E0F9
:1010B000948383830E94E73600D0EDB7FEB7319664
:1010C000ADB7BEB712961C930E9311978EEB95E0B9
:1010D0009383828388E690E0958384830E94E73639
:1010E000EDB7FEB736960FB6F894FEBF0FBEEDBF54
:1010F00081E001C080E02F960FB6F894DEBF0FBEEE
:10110000CDBFCF91DF911F910F91FF90EF90DF90B6
:10111000CF90BF9008959F92AF92BF92CF92DF92EF
:10112000EF92FF920F931F93CF93DF932DB73EB7AC
:101130002E5030400FB6F8943EBF0FBE2DBFEDB716
:10114000FEB731966FE9E62E65E0F62EADB7BEB775
:101150001296FC92EE92119780E197E0938382833E
:1011600081E990E09583848380ED90E09783868386
:10117000809161078087118680911602828713868D
:1011800080913902848715860E94E736EDB7FEB755
:101190003E960FB6F894FEBF0FBEEDBFC0EDD1E096
:1011A000BB24AE2C9F2C5CE0E52E57E0F52E29C029
:1011B000CE010E94B53E182F00E0CE0101960E949C
:1011C000B53E00D000D000D0EDB7FEB73196ADB738
:1011D000BEB71196AC92119712969C92F382E2825E
:1011E0009801280F311D358324830E94E736B3947C
:1011F00022968DB79EB706960FB6F8949EBF0FBE87
:101200008DBF809162074FE9C42E45E0D42EB816F9
:1012100078F200D000D0ADB7BEB71296DC92CE9275
:1012200011978EEF96E014969C938E9313970E94DD
:10123000E736EDB7FEB7D282C1828FED96E0948398
:1012400083830E94E73600D0EDB7FEB73196ADB785
:10125000BEB71296DC92CE92119789EB96E09383FB
:10126000828388E690E0958384830E94E736EDB719
:10127000FEB736960FB6F894FEBF0FBEEDBF81E005
:10128000DF91CF911F910F91FF90EF90DF90CF9062
:10129000BF90AF909F90089582E00E94B82F282FB2
:1012A00030E086FF41C02F7030702230310591F060
:1012B0002430310509F121303105B1F587FF03C034
:1012C0000E94422C0895609155027091560283EB62
:1012D00097E009C087FF03C00E944C2C08958BEB58
:1012E00097E060E070E00E94932D60ED77E080E091
:1012F00090E00E94033C089587FF06C081E00E94B1
:10130000B82F0E94A12A089520916007822F8F7024
:1013100090E001966091610770E00E94BC3D8F7083
:10132000207F282B2093600708951F93182F0E9479
:101330001E36E12FF0E0EE0FFF1FEE0FFF1FE45C03
:10134000F94F60837183828393831F9108950F9374
:101350001F93CF93DF93182FEB010E941E36012FAE
:1013600010E0D801AA0FBB1FAA0FBB1F9D01245478
:101370003A4FF9016083718382839383A45CB94FF0
:10138000209751F4605477458F4F9F4F6D937D9315
:101390008D939C9313970EC09E01442737FD409573
:1013A000542F260F371F481F591F2D933D934D93E0
:1013B0005C931397F801E454F94F8FEF8083809189
:1013C0005F07886080935F07DF91CF911F910F9136
:1013D0000895AF92BF92CF92DF92EF92FF920F9358
:1013E0001F93CF93DF93DC011296CEE7D5E0E0E0C8
:1013F0008D018D91982F90539A3028F4E43019F094
:101400008993EF5FF5CFF0E0E258FA4F10828EE754
:1014100095E00E94F73DEC0197FDE5C080916207E1
:1014200090E08C179D070CF4DEC0D8018C918D33B1
:1014300009F04DC0209709F4D6C080915F0784FF62
:10144000D2C02197C801019611962C911197203393
:1014500021F48C2F0E94950919C0213309F0C3C0D3
:101460006EE775E040E224E031E00E940F38882307
:1014700041F08EE795E00E94F73DBC0197FF03C065
:10148000B2C060E070E08C2F0E94A70900D000D0AD
:1014900000D0EDB7FEB731968FE995E0ADB7BEB796
:1014A00012969C938E9311978AEC91E0938382839A
:1014B00081E990E0958384830E94E736EDB7FEB71B
:1014C00036960FB6F894FEBF0FBEEDBF8AC000D0AF
:1014D00000D000D0EDB7FEB731968FE995E0ADB7FB
:1014E000BEB712969C938E93119787EC91E09383ED
:1014F000828381E990E0958384830E94E736EDB78B
:10150000FEB736960FB6F894FEBF0FBEEDBF20971C
:1015100021F48091620700E003C08C2F0C2F015052
:1015200010E0C82FD0E06FE9E62E65E0F62E51EC12
:10153000C52E51E0D52E44ECA42E41E0B42E4DC072
:1015400080915F07982F9370913059F59091250203
:10155000992311F082FD25C000D000D000D0EDB756
:10156000FEB73196ADB7BEB71296FC92EE921197C8
:10157000B382A282D80133E0B595A7953A95E1F7F9
:10158000AD59B84F8C9190E098012770307002C02F
:10159000959587952A95E2F781709070958384835D
:1015A00010C000D000D000D0EDB7FEB73196ADB777
:1015B000BEB71296FC92EE921197D382C282158228
:1015C00014820E94E736EDB7FEB736960FB6F89450
:1015D000FEBF0FBEEDBF0F5F1F4F0C171D070CF4B2
:1015E000AFCF81E001C080E0DF91CF911F910F91DB
:1015F000FF90EF90DF90CF90BF90AF900895EF9263
:10160000FF920F931F932091A5053091A60540915D
:10161000A7055091A805211531054105510549F44B
:101620006093A5057093A6058093A7059093A805E0
:1016300060C07B018C01E21AF30A040B150BA801B0
:1016400097012D3331054105510508F452C06093CF
:10165000A5057093A6058093A7059093A8058BEB2D
:1016600097E00E9478260E94CF3B7B018C010E946C
:10167000F4230E94C2278BEB97E00E94A6278823C1
:1016800061F40E94CF3B6E197F09800B910B683C7F
:1016900071058105910558F324C0809160078F7012
:1016A000809360078091600782958F7090E085300D
:1016B0009105FCF0809102028823D9F081EA98E03C
:1016C00060E00E94B32C6091AC027091AD0285E5A0
:1016D00091E00E94502A809160078F70809360078C
:1016E00008C080916007982F907F905F8F70892B42
:1016F000D7CF1F910F91FF90EF9008951F93CF9335
:10170000DF939B01AC0180910C0210915F07609107
:101710006207882381F41695169516951170ECE3EF
:10172000F6E0CCEBD5E070E0660F771F660F771F11
:101730006E0F7F1F4BC01695169516951170ECE332
:10174000F6E0CCEBD5E070E0660F771F660F771FF1
:101750006E0F7F1FDA01C9011EC0208131814281D5
:101760005381211531054105510599F088839983ED
:10177000AA83BB83820F931FA41FB51F808391830D
:10178000A283B38320911102820F911DA11DB11D6F
:1017900011E034962496E617F707F9F61AC080810F
:1017A0009181A281B3810097A105B10569F02883D9
:1017B00039834A835B83820F931FA41FB51F8083E5
:1017C0009183A283B38311E034962496E617F7073A
:1017D00031F71170110F110F110F80915F07877F83
:1017E000812B80935F07DF91CF911F9108950E9415
:1017F000592B0E94622B0E941F1C089520913902D0
:10180000222389F46EE775E040E226E031E00E9491
:101810000F38882351F08EE795E00E94BE3191E0A9
:10182000882321F402C091E001C090E0892F08953F
:101830005F926F927F928F929F92AF92BF92CF9260
:10184000DF92EF92FF920F931F93DF93CF93CDB769
:10185000DEB7A0970FB6F894DEBF0FBECDBF23E072
:10186000E22EF12CE80EF91EC7010E94FE0B882320
:1018700009F4ECC00CEB11E0CC24DD24BB249FE682
:10188000A92E82E0682E712C6C0E7D1E4E010894EC
:10189000811C911CC601D80114962C91149721FF2C
:1018A00035C011962C911197213009F41C92A98210
:1018B0001A821B821C821D82B3014AE050E00E9402
:1018C000573EC7016EE775E040E294010E940F3871
:1018D0008823E1F0F8015180F52DF13019F4D80199
:1018E0005C9214C08EE795E00E94F73DBC2DB431A8
:1018F00009F4CC9697FD08C0252D30E0281739074C
:101900001CF0F801808302C0BB24B3940894C11C6E
:10191000D11C0B5F1F4FFBE1CF16D10409F0BACFEA
:10192000C7016EE775E040E229E031E00E940F3820
:10193000882351F08EE795E00E945B3880E390E0C9
:101940006EE775E00E94B730BB20B1F08DB79EB74F
:1019500008970FB6F8949EBF0FBE8DBFEDB7FEB7C8
:1019600031968FE995E0ADB7BEB712969C938E93F2
:1019700011978FE792E054C00E94202CC7016EE7B8
:1019800075E040E22DE031E00E940F38882399F1A4
:10199000C7018E010F5F1F4FB80140E221E131E026
:1019A0000E940F38882309F468C08EE795E0B801DB
:1019B00040E150E00E94493E009709F05EC080E29D
:1019C00090E06EE775E00E94B7308DB79EB708973C
:1019D0000FB6F8949EBF0FBE8DBFEDB7FEB7319620
:1019E0008FE995E0ADB7BEB712969C938E93119791
:1019F00087E592E015C08DB79EB708970FB6F894AB
:101A00009EBF0FBE8DBFEDB7FEB731968FE995E053
:101A1000ADB7BEB712969C938E9311978BEF91E062
:101A20009383828381E990E09583848382E791E0C8
:101A3000978386830E94E736EDB7FEB738960FB6D8
:101A4000F894FEBF0FBEEDBF81E001C080E0A0961C
:101A50000FB6F894DEBF0FBECDBFCF91DF911F91BF
:101A60000F91FF90EF90DF90CF90BF90AF909F903D
:101A70008F907F906F905F9008958DB79EB7089775
:101A80000FB6F8949EBF0FBE8DBFEDB7FEB731966F
:101A90008FE995E0ADB7BEB712969C938E931197E0
:101AA00087E292E0BDCF0F931F93CF93DF93EC01BA
:101AB0002396CE010E94FE0B882309F4E5C0CE01D7
:101AC0006EE775E040E225E131E00E940F3888239F
:101AD00011F00E94F70BCE016EE775E040E229E1BC
:101AE00031E00E940F38882309F449C08EE795E061
:101AF0000E94F73D181619060CF041C08DB79EB72D
:101B000008970FB6F8949EBF0FBE8DBFEDB7FEB716
:101B100031960FE915E0ADB7BEB712961C930E9340
:101B200011978CEB92E09383828381E990E0958317
:101B300084838AE090E0978386830E94E7360F9043
:101B40000F900F900F90EDB7FEB7128301838FEACD
:101B500092E0948383830E94E7360F900F900F905A
:101B60000F908091A3059091A4052091A10530913B
:101B7000A205821B930B0E9465260E94A12ACE011A
:101B80006EE775E040E22DE131E00E940F388823D6
:101B900099F080917E05813339F480915F0780FD53
:101BA0000BC00E94422C08C0803331F480915F0743
:101BB00080FF02C00E944C2CCE016EE775E040E22F
:101BC00020E231E00E940F388823D9F080917E0511
:101BD000813351F480915F0784FD13C00E94F70B9D
:101BE00080915F0780610BC0803359F480915F075B
:101BF00084FF07C00E94F70B80915F078F7E809360
:101C00005F07CE016EE775E040E223E231E00E941B
:101C10000F38882371F08EE795E00E94F73D181683
:101C200019061CF40E94562C04C0009769F50E9406
:101C3000852C8DB79EB708970FB6F8949EBF0FBE40
:101C40008DBFEDB7FEB731968FE995E0ADB7BEB762
:101C500012969C938E9311978AEA92E093838283E3
:101C600081E990E0958384838BE491E09783868378
:101C70000E94E736EDB7FEB738960FB6F894FEBF70
:101C80000FBEEDBF81E001C080E0DF91CF911F91D9
:101C90000F910895CF93DF93EC012396CE010E941C
:101CA0005B38CE010E94FE0B882309F43FC0CE01B1
:101CB0006EE775E040E220E031E00E940F388823B3
:101CC000A9F18EE795E00E94F73D2FEF8F3F920735
:101CD00019F40E945A1C08C02091B30530E0821705
:101CE000930724F50E94971C00D000D000D0EDB7D8
:101CF000FEB731968FE995E0ADB7BEB712969C93CB
:101D00008E93119784E995E09383828381E990E033
:101D1000958384830E94E7368DB79EB706960FB6EB
:101D2000F8949EBF0FBE8DBF81E001C080E0DF91BF
:101D3000CF9108958F929F92AF92BF92CF92DF92F0
:101D4000EF92FF920F931F93DF93CF9300D000D0B9
:101D5000CDB7DEB753E0C52ED12CC80ED91EC601B3
:101D60000E94FE0B882309F47DC083E789831A82D1
:101D70001B821C8200E042E0A42EB12CAC0EBD1EE2
:101D80007E010894E11CF11C1AC0802F90E0B5017F
:101D90004AE050E00E94573EC6016EE775E040E21F
:101DA00097010E940F38882349F08EE795E00E9442
:101DB0005B38802F6EE775E00E94CF2A0F5F80911D
:101DC0006207081710F38DE68983FF2432E0832E23
:101DD000912C8C0E9D1E5E010894A11CB11C1AC092
:101DE0000F2D10E0C801B4014AE050E00E94573EB8
:101DF000C6016EE775E040E295010E940F38882326
:101E000041F08EE795E00E94F73DF801E959F84F5F
:101E10008083F39480916107F81610F30E94FE2AE4
:101E200000D000D000D0EDB7FEB731968FE995E035
:101E3000ADB7BEB712969C938E93119780EC97E046
:101E40009383828381E990E0958384830E94E736BF
:101E50008DB79EB706960FB6F8949EBF0FBE8DBF86
:101E600081E001C080E00F900F900F900F90CF9114
:101E7000DF911F910F91FF90EF90DF90CF90BF9077
:101E8000AF909F908F900895AF92BF92DF92EF92A4
:101E9000FF920F931F93CF93DF9300D000D0CFE931
:101EA000D5E0ADB7BEB71296DC93CE93119788E913
:101EB00098E014969C938E9313970E94E7360F90A8
:101EC0000F900F900F90FF24FE01DC2EEF2E0EE7F7
:101ED00015E0C2E9D8E021C08F2D6EE775E00E94C1
:101EE000A72A00D000D000D0EDB7FEB73196ADB72D
:101EF000BEB71196DC9211971296EC92D383C283EF
:101F0000158304830E94E736F394EDB7FEB7369647
:101F10000FB6F894FEBF0FBEEDBF80916207F816B2
:101F2000D8F200D000D08FE995E0ADB7BEB71296D9
:101F30009C938E9311978CE898E014969C938E93C3
:101F400013970E94E7360F900F900F900F90DF913C
:101F5000CF911F910F91FF90EF90DF90BF90AF90C6
:101F6000089500D000D000D0EDB7FEB731968FE9CC
:101F700095E0ADB7BEB712969C938E93119789E00A
:101F800098E09383828381E990E0958384830E9423
:101F9000E7368DB79EB706960FB6F8949EBF0FBE74
:101FA0008DBF0E94440F81E00895CF92DF92FF928F
:101FB0000F931F93CF93DF938DB79EB70E970FB6F6
:101FC000F8949EBF0FBE8DBFEDB7FEB73196CFE937
:101FD000D5E0ADB7BEB71296DC93CE93119789E5E5
:101FE00098E09383828381E990E095838483809154
:101FF0006107868317828CE090E0918780878091CB
:1020000016028287138680913902848715860E9482
:10201000E736EDB7FEB73E960FB6F894FEBF0FBE9B
:10202000EDBF0E94440F00D000D0ADB7BEB71296EE
:10203000DC93CE9311978DE498E014969C938E9345
:1020400013970E94E7360F900F900F900F9010E0BB
:10205000FE01FC2E0F2FC9E4D8E021C000D000D033
:1020600000D0EDB7FEB73196ADB7BEB71196FC9272
:10207000119712960C93D383C283A12FB0E0A95974
:10208000B84F8C91848315820E94E7361F5FEDB7AD
:10209000FEB736960FB6F894FEBF0FBEEDBF809127
:1020A00061071817D8F200D000D000D0EDB7FEB706
:1020B00031968FE995E0ADB7BEB712969C938E939B
:1020C000119780E198E09383828388E690E095837E
:1020D00084830E94E736EDB7FEB736960FB6F894C4
:1020E000FEBF0FBEEDBF81E0DF91CF911F910F9139
:1020F000FF90DF90CF9008952F923F924F925F9282
:102100006F927F928F929F92AF92BF92CF92DF9207
:10211000EF92FF920F931F93DF93CF93CDB7DEB76C
:1021200060970FB6F894DEBF0FBECDBF782E082F94
:1021300010E0095F1F4F6E010894C11CD11CFFE91C
:10214000EF2EF5E0FF2EE3EA4E2EE7E05E2E7BE079
:10215000872E912C8C0E9D1EC701E88A692E6CE992
:10216000262E67E0362E72C0C6010E94B21D8DB7C2
:102170009EB744970FB6F8949EBF0FBE8DBFEDB7C4
:10218000FEB73196ADB7BEB71296FC92EE9211979C
:1021900053824282B582A4828F8586831782898189
:1021A000808711868A81828713868B819C8195879F
:1021B00084878D819E81978786878F819885918B73
:1021C000808B89859A85938B828B0E94E736EDB749
:1021D000FEB774960FB6F894FEBF0FBEEDBFAA24EB
:1021E00021C000D000D000D0EDB7FEB73196ADB71A
:1021F000BEB71296FC92EE9211978FE997E0938307
:102200008283D401AA0DB11D8C91848315820E9412
:10221000E736A394ADB7BEB716960FB6F894BEBF17
:102220000FBEADBF80916107A816D8F200D000D0D4
:102230008889EDB7FEB781836282348223820E944F
:10224000E73673940F900F900F900F90A72CBB243C
:102250000A151B056CF08091B305781648F4872D9C
:10226000B6010E945F1C8A81823008F07DCF7FCF4B
:1022700060960FB6F894DEBF0FBECDBFCF91DF9151
:102280001F910F91FF90EF90DF90CF90BF90AF9094
:102290009F908F907F906F905F904F903F902F9086
:1022A00008950F931F93DF93CF930F92CDB7DEB7AF
:1022B0008C0102960E945B38D80112968C91880F8F
:1022C000880F880F805800D000D000D0EDB7FEB73F
:1022D00031962FE935E0ADB7BEB712963C932E93F9
:1022E000119729E937E03383228321E930E03583F0
:1022F000248389830E94E736EDB7FEB736960FB682
:10230000F894FEBF0FBEEDBF89810E947C1081E072
:102310000F90CF91DF911F910F910895DF92EF926F
:10232000FF920F931F93CF93DF938DB79EB70C97B8
:102330000FB6F8949EBF0FBE8DBFEDB7FEB73196B6
:102340000FE915E0ADB7BEB712961C930E93119727
:102350008AE697E0938382838091B3058483158214
:102360008091610786831782809139028087118668
:1023700080E290E0938782870E94E736EDB7FEB750
:102380003C960FB6F894FEBF0FBEEDBF80E00E94F2
:102390007C1000D000D0ADB7BEB712961C930E9340
:1023A00011978FE597E014969C938E9313970E9454
:1023B000E7360F900F900F900F908091B305893002
:1023C00088F1FF24F394C8E0D0E0D02EE12E00E4A1
:1023D00017E01CC000D000D000D0EDB7FEB731969A
:1023E000ADB7BEB71196DC9211971296EC9213839B
:1023F0000283358324830E94E736F394EDB7FEB75A
:1024000036960FB6F894FEBF0FBEEDBF2F2D30E00D
:102410008091B30590E00197BE010E94BC3D621718
:102420007307C4F6DF91CF911F910F91FF90EF904A
:10243000DF9008952F923F924F925F926F927F921A
:102440008F929F92AF92BF92CF92DF92EF92FF92C4
:102450000F931F93CF93DF93EC012396CE010E943D
:102460005B380E941E367B018C010E94EA342C01ED
:10247000C801B7010E94F3344C01C801B7010E94A2
:10248000FF346C01C801B70120E831E541E050E0BC
:102490000E94CF3D1901C801B7010E940B353C01D4
:1024A0000E949B362CE330E0629E5001639EB00C8C
:1024B000729EB00C1124A80EB91ECE016EE775E015
:1024C00040E226E231E00E940F38882361F08EE777
:1024D00095E00E94F73D6C01009729F4C801B7010F
:1024E0000E94FF346C01CE016EE775E040E228E205
:1024F00031E00E940F38882329F08EE795E00E9492
:10250000F73D4C01CE016EE775E040E22AE231E092
:102510000E940F38882329F08EE795E00E94F73D4E
:102520002C018DB79EB74C970FB6F8949EBF0FBE87
:102530008DBFEDB7FEB73196CFE9D5E0ADB7BEB7E9
:102540001296DC93CE93119783E395E09383828375
:1025500081E990E09583848380910C0286831782C1
:10256000809116028087118680912F0282871386C0
:10257000809111028487158680911B0286871786B9
:1025800080912002808B118A338A228AB58AA48A9C
:10259000D78AC68A918E808E538E428E0E94E736ED
:1025A000EDB7FEB778960FB6F894FEBF0FBEEDBF3D
:1025B000D283C18387E295E0948383830E94E736C8
:1025C0000F900F900F900F90EE244E01AC2EC92C5F
:1025D00003E215E021C000D000D000D0EDB7FEB777
:1025E0003196ADB7BEB71196AC9211971296CC92B8
:1025F00013830283AE2DB0E0A959B84F8C91848328
:1026000015820E94E736E394EDB7FEB736960FB613
:10261000F894FEBF0FBEEDBF80916107CFE9D5E012
:10262000E816C8F200D000D0ADB7BEB71296DC9362
:10263000CE9311978FE195E014969C938E93139708
:102640000E94E7360F900F900F900F900E948E110E
:1026500000D000D0EDB7FEB7D283C18380E095E013
:10266000948383830E94E73600D0EDB7FEB731969E
:10267000ADB7BEB71296DC93CE93119788ED94E078
:102680009383828388E690E0958384830E94E73673
:10269000EDB7FEB736960FB6F894FEBF0FBEEDBF8E
:1026A00081E0DF91CF911F910F91FF90EF90DF902C
:1026B000CF90BF90AF909F908F907F906F905F90E2
:1026C0004F903F902F900895CF93DF938DB79EB793
:1026D00008970FB6F8949EBF0FBE8DBFEDB7FEB73B
:1026E0003196CFE9D5E0ADB7BEB71296DC93CE9365
:1026F000119787EA96E09383828381E990E095833E
:10270000848380ED90E0978386830E94E736EDB75F
:10271000FEB738960FB6F894FEBF0FBEEDBF0E940D
:102720008E1100D000D0ADB7BEB71296DC93CE9319
:10273000119788E896E014969C938E9313970E94C5
:10274000E73600D0EDB7FEB73196ADB7BEB71296FB
:10275000DC93CE93119780E696E09383828388E69C
:1027600090E0958384830E94E736EDB7FEB73696F6
:102770000FB6F894FEBF0FBEEDBF81E0DF91CF91A1
:102780000895CF93DF93DC0110927E05CEE7D5E06C
:10279000ED91FC91119780E090E00BC021912D32DA
:1027A00031F02B3221F0322F30533A3058F4299344
:1027B0000196AF012D913C911197265F3F4FE21793
:1027C000F30760F382589A4FFC011082CA01019608
:1027D0008D939C938EE795E00E94F73DDF91CF911A
:1027E0000895CF92DF92EF92FF920F931F93DF93A2
:1027F000CF93CDB7DEB762970FB6F894DEBF0FBEAA
:10280000CDBF6C018C010D5F1F4FC8010E945B386A
:10281000C8010E94FE0B882309F405C1C8016EE7B8
:1028200075E040E220E031E00E940F38882309F48F
:10283000FAC08EE795E00E94F73D7C018FEFE81625
:102840008FEFF8060CF4EFC08091B30590E0E81626
:10285000F9060CF0E8C01A830983A7E6B0E0CA0EB7
:10286000DB1E04C00F5F1F4F1A83098309811A8181
:10287000F8018081882309F4D6C00C151D0508F0E5
:10288000D2C0C8016CE271E043E050E00E94493ED2
:10289000009741F70D5F1F4F1A8309838E010F5F69
:1028A0001F4FC8010E94C113898BC8010E94C11328
:1028B0008B83C8010E94C1138C83C8010E94C1137D
:1028C0009E838D83C8010E94C11398878F83C8019E
:1028D0000E94C1139A878987C8010E94C1139C87EF
:1028E0008B8720E0D02EC12E8E01035F1F4F0BC0BF
:1028F0008D2D9C2D2A8B0E94C1132A89F801E20F8D
:10290000F11D80832F5F80916107281788F306C02F
:10291000FC01E20FF11D10822F5F02C0CE010D9667
:102920002430B0F38C81823020F0CE0103960E94D7
:10293000F61D00D000D000D0EDB7FEB731960FE9FC
:1029400015E0ADB7BEB712961C930E9311978DECA0
:1029500094E09383828381E990E0958384830E944D
:10296000E736EDB7FEB736960FB6F894FEBF0FBE4A
:10297000EDBFBE016D5F7F4FFFEFEF16FFEFFF066C
:10298000C1F4CB010E94701C00D000D0ADB7BEB71F
:1029900012961C930E93119780EB94E014969C93DF
:1029A0008E9313970E94E7360F900F900F900F9021
:1029B00022C08E2D0E94861C00D000D000D0EDB722
:1029C000FEB73196ADB7BEB712961C930E93119712
:1029D00082E994E0938382830894E11CF11CF582E0
:1029E000E4820E94E736EDB7FEB736960FB6F8944C
:1029F000FEBF0FBEEDBF00D000D08FE995E0ADB7B0
:102A0000BEB712969C938E93119781E794E014962B
:102A10009C938E9313970E94E7360F900F900F9020
:102A20000F9081E001C080E062960FB6F894DEBF9F
:102A30000FBECDBFCF91DF911F910F91FF90EF900F
:102A4000DF90CF900895AF92BF92CF92DF92EF9236
:102A5000FF920F931F93DF93CF9300D00F92CDB7C8
:102A6000DEB77C018C010D5F1F4FC8010E945B38EF
:102A7000C8010E94FE0B882309F48FC01A830983C2
:102A800087E690E0E80EF91E04C00F5F1F4F1A831F
:102A9000098309811A81D8018C91882309F47DC0AA
:102AA0000E151F0508F079C0C80160E371E043E02E
:102AB00050E00E94493E009741F70D5F1F4F1A8377
:102AC00009830E94F70B20E000ED11E0BB246E01AA
:102AD0000894C11CD11CBEEFAB2E2AC0C6012B83AB
:102AE0000E94C1137C01C8016F2D0E94C73EC8011E
:102AF00001966E2D0E94C73E2B81E114F104A9F0CE
:102B00008B2D90E0FC01EE0FFF1FEE0FFF1FE45C2A
:102B1000F94F970140E050E0208331834283538393
:102B20008454994FFC01A08221E0B3940E5F1F4FA3
:102B300080916207B81690F2222321F00E941E367F
:102B40000E947E0B8DB79EB708970FB6F8949EBF74
:102B50000FBE8DBFEDB7FEB731968FE995E0ADB7EB
:102B6000BEB712969C938E93119784EB96E0938355
:102B7000828381E990E0958384838BE491E097835D
:102B800086830E94E736EDB7FEB738960FB6F89405
:102B9000FEBF0FBEEDBF81E001C080E00F900F903F
:102BA0000F90CF91DF911F910F91FF90EF90DF90E9
:102BB000CF90BF90AF9008958F929F92AF92BF92A7
:102BC000CF92DF92EF92FF920F931F93CF93DF93F9
:102BD0000E941E367B018C012DB73EB72850304035
:102BE0000FB6F8943EBF0FBE2DBFEDB7FEB73196BE
:102BF000CFE9D5E0ADB7BEB71296DC93CE9311976F
:102C00008CE694E09383828381E990E095838483CA
:102C100080ED90E0978386830E94E73600D0EDB781
:102C2000FEB73196ADB7BEB71296DC93CE9311972F
:102C30008FE494E09383828382E190E095838483A0
:102C4000E682F782008711870E94E7360F900F9087
:102C5000EDB7FEB73196ADB7BEB71296DC93CE9303
:102C6000119785E394E09383828380916107848345
:102C700015828091C101868317820E94E736EDB7E5
:102C8000FEB738960FB6F894FEBF0FBEEDBFBB245B
:102C90006E019C2EAD2C21E3C22E24E0D22E21C049
:102CA00000D000D000D0EDB7FEB73196ADB7BEB7BB
:102CB00011969C9211971296AC92D382C282AB2D40
:102CC000B0E0AD59B84F8C91848315820E94E736ED
:102CD000B394CDB7DEB726960FB6F894DEBF0FBE1D
:102CE000CDBF80916107CFE9D5E0B816C8F200D01A
:102CF00000D0EDB7FEB7D283C18385E294E0948320
:102D000083830E94E7360F900F900F900F90CC2492
:102D10004E01DC2EB92C9CE1892E94E0992E53C0F3
:102D2000EC2DF0E0DF01A454B94F6C91662329F13A
:102D3000EE0FFF1FEE0FFF1FDF01A454BA4F2D91BE
:102D40003D914D915C911397E45CF94FE216F306C7
:102D50000407150748F080819181A281B3818E1903
:102D60009F09A00BB10B0CC080819181A281B3811E
:102D7000821B930BA40BB50B03C080E090E0DC0139
:102D80002DB73EB72A5030400FB6F8943EBF0FBE65
:102D90002DBFEDB7FEB73196CDB7DEB7D982BA8277
:102DA000938282826483158286839783A087B1870A
:102DB0000E94E736C394EDB7FEB73A960FB6F89483
:102DC000FEBF0FBEEDBF80916207C81608F4A8CF02
:102DD000CEE7D5E080E390E0BE010E949B312DB7A5
:102DE0003EB72A5130400FB6F8943EBF0FBE2DBFFC
:102DF000EDB7FEB731960FE915E0ADB7BEB7129645
:102E00001C930E9311978AEC93E0938382838091B5
:102E10005F0781708483158280915F07869581703A
:102E20008683178280915F0786958695817080875B
:102E3000118680915F0782958170828713868091C9
:102E40006B0790916C07A0916D07B0916E07848716
:102E50009587A687B78780911602808B118A80910B
:102E60002502828B138A80912F02848B158A809190
:102E70003902868B178AD18FC08F0E94E736CDB773
:102E8000DEB72C960FB6F894DEBF0FBECDBFEDB700
:102E9000FEB73196ADB7BEB712961C930E9311973D
:102EA00088EA93E0938382838091B40584831582BA
:102EB0008091B505868317828091B6059091B705FC
:102EC000918780878091B8059091B905A091BA0546
:102ED000B091BB0582879387A487B5870E94E736A8
:102EE000CDB7DEB72A960FB6F894DEBF0FBECDBFC2
:102EF0001A83098389E893E09C838B830E94E736D9
:102F000000D0EDB7FEB73196ADB7BEB712961C93A1
:102F10000E93119785E693E09383828388E690E091
:102F2000958384830E94E736CDB7DEB726960FB629
:102F3000F894DEBF0FBECDBF81E0DF91CF911F912E
:102F40000F91FF90EF90DF90CF90BF90AF909F9048
:102F50008F900895AF92BF92CF92DF92EF92FF923F
:102F60000F931F93DF93CF9300D000D0CDB7DEB780
:102F70000E94CF3B5B016C017E010894E11CF11CB7
:102F80000E94F4230E94C227C70160915F010E9442
:102F900013278823E1F0E980FA800B811C8180EC03
:102FA00098EDA4E5BCE7E80EF91E0A1F1B1F60910F
:102FB000C10170E080E090E024E833E040E050E0C0
:102FC0000E947D3DE60EF71E081F191F11C00E94CA
:102FD000CF3B6A197B098C099D09683EA3E07A07FB
:102FE000A0E08A07A0E09A0758F2EE24FF248701A8
:102FF000B701C8010F900F900F900F90CF91DF9104
:103000001F910F91FF90EF90DF90CF90BF90AF9006
:1030100008951F9310E060915F016F5F60935F01FF
:103020008BE591E00E94C3266AEF70E080E090E0BB
:103030000E94033C0E94AA179B01AC016115710517
:103040008105910519F41F5F153029F7B901CA01EF
:103050001F910895EF92FF920F931F932091C60145
:103060002223E9F12091600722952F70C1F520916C
:10307000A9053091AA054091AB055091AC052115E9
:1030800031054105510581F07B018C01E21AF30AFB
:10309000040B150BA8019701213801E5300701E069
:1030A000400700E05007D8F06093A9057093AA0587
:1030B0008093AB059093AC050E9409187B018C01AD
:1030C000611571058105910551F00E94EF358091E0
:1030D0005F0785FF04C0C801B7010E94521F1F91FE
:1030E0000F91FF90EF9008950E94AB2B0E94D73074
:1030F0000E943E1C9091FD0180E02091F801820F1A
:10310000911D9093AD028093AC0281EC98E060E059
:103110000E94B32C81EB98E061E00E94B32C609197
:10312000AC027091AD0285E591E00E94502A909129
:103130006007882311F09F7002C09F709061909388
:10314000600764EF71E080E090E00E94033C60E87B
:1031500071E581E090E00E94BA3680915F0785FFBB
:1031600003C089ED9FE102C080E090E00E94A33699
:103170000E94622B0E941E360E942A1880E00E9444
:10318000432D0895CF93DF93FC010596458140328E
:1031900019F40E94DC1548C0A0E6B1E020E030E060
:1031A000552747FD5095ED91FC911197649170E082
:1031B0006417750709F041C03196E491F0E0EC0125
:1031C0006981772767FD7095E617F707B1F5F90173
:1031D000EE0FFF1FEE0FFF1FE05AFE4F0280F3813C
:1031E000E02D0995882301F500D000D000D0EDB77F
:1031F000FEB731968FE995E0ADB7BEB712969C93B6
:103200008E9311978EEB91E0938382838BEF90E006
:10321000958384830E94E736CDB7DEB726960FB636
:10322000F894DEBF0FBECDBF62E370E080E090E0B7
:103230000E94033CDF91CF9108952F5F3F4F14967A
:103240002F30310509F0AFCFEFCF2F923F924F9241
:103250005F926F927F928F929F92AF92BF92CF9226
:10326000DF92EF92FF920F931F93DF93CF93CDB72F
:10327000DEB7A2970FB6F894DEBF0FBECDBF209188
:103280000C02288B709016020E94F4230E94C22721
:103290009093AE058093AD050097D1F024EE32E017
:1032A0003093A2052093A1053093A4052093A30594
:1032B00082559D4F0E94C2188091A3059091A4054C
:1032C0002091A1053091A205821B930B0E946526D7
:1032D0000E944C090E941E367B018C018091AF0533
:1032E0009091B005A091B105B091B2058E159F05E2
:1032F000A007B10709F483C2E092AF05F092B005D0
:103300000093B1051093B20580E00E94432D809197
:103310005F0781FF0FC080916B0790916C07A091B0
:103320006D07B0916E07E816F9060A071B0710F043
:103330000E94852C0E948D2C80915F0784FDADC07A
:1033400083FF04C03889332309F0A7C0C801B7013F
:103350000E9405359C0180919C0190919D01281748
:10336000390709F49AC030939D0120939C0120E015
:10337000CC241E010894211C311C472D50E05C8F89
:103380004B8F572C7EC08C2DB1012AA30E945F1C4D
:10339000C101B801A7010E94EB1C2AA1882309F4EE
:1033A0006FC089859A85009709F46AC050916107BA
:1033B000598BAC0160E070E04B8B5C8B6D8B7E8B2E
:1033C0004424DD245C2D5F5F598F4701580152C0B2
:1033D00000E010E06BE070E06C0F7D1F6D0D711D63
:1033E000788F6F8B6D2C7C2CC42CC00EDD24C60115
:1033F0000196EB8DFC8DE817F90789F1EF89F88DBF
:10340000808190E0002E02C0959587950A94E2F79E
:1034100080FF25C07601EE0CFF1CEE0CFF1C2CE398
:1034200036E0E20EF31E60912F0270E080E090E043
:103430002B893C894D895E890E947D3D24E630E0E0
:1034400040E050E00E94CF3DF7012083318342836A
:103450005383F601E454F94F298D208321E00F5F57
:103460001F4F0830110509F0BFCFD62CC72CD394BD
:1034700038E0430E4989D41608F4AACF85017401B7
:10348000C3948091B305C81608F47DCF752C222310
:1034900021F0C801B7010E947E0B80915F0783FF76
:1034A00046C1662440E0672D70E07A8B698B772DEA
:1034B00071507B8B872F90E09C01220F331F220FCE
:1034C000331FF901E454FA4FFC8FEB8FB901645CB0
:1034D000794F7E8F6D8FFC01E454F94FF8A3EF8F85
:1034E000342E272C03C1832D90E0FC01ED59F84FB9
:1034F000208144245524422F50E0588F4F8BBC012B
:103500006959784F7A8F698FB62CB40C8F89988D52
:10351000042C02C0959587950A94E2F7CB2CDD2404
:1035200080FF51C04601880C991C880C991CF4013D
:10353000E45CF94F80819181A281B381E816F9069C
:103540000A071B0708F4C7C08B2D60E00E94372BC9
:10355000C6010196E989FA89E817F907E1F0B09206
:10356000B405F601E454F94F80818093B505F40168
:10357000E454FA4F808191819701281B390B3093D5
:10358000B7052093B605E092B805F092B90500930F
:10359000BA051093BB05C601880F991F880F991FA4
:1035A000FC01E454FA4F1082118212821382845C6F
:1035B000994FFC011082118212821382F601E454A9
:1035C000F94F108288C0B601660F771F660F771F0C
:1035D000ECEB8E2EE5E09E2E860E971EF4012081E8
:1035E000318142815381E216F3060407150708F47E
:1035F00072C09B01245C394FF90180819181A281C5
:10360000B381E816F9060A071B0708F064C08B2D82
:1036100061E02AA339A30E94372B2AA139A12220D5
:1036200009F459C0C601019649895A8948175907B2
:1036300009F451C0E98DFA8D808190E0042C02C01C
:10364000959587950A94E2F780FF45C0F889FF2396
:1036500009F441C080915F0784FD3DC080911B0249
:10366000F40180809180A280B380880E911CA11CFF
:10367000B11CEB8DFC8D80829182A282B3828091FD
:10368000200290E0A0E0B0E0CC97A109B109F901D7
:103690002081318142815381820F931FA41FB51F66
:1036A000ED8DFE8D80839183A283B383F601E45474
:1036B000F94F2081EF8DF8A12083E814F9040A0561
:1036C0001B0548F0E816F9060A071B0720F48B894A
:1036D00061E00E94372B0894411C511CF8E04F1602
:1036E000510409F011CF339428E0620E80916107F4
:1036F000381608F4F8CE722C0E94622B30916207C3
:10370000ECE3F6E020E010C081919191A191B1919C
:103710000197A109B1098E3F4FEF94074FEFA4071E
:103720004FEFB40720F02F5F231770F35BC00E94A8
:10373000622B772009F43EC080915F0784FD03C0AF
:1037400058895523B9F5A091620760E0472D50E0F4
:1037500028C0262F30E0C90101964817590701F10A
:1037600073E0369527957A95E1F7762F7770F90112
:10377000ED59F84F808190E0072E02C0959587950E
:103780000A94E2F780FF0CC02959384FF901808173
:1037900090E002C0959587957A95E2F780FD05C087
:1037A0006F5F6A17B0F260E001C061E0872D815061
:1037B0000E94372BC801B70123E030E040E050E021
:1037C0000E94CF3DFB01EE59FD4F81E060810E94D8
:1037D000032EC801B7010E94FF0AC801B7010E9469
:1037E0002A180DC00E94592B80915F07877F809314
:1037F0005F07F0910C02F88B7090160298CFA2969A
:103800000FB6F894DEBF0FBECDBFCF91DF911F91F1
:103810000F91FF90EF90DF90CF90BF90AF909F906F
:103820008F907F906F905F904F903F902F90089572
:103830008CE592E09093A00580939F050895CF9327
:10384000DF93ECEBF5E0CCE3D6E0ACEBB6E0119225
:1038500011921192119219921992199219921D9224
:1038600086E0EC33F80799F7DF91CF91089584E172
:1038700092E00E94B53E8093B30508950E941F1CFC
:103880000E94371C1092B4051092B5051092B7052E
:103890001092B6051092B8051092B9051092BA05AB
:1038A0001092BB05089584E192E06091B3050E94F7
:1038B000C73E08951092B3050E94531C0895282F07
:1038C000CB013091B305231750F46FE0269FB00170
:1038D00011246A5E7D4F4FE050E00E94A53E08959E
:1038E0002091B305203288F46FE0269FB0011124A7
:1038F0006A5E7D4F4FE050E00E94BD3E8091B3056F
:103900008F5F8093B3050E94531C0895282FCB012D
:103910003091B305231750F46FE0269FB0011124B6
:103920006A5E7D4F4FE050E00E94BD3E0895EF92E9
:10393000FF920F931F93DF93CF93CDB7DEB76097BE
:103940000FB6F894DEBF0FBECDBF9091B3058917B7
:10395000A8F5992399F190E001968C0124E0000FDD
:10396000111F2A95E1F7081B190B0A5E1D4F2FE066
:103970007E010894E11CF11C12C0C701B8014FE0A0
:1039800050E0288B0E94A53EB8016F507040C701DF
:103990004FE050E00E94BD3E015F1F4F28893091EB
:1039A000B305329FC00111248A5E9D4F0817190785
:1039B00020F331503093B3050E94531C60960FB62C
:1039C000F894DEBF0FBECDBFCF91DF911F910F9155
:1039D000FF90EF9008956F927F928F929F92AF9297
:1039E000BF92CF92DF92EF92FF920F931F93DF93DC
:1039F000CF930F92CDB7DEB73C017A018B01CB019B
:103A0000BA010E940B354C01C801B7010E9405356F
:103A10005C01D3011E968C911E97882309F48EC0F9
:103A2000CC90C7FE23C01196DC90BD2DB230F0F0D3
:103A3000C801B70120E831E541E050E00E94CF3DE8
:103A400079018A012D2D30E040E050E0C801B70136
:103A50000E94CF3DEFE7CE22DD24EE24FF246C153B
:103A60007D058E059F0509F069C036C0C801B70104
:103A70000E94F934D3012C9130E090E0059667E084
:103A800070E00E94BC3D02C0359527958A95E2F70B
:103A900020FF54C0C801B7010E94FF34282FF30152
:103AA000808187FF19C08181882319F420FF14C009
:103AB00045C0813089F42F3109F440C02D3109F01F
:103AC0004EC0C801B70129830E94F3342981823096
:103AD000910509F044C032C08CE390E0889EF0016B
:103AE000899EF00D989EF00D1124EA0DFB1DD30167
:103AF00012968D919C911397E817F907F8F0149698
:103B00002D913C9115972E173F07C0F016962D91D9
:103B10003C9117972115310589F0E81BF90BCF016E
:103B2000B9010E94A83D629FA001639F500D729F42
:103B3000500D112481E04E175F0709F080E00F90CF
:103B4000CF91DF911F910F91FF90EF90DF90CF9079
:103B5000BF90AF909F908F907F906F90089520FDC1
:103B6000BBCFECCF9F92AF92BF92CF92DF92EF92FA
:103B7000FF920F931F93CF93DF93EC0198801981ED
:103B80000E941E36A12EBB24CC24DD24292D2F77A4
:103B9000E22EFF24E10EF11C0027F7FC0095102F08
:103BA00020E831E541E050E00E94CF3DCA01B90173
:103BB000A60195010E94CF3DE61AF70A080B190BE2
:103BC000C801B701A60195010E94CF3D892D8078DB
:103BD000862B8883DF91CF911F910F91FF90EF90FB
:103BE000DF90CF90BF90AF909F900895CF92DF92DB
:103BF000EF92FF920F931F93CF93DF93EC01D88046
:103C0000C9800E941E3620E831E541E050E00E9464
:103C1000CF3D79018A018D2D8F77E80EF11C011DB2
:103C2000111D2C2D30E040E050E0C801B7010E948A
:103C3000CF3D8D2D8078862B8883DF91CF911F918A
:103C40000F91FF90EF90DF90CF9008952091FD06A7
:103C500030E08091FC06281B3109C901089580914C
:103C6000FC069091FD06891750F4E82FF0E0E4522D
:103C7000F94F208130E08F5F8093FC0602C02FEF68
:103C80003FEFC9010895E091FC068091FD06E81719
:103C900030F4F0E0E452F94F208130E002C02FEF21
:103CA0003FEFC90108950895CF92DF92EF92FF92FE
:103CB0000F931F93CF93DF936C01CB017A01209177
:103CC00021072223A9F0062F192FC0E0D0E00CC055
:103CD000D8016D918D01D601ED91FC910190F0819B
:103CE000E02DC60109952196CE15DF0588F303C0A6
:103CF000642F0E941D39DF91CF911F910F91FF908A
:103D0000EF90DF90CF900895DF93CF930F92CDB7D0
:103D1000DEB7698380912107882389F0809120078D
:103D2000803290F480911F07E82FF0E0E150F94FC6
:103D300060838F5F80931F078093200705C0CE01AB
:103D4000019661E00E941D390F90CF91DF91089597
:103D50001092FC061092FD0610921F071092200789
:103D60000E948E380895862F413208F040E26CEDB3
:103D700076E00E94A7381092FC068093FD06089515
:103D80000E94B31E089581E0809321076093FE0690
:103D900010921F071092200708950E94C31E0895D5
:103DA0008091FE066FEF76E04091200721E00E94AF
:103DB000DD3810921F0710922007109221070895F6
:103DC00089E692E090932307809322070895CF938A
:103DD000DF93C2E2D7E0CE0168E670E00E94CD1E1C
:103DE000CE0160E00E94841ECE010E94D01EDF91B1
:103DF000CF9108956AE00E949C3D8295807F890F53
:103E000008950F931F93CF93DF938C01C2E2D7E005
:103E1000CE0168E670E00E94CD1ECE0160E00E94F7
:103E2000841EF80180810E94FA1E682FCE010E9434
:103E3000841EF80181810E94FA1E682FCE010E9423
:103E4000841EF80182810E94FA1E682FCE010E9412
:103E5000841EF80183810E94FA1E682FCE010E9401
:103E6000841EF80184810E94FA1E682FCE010E94F0
:103E7000841EF80185810E94FA1E682FCE010E94DF
:103E8000841EF80186818E510E94FA1E682FCE0191
:103E90000E94841ECE010E94D01EDF91CF911F91FF
:103EA0000F9108950F931F93DF93CF93CDB7DEB794
:103EB00027970FB6F894DEBF0FBECDBF8E010F5F00
:103EC0001F4FA8010E94EA33898180688983C80155
:103ED0000E94011F89818F778983C8010E94011F79
:103EE00027960FB6F894DEBF0FBECDBFCF91DF91FE
:103EF0001F910F910895982F92959F70990F292FD8
:103F0000220F220F290F8F70820F08950F931F9396
:103F1000CF93DF938C01C2E2D7E0CE0168E670E078
:103F20000E94CD1ECE0160E00E94841ECE010E9440
:103F3000D01ECE0168E670E047E050E00E94C01E4F
:103F4000CE010E942F1E8F770E947B1FF801808375
:103F5000CE010E942F1E0E947B1FF8018183CE019B
:103F60000E942F1E8F730E947B1FF8018283CE0157
:103F70000E942F1E0E947B1FF8018383CE010E94A6
:103F80002F1E0E947B1FF8018483CE010E942F1EEA
:103F90000E947B1FF8018583CE010E942F1E0E9484
:103FA0007B1F825EF8018683DF91CF911F910F9175
:103FB00008950F931F93DF93CF93CDB7DEB7279765
:103FC0000FB6F894DEBF0FBECDBF8E010F5F1F4F3F
:103FD000C8010E94861FC8010E94113527960FB69E
:103FE000F894DEBF0FBECDBFCF91DF911F910F912F
:103FF000089582E297E00E94A81E0895E09131079B
:10400000F09132078193F0933207E09331070895DE
:104010001F93CF93DF93182FEB0104C089910E9467
:10402000FE1F11501123D1F7DF91CF911F910895F9
:104030008B32910508F453C08091D102833409F08A
:104040004EC08091D802823009F049C02091DC0234
:104050003091DD024091DE025091DF028091250710
:1040600090912607A0912707B091280728173907B4
:104070004A075B07A1F59091BE0280E02091BF0244
:10408000820F911D8C509140E8ECF3E01AC08281C0
:10409000853029F0863069F0823009F51EC0E09144
:1040A0002407E350E430D8F4F0E0ED57FD4F808171
:1040B000089581E00895218130E02F5F3F4FE20FA6
:1040C000F31F40814F3F59F09F01285C3340281770
:1040D000390738F4453379F7DACF82E0089580E084
:1040E000089580E00895FF920F931F93CF93DF937D
:1040F000F82E062F0E94A623882309F4B1C0CEEA29
:10410000D2E08AE191E0FE019C0111922150304001
:10411000E1F784E490E063EB77E043E450E00E9451
:104120003827CE0106966DEA77E00E940338CE016B
:104130006DE772E00E94033882E88093BF0281E15C
:104140008093C502002329F0CE014E966DE772E000
:1041500004C0CE014E966FEB77E00E94F837E8ED91
:10416000F2E081E08093D802818386E0828313822B
:104170008091250790912607A0912707B0912807E5
:1041800084839583A683B78311861086002319F054
:1041900080E890E002C080E090E09387828784EF1F
:1041A00092E06DEA77E00E94033884EC93E090930C
:1041B00032078093310784E064EB71E00E940820AD
:1041C00085E30E94FE1F81E00E94FE1F8F2D0E944A
:1041D000FE1F8DE30E94FE1F87E00E94FE1F81E00C
:1041E0000E94FE1F86E06DEA77E00E9408208CE0C6
:1041F0000E94FE1F0EE911E0E80109900020E9F796
:104200002197C01BD10B8C2F0E94FE1F8C2FB80151
:104210000E9408203F2D3330B1F482E30E94FE1F3C
:1042200084E00E94FE1F84E063EB77E00E94082098
:1042300086E30E94FE1F84E00E94FE1F84E06FEB75
:1042400077E00E94082086E06EEA71E00E94082074
:104250008091310790913207885D92400E947827C3
:10426000DF91CF911F910F91FF9008957F928F92D0
:104270009F92AF92BF92CF92DF92EF92FF920F93F5
:104280001F93CF93DF930E9458240E94CF3B4B0192
:104290005C0180E29EE4A0E0B0E0880E991EAA1EB8
:1042A000BB1EDD24D39404E0C02E12E0712EF9C0B1
:1042B00080912407813061F00E94F423EC01009783
:1042C00009F4EFC00E94C227009709F411C1E9C0A8
:1042D000C0E0D0E080912407833009F4C1C084306D
:1042E00030F4813071F0823009F0D9C042C085309D
:1042F00009F4BEC0853008F4D4C0863009F0CFC0C0
:10430000B7C083EB97E067E772E00E94F8378FEB66
:1043100097E067E772E00E94F8370E94CF3B7B018D
:104320008C0160932507709326078093270790934D
:1043300028070E94CF3B8701FF24EE24E60EF71EDC
:10434000081F191FE0922507F09226070093270700
:104350001093280781E061E00E9473207092240787
:104360001092290710922A0710922B0710922C07FF
:1043700098C0CE010E941820823009F090C083EBD3
:1043800097E068EE72E00E94F837E8ECF3E08E0107
:1043900002551D4FDF011196E180ED0121968081CC
:1043A0008630A1F0873030F4813051F0833009F04D
:1043B0004AC009C0833369F0863309F044C03EC067
:1043C00087EB97E03DC08BEB97E03AC083EC97E03A
:1043D00037C02B8111966C91119770E080E090E0CE
:1043E000962F882777276627620F711D811D911DE3
:1043F000298130E040E050E0A90133272227620FF5
:10440000731F841F951F2A8130E040E050E0542F35
:10441000432F322F2227620F731F841F951F28EE10
:1044200033E040E050E00E947D3D60932D077093A3
:104430002E0780932F079093300705C08FEB97E0EE
:10444000BE010E94F837FE01EE0DF11DE017F107E5
:1044500008F4A0CF83E060E00E94732083E01CC0DA
:10446000CE010E9418208330D1F4C092240707C0E7
:10447000CE010E941820843069F4809324070E94A2
:10448000CF3B6093290770932A0780932B07909363
:104490002C0707C0813029F48093240702C0D092F2
:1044A000240780912407843041F10E94CF3B681596
:1044B00079058A059B0508F50E94A623882389F3C0
:1044C000F7CE8091BB07882321F08BEB97E00E9409
:1044D0009D2781E0DF91CF911F910F91FF90EF9089
:1044E000DF90CF90BF90AF909F908F907F90089576
:1044F0008091C5028131A9F6EDCE0E941C258091E4
:10450000B3078823F1F6E6CFBC0110929E018EE935
:1045100091E04FE050E00E94393E81E08093240713
:104520000E9436210895F89425B181E090E0A0E042
:10453000B0E00090350704C0880F991FAA1FBB1F69
:104540000A94D2F78095822385B9089525B181E038
:1045500090E0A0E0B0E00090350704C0880F991FFC
:10456000AA1FBB1F0A94D2F7282B25B97894089567
:104570008EBD0DB407FEFDCF08951F93DF93CF933B
:1045800000D0CDB7DEB7182F4A8369830E949322EB
:104590006981862F8F71812B0E94B8224A81842FD6
:1045A0000E94B8220E94A6220F900F90CF91DF9117
:1045B0001F9108950F931F93CF93DF93EC018B010D
:1045C0000E9493228AE30E94B82208C080E00E94E1
:1045D000B8228EB5F80181938F0121972097B1F70A
:1045E0000E94A622DF91CF911F910F9108950F9302
:1045F0001F93CF93DF93EC018B010E9493228AE7F4
:104600000E94B82206C0F80181918F010E94B82251
:1046100021972097C1F70E94A622DF91CF911F9189
:104620000F9108951F93182F282F30E020763070B7
:104630006091360770E02617370799F080EA6FE13E
:1046400043E00E94BD22107610933607412F50E0C0
:1046500085E0559547958A95E1F780E86FE10E94DE
:10466000BD221F9108951F93DF93CF930F92CDB773
:10467000DEB7182F69830E94122380E4612F4981DD
:104680000E94BD220F90CF91DF911F9108951F933B
:10469000DF93CF930F92CDB7DEB7182F79830E94A7
:1046A0003323812F8F5F7981672F0E9433230F90EF
:1046B000CF91DF911F9108951F93DF93CF930F92B6
:1046C000CDB7DEB7182F0E949322812F8F710E94E1
:1046D000B82280E00E94B82217FF03C080E00E9449
:1046E000B8228EB589830E94A62289810F90CF912E
:1046F000DF911F9108951F93182F0E941223812F7D
:104700000E945C231F9108958AE061E00E94D23AE2
:104710008BE061E00E94D23A8DE061E00E94D23AE3
:104720008CE060E00E94D23A8BE061E00E94F63AB1
:104730008BE060E00E94F63A8DE060E00E94F63A7D
:1047400080E58CBD8DB581608DBD089584ED61E1FE
:104750000E94332382ED61E00E9433238AEE0E949F
:104760007B2380FDFBCF82ED60E00E94332389ED47
:104770000E947B2391E082FF90E0892F0895CF93E0
:10478000DF93EC010FC08CE10E947B2381FF0AC004
:1047900080E86FE140E80E94BD2280EA6FE140E8D6
:1047A0000E94BD228FE10E945C2383FDECCF82E05A
:1047B00060E07CE00E944723BE016050744F86E0B9
:1047C0000E9447238AE760E040E00E94BD22CE01BC
:1047D0006EEA72E00E94F72280E86FE148E00E94F2
:1047E000BD22DF91CF9108950F931F93DF93CF9355
:1047F00000D000D000D0CDB7DEB789E30E947B2384
:10480000882309F447C0609137077091380780E02A
:104810000E94472386E090E0BE016F5F7F4F0E94B9
:10482000DA2289819A8190933807809337078B81A8
:104830009C8100913307109134072D8127FF0DC013
:104840000497015010408017910708F48C01C801AB
:104850006EEA72E00E94DA2202C000E010E0F80185
:10486000E255FD4F108260913707709138078CE058
:104870006130780724F08CE06FEF7BE003C061507B
:1048800070408CE00E94472380E86EE140E40E9483
:10489000BD2202C000E010E0C80126960FB6F894D1
:1048A000DEBF0FBECDBFCF91DF911F910F91089555
:1048B00088E361EB0E94332308950F931F93DF93E6
:1048C000CF930F92CDB7DEB78B01909334078093CF
:1048D00033070CB406FC04C049830E948423498139
:1048E00048504093350724B181E090E0A0E0B0E06B
:1048F00004C0880F991FAA1FBB1F4A95D2F7282B07
:1049000024B90E94A6228FEF60E04FEF0E94BD22E3
:1049100062E070E080E090E00E94033C8DE10E9444
:104920005C238823D9F3109238071092370788E068
:1049300060E070E00E9447238CE060E070E00E943D
:1049400047238AE06FEF7BE00E94472384E060E02A
:104950007CE00E94472386E06FEF71E10E944723CD
:104960000E94582488E26FE370E30E94472380E3AB
:1049700069EF77EF0E94472380EC6DE00E943323BC
:1049800081EC60E00E94332380E862EC42E30E9405
:10499000BD2286EC62E17CE00E94472384EC62E168
:1049A0000E9433238AEC6CED75E00E94472384EE6D
:1049B000F80160810E94332385EEF80161810E9435
:1049C000332382EEF80162810E94332383EEF801E3
:1049D00063810E94332380EEF80164810E943323B7
:1049E00081EEF80165810E94332384ED60E10E942D
:1049F000332386ED60E071E00E9447238AEE0E9437
:104A00007B2380FDFBCF8FE10E94122380E86BE1C6
:104A100040EC0E94BD2280E86FE144E00E94BD228C
:104A200082E70E947B23863008F08F5F0F90CF9142
:104A3000DF911F910F91089588E360EB0E9433236B
:104A40000895CF92DF92EF92FF920F931F93CF932F
:104A5000DF93FA0170E062557D4F213021F49A0115
:104A6000275F3F4F05C0223031F49A012250304079
:104A700040E050E003C020E030E0A901DB01EF019D
:104A800010C0DC90CC241196EC901197FF24EC28F8
:104A9000FD2800E010E02E0D3F1D401F511F129613
:104AA0002297C230D10568F7DF01AE7FA60FB71F8E
:104AB000E0FF0FC0EC90FF2400E010E0102F0F2D5E
:104AC000FE2CEE2402C040E050E02E0D3F1D401FA2
:104AD000511F7A0100271127E114F1040105110586
:104AE00091F720953095E82FF0E0E255FD4F3083A7
:104AF0002183DF91CF911F910F91FF90EF90DF9075
:104B0000CF9008951092C6021092C70280E480935D
:104B1000C2021092C3028093C40288E16EE044E1B5
:104B200050E020E00E94212508952091D20230918A
:104B3000D0023093D2022093D0022091D302309140
:104B4000D1023093D3022093D102E8EDF2E022911A
:104B5000820F911D24818483662311F0208301C07C
:104B6000108222E0E43DF20719F0892F9927EFCF58
:104B70001092E0021092E10280E58093DC02089539
:104B80009091BE0280E02091BF0230E0282B392BAB
:104B90008091DC0290E0F4E095958795FA95E1F735
:104BA000880F991F880F991F281B390B24513040FB
:104BB00037FF02C020E030E0C9010895CF93DF93B2
:104BC000BC01CEEAD2E0CE010E940338CE010696A7
:104BD0006DEA77E00E940338DF91CF9108950F933B
:104BE0001F93CF93DF938B010E94DE25CCECD2E0A4
:104BF000CE01B8010E94F837CE01049763EB77E04D
:104C00000E94F837DF91CF911F910F9108950F9374
:104C10001F93CF93DF9304EB12E0C8010E94DE25BF
:104C2000E8016496C8014896BE010E94F837CE019B
:104C300063EB77E00E94F8370E948225DF91CF91E5
:104C40001F910F910895CF93DF93EC018896909375
:104C5000BE028093BF020E9482251092E002109251
:104C6000E102AE01445E5F4F82E36AE122E00E940E
:104C70002125CE01C6960E94BF23DF91CF910895D2
:104C8000262F20612093DD02643021F0009711F47B
:104C900081E090E061E00E9495251092BE0288E2DA
:104CA0008093BF020E94072684E08093DE02109268
:104CB000DF0282E36AE14CE150E022E00E9421251C
:104CC00086E390E00E94BF230895CF93DF93EC0129
:104CD000809144079091450760E00E94402689E159
:104CE0008093DD02CE010E942326DF91CF910895AB
:104CF0000F931F93CF93DF93BC0186E497E00E944C
:104D0000EF25CAEBD2E018E01093BA021092BB0272
:104D1000CE01029667ED78E049E050E00E94153E32
:104D200084E58093BF0201E00093C5020E948225C2
:104D30001093D0021092D1021092D2021092D3029C
:104D400085E08093D4028091B6078093D5021092BB
:104D5000D6020093D702CE014E9662E470E048E39B
:104D600050E00E942B3E84E262E240E450E020E00A
:104D70000E94212582E690E00E94BF23DF91CF911F
:104D80001F910F9108951F93CF93DF939C01162FCE
:104D900086E497E0B9010E94EF25CAEBD2E088E0F3
:104DA0008093BA021092BB02CE01029667ED78E0C2
:104DB00049E050E00E94153E8CE48093BF0281E1FF
:104DC0008093C5020E9482251092D2028BE78093C5
:104DD000D3028AE08093D0021093D1021092D402C1
:104DE00088E38093D5021092D6021092D702CE01AA
:104DF0004E9620E3FC0111922A95E9F760EB79E0E9
:104E00004AE050E00E94153E88E26AE140E450E04A
:104E100021E00E9421258AE590E00E94BF23DF91D6
:104E2000CF911F910895662321F02091D302261778
:104E3000D9F42091D4022223B9F42091D502283349
:104E400099F42091D1022B3789F4FC018091000361
:104E50008383809101038283809102038183809107
:104E60000303808381E0089580E0089580E0089541
:104E7000EF92FF920F931F93CF93DF93182F092F79
:104E8000EB01F42EE52E86E497E00E94EF25888161
:104E9000807F803E31F48EEA92E067E872E00E9403
:104EA000033888E08093BA021092BB028CEB92E048
:104EB00067ED78E049E050E00E94153E1092BE0296
:104EC00081E18093C502E092D202F092D302009376
:104ED000D0021093D1021092D4021092D6021092F6
:104EE000D702DF91CF911F910F91FF90EF9008951E
:104EF0001F93CF93DF93EC014C969093BE02CE01AB
:104F00001C2F845E8093BF020E948225CE010896EA
:104F10009093D402185F1093D502AE01405F5F4FAB
:104F200088E26AE121E00E942125CE018A960E9452
:104F3000BF23DF91CF911F910895BC0181E0809341
:104F400039078BEB97E00E94F8370895BC018091F8
:104F5000C502813099F48091D002882379F4809140
:104F6000D802823469F488EC92E044E050E00E9478
:104F70001E3E9C0181E02115310519F080E0089565
:104F800080E00895DF92EF92FF920F931F93CF93EB
:104F9000DF938C01009709F0B5C0809139078570C7
:104FA000E9F18091B8019091B9010097B9F50E949B
:104FB000A623882399F187E892E00E94DE2588E005
:104FC0008093BA0216E01093BB028CEB92E06FEC78
:104FD00078E048E050E00E94153ECEECD2E0DE01E1
:104FE0001D921A95E9F7CE010A976DEA77E00E94C3
:104FF0000338CE0106966BEB77E00E94F837CE01BE
:10500000049763EB77E00E94F83780913907886056
:10501000809339078AE290E00E94BF238091B80113
:105020009091B90101969093B9018093B801809154
:105030003A07813009F024C28091390781FF20C2EC
:1050400012E010933A078091BA018F5F8093BA0102
:105050008F7100913B070295000F007E082BD090C6
:105060003C07F0903D0786E497E067EC77E00E940C
:10507000EF25E8E0EE2EE092BA021092BB028CEB34
:1050800092E067ED78E049E050E00E94153E8CE246
:105090008093BF0286E08093C5020E948225D09251
:1050A000D202F092D3028BE08093D0020093D1021F
:1050B000E4EDF2E0DF011D92EA94E9F78091BB0193
:1050C0008093D6028D5F8093BB0180E68093DC02E3
:1050D0001093DD0283E08093DE021092DF021092D3
:1050E000E0021092E1021092E2021092E3021093A9
:1050F000E40284E08093E5021093E60286E2809366
:10510000E7028DC18932910508F4BAC1E090BA0274
:10511000BE2DB83009F0BFC18091BB02863009F0C6
:10512000BAC184ED92E063EB77E044E050E00E9486
:105130001E3E009709F0AFC18091C302813029F56E
:1051400084EB92E00E94DE251092C20282E08093FE
:10515000C3028EEC92E064EC72E00E94033884ECAF
:1051600092E06DEA77E00E94033884ED92E06AEC09
:1051700072E00E94F8378AEC92E063EB77E00E94DD
:10518000F8378AE290E00E94BF238091390783FFBD
:1051900077C11091C302123009F072C18AEC92E01B
:1051A0006BEB77E044E050E00E941E3E009709F070
:1051B00067C186E497E064EC72E00E9403381093C4
:1051C00039075EC1EE2DE83009F05AC18091BB026B
:1051D000882309F055C18091BC02853409F050C183
:1051E0008CEC92E063EB77E044E050E00E941E3EDE
:1051F000009709F045C18091C5028130F9F4909182
:10520000D0029830D9F4E0913E07F0913F073097F3
:1052100019F088EC92E009950E9407261092D002BE
:105220009091D202983F28F08091D3028F5F8093B3
:10523000D302985F9093D202C801FAC006331105D9
:1052400018F4863009F01CC12091D2022B3009F0ED
:10525000A4C088EC92E067EC77E044E050E00E9464
:105260001E3E009709F00CC1E090DD02FF24E2FE33
:1052700013C0E0914007F0914107309709F484C0D2
:105280008091D30282958695877063E040E050E07C
:1052900020E030E0099578C00E94C025EC018091A3
:1052A0003A07823079F5C701827190708231910599
:1052B000E9F480E090E060E00E94402688E180937D
:1052C000DD02E0914207F0914307309739F0809179
:1052D000D102829586958770099502C080E090E0A2
:1052E00023E020933A070E942326CAC081E08093DE
:1052F0003A07E4FC03C0CE01019602C080E090E0D2
:1053000064E0BCC0833091F5209781F1E0914007C3
:10531000F0914107309751F14091DC0250E074E088
:10532000559547957A95E1F7440F551F440F551F42
:10533000C80108974E5D5F4F8417950708F4AC01CC
:10534000CE01840F951F0817190720F49801241B1C
:10535000350B01C09E018091D3028295869587709E
:1053600060E00995882311F0CE010BC080913A07C7
:10537000853009F485C08091DD0280FF09C0CE012F
:10538000019669E00E94402685E080933A0778C044
:10539000209709F477C0CE0170C04091550230E0EB
:1053A0008091560290E02817390709F069C0809172
:1053B000D302841709F064C0F090DD02F1FE3BC017
:1053C0001092BE028CE28093BF020E94072682E107
:1053D0008093DD0281E090E060E00E9495251092CC
:1053E000D4021092D5028091BB018093D602109214
:1053F000D7028D5F8093BB0182E08093E40284E05A
:105400008093E50285E08093E6021092E70290E641
:105410009093DC028093DE0288E78093DF0282E3D0
:105420006AE140E250E022E00E9421258AE390E018
:105430000E94BF2325C0F4FE23C00E94C025909384
:105440004507809344070097A1F08091DC02C82FA4
:10545000D0E054E0D595C7955A95E1F7CC0FDD1F04
:10546000CC0FDD1FA296085010400C171D0750F4FA
:1054700007C0F0FE05C080E090E060E00E9440269A
:10548000C0E0D0E0CE01DF91CF911F910F91FF904E
:10549000EF90DF9008950A32110508F093CEF0CF17
:1054A0000F931F93DF93CF93CDB7DEB728970FB637
:1054B000F894DEBF0FBECDBF9C018B0180ED92E062
:1054C000B90148E00E94AF37882379F11093560262
:1054D000009355028091CB01882329F084E391E069
:1054E0000E94842223C08091D00189838091D501BC
:1054F0008A838091DA018B838091DF018C83809194
:10550000E4018D838091E9018E838091EE018F8388
:105510008091F3018887CE010196BE016B5F7F4FBA
:1055200040E050E00E94D73701C080E028960FB6D7
:10553000F894DEBF0FBECDBFCF91DF911F910F91C9
:105540000895E0916F07F091700709950895EF9223
:10555000FF920F931F93CF93DF939CE0899FC0012D
:105560001124FB011486EC01C05BDF4F8B012CE59D
:10557000E22EF12CE80EF91ECE010E94B53EF80194
:1055800081938F01882321F02196CE15DF05A1F7A5
:10559000DF91CF911F910F91FF90EF900895CF92DF
:1055A000DF92EF92FF920F931F93CF93DF939CE0D4
:1055B000899FC0011124FB011486EC01C05BDF4F01
:1055C0007B013CE5C32ED12CC80ED91E8701CE012C
:1055D000F70161917F010E94C73EF8018081882315
:1055E00021F02196CC15DD0589F7DF91CF911F9130
:1055F0000F91FF90EF90DF90CF9008950F931F933E
:10560000CF93DF9307E617E0C0E1D2E0F8016191A4
:105610008F01CE010E94C73E2196F2E0C431DF0720
:10562000A9F7DF91CF911F910F9108950F931F93C9
:10563000CF93DF9307E617E0C0E1D2E0CE010E94EE
:10564000B53EF80181938F012196F2E0C431DF0766
:10565000A9F7DF91CF911F910F9108950E94933682
:1056600090E0059667E070E00E94BC3D0895E82F49
:10567000E695E695E6958770F0E0662361F0ED59D2
:10568000F84F21E030E002C0220F331F8A95E2F785
:105690008081822B0CC0ED59F84F21E030E002C030
:1056A000220F331F8A95E2F7209580818223808321
:1056B0000895109263071092640710926507109284
:1056C00066070895EF92FF920F931F93CF93DF9396
:1056D00087E060E00E94F63AC6E6D7E080915F0777
:1056E000982F9370913041F490912502992311F0F5
:1056F00082FD02C0888101C080E007E010E0E82E52
:10570000FF2486E060E00E94F63AB701002E02C056
:10571000759567950A94E2F76170707085E00E9454
:10572000F63A86E061E00E94F63A015010408FEFB1
:105730000F3F180731F7219787E0C236D80771F677
:1057400087E061E00E94F63ADF91CF911F910F91BF
:10575000FF90EF90089587E061E00E94D23A8FE0D9
:1057600061E00E94D23A86E061E00E94D23A85E090
:1057700061E00E94D23A87E061E00E94F63A8FE051
:1057800061E00E94F63A0E94592B0E94622B8FE042
:1057900060E00E94F63A83E060E00E94D23A83E043
:1057A00061E00E94F63A82E297E00E94A81E809192
:1057B0005F078160817C80935F071092600781E0C2
:1057C0008093610788E08093620710926B071092C4
:1057D0006C0710926D0710926E078CE497E060E101
:1057E00042E020E00E9403330E94E71E882329F450
:1057F00080915F07806280935F0708950F931F93E6
:10580000CF93DF930CEB11E0C0E0D0E0CE010E941B
:10581000B53EF801808321960B5F1F4FCB31D10538
:10582000A9F7809107028F5F80936107880F880F27
:10583000880F80936207DF91CF911F910F91089598
:105840000F931F93CF93DF930CEB11E0C0E0D0E0F8
:10585000CE01F80160810E94C73E21960B5F1F4F69
:10586000CB31D105A9F7809107028F5F8093610743
:10587000880F880F880F80936207DF91CF911F9167
:105880000F91089580915F07816080935F070E9468
:10589000622B0E94202C089580915F078E7F809359
:1058A0005F070E94622B0E94202C0895DF92EF92E6
:1058B000FF920F931F93D82E882309F10E941E3662
:1058C0007B018C016D2D70E080E090E020E13EE0F6
:1058D00040E050E00E947D3DE60EF71E081F191FB4
:1058E000E0926B07F0926C0700936D0710936E07C0
:1058F00080915F07826080935F070E94622B1F91F7
:105900000F91FF90EF90DF90089580915F078D7F5A
:1059100080935F070E94622B089583E00E94303BD2
:1059200020912A0230E041E08217930709F440E019
:10593000440F440F80915F078B7F842B80935F0718
:105940000895CF93DF93EC0106C08CE497E040E02C
:1059500050E00E946C3DFE01219664916623A9F7F8
:10596000DF91CF910895EF92FF920F931F93CF9302
:10597000DF93182F092F462F8CE497E060E00E94F8
:10598000CD32C801E92EE7017E01F82EE70106C0FD
:105990008CE497E040E050E00E946C3D7E01E11A0B
:1059A0008E2DFE0121966491662391F7992787FD3C
:1059B0009095C0E1D0E0C81BD90B05C08AE89BE0F8
:1059C0000E94A12C2197D7FFF9CFDF91CF911F9192
:1059D0000F91FF90EF9008951F9310E033C088EE71
:1059E0009BE061E00E94B32C8CE497E060E041E032
:1059F0000E94CD32612F70E06F5F7F4F8CE497E0A3
:105A00004AE050E00E94623D812F61E00E94372B06
:105A10000E94622B6091340270E080E090E028EEFA
:105A200033E040E050E00E947D3D0E94033C0E9434
:105A3000592B0E94622B68EB7BE080E090E00E9493
:105A4000033C1F5F80916207181748F210E0FCCFFB
:105A50000F931F93CF93DF93CCE4D7E06AE070E01D
:105A60000E94BC3D8C01CE014AE050E00E94623DA4
:105A7000CE01B8014AE050E00E94623DDF91CF9133
:105A80001F910F910895EF92FF920F931F93DF9351
:105A9000CF930F92CDB7DEB789830E941E367B016C
:105AA0008C018CE497E060E049810E94CD32C8010E
:105AB000B7010E940B350E94282D88E89BE00E94C8
:105AC000A12CC801B7010E9405350E94282D85E848
:105AD0009BE00E94A12C0E942E2BE82FF0E0EE0FFD
