:100000000C940E060C9436060C9436060C943606A8
:100010000C9436060C9436060C9436060C94360670
:100020000C9436060C9436060C9436060C94360660
:100030000C9436060C9436060C9436060C94360650
:100040000C94B33B0C9436060C9436060C9436068E
:100050000C9436060C9436060C9436060C94360630
:100060000C9487390C943606687474703A2F2F728A
:10007000617973686F6262792E6E65742F73637233
:10008000697074732F6A6176612F737663312E38CD
:1000900000485454502F312E3020323030204F4BF6
:1000A0000D0A436F6E74656E742D547970653A2035
:1000B000746578742F68746D6C0D0A507261676D89
:1000C000613A206E6F2D63616368650D0A0D0A0049
:1000D0003C6D657461206E616D653D766965777014
:1000E0006F727420636F6E74656E743D22776964FD
:1000F00074683D363430223E0D0A00485454502F67
:10010000312E302034303120556E617574686F7235
:10011000697A65640D0A436F6E74656E742D547947
:1001200070653A20746578742F68746D6C0D0A0DD3
:100130000A3C68313E34303120556E617574686F09
:1001400072697A65643C2F68313E0077696E646F2E
:10015000772E6C6F636174696F6E3D222F223B3C7A
:100160002F7363726970743E0A00637600767000C4
:100170006D7000647000637000677000766F0063DC
:100180006F00736E00707300767300637300767295
:1001900000637200706E0024460024440024440072
:1001A00024460024463C6D65746120687474702D8B
:1001B00065717569763D2272656672657368222085
:1001C000636F6E74656E743D22313B2075726C3DB9
:1001D0002F223E0024463C7363726970743E616C4A
:1001E00065727428224F7074696F6E732076616C2B
:1001F0007565732073617665642E22293B24460061
:1002000024463C7363726970743E616C6572742835
:10021000224E65772070617373776F726473206DFF
:10022000757374206D617463682122293B77696E50
:10023000646F772E6C6F636174696F6E3D222F76E9
:100240006F223B3C2F7363726970743E0A00244630
:100250003C7363726970743E616C65727428224EDF
:1002600065772070617373776F7264207365742E85
:1002700022293B24460024463C7363726970743E15
:10028000616C657274282256616C756573206F7598
:1002900074206F6620626F756E642122293B776936
:1002A0006E646F772E6C6F636174696F6E3D222F81
:1002B000766F223B3C2F7363726970743E0A002490
:1002C000463C7363726970743E2446005265626FE7
:1002D0006F74696E672E2E2E0024463C6D65746126
:1002E00020687474702D65717569763D227265663B
:1002F000726573682220636F6E74656E743D22248C
:10030000443B2075726C3D2F223E003C7363726942
:100310007074207372633D2224462F766965776F6F
:100320007074696F6E732E6A73223E3C2F73637212
:100330006970743E0A003C2F7363726970743E0AE0
:1003400000305D3B766172206E6F7074733D2444A3
:100350002C6C6F633D222453223B00222446222C26
:1003600024442C24442C24442C003C736372697074
:10037000743E766172206F7074733D5B0024462476
:1003800046003C736372697074207372633D22246B
:10039000462F686F6D652E6A73223E3C2F73637221
:1003A0006970743E0A003C736372697074207372E2
:1003B000633D22706E2E6A73223E3C2F7363726916
:1003C00070743E0A000A766172206C72756E3D5B35
:1003D00024442C24442C24442C244C5D3C2F736353
:1003E000726970743E0A005B302C305D5D3B0A76AA
:1003F000617220656E3D24442C72643D24442C724D
:10040000733D24442C6D6D3D24442C726473743D03
:10041000244C2C6D61733D24442C7572733D24442F
:100420002C776C3D24442C697061733D24442C6C02
:100430006F633D222453223B005B24442C244C5DFB
:100440002C00305D3B7661722070733D5B0024446C
:100450002C00766172206E6272643D24442C747AA2
:100460003D24442C73626974733D5B003C7363727A
:100470006970743E766172207665723D24442C6406
:100480006576743D244C3B0A002446244600776977
:100490006E646F772E6C6F636174696F6E3D222F8F
:1004A0007670223B3C2F7363726970743E0A006160
:1004B0006C657274282250726F6772616D202444DB
:1004C000206D6F64696669656422293B00616C6513
:1004D000727428224E65772070726F6772616D208A
:1004E00061646465642E22293B0024463C73637278
:1004F0006970743E003C7363726970742073726338
:100500003D2224462F706C6F7470726F672E6A7371
:10051000223E3C2F7363726970743E0A003C736321
:1005200072697074207372633D22706E2E6A73223A
:100530003E3C2F7363726970743E0A00305D3B006D
:1005400024442C00766172206D61736F703D5B00F6
:1005500024463C7363726970743E766172207365E1
:10056000713D24442C6D61733D24442C776C3D24F3
:10057000442C7364743D24442C6D746F6E3D24448C
:100580002C6D746F66663D24442C646576646179D5
:100590003D24442C6465766D696E3D24442C64646E
:1005A0003D24442C6D6D3D24442C79793D24443BFD
:1005B0000024463C7363726970743E77696E646FA1
:1005C000772E6C6F636174696F6E3D222F76702297
:1005D0003B3C2F7363726970743E0A003C73637214
:1005E000697074207372633D2224462F6D6F6470AE
:1005F000726F672E6A73223E3C2F73637269707448
:100600003E0A003C2F7363726970743E0A3C736348
:1006100072697074207372633D22706E2E6A732249
:100620003E3C2F7363726970743E0A005D3B002C80
:100630002444007661722070726F673D5B24442C05
:1006400024442C24442C24442C24442C24442C24A2
:1006500044003C7363726970743E766172206E620E
:100660006F617264733D24442C7069643D24442C92
:10067000697061733D24443B0024462446003C736A
:100680006372697074207372633D2224462F766909
:10069000657770726F672E6A73223E3C2F736372A8
:1006A0006970743E0A003C736372697074207372DF
:1006B000633D22706E2E6A73223E3C2F7363726913
:1006C00070743E0A00244624463C73637269707459
:1006D0003E0024463C7363726970743E2446003CBD
:1006E000736372697074207372633D2224462F769F
:1006F000696577726F2E6A73223E3C2F736372694D
:1007000070743E0A003C7363726970742073726384
:100710003D22706E2E6A73223E3C2F7363726970A5
:10072000743E0A00305D3B3C2F7363726970743E07
:100730000A0024442C00244624463C7363726970EA
:10074000743E766172206E626F617264733D244400
:100750002C6D61733D24442C697061733D24442CDD
:100760006475723D5B003C736372697074207372D0
:10077000633D707324442E6A733E3C2F7363726929
:1007800070743E0A003C2F7363726970743E0A00F5
:10079000766172206E70726F67733D24442C6E62B6
:1007A0006F617264733D24442C697061733D24440D
:1007B0002C6D6E703D24442C70643D5B5D3B0024C9
:1007C00046005D3B002C24440070645B24445D3D86
:1007D0005B24442C24442C24442C24442C24442CDA
:1007E00024442C24440024463C7363726970743E94
:1007F000616C657274282253746174696F6E206332
:1008000068616E6765732073617665642E22293B8B
:1008100024460024467661722000305D3B3C2F73F5
:1008200063726970743E0A3C7363726970742073FA
:1008300072633D2224462F7669657773746174690B
:100840006F6E732E6A73223E3C2F736372697074ED
:100850003E0A0024442C00766172206D61736F7033
:100860003D5B0024463C7363726970743E7661722E
:10087000206E626F617264733D24442C6D61786CEC
:10088000656E3D24442C6D61733D24442C69706178
:10089000733D24442C0027275D3B0A00272453275F
:1008A0002C00736E616D65733D5B005265636F6E06
:1008B0006E656374696E672E2E2E00207468652045
:1008C0006E6574776F726B2E2E2E00436F6E6E65A1
:1008D0006374696E6720746F0000010800060400ED
:1008E00001450000820000400020504F5354202456
:1008F0004620485454502F312E310D0A486F7374DE
:100900003A2024460D0A24462453416363657074DB
:100910003A202A2F2A0D0A436F6E6E656374696F41
:100920006E3A20636C6F73650D0A436F6E74656E6B
:10093000742D4C656E6774683A2024440D0A436F29
:100940006E74656E742D547970653A206170706CA8
:1009500069636174696F6E2F782D7777772D666F75
:10096000726D2D75726C656E636F6465640D0A0D32
:100970000A24530047455420244624532048545405
:10098000502F312E310D0A486F73743A2024460DD2
:100990000A4163636570743A20746578742F6874D3
:1009A0006D6C0D0A436F6E6E656374696F6E3A20ED
:1009B000636C6F73650D0A0D0A00E30004FA000111
:1009C000000000014669726D77617265207665727C
:1009D0002E0054696D65207A6F6E653A004E545052
:1009E0002053796E633A0055736520444843503A6A
:1009F000005374617469632E6970313A002E697016
:100A0000323A002E6970333A002E6970343A00474A
:100A10006174657761792E6970313A002E697032A0
:100A20003A002E6970333A002E6970343A00485407
:100A3000545020706F72743A00004175746F2072C8
:100A400065636F6E6E6563743A004578742E20623C
:100A50006F617264733A0053657175656E74696194
:100A60006C3A0053746174696F6E2064656C6179CF
:100A70003A004D61737465722073746174696F6EAE
:100A80003A004D61732E206F6E2061646A2E3A0029
:100A90004D61732E206F66662061646A2E3A0055A0
:100AA0007365207261696E2073656E736F723A00B0
:100AB0004E6F726D616C6C79206F70656E3A005785
:100AC00061746572206C6576656C202825293A0072
:100AD00053656C66746573742074696D653A00497A
:100AE000676E6F72652070617373776F72643A001E
:100AF000526573657420616C6C3F004D6F6E0054DD
:100B00007565005765640054687500467269005346
:100B100061740053756E00207365630025004E6F8D
:100B200000596573002B002B0020474D54003030D6
:100B3000003A002D002B00002D5261696E20537485
:100B40006F702D002D44697361626C6564212D0006
:100B50003A0045004D433A00003A002E002D002097
:100B6000002020003A00200042333A686F6C642075
:100B7000746F20736176650042333A73656C20426E
:100B8000312F42323A636867003D3D536574204F10
:100B90007074696F6E733D3D00506C6561736520C4
:100BA000576169742E2E2E00526573657474696ED8
:100BB0006720454550524F4D00000000002400279B
:100BC000002A0000000000250028002B0000000083
:100BD0000023002600290004040404040404040281
:100BE00002020202020303030303030102040810CA
:100BF0002040800102040810200102040810200097
:100C000000000700020100000304060000000000CD
:100C100000000000051CCD1EE61FE43111241FBE9C
:100C2000CFEFD8E0DEBFCDBF12E0A0E0B1E0EEE351
:100C3000FEE702C005900D92A43BB107D9F718E07A
:100C4000A4EBB2E001C01D92A834B107E1F71CE0AB
:100C5000CCE1DCE004C02297FE010E942B3EC431AF
:100C6000D107C9F70E94AE3D0C941D3F0C940000C3
:100C7000FC01A481B5816D93B583A48308958F92FF
:100C80009F92BF92CF92DF92EF92FF920F931F93AA
:100C9000CF93DF938DB79EB708970FB6F8949EBF9A
:100CA0000FBE8DBFEDB7FEB7319697EAE92E95E0FE
:100CB000F92EADB7BEB71296FC92EE9211978DE762
:100CC00093E09383828381E990E09583848380ED30
:100CD00090E0978386830E941F370F900F900F90AC
:100CE0000F90EDB7FEB7F282E1828AE693E094833B
:100CF00083830E941F370CEB11E00F900F900F9031
:100D00000F90C0E0D0E0DD24BE2CCF2C8BE5E82E88
:100D100083E0F82E4E017C2F692DD80114968C911A
:100D2000149781FF3AC012964D915C91139721E080
:100D300030E011968C911197813011F020E030E075
:100D4000F8018081C43119F490E0CC9701C090E0A3
:100D5000EDB7FEB73C970FB6F894FEBF0FBEEDBFE0
:100D60003196ADB7BEB71196BC9211971296CC9240
:100D7000F382E28255834483378326839187808779
:100D8000728763870E941F37D394EDB7FEB73C96F6
:100D90000FB6F894FEBF0FBEEDBF21960B5F1F4F3D
:100DA000CB31D10509F0B6CFC6E8D5E080E390E0BD
:100DB000BE010E949D318DB79EB708970FB6F8947B
:100DC0009EBF0FBE8DBFEDB7FEB7319607EA15E0A7
:100DD000ADB7BEB712961C930E93119781E493E0C2
:100DE00093838283D4821582D783C6830E941F3760
:100DF0000F900F900F900F90EDB7FEB71283018305
:100E000086E393E0948383830E941F3700D0EDB77D
:100E1000FEB73196ADB7BEB712961C930E931197DD
:100E20008BE093E09383828388E690E095838483CC
:100E30000E941F37EDB7FEB736960FB6F894FEBF87
:100E40000FBEEDBF81E0DF91CF911F910F91FF9019
:100E5000EF90DF90CF90BF909F908F900895BF92BA
:100E6000CF92DF92EF92FF920F931F93DF93CF9376
:100E7000CDB7DEB72F970FB6F894DEBF0FBECDBF4C
:100E80008C010D5F1F4FC8010E949338C80166E8AE
:100E900075E040E220E031E00E944738882309F401
:100EA00011C186E895E00E942F3E8C018FEF0F3F25
:100EB00018070CF407C18091BB0590E008171907CB
:100EC0000CF000C1ADB7BEB718970FB6F894BEBF0F
:100ED0000FBEADBFEDB7FEB7319637EAE32E35E072
:100EE000F32E1296FC92EE92119789E796E0938387
:100EF000828381E990E09583848380ED90E09783FD
:100F000086830E941F3700D0EDB7FEB73196ADB78C
:100F1000BEB71296FC92EE92119782E596E093830B
:100F20008283809169078483158217830683809169
:100F30003902808711860E941F37EDB7FEB73A96B7
:100F40000FB6F894FEBF0FBEEDBFFFEF0F3F1F07B8
:100F500009F48CC0802F8E010F5F1F4FB8010E94D3
:100F60004C1C8A81823018F0C8010E949F1D8DB7E9
:100F70009EB742970FB6F8949EBF0FBE8DBFEDB7D8
:100F8000FEB7319607EA15E0ADB7BEB712961C93CF
:100F90000E93119783E396E0938382838F858483F6
:100FA00015828981868317828A81808711868B8149
:100FB0009C81938782878D819E81958784878F818D
:100FC00098859787868789859A85918B808B0E94E3
:100FD0001F37EDB7FEB772960FB6F894FEBF0FBE7F
:100FE000EDBFDD24B02EC12E2FE2E22E26E0F22E40
:100FF0008E01055F1F4F20C000D000D000D0EDB79C
:10100000FEB73196ADB7BEB71196BC921197129646
:10101000CC92F382E282D801AD0DB11D8C91848314
:1010200015820E941F37D394EDB7FEB736960FB6E0
:10103000F894FEBF0FBEEDBF80916907D816E0F2AD
:1010400000D000D087EA95E0ADB7BEB712969C936A
:101050008E9311978CE296E014969C938E9313973F
:101060000E941F370F900F900F900F9000D000D06C
:1010700007EA15E0EDB7FEB71283018383E096E03F
:10108000948383830E941F3700D0EDB7FEB731965B
:10109000ADB7BEB712961C930E9311978CED95E0E9
:1010A0009383828388E690E0958384830E941F3730
:1010B000EDB7FEB736960FB6F894FEBF0FBEEDBF84
:1010C00081E001C080E02F960FB6F894DEBF0FBE1E
:1010D000CDBFCF91DF911F910F91FF90EF90DF90E7
:1010E000CF90BF9008959F92AF92BF92CF92DF9220
:1010F000EF92FF920F931F93CF93DF932DB73EB7DD
:101100002E5030400FB6F8943EBF0FBE2DBFEDB746
:10111000FEB7319667EAE62E65E0F62EADB7BEB7AC
:101120001296FC92EE92119786E397E09383828366
:1011300081E990E09583848380ED90E097838683B6
:1011400080916907808711868091160282871386B5
:1011500080913902848715860E941F37EDB7FEB74C
:101160003E960FB6F894FEBF0FBEEDBFC0EDD1E0C6
:10117000BB24AE2C9F2C52E3E52E57E0F52E29C060
:10118000CE010E94ED3E182F00E0CE0101960E9494
:10119000ED3E00D000D000D0EDB7FEB73196ADB730
:1011A000BEB71196AC92119712969C92F382E2828E
:1011B0009801280F311D358324830E941F37B39473
:1011C00022968DB79EB706960FB6F8949EBF0FBEB7
:1011D0008DBF80916A0747EAC42E45E0D42EB81629
:1011E00078F200D000D0ADB7BEB71296DC92CE92A6
:1011F000119784E297E014969C938E9313970E9424
:101200001F37EDB7FEB7D282C18285E097E09483A5
:1012100083830E941F3700D0EDB7FEB73196ADB77C
:10122000BEB71296DC92CE9211978FED96E0938323
:10123000828388E690E0958384830E941F37EDB710
:10124000FEB736960FB6F894FEBF0FBEEDBF81E035
:10125000DF91CF911F910F91FF90EF90DF90CF9092
:10126000BF90AF909F90089582E00E94BF2F282FDB
:1012700030E086FF41C02F7030702230310591F090
:101280002430310509F121303105B1F587FF03C064
:101290000E94932C089560915502709156028BEB39
:1012A00097E009C087FF03C00E949D2C089583EC3E
:1012B00097E060E070E00E94A82D60ED77E080E0AC
:1012C00090E00E943B3C089587FF06C081E00E94A9
:1012D000BF2F0E948E2A089520916807822F8F7059
:1012E00090E001966091690770E00E94F43D8F7074
:1012F000207F282B2093680708951F93182F0E94A2
:101300005636E12FF0E0EE0FFF1FEE0FFF1FEC5BF4
:10131000F94F60837183828393831F9108950F93A4
:101320001F93CF93DF93182FEB010E945636012FA6
:1013300010E0D801AA0FBB1FAA0FBB1F9D012C53A1
:101340003A4FF9016083718382839383AC5BB94F19
:10135000209751F4605477458F4F9F4F6D937D9345
:101360008D939C9313970EC09E01442737FD4095A3
:10137000542F260F371F481F591F2D933D934D9310
:101380005C931397F801EC53F94F8FEF80838091B2
:101390006707886080936707DF91CF911F910F9156
:1013A0000895AF92BF92CF92DF92EF92FF920F9388
:1013B0001F93CF93DF93DC011296C6E8D5E0E0E0FF
:1013C0008D018D91982F90539A3028F4E43019F0C4
:1013D0008993EF5FF5CFF0E0EA57FA4F108286E885
:1013E00095E00E942F3EEC0197FDE5C080916A07D1
:1013F00090E08C179D070CF4DEC0D8018C918D33E2
:1014000009F04DC0209709F4D6C08091670784FF8A
:10141000D2C02197C801019611962C9111972033C3
:1014200021F48C2F0E947D0919C0213309F0C3C01B
:1014300066E875E040E224E031E00E944738882306
:1014400041F086E895E00E942F3EBC0197FF03C063
:10145000B2C060E070E08C2F0E948F0900D000D0F5
:1014600000D0EDB7FEB7319687EA95E0ADB7BEB7CD
:1014700012969C938E93119783EA91E093838283D3
:1014800081E990E0958384830E941F37EDB7FEB712
:1014900036960FB6F894FEBF0FBEEDBF8AC000D0DF
:1014A00000D000D0EDB7FEB7319687EA95E0ADB732
:1014B000BEB712969C938E93119780EA91E0938326
:1014C000828381E990E0958384830E941F37EDB782
:1014D000FEB736960FB6F894FEBF0FBEEDBF20974D
:1014E00021F480916A0700E003C08C2F0C2F01507B
:1014F00010E0C82FD0E067EAE62E65E0F62E5AE944
:10150000C52E51E0D52E4DE9A42E41E0B42E4DC09C
:1015100080916707982F9370913059F5909125022B
:10152000992311F082FD25C000D000D000D0EDB786
:10153000FEB73196ADB7BEB71296FC92EE921197F8
:10154000B382A282D80133E0B595A7953A95E1F729
:10155000A559B84F8C9190E098012770307002C067
:10156000959587952A95E2F781709070958384838D
:1015700010C000D000D000D0EDB7FEB73196ADB7A7
:10158000BEB71296FC92EE921197D382C282158258
:1015900014820E941F37EDB7FEB736960FB6F89447
:1015A000FEBF0FBEEDBF0F5F1F4F0C171D070CF4E2
:1015B000AFCF81E001C080E0DF91CF911F910F910B
:1015C000FF90EF90DF90CF90BF90AF900895EF9293
:1015D000FF920F931F932091AD053091AE0540917E
:1015E000AF055091B005211531054105510549F46C
:1015F0006093AD057093AE058093AF059093B005F1
:101600005BC07B018C01E21AF30A040B150BA801E5
:1016100097012D3331054105510508F44DC0609304
:10162000AD057093AE058093AF059093B00583EC44
:1016300097E00E9465260E94073C7B018C010E9476
:10164000E1230E94AF2783EC97E00E949327882331
:1016500061F40E94073C6E197F09800B910B683C76
:1016600071058105910558F31FC0809168078F703F
:10167000809368078091680782958F7090E085302D
:101680009105D4F0809102028823B1F08BEA98E0B2
:1016900060E00E94042D6091B4027091B50285E56E
:1016A00091E00E943D2A08C080916807982F907FA2
:1016B000905F8F70892BDCCF1F910F91FF90EF907F
:1016C00008951F93CF93DF939B01AC0180910C028F
:1016D0001091670760916A07882381F41695169523
:1016E00016951170E4E4F6E0C4ECD5E070E0660F06
:1016F000771F660F771F6E0F7F1F4BC016951695CD
:1017000016951170E4E4F6E0C4ECD5E070E0660FE5
:10171000771F660F771F6E0F7F1FDA01C9011EC08A
:1017200020813181428153812115310541055105C7
:1017300099F088839983AA83BB83820F931FA41F88
:10174000B51F80839183A283B38320911102820FFE
:10175000911DA11DB11D11E034962496E617F707DF
:10176000F9F61AC080819181A281B3810097A10509
:10177000B10569F0288339834A835B83820F931F05
:10178000A41FB51F80839183A283B38311E0349695
:101790002496E617F70731F71170110F110F110F8B
:1017A00080916707877F812B80936707DF91CF91B7
:1017B0001F9108950E94462B0E944F2B0E940C1CE3
:1017C000089520913902222389F466E875E040E209
:1017D00026E031E00E944738882351F086E895E002
:1017E0000E94C03191E0882321F402C091E001C041
:1017F00090E0892F08955F926F927F928F929F92CF
:10180000AF92BF92CF92DF92EF92FF920F931F930E
:10181000DF93CF93CDB7DEB7A0970FB6F894DEBFB6
:101820000FBECDBF23E0E22EF12CE80EF91EC7015A
:101830000E94E10B882309F4E7C00CEB11E0CC24F3
:10184000DD24BB249FE6A92E82E0682E712C6C0E4D
:101850007D1E4E010894811C911CC601D80114966E
:101860002C91149721FF35C011962C91119721309E
:1018700009F41C92A9821A821B821C821D82B30168
:101880004AE050E00E948F3EC70166E875E040E202
:1018900094010E9447388823E1F0F8015180F52D2A
:1018A000F13019F4D8015C9214C086E895E00E94EA
:1018B0002F3EBC2DB43109F4CC9697FD08C0252DE0
:1018C00030E0281739071CF0F801808302C0BB24E0
:1018D000B3940894C11CD11C0B5F1F4FFBE1CF16C2
:1018E000D10409F0BACFC70166E875E040E229E00B
:1018F00031E00E944738882351F086E895E00E9445
:10190000933880E390E066E875E00E94BE30BB202B
:1019100089F000D000D000D0EDB7FEB7319687EA4D
:1019200095E0ADB7BEB712969C938E93119786E75C
:1019300092E091C00E94712CC70166E875E040E218
:101940002DE031E00E944738882399F1C7018E01CC
:101950000F5F1F4FB80140E221E131E00E9447389C
:10196000882309F468C086E895E0B80140E150E0BA
:101970000E94813E009709F05EC080E290E066E838
:1019800075E00E94BE308DB79EB708970FB6F894E9
:101990009EBF0FBE8DBFEDB7FEB7319687EA95E0CB
:1019A000ADB7BEB712969C938E9311978EE492E0DA
:1019B00015C08DB79EB708970FB6F8949EBF0FBE9F
:1019C0008DBFEDB7FEB7319687EA95E0ADB7BEB7EC
:1019D00012969C938E93119784ED91E0938382836A
:1019E00081E990E0958384838BE491E097838683FB
:1019F0000E941F37EDB7FEB738960FB6F894FEBFBA
:101A00000FBEEDBF81E001C080E0A0960FB6F89454
:101A1000DEBF0FBECDBFCF91DF911F910F91FF9021
:101A2000EF90DF90CF90BF90AF909F908F907F907E
:101A30006F905F90089500D000D000D0EDB7FEB752
:101A4000319687EA95E0ADB7BEB712969C938E9318
:101A5000119780E092E09383828381E990E09583FF
:101A600084830E941F37EDB7FEB73696C6CF0F931B
:101A70001F93CF93DF93EC012396CE010E94E10BDD
:101A8000882309F4E5C0CE0166E875E040E225E16F
:101A900031E00E944738882311F00E94DA0BCE0112
:101AA00066E875E040E229E131E00E94473888238A
:101AB00009F449C086E895E00E942F3E18161906E1
:101AC0000CF041C08DB79EB708970FB6F8949EBF33
:101AD0000FBE8DBFEDB7FEB7319607EA15E0ADB783
:101AE000BEB712961C930E93119789ED92E09383E3
:101AF000828381E990E0958384838AE090E09783F4
:101B000086830E941F370F900F900F900F90EDB7B4
:101B1000FEB7128301838CEC92E0948383830E944E
:101B20001F370F900F900F900F908091AB05909101
:101B3000AC052091A9053091AA05821B930B0E9448
:101B400052260E948E2ACE0166E875E040E22DE121
:101B500031E00E944738882399F0809186058133CF
:101B600039F48091670780FD0BC00E94932C08C058
:101B7000803331F48091670780FF02C00E949D2C62
:101B8000CE0166E875E040E220E231E00E9447388D
:101B90008823D9F080918605813351F480916707BD
:101BA00084FD13C00E94DA0B8091670780610BC02F
:101BB000803359F48091670784FF07C00E94DA0BD5
:101BC000809167078F7E80936707CE0166E875E096
:101BD00040E223E231E00E944738882371F086E832
:101BE00095E00E942F3E181619061CF40E94A72C9F
:101BF00004C0009769F50E94D62C8DB79EB7089750
:101C00000FB6F8949EBF0FBE8DBFEDB7FEB73196ED
:101C100087EA95E0ADB7BEB712969C938E93119765
:101C20008FEB92E09383828381E990E095838483B4
:101C30008BE491E0978386830E941F37EDB7FEB750
:101C400038960FB6F894FEBF0FBEEDBF81E001C01D
:101C500080E0DF91CF911F910F910895CF93DF9393
:101C6000EC012396CE010E949338CE010E94E10B35
:101C7000882309F43FC0CE0166E875E040E220E029
:101C800031E00E9447388823A9F186E895E00E9458
:101C90002F3E2FEF8F3F920719F40E94471C08C078
:101CA0002091BB0530E08217930724F50E94841C25
:101CB00000D000D000D0EDB7FEB7319687EA95E0AE
:101CC000ADB7BEB712969C938E93119781EB95E0BA
:101CD0009383828381E990E0958384830E941F37F8
:101CE0008DB79EB706960FB6F8949EBF0FBE8DBFF8
:101CF00081E001C080E0DF91CF9108958F929F92A3
:101D0000AF92BF92CF92DF92EF92FF920F931F9309
:101D1000DF93CF9300D000D0CDB7DEB753E0C52E10
:101D2000D12CC80ED91EC6010E94E10B882309F4EC
:101D300086C083E789831A821B821C8200E042E00E
:101D4000A42EB12CAC0EBD1E7E010894E11CF11C2A
:101D50001AC0802F90E0B5014AE050E00E948F3E0B
:101D6000C60166E875E040E297010E944738882383
:101D700049F086E895E00E949338802F66E875E088
:101D80000E94BC2A0F5F80916A07081710F38DE646
:101D90008983FF2432E0832E912C8C0E9D1E5E01E0
:101DA0000894A11CB11C1AC00F2D10E0C801B40189
:101DB0004AE050E00E948F3EC60166E875E040E2CE
:101DC00095010E944738882341F086E895E00E94FB
:101DD0002F3EF801E159F84F8083F3948091690711
:101DE000F81610F30E94EB2A8DB79EB708970FB62E
:101DF000F8949EBF0FBE8DBFEDB7FEB7319687EA50
:101E000095E0ADB7BEB712969C938E93119786EE70
:101E100097E09383828381E990E0958384838BE4C8
:101E200091E0978386830E941F378DB79EB70896EF
:101E30000FB6F8949EBF0FBE8DBF81E001C080E059
:101E40000F900F900F900F90CF91DF911F910F91F6
:101E5000FF90EF90DF90CF90BF90AF909F908F90CA
:101E60000895AF92BF92DF92EF92FF920F931F936C
:101E7000CF93DF9300D000D0C7EAD5E0ADB7BEB7AF
:101E80001296DC93CE93119782EA98E014969C9375
:101E90008E9313970E941F370F900F900F900F9003
:101EA000FF24FE01DC2EEF2E06E815E0CCE9D8E099
:101EB00021C08F2D66E875E00E94942A00D000D0E2
:101EC00000D0EDB7FEB73196ADB7BEB71196DC9234
:101ED00011971296EC92D383C283158304830E94D8
:101EE0001F37F394EDB7FEB736960FB6F894FEBFE2
:101EF0000FBEEDBF80916A07F816D8F200D000D06F
:101F000087EA95E0ADB7BEB712969C938E93119772
:101F100086E998E014969C938E9313970E941F373E
:101F20000F900F900F900F90DF91CF911F910F9115
:101F3000FF90EF90DF90BF90AF90089500D000D059
:101F400000D0EDB7FEB7319687EA95E0ADB7BEB7E2
:101F500012969C938E93119783E198E093838283EA
:101F600081E990E0958384830E941F378DB79EB7E7
:101F700006960FB6F8949EBF0FBE8DBF0E94310F1C
:101F800081E00895CF92DF92FF920F931F93CF933A
:101F9000DF938DB79EB70E970FB6F8949EBF0FBE16
:101FA0008DBFEDB7FEB73196C7EAD5E0ADB7BEB786
:101FB0001296DC93CE93119783E698E09383828305
:101FC00081E990E0958384838091690786831782F5
:101FD0008CE090E09187808780911602828713863B
:101FE00080913902848715860E941F37EDB7FEB7AE
:101FF0003E960FB6F894FEBF0FBEEDBF0E94310FA4
:1020000000D000D0ADB7BEB71296DC93CE93119737
:1020100087E598E014969C938E9313970E941F3740
:102020000F900F900F900F9010E0FE01FC2E0F2FDD
:10203000C3E5D8E021C000D000D000D0EDB7FEB796
:102040003196ADB7BEB71196FC92119712960C93CC
:10205000D383C283A12FB0E0A159B84F8C91848360
:1020600015820E941F371F5FEDB7FEB736960FB679
:10207000F894FEBF0FBEEDBF809169071817D8F224
:1020800000D000D000D0EDB7FEB7319687EA95E0DA
:10209000ADB7BEB712969C938E9311978AE198E0E4
:1020A0009383828388E690E0958384830E941F3720
:1020B000EDB7FEB736960FB6F894FEBF0FBEEDBF74
:1020C00081E0DF91CF911F910F91FF90DF90CF9032
:1020D00008952F923F924F925F926F927F928F92CC
:1020E0009F92AF92BF92CF92DF92EF92FF920F93A7
:1020F0001F93DF93CF93CDB7DEB760970FB6F894F9
:10210000DEBF0FBECDBF782E082F10E0095F1F4F36
:102110006E010894C11CD11CF7EAEF2EF5E0FF2EEA
:10212000E9EC4E2EE7E05E2E7BE0872E912C8C0EA4
:102130009D1EC701E88A692E62EC262E67E0362EC6
:1021400072C0C6010E949F1D8DB79EB744970FB6FF
:10215000F8949EBF0FBE8DBFEDB7FEB73196ADB7F9
:10216000BEB71296FC92EE92119753824282B582CC
:10217000A4828F85868317828981808711868A81D0
:10218000828713868B819C81958784878D819E8130
:10219000978786878F819885918B808B89859A8593
:1021A000938B828B0E941F37EDB7FEB774960FB6E4
:1021B000F894FEBF0FBEEDBFAA2421C000D000D00E
:1021C00000D0EDB7FEB73196ADB7BEB71296FC9210
:1021D000EE92119785EC97E093838283D401AA0D48
:1021E000B11D8C91848315820E941F37A394ADB7D3
:1021F000BEB716960FB6F894BEBF0FBEADBF8091A6
:102200006907A816D8F200D000D08889EDB7FEB7CC
:1022100081836282348223820E941F3773940F90DD
:102220000F900F900F90A72CBB240A151B056CF084
:102230008091BB05781648F4872DB6010E944C1C8E
:102240008A81823008F07DCF7FCF60960FB6F894F8
:10225000DEBF0FBECDBFCF91DF911F910F91FF90D9
:10226000EF90DF90CF90BF90AF909F908F907F9036
:102270006F905F904F903F902F9008950F931F9312
:10228000DF93CF930F92CDB7DEB78C0102960E94F9
:102290009338D80112968C91880F880F880F805838
:1022A00000D000D000D0EDB7FEB7319627EA35E078
:1022B000ADB7BEB712963C932E9311972FEB37E034
:1022C0003383228321E930E03583248389830E948C
:1022D0001F37EDB7FEB736960FB6F894FEBF0FBEA8
:1022E000EDBF89810E94691081E00F90CF91DF914D
:1022F0001F910F910895DF92EF92FF920F931F931A
:10230000CF93DF938DB79EB70C970FB6F8949EBF0F
:102310000FBE8DBFEDB7FEB7319607EA15E0ADB73A
:10232000BEB712961C930E93119780E997E09383A2
:1023300082838091BB05848315828091690786839F
:102340001782809139028087118680E290E093871E
:1023500082870E941F37EDB7FEB73C960FB6F89400
:10236000FEBF0FBEEDBF80E00E94691000D000D01C
:10237000ADB7BEB712961C930E93119785E897E000
:1023800014969C938E9313970E941F370F900F9073
:102390000F900F908091BB05893088F1FF24F39452
:1023A000C8E0D0E0D02EE12E06E617E01CC000D039
:1023B00000D000D0EDB7FEB73196ADB7BEB71196DD
:1023C000DC9211971296EC92138302833583248357
:1023D0000E941F37F394EDB7FEB736960FB6F89408
:1023E000FEBF0FBEEDBF2F2D30E08091BB0590E00A
:1023F0000197BE010E94F43D62177307C4F6DF9196
:10240000CF911F910F91FF90EF90DF9008952F9241
:102410003F924F925F926F927F928F929F92AF9274
:10242000BF92CF92DF92EF92FF920F931F93CF93C1
:10243000DF93EC012396CE010E9493380E9456361A
:102440007B018C010E9422352C01C801B7010E943A
:102450002B354C01C801B7010E9437356C01C8010A
:10246000B70120E831E541E050E00E94073E190144
:10247000C801B7010E9443353C010E94D3362CE3CA
:1024800030E0629E5001639EB00C729EB00C11242D
:10249000A80EB91ECE0166E875E040E226E231E002
:1024A0000E944738882361F086E895E00E942F3E1D
:1024B0006C01009729F4C801B7010E9437356C01FF
:1024C000CE0166E875E040E228E231E00E9447383C
:1024D000882329F086E895E00E942F3E4C01CE012A
:1024E00066E875E040E22AE231E00E94473888233E
:1024F00029F086E895E00E942F3E2C018DB79EB70B
:102500004C970FB6F8949EBF0FBE8DBFEDB7FEB7C8
:102510003196C7EAD5E0ADB7BEB71296DC93CE933D
:10252000119780E595E09383828381E990E095831C
:10253000848380910C0286831782809116028087A3
:10254000118680912F0282871386809111028487E1
:10255000158680911B028687178680912002808BCA
:10256000118A338A228AB58AA48AD78AC68A918E2A
:10257000808E538E428E0E941F37EDB7FEB778963D
:102580000FB6F894FEBF0FBEEDBFD283C18384E4C3
:1025900095E0948383830E941F370F900F900F90D4
:1025A0000F90EE244E01AC2EC92C00E415E021C0A2
:1025B00000D000D000D0EDB7FEB73196ADB7BEB7B2
:1025C0001196AC9211971296CC9213830283AE2D82
:1025D000B0E0A159B84F8C91848315820E941F37B7
:1025E000E394EDB7FEB736960FB6F894FEBF0FBE74
:1025F000EDBF80916907C7EAD5E0E816C8F200D0C0
:1026000000D0ADB7BEB71296DC93CE9311978CE392
:1026100095E014969C938E9313970E941F370F900A
:102620000F900F900F900E947B1100D000D0EDB75B
:10263000FEB7D283C1838DE195E0948383830E94AA
:102640001F3700D0EDB7FEB73196ADB7BEB71296C3
:10265000DC93CE93119785EF94E09383828388E691
:1026600090E0958384830E941F37EDB7FEB73696BE
:102670000FB6F894FEBF0FBEEDBF81E0DF91CF91A2
:102680001F910F91FF90EF90DF90CF90BF90AF9090
:102690009F908F907F906F905F904F903F902F9082
:1026A0000895CF93DF938DB79EB708970FB6F89430
:1026B0009EBF0FBE8DBFEDB7FEB73196C7EAD5E01E
:1026C000ADB7BEB71296DC93CE93119785EC96E02A
:1026D0009383828381E990E09583848380ED90E009
:1026E000978386830E941F37EDB7FEB738960FB6E3
:1026F000F894FEBF0FBEEDBF0E947B1100D000D04A
:10270000ADB7BEB71296DC93CE93119786EA96E0EA
:1027100014969C938E9313970E941F3700D0EDB7A9
:10272000FEB73196ADB7BEB71296DC93CE93119734
:102730008EE796E09383828388E690E09583848396
:102740000E941F37EDB7FEB736960FB6F894FEBF5E
:102750000FBEEDBF81E0DF91CF910895CF93DF935E
:10276000DC0110928605C6E8D5E0ED91FC91119749
:1027700080E090E00BC021912D3231F02B3221F01E
:10278000322F30533A3058F429930196AF012D91EE
:102790003C911197265F3F4FE217F30760F38A578A
:1027A0009A4FFC011082CA0101968D939C9386E892
:1027B00095E00E942F3EDF91CF910895CF92DF9256
:1027C000EF92FF920F931F93DF93CF93CDB7DEB7B6
:1027D00062970FB6F894DEBF0FBECDBF6C018C01BF
:1027E0000D5F1F4FC8010E949338C8010E94E10B82
:1027F000882309F405C1C80166E875E040E220E0DD
:1028000031E00E944738882309F4FAC086E895E051
:102810000E942F3E7C018FEFE8168FEFF8060CF434
:10282000EFC08091BB0590E0E816F9060CF0E8C017
:102830001A830983A7E6B0E0CA0EDB1E04C00F5F4F
:102840001F4F1A83098309811A81F8018081882327
:1028500009F4D6C00C151D0508F0D2C0C8016CE201
:1028600071E043E050E00E94813E009741F70D5F28
:102870001F4F1A8309838E010F5F1F4FC8010E94EB
:10288000AE13898BC8010E94AE138B83C8010E94CE
:10289000AE138C83C8010E94AE139E838D83C80142
:1028A0000E94AE1398878F83C8010E94AE139A8747
:1028B0008987C8010E94AE139C878B8720E0D02EA9
:1028C000C12E8E01035F1F4F0BC08D2D9C2D2A8BB7
:1028D0000E94AE132A89F801E20FF11D80832F5F59
:1028E00080916907281788F306C0FC01E20FF11DEB
:1028F00010822F5F02C0CE010D962430B0F38C8180
:10290000823020F0CE0103960E94E31D00D000D05B
:1029100000D0EDB7FEB7319607EA15E0ADB7BEB708
:1029200012961C930E9311978AEE94E09383828300
:1029300081E990E0958384830E941F37EDB7FEB74D
:1029400036960FB6F894FEBF0FBEEDBFBE016D5FA9
:102950007F4FFFEFEF16FFEFFF06C1F4CB010E94A0
:102960005D1C00D000D0ADB7BEB712961C930E937D
:1029700011978DEC94E014969C938E9313970E947C
:102980001F370F900F900F900F9022C08E2D0E9436
:10299000731C00D000D000D0EDB7FEB73196ADB7B4
:1029A000BEB712961C930E9311978FEA94E093830F
:1029B00082830894E11CF11CF582E4820E941F3797
:1029C000EDB7FEB736960FB6F894FEBF0FBEEDBF5B
:1029D00000D000D087EA95E0ADB7BEB712969C93C1
:1029E0008E9311978EE894E014969C938E93139790
:1029F0000E941F370F900F900F900F9081E001C041
:102A000080E062960FB6F894DEBF0FBECDBFCF91C7
:102A1000DF911F910F91FF90EF90DF90CF9008957D
:102A2000AF92BF92CF92DF92EF92FF920F931F93DC
:102A3000DF93CF9300D00F92CDB7DEB77C018C012E
:102A40000D5F1F4FC8010E949338C8010E94E10B1F
:102A5000882309F48FC01A83098387E690E0E80E83
:102A6000F91E04C00F5F1F4F1A83098309811A8161
:102A7000D8018C91882309F47DC00E151F0508F03C
:102A800079C0C80160E371E043E050E00E94813EFC
:102A9000009741F70D5F1F4F1A8309830E94DA0BDD
:102AA00020E000ED11E0BB246E010894C11CD11C94
:102AB000BEEFAB2E2AC0C6012B830E94AE137C0151
:102AC000C8016F2D0E94FF3EC80101966E2D0E9425
:102AD000FF3E2B81E114F104A9F08B2D90E0FC0165
:102AE000EE0FFF1FEE0FFF1FEC5BF94F970140E069
:102AF00050E020833183428353838C53994FFC01F0
:102B0000A08221E0B3940E5F1F4F80916A07B81630
:102B100090F2222321F00E9456360E94610B8DB75D
:102B20009EB708970FB6F8949EBF0FBE8DBFEDB746
:102B3000FEB7319687EA95E0ADB7BEB712969C9383
:102B40008E93119782ED96E09383828381E990E0E2
:102B5000958384838BE491E0978386830E941F375B
:102B6000EDB7FEB738960FB6F894FEBF0FBEEDBFB7
:102B700081E001C080E00F900F900F90CF91DF9126
:102B80001F910F91FF90EF90DF90CF90BF90AF908B
:102B900008958F929F92AF92BF92CF92DF92EF9261
:102BA000FF920F931F93CF93DF930E9456367B01C2
:102BB0008C012DB73EB7285030400FB6F8943EBF79
:102BC0000FBE2DBFEDB7FEB73196C7EAD5E0ADB762
:102BD000BEB71296DC93CE93119789E894E0938365
:102BE000828381E990E09583848380ED90E09783F0
:102BF00086830E941F3700D0EDB7FEB73196ADB780
:102C0000BEB71296DC93CE9311978CE694E0938333
:102C1000828382E190E095838483E682F782008755
:102C200011870E941F370F900F90EDB7FEB73196B6
:102C3000ADB7BEB71296DC93CE93119782E594E0C0
:102C40009383828380916907848315828091C10177
:102C5000868317820E941F37EDB7FEB738960FB6EE
:102C6000F894FEBF0FBEEDBFBB246E019C2EAD2CB1
:102C70002EE4C22E24E0D22E21C000D000D000D0FD
:102C8000EDB7FEB73196ADB7BEB711969C921197CE
:102C90001296AC92D382C282AB2DB0E0A559B84F48
:102CA0008C91848315820E941F37B394CDB7DEB711
:102CB00026960FB6F894DEBF0FBECDBF8091690790
:102CC000C7EAD5E0B816C8F200D000D0EDB7FEB71D
:102CD000D283C18382E494E0948383830E941F376C
:102CE0000F900F900F900F90CC244E01DC2EB92C3A
:102CF00099E3892E94E0992E53C0EC2DF0E0DF018A
:102D0000AC53B94F6C91662329F1EE0FFF1FEE0F04
:102D1000FF1FDF01AC53BA4F2D913D914D915C9156
:102D20001397EC5BF94FE216F3060407150748F01A
:102D300080819181A281B3818E199F09A00BB10B73
:102D40000CC080819181A281B381821B930BA40B63
:102D5000B50B03C080E090E0DC012DB73EB72A50F0
:102D600030400FB6F8943EBF0FBE2DBFEDB7FEB793
:102D70003196CDB7DEB7D982BA82938282826483DC
:102D8000158286839783A087B1870E941F37C394DB
:102D9000EDB7FEB73A960FB6F894FEBF0FBEEDBF83
:102DA00080916A07C81608F4A8CFC6E8D5E080E38A
:102DB00090E0BE010E949D312DB73EB72A513040B0
:102DC0000FB6F8943EBF0FBE2DBFEDB7FEB73196DC
:102DD00007EA15E0ADB7BEB712961C930E93119794
:102DE00087EE93E093838283809167078170848369
:102DF00015828091670786958170868317828091FE
:102E00006707869586958170808711868091670710
:102E100082958170828713868091730790917407E1
:102E2000A0917507B091760784879587A687B787A5
:102E300080911602808B118A80912502828B138AE1
:102E400080912F02848B158A80913902868B178A94
:102E5000D18FC08F0E941F37CDB7DEB72C960FB62B
:102E6000F894DEBF0FBECDBFEDB7FEB73196ADB75C
:102E7000BEB712961C930E93119785EC93E0938343
:102E800082838091BC05848315828091BD058683F1
:102E900017828091BE059091BF05918780878091B0
:102EA000C0059091C105A091C205B091C30582876C
:102EB0009387A487B5870E941F37CDB7DEB72A96C0
:102EC0000FB6F894DEBF0FBECDBF1A83098386EA22
:102ED00093E09C838B830E941F3700D0EDB7FEB731
:102EE0003196ADB7BEB712961C930E93119782E838
:102EF00093E09383828388E690E0958384830E94A5
:102F00001F37CDB7DEB726960FB6F894DEBF0FBEDB
:102F1000CDBF81E0DF91CF911F910F91FF90EF9096
:102F2000DF90CF90BF90AF909F908F900895AF9219
:102F3000BF92CF92DF92EF92FF920F931F93DF9396
:102F4000CF9300D000D0CDB7DEB70E94073C5B0125
:102F50006C017E010894E11CF11C0E94E1230E9497
:102F6000AF27C70160915F010E9400278823E1F02D
:102F7000E980FA800B811C8180EC98EDA4E5BCE728
:102F8000E80EF91E0A1F1B1F6091C10170E080E06E
:102F900090E024E833E040E050E00E94B53DE60ECA
:102FA000F71E081F191F11C00E94073C6A197B09F0
:102FB0008C099D09683EA3E07A07A0E08A07A0E09B
:102FC0009A0758F2EE24FF248701B701C8010F9039
:102FD0000F900F900F90CF91DF911F910F91FF9065
:102FE000EF90DF90CF90BF90AF9008951F9310E0C7
:102FF00060915F016F5F60935F018BE591E00E94DC
:10300000B0266AEF70E080E090E00E943B3C0E94B6
:1030100097179B01AC01611571058105910519F4A4
:103020001F5F153029F7B901CA011F910895EF926A
:10303000FF920F931F932091C6012223E9F1209163
:10304000680722952F70C1F52091B1053091B20526
:103050004091B3055091B405211531054105510545
:1030600081F07B018C01E21AF30A040B150BA80115
:103070009701213801E5300701E0400700E05007E3
:10308000D8F06093B1057093B2058093B305909327
:10309000B4050E94F6177B018C016115710581054D
:1030A000910551F00E9427368091670785FF04C083
:1030B000C801B7010E943F1F1F910F91FF90EF9031
:1030C00008950E94CB2B0E94DE300E942B1C909111
:1030D000FD0180E02091F801820F911D9093B502CF
:1030E0008093B4028BEC98E060E00E94042D8BEB9F
:1030F00098E061E00E94042D6091B4027091B502E5
:1031000085E591E00E943D2A90916807882311F09F
:103110009F7002C09F7090619093680764EF71E0A8
:1031200080E090E00E943B3C60E871E581E090E047
:103130000E94F2368091670785FF03C086EC9FE10D
:1031400002C080E090E00E94DB360E944F2B0E947C
:1031500056360E94171880E00E94582D0895CF938C
:10316000DF93FC0105964581403219F40E94C91590
:1031700048C0A0E6B1E020E030E0552747FD50957B
:10318000ED91FC911197649170E06417750709F057
:1031900041C03196E491F0E0EC016981772767FD49
:1031A0007095E617F707B1F5F901EE0FFF1FEE0F67
:1031B000FF1FE05AFE4F0280F381E02D099588231E
:1031C00001F500D000D000D0EDB7FEB7319687EA08
:1031D00095E0ADB7BEB712969C938E93119787E991
:1031E00091E0938382838BEF90E0958384830E94A8
:1031F0001F37CDB7DEB726960FB6F894DEBF0FBEE9
:10320000CDBF62E370E080E090E00E943B3CDF9144
:10321000CF9108952F5F3F4F14962F30310509F05D
:10322000AFCFEFCF2F923F924F925F926F927F92EC
:103230008F929F92AF92BF92CF92DF92EF92FF92C6
:103240000F931F93DF93CF93CDB7DEB7A2970FB63F
:10325000F894DEBF0FBECDBF20910C02288B70907A
:1032600016020E94E1230E94AF279093B605809337
:10327000B5050097D1F02CEE32E03093AA052093EB
:10328000A9053093AC052093AB058A549D4F0E944D
:10329000AF188091AB059091AC052091A9053091B4
:1032A000AA05821B930B0E9452260E9434090E9499
:1032B00056367B018C018091B7059091B805A0919D
:1032C000B905B091BA058E159F05A007B10709F49D
:1032D00083C2E092B705F092B8050093B905109348
:1032E000BA0580E00E94582D8091670781FF0FC0CA
:1032F0008091730790917407A0917507B09176073C
:10330000E816F9060A071B0710F00E94D62C0E9447
:10331000DE2C8091670784FDADC083FF04C038892F
:10332000332309F0A7C0C801B7010E943D359C01B5
:1033300080919C0190919D012817390709F49AC04A
:1033400030939D0120939C0120E0CC241E01089421
:10335000211C311C472D50E05C8F4B8F572C7EC0B9
:103360008C2DB1012AA30E944C1CC101B801A701F8
:103370000E94D81C2AA1882309F46FC089859A85E8
:10338000009709F46AC050916907598BAC0160E05D
:1033900070E04B8B5C8B6D8B7E8B4424DD245C2D2D
:1033A0005F5F598F4701580152C000E010E06BE0A9
:1033B00070E06C0F7D1F6D0D711D788F6F8B6D2C04
:1033C0007C2CC42CC00EDD24C6010196EB8DFC8D37
:1033D000E817F90789F1EF89F88D808190E0002ED8
:1033E00002C0959587950A94E2F780FF25C0760183
:1033F000EE0CFF1CEE0CFF1C24E436E0E20EF31E84
:1034000060912F0270E080E090E02B893C894D892B
:103410005E890E94B53D24E630E040E050E00E9425
:10342000073EF7012083318342835383F601EC5337
:10343000F94F298D208321E00F5F1F4F08301105C0
:1034400009F0BFCFD62CC72CD39438E0430E49895E
:10345000D41608F4AACF85017401C3948091BB05EA
:10346000C81608F47DCF752C222321F0C801B701BE
:103470000E94610B8091670783FF46C1662440E08C
:10348000672D70E07A8B698B772D71507B8B872F3E
:1034900090E09C01220F331F220F331FF901EC53E0
:1034A000FA4FFC8FEB8FB9016C5B794F7E8F6D8F7C
:1034B000FC01EC53F94FF8A3EF8F342E272C03C1F6
:1034C000832D90E0FC01E559F84F208144245524D8
:1034D000422F50E0588F4F8BBC016159784F7A8F43
:1034E000698FB62CB40C8F89988D042C02C09595E9
:1034F00087950A94E2F7CB2CDD2480FF51C046016A
:10350000880C991C880C991CF401EC5BF94F8081A4
:103510009181A281B381E816F9060A071B0708F416
:10352000C7C08B2D60E00E94242BC6010196E9895B
:10353000FA89E817F907E1F0B092BC05F601EC53FF
:10354000F94F80818093BD05F401EC53FA4F8081DF
:1035500091819701281B390B3093BF052093BE053D
:10356000E092C005F092C1050093C2051093C30517
:10357000C601880F991F880F991FFC01EC53FA4F61
:1035800010821182128213828C5B994FFC0110828F
:10359000118212821382F601EC53F94F108288C017
:1035A000B601660F771F660F771FE4EC8E2EE5E0FD
:1035B0009E2E860E971EF401208131814281538117
:1035C000E216F3060407150708F472C09B012C5B92
:1035D000394FF90180819181A281B381E816F90602
:1035E0000A071B0708F064C08B2D61E02AA339A3EA
:1035F0000E94242B2AA139A1222009F459C0C60116
:10360000019649895A894817590709F451C0E98D2B
:10361000FA8D808190E0042C02C0959587950A94DC
:10362000E2F780FF45C0F889FF2309F441C080918B
:10363000670784FD3DC080911B02F401808091806A
:10364000A280B380880E911CA11CB11CEB8DFC8D57
:1036500080829182A282B3828091200290E0A0E0D9
:10366000B0E0CC97A109B109F901208131814281F3
:103670005381820F931FA41FB51FED8DFE8D808394
:103680009183A283B383F601EC53F94F2081EF8D30
:10369000F8A12083E814F9040A051B0548F0E81690
:1036A000F9060A071B0720F48B8961E00E94242B8E
:1036B0000894411C511CF8E04F16510409F011CF39
:1036C000339428E0620E80916907381608F4F8CE2A
:1036D000722C0E944F2B30916A07E4E4F6E020E060
:1036E00010C081919191A191B1910197A109B10966
:1036F0008E3F4FEF94074FEFA4074FEFB40720F032
:103700002F5F231770F35BC00E944F2B772009F4C3
:103710003EC08091670784FD03C058895523B9F5E1
:10372000A0916A0760E0472D50E028C0262F30E0C6
:10373000C90101964817590701F173E0369527959D
:103740007A95E1F7762F7770F901E559F84F808186
:1037500090E0072E02C0959587950A94E2F780FFC6
:103760000CC02159384FF901808190E002C0959535
:1037700087957A95E2F780FD05C06F5F6A17B0F212
:1037800060E001C061E0872D81500E94242BC801B8
:10379000B70123E030E040E050E00E94073EFB012B
:1037A000EE59FD4F81E060810E940A2EC801B701E9
:1037B0000E94E70AC801B7010E9417180DC00E94B5
:1037C000462B80916707877F80936707F0910C02F3
:1037D000F88B7090160298CFA2960FB6F894DEBFC1
:1037E0000FBECDBFCF91DF911F910F91FF90EF9052
:1037F000DF90CF90BF90AF909F908F907F906F9011
:103800005F904F903F902F9008958CE592E09093B9
:10381000A8058093A7050895CF93DF93E4ECF5E026
:10382000C4E4D6E0A4ECB6E0119211921192119288
:1038300019921992199219921D9286E0E434F807B0
:1038400099F7DF91CF91089584E192E00E94ED3ED7
:103850008093BB0508950E940C1C0E94241C1092AA
:10386000BC051092BD051092BF051092BE051092C6
:10387000C0051092C1051092C2051092C3050895AB
:1038800084E192E06091BB050E94FF3E0895109292
:10389000BB050E94401C0895282FCB013091BB0529
:1038A000231750F46FE0269FB00111246A5E7D4F0C
:1038B0004FE050E00E94DD3E08952091BB0520328C
:1038C00088F46FE0269FB00111246A5E7D4F4FE0BF
:1038D00050E00E94F53E8091BB058F5F8093BB0551
:1038E0000E94401C0895282FCB013091BB0523175F
:1038F00050F46FE0269FB00111246A5E7D4F4FE0C7
:1039000050E00E94F53E0895EF92FF920F931F93AF
:10391000DF93CF93CDB7DEB760970FB6F894DEBFD5
:103920000FBECDBF9091BB058917A8F5992399F1DA
:1039300090E001968C0124E0000F111F2A95E1F719
:10394000081B190B0A5E1D4F2FE07E010894E11C35
:10395000F11C12C0C701B8014FE050E0288B0E9453
:10396000DD3EB8016F507040C7014FE050E00E944B
:10397000F53E015F1F4F28893091BB05329FC00182
:1039800011248A5E9D4F0817190720F33150309398
:10399000BB050E94401C60960FB6F894DEBF0FBEB8
:1039A000CDBFCF91DF911F910F91FF90EF900895C0
:1039B0006F927F928F929F92AF92BF92CF92DF923F
:1039C000EF92FF920F931F93DF93CF930F92CDB798
:1039D000DEB73C017A018B01CB01BA010E9443356D
:1039E0004C01C801B7010E943D355C01D3011E9610
:1039F0008C911E97882309F48EC0CC90C7FE23C0FB
:103A00001196DC90BD2DB230F0F0C801B70120E86E
:103A100031E541E050E00E94073E79018A012D2DF9
:103A200030E040E050E0C801B7010E94073EEFE7F8
:103A3000CE22DD24EE24FF246C157D058E059F0526
:103A400009F069C036C0C801B7010E943135D30101
:103A50002C9130E090E0059667E070E00E94F43D24
:103A600002C0359527958A95E2F720FF54C0C8011A
:103A7000B7010E943735282FF301808187FF19C0D5
:103A80008181882319F420FF14C045C0813089F456
:103A90002F3109F440C02D3109F04EC0C801B701E3
:103AA00029830E942B3529818230910509F044C079
:103AB00032C08CE390E0889EF001899EF00D989EC4
:103AC000F00D1124EA0DFB1DD30112968D919C91EE
:103AD0001397E817F907F8F014962D913C91159774
:103AE0002E173F07C0F016962D913C911797211580
:103AF000310589F0E81BF90BCF01B9010E94E03DC7
:103B0000629FA001639F500D729F500D112481E0B0
:103B10004E175F0709F080E00F90CF91DF911F9162
:103B20000F91FF90EF90DF90CF90BF90AF909F905C
:103B30008F907F906F90089520FDBBCFECCF9F9228
:103B4000AF92BF92CF92DF92EF92FF920F931F93AB
:103B5000CF93DF93EC01988019810E945636A12EF5
:103B6000BB24CC24DD24292D2F77E22EFF24E10E67
:103B7000F11C0027F7FC0095102F20E831E541E00B
:103B800050E00E94073ECA01B901A60195010E94BA
:103B9000073EE61AF70A080B190BC801B701A60180
:103BA00095010E94073E892D8078862B8883DF91BE
:103BB000CF911F910F91FF90EF90DF90CF90BF902A
:103BC000AF909F900895CF92DF92EF92FF920F9364
:103BD0001F93CF93DF93EC01D880C9800E945636A3
:103BE00020E831E541E050E00E94073E79018A017A
:103BF0008D2D8F77E80EF11C011D111D2C2D30E04D
:103C000040E050E0C801B7010E94073E8D2D80784A
:103C1000862B8883DF91CF911F910F91FF90EF90BA
:103C2000DF90CF9008952091050730E08091040740
:103C3000281B3109C9010895809104079091050757
:103C4000891750F4E82FF0E0EC51F94F208130E073
:103C50008F5F8093040702C02FEF3FEFC9010895E3
:103C6000E091040780910507E81730F4F0E0EC518B
:103C7000F94F208130E002C02FEF3FEFC9010895D6
:103C80000895CF92DF92EF92FF920F931F93CF93FD
:103C9000DF936C01CB017A01209129072223A9F03F
:103CA000062F192FC0E0D0E00CC0D8016D918D0116
:103CB000D601ED91FC910190F081E02DC6010995AE
:103CC0002196CE15DF0588F303C0642F0E94553975
:103CD000DF91CF911F910F91FF90EF90DF90CF90E8
:103CE0000895DF93CF930F92CDB7DEB769838091AC
:103CF0002907882389F080912807803290F48091E9
:103D00002707E82FF0E0E95FF84F60838F5F80932B
:103D100027078093280705C0CE01019661E00E9425
:103D200055390F90CF91DF910895109204071092AA
:103D3000050710922707109228070E94C638089599
:103D4000862F413208F040E264EE76E00E94DF38D0
:103D5000109204078093050708950E94A01E0895FD
:103D600081E080932907609306071092270710923D
:103D7000280708950E94B01E08958091060767E005
:103D800077E04091280721E00E941539109227071B
:103D90001092280710922907089589E692E09093DF
:103DA0002B0780932A070895CF93DF93CAE2D7E0C9
:103DB000CE0168E670E00E94BA1ECE0160E00E946B
:103DC000711ECE010E94BD1EDF91CF9108956AE061
:103DD0000E94D43D8295807F890F08950F931F9391
:103DE000CF93DF938C01CAE2D7E0CE0168E670E0A2
:103DF0000E94BA1ECE0160E00E94711EF80180810F
:103E00000E94E71E682FCE010E94711EF801818179
:103E10000E94E71E682FCE010E94711EF801828168
:103E20000E94E71E682FCE010E94711EF801838157
:103E30000E94E71E682FCE010E94711EF801848146
:103E40000E94E71E682FCE010E94711EF801858135
:103E50000E94E71E682FCE010E94711EF801868124
:103E60008E510E94E71E682FCE010E94711ECE0166
:103E70000E94BD1EDF91CF911F910F9108950F9366
:103E80001F93DF93CF93CDB7DEB727970FB6F89484
:103E9000DEBF0FBECDBF8E010F5F1F4FA8010E9476
:103EA0002234898180688983C8010E94EE1E89813D
:103EB0008F778983C8010E94EE1E27960FB6F8946B
:103EC000DEBF0FBECDBFCF91DF911F910F9108953F
:103ED000982F92959F70990F292F220F220F290F4B
:103EE0008F70820F08950F931F93CF93DF938C01F0
:103EF000CAE2D7E0CE0168E670E00E94BA1ECE01A9
:103F000060E00E94711ECE010E94BD1ECE0168E6D7
:103F100070E047E050E00E94AD1ECE010E941C1EE2
:103F20008F770E94681FF8018083CE010E941C1EBB
:103F30000E94681FF8018183CE010E941C1E8F73AE
:103F40000E94681FF8018283CE010E941C1E0E94FD
:103F5000681FF8018383CE010E941C1E0E94681F07
:103F6000F8018483CE010E941C1E0E94681FF80184
:103F70008583CE010E941C1E0E94681F825EF8018C
:103F80008683DF91CF911F910F9108950F931F9317
:103F9000DF93CF93CDB7DEB727970FB6F894DEBF88
:103FA0000FBECDBF8E010F5F1F4FC8010E94731F50
:103FB000C8010E94493527960FB6F894DEBF0FBEA0
:103FC000CDBFCF91DF911F910F9108958AE297E0C5
:103FD0000E94951E0895E0913907F0913A07819368
:103FE000F0933A07E093390708951F93CF93DF9337
:103FF000182FEB0104C089910E94EB1F115011236F
:10400000D1F7DF91CF911F9108958B32910508F47C
:1040100053C08091D902833409F04EC08091E002F0
:10402000823009F049C02091E4023091E5024091CC
:10403000E6025091E70280912D0790912E07A09102
:104040002F07B0913007281739074A075B07A1F5FA
:104050009091C60280E02091C702820F911D8C5082
:104060009140E0EDF3E01AC08281853029F086307E
:1040700069F0823009F51EC0E0912C07E350E4306E
:10408000D8F4F0E0ED57FD4F8081089581E0089568
:10409000218130E02F5F3F4FE20FF31F40814F3F00
:1040A00059F09F01205D33402817390738F4453314
:1040B00079F7DACF82E0089580E0089580E00895EE
:1040C000FF920F931F93CF93DF93F82E062F0E943A
:1040D0009323882309F4B1C0C6EBD2E08AE191E0D2
:1040E000FE019C01119221503040E1F784E490E000
:1040F0006BEB77E043E450E00E942527CE01069663
:1041000065EB77E00E943B38CE016DE772E00E94DC
:104110003B3882E88093C70281E18093CD0200237F
:1041200029F0CE014E966DE772E004C0CE014E96A6
:1041300067EC77E00E943038E0EEF2E081E08093B7
:10414000E002818386E08283138280912D07909123
:104150002E07A0912F07B091300784839583A68303
:10416000B78311861086002319F080E890E002C022
:1041700080E090E0938782878CEF92E065EB77E0B8
:104180000E943B388CEC93E090933A078093390778
:1041900084E064EB71E00E94F51F85E30E94EB1F51
:1041A00081E00E94EB1F8F2D0E94EB1F8DE30E9488
:1041B000EB1F87E00E94EB1F81E00E94EB1F86E06F
:1041C00065EB77E00E94F51F8CE00E94EB1F0EE983
:1041D00011E0E80109900020E9F72197C01BD10BFD
:1041E0008C2F0E94EB1F8C2FB8010E94F51F3F2DD2
:1041F0003330B1F482E30E94EB1F84E00E94EB1F96
:1042000084E06BEB77E00E94F51F86E30E94EB1FD2
:1042100084E00E94EB1F84E067EC77E00E94F51FCA
:1042200086E06EEA71E00E94F51F80913907909157
:104230003A07805E92400E946527DF91CF911F91DF
:104240000F91FF9008957F928F929F92AF92BF92AD
:10425000CF92DF92EF92FF920F931F93CF93DF9352
:104260000E9445240E94073C4B015C0180E29EE4D1
:10427000A0E0B0E0880E991EAA1EBB1EDD24D394D8
:1042800004E0C02E12E0712EF9C080912C0781301D
:1042900061F00E94E123EC01009709F4EFC00E9455
:1042A000AF27009709F411C1E9C0C0E0D0E08091C8
:1042B0002C07833009F4C1C0843030F4813071F0B0
:1042C000823009F0D9C042C0853009F4BEC08530C3
:1042D00008F4D4C0863009F0CFC0B7C08BEB97E0AC
:1042E00067E772E00E94303887EC97E067E772E09A
:1042F0000E9430380E94073C7B018C0160932D079F
:1043000070932E0780932F07909330070E94073CED
:104310008701FF24EE24E60EF71E081F191FE09206
:104320002D07F0922E0700932F071093300781E09E
:1043300061E00E94602070922C0710923107109269
:104340003207109233071092340798C0CE010E94B2
:104350000520823009F090C08BEB97E060EF72E0AF
:104360000E943038E0EDF3E08E010A541D4FDF016A
:104370001196E180ED01219680818630A1F0873091
:1043800030F4813051F0833009F04AC009C08333E2
:1043900069F0863309F044C03EC08FEB97E03DC022
:1043A00083EC97E03AC08BEC97E037C02B811196F5
:1043B0006C91119770E080E090E0962F8827772726
:1043C0006627620F711D811D911D298130E040E03B
:1043D00050E0A90133272227620F731F841F951F06
:1043E0002A8130E040E050E0542F432F322F222723
:1043F000620F731F841F951F28EE33E040E050E0EA
:104400000E94B53D60933507709336078093370758
:104410009093380705C087EC97E0BE010E943038C2
:10442000FE01EE0DF11DE017F10708F4A0CF83E0C7
:1044300060E00E94602083E01CC0CE010E94052045
:104440008330D1F4C0922C0707C0CE010E94052012
:10445000843069F480932C070E94073C60933107F5
:1044600070933207809333079093340707C08130ED
:1044700029F480932C0702C0D0922C0780912C073E
:10448000843041F10E94073C681579058A059B0537
:1044900008F50E949323882389F3F7CE8091C30700
:1044A000882321F083EC97E00E948A2781E0DF9146
:1044B000CF911F910F91FF90EF90DF90CF90BF9021
:1044C000AF909F908F907F9008958091CD02813121
:1044D000A9F6EDCE0E9409258091BB078823F1F64D
:1044E000E6CFBC0110929E018EE991E04FE050E0D2
:1044F0000E94713E81E080932C070E942321089541
:10450000F89425B181E090E0A0E0B0E000903D0794
:1045100004C0880F991FAA1FBB1F0A94D2F7809569
:10452000822385B9089525B181E090E0A0E0B0E054
:1045300000903D0704C0880F991FAA1FBB1F0A9453
:10454000D2F7282B25B9789408958EBD0DB407FEB7
:10455000FDCF08951F93DF93CF9300D0CDB7DEB783
:10456000182F4A8369830E9480226981862F8F7168
:10457000812B0E94A5224A81842F0E94A5220E949D
:1045800093220F900F90CF91DF911F9108950F9379
:104590001F93CF93DF93EC018B010E9480228AE36B
:1045A0000E94A52208C080E00E94A5228EB5F801D5
:1045B00081938F0121972097B1F70E949322DF9179
:1045C000CF911F910F9108950F931F93CF93DF9376
:1045D000EC018B010E9480228AE70E94A52206C07E
:1045E000F80181918F010E94A52221972097C1F7A0
:1045F0000E949322DF91CF911F910F9108951F93F5
:10460000182F282F30E02076307060913E0770E040
:104610002617370799F080EA6FE143E00E94AA224B
:10462000107610933E07412F50E085E05595479551
:104630008A95E1F780E86FE10E94AA221F91089510
:104640001F93DF93CF930F92CDB7DEB7182F6983F7
:104650000E94FF2280E4612F49810E94AA220F90CC
:10466000CF91DF911F9108951F93DF93CF930F9206
:10467000CDB7DEB7182F79830E942023812F8F5F5B
:104680007981672F0E9420230F90CF91DF911F9196
:1046900008951F93DF93CF930F92CDB7DEB7182FF6
:1046A0000E948022812F8F710E94A52280E00E94AB
:1046B000A52217FF03C080E00E94A5228EB5898342
:1046C0000E94932289810F90CF91DF911F910895CD
:1046D0001F93182F0E94FF22812F0E9449231F91B0
:1046E00008958AE061E00E940A3B8BE061E00E944D
:1046F0000A3B8DE061E00E940A3B8CE060E00E9492
:104700000A3B8BE061E00E942E3B8BE060E00E9460
:104710002E3B8DE060E00E942E3B80E58CBD8DB588
:1047200081608DBD089584ED61E10E94202382EDBA
:1047300061E00E9420238AEE0E94682380FDFBCF67
:1047400082ED60E00E94202389ED0E94682391E0C1
:1047500082FF90E0892F0895CF93DF93EC010FC083
:104760008CE10E94682381FF0AC080E86FE140E885
:104770000E94AA2280EA6FE140E80E94AA228FE10B
:104780000E94492383FDECCF82E060E07CE00E9440
:104790003423BE016050744F86E00E9434238AE7C0
:1047A00060E040E00E94AA22CE0166EB72E00E9427
:1047B000E42280E86FE148E00E94AA22DF91CF91D5
:1047C00008950F931F93DF93CF9300D000D000D0B4
:1047D000CDB7DEB789E30E946823882309F447C078
:1047E00060913F077091400780E00E94342386E08B
:1047F00090E0BE016F5F7F4F0E94C72289819A813E
:104800009093400780933F078B819C8100913B07E9
:1048100010913C072D8127FF0DC0049701501040D7
:104820008017910708F48C01C80166EB72E00E94C2
:10483000C72202C000E010E0F801EA54FD4F1082E8
:1048400060913F07709140078CE06130780724F059
:104850008CE06FEF7BE003C0615070408CE00E9401
:10486000342380E86EE140E40E94AA2202C000E006
:1048700010E0C80126960FB6F894DEBF0FBECDBF7C
:10488000CF91DF911F910F91089588E361EB0E9412
:10489000202308950F931F93DF93CF930F92CDB7EB
:1048A000DEB78B0190933C0780933B070CB406FC6A
:1048B00004C049830E9471234981485040933D07B9
:1048C00024B181E090E0A0E0B0E004C0880F991F1F
:1048D000AA1FBB1F4A95D2F7282B24B90E94932206
:1048E0008FEF60E04FEF0E94AA2262E070E080E06C
:1048F00090E00E943B3C8DE10E9449238823D9F33C
:104900001092400710923F0788E060E070E00E943C
:1049100034238CE060E070E00E9434238AE06FEF83
:104920007BE00E94342384E060E07CE00E9434233A
:1049300086E06FEF71E10E9434230E94452488E2F3
:104940006FE370E30E94342380E369EF77EF0E9406
:10495000342380EC6DE00E94202381EC60E00E9413
:10496000202380E862EC42E30E94AA2286EC62E106
:104970007CE00E94342384EC62E10E9420238AECD4
:104980006CED75E00E94342384EEF80160810E9492
:10499000202385EEF80161810E94202382EEF80138
:1049A00062810E94202383EEF80163810E9420230C
:1049B00080EEF80164810E94202381EEF801658178
:1049C0000E94202384ED60E10E94202386ED60E0B8
:1049D00071E00E9434238AEE0E94682380FDFBCFA1
:1049E0008FE10E94FF2280E86BE140EC0E94AA2246
:1049F00080E86FE144E00E94AA2282E70E946823D7
:104A0000863008F08F5F0F90CF91DF911F910F914B
:104A1000089588E360EB0E9420230895CF92DF92EF
:104A2000EF92FF920F931F93CF93DF93FA0170E001
:104A30006A547D4F213021F49A01275F3F4F05C012
:104A4000223031F49A012250304040E050E003C05F
:104A500020E030E0A901DB01EF0110C0DC90CC24A4
:104A60001196EC901197FF24EC28FD2800E010E04F
:104A70002E0D3F1D401F511F12962297C230D105A7
:104A800068F7DF01AE7FA60FB71FE0FF0FC0EC9005
:104A9000FF2400E010E0102F0F2DFE2CEE2402C0AA
:104AA00040E050E02E0D3F1D401F511F7A010027AE
:104AB0001127E114F1040105110591F720953095B6
:104AC000E82FF0E0EA54FD4F30832183DF91CF914E
:104AD0001F910F91FF90EF90DF90CF90089510926B
:104AE000CE021092CF0280E48093CA021092CB02D1
:104AF0008093CC0288E16EE044E150E020E00E9427
:104B00000E2508952091DA023091D8023093DA020E
:104B10002093D8022091DB023091D9023093DB023E
:104B20002093D902E0EEF2E02291820F911D2481C0
:104B30008483662311F0208301C0108222E0EC3DC3
:104B4000F20719F0892F9927EFCF1092E8021092FF
:104B5000E90280E58093E40208959091C60280E026
:104B60002091C70230E0282B392B8091E40290E09D
:104B7000F4E095958795FA95E1F7880F991F880FCE
:104B8000991F281B390B2451304037FF02C020E009
:104B900030E0C9010895CF93DF93BC01C6EBD2E0AA
:104BA000CE010E943B38CE01069665EB77E00E946D
:104BB0003B38DF91CF9108950F931F93CF93DF93ED
:104BC0008B010E94CB25C4EDD2E0CE01B8010E943A
:104BD0003038CE0104976BEB77E00E943038DF91DC
:104BE000CF911F910F9108950F931F93CF93DF9350
:104BF0000CEB12E0C8010E94CB25E8016496C801C5
:104C00004896BE010E943038CE016BEB77E00E94DF
:104C100030380E946F25DF91CF911F910F91089539
:104C2000CF93DF93EC0188969093C6028093C702DE
:104C30000E946F251092E8021092E902AE01445ED4
:104C40005F4F82E36AE122E00E940E25CE01C69604
:104C50000E94AC23DF91CF910895262F20612093ED
:104C6000E502643021F0009711F481E090E061E00A
:104C70000E9482251092C60288E28093C7020E9499
:104C8000F42584E08093E6021092E70282E36AE171
:104C90004CE150E022E00E940E2586E390E00E9465
:104CA000AC230895CF93DF93EC0180914C07909152
:104CB0004D0760E00E942D2689E18093E502CE0138
:104CC0000E941026DF91CF9108950F931F93CF93E9
:104CD000DF93BC018EE497E00E94DC25C2ECD2E0B9
:104CE00018E01093C2021092C302CE01029661EE48
:104CF00078E049E050E00E944D3E84E58093C70291
:104D000001E00093CD020E946F251093D80210920B
:104D1000D9021092DA021092DB0285E08093DC0265
:104D20008091BE078093DD021092DE020093DF02C5
:104D3000CE014E9662E470E048E350E00E94633E8C
:104D400084E262E240E450E020E00E940E2582E628
:104D500090E00E94AC23DF91CF911F910F910895B5
:104D60001F93CF93DF939C01162F8EE497E0B90138
:104D70000E94DC25C2ECD2E088E08093C20210924F
:104D8000C302CE01029661EE78E049E050E00E9455
:104D90004D3E8CE48093C70281E18093CD020E9456
:104DA0006F251092DA028BE78093DB028AE0809312
:104DB000D8021093D9021092DC0288E38093DD02BE
:104DC0001092DE021092DF02CE014E9620E3FC012B
:104DD00011922A95E9F76AEB79E04AE050E00E94E7
:104DE0004D3E88E26AE140E450E021E00E940E2559
:104DF0008AE590E00E94AC23DF91CF911F91089546
:104E0000662321F02091DB022617D9F42091DC02E1
:104E10002223B9F42091DD02283399F42091D9029C
:104E20002B3789F4FC018091080383838091090367
:104E3000828380910A03818380910B03808381E0C8
:104E4000089580E0089580E00895EF92FF920F9317
:104E50001F93CF93DF93182F092FEB01F42EE52E2C
:104E60008EE497E00E94DC258881807F803E31F4CB
:104E700086EB92E067E872E00E943B3888E080931E
:104E8000C2021092C30284EC92E061EE78E049E045
:104E900050E00E944D3E1092C60281E18093CD0207
:104EA000E092DA02F092DB020093D8021093D9026A
:104EB0001092DC021092DE021092DF02DF91CF919D
:104EC0001F910F91FF90EF9008951F93CF93DF9361
:104ED000EC014C969093C602CE011C2F845E809309
:104EE000C7020E946F25CE0108969093DC02185FDE
:104EF0001093DD02AE01405F5F4F88E26AE121E07E
:104F00000E940E25CE018A960E94AC23DF91CF919C
:104F10001F910895BC0181E08093410783EC97E0E5
:104F20000E9430380895BC018091CD02813099F4FF
:104F30008091D802882379F48091E002823469F468
:104F400080ED92E044E050E00E94563E9C0181E0FA
:104F50002115310519F080E0089580E00895DF9271
:104F6000EF92FF920F931F93CF93DF938C010097E3
:104F700009F0B5C0809141078570E9F18091B801D1
:104F80009091B9010097B9F50E949323882399F174
:104F900087E892E00E94CB2588E08093C20216E069
:104FA0001093C30284EC92E069ED78E048E050E0B1
:104FB0000E944D3EC6EDD2E0DE011D921A95E9F742
:104FC000CE010A9765EB77E00E943B38CE0106964A
:104FD00063EC77E00E943038CE0104976BEB77E00A
:104FE0000E943038809141078860809341078AE2AF
:104FF00090E00E94AC238091B8019091B901019694
:105000009093B9018093B80180914207813009F0F3
:1050100024C28091410781FF20C212E01093420711
:105020008091BA018F5F8093BA018F71009143071D
:105030000295000F007E082BD0904407F0904507A2
:105040008EE497E06FEC77E00E94DC25E8E0EE2E3E
:10505000E092C2021092C30284EC92E061EE78E02A
:1050600049E050E00E944D3E8CE28093C70286E00A
:105070008093CD020E946F25D092DA02F092DB027B
:105080008BE08093D8020093D902ECEDF2E0DF01CF
:105090001D92EA94E9F78091BB018093DE028D5F57
:1050A0008093BB0180E68093E4021093E50283E0E5
:1050B0008093E6021092E7021092E8021092E90251
:1050C0001092EA021092EB021093EC0284E08093BB
:1050D000ED021093EE0286E28093EF028DC18932D9
:1050E000910508F4BAC1E090C202BE2DB83009F0B3
:1050F000BFC18091C302863009F0BAC18CED92E045
:105100006BEB77E044E050E00E94563E009709F0D8
:10511000AFC18091CB02813029F58CEB92E00E94E7
:10512000CB251092CA0282E08093CB0286ED92E0FA
:105130006CEC72E00E943B388CEC92E065EB77E01F
:105140000E943B388CED92E062ED72E00E943038B4
:1051500082ED92E06BEB77E00E9430388AE290E0DB
:105160000E94AC238091410783FF77C11091CB024D
:10517000123009F072C182ED92E063EC77E044E016
:1051800050E00E94563E009709F067C18EE497E018
:105190006CEC72E00E943B38109341075EC1EE2D2B
:1051A000E83009F05AC18091C302882309F055C143
:1051B0008091C402853409F050C184ED92E06BEB1C
:1051C00077E044E050E00E94563E009709F045C168
:1051D0008091CD028130F9F49091D8029830D9F4C1
:1051E000E0914607F0914707309719F080ED92E083
:1051F00009950E94F4251092D8029091DA02983F06
:1052000028F08091DB028F5F8093DB02985F9093A0
:10521000DA02C801FAC00633110518F4863009F025
:105220001CC12091DA022B3009F0A4C080ED92E07D
:105230006FEC77E044E050E00E94563E009709F0A2
:105240000CC1E090E502FF24E2FE13C0E0914807A4
:10525000F0914907309709F484C08091DB02829570
:105260008695877063E040E050E020E030E00995EB
:1052700078C00E94AD25EC0180914207823079F51B
:10528000C7018271907082319105E9F480E090E06D
:1052900060E00E942D2688E18093E502E0914A07B4
:1052A000F0914B07309739F08091D902829586951D
:1052B0008770099502C080E090E023E020934207C8
:1052C0000E941026CAC081E080934207E4FC03C01C
:1052D000CE01019602C080E090E064E0BCC0833063
:1052E00091F5209781F1E0914807F09149073097B7
:1052F00051F14091E40250E074E0559547957A955C
:10530000E1F7440F551F440F551FC80108974E5D24
:105310005F4F8417950708F4AC01CE01840F951FE9
:105320000817190720F49801241B350B01C09E01B2
:105330008091DB0282958695877060E009958823CD
:1053400011F0CE010BC080914207853009F485C071
:105350008091E50280FF09C0CE01019669E00E94BC
:105360002D2685E08093420778C0209709F477C006
:10537000CE0170C04091550230E08091560290E01D
:105380002817390709F069C08091DB02841709F0FA
:1053900064C0F090E502F1FE3BC01092C6028CE2C0
:1053A0008093C7020E94F42582E18093E50281E0A8
:1053B00090E060E00E9482251092DC021092DD02F3
:1053C0008091BB018093DE021092DF028D5F80939B
:1053D000BB0182E08093EC0284E08093ED0285E0E3
:1053E0008093EE021092EF0290E69093E402809395
:1053F000E60288E78093E70282E36AE140E250E058
:1054000022E00E940E258AE390E00E94AC2325C092
:10541000F4FE23C00E94AD2590934D0780934C0766
:105420000097A1F08091E402C82FD0E054E0D59518
:10543000C7955A95E1F7CC0FDD1FCC0FDD1FA29663
:10544000085010400C171D0750F407C0F0FE05C0AF
:1054500080E090E060E00E942D26C0E0D0E0CE0128
:10546000DF91CF911F910F91FF90EF90DF90089502
:105470000A32110508F093CEF0CF0F931F93DF93FC
:10548000CF93CDB7DEB728970FB6F894DEBF0FBE27
:10549000CDBF9C018B0180ED92E0B90148E00E94F4
:1054A000E737882379F110935602009355028091D3
:1054B000CB01882329F084E391E00E94712223C06C
:1054C0008091D00189838091D5018A838091DA010E
:1054D0008B838091DF018C838091E4018D838091A7
:1054E000E9018E838091EE018F838091F30188879B
:1054F000CE010196BE016B5F7F4F40E050E00E94FD
:105500000F3801C080E028960FB6F894DEBF0FBEBA
:10551000CDBFCF91DF911F910F910895E091770753
:10552000F091780709950895EF92FF920F931F93DA
:10553000CF93DF939CE0899FC0011124FB01148667
:10554000EC01C05BDF4F8B012CE5E22EF12CE80E65
:10555000F91ECE010E94ED3EF80181938F01882350
:1055600021F02196CE15DF05A1F7DF91CF911F9194
:105570000F91FF90EF900895CF92DF92EF92FF92FC
:105580000F931F93CF93DF939CE0899FC001112459
:10559000FB011486EC01C05BDF4F7B013CE5C32EB1
:1055A000D12CC80ED91E8701CE01F70161917F0170
:1055B0000E94FF3EF8018081882321F02196CC15BE
:1055C000DD0589F7DF91CF911F910F91FF90EF904B
:1055D000DF90CF9008950F931F93CF93DF930FE643
:1055E00017E0C0E1D2E0F80161918F01CE010E9485
:1055F000FF3E2196F2E0C431DF07A9F7DF91CF919A
:105600001F910F9108950F931F93CF93DF930FE690
:1056100017E0C0E1D2E0CE010E94ED3EF801819397
:105620008F012196F2E0C431DF07A9F7DF91CF9116
:105630001F910F9108950E94CB3690E0059667E088
:1056400070E00E94F43D0895E82FE695E695E69512
:105650008770F0E0662361F0E559F84F21E030E013
:1056600002C0220F331F8A95E2F78081822B0CC083
:10567000E559F84F21E030E002C0220F331F8A9530
:10568000E2F72095808182238083089510926B0732
:1056900010926C0710926D0710926E070895EF92AA
:1056A000FF920F931F93CF93DF9387E060E00E94F8
:1056B0002E3BCEE6D7E080916707982F937091300C
:1056C00041F490912502992311F082FD02C0888156
:1056D00001C080E007E010E0E82EFF2486E060E0F3
:1056E0000E942E3BB701002E02C0759567950A9463
:1056F000E2F76170707085E00E942E3B86E061E009
:105700000E942E3B015010408FEF0F3F180731F7DA
:10571000219787E0CA36D80771F687E061E00E94DA
:105720002E3BDF91CF911F910F91FF90EF90089545
:105730001F9310E02AC084E597E00E94333384E58C
:1057400097E060E040E00E940533612F70E06F5FFA
:105750007F4F84E597E04AE050E00E949A3D0E9426
:10576000462B812F61E00E94242B0E944F2B6091D9
:10577000340270E080E090E028EE33E040E050E05A
:105780000E94B53D0E943B3C1F5F80916A0718173D
:1057900090F210E0FCCF0F931F93DF93CF93CDB720
:1057A000DEB728970FB6F894DEBF0FBECDBF87E0F7
:1057B00061E00E940A3B83E061E00E940A3B86E0D0
:1057C00061E00E940A3B85E061E00E940A3B87E0BD
:1057D00061E00E942E3B83E061E00E942E3B0E942C
:1057E000462B0E944F2B83E060E00E942E3B8FE00F
:1057F00060E00E940A3B8FE061E00E942E3B8AE25B
:1058000097E00E94951E809167078160817C80935C
:1058100067071092680781E08093690788E08093AA
:105820006A0710927307109274071092750710920E
:105830007607DE011196EDE8F2E001900D928150BD
:10584000E1F784E597E061E08E010F5F1F4FA8014B
:105850000E94B5321A821B8281E08C8384E597E036
:1058600060E0A8010E94B53284E597E060E142E083
:1058700020E00E943B330E94D41E882329F48091AB
:10588000670780628093670728960FB6F894DEBF9B
:105890000FBECDBFCF91DF911F910F9108950F9350
:1058A0001F93CF93DF930CEB11E0C0E0D0E0CE016B
:1058B0000E94ED3EF801808321960B5F1F4FCB3194
:1058C000D105A9F7809107028F5F80936907880F40
:1058D000880F880F80936A07DF91CF911F910F91F6
:1058E00008950F931F93CF93DF930CEB11E0C0E06B
:1058F000D0E0CE01F80160810E94FF3E21960B5F4F
:105900001F4FCB31D105A9F7809107028F5F80939C
:105910006907880F880F880F80936A07DF91CF91FE
:105920001F910F91089580916707816080936707A9
:105930000E944F2B0E94712C0895809167078E7FE3
:10594000809367070E944F2B0E94712C0895DF926D
:10595000EF92FF920F931F93D82E882309F10E9494
:1059600056367B018C016D2D70E080E090E020E1E7
:105970003EE040E050E00E94B53DE60EF71E081FF5
:10598000191FE0927307F092740700937507109344
:105990007607809167078260809367070E944F2B8C
:1059A0001F910F91FF90EF90DF900895809167070E
:1059B0008D7F809367070E944F2B08958FE00E9490
:1059C000683B20912A0230E041E08217930709F4F6
:1059D00040E0440F440F809167078B7F842B8093B6
:1059E00067070895CF93DF93EC0106C084E597E045
:1059F00040E050E00E94A43DFE01219664916623A0
:105A0000A9F7DF91CF910895EF92FF920F931F9323
:105A1000CF93DF93182F092F462F84E597E060E09E
:105A20000E940533C801E92EE7017E01F82EE70147
:105A300006C084E597E040E050E00E94A43D7E016E
:105A4000E11A8E2DFE0121966491662391F7992724
:105A500087FD9095C0E1D0E0C81BD90B05C086E654
:105A60009BE00E94F22C2197D7FFF9CFDF91CF91D5
:105A70001F910F91FF90EF9008950F931F93CF9375
:105A8000DF93C4E5D7E06AE070E00E94F43D8C014A
:105A9000CE014AE050E00E949A3DCE01B8014AE0B2
:105AA00050E00E949A3DDF91CF911F910F91089590
:105AB000EF92FF920F931F93DF93CF930F92CDB787
:105AC000DEB789830E9456367B018C0184E597E01E
:105AD00060E049810E940533C801B7010E94433547
