:100000000C941B060C9443060C9443060C94430674
:100010000C9443060C9443060C9443060C9443063C
:100020000C9443060C9443060C9443060C9443062C
:100030000C9443060C9443060C9443060C9443061C
:100040000C9413360C9443060C94E2380C9443063B
:100050000C9443060C9443060C9443060C944306FC
:100060000C9408340C944306687474703A2F2F7201
:10007000617973686F6262792E6E65742F73637233
:10008000697074732F6A6176612F737663312E37CE
:1000900000485454502F312E3020323030204F4BF6
:1000A0000D0A436F6E74656E742D547970653A2035
:1000B000746578742F68746D6C0D0A507261676D89
:1000C000613A206E6F2D63616368650D0A0D0A0049
:1000D000485454502F312E3020323030204F4B0DA9
:1000E0000A436F6E74656E742D547970653A2061A1
:1000F00070706C69636174696F6E2F782D6A6176B8
:10010000617363726970740D0A507261676D613A50
:10011000206E6F2D63616368650D0A0D0A003C6DEA
:10012000657461206E616D653D76696577706F728B
:100130007420636F6E74656E743D227769647468B1
:100140003D363430223E0D0A00485454502F312E93
:100150003020333031204D6F766564205065726DEC
:10016000616E656E746C790D0A4C6F636174696FB2
:100170006E3A20687474703A2F2F72617973686FC9
:100180006262792E6E65742F72617973686F626234
:10019000792E69636F0D0A0D0A436F6E74656E7474
:1001A0002D547970653A20746578742F68746D6C7D
:1001B0000D0A0D0A3C68313E333031204D6F7665B3
:1001C00064205065726D616E656E746C793C2F6849
:1001D000313E0A00485454502F312E3020343031F3
:1001E00020556E617574686F72697A65640D0A4393
:1001F0006F6E74656E742D547970653A20746578ED
:10020000742F68746D6C0D0A0D0A3C68313E3430F1
:100210003120556E617574686F72697A65643C2F20
:1002200068313E0024460024460024440024440053
:1002300024460024463C6D65746120687474702DFA
:1002400065717569763D22726566726573682220F4
:10025000636F6E74656E743D22303B2075726C3D29
:100260002F223E0024463C7363726970743E616CB9
:10027000657274282253746174696F6E20626974A8
:10028000732063616E206F6E6C79206265207365E8
:100290007420696E206D616E75616C206D6F646590
:1002A0002E22293C2F7363726970743E0A3C2F73AF
:1002B00063726970743E003C6D657461206874748B
:1002C000702D65717569763D227265667265736819
:1002D0002220636F6E74656E743D22303B20757210
:1002E0006C3D2F766F223E0024463C73637269702A
:1002F000743E616C65727428224F7074696F6E73FE
:100300002076616C7565732073617665642E222991
:100310003C2F7363726970743E0A003C6D657461B2
:1003200020687474702D65717569763D22726566FA
:10033000726573682220636F6E74656E743D22303F
:100340003B2075726C3D2F766F223E0024463C7335
:1003500063726970743E616C6572742822436F6EBB
:100360006669726D6174696F6E20646F6573206E6B
:100370006F74206D617463682122293C2F7363724E
:100380006970743E0A0024463C7363726970743E5F
:10039000616C65727428224E657720706173737783
:1003A0006F7264207365742E22293C2F7363726907
:1003B00070743E0A003C6D65746120687474702D21
:1003C00065717569763D2272656672657368222073
:1003D000636F6E74656E743D22303B2075726C3DA8
:1003E0002F766F223E0024463C7363726970743E20
:1003F000616C6572742822536F6D652076616C752F
:10040000657320617265206F7574206F6620626F5E
:10041000756E642E22293C2F7363726970743E0AD4
:100420000024463C6D65746120687474702D65719C
:100430007569763D22726566726573682220636F06
:100440006E74656E743D22303B2075726C3D2F22B8
:100450003E005265626F6F74696E672C2077616928
:100460007420666F72202444207365636F6E64731A
:100470002E2E2E0024463C6D6574612068747470C5
:100480002D65717569763D227265667265736822A5
:1004900020636F6E74656E743D2224443B20757238
:1004A0006C3D2F223E003C7363726970742073723E
:1004B000633D2224462F766965776F7074696F6E8D
:1004C000732E6A73223E3C2F7363726970743E0A06
:1004D000003C2F7363726970743E0A00766172206B
:1004E00079723D24442C6D6F3D24442C64793D2465
:1004F000442C68723D24442C6D696E3D24442C7359
:1005000065633D24443B00305D3B766172206E6F35
:100510007074733D24442C6C6F633D222453223B42
:1005200000222446222C24442C24442C24442C0035
:100530003C7363726970743E766172206F7074737D
:100540003D5B0024462446003C2F7363726970743F
:100550003E0A3C736372697074207372633D222497
:10056000462F686F6D652E6A73223E3C2F7363724F
:100570006970743E0A00766172206C72756E3D5B24
:1005800024442C24442C24442C244C5D3B0A005B42
:10059000302C302C305D5D3B0A76617220656E3DFB
:1005A00024442C72643D24442C72733D24442C6DED
:1005B0006D3D24442C726473743D244C2C6D617326
:1005C0003D24442C7572733D24442C6C6F633D2292
:1005D0002453223B005B24442C24442C24445D2CD3
:1005E00000305D3B7661722070733D5B0024442CCB
:1005F00000766172206E6272643D24442C736571D2
:100600003D24442C747A3D24442C73626974733DF8
:100610005B003C7363726970743E7661722076652C
:10062000723D24442C646576743D244C3B0A0024BE
:10063000462446003C2F7363726970743E0A3C6D19
:1006400065746120687474702D65717569763D22DA
:10065000726566726573682220636F6E74656E746E
:100660003D22303B2075726C3D2F7670223E00613A
:100670006C657274282250726F6772616D20244419
:10068000206D6F64696669656422293B00616C6551
:10069000727428224E65772070726F6772616D20C8
:1006A00061646465642E22293B0024463C736372B6
:1006B0006970743E003C7363726970742073726376
:1006C0003D2224462F706C6F7470726F672E6A73B0
:1006D000223E3C2F7363726970743E0A00244624E4
:1006E000463C7363726970743E7661722073657103
:1006F0003D24442C6D61733D24442C646576646113
:10070000793D24442C6465766D696E3D24442C64E7
:10071000643D24442C6D6D3D24442C79793D244462
:100720003B3C2F7363726970743E0A0024463C6D33
:1007300065746120687474702D65717569763D22E9
:10074000726566726573682220636F6E74656E747D
:100750003D22303B2075726C3D2F7670223E003C6E
:100760006D65746120687474702D65717569763D6E
:1007700022726566726573682220636F6E74656E9F
:10078000743D22303B2075726C3D2F7670223E0006
:1007900024463C7363726970743E616C65727428A0
:1007A0002250726F6772616D20696E646578206F88
:1007B0007574206F662072616E67652E22293C2F4A
:1007C0007363726970743E0A003C2F7363726970C0
:1007D000743E0A3C736372697074207372633D22C5
:1007E00024462F6D6F6470726F672E6A73223E3CD1
:1007F0002F7363726970743E0A005D3B002C2444C1
:10080000007661722070726F673D5B24442C244433
:100810002C24442C24442C24442C2444003C736376
:10082000726970743E766172206E626F6172647379
:100830003D24443B766172207069643D24443B0052
:1008400024462446003C736372697074207372639B
:100850003D2224462F7669657770726F672E6A7322
:10086000223E3C2F7363726970743E0A0024462452
:1008700046003C736372697074207372633D7064E8
:100880007324442E6A733E3C2F7363726970743E06
:100890000A003C2F7363726970743E0A003C7363F4
:1008A000726970743E766172206E70726F67733D0C
:1008B00024443B766172206E626F617264733D24E2
:1008C000443B7661722070643D5B5D3B00244600D2
:1008D0005D3B002C24440070645B24445D3D5B243C
:1008E000442C24442C24442C24442C24442C2444E0
:1008F00000000108000604000145000082000040DD
:100900000020504F535420244620485454502F3137
:100910002E310D0A486F73743A2024460D0A24467E
:1009200024534163636570743A202A2F2A0D0A43C9
:100930006F6E6E656374696F6E3A20636C6F73657A
:100940000D0A436F6E74656E742D4C656E67746826
:100950003A2024440D0A436F6E74656E742D5479E9
:1009600070653A206170706C69636174696F6E2F95
:10097000782D7777772D666F726D2D75726C656E39
:10098000636F6465640D0A0D0A24530047455420C3
:100990002446245320485454502F312E310D0A48F8
:1009A0006F73743A2024460D0A4163636570743A8C
:1009B00020746578742F68746D6C0D0A436F6E6EC9
:1009C000656374696F6E3A20636C6F73650D0A0D11
:1009D0000A00E30004FA000100000001001801FF12
:1009E000FFFFFFFFFFFFFF030801FF0101010146B9
:1009F00069726D77617265207665722E0054696D3B
:100A000065207A6F6E652028474D54293A0055734A
:100A10006520444843503A005374617469632E69F9
:100A200070313A005374617469632E6970323A0010
:100A30005374617469632E6970333A00537461743E
:100A400069632E6970343A00476174657761792E65
:100A50006970313A00476174657761792E69703247
:100A60003A00476174657761792E6970333A0047BF
:100A70006174657761792E6970343A004578742E17
:100A800020626F617264733A004D61737465722005
:100A900073746174696F6E3A0053657175656E7435
:100AA00069616C3A0053746174696F6E2064656C9F
:100AB00061793A00557365207261696E2073656EC5
:100AC000736F723A004E6F726D616C6C79206F704B
:100AD000656E3A00557365205254433A005265736F
:100AE000657420616C6C3F20000001020000000072
:100AF0000000000001010301030302024D6F6E00BC
:100B00005475650057656400546875004672690045
:100B10005361740053756E002020202020004E6F1A
:100B200000596573003A3030002020202020002D2D
:100B30005261696E2044656C61796564212D2000E5
:100B40002D2D2044697361626C656421202D2D2058
:100B50000042333A686F6C6420746F20736176656D
:100B60000042333A73656C2042312F42323A636857
:100B700067003D3D536574204F7074696F6E733D1F
:100B80003D0053656C662074657374696E672E2E24
:100B90002E00506C6561736520776169742E2E2E6E
:100BA00000526573657474696E6720454550524FF5
:100BB0004D000020746865206E6574776F726B2E2F
:100BC0002E2E00436F6E6E656374696E6720746FBE
:100BD0000000000000240027002A0000000000257B
:100BE0000028002B0000000000230026002900043C
:100BF00004040404040404020202020202030303C4
:100C000003030301020408102040800102040810BD
:100C1000200102040810200000000700020100006B
:100C200003040600000000000000000059183423EF
:100C3000112C34330A3911241FBECFEFD8E0DEBFA8
:100C4000CDBF12E0A0E0B1E0E0E4F5E702C005901E
:100C50000D92A835B107D9F718E0A8E5B2E001C0B8
:100C60001D92A239B107E1F71CE0C6E3DCE004C045
:100C70002297FE010E94BA39CC32D107C9F70E94EF
:100C800028370C949E3A0C940000FC01A481B58195
:100C90006D93B583A483089582E00E94A231282F2A
:100CA00030E086FF47C02F70307022303105D1F020
:100CB00024303105F9F021303105E1F587FF03C01B
:100CC0000E94CA2D089560919801709199018DE25A
:100CD00097E00E94313060ED77E080E090E00E9484
:100CE0009B36089587FF03C00E94D22D08950E946D
:100CF0007A30089587FF06C081E00E94A2310E94E9
:100D0000AC2C089520917A07822F8295869586953E
:100D1000837090E001966091C00170E06F5F7F4F3B
:100D20000E9483398295880F880F807C2F73282B2F
:100D300020937A070895EF92FF920F931F930E94DA
:100D4000362D0E9485180E94993260918C01709115
:100D50008D0186E891E00E940B2F90917A078823FD
:100D600011F0977F01C0986090937A0780E090E03F
:100D700060E070E040E050E021E030E001E010E0B1
:100D8000E2EBEE2EE7E0FE2E0E94392260E17EE0EB
:100D900080E090E00E9471228091C601882319F0C2
:100DA00081EF9BE202C08DE493E10E945A220E94EF
:100DB000CA2D80E00E946A2F1F910F91FF90EF9043
:100DC0000895EF92FF920F931F93CF93DF93082F15
:100DD00060E00E946D2D802F8F5F80937405C02F7F
:100DE000D0E0ACEFEA2EA5E0FA2EEC0EFD1EF701E6
:100DF000808180937505CC0FDD1F8E0104541A4F3E
:100E0000F8018081918190937705809376050E9407
:100E10008221609378057093790580937A05909389
:100E20007B05C458DA4F19821882F80111821082AA
:100E3000F70110820E94BB2C9091C00180E0E82F46
:100E4000F0E0E558F84F2081222341F48F5F981796
:100E5000B0F780917A078F7E80937A07DF91CF91E8
:100E60001F910F91FF90EF900895BF92CF92DF9264
:100E7000EF92FF920F931F93CF93DF93D82EEB0146
:100E8000082F10E0C62E7E01BF2CF801EE0FFF1FC9
:100E9000E458FA4FC083F1827801EE0CFF1CEE0C8F
:100EA000FF1C209761F4F701E45EF94F8FEF9FEF8D
:100EB000AFEFBFEF80839183A283B38312C00E9400
:100EC0008221F701E45EF94F9E01442737FD4095EA
:100ED000542F620F731F841F951F60837183828359
:100EE0009383F801EE0FFF1FE454FA4FC082B182E2
:100EF000F801E450FA4F8FEF80838D2D61E00E945E
:100F00006D2D80917A07806180937A07DF91CF9170
:100F10001F910F91FF90EF90DF90CF90BF900895B9
:100F20002F923F924F925F926F927F928F929F92F9
:100F3000AF92BF92CF92DF92EF92FF920F931F93E7
:100F4000DF93CF93CDB7DEB72F970FB6F894DEBF00
:100F50000FBECDBF782E082F10E0075F1F4F6E0128
:100F60000894C11CD11C57E6E52E55E0F52E47ED3F
:100F7000442E48E0542E3BE0832E912C8C0E9D1E77
:100F8000C701EF86692E20ED222E28E0322E6FC099
:100F9000C6010E94601A8DB79EB742970FB6F894AB
:100FA0009EBF0FBE8DBFEDB7FEB73196ADB7BEB7D2
:100FB0001296FC92EE92119753824282B582A482DD
:100FC0008981868317828A81808711868B819C81A3
:100FD000938782878D819E81958784878F8198856D
:100FE0009787868789859A85918B808B0E945F235E
:100FF000EDB7FEB772960FB6F894FEBF0FBEEDBF09
:10100000AA2421C000D000D000D0EDB7FEB73196A1
:10101000ADB7BEB71296FC92EE92119783ED98E0B1
:1010200093838283D401AA0DB11D8C918483158290
:101030000E945F23A394ADB7BEB716960FB6F8947F
:10104000BEBF0FBEADBF8091C0018A15D8F600D0DB
:1010500000D08F85EDB7FEB7818362823482238210
:101060000E945F2373940F900F900F900F90A72C06
:10107000BB240A151B056CF080917305781648F4A3
:10108000872DB6010E94D4188A81823008F080CF63
:1010900082CF2F960FB6F894DEBF0FBECDBFCF9193
:1010A000DF911F910F91FF90EF90DF90CF90BF9055
:1010B000AF909F908F907F906F905F904F903F90F8
:1010C0002F9008950F931F93DF93CF930F92CDB777
:1010D000DEB78C01060F111DC8010E94792CD801C2
:1010E0009C91990F892F880F880F890F805E00D0FF
:1010F00000D000D0EDB7FEB7319627E635E0ADB7AA
:10110000BEB712963C932E9311972DEC38E03383A3
:10111000228320ED30E03583248389830E945F237E
:10112000EDB7FEB736960FB6F894FEBF0FBEEDBF13
:1011300089810E94900781E00F90CF91DF911F91EC
:101140000F910895DF92EF92FF920F931F93CF9329
:10115000DF938DB79EB708970FB6F8949EBF0FBE6A
:101160008DBFEDB7FEB7319607E615E0ADB7BEB758
:1011700012961C930E9311978DE998E093838283C6
:1011800080917305848315828091C00190E001965F
:10119000978386830E945F23EDB7FEB738960FB61C
:1011A000F894FEBF0FBEEDBF80E00E94900700D014
:1011B00000D0ADB7BEB712961C930E93119782E97B
:1011C00098E014969C938E9313970E945F230F9040
:1011D0000F900F900F90809173058B3088F1FF2452
:1011E000F394CAE0D0E0D02EE12E02E718E01CC054
:1011F00000D000D000D0EDB7FEB73196ADB7BEB786
:101200001196DC9211971296EC9213830283358328
:1012100024830E945F23F394EDB7FEB736960FB692
:10122000F894FEBF0FBEEDBF2F2D30E08091730507
:1012300090E00197BE010E94833962177307C4F6DC
:10124000DF91CF911F910F91FF90EF90DF90089564
:10125000CF93DF938DB79EB708970FB6F8949EBFD4
:101260000FBE8DBFEDB7FEB73196C7E6D5E0ADB77F
:10127000BEB71296DC93CE9311978DE698E09383D8
:10128000828381E990E0958384838EE191E0978366
:1012900086830E945F238DB79EB708960FB6F89499
:1012A0009EBF0FBE8DBF0E94A20800D000D000D00C
:1012B000EDB7FEB73196ADB7BEB71296DC93CE93BD
:1012C000119785E498E09383828388E690E0958384
:1012D00084830E945F238DB79EB706960FB6F8945D
:1012E0009EBF0FBE8DBF81E0DF91CF910895BF9269
:1012F000CF92DF92EF92FF920F931F93DF93CF93E2
:10130000CDB7DEB72E970FB6F894DEBF0FBECDBFB8
:10131000062F10E00F5F1F4F080F191FC8010E9412
:10132000792CC80168E475E04EE120E031E00E94CC
:101330002D2C882309F405C188E495E00E94BE396C
:101340008C018FEF0F3F18070CF4FBC080917305E1
:1013500090E0081719070CF0F4C0ADB7BEB71897A6
:101360000FB6F894BEBF0FBEADBFEDB7FEB7319656
:1013700077E6E72E75E0F72E1296FC92EE92119723
:1013800080E498E09383828381E990E0958384836D
:101390008EE191E0978386830E945F23EDB7FEB7CD
:1013A0003196ADB7BEB71296FC92EE9211978DE1D1
:1013B00098E0938382838091C00190E001969583A9
:1013C0008483178306830E945F23EDB7FEB73896A8
:1013D0000FB6F894FEBF0FBEEDBFFFEF0F3F1F0724
:1013E00009F48DC0802F8E010F5F1F4FB8010E943E
:1013F000D4188A81823018F0C8010E94601A8DB713
:101400009EB740970FB6F8949EBF0FBE8DBFEDB745
:10141000FEB7319607E615E0ADB7BEB712961C933E
:101420000E93119781E098E093838283898184836E
:1014300015828A81868317828B819C819187808720
:101440008D819E81938782878F81988595878487F8
:1014500089859A85978786870E945F23EDB7FEB7B7
:1014600070960FB6F894FEBF0FBEEDBFDD24B02E10
:10147000C12E6DEFE62E67E0F62E8E01055F1F4F41
:1014800020C000D000D000D0EDB7FEB73196ADB788
:10149000BEB71196BC9211971296CC92F382E2825B
:1014A000800F911FDC018C91848315820E945F2341
:1014B000D394EDB7FEB736960FB6F894FEBF0FBEC5
:1014C000EDBF8D2D90E02091C00130E02817390745
:1014D000C4F600D000D087E695E0ADB7BEB712964F
:1014E0009C938E9311978AEF97E014969C938E931A
:1014F00013970E945F230F900F900F900F9000D0D2
:1015000000D000D0EDB7FEB7319687E695E0ADB7D5
:10151000BEB712969C938E93119789EC97E09383B4
:10152000828388E690E0958384830E945F23EDB7F1
:10153000FEB736960FB6F894FEBF0FBEEDBF81E042
:1015400001C080E02E960FB6F894DEBF0FBECDBF6F
:10155000CF91DF911F910F91FF90EF90DF90CF908F
:10156000BF900895CF93DF93C62FD0E02196C80F88
:10157000D91FCE010E94792CCE0168E475E04EE1BE
:1015800024E031E00E942D2C882309F467C088E410
:1015900095E00E941033882309F460C063C088E49A
:1015A00095E00E94BE392FEF8F3F920719F40E94F9
:1015B000A11832C02091730530E0821793071CF404
:1015C0000E940C1929C000D000D000D0EDB7FEB7A2
:1015D0003196C7E6D5E0ADB7BEB71296DC93CE9391
:1015E000119780E997E09383828381E990E0958366
:1015F00084830E945F230F900F90EDB7FEB7D283D4
:10160000C1838FE597E0948383830E945F230F90CB
:101610000F900F900F9020C000D000D000D0EDB7F9
:10162000FEB7319687E695E0ADB7BEB712969C93AC
:101630008E9311978CE297E09383828381E990E007
:10164000958384830E945F23EDB7FEB736960FB66D
:10165000F894FEBF0FBEEDBF81E001C080E0DF91D6
:10166000CF910895CE0168E475E04EE120E031E0CD
:101670000E942D2C882309F092CFF0CF2F923F9219
:101680004F925F926F927F928F929F92AF92BF9292
:10169000CF92DF92EF92FF920F931F93CF93DF933E
:1016A000C62FD0E02196C80FD91FCE010E94792CF9
:1016B0000E9482217B018C010E944E204C01C801B6
:1016C000B7010E9457205C01C801B7010E94632046
:1016D0006C01C801B7010E946F202C010E942922D1
:1016E0001C01CE0168E475E04EE127E031E00E9484
:1016F0002D2C8823A1F088E495E069E071E045E0B5
:1017000050E00E94023A009751F088E495E00E9470
:10171000BE396C0101978F31910508F099C0CE0157
:1017200068E475E04EE12FE031E00E942D2C882323
:1017300051F088E495E00E94BE395C0101978C303D
:10174000910508F085C0CE0168E475E04EE121E125
:1017500031E00E942D2C882359F088E495E00E9406
:10176000BE394C0182EB881687E098060CF470C0F5
:10177000ADB7BEB756970FB6F894BEBF0FBEADBF9C
:10178000CDB7DEB72196E7E66E2EE5E07E2EEDB70B
:10179000FEB7728261828DED96E09B838A8381E938
:1017A00090E09D838C838EE191E09F838E83809176
:1017B000C201888719868091C1018A871B86C8016A
:1017C000B70120E831E541E050E00E9496393D87BD
:1017D0002C872CE330E0429EC001439E900D529E28
:1017E000900D1124820D931D9F878E87D98AC88AF8
:1017F000BB8AAA8A9D8A8C8A0E945F238DB79EB776
:1018000046960FB6F8949EBF0FBE8DBF0E94A208E9
:1018100000D000D000D0EDB7FEB73196ADB7BEB75F
:1018200012967C926E92119785EB96E09383828359
:1018300088E690E0958384830E945F23EDB7FEB72E
:1018400036960FB6F894FEBF0FBEEDBF81E001C023
:1018500080E0DF91CF911F910F91FF90EF90DF908B
:10186000CF90BF90AF909F908F907F906F905F9040
:101870004F903F902F900895CF93DF93DC0110920B
:101880004805C8E4D5E0ED91FC91119780E090E027
:1018900007C02191322F30533A3058F429930196E2
:1018A000AF012D913C911197265F3F4FE217F3074F
:1018B00080F3885B9A4FFC011082CA0101968D93D8
:1018C0009C9388E495E00E94BE39DF91CF91089502
:1018D000AF92BF92CF92DF92EF92FF920F931F933E
:1018E000DF93CF93CDB7DEB761970FB6F894DEBF25
:1018F0000FBECDBF062F10E00F5F1F4F080F191F3F
:10190000C8010E94792CC80168E475E04EE124E02A
:1019100031E00E942D2C882309F403C188E495E06E
:101920000E941033882309F4FCC00DC188E495E0BF
:101930000E94BE397C018FEFE8168FEFF8060CF499
:10194000F0C08091730590E0E816F9060CF0E9C04C
:101950001A830983A4E6CA2ED12CC00ED11E04C05E
:101960000F5F1F4F1A83098309811A81D8018C9157
:10197000882309F4D6C00C151D0508F0D2C0C80193
:1019800063E171E043E050E00E94023A009741F7C2
:101990000D5F1F4F1A8309838E010F5F1F4FC80110
:1019A0000E943C0C8B83C8010E943C0C8C83C801B4
:1019B0000E943C0C9E838D83C8010E943C0C98873A
:1019C0008F83C8010E943C0C9A878987C8010E94B6
:1019D0003C0C9C878B8720E05801FDE0CF2ED12C5A
:1019E000CC0EDD1E0AC0C501298B0E943C0CF601FD
:1019F000E00FF11F808329892F5F022F10E04091B3
:101A0000C00150E04017510774F706C0FC01E20F17
:101A1000F11D10822F5F02C0CE010D962430B0F36D
:101A20008C81823020F0CE0103960E94A41A00D04F
:101A300000D000D0EDB7FEB7319607E615E0ADB7A0
:101A4000BEB712961C930E9311978AEA96E0938381
:101A5000828381E990E0958384830E945F23EDB7C0
:101A6000FEB736960FB6F894FEBF0FBEEDBFBE01AF
:101A70006D5F7F4FFFEFEF16FFEFFF06C1F4CB0165
:101A80000E94E51800D000D0ADB7BEB712961C93E7
:101A90000E9311978DE896E014969C938E9313976E
:101AA0000E945F230F900F900F900F9022C08E2DF9
:101AB0000E94FB1800D000D000D0EDB7FEB73196E1
:101AC000ADB7BEB712961C930E9311978FE696E0B2
:101AD000938382830894E11CF11CF582E4820E94C6
:101AE0005F23EDB7FEB736960FB6F894FEBF0FBE74
:101AF000EDBF00D000D087E695E0ADB7BEB7129637
:101B00009C938E93119784E396E014969C938E9306
:101B100013970E945F230F900F900F900F9081E01A
:101B200001C080E061960FB6F894DEBF0FBECDBF56
:101B3000CF91DF911F910F91FF90EF90DF90CF90A9
:101B4000BF90AF900895C80168E475E04EE120E0D1
:101B500031E00E942D2C882309F0E8CEE2CFAF922D
:101B6000BF92DF92EF92FF920F931F93CF93DF9379
:101B70002DB73EB7285030400FB6F8943EBF0FBE89
:101B80002DBFEDB7FEB73196C7E6D5E0ADB7BEB70E
:101B90001296DC93CE9311978FE296E09383828323
:101BA00081E990E0958384838EE191E09783868339
:101BB0000E945F23EDB7FEB738960FB6F894FEBFCC
:101BC0000FBEEDBF0E9482212DB73EB72A50304094
:101BD0000FB6F8943EBF0FBE2DBFEDB7FEB73196DE
:101BE000ADB7BEB71296DC93CE93119722E136E0E3
:101BF0003383228321E130E0358324836683778336
:101C0000808791870E945F23EDB7FEB73196ADB70D
:101C1000BEB71296DC93CE93119781EF95E0938334
:101C200082838091C00190E00196958384838091A6
:101C3000C201868317828091B60190E00C9791874C
:101C400080870E945F23EDB7FEB73A960FB6F894EF
:101C5000FEBF0FBEEDBFFF245E01DC2EEB2C0DEEB0
:101C600015E021C000D000D000D0EDB7FEB731960E
:101C7000ADB7BEB71196DC9211971296EC92138312
:101C80000283AF2DB0E0A558B84F8C9184831582A4
:101C90000E945F23F394EDB7FEB736960FB6F89423
:101CA000FEBF0FBEEDBF8091C001C7E6D5E08F1526
:101CB000C8F600D000D0ADB7BEB71296DC93CE9375
:101CC000119781EE95E014969C938E9313970E9442
:101CD0005F230F900F900F900F90FF24FE01EC2ECA
:101CE000DF2E05ED15E035C08DB79EB70A970FB60C
:101CF000F8949EBF0FBE8DBFEDB7FEB73196ADB75E
:101D0000BEB71196EC9211971296DC921383028360
:101D1000D901A450BA4F8C9184831582220F331FAE
:101D2000D901A454BA4F8D919C91978386832458EE
:101D30003A4FD9018D919C91918780870E945F23B2
:101D4000F394EDB7FEB73A960FB6F894FEBF0FBE08
:101D5000EDBF2F2D30E08091C00190E00196B3E0FF
:101D6000880F991FBA95E1F7C7E6D5E0281739071C
:101D70000CF4BACF08E415E0C8010E94582E2DB724
:101D80003EB7265130400FB6F8943EBF0FBE2DBF70
:101D9000EDB7FEB73196ADB7BEB71296DC93CE93D2
:101DA00011978FE895E09383828380917A07817001
:101DB0008483158280917A07869581708683178245
:101DC00080917A07869586958170808711868091AB
:101DD0007A078295869581708287138680917F0726
:101DE00090918007A0918107B091820784879587A1
:101DF000A687B7878091C101808B118A8091C40129
:101E0000828B138A158B048B0E945F23EDB7FEB77C
:101E100038960FB6F894FEBF0FBEEDBF3196ADB742
:101E2000BEB71296DC93CE93119786E795E0938325
:101E300082838091740584831582809175058683E1
:101E400017828091760590917705918780878091A0
:101E5000780590917905A0917A05B0917B058287EC
:101E60009387A487B5870E945F23EDB7FEB73896A6
:101E70000FB6F894FEBF0FBEEDBF3196ADB7BEB73B
:101E80001296DC93CE93119788E495E09383828336
:101E900088E690E0958384830E945F23EDB7FEB7C8
:101EA00036960FB6F894FEBF0FBEEDBF81E0DF910E
:101EB000CF911F910F91FF90EF90DF90BF90AF9067
:101EC00008952F923F925F926F927F928F929F928E
:101ED000AF92BF92CF92DF92EF92FF920F931F9338
:101EE000CF93DF932DB73EB7285030400FB6F8940C
:101EF0003EBF0FBE2DBFEDB7FEB7319637E6C32EFE
:101F000035E0D32EADB7BEB71296DC92CE921197C4
:101F100083E495E09383828381E990E095838483D1
:101F20008EE191E0978386830E945F230F900F904C
:101F30000F900F90EDB7FEB7D282C18280E395E09B
:101F4000948383830E945F2325EBE22E21E0F22E0F
:101F500008EC11E00F900F900F900F90C0E0D0E0D0
:101F6000AA246C2C5D2C91E2892E95E0992E1E01FD
:101F7000BC2E732CCE010E94C02D80FF37C0D8012B
:101F8000CD90DC90CE010E94C02D90E082709070C8
:101F9000F7012081C13021F430E02C50304001C0E5
:101FA00030E0ADB7BEB71C970FB6F894BEBF0FBEFA
:101FB000ADBFEDB7FEB7319611966C9211971296A0
:101FC0005C9293828282D582C48297838683318792
:101FD0002087B28673860E945F23A394EDB7FEB775
:101FE0003C960FB6F894FEBF0FBEEDBF2196089445
:101FF000E11CF11C0E5F1F4FC331D10509F0B7CFB3
:1020000008E415E0C8010E94582E2DB73EB72850AD
:1020100030400FB6F8943EBF0FBE2DBFEDB7FEB7F0
:102020003196C7E6D5E0ADB7BEB71296DC93CE9336
:10203000119787E095E093838283A48215821783AA
:1020400006830E945F23EDB7FEB738960FB6F8946B
:10205000FEBF0FBEEDBF8091C6018823E9F10E944B
:1020600004227C010E9409228C010E9419226C0129
:102070000E9431225C010E9429224C010E942122EF
:102080002DB73EB7205130400FB6F8943EBF0FBE7B
:102090002DBFEDB7FEB73196ADB7BEB71296DC9344
:1020A000CE9311972CED34E033832283F582E482C2
:1020B00017830683D186C086B386A28695868486DA
:1020C000978786870E945F23EDB7FEB770960FB69D
:1020D000F894FEBF0FBEEDBF00D000D0C7E6D5E03C
:1020E000ADB7BEB71296DC93CE93119781ED94E015
:1020F00014969C938E9313970E945F2300D0EDB7A4
:10210000FEB73196ADB7BEB71296DC93CE9311975A
:1021100086EA94E09383828388E690E095838483C3
:102120000E945F23EDB7FEB736960FB6F894FEBF58
:102130000FBEEDBF81E0DF91CF911F910F91FF9016
:10214000EF90DF90CF90BF90AF909F908F907F9057
:102150006F905F903F902F900895EF92FF920F93B2
:102160001F93CF93DF93C62FD0E02196C80FD91FBE
:10217000CE0168E475E04EE124E031E00E942D2CB0
:10218000882309F4D4C088E495E00E9410338823A2
:1021900009F4CDC0D4C088E495E00E94BE39181679
:1021A00019060CF04CC08DB79EB708970FB6F8947F
:1021B0009EBF0FBE8DBFEDB7FEB7319647E6E42E4A
:1021C00045E0F42EADB7BEB71296FC92EE92119791
:1021D00084E794E09383828381E990E0958384830C
:1021E0000CE010E0178306830E945F230F900F908E
:1021F000EDB7FEB73196ADB7BEB71296FC92EE9230
:10220000119782E594E093838283158304830E946F
:102210005F238DB79EB706960FB6F8949EBF0FBE8C
:102220008DBF80916B0590916C052091690530916F
:102230006A05821B930B0E94B4250E94AC2CCE0130
:1022400068E475E04EE127E131E00E942D2C8823FF
:1022500099F080917A07817090914805913329F423
:10226000813051F00E94CA2D07C0903309F05FC041
:10227000882311F00E94D22DCE0168E475E04EE172
:102280002AE131E00E942D2C8823B9F080917A0751
:1022900082958695817090914805913329F481301B
:1022A00061F00E94252E07C0903309F040C08823BA
:1022B00021F00E942F2E0E946018CE0168E475E084
:1022C0004EE12DE131E00E942D2C882371F088E44D
:1022D00095E00E94BE39181619061CF40E94DA2DEA
:1022E00004C0009721F50E94092E00D000D000D034
:1022F000EDB7FEB7319687E695E0ADB7BEB712965B
:102300009C938E93119781E294E09383828381E979
:1023100090E0958384830E945F238DB79EB70696D5
:102320000FB6F8949EBF0FBE8DBF81E001C080E064
:10233000DF91CF911F910F91FF90EF900895CE0103
:1023400068E475E04EE120E231E00E942D2C882304
:1023500009F021CF74CFAF92BF92CF92DF92EF926C
:10236000FF920F931F93CF93DF93DC01A60FB11D54
:10237000C8E4D5E0E0E08D018D91982F90539A301C
:1023800028F4E43019F08993EF5FF5CFF0E0E85BD3
:10239000FA4F108288E495E00E94BE39EC0197FD67
:1023A00001C18091C00190E00196F3E0880F991F70
:1023B000FA95E1F78C179D070CF4F4C0D8018C91C5
:1023C0008D3309F05FC0209709F4ECC080917A0743
:1023D00085FD11C000D000D000D0EDB7FEB731961A
:1023E00087E695E0ADB7BEB712969C938E93119792
:1023F00084E692E036C02197C8010196D801119673
:102400002C911197203321F48C2F0E94E10619C0E2
:10241000213309F0C7C068E475E04EE124E231E001
:102420000E942D2C882341F088E495E00E94BE395B
:10243000BC0197FF03C0B6C060E070E08C2F0E9423
:10244000350700D000D000D0EDB7FEB7319687E653
:1024500095E0ADB7BEB712969C938E93119783E328
:1024600092E09383828381E990E0958384830E9444
:102470005F23EDB7FEB736960FB6F894FEBF0FBEDA
:10248000EDBF8EC000D000D000D0EDB7FEB73196C2
:1024900087E695E0ADB7BEB712969C938E931197E1
:1024A00080E392E09383828381E990E09583848343
:1024B0000E945F23EDB7FEB736960FB6F894FEBFC5
:1024C0000FBEEDBF209741F48091C001880F880FA7
:1024D000880F885F00E003C08C2F0C2F015010E0A4
:1024E000C82FD0E0E7E6EE2EE5E0FE2E7AE2C72E1A
:1024F00072E0D72E6DE2A62E62E0B62E4DC080911E
:102500007A07982F9370913059F59091C4019923CF
:1025100011F082FD25C000D000D000D0EDB7FEB78D
:102520003196ADB7BEB71296FC92EE921197B38278
:10253000A282D80153E0B595A7955A95E1F7A55821
:10254000B84F8C9190E098012770307002C095953B
:1025500087952A95E2F7817090709583848310C0E7
:1025600000D000D000D0EDB7FEB73196ADB7BEB702
:102570001296FC92EE921197D382C2821582148237
:102580000E945F23EDB7FEB736960FB6F894FEBFF4
:102590000FBEEDBF0F5F1F4F0C171D070CF4AFCF21
:1025A00081E001C080E0DF91CF911F910F91FF90FA
:1025B000EF90DF90CF90BF90AF90089500D000D003
:1025C00000D0EDB7FEB7319687E695E0ADB7BEB760
:1025D00012969C938E93119787E292E09383828365
:1025E00089E491E0958384830E945F238DB79EB731
:1025F00006960FB6F8949EBF0FBE8DBF81E008957A
:10260000EF92FF920F931F93DF93CF9300D000D0F0
:10261000CDB7DEB700E010E07E010894E11CF11CAC
:102620000E94351C0E94AA26C701609158020E9490
:1026300017268823E1F0E980FA800B811C8180EC69
:1026400098EDA4E5BCE7E80EF91E0A1F1B1F609178
:10265000B60170E080E090E020E13EE040E050E034
:102660000E944439E60EF71E081F191F09C00F5FAC
:102670001F4F97E20031190799F6EE24FF248701D6
:10268000B701C8010F900F900F900F90CF91DF917D
:102690001F910F91FF90EF900895EF92FF920F938B
:1026A0001F93DF93CF930F92CDB7DEB720E08EE874
:1026B00091E06091580229830E94C7250E9400136F
:1026C0007B018C016AEF70E080E090E00E949B3615
:1026D0002981E114F1040105110519F42F5F2A3055
:1026E00031F7B701C8010F90CF91DF911F910F9182
:1026F000FF90EF9008952F923F924F925F926F92CA
:102700007F928F929F92AF92BF92CF92DF92EF9281
:10271000FF920F931F93DF93CF93CDB7DEB7A597AB
:102720000FB6F894DEBF0FBECDBFC62EDD240894D1
:10273000C11CD11CC80ED91EC60168E475E04EE16B
:1027400024E031E00E942D2C882309F487C188E41D
:1027500095E00E941033882309F480C19BC19E2C10
:102760008F2CC7010E94C02D80FF3CC0C7010E9472
:10277000C02D81FF02C0D5011C9239821A821B82B2
:102780001C821D82892D982DB2014AE050E00E94E2
:10279000103AC60168E475E04EE193010E942D2CC9
:1027A000882301F1892D982D0E94C02D81FF03C03F
:1027B000F501208217C088E495E00E94BE398C01A3
:1027C000FE2DF13011F4045F1F4F17FD7BC1892DE1
:1027D000982D0E94C52D90E0801791070CF472C1CE
:1027E000D5010C930894E11CF11C0894A11CB11CA8
:1027F000B3E1EB16F10409F0B2CFC60168E475E06D
:102800004EE126E231E00E942D2C882341F088E43D
:1028100095E00E94792C88E495E00E94392E809101
:10282000C601882309F460C0C60168E475E04EE182
:102830002AE231E00E942D2C882309F455C084E758
:1028400089831B828E010A5F1F4F80E3E82E5E01A1
:102850000894A11CB11CEA82C60168E475E04EE14F
:1028600095010E942D2C882339F088E495E00E9480
:10287000BE39F80191838083E3940E5F1F4FFE2DD4
:10288000F63349F7EE80FF8082EBE81687E0F80622
:1028900074F108851985101611064CF50D301105D7
:1028A00034F52A853B85121613060CF520323105C6
:1028B000F4F48C859D8597FD1AC088319105BCF490
:1028C0006E857F8577FD13C06C33710584F448896C
:1028D000598957FD0CC04C3351054CF40E943922E4
:1028E0000E9482210E946A2B9CA1992319F100D099
:1028F00000D000D0EDB7FEB7319607E615E0ADB7D2
:10290000BEB712961C930E93119786EE93E09383B5
:10291000828381E990E0958384830E945F230F90F6
:102920000F90EDB7FEB71283018385EB93E094839C
:10293000838356C00E94A82DC60168E475E04EE16D
:102940002FE231E00E942D2C882309F450C08E0123
:102950000A5F1F4FC601B8014EE123E331E00E9438
:102960002D2C882309F4B1C088E495E0B8010E94B9
:10297000F239009709F0A9C088E495E00E947A3204
:1029800000D000D000D0EDB7FEB7319687E695E0D5
:10299000ADB7BEB712969C938E93119786E893E0DD
:1029A0009383828381E990E0958384830E945F23EF
:1029B000EDB7FEB736960FB6F894FEBF0FBEEDBF6B
:1029C00000D000D087E695E0ADB7BEB712969C93D5
:1029D0008E9311978BE193E014969C938E931397AB
:1029E0000E945F230F900F900F900F9039C000D07E
:1029F00000D000D0EDB7FEB7319607E615E0ADB7D1
:102A0000BEB712961C930E93119788EE92E09383B3
:102A1000828381E990E0958384830E945F230F90F5
:102A20000F90EDB7FEB71283018387EB92E094839A
:102A300083830E945F230F900F900F900F908091DF
:102A4000B601FDA1F81761F00E944D1361157105E3
:102A50008105910529F00E94532102C080E001C048
:102A600081E0A5960FB6F894DEBF0FBECDBFCF9123
:102A7000DF911F910F91FF90EF90DF90CF90BF906B
:102A8000AF909F908F907F906F905F904F903F900E
:102A90002F9008958091B6018DA315EBA12E11E022
:102AA000B12EEE24FF241CA2BFE63B2EA2E04A2E4C
:102AB000512C4C0E5D1E3E010894611C711C222499
:102AC00023944DCE91E09CA38DCE00D000D000D0B9
:102AD000EDB7FEB7319687E695E0ADB7BEB7129673
:102AE0009C938E9311978CE493E05ACFCF93DF930E
:102AF000EC01259620913701DC0115968C911597F4
:102B0000281719F40E94AF0D95C089E391E0BE012A
:102B10004BE050E00E94023A009719F40E94DE1246
:102B200089C085E491E0BE0142E050E00E94023A93
:102B3000009729F4CE0162E00E94AD107BC088E4CA
:102B400091E0BE0142E050E00E94023A009729F471
:102B5000CE0162E00E9428096DC08BE491E0BE01C5
:102B600042E050E00E94023A009729F4CE0162E070
:102B70000E9477095FC08EE491E0BE0142E050E020
:102B80000E94023A009729F4CE0162E00E94B20A44
:102B900051C081E591E0BE0142E050E00E94023A5E
:102BA000009729F4CE0162E00E94680C43C084E5DE
:102BB00091E0BE0142E050E00E94023A009729F401
:102BC000CE0162E00E943E0B35C087E591E0BE0178
:102BD00042E050E00E94023A009719F40E94610F0F
:102BE00029C08AE591E0BE0142E050E00E94023A2D
:102BF000009729F4CE0162E00E947B131BC08DE593
:102C000091E0BE0142E050E00E94023A009729F4B0
:102C1000CE0162E00E94AB110DC080E691E0BE01E2
:102C200043E050E00E94023A009731F4CE0163E0A5
:102C30000E946208882301F500D000D000D0EDB7D3
:102C4000FEB7319687E695E0ADB7BEB712969C9376
:102C50008E93119784E292E09383828384ED91E0D6
:102C6000958384830E945F23EDB7FEB736960FB637
:102C7000F894FEBF0FBEEDBFDF91CF9108952F9264
:102C80003F924F925F926F927F928F929F92AF92FC
:102C9000BF92CF92DF92EF92FF920F931F93DF9339
:102CA000CF930F92CDB7DEB72090C2010E94351CA2
:102CB0000E94AA2690936E0580936D050097D1F02F
:102CC00020E932E030936A052093690530936C0562
:102CD00020936B05865A9D4F0E94761580916B0557
:102CE00090916C052091690530916A05821B930BC8
:102CF0000E94B4250E944C060E9482217B018C0117
:102D000080916F0590917005A0917105B091720549
:102D10008E159F05A007B10709F4B7C1E0926F05B2
:102D2000F0927005009371051093720580E00E9487
:102D30006A2F8091A2069091A3068B30910514F022
:102D40000E94AC2C80917A0781FF0FC080917F0791
:102D500090918007A0918107B0918207E816F9064B
:102D60000A071B0710F00E94092E0E94112E809165
:102D70007A0785FD95C084FF03C0222009F090C02A
:102D8000C801B7010E9469209C0180919201909135
:102D900093012817390709F483C0309393012093D6
:102DA00092018824BB2433246DC09924A92CA80C3B
:102DB000CA2CDD242091C10130E0C60101962817FC
:102DC000390709F457C02601440C551C5CE7652EF1
:102DD00055E0752E640C751CF3018081918100977C
:102DE00009F048C08A2DB801A7019E012F5F3F4F0F
:102DF0000E9462190097F1F1222089F0BB2079F03E
:102E0000F30191838083F201E454FA4F918380832C
:102E1000F601E450FA4F89818F5F80832BC0B601A1
:102E2000660F771FFB01E458FA4F91838083F60108
:102E3000EE0FFF1FEE0FFF1FE45EF94F9C0140E015
:102E400050E02E0D3F1D401F511F208331834283D0
:102E5000538364547A4FFB0191838083F601E450DD
:102E6000FA4F89818F5F80838A2D61E00E946D2DEA
:102E7000BB24B3949394F92DF83009F097CF339491
:102E800048E0840E8091C001831508F08ECFBB20EE
:102E900039F080917A07806180937A070E94BB2C79
:102EA00080917A0784FFD9C06624AA24C1C0EA2D84
:102EB000F0E0E558F84F4080B62C8824992455243A
:102EC000CB2CDD242091C10130E0C60101962817EA
:102ED000390709F4A1C0C201082C02C09595879555
:102EE0000A94E2F780FF98C0F601EE0FFF1FEE0F85
:102EF000FF1FE45EF94F80819181A281B381E816C2
:102F0000F9060A071B0708F46FC08B2D60E00E94CA
:102F10006D2D8B2D8F5F80937405B60164507A4FB1
:102F2000FB019081909375059601220F331FD90103
:102F3000A454BA4F4D915C911197509377054093EB
:102F40007605E0927805F092790500937A05109362
:102F50007B0524583A4FF9011182108211961C9278
:102F60001E92FB01108290917A0795FD55C0222098
:102F700009F452C04091C00150E04F5F5F4FB3E091
:102F8000440F551FBA95E1F729C0E091C101F0E067
:102F90009B012F5F3F4FE217F307F9F0FB01EE0FA4
:102FA000FF1FE458FA4F2081318121153105A9F026
:102FB000FB01EE0FFF1FEE0FFF1FE45EF94F40E035
:102FC00050E02E0D3F1D401F511F2083318342834F
:102FD000538361E00E946D2D1FC08F5F682F70E0EA
:102FE0006417750794F218C09601220F331F8F3FA4
:102FF000FFEF9F07FFEFAF07FFEFBF0731F4245844
:103000003A4FF9011182108207C024583A4F8E19A5
:103010009F09F901918380830894811C911CB394CA
:10302000F8E08F16910409F04BCFA39448E0640EAA
:103030008091C0018A1508F03ACF0E94BB2C909174
:10304000C00180E0E82FF0E0E558F84F208122230E
:1030500021F48F5F9817B0F712C00E94BB2CC801F3
:10306000B70123E030E040E050E00E949639FB01D8
:10307000E95FFD4F81E060810E947B3006C0809156
:103080007A078F7E80937A07E8CF0F90CF91DF91F8
:103090001F910F91FF90EF90DF90CF90BF90AF9076
:1030A0009F908F907F906F905F904F903F902F9068
:1030B000089581E092E090936805809367050895F4
:1030C000CF93DF93ECE7F5E08CE196E0CCEFD5E031
:1030D0004CEB55E011921192DC011D921D921D9254
:1030E0001D92CD011992DA011D921D92AD01B5E03C
:1030F000EC3BFB0779F7DF91CF91089588EC91E0E5
:103100000E946E3A8093730508950E9460180E9491
:103110007E18109274051092750510927705109222
:103120007605109278051092790510927A05109222
:103130007B05089588EC91E0609173050E94803AC8
:103140000895EF92FF920F931F93DF93CF9300D0D8
:10315000CDB7DEB719820AEC11E02EE07E010894AB
:10316000E11CF11C0AC0C701B80141E050E02A830C
:103170000E94763A0F5F1F4F2A8180917305829FCC
:10318000C001112486539E4F0817190760F310924F
:1031900073050E949A180F900F90CF91DF911F91A5
:1031A0000F91FF90EF900895282FCB013091730578
:1031B000231750F46EE0269FB001112466537E4F12
:1031C0004EE050E00E945E3A089520917305283247
:1031D00088F46EE0269FB001112466537E4F4EE0C6
:1031E00050E00E94763A809173058F5F809373055B
:1031F0000E949A180895282FCB0130917305231748
:1032000050F46EE0269FB001112466537E4F4EE0CD
:1032100050E00E94763A0895EF92FF920F931F9329
:10322000DF93CF93CDB7DEB72F970FB6F894DEBFFD
:103230000FBECDBF909173058917B8F59923A9F1F9
:1032400090E00196880F991F8C0123E0000F111F59
:103250002A95E1F7081B190B06531E4F2EE07E013D
:103260000894E11CF11C12C0C701B8014EE050E007
:103270002F870E945E3AB8016E507040C7014EE041
:1032800050E00E94763A025F1F4F2F853091730500
:10329000329FC001112486539E4F0817190720F34F
:1032A0003150309373050E949A182F960FB6F894F8
:1032B000DEBF0FBECDBFCF91DF911F910F91FF9069
:1032C000EF9008952F923F924F925F926F927F926C
:1032D0008F929F92AF92BF92CF92DF92EF92FF9226
:1032E0000F931F93DF93CF93CDB7DEB764970FB6DD
:1032F000F894DEBF0FBECDBF7A018B012901982E55
:1033000096949694969487708F87CB01BA010E9409
:103310006F205C01C801B7010E9469202CE330E0F6
:10332000A29E6001A39ED00CB29ED00C1124C80EA8
:10333000D91EC801B70120E831E541E050E00E9404
:103340009639288B398B4A8B5B8BBB241E010894E2
:10335000211C311C5BE0652E712C6C0E7D1E690CEE
:10336000711C47E0842E912C87C08B2DB1010E94E7
:10337000D418F301808190E00F8402C09595879561
:103380000A94E2F780FF77C0A980A7FE1AC02A81BD
:103390002230B8F030E040E050E0688979898A89CD
:1033A0009B890E9496399B01AC018A2D8F7790E012
:1033B000A0E0B0E0281739074A075B0709F05BC0B7
:1033C00032C0C801B7010E945D20298130E090E041
:1033D0000596B4010E94833902C0359527958A95D8
:1033E000E2F720FF48C0C801B7010E946320282FE0
:1033F000898187FF18C08A81882319F420FD3BC08A
:1034000012C0813081F42F31B1F12D3109F055C056
:10341000C801B7012C8B0E9457202C89823091055E
:1034200009F04BC028C08B819C81C816D90618F1C1
:103430002D813E812C153D05F0F02F813885211519
:103440003105C9F0F601E81BF90BCF01B9010E9463
:103450006F39629FC001639F900D729F900D112480
:103460008E179F0741F44114510411F0F201B0820C
:1034700029853A8508C0B39480917305B81608F47D
:1034800074CF20E030E0C90164960FB6F894DEBF37
:103490000FBECDBFCF91DF911F910F91FF90EF90A5
:1034A000DF90CF90BF90AF909F908F907F906F9064
:1034B0005F904F903F902F90089520FFDCCFB3CFC7
:1034C0009F92AF92BF92CF92DF92EF92FF920F93B3
:1034D0001F93CF93DF93EC01988019810E94822182
:1034E000A12EBB24CC24DD24292D2F77E22EFF240E
:1034F000E10EF11C0027F7FC0095102F20E831E5C4
:1035000041E050E00E949639CA01B901A601950137
:103510000E949639E61AF70A080B190BC801B70181
:10352000A60195010E949639892D8078862B888383
:10353000DF91CF911F910F91FF90EF90DF90CF908F
:10354000BF90AF909F900895CF92DF92EF92FF923D
:103550000F931F93CF93DF93EC01D880C9800E9413
:10356000822120E831E541E050E00E94963979015E
:103570008A018D2D8F77E80EF11C011D111D2C2D58
:1035800030E040E050E0C801B7010E9496398D2D2F
:103590008078862B8883DF91CF911F910F91FF90C8
:1035A000EF90DF90CF900895F89425B181E090E0FE
:1035B000A0E0B0E000909E0604C0880F991FAA1FEB
:1035C000BB1F0A94D2F78095822385B9089525B14F
:1035D00081E090E0A0E0B0E000909E0604C0880F7B
:1035E000991FAA1FBB1F0A94D2F7282B25B97894DC
:1035F00008958EBD0DB407FEFDCF08951F93DF9390
:10360000CF9300D0CDB7DEB7182F4A8369830E94CD
:10361000D41A6981862F8F71812B0E94F91A4A81F1
:10362000842F0E94F91A0E94E71A0F900F90CF91F1
:10363000DF911F9108950F931F93CF93DF93EC01B8
:103640008B010E94D41A8AE30E94F91A08C080E014
:103650000E94F91A8EB5F80181938F012197209766
:10366000B1F70E94E71ADF91CF911F910F91089552
:103670000F931F93CF93DF93EC018B010E94D41A19
:103680008AE70E94F91A06C0F80181918F010E9411
:10369000F91A21972097C1F70E94E71ADF91CF917D
:1036A0001F910F9108951F93182F282F30E0207637
:1036B000307060919F0670E02617370799F080EA16
:1036C0006FE143E00E94FE1A107610939F06412F8F
:1036D00050E085E0559547958A95E1F780E86FE1E0
:1036E0000E94FE1A1F9108951F93DF93CF930F92AC
:1036F000CDB7DEB7182F69830E94531B80E4612F7A
:1037000049810E94FE1A0F90CF91DF911F91089579
:103710001F93DF93CF930F92CDB7DEB7182F798326
:103720000E94741B812F8F5F7981672F0E94741B09
:103730000F90CF91DF911F9108951F93DF93CF9347
:103740000F92CDB7DEB7182F0E94D41A812F8F7138
:103750000E94F91A80E00E94F91A17FF03C080E066
:103760000E94F91A8EB589830E94E71A89810F9009
:10377000CF91DF911F9108951F93182F0E94531B23
:10378000812F0E949D1B1F9108958AE061E00E9495
:103790008B358BE061E00E948B358DE061E00E940B
:1037A0008B358CE060E00E948B358BE061E00E94FD
:1037B000AF358BE060E00E94AF358DE060E00E94A5
:1037C000AF3580E58CBD8DB581608DBD089584EDEC
:1037D00061E10E94741B82ED61E00E94741B8AEE1D
:1037E0000E94BC1B80FDFBCF82ED60E00E94741B39
:1037F00089ED0E94BC1B91E082FF90E0892F089523
:10380000CF93DF93EC010FC08CE10E94BC1B81FFC2
:103810000AC080E86FE140E80E94FE1A80EA6FE18A
:1038200040E80E94FE1A8FE10E949D1B83FDECCFB1
:1038300082E060E07CE00E94881BBE016050744F13
:1038400086E00E94881B8AE760E040E00E94FE1A42
:10385000CE016AE572E00E94381B80E86FE148E023
:103860000E94FE1ADF91CF9108950F931F93DF936B
:10387000CF9300D000D000D0CDB7DEB789E30E944F
:10388000BC1B882309F447C06091A0067091A10673
:1038900080E00E94881B86E090E0BE016F5F7F4F52
:1038A0000E941B1B89819A819093A1068093A00698
:1038B0008B819C8100919C0610919D062D8127FF94
:1038C0000DC00497015010408017910708F48C0137
:1038D000C8016AE572E00E941B1B02C000E010E014
:1038E000F801E65AFD4F10826091A0067091A10682
:1038F0008CE06130780724F08CE06FEF7BE003C050
:10390000615070408CE00E94881B80E86EE140E4CA
:103910000E94FE1A02C000E010E0C80126960FB611
:10392000F894DEBF0FBECDBFCF91DF911F910F91F5
:10393000089588E361EB0E94741B08950F931F9311
:10394000DF93CF930F92CDB7DEB78B0190939D0697
:1039500080939C060CB406FC04C049830E94C51BDE
:103960004981485040939E0624B181E090E0A0E058
:10397000B0E004C0880F991FAA1FBB1F4A95D2F759
:10398000282B24B90E94E71A8FEF60E04FEF0E94C6
:10399000FE1A62E070E080E090E00E949B368DE1CC
:1039A0000E949D1B8823D9F31092A1061092A006B5
:1039B00088E060E070E00E94881B8CE060E070E0CE
:1039C0000E94881B8AE06FEF7BE00E94881B84E0E6
:1039D00060E07CE00E94881B86E06FEF71E10E944E
:1039E000881B0E94991C88E26FE370E30E94881B89
:1039F00080E369EF77EF0E94881B80EC6DE00E9406
:103A0000741B81EC60E00E94741B80E862EC42E36E
:103A10000E94FE1A86EC62E17CE00E94881B84EC26
:103A200062E10E94741B8AEC6CED75E00E94881BB9
:103A300084EEF80160810E94741B85EEF8016181BB
:103A40000E94741B82EEF80162810E94741B83EE57
:103A5000F80163810E94741B80EEF80164810E946A
:103A6000741B81EEF80165810E94741B84ED60E196
:103A70000E94741B86ED60E071E00E94881B8AEE54
:103A80000E94BC1B80FDFBCF8FE10E94531B80E88E
:103A90006BE140EC0E94FE1A80E86FE144E00E9476
:103AA000FE1A82E70E94BC1B863008F08F5F0F90E1
:103AB000CF91DF911F910F91089588E360EB0E94F1
:103AC000741B0895CF93DF93EC018C8160E00E941A
:103AD000AF3581E090E00E94C2368C8161E00E94A7
:103AE000AF3581E090E00E94C2368C8160E00E9498
:103AF000AF3584E690E00E94C236DF91CF91089501
:103B0000AF92BF92CF92DF92EF92FF920F931F93EB
:103B1000CF93DF937C018C010B5F1F4FC0E0D0E09F
:103B2000A62EBB246801F80181918F0161E00E94FB
:103B30008B35B5010C2E02C0759567950A94E2F796
:103B40006170F60180810E94AF352196C430D105A5
:103B500049F7C7010E94621DDF91CF911F910F911C
:103B6000FF90EF90DF90CF90BF90AF900895AF920D
:103B7000BF92CF92DF92EF92FF920F931F93CF935A
:103B8000DF937C018C010B5F1F4FC0E0D0E0A62EBD
:103B9000BB246801F80181918F0161E00E948B359F
:103BA000B5010C2E02C0759567950A94E2F7617015
:103BB000F60180810E94AF352196C830D10549F7C2
:103BC000C7010E94621DDF91CF911F910F91FF905D
:103BD000EF90DF90CF90BF90AF9008951F93CF9359
:103BE000DF93EC01162F8A81642F0E94AF358B8101
:103BF0008F3F19F060E00E94AF358D8584FF05C0CE
:103C0000CE01612F0E94B71D0FC0212F30E084E04C
:103C1000359527958A95E1F7CE01622F0E94801D88
:103C2000CE01612F0E94801DDF91CF911F910895D9
:103C300041E00E94EE1D089540E00E94EE1D0895AF
:103C4000FC0166856E7F668768600E941C1E089571
:103C5000FC016685262F246026876C600E941C1E4E
:103C60000895DF93CF93CDB7DEB728970FB6F894BA
:103C7000DEBF0FBECDBFFE013196A4E1B2E028E069
:103C80000D9001922150E1F7FC012189241710F4D5
:103C9000422F4150E42FF0E0EE0FFF1FEC0FFD1F0D
:103CA0002181260F2068622F0E941C1E28960FB6C5
:103CB000F894DEBF0FBECDBFCF91DF91089561E0D4
:103CC0000E941C1E80ED97E00E94C2360895CF939B
:103CD000DF93EC01423018F08D8588608D87498B29
:103CE0001A8A222329F0413019F48D8584608D874A
:103CF00080E593EC0E94C2368A8160E00E94AF3575
:103D00008C8160E00E94AF358B818F3F19F060E0BD
:103D10000E94AF356D8564FD1DC0CE0163E00E9439
:103D2000801D84E991E10E94C236CE0163E00E94C9
:103D3000801D84E991E10E94C236CE0163E00E94B9
:103D4000801D86E990E00E94C236CE0162E00E94AA
:103D5000801D16C06062CE010E941C1E84E991E1A4
:103D60000E94C2366D856062CE010E941C1E86E9EB
:103D700090E00E94C2366D856062CE010E941C1EDA
:103D80006D856062CE010E941C1E84E08E87CE018C
:103D90000E94281ECE010E945F1E82E08F87CE0106
:103DA00066E00E941C1EDF91CF9108956F927F9272
:103DB0008F92AF92CF92EF920F931F93DF93CF9397
:103DC000CDB7DEB73C01162F842FF3014283238346
:103DD0000483E582C682A78280869D8591879E8521
:103DE00092879F8593879889948761E00E948B359D
:103DF000F30183818F3F19F061E00E948B35F3015D
:103E0000848161E00E948B35112319F0F30115863E
:103E100003C080E1F3018587C30160E141E020E058
:103E20000E94671ECF91DF911F910F91EF90CF906D
:103E3000AF908F907F906F9008958F92AF92CF92B6
:103E4000EF920F93CF93DF93A62F742F522F302F23
:103E5000AE2C8C2CEEE0F2E0EC01F983E88300D08C
:103E600000D0EDB7FEB73196CDB7DEB7198211821B
:103E70001282138261E04A2F2FEF072FE52EC32E07
:103E80000E94D61E0F900F900F900F90DF91CF9150
:103E90000F91EF90CF90AF908F9008956F927F9297
:103EA0008F929F92AF92BF92CF92DF92EF92FF924A
:103EB0000F931F93CF93DF93EA012CE3E22EF12CB3
:103EC000012D112DA80197010E9496396883CA011E
:103ED000B901A80197010E9496396983CA01B90105
:103EE00028E130E040E050E00E94963959016A0133
:103EF0006A83CA01B9016C5F7F4F8F4F9F4F27E0E4
:103F000030E040E050E00E9496396F5F6B83EE2412
:103F1000FF24870140E0E4E6F0E090E9892E91E09B
:103F2000992E01C04F5F242F30E02E54384F83E08C
:103F3000682E712C622273226114710461F4C9012C
:103F4000BF010E948339009759F4C901B4010E944E
:103F50008339009729F08DE691E0A0E0B0E004C03D
:103F60008EE691E0A0E0B0E0E80EF91E0A1F1B1FEC
:103F7000C701A0E0B0E0A816B906CA06DB0690F6B5
:103F80004E836114710471F4C90164E670E00E940B
:103F90008339009761F4C90160E971E00E948339B7
:103FA000009729F08DE691E0A0E0B0E004C08EE635
:103FB00091E0A0E0B0E0E81AF90A0A0B1B0BD60169
:103FC000C5018E199F09A00BB10B7C018D01C901A0
:103FD00064E670E00E9483396C01C90160E971E018
:103FE0000E948339ECE1F2E060E0613049F4611451
:103FF000710441F4C114D10439F4009729F002C0CE
:10400000208103C02CE101C02DE130E040E050E010
:10401000E216F3060407150740F0E21AF30A040B50
:10402000150B6F5F31966C3001F76F5F6D83E39412
:10403000EC82DF91CF911F910F91FF90EF90DF9075
:10404000CF90BF90AF909F908F907F906F9008958A
:10405000EF92FF920F931F937B018C018091BB061F
:104060009091BC06A091BD06B091BE06E816F90677
:104070000A071B0771F0C801B70140EB56E00E9428
:104080004E1FE092BB06F092BC060093BD06109353
:10409000BE061F910F91FF90EF9008950E94282077
:1040A0002091B60630E02E54384FC90108950E9481
:1040B00028208091B50690E008950E9428208091E4
:1040C000B30690E008950E9428208091B40690E005
:1040D00008950E9428208091B10690E008950E94E2
:1040E00028208091B20690E008954F925F926F92DF
:1040F0007F928F929F92AF92BF92CF92DF92EF9278
:10410000FF920F931F93CF93DF934C01DC01169620
:10411000EC9016976E2D70E080E090E020E833E39D
:1041200041EE51E00E9444395B016C01FF2487019C
:104130000E54184F22EB37E0E4E6F0E0C0E9D1E09E
:104140001BC0C901837090700097A1F4C901BF0121
:104150000E948339009731F4C901BE010E9483395E
:10416000009741F480E891E5A1E0B0E0A80EB91E07
:10417000CA1EDB1E2F5F3F4F2017310711F7D401F6
:1041800015964C901597552497012E54384FC90118
:1041900064E670E00E9483397C01C90160E971E046
:1041A0000E9483398C01C1E0D0E043E0642E712C81
:1041B0006222732227C0C230D10591F461147104C8
:1041C00079F4E114F10419F40115110549F480E8BA
:1041D0009BE3A6E2B0E0A80EB91ECA1EDB1E11C00A
:1041E000FE01E55EFD4F608170E080E090E020E838
:1041F00031E541E050E00E944439A60EB71EC81ECA
:10420000D91E2196C415D505B4F2D40112966C912D
:1042100070E080E090E020E13EE040E050E00E946D
:1042200044397B018C01F401618170E080E090E011
:104230002CE330E040E050E00E944439E60EF71EE7
:10424000081F191FD4018C91E80EF11C011D111DCE
:1042500014966C91149770E061507040882777FD38
:104260008095982F20E831E541E050E00E944439E4
:10427000E60EF71E081F191FEA0CFB1C0C1D1D1D66
:10428000B701C801DF91CF911F910F91FF90EF907F
:10429000DF90CF90BF90AF909F908F907F906F9066
:1042A0005F904F9008959B01AC016093A6067093B8
:1042B000A7068093A8069093A906809194019091F7
:1042C0009501A0919601B0919701820F931FA41FB1
:1042D000B51F8093AA069093AB06A093AC06B0934B
:1042E000AD0682E090E09093AF068093AE060E9408
:1042F00067366093B7067093B8068093B9069093BB
:10430000BA060895EF92FF920F931F931AC02F5F82
:104310003F4F4F4F5F4F2093A6063093A706409321
:10432000A8065093A906D801C70188519C4FAF4FEA
:10433000BF4F8093B7069093B806A093B906B09389
:10434000BA060E946736E090B706F090B806009172
:10435000B9061091BA066E197F09800B910B209156
:10436000A6063091A7064091A8065091A906683E7E
:10437000E3E07E07E0E08E07E0E09E0740F68091F4
:10438000AA069091AB06A091AC06B091AD06281795
:1043900039074A075B0758F1E091A406F091A5069A
:1043A000309729F10995611571058105910539F05D
:1043B0001092A3061092A2060E94532118C081E019
:1043C00090E02091AE063091AF062115310511F431
:1043D00080E090E09093AF068093AE068091A206B5
:1043E0009091A30601969093A3068093A2066091F4
:1043F000A6067091A7068091A8069091A9061F9124
:104400000F91FF90EF9008950E9482210E944E200C
:1044100008950E9482210E9428208091B50690E094
:1044200008950E9482210E9428208091B30690E086
:1044300008950E9482210E9428208091B40690E075
:1044400008950E9482210E9428208091B00690E069
:1044500008950E9482210E9428208091B10690E058
:1044600008950E9482210E9428208091B20690E047
:104470000895EF92FF920F93F701E436F1051CF0D7
:10448000E25BF74001C07E96E093B6060093B50666
:104490002093B4068093B2066093B1064093B006B1
:1044A00080EB96E00E9475200E9453210F91FF90AF
:1044B000EF9008959093A5068093A4068091A60698
:1044C0009091A706A091A806B091A9068093AA068C
:1044D0009093AB06A093AC06B093AD060E948221E8
:1044E0000895609394017093950180939601909341
:1044F000970108952091E00630E08091DF06281BA7
:104500003109C90108958091DF069091E00689176D
:1045100050F4E82FF0E0E154F94F208130E08F5F54
:104520008093DF0602C02FEF3FEFC9010895E091AD
:10453000DF068091E006E81730F4F0E0E154F94F2F
:10454000208130E002C02FEF3FEFC90108950895A8
:10455000CF92DF92EF92FF920F931F93CF93DF934F
:104560006C01CB017A01209104072223A9F0062FC8
:10457000192FC0E0D0E00CC0D8016D918D01D6019B
:10458000ED91FC910190F081E02DC60109952196F5
:10459000CE15DF0588F303C0642F0E94D633DF9168
:1045A000CF911F910F91FF90EF90DF90CF900895E2
:1045B000DF93CF930F92CDB7DEB769838091040765
:1045C000882389F080910307803290F4809102075C
:1045D000E82FF0E0EE51F94F60838F5F8093020780
:1045E0008093030705C0CE01019661E00E94D63397
:1045F0000F90CF91DF9108951092DF061092E006A0
:1046000010920207109203070E9447330895862FE5
:10461000413208F040E26FEB76E00E946033109286
:10462000DF068093E00608950E940723089581E045
:10463000809304076093E10610920207109203072B
:1046400008950E94172308958091E10662EE76E0B6
:104650004091030721E00E949633109202071092C6
:1046600003071092040708958CE292E090930607E6
:1046700080930507089590E0FC0123E0F595E79508
:104680002A95E1F7E95FF84F8770907021E030E0FC
:1046900040E050E004C0220F331F441F551F8A958D
:1046A000D2F78081822B808308951F93182F03C037
:1046B000812F0E943B231150D9F71F910895CF926B
:1046C000DF92EF92FF920F931F93DF93CF9300D06F
:1046D000CDB7DEB70D851E85EF84F8889E012F5E6D
:1046E0003F4FF7018491882309F4A6C00894E11C88
:1046F000F11C843259F0D8011496ED91FC91159774
:1047000081931596FC93EE931497EBCFF7010894E1
:10471000E11CF11C8491863409F442C0873434F4DE
:10472000843451F0853409F06BC04CC08C34A1F056
:10473000833509F065C024C052E0C52ED12CC20ECD
:10474000D31EF80164817581D9018D919C914AE055
:1047500050E00E94103A5BC044E0C42ED12CC20E3F
:10476000D31EF9016081718182819381D8011496F1
:104770004D915C9115972AE030E00E94393A47C08C
:1047800092E0C92ED12CC20ED31EF9016081718135
:10479000D80114968D919C9115970E94FB3937C0D2
:1047A000F9012E5F3F4F8081918106C0F801A481FD
:1047B000B5814D93B583A483FC01019644914423B4
:1047C000A9F78FCFF9012E5F3F4F808191810BC0F8
:1047D000D8011496ED91FC91159781931596FC9351
:1047E000EE931497C6016C010894C11CD11C298357
:1047F0003A830E946E3A29813A81882349F771CF22
:10480000F801A481B5818D93B583A4836ACFD801C3
:1048100014968D919C911597FC0101900020E9F769
:104820003197E81BF90BE80FF91FD8011596FC9397
:10483000EE931497960155CF0F900F90CF91DF9183
:104840001F910F91FF90EF90DF90CF900895CF923E
:10485000DF92EF92FF920F931F93DF93CF930F920C
:10486000CDB7DEB77C018B0188E349830E945523D5
:1048700067E2C62E67E0D62EC601B8010E94212C41
:10488000C701B60149810E949E1C0F90CF91DF9114
:104890001F910F91FF90EF90DF90CF9008950F93AD
:1048A0001F93CF93DF939C018B01EA01009729F0BE
:1048B0008DE297E0B9010E94162C0115110519F03F
:1048C000C8010E94A126209729F08DE397E0BE0140
:1048D0000E94162C81E0DF91CF911F910F910895D6
:1048E000CF92DF92EF92FF920F931F93CF93DF93BC
:1048F000FA0170E0665A7D4F213021F49A01275F5A
:104900003F4F05C0223031F49A012250304040E040
:1049100050E003C020E030E0A901DB01EF0110C04E
:10492000DC90CC241196EC901197FF24EC28FD2804
:1049300000E010E02E0D3F1D401F511F12962297E0
:10494000C230D10568F7DF01AE7FA60FB71FE0FFC9
:104950000FC0EC90FF2400E010E0102F0F2DFE2C74
:10496000EE2402C040E050E02E0D3F1D401F511FBD
:104970007A0100271127E114F1040105110591F7CF
:1049800020953095E82FF0E0E65AFD4F30832183E3
:10499000DF91CF911F910F91FF90EF90DF90CF901B
:1049A0000895109272021092730280E480936E0256
:1049B00010926F028093700288E16EE044E150E053
:1049C00020E00E947024089520917E0230917C02A4
:1049D00030937E0220937C0220917F0230917D02F1
:1049E00030937F0220937D02E4E8F2E02291820F6F
:1049F000911D24818483662311F0208301C01082DD
:104A000022E0E038F20719F0892F9927EFCF1092B2
:104A10008C0210928D0280E5809388020895909117
:104A20006A0280E020916B0230E0282B392B8091C4
:104A3000880290E0F4E095958795FA95E1F7880F64
:104A4000991F880F991F281B390B2451304037FFBD
:104A500002C020E030E0C9010895CF93DF93BC018C
:104A6000CAE5D2E0CE010E94212CCE01069667E273
:104A700077E00E94212CDF91CF9108950F931F932F
:104A8000CF93DF938B010E942D25C8E7D2E0CE01A2
:104A9000B8010E94162CCE0104976DE277E00E94C7
:104AA000162CDF91CF911F910F9108950F931F93B3
:104AB000CF93DF9300E612E0C8010E942D25E801A4
:104AC0006496C8014896BE010E94162CCE016DE284
:104AD00077E00E94162C0E94D124DF91CF911F9184
:104AE0000F910895CF93DF93EC01889690936A021B
:104AF00080936B020E94D12410928C0210928D023E
:104B0000AE01445E5F4F82E36AE122E00E947024BE
:104B1000CE01C6960E94001CDF91CF910895262FEA
:104B2000206120938902643021F0009711F481E024
:104B300090E061E00E94E42410926A0288E280938F
:104B40006B020E94562584E080938A0210928B02A9
:104B500082E36AE14CE150E022E00E94702486E3A7
:104B600090E00E94001C0895CF93DF93EC018091A8
:104B700050079091510760E00E948F2589E1809352
:104B80008902CE010E947225DF91CF9108951F9373
:104B9000CF93DF939C01162F82E597E0B9010E9425
:104BA0003E25C6E6D2E088E0809366021092670256
:104BB000CE01029669EF78E049E050E00E94DC39CE
:104BC0008CE480936B0281E1809371020E94D12476
:104BD00010927E028BE780937F028AE080937C02B2
:104BE00010937D021092800288E3809381021092DC
:104BF000820210928302CE014E9620E3FC011192B4
:104C00002A95E9F762ED79E04AE050E00E94DC394C
:104C100088E26AE140E450E021E00E9470248AE5E5
:104C200090E00E94001CDF91CF911F9108956623B0
:104C300021F020917F022617D9F4209180022223AF
:104C4000B9F420918102283399F420917D022B3709
:104C500089F4FC018091AC0283838091AD02828350
:104C60008091AE0281838091AF02808381E00895BC
:104C700080E0089580E00895EF92FF920F931F93D4
:104C8000CF93DF93182F092FEB01F42EE52E82E549
:104C900097E00E943E258881807F803E31F48AE53E
:104CA00092E06AE372E00E94212C88E08093660221
:104CB0001092670288E692E069EF78E049E050E000
:104CC0000E94DC3910926A0281E180937102E092C5
:104CD0007E02F0927F0200937C0210937D0210927C
:104CE00080021092820210928302DF91CF911F9175
:104CF0000F91FF90EF9008951F93CF93DF93EC01F6
:104D00004C9690936A02CE011C2F845E80936B02B6
:104D10000E94D124CE01089690938002185F1093D0
:104D20008102AE01405F5F4F88E26AE121E00E94AC
:104D30007024CE018A960E94001CDF91CF911F91B2
:104D40000895BC0181E08093450785E397E00E94C8
:104D5000162C0895DF92EF92FF920F931F93CF933B
:104D6000DF938C01009709F0B5C0809145078570ED
:104D7000E9F180919A0190919B010097B9F50E9409
:104D8000E71B882399F18AE392E00E942D2588E0B1
:104D90008093660216E01093670288E692E061EF66
:104DA00078E048E050E00E94DC39CAE7D2E0DE015A
:104DB0001D921A95E9F7CE010A9767E277E00E9403
:104DC000212CCE01069665E377E00E94162CCE01D9
:104DD00004976DE277E00E94162C80914507886069
:104DE000809345078AE290E00E94001C80919A011E
:104DF00090919B01019690939B0180939A018091E1
:104E00004607813009F024C28091450781FF20C206
:104E100012E01093460780919C018F5F80939C0164
:104E20008F71009147070295000F007E082BD090EC
:104E30004807F090490782E597E061E477E00E9437
:104E40003E25E8E0EE2EE09266021092670288E6C8
:104E500092E069EF78E049E050E00E94DC398CE2B2
:104E600080936B0286E0809371020E94D124D092DD
:104E70007E02F0927F028BE080937C0200937D02A1
:104E8000E0E8F2E0DF011D92EA94E9F780919D01EC
:104E9000809382028D5F80939D0180E680938802DB
:104EA0001093890283E080938A0210928B02109201
:104EB0008C0210928D0210928E0210928F0210932B
:104EC000900284E0809391021093920286E2809394
:104ED00093028DC18932910508F4BAC1E09066024F
:104EE000BE2DB83009F0BFC180916702863009F04D
:104EF000BAC180E892E06DE277E044E050E00E94C1
:104F0000E539009709F0AFC180916F02813029F532
:104F100080E692E00E942D2510926E0282E080933E
:104F20006F028AE792E060E772E00E94212C80E73E
:104F300092E067E277E00E94212C80E892E066E749
:104F400072E00E94162C86E792E06DE277E00E9404
:104F5000162C8AE290E00E94001C8091450783FF96
:104F600077C110916F02123009F072C186E792E0AA
:104F700065E377E044E050E00E94E539009709F0EE
:104F800067C182E597E060E772E00E94212C1093F0
:104F900045075EC1EE2DE83009F05AC180916702E5
:104FA000882309F055C180916802853409F050C109
:104FB00088E792E06DE277E044E050E00E94E53956
:104FC000009709F045C1809171028130F9F4909108
:104FD0007C029830D9F4E0914A07F0914B07309762
:104FE00019F084E792E009950E94562510927C0200
:104FF00090917E02983F28F080917F028F5F80938E
:105000007F02985F90937E02C801FAC006331105B3
:1050100018F4863009F01CC120917E022B3009F073
:10502000A4C084E792E061E477E044E050E00E94AD
:10503000E539009709F00CC1E0908902FF24E2FEF7
:1050400013C0E0914C07F0914D07309709F484C0EC
:1050500080917F0282958695877063E040E050E002
:1050600020E030E0099578C00E940F25EC01809186
:105070004607823079F5C7018271907082319105BF
:10508000E9F480E090E060E00E948F2588E1809361
:105090008902E0914E07F0914F07309739F08091E7
:1050A0007D02829586958770099502C080E090E028
:1050B00023E0209346070E947225CAC081E08093B6
:1050C0004607E4FC03C0CE01019602C080E090E0F8
:1050D00064E0BCC0833091F5209781F1E0914C07EA
:1050E000F0914D07309751F14091880250E074E003
:1050F000559547957A95E1F7440F551F440F551F75
:10510000C80108974E5D5F4F8417950708F4AC01FE
:10511000CE01840F951F0817190720F49801241B4E
:10512000350B01C09E0180917F0282958695877024
:1051300060E00995882311F0CE010BC080914607ED
:10514000853009F485C08091890280FF09C0CE01B5
:10515000019669E00E948F2585E08093460778C01C
:10516000209709F477C0CE0170C04091980130E0DB
:105170008091990190E02817390709F069C0809162
:105180007F02841709F064C0F0908902F1FE3BC0F1
:1051900010926A028CE280936B020E94562582E193
:1051A0008093890281E090E060E00E94E424109204
:1051B00080021092810280919D0180938202109260
:1051C00083028D5F80939D0182E08093900284E052
:1051D0008093910285E0809392021092930290E670
:1051E0009093880280938A0288E780938B0282E3FF
:1051F0006AE140E250E022E00E9470248AE390E0FD
:105200000E94001C25C0F4FE23C00E940F2590932D
:105210005107809350070097A1F080918802C82F12
:10522000D0E054E0D595C7955A95E1F7CC0FDD1F36
:10523000CC0FDD1FA296085010400C171D0750F42C
:1052400007C0F0FE05C080E090E060E00E948F257E
:10525000C0E0D0E0CE01DF91CF911F910F91FF9080
:10526000EF90DF9008950A32110508F093CEF0CF49
:10527000E0916507F09166078193F0936607E093EC
:10528000650708951F93CF93DF93182FEB0104C098
:1052900089910E94382911501123D1F7DF91CF91C4
:1052A0001F9108951F93CF93DF93182F0E94E71B40
:1052B000882309F492C010935807CAE5D2E086E12A
:1052C00091E0FE019C01119221503040E1F784E40D
:1052D00090E06DE277E043E450E00E943C26CE018E
:1052E000069667E277E00E94212CCE0160E472E02E
:1052F0000E94212C82E880936B0281E180937102ED
:10530000CE014E9660E472E00E94162CAA9681E0CF
:1053100080938402898386E08A83809161079091DB
:105320006207A0916307B09164078C839D83AE836D
:10533000BF8380EA92E067E277E00E94212C80E759
:1053400093E0909366078093650786E06FEA71E0CB
:105350000E94422910915807812F0E9438298DE31D
:105360000E94382987E00E94382981E00E9438296C
:1053700086E067E277E00E9442298CE00E943829AB
:105380008AE00E9438298AE06EE971E00E94422991
:105390001330B1F482E30E94382984E00E94382956
:1053A00084E06DE277E00E94422986E30E9438297A
:1053B00084E00E94382984E069E377E00E94422972
:1053C00086E069EA71E00E94422980916507909128
:1053D0006607845892400E947C26DF91CF911F91EE
:1053E0000895CF92DF92EF92FF920F931F93CF9386
:1053F000DF930E9467366093610770936207809322
:1054000063079093640780912C07982F92959F7063
:105410009F5B9093A6018F708F5B8093A701109282
:105420002D070E94991C10E0109258070E946736C1
:105430006B01C8C00E94351CEC018091580788237D
:1054400009F4DDC0209709F4BDC0CE010E94AA2650
:10545000009709F4D4C0B6C081E095C0C634D10528
:1054600008F4A0C080917D02833409F09BC0809134
:105470008402823009F096C020918802309189021E
:1054800040918A0250918B0280916107909162074E
:10549000A0916307B0916407281739074A075B0793
:1054A00009F080C080917403853309F07BC080913E
:1054B0007603823021F0853009F074C067C08DE238
:1054C00097E064E972E00E94162CA4E7B3E05AE585
:1054D000E52E52E0F52EEC0EFD1E11960C91119763
:1054E000ED0122968C91863099F0873030F481302E
:1054F00049F0833009F03FC008C0833361F0863340
:10550000D1F534C081E397E033C085E397E030C044
:105510008DE397E02DC010925D0710925E07109208
:105520005F0710926007FD0132969D012A5F3F4F91
:1055300060E070E0CB014191640F711D811D911DF0
:10554000982F872F762F6627E217F307A1F728EE0B
:1055500033E040E050E00E94443960935D0770936F
:105560005E0780935F079093600705C089E397E02B
:10557000BE010E94162CDE01A00FB11DAE15BF05A5
:1055800008F4ABCF83E00E9452290CC080935807E7
:105590000E9467366093590770935A0780935B07A0
:1055A00090935C0780912D07882361F080913507E7
:1055B000882321F085E397E00E94A1260E945D1DCB
:1055C00081E014C080912D07882339F50E94673649
:1055D0006C197D0987E260317807F8F40E94E71BB7
:1055E000882381F327CF0E945D1D80E0DF91CF915A
:1055F0001F910F91FF90EF90DF90CF9008958091D1
:105600005807813009F42ACF813008F425CF833040
:1056100009F424CF863031F61FCF1F5F133009F015
:1056200003CFE1CF6AE00E9463398295807F890FC2
:1056300008950F931F93CF93DF938C01C5E0D7E0BC
:10564000CE0168E670E00E942123CE0160E00E9456
:10565000D822F80180810E94122B682FCE010E946F
:10566000D822F80181810E94122B682FCE010E945E
:10567000D822F80182810E94122B682FCE010E944D
:10568000D822F80183810E94122B682FCE010E943C
:10569000D822F80184810E94122B682FCE010E942B
:1056A000D822F80185810E94122B682FCE010E941A
:1056B000D822F80186818E510E94122B682FCE01CC
:1056C0000E94D822CE010E942423DF91CF911F9106
:1056D0000F9108950F931F93DF93CF93CDB7DEB74C
:1056E00027970FB6F894DEBF0FBECDBF8E010F5FB8
:1056F0001F4FA8010E944E1F898180688983C801BD
:105700000E94192B89818F778983C8010E94192BE8
:1057100027960FB6F894DEBF0FBECDBFCF91DF91B5
:105720001F910F910895982F92959F70990F292F8F
:10573000220F220F290F8F70820F08950F931F934E
:10574000CF93DF938C01C5E0D7E0CE0168E670E02F
:105750000E942123CE0160E00E94D822CE010E9447
:105760002423CE0168E670E047E050E00E94142355
:10577000CE010E9483228F770E94932BF8018083B1
:10578000CE010E9483220E94932BF8018183CE01D7
:105790000E9483228F730E94932BF8018283CE0193
:1057A0000E9483220E94932BF8018383CE010E94E2
:1057B00083220E94932BF8018483CE010E948322CE
:1057C0000E94932BF8018583CE010E9483220E94C0
:1057D000932B825EF8018683DF91CF911F910F9109
:1057E00008950F931F93DF93CF93CDB7DEB727971D
:1057F0000FB6F894DEBF0FBECDBF8E010F5F1F4FF7
:10580000C8010E949E2BC8010E94752027960FB6E2
:10581000F894DEBF0FBECDBFCF91DF911F910F91E6
:10582000089585E097E00E94FC220895FB01208105
:10583000318142815381FC01208331834283538330
:105840000895282F392FD901862F972FFC0186E044
:1058500001900D928150E1F70895FC01A22FB32F22
:1058600090E00CC011968C91882339F43196808198
:105870008D3381F4A22FB32F91E03196808188235C
:1058800061F0803251F08A3041F0992341F45C910B
:10589000851741F3A22FB32FF0CF9130C9F4A62F73
:1058A000B72F50E0415050408A2F861B9191992389
:1058B00069F0903259F09A3049F0963239F0282F39
:1058C00030E02417350714F49D93EECF1C92089511
:1058D00080E00895982F80538A3050F081538630AD
:1058E00020F0892F8154863010F4865F089580E07F
:1058F0000895DF92EF92FF920F931F93CF93DF9360
:10590000EC018C011CC09B32A9F09532A1F47E0100
:105910000894E11CF11C89810E946A2CD82EE701B1
:105920002196F70181810E946A2C9D2D9295907F8E
:10593000982B01C090E2F80191938F0121969881F4
:10594000992309F7F8011082DF91CF911F910F91F0
:10595000FF90EF90DF900895E0918307F091840726
:10596000099508950E94112290E0059667E070E085
:105970000E9483390895EF92FF920F931F93CF9364
:10598000DF9387E060E00E94AF35CEE7D7E08091FB
:105990007A07982F9370913041F49091C401992324
:1059A00011F082FD02C0888101C080E007E010E0B4
:1059B000E82EFF2486E060E00E94AF35B701002E9C
:1059C00002C0759567950A94E2F76170707085E082
:1059D0000E94AF3586E061E00E94AF350150104073
:1059E0008FEF0F3F180731F7219787E0CA37D807A5
:1059F00071F687E061E00E94AF35DF91CF911F9192
:105A00000F91FF90EF9008952091C101222311F191
:105A100030E02150304081E090E002C0880F991FB3
:105A20002A95E2F7282F209530917B072323209396
:105A30007B074091C00130E0E32FF0E0E558F84FDC
:105A40005081552321F0822B80937B0708953F5F7F
:105A5000431790F7089510927B0710927C071092DD
:105A60007D0710927E070E94042D089587E061E073
:105A70000E948B3583E061E00E948B3586E061E017
:105A80000E948B3585E061E00E948B3587E061E004
:105A90000E94AF3583E061E00E94AF350E942B2D5C
:105AA0000E94BB2C83E060E00E94AF358FE060E095
:105AB0000E948B358FE061E00E94AF3585E097E072
:105AC0000E94FC2281E080937A0787E697E060E1FC
:105AD00042E020E00E94671E0895E82FE695E695D3
