:100000000C9409060C9431060C9431060C943106BC
:100010000C9431060C9431060C9431060C94310684
:100020000C9431060C9431060C9431060C94310674
:100030000C9431060C9431060C9431060C94310664
:100040000C94D03A0C9431060C9431060C94310681
:100050000C9431060C9431060C9431060C94310644
:100060000C9459390C943106687474703A2F2F72BD
:10007000617973686F6262792E6E65742F73637233
:10008000697074732F6A6176612F737663312E38CD
:1000900000485454502F312E3020323030204F4BF6
:1000A0000D0A436F6E74656E742D547970653A2035
:1000B000746578742F68746D6C0D0A507261676D89
:1000C000613A206E6F2D63616368650D0A0D0A0049
:1000D0003C6D657461206E616D653D766965777014
:1000E0006F727420636F6E74656E743D22776964FD
:1000F00074683D363430223E0D0A00485454502F67
:10010000312E302034303120556E617574686F7235
:10011000697A65640D0A436F6E74656E742D547947
:1001200070653A20746578742F68746D6C0D0A0DD3
:100130000A3C68313E34303120556E617574686F09
:1001400072697A65643C2F68313E0077696E646F2E
:10015000772E6C6F636174696F6E3D222F223B3C7A
:100160002F7363726970743E0A00637600767000C4
:100170006D7000647000637000677000766F0063DC
:100180006F00736E00707300767300637300767295
:1001900000637200706E0024460024440024440072
:1001A00024460024463C6D65746120687474702D8B
:1001B00065717569763D2272656672657368222085
:1001C000636F6E74656E743D22313B2075726C3DB9
:1001D0002F223E0024463C7363726970743E616C4A
:1001E00065727428224F7074696F6E732076616C2B
:1001F0007565732073617665642E22293B24460061
:1002000024463C7363726970743E616C6572742835
:10021000224E65772070617373776F726473206DFF
:10022000757374206D617463682122293B77696E50
:10023000646F772E6C6F636174696F6E3D222F76E9
:100240006F223B3C2F7363726970743E0A00244630
:100250003C7363726970743E616C65727428224EDF
:1002600065772070617373776F7264207365742E85
:1002700022293B24460024463C7363726970743E15
:10028000616C657274282256616C756573206F7598
:1002900074206F6620626F756E642122293B776936
:1002A0006E646F772E6C6F636174696F6E3D222F81
:1002B000766F223B3C2F7363726970743E0A002490
:1002C000463C7363726970743E2446005265626FE7
:1002D0006F74696E672E2E2E0024463C6D65746126
:1002E00020687474702D65717569763D227265663B
:1002F000726573682220636F6E74656E743D22248C
:10030000443B2075726C3D2F223E003C7363726942
:100310007074207372633D2224462F766965776F6F
:100320007074696F6E732E6A73223E3C2F73637212
:100330006970743E0A003C2F7363726970743E0AE0
:1003400000305D3B766172206E6F7074733D2444A3
:100350002C6C6F633D222453223B00222446222C26
:1003600024442C24442C24442C003C736372697074
:10037000743E766172206F7074733D5B0024462476
:1003800046003C736372697074207372633D22246B
:10039000462F686F6D652E6A73223E3C2F73637221
:1003A0006970743E0A003C736372697074207372E2
:1003B000633D22706E2E6A73223E3C2F7363726916
:1003C00070743E0A000A766172206C72756E3D5B35
:1003D00024442C24442C24442C244C5D3C2F736353
:1003E000726970743E0A005B302C305D5D3B0A76AA
:1003F000617220656E3D24442C72643D24442C724D
:10040000733D24442C6D6D3D24442C726473743D03
:10041000244C2C6D61733D24442C7572733D24442F
:100420002C776C3D24442C697061733D24442C6C02
:100430006F633D222453223B005B24442C244C5DFB
:100440002C00305D3B7661722070733D5B0024446C
:100450002C00766172206E6272643D24442C747AA2
:100460003D24442C73626974733D5B003C7363727A
:100470006970743E766172207665723D24442C6406
:100480006576743D244C3B0A002446244600776977
:100490006E646F772E6C6F636174696F6E3D222F8F
:1004A0007670223B3C2F7363726970743E0A006160
:1004B0006C657274282250726F6772616D202444DB
:1004C000206D6F64696669656422293B00616C6513
:1004D000727428224E65772070726F6772616D208A
:1004E00061646465642E22293B0024463C73637278
:1004F0006970743E003C7363726970742073726338
:100500003D2224462F706C6F7470726F672E6A7371
:10051000223E3C2F7363726970743E0A003C736321
:1005200072697074207372633D22706E2E6A73223A
:100530003E3C2F7363726970743E0A00305D3B006D
:1005400024442C00766172206D61736F703D5B00F6
:1005500024463C7363726970743E766172206D61EB
:10056000733D24442C776C3D24442C7364743D24E7
:10057000442C6D746F6E3D24442C6D746F66663D23
:1005800024442C6465766461793D24442C6465764A
:100590006D696E3D24442C64643D24442C6D6D3D96
:1005A00024442C79793D24443B0024463C736372F7
:1005B0006970743E77696E646F772E6C6F636174D7
:1005C000696F6E3D222F7670223B3C2F73637269F8
:1005D00070743E0A003C73637269707420737263B6
:1005E0003D2224462F6D6F6470726F672E6A7322EE
:1005F0003E3C2F7363726970743E0A003C2F736334
:10060000726970743E0A3C7363726970742073720D
:10061000633D22706E2E6A73223E3C2F73637269B3
:1006200070743E0A005D3B002C2444007661722009
:1006300070726F673D5B24442C24442C24442C248A
:10064000442C24442C24442C2444003C73637269BD
:1006500070743E766172206E626F617264733D24C5
:10066000442C7069643D24442C697061733D2444BA
:100670003B0024462446003C736372697074207307
:1006800072633D2224462F7669657770726F672EFC
:100690006A73223E3C2F7363726970743E0A003C99
:1006A000736372697074207372633D22706E2E6A78
:1006B00073223E3C2F7363726970743E0A002446B5
:1006C00024463C7363726970743E0024463C736335
:1006D000726970743E2446003C73637269707420C2
:1006E0007372633D2224462F76696577726F2E6A96
:1006F00073223E3C2F7363726970743E0A003C7330
:100700006372697074207372633D22706E2E6A7317
:10071000223E3C2F7363726970743E0A00305D3B69
:100720003C2F7363726970743E0A0024442C0024C9
:100730004624463C7363726970743E766172206E23
:10074000626F617264733D24442C6D61733D244477
:100750002C697061733D24442C6475723D5B003CD0
:10076000736372697074207372633D707324442ED6
:100770006A733E3C2F7363726970743E0A003C2FAB
:100780007363726970743E0A00766172206E7072D3
:100790006F67733D24442C6E626F617264733D24F5
:1007A000442C697061733D24442C6D6E703D24446B
:1007B0002C70643D5B5D3B002446005D3B002C24B7
:1007C000440070645B24445D3D5B24442C24442C31
:1007D00024442C24442C24442C24442C244400243D
:1007E000463C7363726970743E616C657274282252
:1007F00053746174696F6E206368616E67657320FE
:1008000073617665642E22293B2446002446766176
:10081000722000305D3B3C2F7363726970743E0A36
:100820003C736372697074207372633D2224462F97
:100830007669657773746174696F6E732E6A73225B
:100840003E3C2F7363726970743E0A0024442C008E
:10085000766172206D61736F703D5B0024463C735E
:1008600063726970743E766172206E626F61726449
:10087000733D24442C6D61786C656E3D24442C6D71
:1008800061733D24442C697061733D24442C00271E
:10089000275D3B0A00272453272C00736E616D658A
:1008A000733D5B005265636F6E6E656374696E675E
:1008B0002E2E2E0020746865206E6574776F726B23
:1008C0002E2E2E00436F6E6E656374696E67207402
:1008D0006F000001080006040001450000820000CE
:1008E000400020504F535420244620485454502F49
:1008F000312E310D0A486F73743A2024460D0A24B4
:100900004624534163636570743A202A2F2A0D0AE6
:10091000436F6E6E656374696F6E3A20636C6F73BC
:10092000650D0A436F6E74656E742D4C656E677449
:10093000683A2024440D0A436F6E74656E742D541A
:100940007970653A206170706C69636174696F6E6B
:100950002F782D7777772D666F726D2D75726C6598
:100960006E636F6465640D0A0D0A24530047455495
:10097000202446245320485454502F312E310D0A40
:10098000486F73743A2024460D0A4163636570749E
:100990003A20746578742F68746D6C0D0A436F6E1D
:1009A0006E656374696F6E3A20636C6F73650D0AD0
:1009B0000D0A00E30004FA0001000000014669721C
:1009C0006D77617265207665722E0054696D6520C1
:1009D0007A6F6E653A004E54502053796E633A0038
:1009E00055736520444843503A00537461746963F9
:1009F0002E6970313A006970323A006970333A00FA
:100A00006970343A00476174657761792E69703195
:100A10003A006970323A006970333A006970343ACA
:100A2000004854545020706F72743A00004175743D
:100A30006F207265636F6E6E6563743A00457874FB
:100A40002E20626F617264733A0053657175656E32
:100A50007469616C3A0053746174696F6E206465E7
:100A60006C61793A004D61737465722073746174BE
:100A7000696F6E3A004D61732E206F6E2061646A5B
:100A80002E3A004D61732E206F66662061646A2ED7
:100A90003A00557365207261696E2073656E736FDD
:100AA000723A004E6F726D616C6C79206F70656E7A
:100AB0003A005761746572206C6576656C20282554
:100AC000293A0053656C66746573742074696D65AA
:100AD0003A0049676E6F72652070617373776F7249
:100AE000643A00526573657420616C6C3F004D6F11
:100AF0006E00547565005765640054687500467251
:100B000069005361740053756E002073656300259E
:100B1000004E6F00596573002B002B0020474D5489
:100B2000003030003A002D002B0000202020200053
:100B30002D5261696E2053746F702D002D446973BE
:100B400061626C6564212D003A0045004D433A0016
:100B50003A002E002D0020002020003A0020004204
:100B6000333A686F6C6420746F207361766500425D
:100B7000333A73656C2042312F42323A6368670022
:100B80003D3D536574204F7074696F6E733D3D0039
:100B9000506C6561736520576169742E2E2E00526A
:100BA0006573657474696E6720454550524F4D00FA
:100BB00000000000240027002A000000000025009B
:100BC00028002B0000000000230026002900040458
:100BD00004040404040402020202020203030303E5
:100BE00003030102040810204080010204081020C1
:100BF00001020408102000000007000201000003A9
:100C000004060000000000000000F41D0D1F4F301E
:100C1000853811241FBECFEFD8E0DEBFCDBF12E074
:100C2000A0E0B1E0E2EEFDE702C005900D92A23B2C
:100C3000B107D9F718E0A2EBB2E001C01D92AA34C7
:100C4000B107E1F71CE0C2E1DCE004C02297FE013D
:100C50000E94FD3DCA30D107C9F70E94793C0C942F
:100C6000EF3E0C940000CF93DF93EBEBF2E0CBE38D
:100C7000D3E0ABEBB3E01192119211921192199261
:100C80001992199219921D9283E0EB33F80799F7A4
:100C9000DF91CF91089584E192E00E94BF3E80935E
:100CA000B20208950E9433060E944B061092B302CE
:100CB0001092B4021092B6021092B5021092B702CE
:100CC0001092B8021092B9021092BA02089584E10B
:100CD00092E06091B2020E94D13E08951092B20259
:100CE0000E9467060895282FCB013091B202231786
:100CF00050F46FE0269FB00111246A5E7D4F4FE0F3
:100D000050E00E94AF3E08952091B202203288F454
:100D10006FE0269FB00111246A5E7D4F4FE050E0E6
:100D20000E94C73E8091B2028F5F8093B2020E9400
:100D300067060895282FCB013091B202231750F493
:100D40006FE0269FB00111246A5E7D4F4FE050E0B6
:100D50000E94C73E0895EF92FF920F931F93DF9377
:100D6000CF93CDB7DEB760970FB6F894DEBF0FBE56
:100D7000CDBF9091B2028917A8F5992399F190E01F
:100D800001968C0124E0000F111F2A95E1F7081B42
:100D9000190B0A5E1D4F2FE07E010894E11CF11C27
:100DA00012C0C701B8014FE050E0288B0E94AF3E4F
:100DB000B8016F507040C7014FE050E00E94C73E3D
:100DC000015F1F4F28893091B202329FC001112468
:100DD0008A5E9D4F0817190720F331503093B202F5
:100DE0000E94670660960FB6F894DEBF0FBECDBFB7
:100DF000CF91DF911F910F91FF90EF9008956F9227
:100E00007F928F929F92AF92BF92CF92DF92EF929A
:100E1000FF920F931F93DF93CF930F92CDB7DEB75F
:100E20003C017A018B01CB01BA010E94E52D4C01F6
:100E3000C801B7010E94DF2D5C01D3011E968C9181
:100E40001E97882309F48EC0CC90C7FE23C011964C
:100E5000DC90BD2DB230F0F0C801B70120E831E5DB
:100E600041E050E00E94D93D79018A012D2D30E00A
:100E700040E050E0C801B7010E94D93DEFE7CE2223
:100E8000DD24EE24FF246C157D058E059F0509F0F9
:100E900069C036C0C801B7010E94D32DD3012C917F
:100EA00030E090E0059667E070E00E94C63D02C029
:100EB000359527958A95E2F720FF54C0C801B70100
:100EC0000E94D92D282FF301808187FF19C08181CD
:100ED000882319F420FF14C045C0813089F42F31D4
:100EE00009F440C02D3109F04EC0C801B701298373
:100EF0000E94CD2D29818230910509F044C032C075
:100F00008CE390E0889EF001899EF00D989EF00D94
:100F10001124EA0DFB1DD30112968D919C9113971C
:100F2000E817F907F8F014962D913C9115972E17B4
:100F30003F07C0F016962D913C911797211531056A
:100F400089F0E81BF90BCF01B9010E94B23D629F05
:100F5000A001639F500D729F500D112481E04E1728
:100F60005F0709F080E00F90CF91DF911F910F9103
:100F7000FF90EF90DF90CF90BF90AF909F908F90B9
:100F80007F906F90089520FDBBCFECCF9F92AF92E2
:100F9000BF92CF92DF92EF92FF920F931F93CF9366
:100FA000DF93EC01988019810E94F82EA12EBB24BA
:100FB000CC24DD24292D2F77E22EFF24E10EF11C15
:100FC0000027F7FC0095102F20E831E541E050E0C4
:100FD0000E94D93DCA01B901A60195010E94D93DDF
:100FE000E61AF70A080B190BC801B701A60195010B
:100FF0000E94D93D892D8078862B8883DF91CF91FF
:101000001F910F91FF90EF90DF90CF90BF90AF9026
:101010009F900895CF92DF92EF92FF920F931F93CC
:10102000CF93DF93EC01D880C9800E94F82E20E88E
:1010300031E541E050E00E94D93D79018A018D2DD2
:101040008F77E80EF11C011D111D2C2D30E040E0C2
:1010500050E0C801B7010E94D93D8D2D8078862BC4
:101060008883DF91CF911F910F91FF90EF90DF90D8
:10107000CF900895FC01A481B5816D93B583A483BD
:1010800008958F929F92BF92CF92DF92EF92FF923C
:101090000F931F93CF93DF938DB79EB708970FB62B
:1010A000F8949EBF0FBE8DBFEDB7FEB731969EEC94
:1010B000E92E96E0F92EADB7BEB71296FC92EE92ED
:1010C00011978DE793E09383828381E990E0958384
:1010D000848380ED90E0978386830E94EF230F90B6
:1010E0000F900F900F90EDB7FEB7F282E1828AE683
:1010F00093E0948383830E94EF2300EC11E00F9030
:101100000F900F900F90C0E0D0E0DD24BE2CCF2CCC
:101110008BE5E82E83E0F82E4E017C2F692DD80157
:1011200014968C91149781FF3AC012964D915C9160
:10113000139721E030E011968C911197813011F0D6
:1011400020E030E0F8018081C43119F490E0CC97C0
:1011500001C090E0EDB7FEB73C970FB6F894FEBF24
:101160000FBEEDBF3196ADB7BEB71196BC921197C9
:101170001296CC92F382E28255834483378326838E
:1011800091878087728763870E94EF23D394EDB79E
:10119000FEB73C960FB6F894FEBF0FBEEDBF21968A
:1011A0000B5F1F4FCB31D10509F0B6CFCDEAD6E0AA
:1011B00080E390E0BE010E943E388DB79EB708974D
:1011C0000FB6F8949EBF0FBE8DBFEDB7FEB7319638
:1011D0000EEC16E0ADB7BEB712961C930E931197A6
:1011E00081E493E093838283D4821582D783C6837C
:1011F0000E94EF230F900F900F900F90EDB7FEB766
:101200001283018386E393E0948383830E94EF2318
:1012100000D0EDB7FEB73196ADB7BEB712961C93AE
:101220000E9311978BE093E09383828388E690E09E
:10123000958384830E94EF23EDB7FEB736960FB6F1
:10124000F894FEBF0FBEEDBF81E0DF91CF911F91FB
:101250000F91FF90EF90DF90CF90BF909F908F9075
:101260000895BF92CF92DF92EF92FF920F931F9358
:10127000DF93CF93CDB7DEB72F970FB6F894DEBFCD
:101280000FBECDBF8C010D5F1F4FC8010E94B9304A
:10129000C8016DEA76E040E220E031E00E946D3066
:1012A000882309F411C18DEA96E00E94013E8C0169
:1012B0008FEF0F3F18070CF407C18091B20290E046
:1012C000081719070CF000C1ADB7BEB718970FB6D5
:1012D000F894BEBF0FBEADBFEDB7FEB731963EEC82
:1012E000E32E36E0F32E1296FC92EE92119782E7EF
:1012F00096E09383828381E990E09583848380EDF7
:1013000090E0978386830E94EF2300D0EDB7FEB76D
:101310003196ADB7BEB71296FC92EE9211978BE460
:1013200096E0938382838091C40784831582178318
:10133000068380913D02808711860E94EF23EDB7DE
:10134000FEB73A960FB6F894FEBF0FBEEDBFFFEFA3
:101350000F3F1F0709F48CC0802F8E010F5F1F4FB6
:10136000B8010E9473068A81823018F0C8010E9479
:10137000C6078DB79EB742970FB6F8949EBF0FBEB3
:101380008DBFEDB7FEB731960EEC16E0ADB7BEB728
:1013900012961C930E9311978CE296E093838283AE
:1013A0008F85848315828981868317828A818087CD
:1013B00011868B819C81938782878D819E81958701
:1013C00084878F8198859787868789859A85918B71
:1013D000808B0E94EF23EDB7FEB772960FB6F8949C
:1013E000FEBF0FBEEDBFDD24B02EC12E28E2E22EDF
:1013F00026E0F22E8E01055F1F4F20C000D000D0E6
:1014000000D0EDB7FEB73196ADB7BEB71196BC921E
:1014100011971296CC92F382E282D801AD0DB11DE4
:101420008C91848315820E94EF23D394EDB7FEB78D
:1014300036960FB6F894FEBF0FBEEDBF8091C4077D
:10144000D816E0F200D000D08EEC96E0ADB7BEB773
:1014500012969C938E93119785E296E014969C9336
:101460008E9313970E94EF230F900F900F900F9081
:1014700000D000D00EEC16E0EDB7FEB7128301836A
:101480008CEF95E0948383830E94EF2300D0EDB727
:10149000FEB73196ADB7BEB712961C930E93119757
:1014A00085ED95E09383828388E690E0958384833D
:1014B0000E94EF23EDB7FEB736960FB6F894FEBF45
:1014C0000FBEEDBF81E001C080E02F960FB6F8940B
:1014D000DEBF0FBECDBFCF91DF911F910F91FF9067
:1014E000EF90DF90CF90BF9008959F92AF92BF9200
:1014F000CF92DF92EF92FF920F931F93CF93DF93E0
:101500002DB73EB72E5030400FB6F8943EBF0FBEF9
:101510002DBFEDB7FEB731966EECE62E66E0F62EE7
:10152000ADB7BEB71296FC92EE9211978FE297E09C
:101530009383828381E990E09583848380ED90E0BA
:10154000978386838091C4078087118680911A02D1
:101550008287138680913D02848715860E94EF233F
:10156000EDB7FEB73E960FB6F894FEBF0FBEEDBFC7
:10157000C0EDD1E0BB24AE2C9F2C5BE2E52E57E002
:10158000F52E29C0CE010E94BF3E182F00E0CE01EB
:1015900001960E94BF3E00D000D000D0EDB7FEB74C
:1015A0003196ADB7BEB71196AC92119712969C9238
:1015B000F382E2829801280F311D358324830E9433
:1015C000EF23B39422968DB79EB706960FB6F89484
:1015D0009EBF0FBE8DBF8091C5074EECC42E46E066
:1015E000D42EB81678F200D000D0ADB7BEB71296A0
:1015F000DC92CE9211978DE197E014969C938E9396
:1016000013970E94EF23EDB7FEB7D282C1828EEF0F
:1016100096E0948383830E94EF2300D0EDB7FEB75A
:101620003196ADB7BEB71296DC92CE92119788ED87
:1016300096E09383828388E690E0958384830E947A
:10164000EF23EDB7FEB736960FB6F894FEBF0FBE88
:10165000EDBF81E0DF91CF911F910F91FF90EF904F
:10166000DF90CF90BF90AF909F90089582E00E944E
:101670006036282F30E086FF41C02F703070223056
:10168000310591F02430310509F121303105B1F5F2
:1016900087FF03C00E944233089560919C017091BE
:1016A0009D0182E197E009C087FF03C00E944C338F
:1016B00008958AE197E060E070E00E94573460EDA1
:1016C00077E080E090E00E94583B089587FF06C0D5
:1016D00081E00E9460360E943D3108952091C30749
:1016E000822F8F7090E001966091C40770E00E9495
:1016F000C63D8F70207F282B2093C30708951F932A
:10170000182F0E94F82EE12FF0E0EE0FFF1FEE0FD2
:10171000FF1FE55CFC4F60837183828393831F917D
:1017200008950F931F93CF93DF93182FEB010E941F
:10173000F82E012F10E0D801AA0FBB1FAA0FBB1F64
:101740009D0125543D4FF90160837183828393830A
:10175000A55CBC4F209751F4605477458F4F9F4F45
:101760006D937D938D939C9313970EC09E01442798
:1017700037FD4095542F260F371F481F591F2D93B3
:101780003D934D935C931397F801E554FC4F8FEF15
:1017900080838091C20788608093C207DF91CF91D8
:1017A0001F910F910895AF92BF92CF92DF92EF9267
:1017B000FF920F931F93CF93DF93DC011296CDEA34
:1017C000D6E0E0E08D018D91982F90539A3028F467
:1017D000E43019F08993EF5FF5CFF0E0E355F94F6E
:1017E00010828DEA96E00E94013EEC0197FDE5C073
:1017F0008091C50790E08C179D070CF4DEC0D801DE
:101800008C918D3309F04DC0209709F4D6C080919A
:10181000C20784FFD2C02197C801019611962C916E
:101820001197203321F48C2F0E947F0B19C0213394
:1018300009F0C3C06DEA76E040E224E031E00E94A6
:101840006D30882341F08DEA96E00E94013EBC0194
:1018500097FF03C0B2C060E070E08C2F0E94910B34
:1018600000D000D000D0EDB7FEB731968EEC96E0F8
:10187000ADB7BEB712969C938E93119783EA91E011
:101880009383828381E990E0958384830E94EF2390
:10189000EDB7FEB736960FB6F894FEBF0FBEEDBF9C
:1018A0008AC000D000D000D0EDB7FEB731968EECE4
:1018B00096E0ADB7BEB712969C938E93119780EACF
:1018C00091E09383828381E990E0958384830E94F1
:1018D000EF23EDB7FEB736960FB6F894FEBF0FBEF6
:1018E000EDBF209721F48091C50700E003C08C2F45
:1018F0000C2F015010E0C82FD0E06EECE62E66E011
:10190000F62E5AE9C52E51E0D52E4DE9A42E41E020
:10191000B42E4DC08091C207982F9370913059F525
:1019200090912902992311F082FD25C000D000D0AA
:1019300000D0EDB7FEB73196ADB7BEB71296FC92A8
:10194000EE921197B382A282D80133E0B595A795A4
:101950003A95E1F7AA53B84F8C9190E0980127701F
:10196000307002C0959587952A95E2F78170907046
:101970009583848310C000D000D000D0EDB7FEB7AF
:101980003196ADB7BEB71296FC92EE921197D38204
:10199000C282158214820E94EF23EDB7FEB73696FD
:1019A0000FB6F894FEBF0FBEEDBF0F5F1F4F0C17B1
:1019B0001D070CF4AFCF81E001C080E0DF91CF9133
:1019C0001F910F91FF90EF90DF90CF90BF90AF905D
:1019D0000895EF92FF920F931F932091D4063091B8
:1019E000D5064091D6065091D706211531054105FF
:1019F000510549F46093D4067093D5068093D606BA
:101A00009093D7065BC07B018C01E21AF30A040BAA
:101A1000150BA80197012D3331054105510508F437
:101A20004DC06093D4067093D5068093D6069093EC
:101A3000D7068AE197E00E94EC280E94243B7B01B4
:101A40008C010E9473200E94362A8AE197E00E944E
:101A50001A2A882361F40E94243B6E197F09800BA7
:101A6000910B683C71058105910558F31FC0809169
:101A7000C3078F708093C3078091C30782958F70CF
:101A800090E085309105D4F0809106028823B1F072
:101A900084EA98E060E00E94B3336091DB037091C8
:101AA000DC0385E591E00E94EC3008C08091C3071B
:101AB000982F907F905F8F70892BDCCF1F910F91B3
:101AC000FF90EF900895CF92DF92EF92FF920F93E5
:101AD0001F93CF93DF93272F7091C207769576954A
:101AE00076957170CBE3D3E00BEB12E0E091C50784
:101AF000CE2EDD24CC0CDD1CCC0CDD1CCC0EDD1E72
:101B0000E62EF22E9701482F592FDA01C90120C085
:101B1000288139814A815B812115310541055105B3
:101B2000A1F0F80180839183A283B383820F931F76
:101B3000A41FB51F88839983AA83BB8320911502B4
:101B4000820F911DA11DB11D71E024960C5F1F4FE6
:101B5000CC15DD05E9F67170770F770F770F80915F
:101B6000C207877F872B8093C207DF91CF911F9198
:101B70000F91FF90EF90DF90CF9008950E94F53184
:101B80000E94FE310E943306089520913D022223D7
:101B900089F46DEA76E040E226E031E00E946D30A3
:101BA000882351F08DEA96E00E94613891E0882305
:101BB00021F402C091E001C090E0892F08955F9266
:101BC0006F927F928F929F92AF92BF92CF92DF924D
:101BD000EF92FF920F931F93DF93CF93CDB7DEB7B2
:101BE000A0970FB6F894DEBF0FBECDBFB3E0EB2ECB
:101BF000F12CE80EF91EC7010E94C50D882309F4D7
:101C0000E7C000EC11E0CC24DD24BB24AFE6AA2E13
:101C1000F2E06F2E712C6C0E7D1E4E010894811C1B
:101C2000911CC601D80114962C91149721FF35C040
:101C300011962C911197213009F41C92A9821A82D5
:101C40001B821C821D82B3014AE050E00E94613E6B
:101C5000C7016DEA76E040E294010E946D3088236E
:101C6000E1F0F8015180F52DF13019F4D8015C92C2
:101C700014C08DEA96E00E94013EBC2DB43109F4F7
:101C8000CC9697FD08C0252D30E0281739071CF0A9
:101C9000F801808302C0BB24B3940894C11CD11CFA
:101CA0000B5F1F4FFBE1CF16D10409F0BACFC7017C
:101CB0006DEA76E040E229E031E00E946D30882351
:101CC00051F08DEA96E00E94B93080E390E06DEA31
:101CD00076E00E945F37BB2089F000D000D000D0B2
:101CE000EDB7FEB731968EEC96E0ADB7BEB7129663
:101CF0009C938E93119786E792E091C00E942033C7
:101D0000C7016DEA76E040E22DE031E00E946D30DF
:101D1000882399F1C7018E010F5F1F4FB80140E280
:101D200021E131E00E946D30882309F468C08DEA1A
:101D300096E0B80140E150E00E94533E009709F060
:101D40005EC080E290E06DEA76E00E945F378DB77A
:101D50009EB708970FB6F8949EBF0FBE8DBFEDB724
:101D6000FEB731968EEC96E0ADB7BEB712969C9357
:101D70008E9311978EE492E015C08DB79EB70897A9
:101D80000FB6F8949EBF0FBE8DBFEDB7FEB731966C
:101D90008EEC96E0ADB7BEB712969C938E931197DA
:101DA00084ED91E09383828381E990E0958384833D
:101DB0008BE491E0978386830E94EF23EDB7FEB713
:101DC00038960FB6F894FEBF0FBEEDBF81E001C09C
:101DD00080E0A0960FB6F894DEBF0FBECDBFCF91C6
:101DE000DF911F910F91FF90EF90DF90CF90BF9008
:101DF000AF909F908F907F906F905F90089500D0EC
:101E000000D000D0EDB7FEB731968EEC96E0ADB7BE
:101E1000BEB712969C938E93119780E092E09383C5
:101E2000828381E990E0958384830E94EF23EDB75C
:101E3000FEB73696C6CF0F931F93CF93DF93EC0177
:101E40002396CE010E94C50D882309F4E5C0CE017A
:101E50006DEA76E040E225E131E00E946D308823B2
:101E600011F00E94BE0DCE016DEA76E040E229E15C
:101E700031E00E946D30882309F449C08DEA96E074
:101E80000E94013E181619060CF041C08DB79EB78E
:101E900008970FB6F8949EBF0FBE8DBFEDB7FEB783
:101EA00031960EEC16E0ADB7BEB712961C930E93AA
:101EB000119789ED92E09383828381E990E0958385
:101EC00084838AE090E0978386830E94EF230F90BB
:101ED0000F900F900F90EDB7FEB7128301838CEC3B
:101EE00092E0948383830E94EF230F900F900F90D2
:101EF0000F908091D2069091D3062091D006309118
:101F0000D106821B930B0E94D9280E943D31CE013D
:101F10006DEA76E040E22DE131E00E946D308823E9
:101F200099F08091AD06813339F48091C20780FD2C
:101F30000BC00E94423308C0803331F48091C20745
:101F400080FF02C00E944C33CE016DEA76E040E291
:101F500020E231E00E946D308823D9F08091AD06F7
:101F6000813351F48091C20784FD13C00E94BE0DDD
:101F70008091C20780610BC0803359F48091C20701
:101F800084FF07C00E94BE0D8091C2078F7E8093A0
:101F9000C207CE016DEA76E040E223E231E00E9422
:101FA0006D30882371F08DEA96E00E94013E18168C
:101FB00019061CF40E94563304C0009769F50E946C
:101FC00085338DB79EB708970FB6F8949EBF0FBEA6
:101FD0008DBFEDB7FEB731968EEC96E0ADB7BEB7CC
:101FE00012969C938E9311978FEB92E0938382834A
:101FF00081E990E0958384838BE491E097838683E5
:102000000E94EF23EDB7FEB738960FB6F894FEBFE7
:102010000FBEEDBF81E001C080E0DF91CF911F9145
:102020000F910895CF93DF93EC012396CE010E9488
:10203000B930CE010E94C50D882309F43FC0CE01FE
:102040006DEA76E040E220E031E00E946D308823C6
:10205000A9F18DEA96E00E94013E2FEF8F3F920793
:1020600019F40E946E0608C02091B20230E0821777
:10207000930724F50E94AB0600D000D000D0EDB746
:10208000FEB731968EEC96E0ADB7BEB712969C9334
:102090008E9311978AEA95E09383828381E990E099
:1020A000958384830E94EF238DB79EB706960FB663
:1020B000F8949EBF0FBE8DBF81E001C080E0DF912C
:1020C000CF9108958F929F92AF92BF92CF92DF925D
:1020D000EF92FF920F931F93DF93CF9300D000D026
:1020E000CDB7DEB723E0C22ED12CC80ED91EC60153
:1020F0000E94C50D882309F486C083E789831A826C
:102100001B821C8200E082E0A82EB12CAC0EBD1E0A
:102110007E010894E11CF11C1AC0802F90E0B501EB
:102120004AE050E00E94613EC6016DEA76E040E27E
:1021300097010E946D30882349F08DEA96E00E9455
:10214000B930802F6DEA76E00E946B310F5F80918D
:10215000C507081710F38DE68983FF2412E0812E4E
:10216000912C8C0E9D1E5E010894A11CB11C1AC0FE
:102170000F2D10E0C801B4014AE050E00E94613E1A
:10218000C6016DEA76E040E295010E946D30882339
:1021900041F08DEA96E00E94013EF801E653F84FC7
:1021A0008083F3948091C407F81610F30E949A314B
:1021B0008DB79EB708970FB6F8949EBF0FBE8DBF20
:1021C000EDB7FEB731968EEC96E0ADB7BEB712967E
:1021D0009C938E9311978FED97E09383828381E98F
:1021E00090E0958384838BE491E0978386830E94BB
:1021F000EF238DB79EB708960FB6F8949EBF0FBE1B
:102200008DBF81E001C080E00F900F900F900F9084
:10221000CF91DF911F910F91FF90EF90DF90CF90C2
:10222000BF90AF909F908F900895AF92BF92DF9232
:10223000EF92FF920F931F93CF93DF9300D000D0C4
:10224000CEECD6E0ADB7BEB71296DC93CE93119725
:102250008BE998E014969C938E9313970E94EF233A
:102260000F900F900F900F90FF24FE01DC2EEF2EA9
:102270000DEA16E0C5E9D8E021C08F2D6DEA76E0C1
:102280000E94433100D000D000D0EDB7FEB73196A8
:10229000ADB7BEB71196DC9211971296EC92D3832C
:1022A000C283158304830E94EF23F394EDB7FEB736
:1022B00036960FB6F894FEBF0FBEEDBF8091C507EE
:1022C000F816D8F200D000D08EEC96E0ADB7BEB7CD
:1022D00012969C938E9311978FE898E014969C9396
:1022E0008E9313970E94EF230F900F900F900F90F3
:1022F000DF91CF911F910F91FF90EF90DF90BF90F2
:10230000AF90089500D000D000D0EDB7FEB7319661
:102310008EEC96E0ADB7BEB712969C938E93119754
:102320008CE098E09383828381E990E095838483B5
:102330000E94EF238DB79EB706960FB6F8949EBF06
:102340000FBE8DBF0E94151181E00895CF92DF92DC
:10235000FF920F931F93CF93DF938DB79EB70E9786
:102360000FB6F8949EBF0FBE8DBFEDB7FEB7319686
:10237000CEECD6E0ADB7BEB71296DC93CE931197F4
:102380008CE598E09383828381E990E09583848350
:102390008091C407868317828CE090E091878087C4
:1023A00080911A028287138680913D028487158668
:1023B0000E94EF23EDB7FEB73E960FB6F894FEBF2E
:1023C0000FBEEDBF0E94151100D000D0ADB7BEB753
:1023D0001296DC93CE93119780E598E014969C9327
:1023E0008E9313970E94EF230F900F900F900F90F2
:1023F00010E0FE01FC2E0F2FCCE4D8E021C000D06D
:1024000000D000D0EDB7FEB73196ADB7BEB711968C
:10241000FC92119712960C93D383C283A12FB0E044
:10242000A653B84F8C91848315820E94EF231F5FBF
:10243000EDB7FEB736960FB6F894FEBF0FBEEDBFF0
:102440008091C4071817D8F200D000D000D0EDB7A3
:10245000FEB731968EEC96E0ADB7BEB712969C9360
:102460008E93119783E198E09383828388E690E0CE
:10247000958384830E94EF23EDB7FEB736960FB69F
:10248000F894FEBF0FBEEDBF81E0DF91CF911F91A9
:102490000F91FF90DF90CF9008952F923F924F922F
:1024A0005F926F927F928F929F92AF92BF92CF92E4
:1024B000DF92EF92FF920F931F93DF93CF93CDB7ED
:1024C000DEB760970FB6F894DEBF0FBECDBF782E93
:1024D000082F10E0095F1F4F6E010894C11CD11C2A
:1024E0006EECE62E66E0F62E52EC452E57E0552EA9
:1024F0004BE0842E912C8C0E9D1EC701E88A692E1C
:102500003BEB232E37E0332E72C0C6010E94C60774
:102510008DB79EB744970FB6F8949EBF0FBE8DBF80
:10252000EDB7FEB73196ADB7BEB71296FC92EE92FC
:10253000119753824282B582A4828F858683178247
:102540008981808711868A81828713868B819C810D
:10255000958784878D819E81978786878F819885CF
:10256000918B808B89859A85938B828B0E94EF2338
:10257000EDB7FEB774960FB6F894FEBF0FBEEDBF71
:10258000AA2421C000D000D000D0EDB7FEB731960C
:10259000ADB7BEB71296FC92EE9211978EEB97E014
:1025A00093838283D401AA0DB11D8C9184831582FB
:1025B0000E94EF23A394ADB7BEB716960FB6F8945A
:1025C000BEBF0FBEADBF8091C407A816D8F200D021
:1025D00000D08889EDB7FEB781836282348223827E
:1025E0000E94EF2373940F900F900F900F90A72CE1
:1025F000BB240A151B056CF08091B202781648F4D2
:10260000872DB6010E9473068A81823008F07DCF43
:102610007FCF60960FB6F894DEBF0FBECDBFCF91CF
:10262000DF911F910F91FF90EF90DF90CF90BF90BF
:10263000AF909F908F907F906F905F904F903F9062
:102640002F9008950F931F93DF93CF930F92CDB7E1
:10265000DEB78C0102960E94B930D80112968C9197
:10266000880F880F880F805800D000D000D0EDB7B9
:10267000FEB731962EEC36E0ADB7BEB712963C935E
:102680002E93119728EB37E03383228321E930E042
:102690003583248389830E94EF23EDB7FEB73696F6
:1026A0000FB6F894FEBF0FBEEDBF89810E944D1298
:1026B00081E00F90CF91DF911F910F910895DF92EC
:1026C000EF92FF920F931F93CF93DF938DB79EB737
:1026D0000C970FB6F8949EBF0FBE8DBFEDB7FEB737
:1026E00031960EEC16E0ADB7BEB712961C930E9362
:1026F000119789E897E0938382838091B202848363
:1027000015828091C4078683178280913D0280875D
:10271000118680E290E0938782870E94EF23EDB7D5
:10272000FEB73C960FB6F894FEBF0FBEEDBF80E03B
:102730000E944D1200D000D0ADB7BEB712961C93C8
:102740000E9311978EE797E014969C938E931397B0
:102750000E94EF230F900F900F900F908091B20284
:10276000893088F1FF24F394C8E0D0E0D02EE12E28
:102770000FE517E01CC000D000D000D0EDB7FEB7C9
:102780003196ADB7BEB71196DC9211971296EC92C6
:1027900013830283358324830E94EF23F394EDB7E0
:1027A000FEB736960FB6F894FEBF0FBEEDBF2F2DC5
:1027B00030E08091B20290E00197BE010E94C63DD8
:1027C00062177307C4F6DF91CF911F910F91FF90AD
:1027D000EF90DF9008952F923F924F925F926F9209
:1027E0007F928F929F92AF92BF92CF92DF92EF92A1
:1027F000FF920F931F93CF93DF93EC012396CE01AB
:102800000E94B9300E94F82E7B018C010E94C42DD9
:102810003C01C801B7010E94CD2D4C01C801B70190
:102820000E94D92D6C01C801B70120E831E541E0D3
:1028300050E00E94D93D1901C801B7010E94E52D61
:102840002C01C801B7010E94DF2D2CE330E0429E2D
:102850005001439EB00C529EB00C1124A80EB91E1C
:10286000CE016DEA76E040E226E231E00E946D3072
:10287000882361F08DEA96E00E94013E6C0100978A
:1028800029F4C801B7010E94D92D6C01CE016DEA6F
:1028900076E040E228E231E00E946D30882329F0A2
:1028A0008DEA96E00E94013E4C01CE016DEA76E091
:1028B00040E22AE231E00E946D30882329F08DEA5F
:1028C00096E00E94013E3C018DB79EB74A970FB635
:1028D000F8949EBF0FBE8DBFEDB7FEB73196CEEC1C
:1028E000D6E0ADB7BEB71296DC93CE93119780E5D4
:1028F00095E09383828381E990E09583848380913E
:102900001A02868317828091330280871186809114
:1029100015028287138680911F0284871586809115
:10292000240286871786318A208AB38AA28AD58AAA
:10293000C48A978A868A718E608E0E94EF23EDB7D3
:10294000FEB776960FB6F894FEBF0FBEEDBFD283EA
:10295000C18384E495E0948383830E94EF230F90E6
:102960000F900F900F90EE244E01AC2EC92C00E476
:1029700015E021C000D000D000D0EDB7FEB73196F1
:10298000ADB7BEB71196AC9211971296CC92138345
:102990000283AE2DB0E0A653B84F8C91848315828C
:1029A0000E94EF23E394EDB7FEB736960FB6F89486
:1029B000FEBF0FBEEDBF8091C407CEECD6E0E81697
:1029C000C8F200D000D0ADB7BEB71296DC93CE935C
:1029D00011978CE395E014969C938E9313970E9425
:1029E000EF230F900F900F900F900E945F1300D075
:1029F00000D0EDB7FEB7D283C1838DE195E094831B
:102A000083830E94EF2300D0EDB7FEB73196ADB7B8
:102A1000BEB71296DC93CE93119785EF94E0938323
:102A2000828388E690E0958384830E94EF23EDB74C
:102A3000FEB736960FB6F894FEBF0FBEEDBF81E02D
:102A4000DF91CF911F910F91FF90EF90DF90CF908A
:102A5000BF90AF909F908F907F906F905F904F90BE
:102A60003F902F900895CF93DF938DB79EB708972F
:102A70000FB6F8949EBF0FBE8DBFEDB7FEB731966F
:102A8000CEECD6E0ADB7BEB71296DC93CE931197DD
:102A90008EEB96E09383828381E990E09583848333
:102AA00080ED90E0978386830E94EF23EDB7FEB719
:102AB00038960FB6F894FEBF0FBEEDBF0E945F13AD
:102AC00000D000D0ADB7BEB71296DC93CE9311976D
:102AD0008FE996E014969C938E9313970E94EF23B0
:102AE00000D0EDB7FEB73196ADB7BEB71296DC9306
:102AF000CE93119787E796E09383828388E690E0F0
:102B0000958384830E94EF23EDB7FEB736960FB608
:102B1000F894FEBF0FBEEDBF81E0DF91CF91089525
:102B2000CF93DF93DC011092AD06CDEAD6E0ED91B4
:102B3000FC91119780E090E00BC021912D3231F093
:102B40002B3221F0322F30533A3058F4299301962A
:102B5000AF012D913C911197265F3F4FE217F3078C
:102B600060F38355994FFC011082CA0101968D9341
:102B70009C938DEA96E00E94013EDF91CF910895EB
:102B8000CF92DF92EF92FF920F931F93DF93CF9339
:102B9000CDB7DEB762970FB6F894DEBF0FBECDBFDC
:102BA0006C018C010D5F1F4FC8010E94B930C80134
:102BB0000E94C50D882309F405C1C8016DEA76E0BD
:102BC00040E220E031E00E946D30882309F4FAC031
:102BD0008DEA96E00E94013E7C018FEFE8168FEFB0
:102BE000F8060CF4EFC08091B20290E0E816F90606
:102BF0000CF0E8C01A830983A7E6B0E0CA0EDB1E1A
:102C000004C00F5F1F4F1A83098309811A81F801DD
:102C10008081882309F4D6C00C151D0508F0D2C0A8
:102C2000C8016CE271E043E050E00E94533E00971F
:102C300041F70D5F1F4F1A8309838E010F5F1F4FEE
:102C4000C8010E949015898BC8010E9490158B8342
:102C5000C8010E9490158C83C8010E9490159E8324
:102C60008D83C8010E94901598878F83C8010E94A8
:102C700090159A878987C8010E9490159C878B8739
:102C800020E0D02EC12E8E01035F1F4F0BC08D2D73
:102C90009C2D2A8B0E9490152A89F801E20FF11DC4
:102CA00080832F5F8091C407281788F306C0FC013A
:102CB000E20FF11D10822F5F02C0CE010D9624306D
:102CC000B0F38C81823020F0CE0103960E940A0876
:102CD00000D000D000D0EDB7FEB731960EEC16E074
:102CE000ADB7BEB712961C930E9311978AEE94E07F
:102CF0009383828381E990E0958384830E94EF230C
:102D0000EDB7FEB736960FB6F894FEBF0FBEEDBF17
:102D1000BE016D5F7F4FFFEFEF16FFEFFF06C1F4BF
:102D2000CB010E94840600D000D0ADB7BEB712968A
:102D30001C930E9311978DEC94E014969C938E93B4
:102D400013970E94EF230F900F900F900F9022C0C7
:102D50008E2D0E949A0600D000D000D0EDB7FEB7AD
:102D60003196ADB7BEB712961C930E9311978FEAAA
:102D700094E0938382830894E11CF11CF582E48241
:102D80000E94EF23EDB7FEB736960FB6F894FEBF5C
:102D90000FBEEDBF00D000D08EEC96E0ADB7BEB751
:102DA00012969C938E9311978EE894E014969C93C0
:102DB0008E9313970E94EF230F900F900F900F9018
:102DC00081E001C080E062960FB6F894DEBF0FBECE
:102DD000CDBFCF91DF911F910F91FF90EF90DF90CA
:102DE000CF900895AF92BF92CF92DF92EF92FF9271
:102DF0000F931F93DF93CF9300D00F92CDB7DEB721
:102E00007C018C010D5F1F4FC8010E94B930C801C1
:102E10000E94C50D882309F48FC01A83098387E6B1
:102E200090E0E80EF91E04C00F5F1F4F1A8309835C
:102E300009811A81D8018C91882309F47DC00E156F
:102E40001F0508F079C0C80160E371E043E050E07D
:102E50000E94533E009741F70D5F1F4F1A8309836D
:102E60000E94BE0D20E000ED11E0BB246E0108942D
:102E7000C11CD11CEEEFAE2E2AC0C6012B830E94CE
:102E800090157C01C8016F2D0E94D13EC8010196AA
:102E90006E2D0E94D13E2B81E114F104A9F08B2DFF
:102EA00090E0FC01EE0FFF1FEE0FFF1FE55CFC4FF3
:102EB000970140E050E0208331834283538385545F
:102EC0009C4FFC01A08221E0B3940E5F1F4F8091C4
:102ED000C507B81690F2222321F00E94F82E0E9416
:102EE000630D8DB79EB708970FB6F8949EBF0FBEBF
:102EF0008DBFEDB7FEB731968EEC96E0ADB7BEB79D
:102F000012969C938E9311978BEC96E09383828319
:102F100081E990E0958384838BE491E097838683B5
:102F20000E94EF23EDB7FEB738960FB6F894FEBFB8
:102F30000FBEEDBF81E001C080E00F900F900F90B9
:102F4000CF91DF911F910F91FF90EF90DF90CF9085
:102F5000BF90AF9008958F929F92AF92BF92CF9201
:102F6000DF92EF92FF920F931F93CF93DF930E9414
:102F7000F82E7B018C012DB73EB7285030400FB69C
:102F8000F8943EBF0FBE2DBFEDB7FEB73196CEEC25
:102F9000D6E0ADB7BEB71296DC93CE93119789E811
:102FA00094E09383828381E990E09583848380ED2C
:102FB00090E0978386830E94EF2300D0EDB7FEB7A1
:102FC0003196ADB7BEB71296DC93CE9311978CE6CF
:102FD00094E09383828382E190E095838483E68208
:102FE000F782008711870E94EF230F900F90EDB7B3
:102FF000FEB73196ADB7BEB71296DC93CE9311975C
:1030000082E594E0938382838091C4078483158250
:103010008091C501868317820E94EF23EDB7FEB72A
:1030200038960FB6F894FEBF0FBEEDBFBB246E01FD
:103030009C2EAD2C8EE4C82E84E0D82E21C000D06A
:1030400000D000D0EDB7FEB73196ADB7BEB7119640
:103050009C9211971296AC92D382C282AB2DB0E0B3
:10306000AA53B84F8C91848315820E94EF23B394A6
:10307000CDB7DEB726960FB6F894DEBF0FBECDBF34
:103080008091C407CEECD6E0B816C8F200D000D0CC
:10309000EDB7FEB7D283C18382E494E09483838347
:1030A0000E94EF230F900F900F900F90CC244E01B1
:1030B000DC2EB92CB9E38B2EB4E09B2E53C0EC2D43
:1030C000F0E0DF01A554BC4F6C91662329F1EE0FAF
:1030D000FF1FEE0FFF1FDF01A554BD4F2D913D9146
:1030E0004D915C911397E55CFC4FE216F3060407E3
:1030F000150748F080819181A281B3818E199F09C3
:10310000A00BB10B0CC080819181A281B381821B85
:10311000930BA40BB50B03C080E090E0DC012DB74E
:103120003EB72A5030400FB6F8943EBF0FBE2DBFB9
:10313000EDB7FEB73196CDB7DEB7D982BA829382AA
:1031400082826483158286839783A087B1870E94D9
:10315000EF23C394EDB7FEB73A960FB6F894FEBFCF
:103160000FBEEDBF8091C507C81608F4A8CFCDEA01
:10317000D6E080E390E0BE010E943E382DB73EB716
:103180002A5130400FB6F8943EBF0FBE2DBFEDB7A9
:10319000FEB731960EEC16E0ADB7BEB712961C9393
:1031A0000E93119787EE93E0938382838091C207F9
:1031B0008170848315828091C20786958170868391
:1031C00017828091C20786958695817080871186C7
:1031D0008091C20782958170828713868091CE0785
:1031E0009091CF07A091D007B091D10784879587A0
:1031F000A687B78780911A02808B118A8091290255
:10320000828B138A80913302848B158A80913D02D0
:10321000868B178AD18FC08F0E94EF23CDB7DEB780
:103220002C960FB6F894DEBF0FBECDBFEDB7FEB73C
:103230003196ADB7BEB712961C930E93119785ECDD
:1032400093E0938382838091B3028483158280917B
:10325000B402868317828091B5029091B60291875D
:1032600080878091B7029091B802A091B902B09185
:10327000BA0282879387A487B5870E94EF23CDB7D0
:10328000DEB72A960FB6F894DEBF0FBECDBF1A8305
:10329000098386EA93E09C838B830E94EF2300D00E
:1032A000EDB7FEB73196ADB7BEB712961C930E932D
:1032B000119782E893E09383828388E690E0958378
:1032C00084830E94EF23CDB7DEB726960FB6F8941D
:1032D000DEBF0FBECDBF81E0DF91CF911F910F9177
:1032E000FF90EF90DF90CF90BF90AF909F908F9026
:1032F0000895AF92BF92CF92DF92EF92FF920F9319
:103300001F93DF93CF9300D000D0CDB7DEB70E94DC
:10331000243B5B016C017E010894E11CF11C0E94BE
:1033200073200E94362AC70160915F010E9487299D
:103330008823E1F0E980FA800B811C8180EC98ED14
:10334000A4E5BCE7E80EF91E0A1F1B1F6091C5012A
:1033500070E080E090E024E833E040E050E00E943C
:10336000873DE60EF71E081F191F11C00E94243B5F
:103370006A197B098C099D09683EA3E07A07A0E0E1
:103380008A07A0E09A0758F2EE24FF248701B701CC
:10339000C8010F900F900F900F90CF91DF911F9168
:1033A0000F91FF90EF90DF90CF90BF90AF90089576
:1033B0001F9310E060915F016F5F60935F018BE589
:1033C00091E00E9437296AEF70E080E090E00E946F
:1033D000583B0E9479199B01AC016115710581056B
:1033E000910519F41F5F153029F7B901CA011F9122
:1033F0000895EF92FF920F931F932091CA01222309
:10340000E9F12091C30722952F70C1F52091D806CC
:103410003091D9064091DA065091DB06211531052D
:103420004105510581F07B018C01E21AF30A040B7E
:10343000150BA8019701213801E5300701E040078D
:1034400000E05007D8F06093D8067093D9068093B7
:10345000DA069093DB060E94D8197B018C01611576
:1034600071058105910551F00E94C92E8091C20716
:1034700085FF04C0C801B7010E94661E1F910F910D
:10348000FF90EF9008950E947A320E947F370E9449
:1034900052069091010280E02091FC01820F911D63
:1034A0009093DC038093DB0384EC98E060E00E945F
:1034B000B33384EB98E061E00E94B3336091DB03A7
:1034C0007091DC0385E591E00E94EC309091C30798
:1034D000882311F09F7002C09F7090619093C30782
:1034E00064EF71E080E090E00E94583B64E873E094
:1034F00080E090E00E948C2F8091C20785FF03C07E
:103500008DEE9EE102C080E090E00E94752F0E9447
:10351000FE310E94F82E0E94F91980E00E940734C3
:103520000895CF93DF93FC0105964581403219F44D
:103530000E94AB1748C0A0E6B1E020E030E055277C
:1035400047FD5095ED91FC911197649170E06417DF
:10355000750709F041C03196E491F0E0EC01698112
:10356000772767FD7095E617F707B1F5F901EE0FBC
:10357000FF1FEE0FFF1FE05AFE4F0280F381E02D88
:103580000995882301F500D000D000D0EDB7FEB733
:1035900031968EEC96E0ADB7BEB712969C938E93A3
:1035A000119787E991E0938382838BEF90E0958375
:1035B00084830E94EF23CDB7DEB726960FB6F8942A
:1035C000DEBF0FBECDBF62E370E080E090E00E94FE
:1035D000583BDF91CF9108952F5F3F4F14962F30C6
:1035E000310509F0AFCFEFCF2F923F924F925F920C
:1035F0006F927F928F929F92AF92BF92CF92DF9203
:10360000EF92FF920F931F93DF93CF93CDB7DEB767
:10361000A1970FB6F894DEBF0FBECDBF70901A020F
:103620000E9473200E94362A9093DD068093DC0668
:103630000097D1F023E134E03093D1062093D006F7
:103640003093D3062093D20683529C4F0E94911A46
:103650008091D2069091D3062091D0063091D10668
:10366000821B930B0E94D9280E94360B0E94F82ED1
:103670007B018C018091E2069091E306A091E40623
:10368000B091E5068E159F05A007B10709F493C216
:10369000E092E206F092E3060093E4061093E5065A
:1036A00080E00E9407348091C20781FF0FC08091A3
:1036B000CE079091CF07A091D007B091D107E8161F
:1036C000F9060A071B0710F00E9485330E948D330C
:1036D0008091C207887109F0C7C0C801B7012CE307
:1036E00030E040E050E00E94D93D8091DE069091AC
:1036F000DF06A091E006B091E106281739074A07D6
:103700005B0709F4B1C02093DE063093DF064093D7
:10371000E0065093E10620E0CC241E010894211C11
:10372000311C472D50E05D8F4C8F572C91C08C2D54
:10373000B10129A30E947306C101B801A7010E942B
:10374000FF0629A1882309F482C089859A850097FC
:1037500009F47DC05091C407588BAC0160E070E063
:103760004A8B5B8B6C8B7D8B4424DD245C2D5F5FEF
:103770005A8F4701580165C000E010E08D2D90E0A0
:10378000BC016A53784F7F8B6E8BEBE0F0E0EC0F5F
:10379000FD1FE80FF91FF98FE88F6D2C7C2CC42CCE
:1037A000C00EDD24C60101964C8D5D8D481759076A
:1037B000E9F1EE89FF89808190E0002E02C09595A5
:1037C00087950A94E2F7009789F5E88DF98D808155
:1037D00090E0002E02C0959587950A94E2F780FF4D
:1037E00025C07601EE0CFF1CEE0CFF1C2BE333E032
:1037F000E20EF31E6091330270E080E090E02A89CF
:103800003B894C895D890E94873D24E630E040E099
:1038100050E00E94D93DF7012083318342835383D6
:10382000F601E554FC4F2A8D208321E00F5F1F4FE6
:103830000830110509F0B3CFD62CC72CD39438E04B
:10384000430E4889D41608F497CF85017401C394B8
:103850008091B202C81608F46ACF752C222321F099
:10386000C801B7010E94630D8091C20783FF42C166
:10387000662440E0672D70E0798B688B772D71505E
:103880007A8B872F90E09C01220F331F220F331F6A
:10389000F901E554FD4FFB8FEA8FB901655C7C4F60
:1038A0007D8F6C8FFC01E554FC4FFF8FEE8F342E23
:1038B000272CFFC0832D90E0FC01EA53F84F2081B4
:1038C00044245524422F50E05F8B4E8BBC0166533D
:1038D000784F798F688FB62CB40C8E899F89042C11
:1038E00002C0959587950A94E2F7CB2CDD2480FFE2
:1038F00051C04601880C991C880C991CF401E55CA8
:10390000FC4F80819181A281B381E816F9060A07F4
:103910001B0708F4C3C08B2D60E00E94D331C601A1
:103920000196E889F989E817F907E1F0B092B30246
:10393000F601E554FC4F80818093B402F401E55414
:10394000FD4F808191819701281B390B3093B6027E
:103950002093B502E092B702F092B8020093B90248
:103960001093BA02C601880F991F880F991FFC0196
:10397000E554FD4F1082118212821382855C9C4FA8
:10398000FC011082118212821382F601E554FC4F71
:10399000108284C0B601660F771F660F771F4BEB4E
:1039A000842E42E0942E860E971EF40120813181F0
:1039B00042815381E216F3060407150708F46EC02E
:1039C0009B01255C3C4FF90180819181A281B381EB
:1039D000E816F9060A071B0708F060C08B2D61E0A6
:1039E00029A338A30E94D33129A138A1222009F4A8
:1039F00055C0C6010196488959894817590709F4E5
:103A00004DC0E88DF98D808190E0042C02C0959521
:103A100087950A94E2F780FF41C08091C20784FD38
:103A20003DC080911F02F40180809180A280B3800C
:103A3000880E911CA11CB11CEA8DFB8D80829182A5
:103A4000A282B3828091240290E0A0E0B0E0CC9703
:103A5000A109B109F9012081318142815381820F8D
:103A6000931FA41FB51FEC8DFD8D80839183A283CE
:103A7000B383F601E554FC4F2081EE8DFF8D20834A
:103A8000E814F9040A051B0548F0E816F9060A07C8
:103A90001B0720F48A8961E00E94D3310894411CFD
:103AA000511CF8E04F16510409F015CF339428E06B
:103AB000620E8091C407381608F4FCCE722C0E9466
:103AC000FE313091C507EBE3F3E020E010C08191B7
:103AD0009191A191B1910197A109B1098E3F4FEF49
:103AE00094074FEFA4074FEFB40720F02F5F231781
:103AF00070F357C07720D9F18091C20784FF37C097
:103B0000B091C50780E090E0472D50E026C0BC0191
:103B100001964817590709F133E0759567953A956D
:103B2000E1F770E0A22FA770FB01EA53F84F208164
:103B300030E00A2E02C0359527950A94E2F720FF5F
:103B40000CC06653784FFB01208130E002C03595F0
:103B50002795AA95E2F720FD05C0282F8B17B8F20C
:103B600060E001C061E0872D81500E94D3310E9446
:103B7000FE31C801B70123E030E040E050E00E9490
:103B8000D93DFB01E05AFD4F81E060810E94B934CC
:103B9000C801B7010E94E90CC801B7010E94F919D8
:103BA0000AC00E94F5318091C207877F8093C207C7
:103BB00070901A029FCFA1960FB6F894DEBF0FBE89
:103BC000CDBFCF91DF911F910F91FF90EF90DF90CC
:103BD000CF90BF90AF909F908F907F906F905F90AD
:103BE0004F903F902F9008958AE592E09093CF06F2
:103BF0008093CE060895CF93DF93CDEAD7E0CE0130
:103C000068E670E00E943C30CE0160E00E94F32F35
:103C1000CE010E943F30DF91CF9108956AE00E946B
:103C2000A63D8295807F890F08950F931F93CF93B0
:103C3000DF938C01CDEAD7E0CE0168E670E00E9408
:103C40003C30CE0160E00E94F32FF80180810E9499
:103C50000E1E682FCE010E94F32FF80181810E9471
:103C60000E1E682FCE010E94F32FF80182810E9460
:103C70000E1E682FCE010E94F32FF80183810E944F
:103C80000E1E682FCE010E94F32FF80184810E943E
:103C90000E1E682FCE010E94F32FF80185810E942D
:103CA0000E1E682FCE010E94F32FF80186818E51DF
:103CB0000E940E1E682FCE010E94F32FCE010E949B
:103CC0003F30DF91CF911F910F9108950F931F9374
:103CD000DF93CF93CDB7DEB727970FB6F894DEBF4B
:103CE0000FBECDBF8E010F5F1F4FA8010E94C42CD5
:103CF000898180688983C8010E94151E89818F7718
:103D00008983C8010E94151E27960FB6F894DEBF5E
:103D10000FBECDBFCF91DF911F910F910895982FC6
:103D200092959F70990F292F220F220F290F8F70C4
:103D3000820F08950F931F93CF93DF938C01CDEAE9
:103D4000D7E0CE0168E670E00E943C30CE0160E032
:103D50000E94F32FCE010E943F30CE0168E670E052
:103D600047E050E00E942F30CE010E949E2F8F77B7
:103D70000E948F1EF8018083CE010E949E2F0E9418
:103D80008F1EF8018183CE010E949E2F8F730E94A7
:103D90008F1EF8018283CE010E949E2F0E948F1EEB
:103DA000F8018383CE010E949E2F0E948F1EF8018E
:103DB0008483CE010E949E2F0E948F1EF80185836E
:103DC000CE010E949E2F0E948F1E825EF801868384
:103DD000DF91CF911F910F9108950F931F93DF9360
:103DE000CF93CDB7DEB727970FB6F894DEBF0FBEDF
:103DF000CDBF8E010F5F1F4FC8010E949A1EC801E0
:103E00000E94EB2D27960FB6F894DEBF0FBECDBFF4
:103E1000CF91DF911F910F9108958DEA97E00E9455
:103E200017300895F89425B181E090E0A0E0B0E06B
:103E30000090E80604C0880F991FAA1FBB1F0A94B0
:103E4000D2F78095822385B9089525B181E090E06D
:103E5000A0E0B0E00090E80604C0880F991FAA1FF8
:103E6000BB1F0A94D2F7282B25B9789408958EBDEC
:103E70000DB407FEFDCF08951F93DF93CF9300D0BD
:103E8000CDB7DEB7182F4A8369830E94121F69815C
:103E9000862F8F71812B0E94371F4A81842F0E94A9
:103EA000371F0E94251F0F900F90CF91DF911F9118
:103EB00008950F931F93CF93DF93EC018B010E9422
:103EC000121F8AE30E94371F08C080E00E94371F3C
:103ED0008EB5F80181938F0121972097B1F70E9449
:103EE000251FDF91CF911F910F9108950F931F937D
:103EF000CF93DF93EC018B010E94121F8AE70E948F
:103F0000371F06C0F80181918F010E94371F21974A
:103F10002097C1F70E94251FDF91CF911F910F912C
:103F200008951F93182F282F30E02076307060916D
:103F3000E90670E02617370799F080EA6FE143E061
:103F40000E943C1F10761093E906412F50E085E057
:103F5000559547958A95E1F780E86FE10E943C1FEF
:103F60001F9108951F93DF93CF930F92CDB7DEB7C4
:103F7000182F69830E94911F80E4612F49810E945C
:103F80003C1F0F90CF91DF911F9108951F93DF93F6
:103F9000CF930F92CDB7DEB7182F79830E94B21F4F
:103FA000812F8F5F7981672F0E94B21F0F90CF9171
:103FB000DF911F9108951F93DF93CF930F92CDB799
:103FC000DEB7182F0E94121F812F8F710E94371F9A
:103FD00080E00E94371F17FF03C080E00E94371F58
:103FE0008EB589830E94251F89810F90CF91DF9123
:103FF0001F9108951F93182F0E94911F812F0E94D7
:10400000DB1F1F9108958AE061E00E94F13B8BE085
:1040100061E00E94F13B8DE061E00E94F13B8CE0A9
:1040200060E00E94F13B8BE061E00E94153C8BE078
:1040300060E00E94153C8DE060E00E94153C80E548
:104040008CBD8DB581608DBD089584ED61E10E94C8
:10405000B21F82ED61E00E94B21F8AEE0E94FA1F39
:1040600080FDFBCF82ED60E00E94B21F89ED0E94CF
:10407000FA1F91E082FF90E0892F0895CF93DF939C
:10408000EC010FC08CE10E94FA1F81FF0AC080E89A
:104090006FE140E80E943C1F80EA6FE140E80E9427
:1040A0003C1F8FE10E94DB1F83FDECCF82E060E0CC
:1040B0007CE00E94C61FBE016050744F86E00E94E3
:1040C000C61F8AE760E040E00E943C1FCE016DED14
:1040D00073E00E94761F80E86FE148E00E943C1F79
:1040E000DF91CF9108950F931F93DF93CF9300D06B
:1040F00000D000D0CDB7DEB789E30E94FA1F882335
:1041000009F447C06091EA067091EB0680E00E94D6
:10411000C61F86E090E0BE016F5F7F4F0E94591F6F
:1041200089819A819093EB068093EA068B819C812A
:104130000091E6061091E7062D8127FF0DC0049738
:10414000015010408017910708F48C01C8016DEDF3
:1041500073E00E94591F02C000E010E0F801E35232
:10416000FC4F10826091EA067091EB068CE06130A2
:10417000780724F08CE06FEF7BE003C06150704063
:104180008CE00E94C61F80E86EE140E40E943C1F64
:1041900002C000E010E0C80126960FB6F894DEBF1A
:1041A0000FBECDBFCF91DF911F910F91089588E38E
:1041B00061EB0E94B21F08950F931F93DF93CF937B
:1041C0000F92CDB7DEB78B019093E7068093E6069A
:1041D0000CB406FC04C049830E9403204981485066
:1041E0004093E80624B181E090E0A0E0B0E004C094
:1041F000880F991FAA1FBB1F4A95D2F7282B24B9F5
:104200000E94251F8FEF60E04FEF0E943C1F62E08D
:1042100070E080E090E00E94583B8DE10E94DB1F3F
:104220008823D9F31092EB061092EA0688E060E04A
:1042300070E00E94C61F8CE060E070E00E94C61F24
:104240008AE06FEF7BE00E94C61F84E060E07CE0C4
:104250000E94C61F86E06FEF71E10E94C61F0E9498
:10426000D72088E26FE370E30E94C61F80E369EF06
:1042700077EF0E94C61F80EC6DE00E94B21F81ECB8
:1042800060E00E94B21F80E862EC42E30E943C1FA3
:1042900086EC62E17CE00E94C61F84EC62E10E9431
:1042A000B21F8AEC6CED75E00E94C61F84EEF80127
:1042B00060810E94B21F85EEF80161810E94B21FE9
:1042C00082EEF80162810E94B21F83EEF8016381E1
:1042D0000E94B21F80EEF80164810E94B21F81EE3D
:1042E000F80165810E94B21F84ED60E10E94B21F57
:1042F00086ED60E071E00E94C61F8AEE0E94FA1F00
:1043000080FDFBCF8FE10E94911F80E86BE140ECC4
:104310000E943C1F80E86FE144E00E943C1F82E75E
:104320000E94FA1F863008F08F5F0F90CF91DF91C7
:104330001F910F91089588E360EB0E94B21F0895CA
:10434000CF93DF93EC018C8160E00E94153C81E00B
:1043500090E00E947F3B8C8161E00E94153C81E0EF
:1043600090E00E947F3B8C8160E00E94153C84E6D7
:1043700090E00E947F3BDF91CF910895AF92BF9272
:10438000CF92DF92EF92FF920F931F93CF93DF9321
:104390007C018C010B5F1F4FC0E0D0E0A62EBB2438
:1043A0006801F80181918F0161E00E94F13BB50144
:1043B0000C2E02C0759567950A94E2F76170F601BC
:1043C00080810E94153C2196C430D10549F7C70170
:1043D0000E94A021DF91CF911F910F91FF90EF904C
:1043E000DF90CF90BF90AF900895AF92BF92CF92E1
:1043F000DF92EF92FF920F931F93CF93DF937C0195
:104400008C010B5F1F4FC0E0D0E0A62EBB246801DB
:10441000F80181918F0161E00E94F13BB5010C2E02
:1044200002C0759567950A94E2F76170F601808184
:104430000E94153C2196C830D10549F7C7010E945A
:10444000A021DF91CF911F910F91FF90EF90DF900E
:10445000CF90BF90AF9008951F93CF93DF93EC015F
:10446000162F8A81642F0E94153C8B818F3F19F093
:1044700060E00E94153C8D8584FF05C0CE01612F50
:104480000E94F5210FC0212F30E084E0359527955B
:104490008A95E1F7CE01622F0E94BE21CE01612FE5
:1044A0000E94BE21DF91CF911F91089541E00E94AB
:1044B0002C22089540E00E942C220895CF92DF9292
:1044C000EF92FF920F931F93DF93CF9300D0CDB75E
:1044D000DEB76C016770660F660F660F6064498314
:1044E0005A830E945A2249815A81E42EF52E00E017
:1044F00010E0D7016D917D01D601ED91FC91019005
:10450000F081E02DC60109950F5F1F4F083011059E
:1045100081F70F900F90CF91DF911F910F91FF9036
:10452000EF90DF90CF900895FC016685262F2160E3
:10453000268769600E945A220895FC0166856E7F75
:10454000668768600E945A220895FC016685262FBE
:10455000246026876C600E945A220895DF93CF93CF
:10456000CDB7DEB728970FB6F894DEBF0FBECDBF2C
:10457000FE013196ADE6B2E028E00D9001922150A7
:10458000E1F7FC012189241710F4422F4150E42F58
:10459000F0E0EE0FFF1FEC0FFD1F2181260F2068BA
:1045A000622F0E945A2228960FB6F894DEBF0FBEE3
:1045B000CDBFCF91DF91089561E00E945A2280ED36
:1045C00097E00E947F3B0895CF93DF93EC01423048
:1045D00018F08D8588608D87498B1A8A222329F0EF
:1045E000413019F48D8584608D8780E593EC0E94BD
:1045F0007F3B8A8160E00E94153C8C8160E00E94D4
:10460000153C8B818F3F19F060E00E94153C6D8551
:1046100064FD1DC0CE0163E00E94BE2184E991E1EA
:104620000E947F3BCE0163E00E94BE2184E991E1BC
:104630000E947F3BCE0163E00E94BE2186E990E0AC
:104640000E947F3BCE0162E00E94BE2116C06062E4
:10465000CE010E945A2284E991E10E947F3B6D8540
:104660006062CE010E945A2286E990E00E947F3B60
:104670006D856062CE010E945A226D856062CE0116
:104680000E945A2284E08E87CE010E94A522CE018C
:104690000E94DC2282E08F87CE0166E00E945A22CF
:1046A000DF91CF9108956F927F928F92AF92CF92C8
:1046B000EF920F931F93DF93CF93CDB7DEB73C01FB
:1046C000162F842FF301428323830483E582C6825D
:1046D000A78280869D8591879E8592879F859387F7
:1046E0009889948761E00E94F13BF30183818F3FB9
:1046F00019F061E00E94F13BF301848161E00E94C6
:10470000F13B112319F0F301158603C080E1F30199
:104710008587C30160E141E020E00E94E422CF915F
:10472000DF911F910F91EF90CF90AF908F907F907E
:104730006F9008958F92AF92CF92EF920F93CF9395
:10474000DF93A62F742F522F302FAE2C8C2CE7E640
:10475000F2E0EC01F983E88300D000D0EDB7FEB7BA
:104760003196CDB7DEB7198211821282138261E0D1
:104770004A2F2FEF072FE52EC32E0E9453230F90B1
:104780000F900F900F90DF91CF910F91EF90CF90FE
:10479000AF908F90089590E0FC0123E0F595E795A8
:1047A0002A95E1F7E451F94F8770907021E030E0ED
:1047B00040E050E004C0220F331F441F551F8A956C
:1047C000D2F78081822B808308951F93182F03C016
:1047D000812F0E94CB231150D9F71F910895CF92BA
:1047E000DF92EF92FF920F931F93DF93CF9300D04E
:1047F000CDB7DEB70D851E85EF84F8889E012F5E4C
:104800003F4FF7018491882309F4A6C00894E11C66
:10481000F11C843259F0D8011496ED91FC91159752
:1048200081931596FC93EE931497EBCFF7010894C0
:10483000E11CF11C8491863409F442C0873434F4BD
:10484000843451F0853409F06BC04CC08C34A1F035
:10485000833509F065C024C052E0C52ED12CC20EAC
:10486000D31EF80164817581D9018D919C914AE034
:1048700050E00E94613E5BC044E0C42ED12CC20EC9
:10488000D31EF9016081718182819381D8011496D0
:104890004D915C9115972AE030E00E948A3E47C016
:1048A00092E0C92ED12CC20ED31EF9016081718114
:1048B000D80114968D919C9115970E943C3E37C06B
:1048C000F9012E5F3F4F8081918106C0F801A481DC
:1048D000B5814D93B583A483FC0101964491442393
:1048E000A9F78FCFF9012E5F3F4F808191810BC0D7
:1048F000D8011496ED91FC91159781931596FC9330
:10490000EE931497C6016C010894C11CD11C298335
:104910003A830E94BF3E29813A81882349F771CFAB
:10492000F801A481B5818D93B583A4836ACFD801A2
:1049300014968D919C911597FC0101900020E9F748
:104940003197E81BF90BE80FF91FD8011596FC9376
:10495000EE931497960155CF0F900F90CF91DF9162
:104960001F910F91FF90EF90DF90CF900895CF921D
:10497000DF92EF92FF920F931F93DF93CF930F92EB
:10498000CDB7DEB77C018B0188E349830E94E52324
:104990006CE0C62E67E0D62EC601B8010E946130D9
:1049A000C701B60149810E94DC200F90CF91DF91B1
:1049B0001F910F91FF90EF90DF90CF9008950F938C
:1049C0001F93CF93DF939C018B01EA01009729F09D
:1049D00082E197E0B9010E9456300115110519F0E6
:1049E000C8010E94112A209729F082E297E0BE01B7
:1049F0000E94563081E0DF91CF911F910F91089571
:104A0000E0913707F09138078193F0933807E093EE
:104A1000370708951F93CF93DF93182FEB0104C03E
:104A200089910E94002511501123D1F7DF91CF9178
:104A30001F9108958B32910508F453C080910004B2
:104A4000833409F04EC080910704823009F049C0D8
:104A500020910B0430910C0440910D0450910E04F0
:104A600080912B0790912C07A0912D07B0912E07D4
:104A7000281739074A075B07A1F59091ED0380E0FD
:104A80002091EE03820F911D8C509140E7EFF4E0EE
:104A90001AC08281853029F0863069F0823009F5AC
:104AA0001EC0E0912A07E350E430D8F4F0E0EF575D
:104AB000FD4F8081089581E00895218130E02F5FCE
:104AC0003F4FE20FF31F40814F3F59F09F01275F97
:104AD00034402817390738F4453379F7DACF82E0C4
:104AE000089580E0089580E00895FF920F931F934A
:104AF000CF93DF93F82E062F0E942520882309F4F8
:104B0000B1C0CDEDD3E08AE191E0FE019C011192AC
:104B100021503040E1F784E490E062E177E043E443
:104B200050E00E94AC29CE0106966CE077E00E942E
:104B30006130CE016BE772E00E94613082E88093C1
:104B4000EE0381E18093F403002329F0CE014E9619
:104B50006BE772E004C0CE014E966EE177E00E94F2
:104B60005630E7E0F4E081E080930704818386E03B
:104B70008283138280912B0790912C07A0912D079F
:104B8000B0912E0784839583A683B7831186108600
:104B9000002319F080E890E002C080E090E0938765
:104BA000828783E294E06CE077E00E94613083EFDB
:104BB00094E0909338078093370784E064EB71E0CA
:104BC0000E940A2585E30E94002581E00E940025BD
:104BD0008F2D0E9400258DE30E94002587E00E9412
:104BE000002581E00E94002586E06CE077E00E94CD
:104BF0000A258CE00E9400250EE911E0E8010990E9
:104C00000020E9F72197C01BD10B8C2F0E940025B3
:104C10008C2FB8010E940A253F2D3330B1F482E376
:104C20000E94002584E00E94002584E062E177E094
:104C30000E940A2586E30E94002584E00E94002548
:104C400084E06EE177E00E940A2586E06EEA71E07A
:104C50000E940A2580913707909138078750944029
:104C60000E94EC29DF91CF911F910F91FF90089541
:104C70007F928F929F92AF92BF92CF92DF92EF92EC
:104C8000FF920F931F93CF93DF930E94D7200E9430
:104C9000243B4B015C0180E29EE4A0E0B0E0880E82
:104CA000991EAA1EBB1EDD24D39404E0C02E12E080
:104CB000712EF9C080912A07813061F00E94732023
:104CC000EC01009709F4EFC00E94362A009709F41E
:104CD00011C1E9C0C0E0D0E080912A07833009F417
:104CE000C1C0843030F4813071F0823009F0D9C015
:104CF00042C0853009F4BEC0853008F4D4C0863087
:104D000009F0CFC0B7C082E197E065E772E00E948A
:104D100056308EE197E065E772E00E9456300E94BF
:104D2000243B7B018C0160932B0770932C078093AD
:104D30002D0790932E070E94243B8701FF24EE2429
:104D4000E60EF71E081F191FE0922B07F0922C07A2
:104D500000932D0710932E0781E061E00E947525D6
:104D600070922A0710922F07109230071092310785
:104D70001092320798C0CE010E941A25823009F0A5
:104D800090C082E197E067E174E00E945630E7EF5F
:104D9000F4E08E0103521C4FDF011196E180ED011A
:104DA000219680818630A1F0873030F4813051F037
:104DB000833009F04AC009C0833369F0863309F0B3
:104DC00044C03EC086E197E03DC08AE197E03AC02A
:104DD00082E297E037C02B8111966C91119770E0B9
:104DE00080E090E0962F882777276627620F711D55
:104DF000811D911D298130E040E050E0A901332759
:104E00002227620F731F841F951F2A8130E040E024
:104E100050E0542F432F322F2227620F731F841F1D
:104E2000951F28EE33E040E050E00E94873D6093FC
:104E3000330770933407809335079093360705C086
:104E40008EE197E0BE010E945630FE01EE0DF11D8D
:104E5000E017F10708F4A0CF83E060E00E94752519
:104E600083E01CC0CE010E941A258330D1F4C09289
:104E70002A0707C0CE010E941A25843069F4809366
:104E80002A070E94243B60932F077093300780937A
:104E900031079093320707C0813029F480932A07A5
:104EA00002C0D0922A0780912A07843041F10E94E3
:104EB000243B681579058A059B0508F50E94252085
:104EC000882389F3F7CE80911A07882321F08AE19D
:104ED00097E00E94112A81E0DF91CF911F910F91FD
:104EE000FF90EF90DF90CF90BF90AF909F908F900A
:104EF0007F9008958091F4038131A9F6EDCE0E9450
:104F00009B21809112078823F1F6E6CFBC01109215
:104F10009E018EE991E04FE050E00E94433E81E027
:104F200080932A070E9438260895CF92DF92EF924D
:104F3000FF920F931F93CF93DF93FA0170E06352B8
:104F40007C4F213021F49A01275F3F4F05C022306A
:104F500031F49A012250304040E050E003C020E09C
:104F600030E0A901DB01EF0110C0DC90CC241196E8
:104F7000EC901197FF24EC28FD2800E010E02E0DA6
:104F80003F1D401F511F12962297C230D10568F76E
:104F9000DF01AE7FA60FB71FE0FF0FC0EC90FF242C
:104FA00000E010E0102F0F2DFE2CEE2402C040E098
:104FB00050E02E0D3F1D401F511F7A010027112781
:104FC000E114F1040105110591F720953095E82FC2
:104FD000F0E0E352FC4F30832183DF91CF911F91AA
:104FE0000F91FF90EF90DF90CF9008951092F5030E
:104FF0001092F60380E48093F1031092F203809301
:10500000F30388E16EE044E150E020E00E94952740
:105010000895209101043091FF03309301042093FF
:10502000FF03209102043091000430930204209386
:105030000004E7E0F4E02291820F911D2481848333
:10504000662311F0208301C0108224E0E330F207D0
:1050500019F0892F9927EFCF10920F0410921004A6
:1050600080E580930B0408959091ED0380E02091FA
:10507000EE0330E0282B392B80910B0490E0F4E014
:1050800095958795FA95E1F7880F991F880F991FD5
:10509000281B390B2451304037FF02C020E030E09C
:1050A000C9010895CF93DF93BC01CDEDD3E0CE01CC
:1050B0000E946130CE0106966CE077E00E9461307C
:1050C000DF91CF9108950F931F93CF93DF938B01BF
:1050D0000E945228CBEFD3E0CE01B8010E94563097
:1050E000CE01049762E177E00E945630DF91CF91C4
:1050F0001F910F9108950F931F93CF93DF9303EEAA
:1051000013E0C8010E945228E8016496C80148963D
:10511000BE010E945630CE0162E177E00E94563017
:105120000E94F627DF91CF911F910F910895CF93A1
:10513000DF93EC0188969093ED038093EE030E9439
:10514000F62710920F0410921004AE01445E5F4FD8
:1051500082E36AE122E00E949527CE01C6960E9472
:105160003E20DF91CF910895262F206120930C04DB
:10517000643021F0009711F481E090E061E00E943A
:1051800009281092ED0388E28093EE030E947B28A9
:1051900084E080930D0410920E0482E36AE14CE1F6
:1051A00050E022E00E94952786E390E00E943E2096
:1051B0000895CF93DF93EC018091440790914507C8
:1051C00060E00E94B42889E180930C04CE010E9423
:1051D0009728DF91CF9108950F931F93CF93DF937B
:1051E000BC0186E497E00E946328C9EED3E018E092
:1051F0001093E9031092EA03CE0102966AED78E07B
:1052000049E050E00E941F3E84E58093EE0301E0F8
:105210000093F4030E94F6271093FF0310920004FA
:10522000109201041092020485E08093030480919F
:105230001507809304041092050400930604CE0120
:105240004E9662E470E048E350E00E94353E84E20E
:1052500062E240E450E020E00E94952782E690E080
:105260000E943E20DF91CF911F910F9108951F93CF
:10527000CF93DF939C01162F86E497E0B9010E943B
:105280006328C9EED3E088E08093E9031092EA0333
:10529000CE0102966AED78E049E050E00E941F3EA0
:1052A0008CE48093EE0381E18093F4030E94F6275F
:1052B000109201048BE7809302048AE08093FF033D
:1052C000109300041092030488E380930404109266
:1052D000050410920604CE014E9620E3FC011192C3
:1052E0002A95E9F763EB79E04AE050E00E941F3E1F
:1052F00088E26AE140E450E021E00E9495278AE5D7
:1053000090E00E943E20DF91CF911F910895662387
:1053100021F0209102042617D9F4209103042223BE
:10532000B9F420910404283399F4209100042B3718
:1053300089F4FC0180912F0483838091300482835F
:1053400080913104818380913204808381E00895CB
:1053500080E0089580E00895EF92FF920F931F93ED
:10536000CF93DF93182F092FEB01F42EE52E86E45F
:1053700097E00E9463288881807F803E31F48DED24
:1053800093E065E872E00E94613088E08093E90371
:105390001092EA038BEE93E06AED78E049E050E08A
:1053A0000E941F3E1092ED0381E18093F403E0928E
:1053B0000104F09202040093FF0310930004109282
:1053C00003041092050410920604DF91CF911F91FF
:1053D0000F91FF90EF9008951F93CF93DF93EC010F
:1053E0004C969093ED03CE011C2F845E8093EE03C8
:1053F0000E94F627CE01089690930304185F10933D
:105400000404AE01405F5F4F88E26AE121E00E9440
:105410009527CE018A960E943E20DF91CF911F9161
:105420000895BC0181E0809339078AE197E00E94EA
:1054300056300895BC018091F403813099F4809135
:10544000FF03882379F480910704823469F487EF9D
:1054500093E044E050E00E94283E9C0181E0211549
:10546000310519F080E0089580E00895DF92EF9211
:10547000FF920F931F93CF93DF938C01009709F056
:10548000B5C0809139078570E9F18091B80190919C
:10549000B9010097B9F50E942520882399F185E884
:1054A00092E00E94522888E08093E90316E010936E
:1054B000EA038BEE93E062ED78E048E050E00E9472
:1054C0001F3ECDEFD3E0DE011D921A95E9F7CE0124
:1054D0000A976CE077E00E946130CE0106966AE19F
:1054E00077E00E945630CE01049762E177E00E9497
:1054F0005630809139078860809339078AE290E0BE
:105500000E943E208091B8019091B901019690933C
:10551000B9018093B80180913A07813009F024C223
:105520008091390781FF20C212E010933A078091E1
:10553000BA018F5F8093BA018F7100913B0702958A
:10554000000F007E082BD0903C07F0903D0786E4CA
:1055500097E066E277E00E946328E8E0EE2EE092B2
:10556000E9031092EA038BEE93E06AED78E049E0FC
:1055700050E00E941F3E8CE28093EE0386E0809311
:10558000F4030E94F627D0920104F09202048BE00B
:105590008093FF0300930004E3E0F4E0DF011D9239
:1055A000EA94E9F78091BB01809305048D5F8093B5
:1055B000BB0180E680930B0410930C0483E080937E
:1055C0000D0410920E0410920F0410921004109209
:1055D0001104109212041093130484E080931404B5
:1055E0001093150486E2809316048DC189329105CB
:1055F00008F4BAC1E090E903BE2DB83009F0BFC18C
:105600008091EA03863009F0BAC183E094E062E158
:1056100077E044E050E00E94283E009709F0AFC1D7
:105620008091F203813029F583EE93E00E945228A5
:105630001092F10382E08093F2038DEF93E063EF29
:1056400073E00E94613083EF93E06CE077E00E94AA
:10565000613083E094E069EF73E00E94563089EF97
:1056600093E062E177E00E9456308AE290E00E9487
:105670003E208091390783FF77C11091F2031230E9
:1056800009F072C189EF93E06AE177E044E050E00D
:105690000E94283E009709F067C186E497E063EF17
:1056A00073E00E946130109339075EC1EE2DE8303F
:1056B00009F05AC18091EA03882309F055C180910D
:1056C000EB03853409F050C18BEF93E062E177E0A2
:1056D00044E050E00E94283E009709F045C18091C7
:1056E000F4038130F9F49091FF039830D9F4E091FC
:1056F0003E07F0913F07309719F087EF93E0099547
:105700000E947B281092FF0390910104983F28F09B
:10571000809102048F5F80930204985F909301044C
:10572000C801FAC00633110518F4863009F01CC10F
:10573000209101042B3009F0A4C087EF93E066E2CA
:1057400077E044E050E00E94283E009709F00CC149
:10575000E0900C04FF24E2FE13C0E0914007F091BA
:105760004107309709F484C08091020482958695A0
:10577000877063E040E050E020E030E0099578C0B9
:105780000E943428EC0180913A07823079F5C701F4
:105790008271907082319105E9F480E090E060E0E0
:1057A0000E94B42888E180930C04E0914207F091B4
:1057B0004307309739F08091000482958695877071
:1057C000099502C080E090E023E020933A070E9410
:1057D0009728CAC081E080933A07E4FC03C0CE0159
:1057E000019602C080E090E064E0BCC0833091F597
:1057F000209781F1E0914007F0914107309751F1F6
:1058000040910B0450E074E0559547957A95E1F787
:10581000440F551F440F551FC80108974E5D5F4F39
:105820008417950708F4AC01CE01840F951F081763
:10583000190720F49801241B350B01C09E018091AB
:10584000020482958695877060E00995882311F09F
:10585000CE010BC080913A07853009F485C0809154
:105860000C0480FF09C0CE01019669E00E94B428B3
:1058700085E080933A0778C0209709F477C0CE017D
:1058800070C040919C0130E080919D0190E028170C
:10589000390709F069C080910204841709F064C0D7
:1058A000F0900C04F1FE3BC01092ED038CE280936B
:1058B000EE030E947B2882E180930C0481E090E05B
:1058C00060E00E9409281092030410920404809161
:1058D000BB0180930504109206048D5F8093BB0189
:1058E00082E08093130484E08093140485E0809325
:1058F00015041092160490E690930B0480930D0407
:1059000088E780930E0482E36AE140E250E022E0FF
:105910000E9495278AE390E00E943E2025C0F4FE75
:1059200023C00E9434289093450780934407009732
:10593000A1F080910B04C82FD0E054E0D595C79515
:105940005A95E1F7CC0FDD1FCC0FDD1FA296085052
:1059500010400C171D0750F407C0F0FE05C080E092
:1059600090E060E00E94B428C0E0D0E0CE01DF917A
:10597000CF911F910F91FF90EF90DF9008950A3221
:10598000110508F093CEF0CF6F927F928F929F9285
:10599000AF92BF92CF92DF92EF92FF920F931F933D
:1059A000CF93DF93EA012CE3E22EF12C012D112D90
:1059B000A80197010E94D93D6883CA01B901A801D5
:1059C00097010E94D93D6983CA01B90128E130E0FD
:1059D00040E050E00E94D93D59016A016A83CA0142
:1059E000B9016C5F7F4F8F4F9F4F27E030E040E061
:1059F00050E00E94D93D6F5F6B83EE24FF24870146
:105A000040E0E4E6F0E090E9892E91E0992E01C0B3
:105A10004F5F242F30E02E54384F83E0682E712CD6
:105A2000622273226114710461F4C901BF010E94F2
:105A3000C63D009759F4C901B4010E94C63D0097C4
:105A400029F08DE691E0A0E0B0E004C08EE691E0A0
:105A5000A0E0B0E0E80EF91E0A1F1B1FC701A0E07E
:105A6000B0E0A816B906CA06DB0690F64E836114AC
:105A7000710471F4C90164E670E00E94C63D0097AC
:105A800061F4C90160E971E00E94C63D009729F008
:105A90008DE691E0A0E0B0E004C08EE691E0A0E0E9
:105AA000B0E0E81AF90A0A0B1B0BD601C5018E19E2
:105AB0009F09A00BB10B7C018D01C90164E670E068
:105AC0000E94C63D6C01C90160E971E00E94C63DBB
:105AD000EBE8F2E060E0613049F46114710441F4F4
