:100000000C94F8050C9420060C9420060C94200601
:100010000C9420060C9420060C9420060C942006C8
:100020000C9420060C9420060C9420060C942006B8
:100030000C9420060C9420060C9420060C942006A8
:100040000C941B3A0C9420060C9420060C94200669
:100050000C9420060C9420060C9420060C94200688
:100060000C94C5380C942006687474703A2F2F7263
:10007000617973686F6262792E6E65742F73637233
:10008000697074732F6A6176612F737663312E38CD
:100090002E3300485454502F312E3020323030202F
:1000A0004F4B0D0A436F6E74656E742D54797065F5
:1000B0003A20746578742F68746D6C0D0A50726103
:1000C000676D613A206E6F2D63616368650D0A0D7F
:1000D0000A003C6D657461206E616D653D766965F1
:1000E00077706F727420636F6E74656E743D2277E3
:1000F000696474683D363430223E0D0A0048545419
:10010000502F312E302034303120556E6175746897
:100110006F72697A65640D0A436F6E74656E742D33
:10012000547970653A20746578742F68746D6C0D1D
:100130000A0D0A3C68313E34303120556E617574C9
:10014000686F72697A65643C2F68313E0077696E2A
:10015000646F772E6C6F636174696F6E3D222F221E
:100160003B3C2F7363726970743E0A0063760076BD
:1001700070006D7000647000637000677000766FCF
:1001800000636F00736E007073007673006373001A
:10019000767200637200706E0024460024440024CE
:1001A000440024460024463C6D65746120687474E4
:1001B000702D65717569763D22726566726573682A
:1001C0002220636F6E74656E743D22313B20757220
:1001D0006C3D2F223E0024463C7363726970743E6E
:1001E000616C65727428224F7074696F6E7320762B
:1001F000616C7565732073617665642E22293B24DA
:10020000460024463C7363726970743E616C65728B
:100210007428224E65772070617373776F726473F0
:10022000206D757374206D617463682122293B779A
:10023000696E646F772E6C6F636174696F6E3D22B7
:100240002F766F223B3C2F7363726970743E0A00F5
:1002500024463C7363726970743E616C65727428E5
:10026000224E65772070617373776F7264207365B7
:10027000742E22293B24460024463C736372697025
:10028000743E616C657274282256616C75657320CA
:100290006F7574206F6620626F756E642122293B32
:1002A00077696E646F772E6C6F636174696F6E3DF2
:1002B000222F766F223B3C2F7363726970743E0A63
:1002C0000024463C7363726970743E244600526594
:1002D000626F6F74696E672E2E2E0024463C6D652A
:1002E000746120687474702D65717569763D227231
:1002F0006566726573682220636F6E74656E743D07
:100300002224443B2075726C3D2F223E003C7363D7
:1003100072697074207372633D2224462F7669657A
:10032000776F7074696F6E732E6A73223E3C2F7301
:1003300063726970743E0A003C2F73637269707453
:100340003E0A00305D3B766172206E6F7074733DC3
:1003500024442C6C6F633D222453223B002224460C
:10036000222C24442C24442C24442C003C736372FF
:100370006970743E766172206F7074733D5B002407
:10038000462446003C736372697074207372633D47
:100390002224462F686F6D652E6A73223E3C2F73B0
:1003A00063726970743E0A003C73637269707420F2
:1003B0007372633D22706E2E6A73223E3C2F73630C
:1003C000726970743E0A000A766172206C72756EF2
:1003D0003D5B24442C24442C24442C244C5D3C2F91
:1003E0007363726970743E0A005B302C305D5D3B54
:1003F0000A76617220656E3D24442C72643D24446B
:100400002C72733D24442C6D6D3D24442C72647316
:10041000743D244C2C6D61733D24442C7572733DE6
:1004200024442C776C3D24442C697061733D244432
:100430002C6C6F633D222453223B005B24442C240C
:100440004C5D2C00305D3B7661722070733D5B002B
:1004500024442C00766172206E6272643D24442C28
:10046000747A3D24442C73626974733D5B003C7361
:1004700063726970743E766172207665723D2444C1
:100480002C646576743D244C3B0A002446244600C7
:1004900077696E646F772E6C6F636174696F6E3D00
:1004A000222F7670223B3C2F7363726970743E0A70
:1004B00000616C657274282250726F6772616D20E2
:1004C0002444206D6F64696669656422293B00617C
:1004D0006C65727428224E65772070726F67726146
:1004E0006D2061646465642E22293B0024463C73C0
:1004F00063726970743E003C736372697074207338
:1005000072633D2224462F706C6F7470726F672E79
:100510006A73223E3C2F7363726970743E0A003C1A
:10052000736372697074207372633D22706E2E6AF9
:1005300073223E3C2F7363726970743E0A00305D13
:100540003B0024442C00766172206D61736F703D16
:100550005B0024463C7363726970743E766172205E
:100560007365713D24442C6D61733D24442C776C7C
:100570003D24442C7364743D24442C6D746F6E3D93
:1005800024442C6D746F66663D24442C6465766447
:1005900061793D24442C6465766D696E3D24442C5C
:1005A00064643D24442C6D6D3D24442C79793D24B4
:1005B000443B0024463C7363726970743E77696EF5
:1005C000646F772E6C6F636174696F6E3D222F7656
:1005D00070223B3C2F7363726970743E0A003C7357
:1005E0006372697074207372633D2224462F6D6FAD
:1005F0006470726F672E6A73223E3C2F7363726958
:1006000070743E0A003C2F7363726970743E0A3C3A
:10061000736372697074207372633D22706E2E6A08
:1006200073223E3C2F7363726970743E0A005D3B17
:10063000002C2444007661722070726F673D5B2449
:10064000442C24442C24442C24442C24442C244482
:100650002C2444003C7363726970743E766172208E
:100660006E626F617264733D24442C7069643D2432
:10067000442C697061733D24443B002446244600A9
:100680003C736372697074207372633D2224462F39
:100690007669657770726F672E6A73223E3C2F739E
:1006A00063726970743E0A003C73637269707420EF
:1006B0007372633D22706E2E6A73223E3C2F736309
:1006C000726970743E0A00244624463C7363726962
:1006D00070743E0024463C7363726970743E244615
:1006E000003C736372697074207372633D22244608
:1006F0002F76696577726F2E6A73223E3C2F736383
:10070000726970743E0A003C73637269707420737E
:1007100072633D22706E2E6A73223E3C2F736372A9
:100720006970743E0A00244624463C736372697003
:10073000743E766172206E626F617264733D244410
:100740002C6D61733D24442C697061733D24443BDE
:100750003C2F7363726970743E0A003C7363726964
:100760007074207372633D707324442E6A733E3C30
:100770002F7363726970743E0A003C2F7363726951
:1007800070743E0A00766172206E70726F67733DFE
:1007900024442C6E626F617264733D24442C697032
:1007A00061733D24442C6D6E703D24442C70643D77
:1007B0005B5D3B002446005D3B002C2444007064DC
:1007C0005B24445D3D5B24442C24442C24442C2491
:1007D000442C24442C24442C24440024463C73639D
:1007E000726970743E616C65727428224368616E30
:1007F0006765732073617665642E22293B24460069
:1008000024467661722000305D3B3C2F7363726931
:1008100070743E0A3C736372697074207372633D36
:100820002224462F7669657773746174696F6E73DD
:100830002E6A73223E3C2F7363726970743E0A0005
:1008400024442C00766172206D61736F703D5B00F3
:1008500024463C7363726970743E766172206E62E6
:100860006F617264733D24442C6D61786C656E3DDC
:1008700024442C6D61733D24442C697061733D24C4
:10088000442C0027275D3B0A00272453272C0073A4
:100890006E616D65733D5B0020746865206E6574E4
:1008A000776F726B2E2E2E00436F6E6E65637469C8
:1008B0006E6720746F004669726D7761726520768D
:1008C00065722E0054696D65207A6F6E653A004E30
:1008D00054502053796E633A005573652044484361
:1008E000503A005374617469632E6970313A00693B
:1008F00070323A006970333A006970343A004761E7
:1009000074657761792E6970313A004854545020EB
:10091000706F72743A00004175746F207265636F76
:100920006E6E6563743A004578742E20626F617252
:1009300064733A0053657175656E7469616C3A0051
:1009400053746174696F6E2064656C61793A004D0F
:1009500061737465722073746174696F6E3A004DCF
:1009600061732E206F6E2061646A2E3A004D6173B0
:100970002E206F66662061646A2E3A0055736520EA
:100980007261696E2073656E736F723A004E6F729A
:100990006D616C6C79206F70656E3A00576174659B
:1009A00072206C6576656C202825293A0053656CA9
:1009B00066746573742074696D653A0049676E6F7B
:1009C00072652070617373776F72643A0044657664
:1009D0006963652049443A00526573657420616C0F
:1009E0006C3F004D6F6E0054756500576564005490
:1009F000687500467269005361740053756E00207B
:100A00007365630025004E6F00596573002B002B42
:100A10000020474D54003030003A002D002B0000DC
:100A20002020202020002D5261696E2053746F70A9
:100A30002D002D44697361626C6564212D003A00BC
:100A400045004D433A003A002E002D0020002020A2
:100A5000003A00200042333A686F6C6420746F20C3
:100A6000736176650042333A73656C2042312F42E0
:100A7000323A636867003D3D536574204F70746976
:100A80006F6E733D3D00506C656173652057616901
:100A9000742E2E2E00526573657420454550524FBA
:100AA0004D0000010800060400014500008200001E
:100AB000400020504F535420244620485454502F77
:100AC000312E310D0A486F73743A2024460D0A24E2
:100AD0004624534163636570743A202A2F2A0D0A15
:100AE000436F6E6E656374696F6E3A20636C6F73EB
:100AF000650D0A436F6E74656E742D4C656E677478
:100B0000683A2024440D0A436F6E74656E742D5448
:100B10007970653A206170706C69636174696F6E99
:100B20002F782D7777772D666F726D2D75726C65C6
:100B30006E636F6465640D0A0D0A245300474554C3
:100B4000202446245320485454502F312E310D0A6E
:100B5000486F73743A2024460D0A416363657074CC
:100B60003A20746578742F68746D6C0D0A436F6E4B
:100B70006E656374696F6E3A20636C6F73650D0AFE
:100B80000D0A00E30004FA0001000000010000006B
:100B900000240027002A0000000000250028002B68
:100BA00000000000002300260029000404040404BF
:100BB000040404020202020202030303030303010A
:100BC00002040810204080010204081020010204E1
:100BD00008102000000007000201000003040600C6
:100BE0000000000000000000CB1D36259926472A92
:100BF00011241FBECFEFD8E0DEBFCDBF12E0A0E0D2
:100C0000B1E0EAEBFCE702C005900D92AE3AB10705
:100C1000D9F718E0AEEAB2E001C01D92A634B107E0
:100C2000E1F71BE0C0EFDBE004C02297FE010E9469
:100C3000693DC83ED107C9F70E94EC3C0C945B3E6D
:100C40000C940000CF93DF93E7EBF2E0C7E3D3E02F
:100C5000A7EBB3E01192119211921192199219928D
:100C6000199219921D9283E0E733F80799F7DF9103
:100C7000CF91089584ED91E00E942B3E8093AE02C7
:100C800008950E9422060E943A061092AF02109226
:100C9000B0021092B2021092B1021092B3021092FE
:100CA000B4021092B5021092B602089584ED91E05C
:100CB0006091AE020E943D3E08951092AE020E94E5
:100CC00056060895282FCB013091AE02231750F419
:100CD0006FE0269FB00111246A527E4F4FE050E032
:100CE0000E941B3E08952091AE02243288F46FE0EA
:100CF000269FB00111246A527E4F4FE050E00E94BF
:100D0000333E8091AE028F5F8093AE020E94560602
:100D10000895282FCB013091AE02231750F46FE0D5
:100D2000269FB00111246A527E4F4FE050E00E948E
:100D3000333E0895EF92FF920F931F93DF93CF936B
:100D4000CDB7DEB760970FB6F894DEBF0FBECDBF4C
:100D50009091AE028917A8F5992399F190E0019638
:100D60008C0124E0000F111F2A95E1F7081B190BD5
:100D70000A521E4F2FE07E010894E11CF11C12C0A4
:100D8000C701B8014FE050E0288B0E941B3EB8011C
:100D90006F507040C7014FE050E00E94333E015F4A
:100DA0001F4F28893091AE02329FC00111248A5210
:100DB0009E4F0817190720F331503093AE020E945E
:100DC000560660960FB6F894DEBF0FBECDBFCF912A
:100DD000DF911F910F91FF90EF9008956F927F9296
:100DE0008F929F92AF92BF92CF92DF92EF92FF923B
:100DF0000F931F93DF93CF930F92CDB7DEB73C01D4
:100E00007A018B01CB01BA010E942A334C01C8013F
:100E1000B7010E9424335C01D3011E968C911E976A
:100E2000882309F48EC0CC90C7FE23C01196DC90B5
:100E3000BD2DB230F0F0C801B70120E831E541E046
:100E400050E00E94453D79018A012D2D30E040E0BF
:100E500050E0C801B7010E94453DEFE7CE22DD24F6
:100E6000EE24FF246C157D058E059F0509F069C0F1
:100E700036C0C801B7010E941833D3012C9130E06D
:100E800090E0059667E070E00E94323D02C0359523
:100E900027958A95E2F720FF54C0C801B7010E9448
:100EA0001E33282FF301808187FF19C08181882399
:100EB00019F420FF14C045C0813089F42F3109F4A2
:100EC00040C02D3109F04EC0C801B70129830E94EE
:100ED000123329818230910509F044C032C08CE37D
:100EE00090E0889EF001899EF00D989EF00D1124EF
:100EF000EA0DFB1DD30112968D919C911397E81773
:100F0000F907F8F014962D913C9115972E173F078D
:100F1000C0F016962D913C9117972115310589F057
:100F2000E81BF90BCF01B9010E941E3D629FA00191
:100F3000639F500D729F500D112481E04E175F0783
:100F400009F080E00F90CF91DF911F910F91FF90FA
:100F5000EF90DF90CF90BF90AF909F908F907F9059
:100F60006F90089520FDBBCFECCF9F92AF92BF92C0
:100F7000CF92DF92EF92FF920F931F93CF93DF9365
:100F8000EC01988019810E943D34A12EBB24CC2411
:100F9000DD24292D2F77E22EFF24E10EF11C0027FE
:100FA000F7FC0095102F20E831E541E050E00E9469
:100FB000453DCA01B901A60195010E94453DE61AC9
:100FC000F70A080B190BC801B701A60195010E9489
:100FD000453D892D8078862B8883DF91CF911F91A5
:100FE0000F91FF90EF90DF90CF90BF90AF909F90C8
:100FF0000895CF92DF92EF92FF920F931F93CF93BA
:10100000DF93EC01D880C9800E943D3420E831E5AF
:1010100041E050E00E94453D79018A018D2D8F7796
:10102000E80EF11C011D111D2C2D30E040E050E0B8
:10103000C801B7010E94453D8D2D8078862B88839D
:10104000DF91CF911F910F91FF90EF90DF90CF90A4
:101050000895FC01A481B5816D93B583A48308959F
:10106000CF93DF938DB79EB70E970FB6F8949EBFC0
:101070000FBE8DBFEDB7FEB73196CAECD6E0ADB767
:10108000BEB71296DC93CE93119786E297E09383D6
:10109000828383E990E09583848382ED90E0978357
:1010A00086838091F706808711868091F60182877A
:1010B000138680911902848715860E94FE34EDB74D
:1010C000FEB73A960FB6F894FEBF0FBEEDBFD283BF
:1010D000C18387E097E0948383830E94FE3400D02D
:1010E000EDB7FEB73196ADB7BEB71296DC93CE938F
:1010F000119781EE96E09383828388E690E0958352
:1011000084830E94FE34EDB7FEB736960FB6F8948E
:10111000FEBF0FBEEDBF81E0DF91CF9108958F92AA
:101120009F92BF92CF92DF92EF92FF920F931F9305
:10113000CF93DF938DB79EB708970FB6F8949EBFF5
:101140000FBE8DBFEDB7FEB731969AECE92E96E053
:10115000F92EADB7BEB71296FC92EE9211978FE7BB
:1011600093E09383828383E990E09583848382ED87
:1011700090E0978386830E94FE340F900F900F902B
:101180000F90EDB7FEB7F282E1828CE693E0948394
:1011900083830E94FE340CE911E00F900F900F90B2
:1011A0000F90C0E0D0E0DD24BE2CCF2C8DE5E82EE2
:1011B00083E0F82E4E017C2F692DD80114968C9176
:1011C000149781FF3AC012964D915C91139721E0DC
:1011D00030E011968C911197813011F020E030E0D1
:1011E000F8018081C43119F490E0CC9701C090E0FF
:1011F000EDB7FEB73C970FB6F894FEBF0FBEEDBF3C
:101200003196ADB7BEB71196BC9211971296CC929B
:10121000F382E282558344833783268391878087D4
:10122000728763870E94FE34D394EDB7FEB73C9675
:101230000FB6F894FEBF0FBEEDBF21960B5F1F4F98
:10124000CC31D10509F0B6CFC9EAD6E080E390E011
:10125000BE010E94EF248DB79EB708970FB6F89491
:101260009EBF0FBE8DBFEDB7FEB731960AEC16E0FC
:10127000ADB7BEB712961C930E93119783E493E01B
:1012800093838283D4821582D783C6830E94FE34DF
:101290000F900F900F900F90EDB7FEB71283018360
:1012A00088E393E0948383830E94FE3400D0EDB7FB
:1012B000FEB73196ADB7BEB712961C930E93119739
:1012C0008DE093E09383828388E690E09583848326
:1012D0000E94FE34EDB7FEB736960FB6F894FEBF07
:1012E0000FBEEDBF81E0DF91CF911F910F91FF9075
:1012F000EF90DF90CF90BF909F908F900895BF9216
:10130000CF92DF92EF92FF920F931F93DF93CF93D1
:10131000CDB7DEB72F970FB6F894DEBF0FBECDBFA7
:101320008C010D5F1F4FC8010E94AC25C80169EAFE
:1013300076E040E220E031E00E946025882309F455
:1013400011C189EA96E00E946D3D8C018FEF0F3F3D
:1013500018070CF407C18091AE0290E00817190736
:101360000CF000C1ADB7BEB718970FB6F894BEBF6A
:101370000FBEADBFEDB7FEB731963AECE32E36E0C7
:10138000F32E1296FC92EE9211978BE796E09383E0
:10139000828383E990E09583848382ED90E0978354
:1013A00086830E94FE3400D0EDB7FEB73196ADB70C
:1013B000BEB71296FC92EE92119784E596E0938365
:1013C00082838091F7068483158217830683809138
:1013D0001902808711860E94FE34EDB7FEB73A9657
:1013E0000FB6F894FEBF0FBEEDBFFFEF0F3F1F0714
:1013F00009F48CC0802F8E010F5F1F4FB8010E942F
:1014000062068A81823018F0C8010E94B5078DB744
:101410009EB742970FB6F8949EBF0FBE8DBFEDB733
:10142000FEB731960AEC16E0ADB7BEB712961C9324
:101430000E93119785E396E0938382838F8584834F
:1014400015828981868317828A81808711868B81A4
:101450009C81938782878D819E81958784878F81E8
:1014600098859787868789859A85918B808B0E943E
:10147000FE34EDB7FEB772960FB6F894FEBF0FBEFE
:10148000EDBFDD24B02EC12E21E3E22E26E0F22EA8
:101490008E01055F1F4F20C000D000D000D0EDB7F7
:1014A000FEB73196ADB7BEB71196BC9211971296A2
:1014B000CC92F382E282D801AD0DB11D8C91848370
:1014C00015820E94FE34D394EDB7FEB736960FB660
:1014D000F894FEBF0FBEEDBF8091F706D816E0F27C
:1014E00000D000D08AEC96E0ADB7BEB712969C93C0
:1014F0008E9311978EE296E014969C938E93139799
:101500000E94FE340F900F900F900F9000D000D0EB
:101510000AEC16E0EDB7FEB71283018385E096E092
:10152000948383830E94FE3400D0EDB7FEB73196DA
:10153000ADB7BEB712961C930E9311978EED95E042
:101540009383828388E690E0958384830E94FE34AF
:10155000EDB7FEB736960FB6F894FEBF0FBEEDBFDF
:1015600081E001C080E02F960FB6F894DEBF0FBE79
:10157000CDBFCF91DF911F910F91FF90EF90DF9042
:10158000CF90BF90089582E00E940B23282F30E077
:1015900086FF41C02F7030702230310591F0243029
:1015A000310509F121303105B1F587FF03C00E94F3
:1015B000EF1F0895609158027091590289EB97E0EE
:1015C00009C087FF03C00E94F91F089581EC97E0CE
:1015D00060E070E00E94042160ED77E080E090E040
:1015E0000E94A33A089587FF06C081E00E940B2362
:1015F0000E94261E08952091F606822F8F7090E09B
:1016000001966091F70670E00E94323D8F70207F56
:10161000282B2093F60608951F93182F0E943D341F
:10162000E12FF0E0EE0FFF1FEE0FFF1FE95CFC4F14
:1016300060837183828393831F9108950F931F9317
:10164000CF93DF93182FEB010E943D34012F10E060
:101650006F5F7F4F8F4F9F4FD801AA0FBB1FAA0FFD
:10166000BB1F9D0129543D4FF90160837183828323
:101670009383A95CBC4F209729F42EEF3FEF4FEFE7
:101680005FEF09C09E01442737FD4095542F260F78
:10169000371F481F591F2D933D934D935C9313970C
:1016A000F801E954FC4F83E680838091F506886059
:1016B0008093F506DF91CF911F910F910895AF921E
:1016C000BF92CF92DF92EF92FF920F931F93CF932F
:1016D000DF93DC011296C9EAD6E0E0E08D018D913E
:1016E000982F90539A3028F4E43019F08993EF5FE3
:1016F000F5CFF0E0E755F94F108289EA96E00E94B5
:101700006D3DEC0197FDE5C08091F80690E08C17E7
:101710009D070CF4DEC0D8018C918D3309F04DC0CB
:10172000209709F4D6C08091F50684FFD2C0219796
:10173000C801019611962C911197203321F48C2F1A
:101740000E940C0B19C0213309F0C3C069EA76E08E
:1017500040E224E031E00E946025882341F089EADC
:1017600096E00E946D3DBC0197FF03C0B2C060E0EF
:1017700070E08C2F0E941E0B00D000D000D0EDB77F
:10178000FEB731968AEC96E0ADB7BEB712969C9341
:101790008E93119785EA91E09383828383E990E0A9
:1017A000958384830E94FE34EDB7FEB736960FB65C
:1017B000F894FEBF0FBEEDBF8AC000D000D000D0AD
:1017C000EDB7FEB731968AEC96E0ADB7BEB712968C
:1017D0009C938E93119782EA91E09383828383E9AD
:1017E00090E0958384830E94FE34EDB7FEB7369671
:1017F0000FB6F894FEBF0FBEEDBF209721F4809185
:10180000F80600E003C08C2F0C2F015010E0C82F09
:10181000D0E0FAECEF2EF6E0FF2EECE9CE2EE1E080
:10182000DE2E7FE9A72E71E0B72E4DC08091F50620
:10183000982F9370913059F590910502992311F0EA
:1018400082FD25C000D000D000D0EDB7FEB73196A4
:10185000ADB7BEB71296FC92EE921197B382A282F8
:10186000D80163E0B595A7956A95E1F7A750B94F00
:101870008C9190E098012770307002C09595879503
:101880002A95E2F7817090709583848310C000D010
:1018900000D000D0EDB7FEB73196ADB7BEB7129607
:1018A000FC92EE921197D382C282158214820E941A
:1018B000FE34EDB7FEB736960FB6F894FEBF0FBEF6
:1018C000EDBF0F5F1F4F0C171D070CF4AFCF81E06A
:1018D00001C080E0DF91CF911F910F91FF90EF90B9
:1018E000DF90CF90BF90AF900895EF92FF920F934B
:1018F0001F932091D0063091D1064091D20650918D
:10190000D306211531054105510549F46093D006F0
:101910007093D1068093D2069093D30656C07B0174
:101920008C01E21AF30A040B150BA80197012D3361
:1019300031054105510508F448C06093D006709305
:10194000D1068093D2069093D30681EC97E00E9453
:10195000A32B0E946F3A7B018C010E94DC300E9415
:10196000ED2C81EC97E00E94D12C882361F40E9439
:101970006F3A6E197F09800B910B683C71058105E8
:10198000910558F31AC08091F6068F708093F60681
:101990008091F60682958F7090E083309105ACF0CF
:1019A0008091E201882389F06091D7037091D80378
:1019B00085E591E00E94D21D08C08091F606982F1F
:1019C000907F905F8F70892BE1CF1F910F91FF90D7
:1019D000EF900895DF92EF92FF920F931F93CF93B2
:1019E000DF936F5F7F4F8F4F9F4FD090F806E0904F
:1019F000F506442359F4E694E694E69421E0E222C5
:101A0000A7E3B3E0C7EBD2E0FF246CC00E2D069530
:101A1000069506950170A7E3B3E0C7EBD2E0ED2D84
:101A2000F0E0EE0FFF1FEE0FFF1FEA0FFB1F20C0BD
:101A30002D913D914D915C911397211531054105F3
:101A40005105A1F0688379838A839B83620F731F9A
:101A5000841F951F6D937D938D939C931397209175
:101A6000F101620F711D811D911D01E014962496F4
:101A7000AE17BF07E9F60170000F000F000F80914D
:101A8000F506877F802B39C02D913D914D915C915A
:101A90001397211531054105510509F1EF2DE69503
:101AA000E695E695F0E0E750F94F008110E0EF2D64
:101AB000E77002C015950795EA95E2F700FD0FC0A3
:101AC000688379838A839B83260F371F481F591F9A
:101AD0002D933D934D935C931397EE24E394F394ED
:101AE00014962496FD1480F29E2D9170990F990FF3
:101AF000990F8091F506877F892B8093F506DF91FA
:101B0000CF911F910F91FF90EF90DF9008950E9469
:101B1000DE1E0E94E71E0E942206089520911902EF
:101B2000222389F469EA76E040E226E031E00E946F
:101B30006025882351F089EA96E00E94122591E001
:101B4000882321F402C091E001C090E0892F08951C
:101B50005F926F927F928F929F92AF92BF92CF923D
:101B6000DF92EF92FF920F931F93DF93CF93CDB746
:101B7000DEB7A0970FB6F894DEBF0FBECDBF23E04F
:101B8000E22EF12CE80EF91EC7010E948E0D88236B
:101B900009F4E7C00CE911E0CC24DD24BB249FE666
:101BA000A92E82E0682E712C6C0E7D1E4E010894C9
:101BB000811C911CC601D80114962C91149721FF09
:101BC00035C011962C911197213009F41C92A982ED
:101BD0001A821B821C821D82B3014AE050E00E94DF
:101BE000CD3DC70169EA76E040E294010E9460259C
:101BF0008823E1F0F8015180F52DF13019F4D80176
:101C00005C9214C089EA96E00E946D3DBC2DB4310F
:101C100009F4CC9697FD08C0252D30E02817390728
:101C20001CF0F801808302C0BB24B3940894C11C4B
:101C3000D11C0B5F1F4FFCE1CF16D10409F0BACFC6
:101C4000C70169EA76E040E229E031E00E946025C0
:101C5000882351F089EA96E00E94AC2580E390E069
:101C600069EA76E00E940A24BB2089F000D000D007
:101C700000D0EDB7FEB731968AEC96E0ADB7BEB7AF
:101C800012969C938E93119788E792E091C00E94E0
:101C9000CC1FC70169EA76E040E22DE031E00E9406
:101CA0006025882399F1C7018E010F5F1F4FB8018E
:101CB00040E221E131E00E946025882309F468C0F8
:101CC00089EA96E0B80140E150E00E94BF3D0097EC
:101CD00009F05EC080E290E069EA76E00E940A24A2
:101CE0008DB79EB708970FB6F8949EBF0FBE8DBFF5
:101CF000EDB7FEB731968AEC96E0ADB7BEB7129657
:101D00009C938E93119780E592E015C08DB79EB796
:101D100008970FB6F8949EBF0FBE8DBFEDB7FEB704
:101D200031968AEC96E0ADB7BEB712969C938E932F
:101D3000119786ED91E09383828383E990E0958308
:101D400084838DE491E0978386830E94FE34EDB70F
:101D5000FEB738960FB6F894FEBF0FBEEDBF81E018
:101D600001C080E0A0960FB6F894DEBF0FBECDBFD5
:101D7000CF91DF911F910F91FF90EF90DF90CF9067
:101D8000BF90AF909F908F907F906F905F900895DD
:101D900000D000D000D0EDB7FEB731968AEC96E0C7
:101DA000ADB7BEB712969C938E93119782E092E0E6
:101DB0009383828383E990E0958384830E94FE3439
:101DC000EDB7FEB73696C6CF0F931F93CF93DF9331
:101DD000EC012396CE010E948E0D882309F4E5C004
:101DE000CE0169EA76E040E225E131E00E9460251B
:101DF000882311F00E94870DCE0169EA76E040E267
:101E000029E131E00E946025882309F449C089EA6C
:101E100096E00E946D3D181619060CF041C08DB772
:101E20009EB708970FB6F8949EBF0FBE8DBFEDB753
:101E3000FEB731960AEC16E0ADB7BEB712961C930A
:101E40000E9311978BED92E09383828383E990E068
:101E5000958384838AE090E0978386830E94FE3492
:101E60000F900F900F900F90EDB7FEB71283018384
:101E70008EEC92E0948383830E94FE340F900F9047
:101E80000F900F908091CE069091CF062091CC06B6
:101E90003091CD06821B930B0E94902B0E94261E30
:101EA000CE0169EA76E040E22DE131E00E94602552
:101EB000882399F08091A906813339F48091F50641
:101EC00080FD0BC00E94EF1F08C0803331F4809169
:101ED000F50680FF02C00E94F91FCE0169EA76E094
:101EE00040E220E231E00E9460258823D9F0809111
:101EF000A906813351F48091F50684FD13C00E9438
:101F0000870D8091F50680610BC0803359F4809174
:101F1000F50684FF07C00E94870D8091F5068F7E2D
:101F20008093F506CE0169EA76E040E223E231E0F3
:101F30000E946025882371F089EA96E00E946D3D39
:101F4000181619061CF40E94032004C0009769F5B6
:101F50000E9432208DB79EB708970FB6F8949EBFA7
:101F60000FBE8DBFEDB7FEB731968AEC96E0ADB7E8
:101F7000BEB712969C938E93119781EC92E0938357
:101F8000828383E990E0958384838DE491E0978355
:101F900086830E94FE34EDB7FEB738960FB6F894EC
:101FA000FEBF0FBEEDBF81E001C080E0DF91CF91A9
:101FB0001F910F910895CF93DF93EC012396CE01EB
:101FC0000E94AC25CE010E948E0D882309F43FC0EB
:101FD000CE0169EA76E040E220E031E00E9460252F
:101FE0008823A9F189EA96E00E946D3D2FEF8F3F8B
:101FF000920719F40E945D0608C02091AE0230E0FD
:102000008217930724F50E949A0600D000D000D0D2
:10201000EDB7FEB731968AEC96E0ADB7BEB7129633
:102020009C938E93119783EB95E09383828383E94E
:1020300090E0958384830E94FE348DB79EB7069608
:102040000FB6F8949EBF0FBE8DBF81E001C080E047
:10205000DF91CF9108958F929F92AF92BF92CF92CE
:10206000DF92EF92FF920F931F93DF93CF9300D0F5
:1020700000D0CDB7DEB753E0C52ED12CC80ED91E87
:10208000C6010E948E0D882309F486C083E78983E8
:102090001A821B821C8200E042E0A42EB12CAC0EFE
:1020A000BD1E7E010894E11CF11C1AC0802F90E037
:1020B000B5014AE050E00E94CD3DC60169EA76E0F4
:1020C00040E297010E946025882349F089EA96E062
:1020D0000E94AC25802F69EA76E00E94541E0F5FB3
:1020E0008091F806081710F38DE68983FF2432E00B
:1020F000832E912C8C0E9D1E5E010894A11CB11C98
:102100001AC00F2D10E0C801B4014AE050E00E944F
:10211000CD3DC60169EA76E040E295010E94602566
:10212000882341F089EA96E00E946D3DF801E35072
:10213000F94F8083F3948091F706F81610F30E940C
:10214000831E8DB79EB708970FB6F8949EBF0FBE3B
:102150008DBFEDB7FEB731968AEC96E0ADB7BEB74E
:1021600012969C938E9311978BED97E093838283C5
:1021700083E990E0958384838DE491E0978386835F
:102180000E94FE348DB79EB708960FB6F8949EBF96
:102190000FBE8DBF81E001C080E00F900F900F90C7
:1021A0000F90CF91DF911F910F91FF90EF90DF90F3
:1021B000CF90BF90AF909F908F900895AF92BF92B5
:1021C000DF92EF92FF920F931F93CF93DF9300D094
:1021D00000D0CAECD6E0ADB7BEB71296DC93CE9372
:1021E00011978FE898E014969C938E9313970E9412
:1021F000FE340F900F900F900F90FF24FE01DC2E05
:10220000EF2E09EA16E0C9E8D8E021C08F2D69EA6F
:1022100076E00E942C1E00D000D000D0EDB7FEB7B3
:102220003196ADB7BEB71196DC9211971296EC922B
:10223000D383C283158304830E94FE34F394EDB7E5
:10224000FEB736960FB6F894FEBF0FBEEDBF809175
:10225000F806F816D8F200D000D08AEC96E0ADB7B8
:10226000BEB712969C938E93119783E898E01496CC
:102270009C938E9313970E94FE340F900F900F90B3
:102280000F90DF91CF911F910F91FF90EF90DF9012
:10229000BF90AF90089500D000D000D0EDB7FEB74A
:1022A00031968AEC96E0ADB7BEB712969C938E93AA
:1022B000119780E098E09383828383E990E095838F
:1022C00084830E94FE348DB79EB706960FB6F894AD
:1022D0009EBF0FBE8DBF0E94DE1081E00895CF9299
:1022E000DF92FF920F931F93CF93DF938DB79EB72B
:1022F0000E970FB6F8949EBF0FBE8DBFEDB7FEB719
:102300003196CAECD6E0ADB7BEB71296DC93CE9349
:10231000119780E598E09383828383E990E0958329
:1023200084838091F706868317828CE090E0918702
:1023300080878091F60182871386809119028487B5
:1023400015860E94FE34EDB7FEB73E960FB6F894A0
:10235000FEBF0FBEEDBF0E94DE1000D000D0ADB7B3
:10236000BEB71296DC93CE93119784E498E014964E
:102370009C938E9313970E94FE340F900F900F90B2
:102380000F9010E0FE01FC2E0F2FC0E4D8E021C01A
:1023900000D000D000D0EDB7FEB73196ADB7BEB7D4
:1023A0001196FC92119712960C93D383C283A12F9E
:1023B000B0E0A350B94F8C91848315820E94FE3403
:1023C0001F5FEDB7FEB736960FB6F894FEBF0FBE8F
:1023D000EDBF8091F7061817D8F200D000D000D0DA
:1023E000EDB7FEB731968AEC96E0ADB7BEB7129660
:1023F0009C938E93119787E098E09383828388E67D
:1024000090E0958384830E94FE34EDB7FEB7369644
:102410000FB6F894FEBF0FBEEDBF81E0DF91CF9104
:102420001F910F91FF90DF90CF9008952F923F92D0
:102430004F925F926F927F928F929F92AF92BF92D4
:10244000CF92DF92EF92FF920F931F93DF93CF9380
:10245000CDB7DEB760970FB6F894DEBF0FBECDBF25
:10246000782E082F10E0095F1F4F6E010894C11CE1
:10247000D11CFAECEF2EF6E0FF2EEEEB4E2EE7E04D
:102480005E2E7BE0872E912C8C0E9D1EC701E88A64
:10249000692E67EB262E67E0362E72C0C6010E94B9
:1024A000B5078DB79EB744970FB6F8949EBF0FBE81
:1024B0008DBFEDB7FEB73196ADB7BEB71296FC92A1
:1024C000EE92119753824282B582A4828F858683D1
:1024D00017828981808711868A81828713868B8102
:1024E0009C81958784878D819E81978786878F8140
:1024F0009885918B808B89859A85938B828B0E949E
:10250000FE34EDB7FEB774960FB6F894FEBF0FBE5B
:10251000EDBFAA2421C000D000D000D0EDB7FEB797
:102520003196ADB7BEB71296FC92EE9211978AEB38
:1025300097E093838283D401AA0DB11D8C9184838B
:1025400015820E94FE34A394ADB7BEB716960FB69F
:10255000F894BEBF0FBEADBF8091F706A816D8F2A3
:1025600000D000D08889EDB7FEB7818362823482C3
:1025700023820E94FE3473940F900F900F900F905F
:10258000A72CBB240A151B056CF08091AE027816AF
:1025900048F4872DB6010E9462068A81823008F0D5
:1025A0007DCF7FCF60960FB6F894DEBF0FBECDBF54
:1025B000CF91DF911F910F91FF90EF90DF90CF901F
:1025C000BF90AF909F908F907F906F905F904F9053
:1025D0003F902F9008950F931F93DF93CF930F9207
:1025E000CDB7DEB78C0102960E94AC25D8011296B9
:1025F0008C91880F880F880F805800D000D000D0B1
:10260000EDB7FEB731962AEC36E0ADB7BEB71296FD
:102610003C932E93119724EB37E03383228323E9F5
:1026200030E03583248389830E94FE34EDB7FEB702
:1026300036960FB6F894FEBF0FBEEDBF89810E949B
:10264000161281E00F90CF91DF911F910F910895A5
:10265000DF92EF92FF920F931F93CF93DF938DB78B
:102660009EB70C970FB6F8949EBF0FBE8DBFEDB707
:10267000FEB731960AEC16E0ADB7BEB712961C93C2
:102680000E93119785E897E0938382838091AE0241
:10269000848315828091F7068683178280911902C0
:1026A0008087118684E290E0938782870E94FE34BF
:1026B000EDB7FEB73C960FB6F894FEBF0FBEEDBF68
:1026C00080E00E94161200D000D0ADB7BEB71296BF
:1026D0001C930E9311978AE797E014969C938E9320
:1026E00013970E94FE340F900F900F900F908091DF
:1026F000AE02893088F1FF24F394C8E0D0E0D02EF8
:10270000E12E0BE517E01CC000D000D000D0EDB7E3
:10271000FEB73196ADB7BEB71196DC9211971296FF
:10272000EC9213830283358324830E94FE34F39456
:10273000EDB7FEB736960FB6F894FEBF0FBEEDBFED
:102740002F2D30E08091AE0290E00197BE010E94F3
:10275000323D62177307C4F6DF91CF911F910F913D
:10276000FF90EF90DF9008952F923F924F925F92EB
:102770006F927F928F929F92AF92BF92CF92DF9291
:10278000EF92FF920F931F93CF93DF93EC01239669
:10279000CE010E94AC250E943D347B018C010E9439
:1027A00009333C01C801B7010E9412334C01C80132
:1027B000B7010E941E336C01C801B70120E831E562
:1027C00041E050E00E94453D1901C801B7010E9457
:1027D0002A332C01C801B7010E9424332CE330E0D6
:1027E000429E5001439EB00C529EB00C1124A80E84
:1027F000B91ECE0169EA76E040E226E231E00E94AD
:102800006025882361F089EA96E00E946D3D6C01A5
:10281000009729F4C801B7010E941E336C01CE0154
:1028200069EA76E040E228E231E00E9460258823F0
:1028300029F089EA96E00E946D3D4C01CE0169EADB
:1028400076E040E22AE231E00E946025882329F008
:1028500089EA96E00E946D3D3C018DB79EB74C978A
:102860000FB6F8949EBF0FBE8DBFEDB7FEB7319681
:10287000CAECD6E0ADB7BEB71296DC93CE931197F3
:1028800082E595E09383828383E990E09583848356
:102890008091EC01868317828091F60180871186F2
:1028A00080910F02828713868091F10184871586BB
:1028B0008091FB018687178680910002808B118AA8
:1028C000338A228AB58AA48AD78AC68A918E808E54
:1028D000738E628E0E94FE34EDB7FEB778960FB607
:1028E000F894FEBF0FBEEDBFD283C18386E495E0AE
:1028F000948383830E94FE340F900F900F900F906B
:10290000EE244E01AC2EC92C02E415E021C000D00B
:1029100000D000D0EDB7FEB73196ADB7BEB7119677
:10292000AC9211971296CC9213830283AE2DB0E035
:10293000A350B94F8C91848315820E94FE34E39496
:10294000EDB7FEB736960FB6F894FEBF0FBEEDBFDB
:102950008091F706CAECD6E0E816C8F200D000D0A5
:10296000ADB7BEB71296DC93CE9311978EE395E088
:1029700014969C938E9313970E94FE340F900F90A1
:102980000F900F900E94281300D000D0EDB7FEB733
:10299000D283C1838FE195E0948383830E94FE34C8
:1029A00000D0EDB7FEB73196ADB7BEB71296DC9347
:1029B000CE93119787EF94E09383828388E690E02B
:1029C000958384830E94FE34EDB7FEB736960FB62A
:1029D000F894FEBF0FBEEDBF81E0DF91CF911F9154
:1029E0000F91FF90EF90DF90CF90BF90AF909F90AE
:1029F0008F907F906F905F904F903F902F900895B1
:102A0000CF93DF938DB79EB708970FB6F8949EBF0C
:102A10000FBE8DBFEDB7FEB73196CAECD6E0ADB7AD
:102A2000BEB71296DC93CE93119787EC96E0938312
:102A3000828383E990E09583848382ED90E097839D
:102A400086830E94FE34EDB7FEB738960FB6F89431
:102A5000FEBF0FBEEDBF0E94281300D000D0ADB75F
:102A6000BEB71296DC93CE93119788EA96E014963F
:102A70009C938E9313970E94FE3400D0EDB7FEB75F
:102A80003196ADB7BEB71296DC93CE93119780E81E
:102A900096E09383828388E690E0958384830E9406
:102AA000FE34EDB7FEB736960FB6F894FEBF0FBEF4
:102AB000EDBF81E0DF91CF910895CF93DF93DC01EB
:102AC0001092A906C9EAD6E0ED91FC91119780E039
:102AD00090E00BC021912D3231F02B3221F0322FBA
:102AE00030533A3058F429930196AF012D913C911F
:102AF0001197265F3F4FE217F30760F38755994F11
:102B0000FC011082CA0101968D939C9389EA96E09C
:102B10000E946D3DDF91CF910895CF92DF92EF92A9
:102B2000FF920F931F93DF93CF93CDB7DEB76297DA
:102B30000FB6F894DEBF0FBECDBF6C018C010D5FE8
:102B40001F4FC8010E94AC25C8010E948E0D88232A
:102B500009F405C1C80169EA76E040E220E031E00D
:102B60000E946025882309F4FAC089EA96E00E9451
:102B70006D3D7C018FEFE8168FEFF8060CF4EFC087
:102B80008091AE0290E0E816F9060CF0E8C01A83D6
:102B90000983A7E6B0E0CA0EDB1E04C00F5F1F4F1B
:102BA0001A83098309811A81F8018081882309F435
:102BB000D6C00C151D0508F0D2C0C8016CE271E04A
:102BC00043E050E00E94BF3D009741F70D5F1F4F6B
:102BD0001A8309838E010F5F1F4FC8010E945D1584
:102BE000898BC8010E945D158B83C8010E945D1509
:102BF0008C83C8010E945D159E838D83C8010E944D
:102C00005D1598878F83C8010E945D159A87898713
:102C1000C8010E945D159C878B8720E0D02EC12EB5
:102C20008E01035F1F4F0BC08D2D9C2D2A8B0E94A0
:102C30005D152A89F801E20FF11D80832F5F8091D5
:102C4000F706281788F306C0FC01E20FF11D108279
:102C50002F5F02C0CE010D962430B0F38C818230FC
:102C600020F0CE0103960E94F90700D000D000D0DA
:102C7000EDB7FEB731960AEC16E0ADB7BEB71296C7
:102C80001C930E9311978CEE94E09383828383E9D7
:102C900090E0958384830E94FE34EDB7FEB73696AC
:102CA0000FB6F894FEBF0FBEEDBFBE016D5F7F4F44
:102CB000FFEFEF16FFEFFF06C1F4CB010E94730692
:102CC00000D000D0ADB7BEB712961C930E931197EB
:102CD0008FEC94E014969C938E9313970E94FE348D
:102CE0000F900F900F900F9022C08E2D0E9489069A
:102CF00000D000D000D0EDB7FEB73196ADB7BEB76B
:102D000012961C930E93119781EB94E09383828328
:102D10000894E11CF11CF582E4820E94FE34EDB7B8
:102D2000FEB736960FB6F894FEBF0FBEEDBF00D0CB
:102D300000D08AEC96E0ADB7BEB712969C938E9306
:102D4000119780E994E014969C938E9313970E94B8
:102D5000FE340F900F900F900F9081E001C080E043
:102D600062960FB6F894DEBF0FBECDBFCF91DF9154
:102D70001F910F91FF90EF90DF90CF900895EF9209
:102D8000FF920F931F93DF93CF9300D00F92CDB795
:102D9000DEB77C018C010D5F1F4FC8010E94AC257E
:102DA000C8010E948E0D882309F480C01A8309830C
:102DB00087E690E0E80EF91E04C00F5F1F4F1A83EC
:102DC000098309811A81D8018C91882309F46EC086
:102DD0000E151F0508F06AC0C80160E371E043E00A
:102DE00050E00E94BF3D009741F70D5F1F4F1A83CF
:102DF00009830E94870D20E0EE248E010F5F1F4F94
:102E0000BEEFFB2E1CC0C8012B830E945D152B81D9
:102E10000097A1F02E2D30E0F901EE0FFF1FEE0F0D
:102E2000FF1FE95CFC4FA0E0B0E080839183A283A8
:102E3000B38329543C4FF901F08221E0E39480915F
:102E4000F806E81600F3222331F00E943D34409149
:102E5000EC010E94EA0C8DB79EB708970FB6F89464
:102E60009EBF0FBE8DBFEDB7FEB731968AEC96E0E0
:102E7000ADB7BEB712969C938E93119784ED96E0F2
:102E80009383828383E990E0958384838DE491E04A
:102E9000978386830E94FE34EDB7FEB738960FB64F
:102EA000F894FEBF0FBEEDBF81E001C080E00F903F
:102EB0000F900F90CF91DF911F910F91FF90EF90A6
:102EC00008958F929F92AF92BF92CF92DF92EF922E
:102ED000FF920F931F93CF93DF930E943D347B01AA
:102EE0008C012DB73EB7285030400FB6F8943EBF46
:102EF0000FBE2DBFEDB7FEB73196CAECD6E0ADB729
:102F0000BEB71296DC93CE9311978BE894E093832F
:102F1000828383E990E09583848382ED90E09783B8
:102F200086830E94FE3400D0EDB7FEB73196ADB770
:102F3000BEB71296DC93CE9311978EE694E09383FE
:102F4000828387EB90E095838483E682F782008713
:102F500011870E94FE340F900F90EDB7FEB73196A7
:102F6000ADB7BEB71296DC93CE93119784E594E08B
:102F7000938382838091F706848315828091A101D7
:102F8000868317820E94FE34EDB7FEB738960FB6DF
:102F9000F894FEBF0FBEEDBFBB246E019C2EAD2C7E
:102FA00050E5C52E54E0D52E21C000D000D000D071
:102FB000EDB7FEB73196ADB7BEB711969C9211979B
:102FC0001296AC92D382C282AB2DB0E0A750B94F1B
:102FD0008C91848315820E94FE34B394CDB7DEB702
:102FE00026960FB6F894DEBF0FBECDBF8091F706D0
:102FF000CAECD6E0B816C8F200D000D0EDB7FEB7E4
:10300000D283C18384E494E0948383830E94FE345A
:103010000F900F900F900F90DD244E01CC2EA92C15
:103020004BE3842E44E0942E63C06D2D70E0FB01D1
:10303000E954FC4FB080BB20C1F1FB01EE0FFF1F34
:10304000EE0FFF1FDF01A954BD4F2D913D914D9112
:103050005C911397E95CFC4FE216F3060407150731
:1030600048F080819181A281B3818E199F09A00BC4
:10307000B10B08C080819181A281B381821B930B27
:10308000A40BB50BFB01EE0FFF1FEE0FFF1FE95C5A
:10309000FC4F20813181428153812E3F6FEF3607F3
:1030A0006FEF46076FEF560719F480E090E0DC0100
:1030B000CDB7DEB72A970FB6F894DEBF0FBECDBFEF
:1030C000EDB7FEB73196C982AA8293828282B4821A
:1030D000158286839783A087B1870E94FE34D3949C
:1030E000EDB7FEB73A960FB6F894FEBF0FBEEDBF30
:1030F0008091F806D81608F498CFC9EAD6E080E3A4
:1031000090E0BE010E94EF242DB73EB72A51304017
:103110000FB6F8943EBF0FBE2DBFEDB7FEB7319688
:103120000AEC16E0ADB7BEB712961C930E9311973A
:1031300089EE93E0938382838091F5068170848386
:1031400015828091F506869581708683178280911D
:10315000F506869586958170808711868091F506A3
:103160008295817082871386809101079091020772
:10317000A0910307B091040784879587A687B78736
:103180008091F601808B118A80910502828B138ACF
:1031900080910F02848B158A80911902868B178A81
:1031A000D18FC08F0E94FE34CDB7DEB72C960FB6FC
:1031B000F894DEBF0FBECDBFEDB7FEB73196ADB709
:1031C000BEB712961C930E93119787EC93E09383EE
:1031D00082838091AF02848315828091B0028683BE
:1031E00017828091B1029091B2029187808780917D
:1031F000B3029091B402A091B502B091B602828759
:103200009387A487B5870E94FE34CDB7DEB72A9690
:103210000FB6F894DEBF0FBECDBF1A83098388EACC
:1032200093E09C838B830E94FE3400D0EDB7FEB701
:103230003196ADB7BEB712961C930E93119784E8E2
:1032400093E09383828388E690E0958384830E9451
:10325000FE34CDB7DEB726960FB6F894DEBF0FBEAC
:10326000CDBF81E0DF91CF911F910F91FF90EF9043
:10327000DF90CF90BF90AF909F908F900895AF92C6
:10328000BF92CF92DF92EF92FF920F931F93DF9343
:10329000CF9300D000D0CDB7DEB70E946F3A5B016C
:1032A0006C017E010894E11CF11C0E94DC300E943C
:1032B000ED2CC70160915F010E943E2C8823E1F054
:1032C000E980FA800B811C8180EC98EDA4E5BCE7D5
:1032D000E80EF91E0A1F1B1F6091A10170E080E03B
:1032E00090E024E833E040E050E00E94F33CE60E3A
:1032F000F71E081F191F11C00E946F3A6A197B0937
:103300008C099D09683EA3E07A07A0E08A07A0E047
:103310009A0758F2EE24FF248701B701C8010F90E5
:103320000F900F900F90CF91DF911F910F91FF9011
:10333000EF90DF90CF90BF90AF9008951F9310E073
:1033400060915F016F5F60935F018BE591E00E9488
:10335000EE2B6AEF70E080E090E00E94A33A0E94BA
:103360003F199B01AC01611571058105910519F4A7
:103370001F5F153029F7B901CA011F910895EF9217
:10338000FF920F931F932091A6012223E9F1209130
:10339000F60622952F70C1F52091D4063091D506FE
:1033A0004091D6065091D7062115310541055105AA
:1033B00081F07B018C01E21AF30A040B150BA801C2
:1033C0009701213801E5300701E0400700E0500790
:1033D000D8F06093D4067093D5068093D606909368
:1033E000D7060E949E197B018C016115710581052C
:1033F000910551F00E940E348091F50685FF04C0BE
:10340000C801B7010E94A0291F910F91FF90EF9072
:1034100008950E94631F0E942A240E9441069091F1
:10342000DD0180E02091D801820F911D9093D80397
:103430008093D70388EA98E060E00E94602088E9E2
:1034400098E061E00E9460206091D7037091D803FA
:1034500085E591E00E94D21D9091F606882311F037
:103460009F7002C09F7090619093F60664EF71E0C8
:1034700080E090E00E94A33A6CE370E080E090E08E
:103480000E94D1348091F50685FF03C087E29AE25D
:1034900002C080E090E00E94BA340E94E71E0E94C1
:1034A0003D340E94BF1980E00E94B4200895CF935C
:1034B000DF93FC0105964581403219F40E946117A3
:1034C00048C0A0E6B1E020E030E0552747FD509528
:1034D000ED91FC911197649170E06417750709F004
:1034E00041C03196E491F0E0EC016981772767FDF6
:1034F0007095E617F707B1F5F901EE0FFF1FEE0F14
:10350000FF1FE05AFE4F0280F381E02D09958823CA
:1035100001F500D000D000D0EDB7FEB731968AECAF
:1035200096E0ADB7BEB712969C938E93119789E93A
:1035300091E0938382838DEF90E0958384830E9452
:10354000FE34CDB7DEB726960FB6F894DEBF0FBEB9
:10355000CDBF62E370E080E090E00E94A33ADF918B
:10356000CF9108952F5F3F4F14962F30310509F00A
:10357000AFCFEFCF2F923F924F925F926F927F9299
:103580008F929F92AF92BF92CF92DF92EF92FF9273
:103590000F931F93DF93CF93CDB7DEB7A2970FB6EC
:1035A000F894DEBF0FBECDBF2091EC01288B709048
:1035B000F6010E94DC300E94ED2C9093D906809396
:1035C000D8060097D1F02FE034E03093CD06209359
:1035D000CC063093CF062093CE0687529C4F0E9494
:1035E000571A8091CE069091CF062091CC0630914B
:1035F000CD06821B930B0E94902B0E94C30A0E944F
:103600003D347B018C018091DE069091DF06A09114
:10361000E006B091E1068E159F05A007B10709F4F9
:10362000A1C2E092DE06F092DF060093E00610935E
:10363000E10680E00E94B4208091F50681FF0FC072
:103640008091010790910207A0910307B0910407B0
:10365000E816F9060A071B0710F00E9432200E94A4
:103660003A208091F50684FDCEC083FF04C03889DE
:10367000332309F0C8C0C801B7012CE330E040E0B3
:1036800050E00E94453D8091DA069091DB06A091C2
:10369000DC06B091DD06281739074A075B0709F4F5
:1036A000B2C02093DA063093DB064093DC065093D9
:1036B000DD0620E0CC241E010894211C311C472D7E
:1036C00050E05E8F4D8F572C91C08C2DB1012AA3F5
:1036D0000E946206C101B801A7010E94EE062AA15C
:1036E000882309F482C089859A85009709F47DC0F2
:1036F0005091F706598BAC0160E070E04B8B5C8B0E
:103700006D8B7E8B4424DD245C2D5F5F5B8F4701D6
:10371000580165C000E010E08D2D90E0BC016750BD
:10372000794F788F6F8BEBE0F0E0EC0FFD1FE80F27
:10373000F91FFA8FE98F6D2C7C2CC42CC00EDD2470
:10374000C60101964D8D5E8D48175907E9F1EF8945
:10375000F88D808190E0002E02C0959587950A949F
:10376000E2F780FD31C0E98DFA8D808190E0002E76
:1037700002C0959587950A94E2F780FF25C07601EF
:10378000EE0CFF1CEE0CFF1C27E333E0E20EF31EF1
:1037900060910F0270E080E090E02B893C894D89B8
:1037A0005E890E94F33C24E630E040E050E00E9455
:1037B000453DF7012083318342835383F601E95469
:1037C000FC4F2B8D208321E00F5F1F4F0830110528
:1037D00009F0B3CFD62CC72CD39438E0430E4989D7
:1037E000D41608F497CF85017401C3948091AE027A
:1037F000C81608F46ACF752C222329F0C801B70136
:1038000048890E94EA0C8091F50683FF46C1662430
:1038100040E0672D70E07A8B698B772D71507B8B40
:10382000872F90E09C01220F331F220F331FF901D5
:10383000E954FD4FFC8FEB8FB901695C7C4F7E8FA3
:103840006D8FFC01E954FC4FF8A3EF8F342E272C29
:1038500003C1832D90E0FC01E750F94F20814424FF
:103860005524422F50E0588F4F8BBC016350794F45
:103870007A8F698FB62CB40C8F89988D042C02C076
:10388000959587950A94E2F7CB2CDD2480FF51C0F3
:103890004601880C991C880C991CF401E95CFC4FCA
:1038A00080819181A281B381E816F9060A071B077E
:1038B00008F4C7C08B2D60E00E94BC1EC6010196B3
:1038C000E989FA89E817F907E1F0B092AF02F60149
:1038D000E954FC4F80818093B002F401E954FD4F1C
:1038E000808191819701281B390B3093B20220937C
:1038F000B102E092B302F092B4020093B5021093C9
:10390000B602C601880F991F880F991FFC01E95460
:10391000FD4F1082118212821382895C9C4FFC0140
:103920001082118212821382F601E954FC4F108238
:1039300088C0B601660F771F660F771FE7EB8E2EE4
:10394000E2E09E2E860E971EF40120813181428195
:103950005381E216F3060407150708F472C09B01B1
:10396000295C3C4FF90180819181A281B381E816E5
:10397000F9060A071B0708F064C08B2D61E02AA333
:1039800039A30E94BC1E2AA139A1222009F459C0E2
:10399000C601019649895A894817590709F451C047
:1039A000E98DFA8D808190E0042C02C09595879571
:1039B0000A94E2F780FF45C0F889FF2309F441C06B
:1039C0008091F50684FD3DC08091FB01F40180806B
:1039D0009180A280B380880E911CA11CB11CEB8D3C
:1039E000FC8D80829182A282B3828091000290E05D
:1039F000A0E0B0E0CC97A109B109F90120813181A3
:103A000042815381820F931FA41FB51FED8DFE8D40
:103A100080839183A283B383F601E954FC4F208114
:103A2000EF8DF8A12083E814F9040A051B0548F07E
:103A3000E816F9060A071B0720F48B8961E00E944B
:103A4000BC1E0894411C511CF8E04F16510409F0AB
:103A500011CF339428E0620E8091F706381608F4EF
:103A6000F8CE722C0E94E71E3091F806E7E3F3E0EF
:103A700020E010C081919191A191B1910197A1098C
:103A8000B1098E3F4FEF94074FEFA4074FEFB407F4
:103A900020F02F5F231770F35BC0772009F43EC03E
:103AA0008091F50684FD03C058895523B9F5A0918E
:103AB000F80660E0472D50E028C0262F30E0C9010D
:103AC00001964817590701F173E0369527957A95C5
:103AD000E1F7762F7770F901E750F94F808190E098
:103AE000072E02C0959587950A94E2F780FF0CC0D7
:103AF0002350394FF901808190E002C09595879558
:103B00007A95E2F780FD05C06F5F6A17B0F260E05A
:103B100001C061E0872D81500E94BC1E0E94E71EFB
:103B2000C801B70123E030E040E050E00E94453D8D
:103B3000FB01EB59FD4F81E060810E945421C801D7
:103B4000B7010E94750CC801B7010E94BF190AC0D5
:103B50000E94DE1E8091F506877F8093F5067090A7
:103B6000F6019BCFA2960FB6F894DEBF0FBECDBF75
:103B7000CF91DF911F910F91FF90EF90DF90CF9049
:103B8000BF90AF909F908F907F906F905F904F907D
:103B90003F902F9008958FE592E09093CB0680930D
:103BA000CA0608950F931F93DF93CF93CDB7DEB767
:103BB00028970FB6F894DEBF0FBECDBFFC018B0176
:103BC00080911E02858380ED92E0BF0148E00E9453
:103BD000C635882379F110935902009358028091D9
:103BE000AB01882329F084E391E00E94262923C0B9
:103BF0008091B00189838091B5018A838091BA0157
:103C00008B838091BF018C838091C4018D838091CF
:103C1000C9018E838091CE018F838091D3018887E3
:103C2000CE010196BE016B5F7F4F40E050E00E94E5
:103C3000EE3501C080E028960FB6F894DEBF0FBEC7
:103C4000CDBFCF91DF911F910F910895E0910507AE
:103C5000F091060709950895EF92FF920F931F9335
:103C6000CF93DF939CE0899FC0011124FB01148650
:103C7000EC01C05BDF4F8B012CE5E22EF12CE80E4E
:103C8000F91ECE010E942B3EF80181938F018823FB
:103C900021F02196CE15DF05A1F7DF91CF911F917D
:103CA0000F91FF90EF900895CF92DF92EF92FF92E5
:103CB0000F931F93CF93DF939CE0899FC001112442
:103CC000FB011486EC01C05BDF4F7B013CE5C32E9A
:103CD000D12CC80ED91E8701CE01F70161917F0159
:103CE0000E943D3EF8018081882321F02196CC1569
:103CF000DD0589F7DF91CF911F910F91FF90EF9034
:103D0000DF90CF9008950F931F93CF93DF930DEF24
:103D100016E0C0EDD1E0F80161918F01CE010E9463
:103D20003D3E2196F1E0C43DDF07A9F7DF91CF9139
:103D30001F910F9108950F931F93CF93DF930DEF72
:103D400016E0C0EDD1E0CE010E942B3EF801819338
:103D50008F012196F1E0C43DDF07A9F7DF91CF91F4
:103D60001F910F9108950E94B23490E0059667E08C
:103D700070E00E94323D0895E82FE695E695E695BD
:103D80008770F0E0662361F0E750F94F21E030E002
:103D900002C0220F331F8A95E2F78081822B0CC06C
:103DA000E750F94F21E030E002C0220F331F8A951F
:103DB000E2F7209580818223808308951092F9068E
:103DC0001092FA061092FB061092FC060895EF92EC
:103DD000FF920F931F93CF93DF9387E060E00E94E1
:103DE000813BCCEFD6E08091F506982F937091300F
:103DF00041F490910502992311F082FD02C088815F
:103E000001C080E007E010E0E82EFF2486E060E0DB
:103E10000E94813BB701002E02C0759567950A94F8
:103E2000E2F76170707085E00E94813B86E061E09E
:103E30000E94813B015010408FEF0F3F180731F770
:103E4000219786E0C83FD80771F687E061E00E94BD
:103E5000813BDF91CF911F910F91FF90EF900895DB
:103E60001F9310E02AC082EE96E00E94153782EE82
:103E700096E060E040E00E94E736612F70E06F5FFF
:103E80007F4F82EE96E04AE050E00E94D83C0E94CC
:103E9000DE1E812F61E00E94BC1E0E94E71E609121
:103EA000140270E080E090E028EE33E040E050E063
:103EB0000E94F33C0E94A33A1F5F8091F8061817F6
:103EC00090F210E0FCCF87E061E00E945D3B86E06D
:103ED00061E00E945D3B85E061E00E945D3B87E020
:103EE00061E00E94813B0E94DE1E0E94E71E83E08B
:103EF00060E00E945D3B83E061E00E94813B8EE4D4
:103F000097E00E9461268091F5068160817C809314
:103F1000F5061092F60681E08093F70688E080931C
:103F2000F8061092010710920207109203071092F0
:103F3000040782EE96E060E142E020E00E941D3737
:103F40000E943529882329F48091F50680628093A8
:103F5000F50608950F931F93CF93DF930CE911E0BB
:103F6000C0E0D0E0CE010E942B3EF8018083219674
:103F70000B5F1F4FCC31D105A9F78091E7018F5F0F
:103F80008093F706880F880F880F8093F806DF91DB
:103F9000CF911F910F9108950F931F93CF93DF93AC
:103FA00003E212E0CBE1D0E0CE01F80160810E9493
:103FB0003D3E219705501040FFEFCF3FDF07A1F7AF
:103FC0008091E7018F5F8093F706880F880F880F35
:103FD0008093F806DF91CF911F910F910895809102
:103FE000F50681608093F5060E94E71E0E94CC1FB3
:103FF00008958091F5068E7F8093F5060E94E71E56
:104000000E94CC1F0895DF92EF92FF920F931F93AF
:10401000D82E882309F10E943D347B018C016D2D3F
:1040200070E080E090E020E13EE040E050E00E945F
:10403000F33CE60EF71E081F191FE0920107F092ED
:10404000020700930307109304078091F50682602E
:104050008093F5060E94E71E1F910F91FF90EF904D
:10406000DF9008958091F5068D7F8093F5060E947C
:10407000E71E089583E00E94BB3B20910A0230E0D6
:1040800041E08217930709F440E0440F440F809108
:10409000F5068B7F842B8093F5060895CF93DF93ED
:1040A000EC0106C082EE96E040E050E00E94E23C67
:1040B000FE01219664916623A9F7DF91CF910895BF
:1040C000EF92FF920F931F93CF93DF93182F092F37
:1040D000462F82EE96E060E00E94E736C801E92EA6
:1040E000E7017E01F82EE70106C082EE96E040E08F
:1040F00050E00E94E23C7E01E11A8E2DFE012196E5
:104100006491662391F7992787FD9095C0E1D0E0EF
:10411000C81BD90B05C083E59AE00E944E20219769
:10412000D7FFF9CFDF91CF911F910F91FF90EF90C3
:1041300008950F931F93CF93DF93C2EED6E06AE00A
:1041400070E00E94323D8C01CE014AE050E00E94B6
:10415000D83CCE01B8014AE050E00E94D83CDF9143
:10416000CF911F910F910895EF92FF920F931F939C
:10417000DF93CF930F92CDB7DEB789830E943D3492
:104180007B018C0182EE96E060E049810E94E73677
:10419000C801B7010E942A330E94992081E59AE064
:1041A0000E944E20C801B7010E9424330E9499202A
:1041B0008EE49AE00E944E200E94B31EE82FF0E0A9
:1041C000EE0FFF1FE85DFD4F808191810E944E2020
:1041D0008CE49AE00E944E20C801B7010E9412337D
:1041E0000E9499208AE49AE00E944E20C801B701FB
:1041F0000E941E330E9499200F90CF91DF911F9152
:104200000F91FF90EF900895CF92DF92EF92FF927F
:104210000F931F93DF93CF930F92CDB7DEB78C012F
:104220007B0182EE96E00E94153782EE96E060E018
:1042300040E00E94E736680120E0F60161916F01DD
:1042400082EE96E070E04AE050E029830E94D83C7C
:1042500088E49AE00E944E2029812F5F233069F77D
:10426000F801638182EE96E070E04AE050E00E943F
:10427000D83C82EE96E060E041E00E94E73686E4BA
:104280009AE00E944E2082EE96E0B7014AE050E0AC
:104290000E94D83C0F90CF91DF911F910F91FF901A
:1042A000EF90DF90CF9008950F931F93CF93DF93FC
:1042B000482F162F82EE96E060E00E94E73680914C
:1042C000F6068F7019F482E49AE010C080E49AE058
:1042D0000E944E206091F6066F7082EE96E070E0CC
:1042E0004AE050E00E94D83C8EE39AE00E944E20C3
:1042F0008091F50680FD03C082E39AE00AC081FD4B
:1043000006C082FF0AC080910502882331F086E250
:104310009AE061E00E9460202BC0E091F606EF7009
:10432000F0E0E750F94F0081C0E0D0E08091F60660
:104330008F7069F49E012F5F3F4F8091F60190E0EE
:104340002817390721F400FD04C06DE405C000FF03
:1043500002C0612F01C06FE582EE96E040E050E0C0
:104360000E94E23C2196C830D10511F00695DECFBF
:1043700080E29AE00E944E2082EE96E06FE041E0FB
:104380000E94E7368091F60682958F7039F082EEB2
:1043900096E06FE340E050E00E94E23CDF91CF9175
:1043A0001F910F9108950F931F93CF93DF938C016B
:1043B000EC01CC0FDD1FCC0FDD1FC80FD91FC45679
:1043C000DE4F8A819B8160E00E9460208FE19AE04D
:1043D00061E00E94602082EE96E060E041E00E9491
:1043E000E7368C8180FF05C082EE96E00E94CD36D4
:1043F00004C082EE96E00E94D6360C30110509F416
:1044000066C00D3011052CF40130110509F06DC0A6
:1044100009C00331110509F442C00431110509F046
:1044200064C047C08091A101C82FD0E0E097D7FDBC
:1044300005C08DE19AE00E944E2007C08BE19AE012
:104440000E944E20D095C195DF4FBE0175956795AE
:104450007595679582EE96E04AE050E00E94D83C60
:1044600089E19AE00E944E20C370D070BE01E4E062
:10447000660F771FEA95E1F76C1B7D0B29F486E147
:104480009AE00E944E2006C082EE96E04AE050E09C
:104490000E94D83C81E19AE00E944E204AC08FE001
:1044A0009AE00E944E206091FB0182EE96E070E05F
:1044B00017C0809100028C3320F08DE09AE00E94BA
:1044C0004E206091000270E06C53704007C0709104
:1044D000DD0160E08091D801680F711D82EE96E0E9
:1044E0004AE050E00E94D83C24C0F801EE0FFF1FC4
:1044F000EE0FFF1FE00FF11FE456FE4F8181608138
:10450000813051F4662319F089E09AE002C086E018
:104510009AE00E944E2007C082EE96E070E04AE0EA
:1045200050E00E94D83C0731110519F484E09AE06C
:104530000DC0C80143978230910530F00831110554
:1045400019F00131110521F48FEF99E00E944E20FE
:10455000DF91CF911F910F910895AF92BF92CF92AB
:10456000DF92EF92FF920F931F93DF93CF930F92FF
:10457000CDB7DEB77C01D62EC22E80E049830E94E3
:104580000F3B8C014981DD2041F08D2D823011F4EB
:10459000CC2019F4AA24BB240AC0E016F1066CF55D
:1045A000CC2011F080E801C080E0482B27C0E01645
:1045B000F106D4F4ED2DE13039F0E230A9F4F0E267
:1045C000AF16F3E0BF0684F480E049830E940F3BFE
:1045D0008C0161E070E080E090E00E94A33A0894D2
:1045E000A11CB11C4981E3CFCC2029F480E2A8169C
:1045F00083E0B8061CF0406801C040E0842F0F90B3
:10460000CF91DF911F910F91FF90EF90DF90CF90AE
:10461000BF90AF900895EF92FF921F93DF93CF93D7
:104620000F92CDB7DEB7182F20910707207880E0D2
:1046300029830E940F3B7C0161E070E080E090E004
:104640000E94A33A298183ECE81681E0F8062CF059
:1046500082EC91E0612F41E012C0EDE2EE16E1E064
:10466000FE062CF08CE291E0612F42E008C0F7E9F1
:10467000EF16F1043CF086E990E0612F44E00E94DF
:10468000AD2201C080E02091070730E02F7030702C
:10469000482F50E02115310541F44F7050704115FD
:1046A000510559F0982F906409C04F705070411512
:1046B000510519F4982F906201C0982F8093070735
:1046C000892F0F90CF91DF911F91FF90EF90089568
:1046D000CF92DF92FF920F931F93DF93CF930F92AE
:1046E000CDB7DEB7F82E092F0E94D321802F0F2DD2
:1046F000182F2CE1C22ED12C9AEAF92E82E00E94CA
:104700000B23482F50E09A012F7030702230310572
:10471000D9F02430310551F12130310509F055C06F
:10472000F801EE0FFF1FEE0FFF1FE00FF11FE45621
:10473000FE4F848180FF4CC080819181981709F4DD
:1047400047C08F5F808344C0F801EE0FFF1FEE0F5C
:10475000FF1FE00FF11FE456FE4F948190FF35C01C
:104760009081992391F1915090832FC086FF2DC0A5
:1047700087FF0AC080912302882311F0F092230260
:104780000E94CC1F21E025C00330110529F480913F
:10479000AB01882399F512C00C30110591F1053158
:1047A000110529F480910502882371F107C00231B7
:1047B000110521F48091F601882349F1C801019681
:1047C000B6010E94323D8C0103C0882309F496CFC4
:1047D00020E0C80129830E94D3212981222309F4E2
:1047E0008DCF82EE96E00E94D6360F90CF91DF916A
:1047F0001F910F91FF90DF90CF9008950CE010E093
:10480000E7CF0EE010E0E4CF07E110E0E1CF05E1F3
:1048100010E0DECFFF920F931F93CF93DF93EC0155
:10482000F62E062F172F04C08C0F9D1F0E943D3EB1
:10483000802F8F19F80161918F0190E06623A1F715
:104840008C0F9D1F0E943D3EDF91CF911F910F91D4
:10485000FF900895DF92EF92FF920F931F93CF93F3
:10486000DF9364EF71E080E090E00E94A33A80E083
:1048700090E00E942B3E843630F4982F990F892FB8
:10488000880F880F890F873B39F48BE190E00E94F5
:104890002B3E8A3A09F057C00E94CC1F80E290E07C
:1048A00062E471E00E940A2480E390E06BE471E02E
:1048B0000E940A2485E99AE060E00E94602086E870
:1048C0009AE061E00E946020C0E5D0E0CE0160E0A7
:1048D0000E943D3E219684E0C030D807B9F701E040
:1048E00010E0C0E5D0E03AE0E32EF12CCE0163E524
:1048F0000E943D3EC801B7010E94323DD82E605D46
:10490000CE0101960E943D3E6D2D605DCE01029666
:104910000E943D3E2C960F5F1F4F81E0C03DD8079F
:1049200029F7CE016FEF0E943D3E219681E0C43D04
:10493000D807B9F764EF71E080E090E00E94A33AF5
:104940000E94261E04C00E94AA1F0E949B1E80E097
:104950000E940B2390E08F7090708230910549F097
:104960008430910549F08130910589F50E94301F0E
:104970002EC08BE190E020C086E79AE060E00E94C4
:10498000602060ED77E080E090E00E94A33A85E649
:104990009AE060E00E94602085E59AE061E00E9474
:1049A000602080E00E940B2386FFFBCF82EE96E022
:1049B0000E94153780E090E00E94682380912302D6
:1049C000882329F0E0910507F09106070995DF910A
:1049D000CF911F910F91FF90EF90DF900895EF928C
:1049E000FF920F931F93DF93CF930F92CDB7DEB754
:1049F0007C01062F172F802F861B9701280F311D52
:104A0000C90169830E942B3EF80181938F0169815E
:104A1000882389F70F90CF91DF911F910F91FF901D
:104A2000EF900895EF92FF921F93CF93DF93182F8B
:104A3000E12EE7017E01F92EE701CE01811B282F2F
:104A400030E0C90180960E942B3E9991882329F07D
:104A5000992329F0891789F302C081E0911180E040
:104A6000DF91CF911F91FF90EF900895CF92EF9239
:104A70000F9382EE96E065E044E026E009E070E105
:104A8000E72E51E1C52E0E94D3370F91EF90CF90C2
:104A90000895FB012081318142815381FC012083F3
:104AA0003183428353830895282F392FD901862FCC
:104AB000972FFC0186E001900D928150E1F7089557
:104AC000FC01A22FB32F90E00CC011968C9188238B
:104AD00039F4319680818D3381F4A22FB32F91E088
:104AE00031968081882361F0803251F08A3041F024
:104AF000992341F45C91851741F3A22FB32FF0CF96
:104B00009130C9F4A62FB72F50E0415050408A2F62
:104B1000861B9191992369F0903259F09A3049F0AF
:104B2000963239F0282F30E02417350714F49D937E
:104B3000EECF1C92089580E00895982F80538A301C
:104B400050F08153863020F0892F8154863010F444
:104B5000865F089580E00895DF92EF92FF920F93B1
:104B60001F93CF93DF93EC018C011CC09B32A9F003
:104B70009532A1F47E010894E11CF11C89810E9408
:104B80009D25D82EE7012196F70181810E949D2560
:104B90009D2D9295907F982B01C090E2F801919302
:104BA0008F0121969881992309F7F8011082DF91EE
:104BB000CF911F910F91FF90EF90DF90089520917A
:104BC000290730E080912807281B3109C901089581
:104BD0008091280790912907891750F4E82FF0E079
:104BE000E85FF84F208130E08F5F8093280702C094
:104BF0002FEF3FEFC9010895E09128078091290721
:104C0000E81730F4F0E0E85FF84F208130E002C0B0
:104C10002FEF3FEFC90108950895CF92DF92EF92F1
:104C2000FF920F931F93CF93DF936C01CB017A0117
:104C300020914D072223A9F0062F192FC0E0D0E0C4
:104C40000CC0D8016D918D01D601ED91FC910190C0
:104C5000F081E02DC60109952196CE15DF0588F378
:104C600003C0642F0E949338DF91CF911F910F9161
:104C7000FF90EF90DF90CF900895DF93CF930F9246
:104C8000CDB7DEB7698380914D07882389F0809185
:104C90004C07803290F480914B07E82FF0E0E55DFF
:104CA000F84F60838F5F80934B0780934C0705C05C
:104CB000CE01019661E00E9493380F90CF91DF9171
:104CC0000895109228071092290710924B0710920E
:104CD0004C070E9404380895862F413208F040E2C4
:104CE00068E077E00E941D3810922807809329071A
:104CF00008950E946C26089581E080934D0760938B
:104D00002A0710924B0710924C0708950E947C26A8
:104D1000089580912A076BE277E040914C0721E0EB
:104D20000E94533810924B0710924C0710924D0777
:104D300008958CE692E090934F0780934E07089574
:104D4000E0915D07F0915E078193F0935E07E09339
:104D50005D0708951F93CF93DF93182FEB0104C0D5
:104D600089910E94A02611501123D1F7DF91CF9194
:104D70001F9108958B32910508F453C08091FC0374
:104D8000833409F04EC080910304823009F049C099
:104D900020910704309108044091090450910A04BD
:104DA0008091510790915207A0915307B0915407F9
:104DB000281739074A075B07A1F59091E90380E0BE
:104DC0002091EA03820F911D8C509140E3EFF4E0B3
:104DD0001AC08281853029F0863069F0823009F569
:104DE0001EC0E0915007E350E430D8F4F0E0EA57F9
:104DF000FD4F8081089581E00895218130E02F5F8B
:104E00003F4FE20FF31F40814F3F59F09F01235F57
:104E100034402817390738F4453379F7DACF82E080
:104E2000089580E0089580E00895FF920F931F9306
:104E3000CF93DF93F82E062F0E948E30882309F43B
:104E4000B1C0C9EDD3E08AE191E0FE019C0111926D
:104E500021503040E1F784E490E069EB77E043E4EF
:104E600050E00E94632CCE01069663EB77E00E942F
:104E70005425CE0160E872E00E94542582E88093B8
:104E8000EA0381E18093F003002329F0CE014E96DE
:104E900060E872E004C0CE014E9665EC77E00E94B7
:104EA0004925E3E0F4E081E080930304818386E018
:104EB000828313828091510790915207A0915307EA
:104EC000B091540784839583A683B7831186108697
:104ED000002319F080E890E002C080E090E0938722
:104EE00082878FE194E063EB77E00E9454258FEE98
:104EF00094E090935E0780935D0784E06CE472E039
:104F00000E94AA2685E30E94A02681E00E94A02696
:104F10008F2D0E94A0268DE30E94A02687E00E948C
:104F2000A02681E00E94A02686E063EB77E00E9445
:104F3000AA268CE00E94A02606E312E0E801099070
:104F40000020E9F72197C01BD10B8C2F0E94A026CF
:104F50008C2FB8010E94AA263F2D3330B1F482E392
:104F60000E94A02684E00E94A02684E069EB77E0FE
:104F70000E94AA2686E30E94A02684E00E94A02622
:104F800084E065EC77E00E94AA2686E066E472E0A1
:104F90000E94AA2680915D0790915E0783509440FD
:104FA0000E94A32CDF91CF911F910F91FF90089544
:104FB0007F928F929F92AF92BF92CF92DF92EF92A9
:104FC000FF920F931F93CF93DF930E9440310E9473
:104FD0006F3A4B015C0180E29EE4A0E0B0E0880EF5
:104FE000991EAA1EBB1EDD24D39404E0C02E12E03D
:104FF000712EF9C080915007813061F00E94DC3041
:10500000EC01009709F4EFC00E94ED2C009709F421
:1050100011C1E9C0C0E0D0E080915007833009F4AD
:10502000C1C0843030F4813071F0823009F0D9C0D1
:1050300042C0853009F4BEC0853008F4D4C0863043
:1050400009F0CFC0B7C089EB97E06AE772E00E9431
:10505000492585EC97E06AE772E00E9449250E94A5
:105060006F3A7B018C0160935107709352078093D4
:105070005307909354070E946F3A8701FF24EE2450
:10508000E60EF71E081F191FE0925107F092520713
:10509000009353071093540781E061E00E941527A5
:1050A00070925007109255071092560710925707AA
:1050B0001092580798C0CE010E94BA26823009F09B
:1050C00090C089EB97E063E174E00E944925E3EF2B
:1050D000F4E08E0107521C4FDF011196E180ED01D3
:1050E000219680818630A1F0873030F4813051F0F4
:1050F000833009F04AC009C0833369F0863309F070
:1051000044C03EC08DEB97E03DC081EC97E03AC0D3
:1051100089EC97E037C02B8111966C91119770E064
:1051200080E090E0962F882777276627620F711D11
:10513000811D911D298130E040E050E0A901332715
:105140002227620F731F841F951F2A8130E040E0E1
:1051500050E0542F432F322F2227620F731F841FDA
:10516000951F28EE33E040E050E00E94F33C60934E
:10517000590770935A0780935B0790935C0705C0AB
:1051800085EC97E0BE010E944925FE01EE0DF11D60
:10519000E017F10708F4A0CF83E060E00E94152734
:1051A00083E01CC0CE010E94BA268330D1F4C092A5
:1051B000500707C0CE010E94BA26843069F480935C
:1051C00050070E946F3A609355077093560780937B
:1051D00057079093580707C0813029F480935007F0
:1051E00002C0D092500780915007843041F10E9454
:1051F0006F3A681579058A059B0508F50E948E307F
:10520000882389F3F7CE8091C107882321F081ECB0
:1052100097E00E94C82C81E0DF91CF911F910F9100
:10522000FF90EF90DF90CF90BF90AF909F908F90C6
:105230007F9008958091F0038131A9F6EDCE0E9410
:1052400004328091B9078823F1F6E6CFBC011092B1
:10525000360286E392E04FE050E00E94AF3D81E0ED
:10526000809350070E94D8270895CF93DF93CEE410
:10527000D7E0CE0168E670E00E948626CE0160E0AD
:105280000E943D26CE010E948926DF91CF9108958C
:105290006AE00E94123D8295807F890F08950F93E6
:1052A0001F93CF93DF938C01CEE4D7E0CE0168E665
:1052B00070E00E948626CE0160E00E943D26F80143
:1052C00080810E944829682FCE010E943D26F80166
:1052D00081810E944829682FCE010E943D26F80155
:1052E00082810E944829682FCE010E943D26F80144
:1052F00083810E944829682FCE010E943D26F80133
:1053000084810E944829682FCE010E943D26F80121
:1053100085810E944829682FCE010E943D26F80110
:1053200086818E510E944829682FCE010E943D2619
:10533000CE010E948926DF91CF911F910F91089590
:105340000F931F93DF93CF93CDB7DEB727970FB699
:10535000F894DEBF0FBECDBF8E010F5F1F4FA801B7
:105360000E940932898180688983C8010E944F297F
:1053700089818F778983C8010E944F2927960FB6AC
:10538000F894DEBF0FBECDBFCF91DF911F910F917B
:105390000895982F92959F70990F292F220F220F11
:1053A000290F8F70820F08950F931F93CF93DF9370
:1053B0008C01CEE4D7E0CE0168E670E00E9486263C
:1053C000CE0160E00E943D26CE010E948926CE01DA
:1053D00068E670E047E050E00E947926CE010E9426
:1053E000E8258F770E94C929F8018083CE010E94A9
:1053F000E8250E94C929F8018183CE010E94E82591
:105400008F730E94C929F8018283CE010E94E8258A
:105410000E94C929F8018383CE010E94E8250E94D9
:10542000C929F8018483CE010E94E8250E94C92978
:10543000F8018583CE010E94E8250E94C929825E79
:10544000F8018683DF91CF911F910F9108950F93FB
:105450001F93DF93CF93CDB7DEB727970FB6F8949E
:10546000DEBF0FBECDBF8E010F5F1F4FC8010E9470
:10547000D429C8010E94303327960FB6F894DEBFB6
:105480000FBECDBFCF91DF911F910F9108958EE494
:1054900097E00E9461260895CF92DF92EF92FF92EB
:1054A0000F931F93CF93DF93FA0170E067527C4F05
:1054B000213021F49A01275F3F4F05C0223031F49B
:1054C0009A012250304040E050E003C020E030E03C
:1054D000A901DB01EF0110C0DC90CC241196EC9007
:1054E0001197FF24EC28FD2800E010E02E0D3F1D51
:1054F000401F511F12962297C230D10568F7DF0175
:10550000AE7FA60FB71FE0FF0FC0EC90FF2400E0B6
:1055100010E0102F0F2DFE2CEE2402C040E050E0D2
:105520002E0D3F1D401F511F7A0100271127E11446
:10553000F1040105110591F720953095E82FF0E071
:10554000E752FC4F30832183DF91CF911F910F9160
:10555000FF90EF90DF90CF9008951092F10310929A
:10556000F20380E48093ED031092EE038093EF0347
:1055700088E16EE044E150E020E00E944C2A08956A
:105580002091FD033091FB033093FD032093FB0337
:105590002091FE033091FC033093FE032093FC0323
:1055A000E3E0F4E02291820F911D2481848366233D
:1055B00011F0208301C0108223E0EF3FF20719F0C1
:1055C000892F9927EFCF10920B0410920C0480E5DD
:1055D0008093070408959091E90380E02091EA0305
:1055E00030E0282B392B8091070490E0F4E095956A
:1055F0008795FA95E1F7880F991F880F991F281B47
:10560000390B2451304037FF02C020E030E0C9019F
:105610000895CF93DF93BC01C9EDD3E0CE010E9482
:105620005425CE01069663EB77E00E945425DF9166
:10563000CF9108950F931F93CF93DF938B010E9417
:10564000092BC7EFD3E0CE01B8010E944925CE0156
:10565000049769EB77E00E944925DF91CF911F9174
:105660000F9108950F931F93CF93DF930FED13E0E6
:10567000C8010E94092BE8016496C8014896BE0142
:105680000E944925CE0169EB77E00E9449250E94DE
:10569000AD2ADF91CF911F910F910895CF93DF93A2
:1056A000EC0188969093E9038093EA030E94AD2A67
:1056B00010920B0410920C04AE01445E5F4F82E323
:1056C0006AE122E00E944C2ACE01C6960E94A730D1
:1056D000DF91CF910895262F206120930804643034
:1056E00021F0009711F481E090E061E00E94C02A6F
:1056F0001092E90388E28093EA030E94322B84E04F
:105700008093090410920A0482E36AE14CE150E0BC
:1057100022E00E944C2A86E390E00E94A730089580
:10572000CF93DF93EC0180916A0790916B0760E063
:105730000E946B2B89E180930804CE010E944E2BBE
:10574000DF91CF9108950F931F93CF93DF93BC0107
:105750008CE697E00E941A2BC5EED3E018E0109378
:10576000E5031092E603CE0102966AEA7AE049E088
:1057700050E00E948B3D84E58093EA0301E00093B2
:10578000F0030E94AD2A1093FB031092FC031092C9
:10579000FD031092FE0385E08093FF038091BC0718
:1057A000809300041092010400930204CE014E96EF
:1057B00062E470E048E350E00E94A13D84E262E2CE
:1057C00040E450E020E00E944C2A82E690E00E94F3
:1057D000A730DF91CF911F910F9108951F93CF9321
:1057E000DF939C01162F8CE697E0B9010E941A2BDB
:1057F000C5EED3E088E08093E5031092E603CE0186
:1058000002966AEA7AE049E050E00E948B3D8CE41F
:105810008093EA0381E18093F0030E94AD2A109205
:10582000FD038BE78093FE038AE08093FB031093D4
:10583000FC031092FF0388E380930004109201049C
:1058400010920204CE014E9620E3FC0111922A959B
:10585000E9F763E87BE04AE050E00E948B3D88E294
:105860006AE140E450E021E00E944C2A8AE590E0A1
:105870000E94A730DF91CF911F910895662321F0F8
:105880002091FE032617D9F42091FF032223B9F4B7
:1058900020910004283399F42091FC032B3789F4DC
:1058A000FC0180912B04838380912C04828380915E
:1058B0002D04818380912E04808381E0089580E00F
:1058C000089580E00895EF92FF920F931F93CF9376
:1058D000DF93182F092FEB01F42EE52E8CE697E0CD
:1058E0000E941A2B8881807F803E31F489ED93E0FD
:1058F0006AE872E00E94542588E08093E5031092E4
:10590000E60387EE93E06AEA7AE049E050E00E941D
:105910008B3D1092E90381E18093F003E092FD0357
:10592000F092FE030093FB031093FC031092FF031D
:105930001092010410920204DF91CF911F910F91F8
:10594000FF90EF9008951F93CF93DF93EC014C9657
:105950009093E903CE011C2F845E8093EA030E949A
:10596000AD2ACE0108969093FF03185F10930004B0
:10597000AE01405F5F4F88E26AE121E00E944C2A5D
:10598000CE018A960E94A730DF91CF911F91089592
:10599000BC0181E080935F0781EC97E00E9449257C
:1059A0000895BC018091F003813099F48091FB034C
:1059B000882379F480910304823469F483EF93E0BF
:1059C00044E050E00E94943D9C0181E021153105A6
:1059D00019F080E0089580E00895DF92EF92FF9241
:1059E0000F931F93CF93DF938C01009709F0B5C0FD
:1059F00080915F078570E9F180915002909151028A
:105A00000097B9F50E948E30882399F18AE892E0D8
:105A10000E94092B88E08093E50316E01093E603CB
:105A200087EE93E062EA7AE048E050E00E948B3D26
:105A3000C9EFD3E0DE011D921A95E9F7CE010A976E
:105A400063EB77E00E945425CE01069661EC77E087
:105A50000E944925CE01049769EB77E00E94492511
:105A600080915F07886080935F078AE290E00E94E0
:105A7000A73080915002909151020196909351026B
:105A80008093500280916007813009F024C2809198
:105A90005F0781FF20C212E01093600780915202DD
:105AA0008F5F809352028F71009161070295000F02
:105AB000007E082BD0906207F09063078CE697E099
:105AC0006DEC77E00E941A2BE8E0EE2EE092E50301
:105AD0001092E60387EE93E06AEA7AE049E050E04C
