:100000000C941B060C9443060C9443060C94430674
:100010000C9443060C9443060C9443060C9443063C
:100020000C9443060C9443060C9443060C9443062C
:100030000C9443060C9443060C9443060C9443061C
:100040000C9428360C9443060C94A9370C94430660
:100050000C9443060C9443060C9443060C944306FC
:100060000C94FC330C944306687474703A2F2F720E
:10007000617973686F6262792E6E65742F73637233
:10008000697074732F6A6176612F737663312E37CE
:1000900000485454502F312E3020323030204F4BF6
:1000A0000D0A436F6E74656E742D547970653A2035
:1000B000746578742F68746D6C0D0A507261676D89
:1000C000613A206E6F2D63616368650D0A0D0A0049
:1000D000485454502F312E3020323030204F4B0DA9
:1000E0000A436F6E74656E742D547970653A2061A1
:1000F00070706C69636174696F6E2F782D6A6176B8
:10010000617363726970740D0A507261676D613A50
:10011000206E6F2D63616368650D0A0D0A003C6DEA
:10012000657461206E616D653D76696577706F728B
:100130007420636F6E74656E743D227769647468B1
:100140003D363430223E0D0A00485454502F312E93
:100150003020333031204D6F766564205065726DEC
:10016000616E656E746C790D0A4C6F636174696FB2
:100170006E3A20687474703A2F2F72617973686FC9
:100180006262792E6E65742F72617973686F626234
:10019000792E69636F0D0A0D0A436F6E74656E7474
:1001A0002D547970653A20746578742F68746D6C7D
:1001B0000D0A0D0A3C68313E333031204D6F7665B3
:1001C00064205065726D616E656E746C793C2F6849
:1001D000313E0A00485454502F312E3020343031F3
:1001E00020556E617574686F72697A65640D0A4393
:1001F0006F6E74656E742D547970653A20746578ED
:10020000742F68746D6C0D0A0D0A3C68313E3430F1
:100210003120556E617574686F72697A65643C2F20
:1002200068313E0024460024460024440024440053
:1002300024460024463C6D65746120687474702DFA
:1002400065717569763D22726566726573682220F4
:10025000636F6E74656E743D22303B2075726C3D29
:100260002F223E0024463C7363726970743E616CB9
:10027000657274282253746174696F6E20626974A8
:10028000732063616E206F6E6C79206265207365E8
:100290007420696E206D616E75616C206D6F646590
:1002A0002E22293C2F7363726970743E0A3C2F73AF
:1002B00063726970743E003C6D657461206874748B
:1002C000702D65717569763D227265667265736819
:1002D0002220636F6E74656E743D22303B20757210
:1002E0006C3D2F766F223E0024463C73637269702A
:1002F000743E616C65727428224F7074696F6E73FE
:100300002076616C7565732073617665642E222991
:100310003C2F7363726970743E0A003C6D657461B2
:1003200020687474702D65717569763D22726566FA
:10033000726573682220636F6E74656E743D22303F
:100340003B2075726C3D2F766F223E0024463C7335
:1003500063726970743E616C6572742822436F6EBB
:100360006669726D6174696F6E20646F6573206E6B
:100370006F74206D617463682122293C2F7363724E
:100380006970743E0A0024463C7363726970743E5F
:10039000616C65727428224E657720706173737783
:1003A0006F7264207365742E22293C2F7363726907
:1003B00070743E0A003C6D65746120687474702D21
:1003C00065717569763D2272656672657368222073
:1003D000636F6E74656E743D22303B2075726C3DA8
:1003E0002F766F223E0024463C7363726970743E20
:1003F000616C6572742822536F6D652076616C752F
:10040000657320617265206F7574206F6620626F5E
:10041000756E642E22293C2F7363726970743E0AD4
:100420000024463C6D65746120687474702D65719C
:100430007569763D22726566726573682220636F06
:100440006E74656E743D22303B2075726C3D2F22B8
:100450003E005265626F6F74696E672C2077616928
:100460007420666F72202444207365636F6E64731A
:100470002E2E2E0024463C6D6574612068747470C5
:100480002D65717569763D227265667265736822A5
:1004900020636F6E74656E743D2224443B20757238
:1004A0006C3D2F223E003C7363726970742073723E
:1004B000633D2224462F766965776F7074696F6E8D
:1004C000732E6A73223E3C2F7363726970743E0A06
:1004D000003C2F7363726970743E0A00766172206B
:1004E00079723D24442C6D6F3D24442C64793D2465
:1004F000442C68723D24442C6D696E3D24442C7359
:1005000065633D24443B00305D3B766172206E6F35
:100510007074733D24442C6C6F633D222453223B42
:1005200000222446222C24442C24442C24442C0035
:100530003C7363726970743E766172206F7074737D
:100540003D5B0024462446003C2F7363726970743F
:100550003E0A3C736372697074207372633D222497
:10056000462F686F6D652E6A73223E3C2F7363724F
:100570006970743E0A00766172206C72756E3D5B24
:1005800024442C24442C24442C244C5D3B0A005B42
:10059000302C302C305D5D3B0A76617220656E3DFB
:1005A00024442C72643D24442C72733D24442C6DED
:1005B0006D3D24442C726473743D244C2C6D617326
:1005C0003D24442C7572733D24442C6C6F633D2292
:1005D0002453223B005B24442C24442C24445D2CD3
:1005E00000305D3B7661722070733D5B0024442CCB
:1005F00000766172206E6272643D24442C736571D2
:100600003D24442C747A3D24442C73626974733DF8
:100610005B003C7363726970743E7661722076652C
:10062000723D24442C646576743D244C3B0A0024BE
:10063000462446003C2F7363726970743E0A3C6D19
:1006400065746120687474702D65717569763D22DA
:10065000726566726573682220636F6E74656E746E
:100660003D22303B2075726C3D2F7670223E00613A
:100670006C657274282250726F6772616D20244419
:10068000206D6F64696669656422293B00616C6551
:10069000727428224E65772070726F6772616D20C8
:1006A00061646465642E22293B0024463C736372B6
:1006B0006970743E003C7363726970742073726376
:1006C0003D2224462F706C6F7470726F672E6A73B0
:1006D000223E3C2F7363726970743E0A00244624E4
:1006E000463C7363726970743E7661722073657103
:1006F0003D24442C6D61733D24442C646576646113
:10070000793D24442C6465766D696E3D24442C64E7
:10071000643D24442C6D6D3D24442C79793D244462
:100720003B3C2F7363726970743E0A0024463C6D33
:1007300065746120687474702D65717569763D22E9
:10074000726566726573682220636F6E74656E747D
:100750003D22303B2075726C3D2F7670223E003C6E
:100760006D65746120687474702D65717569763D6E
:1007700022726566726573682220636F6E74656E9F
:10078000743D22303B2075726C3D2F7670223E0006
:1007900024463C7363726970743E616C65727428A0
:1007A0002250726F6772616D20696E646578206F88
:1007B0007574206F662072616E67652E22293C2F4A
:1007C0007363726970743E0A003C2F7363726970C0
:1007D000743E0A3C736372697074207372633D22C5
:1007E00024462F6D6F6470726F672E6A73223E3CD1
:1007F0002F7363726970743E0A005D3B002C2444C1
:10080000007661722070726F673D5B24442C244433
:100810002C24442C24442C24442C2444003C736376
:10082000726970743E766172206E626F6172647379
:100830003D24443B766172207069643D24443B0052
:1008400024462446003C736372697074207372639B
:100850003D2224462F7669657770726F672E6A7322
:10086000223E3C2F7363726970743E0A0024462452
:1008700046003C736372697074207372633D7064E8
:100880007324442E6A733E3C2F7363726970743E06
:100890000A003C2F7363726970743E0A003C7363F4
:1008A000726970743E766172206E70726F67733D0C
:1008B00024443B766172206E626F617264733D24E2
:1008C000443B7661722070643D5B5D3B00244600D2
:1008D0005D3B002C24440070645B24445D3D5B243C
:1008E000442C24442C24442C24442C24442C2444E0
:1008F00000000108000604000145000082000040DD
:100900000020504F535420244620485454502F3137
:100910002E310D0A486F73743A2024460D0A24467E
:1009200024534163636570743A202A2F2A0D0A43C9
:100930006F6E6E656374696F6E3A20636C6F73657A
:100940000D0A436F6E74656E742D4C656E67746826
:100950003A2024440D0A436F6E74656E742D5479E9
:1009600070653A206170706C69636174696F6E2F95
:10097000782D7777772D666F726D2D75726C656E39
:10098000636F6465640D0A0D0A24530047455420C3
:100990002446245320485454502F312E310D0A48F8
:1009A0006F73743A2024460D0A4163636570743A8C
:1009B00020746578742F68746D6C0D0A436F6E6EC9
:1009C000656374696F6E3A20636C6F73650D0A0D11
:1009D0000A00E30004FA000100000001001801FF12
:1009E000FFFFFFFFFFFFFF030801FF0101010146B9
:1009F00069726D77617265207665722E0054696D3B
:100A000065207A6F6E652028474D54293A0055734A
:100A10006520444843503A005374617469632E69F9
:100A200070313A005374617469632E6970323A0010
:100A30005374617469632E6970333A00537461743E
:100A400069632E6970343A00476174657761792E65
:100A50006970313A00476174657761792E69703247
:100A60003A00476174657761792E6970333A0047BF
:100A70006174657761792E6970343A004578742E17
:100A800020626F617264733A004D61737465722005
:100A900073746174696F6E3A0053657175656E7435
:100AA00069616C3A0053746174696F6E2064656C9F
:100AB00061793A00557365207261696E2073656EC5
:100AC000736F723A004E6F726D616C6C79206F704B
:100AD000656E3A00557365205254433A005265736F
:100AE000657420616C6C3F20000001020000000072
:100AF0000000000001010301030302024D6F6E00BC
:100B00005475650057656400546875004672690045
:100B10005361740053756E002020202020004E6F1A
:100B200000596573003A3030002020202020002D2D
:100B30005261696E2044656C61796564212D2000E5
:100B40002D2D2044697361626C656421202D2D2058
:100B50000042333A686F6C6420746F20736176656D
:100B60000042333A73656C2042312F42323A636857
:100B700067003D3D536574204F7074696F6E733D1F
:100B80003D0053656C662074657374696E672E2E24
:100B90002E00506C6561736520776169742E2E2E6E
:100BA00000526573657474696E6720454550524FF5
:100BB0004D000020746865206E6574776F726B2E2F
:100BC0002E2E00436F6E6E656374696E6720746FBE
:100BD0000000000000240027002A0000000000257B
:100BE0000028002B0000000000230026002900043C
:100BF00004040404040404020202020202030303C4
:100C000003030301020408102040800102040810BD
:100C1000200102040810200000000700020100006B
:100C200003040600000000000000000059188E1B9D
:100C3000941C452CD13711241FBECFEFD8E0DEBF66
:100C4000CDBF12E0A0E0B1E0E8E2F5E702C0059018
:100C50000D92A835B107D9F718E0A8E5B2E001C0B8
:100C60001D92A239B107E1F71CE0C6E3DCE004C045
:100C70002297FE010E94AE39CC32D107C9F70E94FB
:100C800031390C94923A0C940000FC01A481B58196
:100C90006D93B583A483089582E00E94B32A282F20
:100CA00030E086FF47C02F70307022303105D1F020
:100CB00024303105F9F021303105E1F587FF03C01B
:100CC0000E94DB2608956091FA017091FB018EE687
:100CD00097E00E94422960ED77E080E090E00E947A
:100CE000B036089587FF03C00E94E32608950E944E
:100CF0008B29089587FF06C081E00E94B32A0E94D5
:100D0000C925089520911F07822F82958695869583
:100D1000837090E001966091BA0170E06F5F7F4F41
:100D20000E9477398295880F880F807C2F73282B3B
:100D300020931F070895EF92FF920F931F930E9435
:100D400053260E9485180E94AA2B60918C017091F5
:100D50008D0186E891E00E941C2890911F0788234E
:100D600011F0977F01C0986090931F0780E090E09A
:100D700060E070E040E050E021E030E001E010E0B1
:100D8000E2EBEE2EE7E0FE2E0E942F3160E17EE0E6
:100D900080E090E00E9467318091C001882319F0C3
:100DA00084E79CE102C08DE493E10E9450310E94EF
:100DB000DB2680E00E947B281F910F91FF90EF902F
:100DC0000895EF92FF920F931F93CF93DF93082F15
:100DD00060E00E947E26802F8F5F80937405C02F75
:100DE000D0E0ACEFEA2EA5E0FA2EEC0EFD1EF701E6
:100DF000808180937505CC0FDD1F8E0104541A4F3E
:100E0000F8018081918190937705809376050E9407
:100E10007830609378057093790580937A05909384
:100E20007B05C458DA4F19821882F80111821082AA
:100E3000F70110820E94D8259091BA0180E0E82F36
:100E4000F0E0E05EF84F2081222341F48F5F981795
:100E5000B0F780911F078F7E80931F07DF91CF919E
:100E60001F910F91FF90EF900895BF92CF92DF9264
:100E7000EF92FF920F931F93CF93DF93D82EEB0146
:100E8000082F10E0C62E7E01BF2CF801EE0FFF1FC9
:100E9000E458FA4FC083F1827801EE0CFF1CEE0C8F
:100EA000FF1C209761F4F701E45EF94F8FEF9FEF8D
:100EB000AFEFBFEF80839183A283B38312C00E9400
:100EC0007830F701E45EF94F9E01442737FD4095E5
:100ED000542F620F731F841F951F60837183828359
:100EE0009383F801EE0FFF1FE454FA4FC082B182E2
:100EF000F801E450FA4F8FEF80838D2D61E00E945E
:100F00007E2680911F07806180931F07DF91CF911C
:100F10001F910F91FF90EF90DF90CF90BF900895B9
:100F20002F923F924F925F926F927F928F929F92F9
:100F3000AF92BF92CF92DF92EF92FF920F931F93E7
:100F4000DF93CF93CDB7DEB72F970FB6F894DEBF00
:100F50000FBECDBF782E082F10E0075F1F4F6E0128
:100F60000894C11CD11C57E6E52E55E0F52E47ED3F
:100F7000442E48E0542E3BE0832E912C8C0E9D1E77
:100F8000C701EF86692E20ED222E28E0322E6FC099
:100F9000C6010E94601A8DB79EB742970FB6F894AB
:100FA0009EBF0FBE8DBFEDB7FEB73196ADB7BEB7D2
:100FB0001296FC92EE92119753824282B582A482DD
:100FC0008981868317828A81808711868B819C81A3
:100FD000938782878D819E81958784878F8198856D
:100FE0009787868789859A85918B808B0E9494311B
:100FF000EDB7FEB772960FB6F894FEBF0FBEEDBF09
:10100000AA2421C000D000D000D0EDB7FEB73196A1
:10101000ADB7BEB71296FC92EE92119783ED98E0B1
:1010200093838283D401AA0DB11D8C918483158290
:101030000E949431A394ADB7BEB716960FB6F8943C
:10104000BEBF0FBEADBF8091BA018A15D8F600D0E1
:1010500000D08F85EDB7FEB7818362823482238210
:101060000E94943173940F900F900F900F90A72CC3
:10107000BB240A151B056CF080917305781648F4A3
:10108000872DB6010E94D4188A81823008F080CF63
:1010900082CF2F960FB6F894DEBF0FBECDBFCF9193
:1010A000DF911F910F91FF90EF90DF90CF90BF9055
:1010B000AF909F908F907F906F905F904F903F90F8
:1010C0002F9008950F931F93DF93CF930F92CDB777
:1010D000DEB78C01060F111DC8010E940833D8012C
:1010E0009C91990F892F880F880F890F805E00D0FF
:1010F00000D000D0EDB7FEB7319627E635E0ADB7AA
:10110000BEB712963C932E9311972DEC38E03383A3
:10111000228320ED30E03583248389830E9494313B
:10112000EDB7FEB736960FB6F894FEBF0FBEEDBF13
:1011300089810E94900781E00F90CF91DF911F91EC
:101140000F910895DF92EF92FF920F931F93CF9329
:10115000DF938DB79EB708970FB6F8949EBF0FBE6A
:101160008DBFEDB7FEB7319607E615E0ADB7BEB758
:1011700012961C930E9311978DE998E093838283C6
:1011800080917305848315828091BA0190E0019665
:10119000978386830E949431EDB7FEB738960FB6D9
:1011A000F894FEBF0FBEEDBF80E00E94900700D014
:1011B00000D0ADB7BEB712961C930E93119782E97B
:1011C00098E014969C938E9313970E9494310F90FD
:1011D0000F900F900F90809173058B3088F1FF2452
:1011E000F394CAE0D0E0D02EE12E02E718E01CC054
:1011F00000D000D000D0EDB7FEB73196ADB7BEB786
:101200001196DC9211971296EC9213830283358328
:1012100024830E949431F394EDB7FEB736960FB64F
:10122000F894FEBF0FBEEDBF2F2D30E08091730507
:1012300090E00197BE010E94773962177307C4F6E8
:10124000DF91CF911F910F91FF90EF90DF90089564
:10125000CF93DF938DB79EB708970FB6F8949EBFD4
:101260000FBE8DBFEDB7FEB73196C7E6D5E0ADB77F
:10127000BEB71296DC93CE9311978DE698E09383D8
:10128000828381E990E0958384838EE191E0978366
:1012900086830E9494318DB79EB708960FB6F89456
:1012A0009EBF0FBE8DBF0E94A20800D000D000D00C
:1012B000EDB7FEB73196ADB7BEB71296DC93CE93BD
:1012C000119785E498E09383828388E690E0958384
:1012D00084830E9494318DB79EB706960FB6F8941A
:1012E0009EBF0FBE8DBF81E0DF91CF910895BF9269
:1012F000CF92DF92EF92FF920F931F93DF93CF93E2
:10130000CDB7DEB72E970FB6F894DEBF0FBECDBFB8
:10131000062F10E00F5F1F4F080F191FC8010E9412
:101320000833C80168E475E04EE120E031E00E9436
:10133000BC32882309F405C188E495E00E94B239E3
:101340008C018FEF0F3F18070CF4FBC080917305E1
:1013500090E0081719070CF0F4C0ADB7BEB71897A6
:101360000FB6F894BEBF0FBEADBFEDB7FEB7319656
:1013700077E6E72E75E0F72E1296FC92EE92119723
:1013800080E498E09383828381E990E0958384836D
:101390008EE191E0978386830E949431EDB7FEB78A
:1013A0003196ADB7BEB71296FC92EE9211978DE1D1
:1013B00098E0938382838091BA0190E001969583AF
:1013C0008483178306830E949431EDB7FEB7389665
:1013D0000FB6F894FEBF0FBEEDBFFFEF0F3F1F0724
:1013E00009F48DC0802F8E010F5F1F4FB8010E943E
:1013F000D4188A81823018F0C8010E94601A8DB713
:101400009EB740970FB6F8949EBF0FBE8DBFEDB745
:10141000FEB7319607E615E0ADB7BEB712961C933E
:101420000E93119781E098E093838283898184836E
:1014300015828A81868317828B819C819187808720
:101440008D819E81938782878F81988595878487F8
:1014500089859A85978786870E949431EDB7FEB774
:1014600070960FB6F894FEBF0FBEEDBFDD24B02E10
:10147000C12E6DEFE62E67E0F62E8E01055F1F4F41
:1014800020C000D000D000D0EDB7FEB73196ADB788
:10149000BEB71196BC9211971296CC92F382E2825B
:1014A000800F911FDC018C91848315820E949431FE
:1014B000D394EDB7FEB736960FB6F894FEBF0FBEC5
:1014C000EDBF8D2D90E02091BA0130E0281739074B
:1014D000C4F600D000D087E695E0ADB7BEB712964F
:1014E0009C938E9311978AEF97E014969C938E931A
:1014F00013970E9494310F900F900F900F9000D08F
:1015000000D000D0EDB7FEB7319687E695E0ADB7D5
:10151000BEB712969C938E93119789EC97E09383B4
:10152000828388E690E0958384830E949431EDB7AE
:10153000FEB736960FB6F894FEBF0FBEEDBF81E042
:1015400001C080E02E960FB6F894DEBF0FBECDBF6F
:10155000CF91DF911F910F91FF90EF90DF90CF908F
:10156000BF900895CF93DF93C62FD0E02196C80F88
:10157000D91FCE010E940833CE0168E475E04EE128
:1015800024E031E00E94BC32882309F467C088E47B
:1015900095E00E94212C882309F460C063C088E490
:1015A00095E00E94B2392FEF8F3F920719F40E9405
:1015B000A11832C02091730530E0821793071CF404
:1015C0000E940C1929C000D000D000D0EDB7FEB7A2
:1015D0003196C7E6D5E0ADB7BEB71296DC93CE9391
:1015E000119780E997E09383828381E990E0958366
:1015F00084830E9494310F900F90EDB7FEB7D28391
:10160000C1838FE597E0948383830E9494310F9088
:101610000F900F900F9020C000D000D000D0EDB7F9
:10162000FEB7319687E695E0ADB7BEB712969C93AC
:101630008E9311978CE297E09383828381E990E007
:10164000958384830E949431EDB7FEB736960FB62A
:10165000F894FEBF0FBEEDBF81E001C080E0DF91D6
:10166000CF910895CE0168E475E04EE120E031E0CD
:101670000E94BC32882309F092CFF0CF2F923F9284
:101680004F925F926F927F928F929F92AF92BF9292
:10169000CF92DF92EF92FF920F931F93CF93DF933E
:1016A000C62FD0E02196C80FD91FCE010E94083363
:1016B0000E9478307B018C010E94442F4C01C801AC
:1016C000B7010E944D2F5C01C801B7010E94592F3C
:1016D0006C01C801B7010E94652F2C010E941F31C7
:1016E0001C01CE0168E475E04EE127E031E00E9484
:1016F000BC328823A1F088E495E069E071E045E020
:1017000050E00E94F639009751F088E495E00E947D
:10171000B2396C0101978F31910508F099C0CE0163
:1017200068E475E04EE12FE031E00E94BC3288238E
:1017300051F088E495E00E94B2395C0101978C3049
:10174000910508F085C0CE0168E475E04EE121E125
:1017500031E00E94BC32882359F088E495E00E9471
:10176000B2394C0182EB881687E098060CF470C001
:10177000ADB7BEB756970FB6F894BEBF0FBEADBF9C
:10178000CDB7DEB72196E7E66E2EE5E07E2EEDB70B
:10179000FEB7728261828DED96E09B838A8381E938
:1017A00090E09D838C838EE191E09F838E83809176
:1017B000BC01888719868091BB018A871B86C80176
:1017C000B70120E831E541E050E00E948A393D87C9
:1017D0002C872CE330E0429EC001439E900D529E28
:1017E000900D1124820D931D9F878E87D98AC88AF8
:1017F000BB8AAA8A9D8A8C8A0E9494318DB79EB733
:1018000046960FB6F8949EBF0FBE8DBF0E94A208E9
:1018100000D000D000D0EDB7FEB73196ADB7BEB75F
:1018200012967C926E92119785EB96E09383828359
:1018300088E690E0958384830E949431EDB7FEB7EB
:1018400036960FB6F894FEBF0FBEEDBF81E001C023
:1018500080E0DF91CF911F910F91FF90EF90DF908B
:10186000CF90BF90AF909F908F907F906F905F9040
:101870004F903F902F900895CF93DF93DC0110920B
:101880004805C8E4D5E0ED91FC91119780E090E027
:1018900007C02191322F30533A3058F429930196E2
:1018A000AF012D913C911197265F3F4FE217F3074F
:1018B00080F3885B9A4FFC011082CA0101968D93D8
:1018C0009C9388E495E00E94B239DF91CF9108950E
:1018D000AF92BF92CF92DF92EF92FF920F931F933E
:1018E000DF93CF93CDB7DEB761970FB6F894DEBF25
:1018F0000FBECDBF062F10E00F5F1F4F080F191F3F
:10190000C8010E940833C80168E475E04EE124E094
:1019100031E00E94BC32882309F403C188E495E0D9
:101920000E94212C882309F4FCC00DC188E495E0B5
:101930000E94B2397C018FEFE8168FEFF8060CF4A5
:10194000F0C08091730590E0E816F9060CF0E9C04C
:101950001A830983A4E6CA2ED12CC00ED11E04C05E
:101960000F5F1F4F1A83098309811A81D8018C9157
:10197000882309F4D6C00C151D0508F0D2C0C80193
:1019800063E171E043E050E00E94F639009741F7CF
:101990000D5F1F4F1A8309838E010F5F1F4FC80110
:1019A0000E943C0C8B83C8010E943C0C8C83C801B4
:1019B0000E943C0C9E838D83C8010E943C0C98873A
:1019C0008F83C8010E943C0C9A878987C8010E94B6
:1019D0003C0C9C878B8720E05801FDE0CF2ED12C5A
:1019E000CC0EDD1E0AC0C501298B0E943C0CF601FD
:1019F000E00FF11F808329892F5F022F10E04091B3
:101A0000BA0150E04017510774F706C0FC01E20F1D
:101A1000F11D10822F5F02C0CE010D962430B0F36D
:101A20008C81823020F0CE0103960E94A41A00D04F
:101A300000D000D0EDB7FEB7319607E615E0ADB7A0
:101A4000BEB712961C930E9311978AEA96E0938381
:101A5000828381E990E0958384830E949431EDB77D
:101A6000FEB736960FB6F894FEBF0FBEEDBFBE01AF
:101A70006D5F7F4FFFEFEF16FFEFFF06C1F4CB0165
:101A80000E94E51800D000D0ADB7BEB712961C93E7
:101A90000E9311978DE896E014969C938E9313976E
:101AA0000E9494310F900F900F900F9022C08E2DB6
:101AB0000E94FB1800D000D000D0EDB7FEB73196E1
:101AC000ADB7BEB712961C930E9311978FE696E0B2
:101AD000938382830894E11CF11CF582E4820E94C6
:101AE0009431EDB7FEB736960FB6F894FEBF0FBE31
:101AF000EDBF00D000D087E695E0ADB7BEB7129637
:101B00009C938E93119784E396E014969C938E9306
:101B100013970E9494310F900F900F900F9081E0D7
:101B200001C080E061960FB6F894DEBF0FBECDBF56
:101B3000CF91DF911F910F91FF90EF90DF90CF90A9
:101B4000BF90AF900895C80168E475E04EE120E0D1
:101B500031E00E94BC32882309F0E8CEE2CFAF9298
:101B6000BF92DF92EF92FF920F931F93CF93DF9379
:101B70002DB73EB7285030400FB6F8943EBF0FBE89
:101B80002DBFEDB7FEB73196C7E6D5E0ADB7BEB70E
:101B90001296DC93CE9311978FE296E09383828323
:101BA00081E990E0958384838EE191E09783868339
:101BB0000E949431EDB7FEB738960FB6F894FEBF89
:101BC0000FBEEDBF0E9478302DB73EB72A5030408F
:101BD0000FB6F8943EBF0FBE2DBFEDB7FEB73196DE
:101BE000ADB7BEB71296DC93CE93119722E136E0E3
:101BF0003383228321E130E0358324836683778336
:101C0000808791870E949431EDB7FEB73196ADB7CA
:101C1000BEB71296DC93CE93119781EF95E0938334
:101C200082838091BA0190E00196958384838091AC
:101C3000BC01868317828091B00190E00C97918758
:101C400080870E949431EDB7FEB73A960FB6F894AC
:101C5000FEBF0FBEEDBFFF245E01DC2EEB2C0DEEB0
:101C600015E021C000D000D000D0EDB7FEB731960E
:101C7000ADB7BEB71196DC9211971296EC92138312
:101C80000283AF2DB0E0A05EB84F8C9184831582A3
:101C90000E949431F394EDB7FEB736960FB6F894E0
:101CA000FEBF0FBEEDBF8091BA01C7E6D5E08F152C
:101CB000C8F600D000D0ADB7BEB71296DC93CE9375
:101CC000119781EE95E014969C938E9313970E9442
:101CD00094310F900F900F900F90FF24FE01EC2E87
:101CE000DF2E05ED15E035C08DB79EB70A970FB60C
:101CF000F8949EBF0FBE8DBFEDB7FEB73196ADB75E
:101D0000BEB71196EC9211971296DC921383028360
:101D1000D901A450BA4F8C9184831582220F331FAE
:101D2000D901A454BA4F8D919C91978386832458EE
:101D30003A4FD9018D919C91918780870E9494316F
:101D4000F394EDB7FEB73A960FB6F894FEBF0FBE08
:101D5000EDBF2F2D30E08091BA0190E00196B3E005
:101D6000880F991FBA95E1F7C7E6D5E0281739071C
:101D70000CF4BACF08E415E0C8010E9469272DB71A
:101D80003EB7265130400FB6F8943EBF0FBE2DBF70
:101D9000EDB7FEB73196ADB7BEB71296DC93CE93D2
:101DA00011978FE895E09383828380911F0781705C
:101DB0008483158280911F078695817086831782A0
:101DC00080911F0786958695817080871186809106
:101DD0001F078295869581708287138680912407DC
:101DE00090912507A0912607B091270784879587B2
:101DF000A687B7878091BB01808B118A8091BE0135
:101E0000828B138A158B048B0E949431EDB7FEB739
:101E100038960FB6F894FEBF0FBEEDBF3196ADB742
:101E2000BEB71296DC93CE93119786E795E0938325
:101E300082838091740584831582809175058683E1
:101E400017828091760590917705918780878091A0
:101E5000780590917905A0917A05B0917B058287EC
:101E60009387A487B5870E949431EDB7FEB7389663
:101E70000FB6F894FEBF0FBEEDBF3196ADB7BEB73B
:101E80001296DC93CE93119788E495E09383828336
:101E900088E690E0958384830E949431EDB7FEB785
:101EA00036960FB6F894FEBF0FBEEDBF81E0DF910E
:101EB000CF911F910F91FF90EF90DF90BF90AF9067
:101EC00008952F923F925F926F927F928F929F928E
:101ED000AF92BF92CF92DF92EF92FF920F931F9338
:101EE000CF93DF932DB73EB7285030400FB6F8940C
:101EF0003EBF0FBE2DBFEDB7FEB7319637E6C32EFE
:101F000035E0D32EADB7BEB71296DC92CE921197C4
:101F100083E495E09383828381E990E095838483D1
:101F20008EE191E0978386830E9494310F900F9009
:101F30000F900F90EDB7FEB7D282C18280E395E09B
:101F4000948383830E9494312FEAE22E21E0F22EC3
:101F500002EC11E00F900F900F900F90C0E0D0E0D6
:101F6000AA246C2C5D2C91E2892E95E0992E1E01FD
:101F7000BC2E732CCE010E94D12680FF37C0D80121
:101F8000CD90DC90CE010E94D12690E082709070BE
:101F9000F7012081C13021F430E02C50304001C0E5
:101FA00030E0ADB7BEB71C970FB6F894BEBF0FBEFA
:101FB000ADBFEDB7FEB7319611966C9211971296A0
:101FC0005C9293828282D582C48297838683318792
:101FD0002087B28673860E949431A394EDB7FEB732
:101FE0003C960FB6F894FEBF0FBEEDBF2196089445
:101FF000E11CF11C0E5F1F4FC331D10509F0B7CFB3
:1020000008E415E0C8010E9469272DB73EB72850A3
:1020100030400FB6F8943EBF0FBE2DBFEDB7FEB7F0
:102020003196C7E6D5E0ADB7BEB71296DC93CE9336
:10203000119787E095E093838283A48215821783AA
:1020400006830E949431EDB7FEB738960FB6F89428
:10205000FEBF0FBEEDBF8091C0018823E9F10E9451
:10206000FA307C010E94FF308C010E940F316C011C
:102070000E9427315C010E941F314C010E941731E0
:102080002DB73EB7205130400FB6F8943EBF0FBE7B
:102090002DBFEDB7FEB73196ADB7BEB71296DC9344
:1020A000CE9311972CED34E033832283F582E482C2
:1020B00017830683D186C086B386A28695868486DA
:1020C000978786870E949431EDB7FEB770960FB65A
:1020D000F894FEBF0FBEEDBF00D000D0C7E6D5E03C
:1020E000ADB7BEB71296DC93CE93119781ED94E015
:1020F00014969C938E9313970E94943100D0EDB761
:10210000FEB73196ADB7BEB71296DC93CE9311975A
:1021100086EA94E09383828388E690E095838483C3
:102120000E949431EDB7FEB736960FB6F894FEBF15
:102130000FBEEDBF81E0DF91CF911F910F91FF9016
:10214000EF90DF90CF90BF90AF909F908F907F9057
:102150006F905F903F902F900895EF92FF920F93B2
:102160001F93CF93DF93C62FD0E02196C80FD91FBE
:10217000CE0168E475E04EE124E031E00E94BC321B
:10218000882309F4D4C088E495E00E94212C882398
:1021900009F4CDC0D4C088E495E00E94B239181685
:1021A00019060CF04CC08DB79EB708970FB6F8947F
:1021B0009EBF0FBE8DBFEDB7FEB7319647E6E42E4A
:1021C00045E0F42EADB7BEB71296FC92EE92119791
:1021D00084E794E09383828381E990E0958384830C
:1021E0000CE010E0178306830E9494310F900F904B
:1021F000EDB7FEB73196ADB7BEB71296FC92EE9230
:10220000119782E594E093838283158304830E946F
:1022100094318DB79EB706960FB6F8949EBF0FBE49
:102220008DBF80916B0590916C052091690530916F
:102230006A05821B930B0E9445220E94C925CE018C
:1022400068E475E04EE127E131E00E94BC3288236A
:1022500099F080911F07817090914805913329F47E
:10226000813051F00E94DB2607C0903309F05FC037
:10227000882311F00E94E326CE0168E475E04EE168
:102280002AE131E00E94BC328823B9F080911F0717
:1022900082958695817090914805913329F481301B
:1022A00061F00E94362707C0903309F040C08823B0
:1022B00021F00E9440270E946018CE0168E475E07A
:1022C0004EE12DE131E00E94BC32882371F088E4B8
:1022D00095E00E94B239181619061CF40E94EB26EC
:1022E00004C0009721F50E941A2700D000D000D02A
:1022F000EDB7FEB7319687E695E0ADB7BEB712965B
:102300009C938E93119781E294E09383828381E979
:1023100090E0958384830E9494318DB79EB7069692
:102320000FB6F8949EBF0FBE8DBF81E001C080E064
:10233000DF91CF911F910F91FF90EF900895CE0103
:1023400068E475E04EE120E231E00E94BC3288236F
:1023500009F021CF74CFAF92BF92CF92DF92EF926C
:10236000FF920F931F93CF93DF93DC01A60FB11D54
:10237000C8E4D5E0E0E08D018D91982F90539A301C
:1023800028F4E43019F08993EF5FF5CFF0E0E85BD3
:10239000FA4F108288E495E00E94B239EC0197FD73
:1023A00001C18091BA0190E00196F3E0880F991F76
:1023B000FA95E1F78C179D070CF4F4C0D8018C91C5
:1023C0008D3309F05FC0209709F4ECC080911F079E
:1023D00085FD11C000D000D000D0EDB7FEB731961A
:1023E00087E695E0ADB7BEB712969C938E93119792
:1023F00084E692E036C02197C8010196D801119673
:102400002C911197203321F48C2F0E94E10619C0E2
:10241000213309F0C7C068E475E04EE124E231E001
:102420000E94BC32882341F088E495E00E94B239D2
:10243000BC0197FF03C0B6C060E070E08C2F0E9423
:10244000350700D000D000D0EDB7FEB7319687E653
:1024500095E0ADB7BEB712969C938E93119783E328
:1024600092E09383828381E990E0958384830E9444
:102470009431EDB7FEB736960FB6F894FEBF0FBE97
:10248000EDBF8EC000D000D000D0EDB7FEB73196C2
:1024900087E695E0ADB7BEB712969C938E931197E1
:1024A00080E392E09383828381E990E09583848343
:1024B0000E949431EDB7FEB736960FB6F894FEBF82
:1024C0000FBEEDBF209741F48091BA01880F880FAD
:1024D000880F885F00E003C08C2F0C2F015010E0A4
:1024E000C82FD0E0E7E6EE2EE5E0FE2E7AE2C72E1A
:1024F00072E0D72E6DE2A62E62E0B62E4DC080911E
:102500001F07982F9370913059F59091BE01992330
:1025100011F082FD25C000D000D000D0EDB7FEB78D
:102520003196ADB7BEB71296FC92EE921197B38278
:10253000A282D80153E0B595A7955A95E1F7A05E20
:10254000B84F8C9190E098012770307002C095953B
:1025500087952A95E2F7817090709583848310C0E7
:1025600000D000D000D0EDB7FEB73196ADB7BEB702
:102570001296FC92EE921197D382C2821582148237
:102580000E949431EDB7FEB736960FB6F894FEBFB1
:102590000FBEEDBF0F5F1F4F0C171D070CF4AFCF21
:1025A00081E001C080E0DF91CF911F910F91FF90FA
:1025B000EF90DF90CF90BF90AF90089500D000D003
:1025C00000D0EDB7FEB7319687E695E0ADB7BEB760
:1025D00012969C938E93119787E292E09383828365
:1025E00089E491E0958384830E9494318DB79EB7EE
:1025F00006960FB6F8949EBF0FBE8DBF81E008957A
:10260000EF92FF920F931F93DF93CF9300D000D0F0
:10261000CDB7DEB700E010E07E010894E11CF11CAC
:102620000E94D41F0E943B23C701609158020E9460
:10263000A8228823E1F0E980FA800B811C8180ECDC
:1026400098EDA4E5BCE7E80EF91E0A1F1B1F609178
:10265000B00170E080E090E020E13EE040E050E03A
:102660000E943839E60EF71E081F191F09C00F5FB8
:102670001F4F97E20031190799F6EE24FF248701D6
:10268000B701C8010F900F900F900F90CF91DF917D
:102690001F910F91FF90EF900895EF92FF920F938B
:1026A0001F93DF93CF930F92CDB7DEB720E08EE874
:1026B00091E06091580229830E9458220E940013E1
:1026C0007B018C016AEF70E080E090E00E94B03600
:1026D0002981E114F1040105110519F42F5F2A3055
:1026E00031F7B701C8010F90CF91DF911F910F9182
:1026F000FF90EF9008952F923F924F925F926F92CA
:102700007F928F929F92AF92BF92CF92DF92EF9281
:10271000FF920F931F93DF93CF93CDB7DEB7A597AB
:102720000FB6F894DEBF0FBECDBFC62EDD240894D1
:10273000C11CD11CC80ED91EC60168E475E04EE16B
:1027400024E031E00E94BC32882309F487C188E488
:1027500095E00E94212C882309F480C19BC19E2C06
:102760008F2CC7010E94D12680FF3CC0C7010E9468
:10277000D12681FF02C0D5011C9239821A821B82A8
:102780001C821D82892D982DB2014AE050E00E94E2
:10279000043AC60168E475E04EE193010E94BC3240
:1027A000882301F1892D982D0E94D12681FF03C035
:1027B000F501208217C088E495E00E94B2398C01AF
:1027C000FE2DF13011F4045F1F4F17FD7BC1892DE1
:1027D000982D0E94D62690E0801791070CF472C1C4
:1027E000D5010C930894E11CF11C0894A11CB11CA8
:1027F000B3E1EB16F10409F0B2CFC60168E475E06D
:102800004EE126E231E00E94BC32882341F088E4A8
:1028100095E00E94083388E495E00E944A27809161
:10282000C001882309F460C0C60168E475E04EE188
:102830002AE231E00E94BC32882309F455C084E7C3
:1028400089831B828E010A5F1F4F80E3E82E5E01A1
:102850000894A11CB11CEA82C60168E475E04EE14F
:1028600095010E94BC32882339F088E495E00E94EB
:10287000B239F80191838083E3940E5F1F4FFE2DE0
:10288000F63349F7EE80FF8082EBE81687E0F80622
:1028900074F108851985101611064CF50D301105D7
:1028A00034F52A853B85121613060CF520323105C6
:1028B000F4F48C859D8597FD1AC088319105BCF490
:1028C0006E857F8577FD13C06C33710584F448896C
:1028D000598957FD0CC04C3351054CF40E942F31DF
:1028E0000E9478300E94ED1B9CA1992319F100D021
:1028F00000D000D0EDB7FEB7319607E615E0ADB7D2
:10290000BEB712961C930E93119786EE93E09383B5
:10291000828381E990E0958384830E9494310F90B3
:102920000F90EDB7FEB71283018385EB93E094839C
:10293000838356C00E94B926C60168E475E04EE163
:102940002FE231E00E94BC32882309F450C08E018E
:102950000A5F1F4FC601B8014EE123E331E00E9438
:10296000BC32882309F4B1C088E495E0B8010E9424
:10297000E639009709F0A9C088E495E00E948B2B06
:1029800000D000D000D0EDB7FEB7319687E695E0D5
:10299000ADB7BEB712969C938E93119786E893E0DD
:1029A0009383828381E990E0958384830E949431AC
:1029B000EDB7FEB736960FB6F894FEBF0FBEEDBF6B
:1029C00000D000D087E695E0ADB7BEB712969C93D5
:1029D0008E9311978BE193E014969C938E931397AB
:1029E0000E9494310F900F900F900F9039C000D03B
:1029F00000D000D0EDB7FEB7319607E615E0ADB7D1
:102A0000BEB712961C930E93119788EE92E09383B3
:102A1000828381E990E0958384830E9494310F90B2
:102A20000F90EDB7FEB71283018387EB92E094839A
:102A300083830E9494310F900F900F900F9080919C
:102A4000B001FDA1F81761F00E944D1361157105E9
:102A50008105910529F00E94493002C080E001C043
:102A600081E0A5960FB6F894DEBF0FBECDBFCF9123
:102A7000DF911F910F91FF90EF90DF90CF90BF906B
:102A8000AF909F908F907F906F905F904F903F900E
:102A90002F9008958091B0018DA31FEAA12E11E01F
:102AA000B12EEE24FF241CA2BFE63B2EA2E04A2E4C
:102AB000512C4C0E5D1E3E010894611C711C222499
:102AC00023944DCE91E09CA38DCE00D000D000D0B9
:102AD000EDB7FEB7319687E695E0ADB7BEB7129673
:102AE0009C938E9311978CE493E05ACFCF93DF930E
:102AF000EC01259620913701DC0115968C911597F4
:102B0000281719F40E94AF0D95C089E391E0BE012A
:102B10004BE050E00E94F639009719F40E94DE1253
:102B200089C085E491E0BE0142E050E00E94F639A0
:102B3000009729F4CE0162E00E94AD107BC088E4CA
:102B400091E0BE0142E050E00E94F639009729F47E
:102B5000CE0162E00E9428096DC08BE491E0BE01C5
:102B600042E050E00E94F639009729F4CE0162E07D
:102B70000E9477095FC08EE491E0BE0142E050E020
:102B80000E94F639009729F4CE0162E00E94B20A51
:102B900051C081E591E0BE0142E050E00E94F6396B
:102BA000009729F4CE0162E00E94680C43C084E5DE
:102BB00091E0BE0142E050E00E94F639009729F40E
:102BC000CE0162E00E943E0B35C087E591E0BE0178
:102BD00042E050E00E94F639009719F40E94610F1C
:102BE00029C08AE591E0BE0142E050E00E94F6393A
:102BF000009729F4CE0162E00E947B131BC08DE593
:102C000091E0BE0142E050E00E94F639009729F4BD
:102C1000CE0162E00E94AB110DC080E691E0BE01E2
:102C200043E050E00E94F639009731F4CE0163E0B2
:102C30000E946208882301F500D000D000D0EDB7D3
:102C4000FEB7319687E695E0ADB7BEB712969C9376
:102C50008E93119784E292E09383828384ED91E0D6
:102C6000958384830E949431EDB7FEB736960FB6F4
:102C7000F894FEBF0FBEEDBFDF91CF9108952F9264
:102C80003F924F925F926F927F928F929F92AF92FC
:102C9000BF92CF92DF92EF92FF920F931F93DF9339
:102CA000CF930F92CDB7DEB72090BC010E94D41F06
:102CB0000E943B2390936E0580936D050097D1F0A1
:102CC00020E932E030936A052093690530936C0562
:102CD00020936B05865A9D4F0E94761580916B0557
:102CE00090916C052091690530916A05821B930BC8
:102CF0000E9445220E944C060E9478307B018C0184
:102D000080916F0590917005A0917105B091720549
:102D10008E159F05A007B10709F4B7C1E0926F05B2
:102D2000F0927005009371051093720580E00E9487
:102D30007B2880912B0790912C078B30910514F004
:102D40000E94C92580911F0781FF0FC08091240731
:102D500090912507A0912607B0912707E816F9065C
:102D60000A071B0710F00E941A270E942227809151
:102D70001F0785FD95C084FF03C0222009F090C085
:102D8000C801B7010E945F2F9C0180919201909130
:102D900093012817390709F483C0309393012093D6
:102DA00092018824BB2433246DC09924A92CA80C3B
:102DB000CA2CDD242091BB0130E0C6010196281702
:102DC000390709F457C02601440C551C5CE7652EF1
:102DD00055E0752E640C751CF3018081918100977C
:102DE00009F048C08A2DB801A7019E012F5F3F4F0F
:102DF0000E9462190097F1F1222089F0BB2079F03E
:102E0000F30191838083F201E454FA4F918380832C
:102E1000F601E450FA4F89818F5F80832BC0B601A1
:102E2000660F771FFB01E458FA4F91838083F60108
:102E3000EE0FFF1FEE0FFF1FE45EF94F9C0140E015
:102E400050E02E0D3F1D401F511F208331834283D0
:102E5000538364547A4FFB0191838083F601E450DD
:102E6000FA4F89818F5F80838A2D61E00E947E26E0
:102E7000BB24B3949394F92DF83009F097CF339491
:102E800048E0840E8091BA01831508F08ECFBB20F4
:102E900039F080911F07806180931F070E94D82519
:102EA00080911F0784FFD9C06624AA24C1C0EA2DDF
:102EB000F0E0E05EF84F4080B62C88249924552439
:102EC000CB2CDD242091BB0130E0C60101962817F0
:102ED000390709F4A1C0C201082C02C09595879555
:102EE0000A94E2F780FF98C0F601EE0FFF1FEE0F85
:102EF000FF1FE45EF94F80819181A281B381E816C2
:102F0000F9060A071B0708F46FC08B2D60E00E94CA
:102F10007E268B2D8F5F80937405B60164507A4FA7
:102F2000FB019081909375059601220F331FD90103
:102F3000A454BA4F4D915C911197509377054093EB
:102F40007605E0927805F092790500937A05109362
:102F50007B0524583A4FF9011182108211961C9278
:102F60001E92FB01108290911F0795FD55C02220F3
:102F700009F452C04091BA0150E04F5F5F4FB3E097
:102F8000440F551FBA95E1F729C0E091BB01F0E06D
:102F90009B012F5F3F4FE217F307F9F0FB01EE0FA4
:102FA000FF1FE458FA4F2081318121153105A9F026
:102FB000FB01EE0FFF1FEE0FFF1FE45EF94F40E035
:102FC00050E02E0D3F1D401F511F2083318342834F
:102FD000538361E00E947E261FC08F5F682F70E0E0
:102FE0006417750794F218C09601220F331F8F3FA4
:102FF000FFEF9F07FFEFAF07FFEFBF0731F4245844
:103000003A4FF9011182108207C024583A4F8E19A5
:103010009F09F901918380830894811C911CB394CA
:10302000F8E08F16910409F04BCFA39448E0640EAA
:103030008091BA018A1508F03ACF0E94D825909164
:10304000BA0180E0E82FF0E0E05EF84F2081222313
:1030500021F48F5F9817B0F712C00E94D825C801DD
:10306000B70123E030E040E050E00E948A39FB01E4
:10307000E95FFD4F81E060810E948C2906C080914C
:103080001F078F7E80931F07E8CF0F90CF91DF91AE
:103090001F910F91FF90EF90DF90CF90BF90AF9076
:1030A0009F908F907F906F905F904F903F902F9068
:1030B000089581E092E090936805809367050895F4
:1030C000CF93DF93ECE7F5E08CE196E0CCEFD5E031
:1030D0004CEB55E011921192DC011D921D921D9254
:1030E0001D92CD011992DA011D921D92AD01B5E03C
:1030F000EC3BFB0779F7DF91CF91089588EC91E0E5
:103100000E94623A8093730508950E9460180E949D
:103110007E18109274051092750510927705109222
:103120007605109278051092790510927A05109222
:103130007B05089588EC91E0609173050E94743AD4
:103140000895EF92FF920F931F93DF93CF9300D0D8
:10315000CDB7DEB719820AEC11E02EE07E010894AB
:10316000E11CF11C0AC0C701B80141E050E02A830C
:103170000E946A3A0F5F1F4F2A8180917305829FD8
:10318000C001112486539E4F0817190760F310924F
:1031900073050E949A180F900F90CF91DF911F91A5
:1031A0000F91FF90EF900895282FCB013091730578
:1031B000231750F46EE0269FB001112466537E4F12
:1031C0004EE050E00E94523A089520917305283253
:1031D00088F46EE0269FB001112466537E4F4EE0C6
:1031E00050E00E946A3A809173058F5F8093730567
:1031F0000E949A180895282FCB0130917305231748
:1032000050F46EE0269FB001112466537E4F4EE0CD
:1032100050E00E946A3A0895EF92FF920F931F9335
:10322000DF93CF93CDB7DEB72F970FB6F894DEBFFD
:103230000FBECDBF909173058917B8F59923A9F1F9
:1032400090E00196880F991F8C0123E0000F111F59
:103250002A95E1F7081B190B06531E4F2EE07E013D
:103260000894E11CF11C12C0C701B8014EE050E007
:103270002F870E94523AB8016E507040C7014EE04D
:1032800050E00E946A3A025F1F4F2F85309173050C
:10329000329FC001112486539E4F0817190720F34F
:1032A0003150309373050E949A182F960FB6F894F8
:1032B000DEBF0FBECDBFCF91DF911F910F91FF9069
:1032C000EF9008952F923F924F925F926F927F926C
:1032D0008F929F92AF92BF92CF92DF92EF92FF9226
:1032E0000F931F93DF93CF93CDB7DEB764970FB6DD
:1032F000F894DEBF0FBECDBF7A018B012901982E55
:1033000096949694969487708F87CB01BA010E9409
:10331000652F5C01C801B7010E945F2F2CE330E0EC
:10332000A29E6001A39ED00CB29ED00C1124C80EA8
:10333000D91EC801B70120E831E541E050E00E9404
:103340008A39288B398B4A8B5B8BBB241E010894EE
:10335000211C311C5BE0652E712C6C0E7D1E690CEE
:10336000711C47E0842E912C87C08B2DB1010E94E7
:10337000D418F301808190E00F8402C09595879561
:103380000A94E2F780FF77C0A980A7FE1AC02A81BD
:103390002230B8F030E040E050E0688979898A89CD
:1033A0009B890E948A399B01AC018A2D8F7790E01E
:1033B000A0E0B0E0281739074A075B0709F05BC0B7
:1033C00032C0C801B7010E94532F298130E090E03C
:1033D0000596B4010E94773902C0359527958A95E4
:1033E000E2F720FF48C0C801B7010E94592F282FDB
:1033F000898187FF18C08A81882319F420FD3BC08A
:1034000012C0813081F42F31B1F12D3109F055C056
:10341000C801B7012C8B0E944D2F2C898230910559
:1034200009F04BC028C08B819C81C816D90618F1C1
:103430002D813E812C153D05F0F02F813885211519
:103440003105C9F0F601E81BF90BCF01B9010E9463
:103450006339629FC001639F900D729F900D11248C
:103460008E179F0741F44114510411F0F201B0820C
:1034700029853A8508C0B39480917305B81608F47D
:1034800074CF20E030E0C90164960FB6F894DEBF37
:103490000FBECDBFCF91DF911F910F91FF90EF90A5
:1034A000DF90CF90BF90AF909F908F907F906F9064
:1034B0005F904F903F902F90089520FFDCCFB3CFC7
:1034C0009F92AF92BF92CF92DF92EF92FF920F93B3
:1034D0001F93CF93DF93EC01988019810E9478307D
:1034E000A12EBB24CC24DD24292D2F77E22EFF240E
:1034F000E10EF11C0027F7FC0095102F20E831E5C4
:1035000041E050E00E948A39CA01B901A601950143
:103510000E948A39E61AF70A080B190BC801B7018D
:10352000A60195010E948A39892D8078862B88838F
:10353000DF91CF911F910F91FF90EF90DF90CF908F
:10354000BF90AF909F900895CF92DF92EF92FF923D
:103550000F931F93CF93DF93EC01D880C9800E9413
:10356000783020E831E541E050E00E948A39790165
:103570008A018D2D8F77E80EF11C011D111D2C2D58
:1035800030E040E050E0C801B7010E948A398D2D3B
:103590008078862B8883DF91CF911F910F91FF90C8
:1035A000EF90DF90CF9008952091BD0630E080919C
:1035B000BC06281B3109C90108958091BC06909171
:1035C000BD06891750F4E82FF0E0E456F94F20814A
:1035D00030E08F5F8093BC0602C02FEF3FEFC90140
:1035E0000895E091BC068091BD06E81730F4F0E044
:1035F000E456F94F208130E002C02FEF3FEFC901C0
:1036000008950895CF92DF92EF92FF920F931F9348
:10361000CF93DF936C01CB017A012091E106222345
:10362000A9F0062F192FC0E0D0E00CC0D8016D9191
:103630008D01D601ED91FC910190F081E02DC60144
:1036400009952196CE15DF0588F303C0642F0E94EB
:10365000CA33DF91CF911F910F91FF90EF90DF90D0
:10366000CF900895DF93CF930F92CDB7DEB76983E4
:103670008091E106882389F08091E006803290F401
:103680008091DF06E82FF0E0E154F94F60838F5F0F
:103690008093DF068093E00605C0CE01019661E0CD
:1036A0000E94CA330F90CF91DF9108951092BC060B
:1036B0001092BD061092DF061092E0060E943B3386
:1036C0000895862F413208F040E26CE976E00E94CE
:1036D00054331092BC068093BD0608950E94611B6E
:1036E000089581E08093E1066093BE061092DF06A4
:1036F0001092E00608950E94711B08958091BE0605
:103700006FEB76E04091E00621E00E948A33109250
:10371000DF061092E0061092E10608958EE092E036
:103720009093E3068093E20608956AE00E94573979
:103730008295807F890F08950F931F93CF93DF9316
:103740008C01C2EED6E0CE0168E670E00E947B1BE1
:10375000CE0160E00E94321BF80180810E94951B1F
:10376000682FCE010E94321BF80181810E94951BB7
:10377000682FCE010E94321BF80182810E94951BA6
:10378000682FCE010E94321BF80183810E94951B95
:10379000682FCE010E94321BF80184810E94951B84
:1037A000682FCE010E94321BF80185810E94951B73
:1037B000682FCE010E94321BF80186818E510E9433
:1037C000951B682FCE010E94321BCE010E947E1BEA
:1037D000DF91CF911F910F9108950F931F93DF9366
:1037E000CF93CDB7DEB727970FB6F894DEBF0FBEE5
:1037F000CDBF8E010F5F1F4FA8010E94442E89810B
:1038000080688983C8010E949C1B89818F77898386
:10381000C8010E949C1B27960FB6F894DEBF0FBE0E
:10382000CDBFCF91DF911F910F910895982F929561
:103830009F70990F292F220F220F290F8F70820F4F
:1038400008950F931F93CF93DF938C01C2EED6E0C0
:10385000CE0168E670E00E947B1BCE0160E00E9412
:10386000321BCE010E947E1BCE0168E670E047E06D
:1038700050E00E946E1BCE010E94DD1A8F770E94DD
:10388000161CF8018083CE010E94DD1A0E94161CCE
:10389000F8018183CE010E94DD1A8F730E94161CED
:1038A000F8018283CE010E94DD1A0E94161CF801E5
:1038B0008383CE010E94DD1A0E94161CF8018483C6
:1038C000CE010E94DD1A0E94161CF8018583CE01EC
:1038D0000E94DD1A0E94161C825EF8018683DF9129
:1038E000CF911F910F9108950F931F93DF93CF9363
:1038F000CDB7DEB727970FB6F894DEBF0FBECDBFAA
:103900008E010F5F1F4FC8010E94211CC8010E9439
:103910006B2F27960FB6F894DEBF0FBECDBFCF91A9
:10392000DF911F910F91089582EE96E00E94561B41
:103930000895E091F106F091F2068193F093F2067A
:10394000E093F10608951F93CF93DF93182FEB01B7
:1039500004C089910E94991C11501123D1F7DF9165
:10396000CF911F9108951F93CF93DF93182F0E943B
:10397000861F882309F492C01093E406CAE5D2E0BA
:1039800086E191E0FE019C01119221503040E1F767
:1039900084E490E06EE677E043E450E00E94CD22BC
:1039A000CE01069668E677E00E94B032CE016CE167
:1039B00072E00E94B03282E880936B0281E18093D2
:1039C0007102CE014E966CE172E00E94A532AA9679
:1039D00081E080938402898386E08A838091ED066A
:1039E0009091EE06A091EF06B091F0068C839D8336
:1039F000AE83BF8380EA92E068E677E00E94B0324F
:103A000080E793E09093F2068093F10686E065EA02
:103A100071E00E94A31C1091E406812F0E94991C62
:103A20008DE30E94991C87E00E94991C81E00E940E
:103A3000991C86E068E677E00E94A31C8CE00E9457
:103A4000991C8AE00E94991C8AE064E971E00E9456
:103A5000A31C1330B1F482E30E94991C84E00E94FD
:103A6000991C84E06EE677E00E94A31C86E30E9426
:103A7000991C84E00E94991C84E06AE777E00E9428
:103A8000A31C86E06FE971E00E94A31C8091F106FF
:103A90009091F206845892400E940D23DF91CF91BD
:103AA0001F910895CF92DF92EF92FF920F931F9391
:103AB000CF93DF930E947C366093ED067093EE0601
:103AC0008093EF069093F00680916D07982F929562
:103AD0009F709F5B90939C018F708F5B80939D0183
:103AE00010926E070E94382010E01092E4060E94A7
:103AF0007C366B01C8C00E94D41FEC018091E406A3
:103B0000882309F4DDC0209709F4BDC0CE010E94CE
:103B10003B23009709F4D4C0B6C081E095C0C634F9
:103B2000D10508F4A0C080917D02833409F09BC0C8
:103B300080918402823009F096C0209188023091F1
:103B4000890240918A0250918B028091ED069091FA
:103B5000EE06A091EF06B091F006281739074A0744
:103B60005B0709F080C080917403853309F07BC046
:103B700080917603823021F0853009F074C067C0EF
:103B80008EE697E064E972E00E94A532A4E7B3E014
:103B90005AE5E52E52E0F52EEC0EFD1E11960C9125
:103BA0001197ED0122968C91863099F0873030F490
:103BB000813049F0833009F03FC008C0833361F0A1
:103BC0008633D1F534C082E797E033C086E797E0CB
:103BD00030C08EE797E02DC01092E9061092EA06F9
:103BE0001092EB061092EC06FD0132969D012A5FC1
:103BF0003F4F60E070E0CB014191640F711D811D6A
:103C0000911D982F872F762F6627E217F307A1F7CC
:103C100028EE33E040E050E00E9438396093E90636
:103C20007093EA068093EB069093EC0605C08AE752
:103C300097E0BE010E94A532DE01A00FB11DAE15B6
:103C4000BF0508F4ABCF83E00E94B31C0CC0809387
:103C5000E4060E947C366093E5067093E606809346
:103C6000E7069093E80680916E07882361F08091C3
:103C70007607882321F086E797E00E9432230E948E
:103C8000FC2081E014C080916E07882339F50E94E2
:103C90007C366C197D0987E260317807F8F40E9460
:103CA000861F882381F327CF0E94FC2080E0DF91CC
:103CB000CF911F910F91FF90EF90DF90CF900895DB
:103CC0008091E406813009F42ACF813008F425CFB1
:103CD000833009F424CF863031F61FCF1F5F1330B5
:103CE00009F003CFE1CFF89425B181E090E0A0E0A6
:103CF000B0E00090F50604C0880F991FAA1FBB1FF3
:103D00000A94D2F78095822385B9089525B181E080
:103D100090E0A0E0B0E00090F50604C0880F991F85
:103D2000AA1FBB1F0A94D2F7282B25B978940895AF
:103D30008EBD0DB407FEFDCF08951F93DF93CF9383
:103D400000D0CDB7DEB7182F4A8369830E94731E57
:103D50006981862F8F71812B0E94981E4A81842F42
:103D60000E94981E0E94861E0F900F90CF91DF91A7
:103D70001F9108950F931F93CF93DF93EC018B0155
:103D80000E94731E8AE30E94981E08C080E00E9471
:103D9000981E8EB5F80181938F0121972097B1F776
:103DA0000E94861EDF91CF911F910F9108950F936E
:103DB0001F93CF93DF93EC018B010E94731E8AE760
:103DC0000E94981E06C0F80181918F010E94981EE2
:103DD00021972097C1F70E94861EDF91CF911F91F6
:103DE0000F9108951F93182F282F30E02076307000
:103DF0006091F60670E02617370799F080EA6FE1C8
:103E000043E00E949D1E10761093F606412F50E06D
:103E100085E0559547958A95E1F780E86FE10E9426
:103E20009D1E1F9108951F93DF93CF930F92CDB7DF
:103E3000DEB7182F69830E94F21E80E4612F49814A
:103E40000E949D1E0F90CF91DF911F9108951F93A7
:103E5000DF93CF930F92CDB7DEB7182F79830E94EF
:103E6000131F812F8F5F7981672F0E94131F0F907F
:103E7000CF91DF911F9108951F93DF93CF930F92FE
:103E8000CDB7DEB7182F0E94731E812F8F710E944D
:103E9000981E80E00E94981E17FF03C080E00E94D9
:103EA000981E8EB589830E94861E89810F90CF91BE
:103EB000DF911F9108951F93182F0E94F21E812FEA
:103EC0000E943C1F1F9108958AE061E00E947F35A7
:103ED0008BE061E00E947F358DE061E00E947F35DC
:103EE0008CE060E00E947F358BE061E00E94A335AA
:103EF0008BE060E00E94A3358DE060E00E94A33576
:103F000080E58CBD8DB581608DBD089584ED61E146
:103F10000E94131F82ED61E00E94131F8AEE0E942F
:103F20005B1F80FDFBCF82ED60E00E94131F89EDD7
:103F30000E945B1F91E082FF90E0892F0895CF934C
:103F4000DF93EC010FC08CE10E945B1F81FF0AC070
:103F500080E86FE140E80E949D1E80EA6FE140E842
:103F60000E949D1E8FE10E943C1F83FDECCF82E0EA
:103F700060E07CE00E94271FBE016050744F86E025
:103F80000E94271F8AE760E040E00E949D1ECE014C
:103F90006AE572E00E94D71E80E86FE148E00E9467
:103FA0009D1EDF91CF9108950F931F93DF93CF93C1
:103FB00000D000D000D0CDB7DEB789E30E945B1FF0
:103FC000882309F447C06091F7067091F80680E0F5
:103FD0000E94271F86E090E0BE016F5F7F4F0E9426
:103FE000BA1E89819A819093F8068093F7068B8197
:103FF0009C810091F3061091F4062D8127FF0DC0DE
:104000000497015010408017910708F48C01C801F3
:104010006AE572E00E94BA1E02C000E010E0F801FA
:10402000E65AFD4F10826091F7067091F8068CE019
:104030006130780724F08CE06FEF7BE003C06150C3
:1040400070408CE00E94271F80E86EE140E40E94EF
:104050009D1E02C000E010E0C80126960FB6F8943D
:10406000DEBF0FBECDBFCF91DF911F910F9108959D
:1040700088E361EB0E94131F08950F931F93DF9352
:10408000CF930F92CDB7DEB78B019093F406809358
:10409000F3060CB406FC04C049830E94641F4981E6
:1040A00048504093F50624B181E090E0A0E0B0E0F4
:1040B00004C0880F991FAA1FBB1F4A95D2F7282B4F
:1040C00024B90E94861E8FEF60E04FEF0E949D1E74
:1040D00062E070E080E090E00E94B0368DE10E94E6
:1040E0003C1F8823D9F31092F8061092F70688E057
:1040F00060E070E00E94271F8CE060E070E00E94AA
:10410000271F8AE06FEF7BE00E94271F84E060E0BA
:104110007CE00E94271F86E06FEF71E10E94271F5D
:104120000E94382088E26FE370E30E94271F80E33B
:1041300069EF77EF0E94271F80EC6DE00E94131F4C
:1041400081EC60E00E94131F80E862EC42E30E9471
:104150009D1E86EC62E17CE00E94271F84EC62E1F8
:104160000E94131F8AEC6CED75E00E94271F84EEFD
:10417000F80160810E94131F85EEF80161810E94A1
:10418000131F82EEF80162810E94131F83EEF80173
:1041900063810E94131F80EEF80164810E94131F47
:1041A00081EEF80165810E94131F84ED60E10E9499
:1041B000131F86ED60E071E00E94271F8AEE0E94C7
:1041C0005B1F80FDFBCF8FE10E94F21E80E86BE158
:1041D00040EC0E949D1E80E86FE144E00E949D1E1D
:1041E00082E70E945B1F863008F08F5F0F90CF91AF
:1041F000DF911F910F91089588E360EB0E94131FD8
:104200000895CF92DF92EF92FF920F931F93CF9377
:10421000DF93FA0170E0665A7D4F213021F49A0154
:10422000275F3F4F05C0223031F49A0122503040C1
:1042300040E050E003C020E030E0A901DB01EF01E5
:1042400010C0DC90CC241196EC901197FF24EC2840
:10425000FD2800E010E02E0D3F1D401F511F12965B
:104260002297C230D10568F7DF01AE7FA60FB71FD6
:10427000E0FF0FC0EC90FF2400E010E0102F0F2DA6
:10428000FE2CEE2402C040E050E02E0D3F1D401FEA
:10429000511F7A0100271127E114F10401051105CE
:1042A00091F720953095E82FF0E0E65AFD4F3083E6
:1042B0002183DF91CF911F910F91FF90EF90DF90BD
:1042C000CF900895109272021092730280E480934E
:1042D0006E0210926F028093700288E16EE044E1FA
:1042E00050E020E00E940121089520917E0230914B
:1042F0007C0230937E0220937C0220917F023091D9
:104300007D0230937F0220937D02E4E8F2E0229167
:10431000820F911D24818483662311F0208301C0C4
:10432000108222E0E038F20719F0892F9927EFCFA9
:1043300010928C0210928D0280E58093880208957D
:1043400090916A0280E020916B0230E0282B392B9B
:104350008091880290E0F4E095958795FA95E1F7D1
:10436000880F991F880F991F281B390B2451304043
:1043700037FF02C020E030E0C9010895CF93DF93FA
:10438000BC01CAE5D2E0CE010E94B032CE01069651
:1043900068E677E00E94B032DF91CF9108950F93E5
:1043A0001F93CF93DF938B010E94BE21C8E7D2E019
:1043B000CE01B8010E94A532CE0104976EE677E0E7
:1043C0000E94A532DF91CF911F910F9108950F9315
:1043D0001F93CF93DF9300E612E0C8010E94BE2135
:1043E000E8016496C8014896BE010E94A532CE013C
:1043F0006EE677E00E94A5320E946221DF91CF91A4
:104400001F910F910895CF93DF93EC0188969093BD
:104410006A0280936B020E94622110928C021092B9
:104420008D02AE01445E5F4F82E36AE122E00E94AA
:104430000121CE01C6960E949F1FDF91CF91089562
:10444000262F206120938902643021F0009711F417
:1044500081E090E061E00E94752110926A0288E29A
:1044600080936B020E94E72184E080938A0210927D
:104470008B0282E36AE14CE150E022E00E940121DC
:1044800086E390E00E949F1F0895CF93DF93EC0195
:10449000809104079091050760E00E94202289E145
:1044A00080938902CE010E940322DF91CF9108956B
:1044B0001F93CF93DF939C01162F86E097E0B901FD
:1044C0000E94CF21C6E6D2E088E080936602109277
:1044D0006702CE01029669EF78E049E050E00E9461
:1044E000D0398CE480936B0281E1809371020E9449
:1044F000622110927E028BE780937F028AE0809394
:104500007C0210937D021092800288E380938102E6
:104510001092820210928302CE014E9620E3FC019B
:1045200011922A95E9F762ED79E04AE050E00E94A5
:10453000D03988E26AE140E450E021E00E940121A4
:104540008AE590E00E949F1FDF91CF911F9108950F
:10455000662321F020917F022617D9F42091800252
:104560002223B9F420918102283399F420917D020D
:104570002B3789F4FC018091AC0283838091AD02DA
:1045800082838091AE0281838091AF02808381E03B
:10459000089580E0089580E00895EF92FF920F93D0
:1045A0001F93CF93DF93182F092FEB01F42EE52EE5
:1045B00086E097E00E94CF218881807F803E31F4A1
:1045C0008AE592E062E272E00E94B03288E0809375
:1045D00066021092670288E692E069EF78E049E0AF
:1045E00050E00E94D03910926A0281E180937102FA
:1045F000E0927E02F0927F0200937C0210937D0293
:10460000109280021092820210928302DF91CF9169
:104610001F910F91FF90EF9008951F93CF93DF9319
:10462000EC014C9690936A02CE011C2F845E80931D
:104630006B020E946221CE01089690938002185F5F
:1046400010938102AE01405F5F4F88E26AE121E092
:104650000E940121CE018A960E949F1FDF91CF9177
:104660001F910895BC0181E08093F90686E797E0E9
:104670000E94A5320895DF92EF92FF920F931F934D
:10468000CF93DF938C01009709F0B5C08091F906B4
:104690008570E9F18091AB019091AC010097B9F57B
:1046A0000E94861F882399F182E292E00E94BE2137
:1046B00088E08093660216E01093670288E692E035
:1046C00061EF78E048E050E00E94D039CAE7D2E0DC
:1046D000DE011D921A95E9F7CE010A9768E677E0A8
:1046E0000E94B032CE01069666E777E00E94A532BE
:1046F000CE0104976EE677E00E94A5328091F9061C
:1047000088608093F9068AE290E00E949F1F809162
:10471000AB019091AC0101969093AC018093AB01F9
:104720008091FA06813009F024C28091F90681FF58
:1047300020C212E01093FA068091AD018F5F809342
:10474000AD018F710091FB060295000F007E082BD2
:10475000D090FC06F090FD0686E097E062E877E0F6
:104760000E94CF21E8E0EE2EE092660210926702EE
:1047700088E692E069EF78E049E050E00E94D039A5
:104780008CE280936B0286E0809371020E9462212A
:10479000D0927E02F0927F028BE080937C020093A5
:1047A0007D02E0E8F2E0DF011D92EA94E9F78091F2
:1047B000AE01809382028D5F8093AE0180E680938C
:1047C00088021093890283E080938A0210928B0200
:1047D00010928C0210928D0210928E0210928F0213
:1047E0001093900284E0809391021093920286E2EB
:1047F000809393028DC18932910508F4BAC1E0908B
:104800006602BE2DB83009F0BFC1809167028630C4
:1048100009F0BAC180E892E06EE677E044E050E04B
:104820000E94D939009709F0AFC180916F028130A1
:1048300029F580E692E00E94BE2110926E0282E08D
:1048400080936F028AE792E060E772E00E94B032E4
:1048500080E792E068E677E00E94B03280E892E07C
:1048600066E772E00E94A53286E792E06EE677E0A6
:104870000E94A5328AE290E00E949F1F8091F90673
:1048800083FF77C110916F02123009F072C186E781
:1048900092E066E777E044E050E00E94D939009763
:1048A00009F067C186E097E060E772E00E94B032ED
:1048B0001093F9065EC1EE2DE83009F05AC18091DF
:1048C0006702882309F055C180916802853409F098
:1048D00050C188E792E06EE677E044E050E00E9445
:1048E000D939009709F045C1809171028130F9F4FE
:1048F00090917C029830D9F4E091FE06F091FF0689
:10490000309719F084E792E009950E94E721109210
:104910007C0290917E02983F28F080917F028F5F09
:1049200080937F02985F90937E02C801FAC006339D
:10493000110518F4863009F01CC120917E022B303D
:1049400009F0A4C084E792E062E877E044E050E038
:104950000E94D939009709F00CC1E0908902FF2428
:10496000E2FE13C0E0910007F0910107309709F4CF
:1049700084C080917F0282958695877063E040E0D5
:1049800050E020E030E0099578C00E94A021EC01C1
:104990008091FA06823079F5C70182719070823178
:1049A0009105E9F480E090E060E00E94202288E137
:1049B00080938902E0910207F0910307309739F064
:1049C00080917D02829586958770099502C080E06E
:1049D00090E023E02093FA060E940322CAC081E0FF
:1049E0008093FA06E4FC03C0CE01019602C080E089
:1049F00090E064E0BCC0833091F5209781F1E091B4
:104A00000007F0910107309751F14091880250E082
:104A100074E0559547957A95E1F7440F551F440F7B
:104A2000551FC80108974E5D5F4F8417950708F41E
:104A3000AC01CE01840F951F0817190720F49801C7
:104A4000241B350B01C09E0180917F0282958695C3
:104A5000877060E00995882311F0CE010BC080912A
:104A6000FA06853009F485C08091890280FF09C06B
:104A7000CE01019669E00E94202285E08093FA062B
:104A800078C0209709F477C0CE0170C04091FA0138
:104A900030E08091FB0190E02817390709F069C0E8
:104AA00080917F02841709F064C0F0908902F1FEC2
:104AB0003BC010926A028CE280936B020E94E72155
:104AC00082E18093890281E090E060E00E9475219C
:104AD00010928002109281028091AE018093820236
:104AE000109283028D5F8093AE0182E080939002EA
:104AF00084E08093910285E0809392021092930269
:104B000090E69093880280938A0288E780938B02D4
:104B100082E36AE140E250E022E00E9401218AE360
:104B200090E00E949F1F25C0F4FE23C00E94A02198
:104B300090930507809304070097A1F08091880265
:104B4000C82FD0E054E0D595C7955A95E1F7CC0F22
:104B5000DD1FCC0FDD1FA296085010400C171D075B
:104B600050F407C0F0FE05C080E090E060E00E94D5
:104B70002022C0E0D0E0CE01DF91CF911F910F91B4
:104B8000FF90EF90DF9008950A32110508F093CE60
:104B9000F0CFE0912807F0912907099508950E9428
:104BA000073190E0059667E070E00E94773908953C
:104BB000EF92FF920F931F93CF93DF9387E060E014
:104BC0000E94A335C3E2D7E080911F07982F93700E
:104BD000913041F49091BE01992311F082FD02C001
:104BE000888101C080E007E010E0E82EFF2486E025
:104BF00060E00E94A335B701002E02C0759567954D
:104C00000A94E2F76170707085E00E94A33586E037
:104C100061E00E94A335015010408FEF0F3F18074D
:104C200031F7219787E0CF31D80771F687E061E04F
:104C30000E94A335DF91CF911F910F91FF90EF90CC
:104C400008952091BB01222311F130E02150304022
:104C500081E090E002C0880F991F2A95E2F7282F83
:104C60002095309120072323209320074091BA01FB
:104C700030E0E32FF0E0E05EF84F5081552321F063
:104C8000822B8093200708953F5F431790F7089584
:104C900010922007109221071092220710922307EA
:104CA0000E942126089587E061E00E947F3586E01A
:104CB00061E00E947F3585E061E00E947F3587E0FA
:104CC00061E00E94A3350E9448260E94D82583E017
:104CD00060E00E947F3583E061E00E94A33582EEB0
:104CE00096E00E94561B81E080931F078CE097E0BE
:104CF00060E142E020E00E945D2D0895E82FE695F6
:104D0000E695E6958770F0E0662361F0E05EF84F87
:104D100021E030E002C0220F331F8A95E2F7808144
:104D2000822B0CC0E05EF84F21E030E002C0220F81
:104D3000331F8A95E2F720958081822380830E9429
:104D4000212608950F931F93CF93DF930FEA11E06D
:104D5000C0E0D0E0CE010E94623AF80181938F0159
:104D60002196C331D105B1F7DF91CF911F910F91FA
:104D700008950F931F93CF93DF9302EC11E0C2E1EC
:104D8000D0E0CE01F80162918F010E94743A219720
:104D9000FFEFCF3FDF07A9F7DF91CF911F910F9171
:104DA0000895FC01E751F54F84910895FC01E45208
:104DB000F64F8491089580911F07816080931F07AB
:104DC0000E94D825089580911F078E7F80931F072A
:104DD0000E94D8250895DF92EF92FF920F931F93C0
:104DE000D82E882309F10E9478307B018C016D2D2B
:104DF00070E080E090E020E13EE040E050E00E9482
:104E00003839E60EF71E081F191FE0922407F092AA
:104E10002507009326071093270780911F078260BC
:104E200080931F070E94D8251F910F91FF90EF904C
:104E3000DF90089580911F078D7F80931F070E9448
:104E4000D825089583E00E94DD352091BF0130E030
:104E500041E08217930709F440E0440F440F80912A
:104E60001F078B7F842B80931F0708950E9448267D
:104E70000E94D82580911F07806280931F070895A4
:104E80000E9448260E94D82580911F078F7D80931D
:104E90001F070895EF92FF921F93CF93DF93182F70
:104EA000E12EE7017E01F92EE70103C088960E94FA
:104EB000743AAE01411B6991842F90E06623B1F7EB
:104EC00088960E94743ADF91CF911F91FF90EF90E6
:104ED0000895EF92FF921F93CF93DF93182FE12E47
:104EE000E7017E01F92EE701CE01811B282F30E07A
:104EF000C90188960E94623A803209F48BE2899354
:104F0000882391F7DF91CF911F91FF90EF90089543
:104F1000CF93DF93EC0106C08CE097E040E050E0D7
:104F20000E942739FE01219664916623A9F7DF913B
:104F3000CF910895EF92FF920F931F93CF93DF933A
:104F4000182F092F462F8CE097E060E00E94272D54
:104F5000C801E92EE7017E01F82EE70106C08CE0CA
:104F600097E040E050E00E9427397E01E11A8E2D43
:104F7000FE0121966491662391F7992787FD90950C
:104F8000C0E1D0E0C81BD90B08C08CE097E060E21C
:104F900040E050E00E9427392197D7FFF6CFDF91FC
:104FA000CF911F910F91FF90EF9008951F93CF9392
:104FB000DF9310E023C082EB9BE061E00E949A2720
:104FC0008CE097E060E041E00E94272DBE016F5F1A
:104FD0007F4F8CE097E04AE050E00E941D390E942C
:104FE0004826812F61E00E947E260E94D82568E82D
:104FF00073E180E090E00E94B0361F5F2091BA011B
:1050000030E02F5F3F4F83E0220F331F8A95E1F797
:10501000C12FD0E0C217D30774F210E0F9CFCF93BD
:10502000DF93EB0160E00E949A27CE0161E00E94CD
:105030009A27DF91CF910895EF92FF920F931F93DC
:10504000DF93CF93CDB7DEB728970FB6F894DEBFC6
:105050000FBECDBF7C018B0183EC9BE063EB7BE05B
:105060000E940F2864EF71E080E090E00E94B0366B
:105070001093FB010093FA018EEE92E0B70148E035
:105080000E945C32882349F18091B101882319F094
:105090000E94521D23C08091B20189838091B30187
:1050A0008A838091B4018B838091B5018C83809138
:1050B000B6018D838091B7018E838091B8018F8373
:1050C0008091B9018887CE010196BE016B5F7F4F49
:1050D00040E050E00E94843201C080E028960FB684
:1050E000F894DEBF0FBECDBFCF91DF911F910F911E
:1050F000FF90EF9008957F928F929F92AF92BF9210
:10510000CF92DF92EF92FF920F931F93DF93CF9393
:10511000CDB7DEB761970FB6F894DEBF0FBECDBF37
:10512000782E0E9478307B018C010E94652F5AE016
:10513000C52ED12CB6010E947739605D6983C80104
:10514000B7010E94652FB6010E947739805D8A837E
:105150008AE38B83C801B7010E945F2FB6010E94CA
:105160007739605D6C83C801B7010E945F2FB6017B
:105170000E947739805D8D8380E28E838F830E94C9
:10518000CF25E82FF0E0EE0FFF1FE851FE4F8081A2
:10519000918138E0C32ED12CCC0EDD1E03C0D60188
:1051A000EC936401FC010196E49146010894811C92
:1051B000911CEE23A1F780E2F6018083C801B701BC
:1051C0000E944D2F2AE0A22EB12CB5010E94773902
:1051D000605DD60111966C9364010894C11CD11CCA
:1051E000C801B7010E944D2FB5010E947739805D3B
:1051F000F401818346010894811C911C8DE2D60143
:1052000011968C9364010894C11CD11CC801B7018C
:105210000E94592FB5010E947739605DF4016183C6
:1052200046010894811C911CC801B7010E94592FA6
:10523000B5010E947739805DD60111968C93F401F7
:1052400011828CE097E060E0472D0E94272D8CE0D2
:1052500097E0BE016F5F7F4F0E94433861960FB6A3
:10526000F894DEBF0FBECDBFCF91DF911F910F919C
:10527000FF90EF90DF90CF90BF90AF909F908F9076
:105280007F900895DF92EF92FF920F931F93CF9339
:10529000DF938C017B018CE097E00E94552D8CE020
:1052A00097E060E040E00E94272DE80163E0D62E01
:1052B00069918CE097E04AE050E00E94DF388CE092
:1052C00097E06EE240E050E00E942739DA9481F7DF
:1052D0008CE097E0F80163814AE050E00E94DF38FB
:1052E0008CE097E060E041E00E94272D8CE097E0A1
:1052F00064E671E00E9443388CE097E0B7014AE031
:1053000050E00E941D39DF91CF911F910F91FF90C6
:10531000EF90DF90089508950F931F93CF93DF933D
:10532000482F162F8CE097E060E00E94272D809197
:105330001F07807C29F48CE097E06BE671E017C0D2
:105340008CE097E06FE671E00E94433860911F07A0
:1053500062956695669563708CE097E070E04AE030
:1053600050E00E941D398CE097E061E771E00E94F7
:10537000433880911F0780FD03C080E49BE00AC092
:1053800081FD06C082FF0AC08091BE01882331F0F2
:105390008FE29BE061E00E949A272EC0E0911F07F8
:1053A000E295E695E695E370F0E0E05EF84F008167
:1053B000C0E0D0E080911F07807C69F49E012F5FE0
:1053C0003F4F8091BB0190E02817390721F48CE012
:1053D00097E06DE407C000FF02C0612F01C06FE5D8
:1053E0008CE097E040E050E00E9427392196C830D9
:1053F000D10511F00695DECF89E29BE00E94882757
:10540000DF91CF911F910F910895CF93DF93EC011E
:10541000FC01EE0FFF1FEE53FE4F8081918160E093
:105420000E949A278CE097E060E041E00E94272DDF
:10543000C130D105C1F48091B001C82FD0E02C97C4
:10544000D7FD07C08CE097E06BE240E050E00E949F
:1054500027398CE097E0BE014AE050E00E941D39F8
:1054600085E29BE010C0FE01E751F54FE491C15584
:10547000DE4FE1FF0BC08881882319F081E29BE0B9
:1054800002C08EE19BE00E94882708C068818CE002
:1054900097E070E04AE050E00E941D3988E19BE00F
:1054A0000E948827DF91CF910895AF92BF92CF924B
:1054B000DF92EF92FF920F931F93DF93CF930F92A0
:1054C000CDB7DEB77C01D62EC22E80E049830E9484
:1054D00007368C014981DD2041F08D2D823011F499
:1054E000CC2019F4AA24BB240AC0E016F1066CF5FE
:1054F000CC2011F080E801C080E0482B27C0E016E6
:10550000F106D4F4ED2DE13039F0E230A9F4F0E207
:10551000AF16F3E0BF0684F480E049830E940736AB
:105520008C0161E070E080E090E00E94B036089469
:10553000A11CB11C4981E3CFCC2029F480E2A8163C
:1055400083E0B8061CF0406801C040E0842F0F9053
:10555000CF91DF911F910F91FF90EF90DF90CF904F
:10556000BF90AF900895EF92FF921F93DF93CF9378
:105570000F92CDB7DEB7182F20912A07207880E050
:1055800029830E9407367C0161E070E080E090E0B2
:105590000E94B036298183ECE81681E0F8062CF0F1
:1055A00082EC91E0612F41E012C0EDE2EE16E1E005
:1055B000FE062CF08CE291E0612F42E008C0F7E992
:1055C000EF16F1043CF086E990E0612F44E00E9480
:1055D000552A01C080E020912A0730E02F703070FA
:1055E000482F50E02115310541F44F70507041159E
:1055F000510559F0982F906409C04F7050704115B3
:10560000510519F4982F906201C0982F80932A07B2
:10561000892F0F90CF91DF911F91FF90EF90089508
:10562000CF92DF92FF920F931F93DF93CF930F924E
:10563000CDB7DEB7F82E092F0E94052A802F0F2D37
:10564000182FF3E1CF2ED12CEAEAFE2E82E00E9441
:10565000B32A482F50E09A012F7030702230310564
:10566000B1F024303105F9F021303105C1F50115D3
:105670001105C1F1F801E452F64FE491D801A155AA
:10568000BE4F8C91E81771F18F5F8C932BC0011581
:10569000110529F1F801E155FE4F90819923F9F0A8
:1056A000915090831CC086FF1AC087FF0AC080916A
:1056B000C101813011F4F092C1010E94B92621E0AC
:1056C00012C00230110521F48091B101882301F547
:1056D000C8010196B6010E9477398C0103C0882366
:1056E00009F4B4CF20E0C80129830E94052A29814A
:1056F000222309F4ABCF8CE097E00E94162D0F9087
:10570000CF91DF911F910F91FF90DF90CF9008957F
:105710000BE010E0E7CFEF92FF921F93CF93DF9360
:10572000182FE12EE7017E01F92EE70103C048960C
:105730000E94743AAE01411B6991842F90E0662368
:10574000B1F748960E94743ADF91CF911F91FF9074
:10575000EF900895CF93DF936AEF70E080E090E0E0
:105760000E94B03680E090E00E94623A813131F4CC
:1057700082E190E00E94623A8A3AE1F40E94B926FE
:1057800083E791E00E948B2B8CE791E00E944A27EF
:1057900081EA9BE062E97BE00E940F28C8ECD1E03F
:1057A000CE0160E00E94743A219684E0C030D807B0
:1057B000B9F702C00E94A22680E00E94B32A90E0BE
:1057C0008F7090708230910571F08430910571F086
:1057D0008130910599F582E89BE060E00E949A276C
:1057E0000E94D6272BC082E190E01DC082E79BE09B
:1057F00060E00E949A2760ED77E080E090E00E94F0
:10580000B03681E69BE061E57BE00E940F2860EA0C
:105810007FE080E090E00E94B0368CE097E00E944C
:10582000552D80E090E00E94102B8091C1018823CB
:1058300029F0E0912807F09129070995DF91CF9190
:105840000895EF92FF921F93CF93DF93182FE12ECD
:10585000E7017E01F92EE701CE01811B282F30E000
:10586000C90148960E94623A9991882329F09923A8
:1058700029F0891789F302C081E0911180E0DF915E
:10588000CF911F91FF90EF900895CF92EF920F93D9
:105890008CE097E065E044E026E009E0B0E1EB2E23
:1058A000A1E1CA2E0E94132E0F91EF90CF90089580
:1058B000CF93DF93EC018C8160E00E94A33581E0FF
:1058C00090E00E94D7368C8161E00E94A33581E090
:1058D00090E00E94D7368C8160E00E94A33584E678
:1058E00090E00E94D736DF91CF910895AF92BF929A
:1058F000CF92DF92EF92FF920F931F93CF93DF939C
:105900007C018C010B5F1F4FC0E0D0E0A62EBB24B2
:105910006801F80181918F0161E00E947F35B50136
:105920000C2E02C0759567950A94E2F76170F60136
:1059300080810E94A3352196C430D10549F7C70163
:105940000E94582CDF91CF911F910F91FF90EF9003
:10595000DF90CF90BF90AF900895AF92BF92CF925B
:10596000DF92EF92FF920F931F93CF93DF937C010F
:105970008C010B5F1F4FC0E0D0E0A62EBB24680156
:10598000F80181918F0161E00E947F35B5010C2EF5
:1059900002C0759567950A94E2F76170F6018081FF
:1059A0000E94A3352196C830D10549F7C7010E944E
:1059B000582CDF91CF911F910F91FF90EF90DF90C6
:1059C000CF90BF90AF9008951F93CF93DF93EC01DA
:1059D000162F8A81642F0E94A3358B818F3F19F087
:1059E00060E00E94A3358D8584FF05C0CE01612F44
:1059F0000E94AD2C0FC0212F30E084E03595279513
:105A00008A95E1F7CE01622F0E94762CCE01612F9C
:105A10000E94762CDF91CF911F91089541E00E9462
:105A2000E42C089540E00E94E42C0895FC01668572
:105A30006E7F668768600E94122D0895FC0166855E
:105A4000262F246026876C600E94122D0895DF9314
:105A5000CF93CDB7DEB728970FB6F894DEBF0FBE51
:105A6000CDBFFE013196A2E3B2E028E00D90019295
:105A70002150E1F7FC012189241710F4422F4150F5
:105A8000E42FF0E0EE0FFF1FEC0FFD1F2181260F2A
:105A90002068622F0E94122D28960FB6F894DEBF60
:105AA0000FBECDBFCF91DF91089561E00E94122D0E
:105AB00080ED97E00E94D7360895CF93DF93EC01F5
:105AC000423018F08D8588608D87498B1A8A222391
:105AD00029F0413019F48D8584608D8780E593EC41
