:100000000C946E050C9496050C9496050C9496052C
:100010000C9496050C9496050C9496050C949605F4
:100020000C9496050C9487200C9496050C949605D8
:100030000C9496050C9496050C9496050C949605D4
:100040000C9446300C9496050C94C7310C9496058C
:100050000C9496050C9496050C9496050C949605B4
:100060000C941A2E0C949605687474703A2F2F72A3
:10007000617973686F6262792E6E65742F73637233
:10008000697074732F6A6176612F737663312E36CF
:1000900000485454502F312E3020323030204F4BF6
:1000A0000D0A436F6E74656E742D547970653A2035
:1000B000746578742F68746D6C0D0A507261676D89
:1000C000613A206E6F2D63616368650D0A0D0A0049
:1000D0003C6D657461206E616D653D766965777014
:1000E0006F727420636F6E74656E743D22776964FD
:1000F00074683D363430223E0D0A00485454502F67
:10010000312E3020333031204D6F766564205065BC
:10011000726D616E656E746C790D0A4C6F636174FB
:10012000696F6E3A20687474703A2F2F7261797318
:10013000686F6262792E6E65742F72617973686F71
:100140006262792E69636F0D0A0D0A436F6E7465E2
:100150006E742D547970653A20746578742F6874C4
:100160006D6C0D0A0D0A3C68313E333031204D6F05
:10017000766564205065726D616E656E746C793C55
:100180002F68313E0A00485454502F312E3020340D
:10019000303120556E617574686F72697A65640DCF
:1001A0000A436F6E74656E742D547970653A2074CD
:1001B0006578742F68746D6C0D0A0D0A3C68313EC9
:1001C00034303120556E617574686F72697A656478
:1001D0003C2F68313E002446002446003C6D657487
:1001E0006120687474702D65717569763D22726541
:1001F00066726573682220636F6E74656E743D224B
:10020000303B2075726C3D2F766F223E0024463CB9
:100210007363726970743E616C65727428224F70EA
:1002200074696F6E732076616C7565732073617687
:1002300065642E22293C2F7363726970743E0A0034
:100240003C6D65746120687474702D657175697694
:100250003D22726566726573682220636F6E7465F5
:100260006E743D22303B2075726C3D2F766F223EBE
:100270000024463C7363726970743E616C657274ED
:100280002822436F6E6669726D6174696F6E2064B7
:100290006F6573206E6F74206D617463682122290D
:1002A0003C2F7363726970743E0A0024463C73638A
:1002B000726970743E616C65727428224E65772095
:1002C00070617373776F7264207365742E22293C9A
:1002D0002F7363726970743E0A003C6D657461200F
:1002E000687474702D65717569763D2272656672E9
:1002F0006573682220636F6E74656E743D22303BB7
:100300002075726C3D2F766F223E0024463C73634D
:10031000726970743E616C6572742822536F6D65EA
:100320002076616C75657320617265206F7574202D
:100330006F6620626F756E642E22293C2F73637284
:100340006970743E0A0024463C6D657461206874CF
:1003500074702D65717569763D227265667265737C
:10036000682220636F6E74656E743D22303B207589
:10037000726C3D2F223E005265626F6F74696E672A
:100380002C207761697420666F7220244420736585
:10039000636F6E64732E2E2E0024463C6D6574616F
:1003A00020687474702D65717569763D227265667A
:1003B000726573682220636F6E74656E743D2224CB
:1003C000443B2075726C3D2F223E003C7363726982
:1003D0007074207372633D2224462F766965776FAF
:1003E0007074696F6E732E6A73223E3C2F73637252
:1003F0006970743E0A00305D3B766172206E6F70EA
:1004000074733D24442C6C6F633D222453223B3C87
:100410002F7363726970743E0A00222446222C24D2
:10042000442C24442C24442C003C73637269707463
:100430003E766172206F7074733D5B0024462446E3
:10044000003C2F7363726970743E0A3C7363726977
:100450007074207372633D2224462F686F6D652E81
:100460006A73223E3C2F7363726970743E0A007691
:100470006172206C72756E3D5B24442C24442C24E4
:10048000442C244C5D3B0A005B302C302C305D5DED
:100490003B0A76617220656E3D24442C72643D24D3
:1004A000442C72733D24442C726473743D244C2C90
:1004B0006D61733D24442C7572733D24442C6C6F24
:1004C000633D222453223B005B24442C24442C24EF
:1004D000445D2C00305D3B7661722070733D5B00A3
:1004E00024442C00766172206E6272643D24442C98
:1004F0007365713D24442C747A3D24442C736269E5
:1005000074733D5B003C7363726970743E76617214
:10051000207665723D24442C646576743D244C3B02
:100520000A0024462446003C2F7363726970743EAF
:100530000A3C6D65746120687474702D657175690D
:10054000763D22726566726573682220636F6E74F1
:10055000656E743D22303B2075726C3D2F767022A3
:100560003E00616C657274282250726F6772616D13
:10057000202444206D6F64696669656422293B000C
:10058000616C65727428224E65772070726F677295
:10059000616D2061646465642E22293B0024463C21
:1005A0007363726970743E003C2F73637269707478
:1005B0003E0A3C736372697074207372633D222437
:1005C000462F706C6F7470726F672E6A73223E3C98
:1005D0002F7363726970743E0A00244624463C738C
:1005E00063726970743E766172207365713D244454
:1005F0002C6D61733D24442C6465766461793D24DF
:10060000442C6465766D696E3D24442C64643D24FD
:10061000442C6D6D3D24442C79793D24443B0024C9
:10062000463C6D65746120687474702D65717569E0
:10063000763D22726566726573682220636F6E7400
:10064000656E743D22303B2075726C3D2F767022B2
:100650003E003C6D65746120687474702D65717521
:1006600069763D22726566726573682220636F6EDB
:1006700074656E743D22303B2075726C3D2F767030
:10068000223E0024463C7363726970743E616C655F
:100690007274282250726F6772616D20696E646592
:1006A00078206F7574206F662072616E67652E22E8
:1006B000293C2F7363726970743E0A003C2F736388
:1006C000726970743E0A3C7363726970742073724D
:1006D000633D2224462F6D6F6470726F672E6A73BC
:1006E000223E3C2F7363726970743E0A005D3B00CA
:1006F0002C2444007661722070726F673D5B244445
:100700002C24442C24442C24442C24442C24440005
:100710003C7363726970743E766172206E626F61C1
:100720007264733D24443B766172207069643D2499
:10073000443B0024462446003C2F73637269707466
:100740003E0A3C736372697074207372633D2224A5
:10075000462F7669657770726F672E6A73223E3C0A
:100760002F7363726970743E0A00244624463C73FA
:1007700063726970743E005D3B005D2C005D002C6F
:100780002444005B24442C24442C24442C24442C56
:1007900024442C244400766172206E70726F67735B
:1007A0003D24443B766172206E626F617264733DDA
:1007B00024443B7661722070643D5B0000010800B8
:1007C00006040001450000820000400020504F5305
:1007D0005420244620485454502F312E310D0A48BD
:1007E0006F73743A2024460D0A24462453416363F0
:1007F0006570743A202A2F2A0D0A436F6E6E656366
:1008000074696F6E3A20636C6F73650D0A436F6E87
:1008100074656E742D4C656E6774683A2024440DBF
:100820000A436F6E74656E742D547970653A206159
:1008300070706C69636174696F6E2F782D7777774C
:100840002D666F726D2D75726C656E636F64656475
:100850000D0A0D0A245300474554202446245320F2
:10086000485454502F312E310D0A486F73743A207A
:1008700024460D0A4163636570743A207465787488
:100880002F68746D6C0D0A436F6E6E656374696FCB
:100890006E3A20636C6F73650D0A0D0A00E3000465
:1008A000FA000100000001001801FFFFFFFFFFFF39
:1008B000FFFF0308010101014669726D77617265EE
:1008C000207665722E0054696D65207A6F6E652002
:1008D00028474D54293A0055736520444843503AFF
:1008E000005374617469632E6970313A0053746106
:1008F0007469632E6970323A005374617469632EAF
:100900006970333A005374617469632E6970343AC4
:1009100000476174657761792E6970313A004761EB
:1009200074657761792E6970323A00476174657732
:1009300061792E6970333A00476174657761792E69
:100940006970343A004578742E20626F6172647366
:100950003A004D61737465722073746174696F6ECF
:100960003A0053657175656E7469616C3A00557330
:1009700065207261696E2073656E736F723A0055FF
:100980007365205254433A00526573657420616C5C
:100990006C3F200000010200000000000000000188
:1009A00001030302024D6F6E0054756500576564C4
:1009B0000054687500467269005361740053756E87
:1009C000002020202020004E6F00596573003A302F
:1009D00030002020202020002D5261696E204465C7
:1009E0006C61796564212D20002D2D20446973618F
:1009F000626C656421202D2D200042333A686F6CB3
:100A00006420746F20736176650042333A73656CBD
:100A10002042312F42323A636867003D3D5365748E
:100A2000204F7074696F6E733D3D0053656C662096
:100A300074657374696E672E2E2E00506C65617339
:100A40006520776169742E2E2E005265736574746B
:100A5000696E6720454550524F4D0000207468650F
:100A6000206E6574776F726B2E2E2E00436F6E6E44
:100A7000656374696E6720746F00000000002400D5
:100A800027002A0000000000250028002B0000009D
:100A900000002300260029000404040404040404C4
:100AA0000202020202020303030303030102040819
:100AB00010204080010204081020010204081020C8
:100AC000000000070002010000030406000000000F
:100AD000000000004B145017FE26EF3111241FBEFA
:100AE000CFEFD8E0DEBFCDBF12E0A0E0B1E0ECE494
:100AF000F9E602C005900D92A634B107D9F718E0C7
:100B0000A6E4B2E001C01D92AD34B107E1F71AE0EE
:100B1000CCEDDAE004C02297FE010E94C033C43D50
:100B2000D107C9F70E944F330C94A4340C940000F1
:100B3000FC01A481B5816D93B583A483089582E0FF
:100B40000E947C25282F30E086FF45C02F70307032
:100B500022303105D1F024303105F9F02130310552
:100B6000D1F587FF03C00E94C52108956091E70178
:100B70007091E80189E297E00E940D2460ED77E032
:100B800080E090E00E94CE30089587FF03C00E946D
:100B9000CD2108950E945624089587FF06C081E064
:100BA0000E947C250E94AA2008952091DA06822FB7
:100BB00082958695877090E001966091AD0170E016
:100BC0006F5F7F4F0E9489338295880F807E2F71DF
:100BD000282B2093DA060895EF92FF920F931F932C
:100BE0000E9437210E9459140E94692660917B015E
:100BF00070917C0185E791E00E94ED229091DA06E8
:100C0000882311F0977F01C098609093DA0680E006
:100C100090E060E070E040E050E021E030E001E092
:100C200010E0E2EBEE2EE7E0FE2E0E94C32B60E127
:100C30007EE080E090E00E94FB2B8BEB9FE00E9427
:100C4000E42B0E94D5210E94C52180E00E9446230A
:100C500028E288E190E00FB6F894A89580936000B0
:100C60000FBE209360001F910F91FF90EF900895A9
:100C70002F923F924F925F926F927F928F929F92AC
:100C8000AF92BF92CF92DF92EF92FF920F931F939A
:100C9000DF93CF93CDB7DEB72E970FB6F894DEBFB4
:100CA0000FBECDBF8DB79EB708970FB6F8949EBF05
:100CB0000FBE8DBFEDB7FEB7319623E2E22E25E0E1
:100CC000F22EADB7BEB71296FC92EE92119786E95E
:100CD00097E09383828380912F058483158280918E
:100CE000AD0190E00196978386830E94282CEDB792
:100CF000FEB738960FB6F894FEBF0FBEEDBFBB240B
:100D00008E010F5F1F4F9E2CAF2C93E8C92E97E0EA
:100D1000D92E8FE7682E87E0782EBBE0EB2EF12CE2
:100D2000EC0EFD1EAAE74A2EA7E05A2EFDE72F2E55
:100D3000F7E03F2E8BC08B2DB8010E94C3148A812F
:100D4000823018F0C8010E944F168DB79EB74097A9
:100D50000FB6F8949EBF0FBE8DBFEDB7FEB73196AC
:100D6000ADB7BEB711969C9211971296AC92D382F2
:100D7000C2828981848315828A81868317828B81CE
:100D80009C81918780878D819E81938782878F81C7
:100D900098859587848789859A85978786870E9415
:100DA000282CEDB7FEB770960FB6F894FEBF0FBEB5
:100DB000EDBF882420C000D000D000D0EDB7FEB732
:100DC0003196ADB7BEB711969C9211971296AC9220
:100DD00073826282D701A80DB11D8C918483158224
:100DE0000E94282C8394EDB7FEB736960FB6F89480
:100DF000FEBF0FBEEDBF8091AD018815E0F62B2D33
:100E000030E080912F0590E001972817390779F499
:100E100000D000D0ADB7BEB711969C921197129634
:100E2000AC92129714963C922E92139708C000D061
:100E300000D0EDB7FEB79182A282548243820E9415
:100E4000282C0F900F900F900F90B39480912F0546
:100E5000B81608F470CF00D000D083E295E0ADB7AB
:100E6000BEB712969C938E93119787E797E01496DE
:100E70009C938E9313970E94282C0F900F900F90A5
:100E80000F902E960FB6F894DEBF0FBECDBFCF9158
:100E9000DF911F910F91FF90EF90DF90CF90BF9067
:100EA000AF909F908F907F906F905F904F903F900A
:100EB0002F900895CF93DF938DB79EB708970FB605
:100EC000F8949EBF0FBE8DBFEDB7FEB73196C3E25B
:100ED000D5E0ADB7BEB71296DC93CE9311978AE6F4
:100EE00097E09383828381E990E09583848380ED0A
:100EF00090E0978386830E94282C8DB79EB7089632
:100F00000FB6F8949EBF0FBE8DBF0E94380600D06A
:100F100000D000D0EDB7FEB73196ADB7BEB7129690
:100F2000DC93CE93119788E397E09383828388E6DE
:100F300090E0958384830E94282C8DB79EB70696F7
:100F40000FB6F8949EBF0FBE8DBF81E0DF91CF91A9
:100F50000895BF92CF92DF92EF92FF920F931F936B
:100F6000DF93CF93CDB7DEB72E970FB6F894DEBFE1
:100F70000FBECDBF062F10E00F5F1F4F080F191FC8
:100F8000C8010E949C2DC80164E075E04EE120E09C
:100F900031E00E94502D882309F405C184E095E0DA
:100FA0000E94C4338C018FEF0F3F18070CF4FBC075
:100FB00080912F0590E0081719070CF0F4C0ADB729
:100FC000BEB718970FB6F894BEBF0FBEADBFEDB752
:100FD000FEB7319643E2E42E45E0F42E1296FC92E1
:100FE000EE92119783E397E09383828381E990E007
:100FF0009583848380ED90E0978386830E94282CDC
:10100000EDB7FEB73196ADB7BEB71296FC92EE9231
:10101000119780E197E0938382838091AD0190E006
:10102000019695838483178306830E94282CEDB74D
:10103000FEB738960FB6F894FEBF0FBEEDBFFFEFB8
:101040000F3F1F0709F48DC0802F8E010F5F1F4FC8
:10105000B8010E94C3148A81823018F0C8010E942E
:101060004F168DB79EB740970FB6F8949EBF0FBE30
:101070008DBFEDB7FEB7319603E215E0ADB7BEB751
:1010800012961C930E93119784EF96E093838283BC
:101090008981848315828A81868317828B819C81D2
:1010A000918780878D819E81938782878F819885A4
:1010B0009587848789859A85978786870E94282CBB
:1010C000EDB7FEB770960FB6F894FEBF0FBEEDBF3A
:1010D000DD24B02EC12E30EFE32E36E0F32E8E014C
:1010E000055F1F4F20C000D000D000D0EDB7FEB785
:1010F0003196ADB7BEB71196BC9211971296CC92AD
:10110000F382E282800F911FDC018C91848315822F
:101110000E94282CD394EDB7FEB736960FB6F894FC
:10112000FEBF0FBEEDBF8D2D90E02091AD0130E0F0
:1011300028173907C4F600D000D083E295E0ADB798
:10114000BEB712969C938E9311978DEE96E01496EF
:101150009C938E9313970E94282C0F900F900F90C2
:101160000F9000D000D000D0EDB7FEB7319683E2EB
:1011700095E0ADB7BEB712969C938E9311978CEB0A
:1011800096E09383828388E690E0958384830E942F
:10119000282CEDB7FEB736960FB6F894FEBF0FBEFB
:1011A000EDBF81E001C080E02E960FB6F894DEBF5F
:1011B0000FBECDBFCF91DF911F910F91FF90EF90A8
:1011C000DF90CF90BF900895CF93DF93C62FD0E0EC
:1011D0002196C80FD91FCE010E949C2DCE0164E03C
:1011E00075E04EE124E031E00E94502D882309F49F
:1011F00067C084E095E00E94DA26882309F460C085
:1012000063C084E095E00E94C4332FEF8F3F9207C4
:1012100019F40E94901432C020912F0530E08217FB
:1012200093071CF40E94FB1429C000D000D000D00A
:10123000EDB7FEB73196C3E2D5E0ADB7BEB71296B3
:10124000DC93CE93119783E896E09383828381E9C0
:1012500090E0958384830E94282C0F900F90EDB727
:10126000FEB7D283C18382E596E0948383830E9494
:10127000282C0F900F900F900F9020C000D000D01E
:1012800000D0EDB7FEB7319683E295E0ADB7BEB7BB
:1012900012969C938E9311978FE196E093838283AD
:1012A00081E990E0958384830E94282CEDB7FEB7F6
:1012B00036960FB6F894FEBF0FBEEDBF81E001C0B9
:1012C00080E0DF91CF910895CE0164E075E04EE1BA
:1012D00020E031E00E94502D882309F092CFF0CF1A
:1012E0002F923F924F925F926F927F928F929F9236
:1012F000AF92BF92CF92DF92EF92FF920F931F9324
:10130000CF93DF93C62FD0E02196C80FD91FCE010F
:101310000E949C2D0E94312B7B018C010E94FD2993
:101320004C01C801B7010E94062A5C01C801B7013F
:101330000E94122A6C01C801B7010E941E2A2C01CA
:101340000E94BB2B1C01CE0164E075E04EE127E05A
:1013500031E00E94502D8823A1F084E095E069E0FF
:1013600071E045E050E00E940834009751F084E0BD
:1013700095E00E94C4336C0101978F31910508F00C
:1013800099C0CE0164E075E04EE12FE031E00E94AB
:10139000502D882351F084E095E00E94C4335C0115
:1013A00001978C30910508F085C0CE0164E075E0AE
:1013B0004EE121E131E00E94502D882359F084E074
:1013C00095E00E94C4334C0182EB881687E09806B2
:1013D0000CF470C0ADB7BEB756970FB6F894BEBF49
:1013E0000FBEADBFCDB7DEB7219653E2652E55E0F7
:1013F000752EEDB7FEB7728261828AED95E09B8310
:101400008A8381E990E09D838C8380ED90E09F83C7
:101410008E838091AF01888719868091AE018A877B
:101420001B86C801B70120E831E541E050E00E9489
:101430009C333D872C872CE330E0429EC001439EC5
:10144000900D529E900D1124820D931D9F878E87C3
:10145000D98AC88ABB8AAA8A9D8A8C8A0E94282C2B
:101460008DB79EB746960FB6F8949EBF0FBE8DBF40
:101470000E94380600D000D000D0EDB7FEB73196FC
:10148000ADB7BEB712967C926E92119788EA95E03E
:101490009383828388E690E0958384830E94282C3E
:1014A000EDB7FEB736960FB6F894FEBF0FBEEDBF90
:1014B00081E001C080E0DF91CF911F910F91FF90FB
:1014C000EF90DF90CF90BF90AF909F908F907F90E4
:1014D0006F905F904F903F902F900895CF93DF9340
:1014E000DC0110920405C4E0D5E0ED91FC91119768
:1014F00080E090E007C02191322F30533A3058F409
:1015000029930196AF012D913C911197265F3F4F92
:10151000E217F30780F38C5F9A4FFC011082CA0137
:1015200001968D939C9384E095E00E94C433DF91F3
:10153000CF910895AF92BF92CF92DF92EF92FF9238
:101540000F931F93DF93CF93CDB7DEB761970FB69D
:10155000F894DEBF0FBECDBF062F10E00F5F1F4F08
:10156000080F191FC8010E949C2DC80164E075E096
:101570004EE124E031E00E94502D882309F403C19C
:1015800084E095E00E94DA26882309F4FCC00DC1AE
:1015900084E095E00E94C4337C018FEFE8168FEF62
:1015A000F8060CF4F0C080912F0590E0E816F906DB
:1015B0000CF0E9C01A83098374E6C72ED12CC00E43
:1015C000D11E04C00F5F1F4F1A83098309811A813E
:1015D000D8018C91882309F4D6C00C151D0508F09C
:1015E000D2C0C80163E171E043E050E00E940834DA
:1015F000009741F70D5F1F4F1A8309838E010F5F1C
:101600001F4FC8010E946E0A8B83C8010E946E0A98
:101610008C83C8010E946E0A9E838D83C8010E943C
:101620006E0A98878F83C8010E946E0A9A878987FD
:10163000C8010E946E0A9C878B8720E058016DE0EC
:10164000C62ED12CCC0EDD1E0AC0C501298B0E94EE
:101650006E0AF601E00FF11F808329892F5F022FA8
:1016600010E04091AD0150E04017510774F706C0FB
:10167000FC01E20FF11D10822F5F02C0CE010D961A
:101680002430B0F38C81823020F0CE0103960E948A
:10169000931600D000D000D0EDB7FEB7319603E22C
:1016A00015E0ADB7BEB712961C930E9311978DE956
:1016B00095E09383828381E990E0958384830E94FF
:1016C000282CEDB7FEB736960FB6F894FEBF0FBEC6
:1016D000EDBFBE016D5F7F4FFFEFEF16FFEFFF061F
:1016E000C1F4CB010E94D41400D000D0ADB7BEB776
:1016F00012961C930E93119780E895E014969C9394
:101700008E9313970E94282C0F900F900F900F909C
:1017100022C08E2D0E94EA1400D000D000D0EDB778
:10172000FEB73196ADB7BEB712961C930E931197C4
:1017300082E695E0938382830894E11CF11CF58294
:10174000E4820E94282CEDB7FEB736960FB6F894C7
:10175000FEBF0FBEEDBF00D000D083E295E0ADB775
:10176000BEB712969C938E93119787E295E01496DC
:101770009C938E9313970E94282C0F900F900F909C
:101780000F9081E001C080E061960FB6F894DEBF53
:101790000FBECDBFCF91DF911F910F91FF90EF90C2
:1017A000DF90CF90BF90AF900895C80164E075E0DE
:1017B0004EE120E031E00E94502D882309F0E8CE70
:1017C000E2CFAF92BF92DF92EF92FF920F931F93FF
:1017D000CF93DF932DB73EB7285030400FB6F89423
:1017E0003EBF0FBE2DBFEDB7FEB73196C3E2D5E0C9
:1017F000ADB7BEB71296DC93CE93119782E295E017
:101800009383828381E990E09583848380ED90E0E7
:10181000978386830E94282CEDB7FEB738960FB6C3
:10182000F894FEBF0FBEEDBF0E94312B2DB73EB71F
:101830002A5030400FB6F8943EBF0FBE2DBFEDB713
:10184000FEB73196ADB7BEB71296DC93CE93119723
:1018500025E035E03383228320E130E035832483A3
:1018600066837783808791870E94282CEDB7FEB727
:101870003196ADB7BEB71296DC93CE93119784EE36
:1018800094E0938382838091AD0190E001969583EB
:1018900084838091AF01868317828091A30190E0B9
:1018A0000C97918780870E94282CEDB7FEB73A9657
:1018B0000FB6F894FEBF0FBEEDBFFF245E01DC2E15
:1018C000EB2C00EE14E021C000D000D000D0EDB72A
:1018D000FEB73196ADB7BEB71196DC92119712964E
:1018E000EC9213830283AF2DB0E0A552B94F8C91D7
:1018F000848315820E94282CF394EDB7FEB73696A8
:101900000FB6F894FEBF0FBEEDBF8091AD01C3E2EC
:10191000D5E08F15C8F600D000D0ADB7BEB712968F
:10192000DC93CE93119784ED94E014969C938E9360
:1019300013970E94282C0F900F900F900F90FF2468
:10194000FE01EC2EDF2E08EC14E035C08DB79EB7FB
:101950000A970FB6F8949EBF0FBE8DBFEDB7FEB7C6
:101960003196ADB7BEB71196EC9211971296DC92F4
:1019700013830283D901A854BA4F8C9184831582B2
:10198000220F331FD901A858BA4F8D919C9197838C
:101990008683285C3A4FD9018D919C9191878087ED
:1019A0000E94282CF394EDB7FEB73A960FB6F89440
:1019B000FEBF0FBEEDBF2F2D30E08091AD0190E056
:1019C0000196E3E0880F991FEA95E1F7C3E2D5E0BD
:1019D000281739070CF4BACF04E015E0C8010E94BB
:1019E0003A222DB73EB7245130400FB6F8943EBF8F
:1019F0000FBE2DBFEDB7FEB73196ADB7BEB712968D
:101A0000DC93CE93119788E894E09383828380914E
:101A1000DA068170848315828091DA06869581705A
:101A2000868317828091DA068695869581708087F5
:101A300011868091DF069091E006A091E106B091B9
:101A4000E20682879387A487B5878091AE01868757
:101A500017868091B001808B118A138B028B0E94B4
:101A6000282CEDB7FEB736960FB6F894FEBF0FBE22
:101A7000EDBF3196ADB7BEB71296DC93CE931197FA
:101A80008FE694E09383828380913005848315826E
:101A900080913105868317828091320590913305BC
:101AA000918780878091340590913505A091360506
:101AB000B091370582879387A487B5870E94282C29
:101AC000EDB7FEB738960FB6F894FEBF0FBEEDBF68
:101AD0003196ADB7BEB71296DC93CE93119781E4E1
:101AE00094E09383828388E690E0958384830E94C8
:101AF000282CEDB7FEB736960FB6F894FEBF0FBE92
:101B0000EDBF81E0DF91CF911F910F91FF90EF909A
:101B1000DF90BF90AF9008952F923F925F926F92A7
:101B20007F928F929F92AF92BF92CF92DF92EF926D
:101B3000FF920F931F93CF93DF932DB73EB728509B
:101B400030400FB6F8943EBF0FBE2DBFEDB7FEB7C5
:101B5000319603E2C02E05E0D02EADB7BEB7129687
:101B6000DC92CE9211978CE394E09383828381E997
:101B700090E09583848380ED90E0978386830E9434
:101B8000282C0F900F900F900F90EDB7FEB7D282D8
:101B9000C18289E294E0948383830E94282C12EA14
:101BA000E12E11E0F12E03EB11E00F900F900F905A
:101BB0000F90C0E0D0E0BB246C2C5D2CBAE18B2EE2
:101BC000B4E09B2E1E01AC2E732CCE010E94BB21D3
:101BD00080FF37C0D801CD90DC90CE010E94BB21A0
:101BE00090E082709070F7012081C13021F430E0E4
:101BF0002C50304001C030E0ADB7BEB71C970FB6D7
:101C0000F894BEBF0FBEADBFEDB7FEB731961196CB
:101C10006C92119712965C9293828282D582C482D2
:101C20009783868331872087A28673860E94282C1B
:101C3000B394EDB7FEB73C960FB6F894FEBF0FBE57
:101C4000EDBF21960894E11CF11C0E5F1F4FC131BE
:101C5000D10509F0B7CFC4E0D5E0CE010E943A2209
:101C60002DB73EB7285030400FB6F8943EBF0FBE98
:101C70002DBFEDB7FEB7319603E215E0ADB7BEB7A5
:101C800012961C930E93119786EF93E093838283B1
:101C9000B4821582D783C6830E94282C0F900F90A0
:101CA000EDB7FEB73196ADB7BEB712961C930E9343
:101CB00011978BEC93E09383828388E690E0958381
:101CC00084830E94282CEDB7FEB736960FB6F894A1
:101CD000FEBF0FBEEDBF81E0DF91CF911F910F914D
:101CE000FF90EF90DF90CF90BF90AF909F908F903C
:101CF0007F906F905F903F902F9008950F931F9368
:101D0000CF93DF93C62FD0E02196C80FD91FCE0105
:101D100064E075E04EE124E031E00E94502D88231C
:101D200009F4A8C084E095E00E94DA26882309F42B
:101D3000A1C0A6C080910405813319F40E94C52179
:101D400004C0803311F40E94CD21CE0164E075E01F
:101D50004EE127E131E00E94502D882361F084E0BC
:101D600095E00E94C433181619061CF40E94E42161
:101D700002C00E941322CE0164E075E04EE12AE128
:101D800031E00E94502D882309F452C084E095E090
:101D90000E94C433181619060CF04AC08DB79EB7BE
:101DA00008970FB6F8949EBF0FBE8DBFEDB7FEB774
:101DB000319603E215E0ADB7BEB712961C930E93B1
:101DC000119789E993E09383828381E990E0958379
:101DD0008483CFE0D0E0D783C6830E94282C0F9065
:101DE0000F90EDB7FEB73196ADB7BEB712961C9304
:101DF0000E93119787E793E093838283D583C483FF
:101E00000E94282C8DB79EB706960FB6F8949EBFF9
:101E10000FBE8DBF80912705909128052091250543
:101E200030912605821B930B0E94031D0E94AA205D
:101E300000D000D000D0EDB7FEB7319683E295E038
:101E4000ADB7BEB712969C938E93119786E493E03C
:101E50009383828381E990E0958384830E94282C78
:101E60008DB79EB706960FB6F8949EBF0FBE8DBF76
:101E700081E001C080E0DF91CF911F910F91089523
:101E8000CE0164E075E04EE12EE131E00E94502D7C
:101E9000882309F04FCF59CF00D000D000D0EDB744
:101EA000FEB7319683E295E0ADB7BEB712969C932C
:101EB0008E93119789ED91E0938382838BEF90E06D
:101EC000958384830E94282C8DB79EB706960FB603
:101ED000F8949EBF0FBE8DBF81E00895EF92FF92F0
:101EE0000F931F93DF93CF9300D000D0CDB7DEB711
:101EF00000E010E07E010894E11CF11C0E94921A9F
:101F00000E94F91DC701609146020E94661D882348
:101F1000E1F0E980FA800B811C8180EC98EDA4E56A
:101F2000BCE7E80EF91E0A1F1B1F6091A30170E0B9
:101F300080E090E020E13EE040E050E00E94563337
:101F4000E60EF71E081F191F09C00F5F1F4F97E20B
:101F50000031190799F6EE24FF248701B701C80163
:101F60000F900F900F900F90CF91DF911F910F91D5
:101F7000FF90EF900895EF92FF920F931F93DF93DE
:101F8000CF930F92CDB7DEB720E08DE791E060915F
:101F9000460229830E94161D0E946E0F7B018C0150
:101FA0006AEF70E080E090E00E94CE302981E11479
:101FB000F1040105110519F42F5F2A3031F7B7013B
:101FC000C8010F90CF91DF911F910F91FF90EF907B
:101FD00008952F923F924F925F926F927F928F92CD
:101FE0009F92AF92BF92CF92DF92EF92FF920F93A8
:101FF0001F93DF93CF93CDB7DEB76E970FB6F894EC
:10200000DEBF0FBECDBF062F10E00F5F1F4F080FC2
:10201000191FC80164E075E04EE124E031E00E9440
:10202000502D882309F41DC184E095E00E94DA2632
:10203000882309F416C131C19C2C8D2CC6010E9445
:10204000BB2180FF40C0C6010E94BB2181FF02C0AE
:10205000D5011C92BFE6B9831A821B821C821D82A5
:10206000892D982DB1014AE050E00E941634C80134
:1020700064E075E04EE192010E94502D882319F131
:10208000892D982D0E94BB2181FF04C081E0F501BC
:10209000808319C084E095E00E94C4337C019C2DAC
:1020A000913021F4ACE0B0E0EA0EFB1EF7FC08C171
:1020B000892D982D0E94C02190E08E159F050CF46B
:1020C000FFC0F501E0820894C11CD11C0894A11C3A
:1020D000B11CF1E1CF16D10409F0AECFC80164E024
:1020E00075E04EE121E231E00E94502D882341F05D
:1020F00084E095E00E949C2D84E095E00E941B22E4
:10210000772019F100D000D000D0EDB7FEB731969E
:1021100003E215E0ADB7BEB712961C930E9311976C
:102120008BE093E09383828381E990E095838483BD
:102130000E94282C0F900F90EDB7FEB712830183F9
:102140008AED92E09483838356C00E94A321C80144
:1021500064E075E04EE125E231E00E94502D8823D5
:1021600009F450C0C8018E010F5F1F4FB8014EE146
:1021700029E231E00E94502D882309F4A4C084E0B4
:1021800095E0B8010E94F833009709F09CC084E004
:1021900095E00E944A2600D000D000D0EDB7FEB7EF
:1021A000319683E295E0ADB7BEB712969C938E93BD
:1021B00011978BEA92E09383828381E990E0958383
:1021C00084830E94282CEDB7FEB736960FB6F8949C
:1021D000FEBF0FBEEDBF00D000D083E295E0ADB7EB
:1021E000BEB712969C938E93119780E492E014965A
:1021F0009C938E9313970E94282C0F900F900F9012
:102200000F9031C000D000D000D0EDB7FEB73196AE
:1022100003E215E0ADB7BEB712961C930E9311976B
:102220008DE092E09383828381E990E095838483BB
:102230000E94282C0F900F90EDB7FEB712830183F8
:102240008CED91E0948383830E94282C0F900F9053
:102250000F900F908091A301681629F00E94BB0F88
:1022600002C080E001C081E06E960FB6F894DEBF38
:102270000FBECDBFCF91DF911F910F91FF90EF90D7
:10228000DF90CF90BF90AF909F908F907F906F9096
:102290005F904F903F902F9008956090A30192EA35
:1022A000A92E91E0B92ECC24DD24772482E0282EBB
:1022B000312C2C0E3D1E2E010894411C511CBCCE0D
:1022C0007724739400CF00D000D000D0EDB7FEB7D4
:1022D000319683E295E0ADB7BEB712969C938E938C
:1022E000119781E792E067CFCF93DF93EC012596BA
:1022F00020912D01DC0115968C911597281719F462
:102300000E94E10B79C08FE291E0BE014BE050E00A
:102310000E940834009719F40E944C0F6DC08BE3A3
:1023200091E0BE0142E050E00E940834009729F499
:10233000CE0162E00E947E0E5FC08EE391E0BE019E
:1023400042E050E00E940834009729F4CE0162E098
:102350000E945A0751C081E491E0BE0142E050E082
:102360000E940834009729F4CE0162E00E94A90778
:1023700043C084E491E0BE0142E050E00E94083492
:10238000009729F4CE0162E00E94E40835C087E49A
:1023900091E0BE0142E050E00E940834009729F429
:1023A000CE0162E00E949A0A27C08AE491E0BE0151
:1023B00042E050E00E940834009729F4CE0162E028
:1023C0000E94700919C08DE491E0BE0142E050E026
:1023D0000E940834009719F40E948C0D0DC080E50E
:1023E00091E0BE0142E050E00E940834009731F4D1
:1023F000CE0162E00E94E90F882301F500D000D0F1
:1024000000D0EDB7FEB7319683E295E0ADB7BEB729
:1024100012969C938E93119786ED91E0938382831D
:1024200086E891E0958384830E94282CEDB7FEB75F
:1024300036960FB6F894FEBF0FBEEDBFDF91CF9179
:1024400008952F923F924F925F926F927F928F9258
:102450009F92AF92BF92CF92DF92EF92FF920F9333
:102460001F93DF93CF9300D00F92CDB7DEB72090AC
:10247000AF010E94921A0E94F91D90932A05809341
:1024800029050097D1F02EE732E0309326052093FE
:1024900025053093280520932705885B9D4F0E94D2
:1024A0007411809127059091280520912505309180
:1024B0002605821B930B0E94031D8091A001909121
:1024C000A10120918301309184012817390709F473
:1024D000CCC1909384018093830165E070E00E94F9
:1024E0008933009709F0C1C10E949F050E94312BDA
:1024F0007B018C0180912B0590912C05A0912D05DD
:10250000B0912E058E159F05A007B10709F4ADC146
:10251000E0922B05F0922C0500932D0510932E05CB
:1025200080E00E9446238091E6069091E7068B307A
:10253000910514F00E94AA208091DA0681FF0FC055
:102540008091DF069091E006A091E106B091E2064D
:10255000E816F9060A071B0710F00E94132283E011
:102560000E94FB2F21E0009709F420E0220F220FA8
:102570008091DA068B7F822B8093DA06222011F07D
:1025800084FD90C0C801B7010E94182A9C01809167
:102590008101909182012817390709F483C0309393
:1025A0008201209381018824AA2433246DC09924B8
:1025B000B92CB80CCB2CDD242091AE0130E0C60143
:1025C00001962817390709F457C02601440C551CF9
:1025D00068E3662E65E0762E640C751CF30180813D
:1025E0009181009709F048C08B2DB801A7019E0189
:1025F0002F5F3F4F0E9451150097F1F1222089F083
:10260000AA2079F0F30191838083F201E858FA4F10
:1026100091838083F601E854FA4F89818F5F80832C
:102620002BC0B601660F771FFB01E85CFA4F918360
:102630008083F601EE0FFF1FEE0FFF1FE852FA4FE7
:102640009C0140E050E02E0D3F1D401F511F208394
:1026500031834283538368587A4FFB01918380838F
:10266000F601E854FA4F89818F5F80838B2D61E0FA
:102670000E946821AA24A3949394F92DF83009F0BC
:1026800097CF339428E0820E8091AD01831508F036
:102690008ECFAA2039F08091DA0680618093DA0625
:1026A0000E94B9208091DA0684FFC9C0442488249E
:1026B000B1C0E82DF0E0E552F94F8081942C6624FA
:1026C0007724E82FF0E0FB83EA83C92CDD242091F6
:1026D000AE0130E0C60101962817390709F48EC013
:1026E0008A819B81062C02C0959587950A94E2F712
:1026F00080FF84C0F601EE0FFF1FEE0FFF1FE852B0
:10270000FA4F80819181A281B3815601AA0CBB1C32
:10271000E816F9060A071B0708F469C0892D60E06E
:102720000E946821892D8F5F80933005A60148544F
:102730005A4FFA01908190933105D501A858BA4FAC
:102740002D913C9111973093330520933205E092FF
:102750003405F09235050093360510933705950141
:10276000285C3A4FF9011182108211961C921E9238
:10277000FA011082222009F441C04091AD0150E0DD
:102780004F5F5F4FB3E0440F551FBA95E1F729C083
:10279000E091AE01F0E09B012F5F3F4FE217F3079E
:1027A000F9F0FB01EE0FFF1FE85CFA4F2081318149
:1027B00021153105A9F0FB01EE0FFF1FEE0FFF1FE2
:1027C000E852FA4F40E050E02E0D3F1D401F511FD0
:1027D000208331834283538361E00E9468210EC0CD
:1027E0008F5F682F70E06417750794F207C0F501DA
:1027F000E85CFA4F8E199F09918380830894611CCD
:10280000711C9394F8E06F16710409F05ECF839405
:1028100028E0420E8091AD01881508F04ACF0E9451
:10282000B9209091AD0180E0E82FF0E0E552F94F3A
:102830002081222321F48F5F9817B0F710C0C801C0
:10284000B70123E030E040E050E00E949C33FB0100
:10285000EC50FE4F81E060810E94572406C08091B9
:10286000DA068F7E8093DA06EACF0F900F900F90F2
:10287000CF91DF911F910F91FF90EF90DF90CF905C
:10288000BF90AF909F908F907F906F905F904F9090
:102890003F902F9008958EEE91E0909324058093C1
:1028A0002305089580E590E00E94743480932F05FD
:1028B0000895CF93DF93E8E3F5E088ED95E0C8EB6A
:1028C000D5E048E755E011921192DC011D921D926E
:1028D0001D921D92CD011992DA011D921D92AD013A
:1028E000B5E0E837FB0779F70E94521410923005E3
:1028F0001092310510923305109232051092340572
:10290000109235051092360510923705DF91CF9160
:10291000089580E590E060912F050E948634089527
:10292000EF92FF920F931F93DF93CF9300D0CDB719
:10293000DEB7198202E510E02EE07E010894E11C6A
:10294000F11C0AC0C701B80141E050E02A830E948F
:102950007C340F5F1F4F2A8180912F05829FC00119
:1029600011248E5A9F4F0817190760F310922F05F4
:102970000E9489140F900F90CF91DF911F910F91BA
:10298000FF90EF900895282FCB0130912F0523174A
:1029900050F46EE0269FB00111246E5A7F4F4EE036
:1029A00050E00E946434089520912F05203488F46B
:1029B0006EE0269FB00111246E5A7F4F4EE050E02A
:1029C0000E947C3480912F058F5F80932F050E9499
:1029D00089140895282FCB0130912F05231750F427
:1029E0006EE0269FB00111246E5A7F4F4EE050E0FA
:1029F0000E947C340895EF92FF920F931F93DF9310
:102A0000CF93CDB7DEB72F970FB6F894DEBF0FBECA
:102A1000CDBF90912F058917B8F59923A9F190E0C2
:102A20000196880F991F8C0123E0000F111F2A9532
:102A3000E1F7081B190B0E5A1F4F2EE07E01089478
:102A4000E11CF11C12C0C701B8014EE050E02F8715
:102A50000E946434B8016E507040C7014EE050E0EF
:102A60000E947C34025F1F4F2F8530912F05329FCB
:102A7000C00111248E5A9F4F0817190720F33150B7
:102A800030932F050E9489142F960FB6F894DEBF5D
:102A90000FBECDBFCF91DF911F910F91FF90EF90AF
:102AA00008952F923F924F925F926F927F928F92F2
:102AB0009F92AF92BF92CF92DF92EF92FF920F93CD
:102AC0001F93DF93CF93CDB7DEB764970FB6F8941B
:102AD000DEBF0FBECDBF7A018B012901982E9694DF
:102AE0009694969487708F87CB01BA010E941E2A14
:102AF0005C01C801B7010E94182A2CE330E0A29EB5
:102B00006001A39ED00CB29ED00C1124C80ED91E19
:102B1000C801B70120E831E541E050E00E949C3354
:102B2000288B398B4A8B5B8BBB241E010894211C9C
:102B3000311C5BE0652E712C6C0E7D1E690C711CC6
:102B400047E0842E912C87C08B2DB1010E94C314C5
:102B5000F301808190E00F8402C0959587950A94D7
:102B6000E2F780FF77C0A980A7FE1AC02A81223031
:102B7000B8F030E040E050E0688979898A899B8923
:102B80000E949C339B01AC018A2D8F7790E0A0E0DE
:102B9000B0E0281739074A075B0709F05BC032C06D
:102BA000C801B7010E940C2A298130E090E0059607
:102BB000B4010E94893302C0359527958A95E2F7C2
:102BC00020FF48C0C801B7010E94122A282F89811E
:102BD00087FF18C08A81882319F420FD3BC012C0EA
:102BE000813081F42F31B1F12D3109F055C0C80188
:102BF000B7012C8B0E94062A2C898230910509F09E
:102C00004BC028C08B819C81C816D90618F12D8134
:102C10003E812C153D05F0F02F81388521153105B9
:102C2000C9F0F601E81BF90BCF01B9010E94753319
:102C3000629FC001639F900D729F900D11248E17AB
:102C40009F0741F44114510411F0F201B08229852B
:102C50003A8508C0B39480912F05B81608F474CF54
:102C600020E030E0C90164960FB6F894DEBF0FBED5
:102C7000CDBFCF91DF911F910F91FF90EF90DF902B
:102C8000CF90BF90AF909F908F907F906F905F900C
:102C90004F903F902F90089520FFDCCFB3CF9F92AD
:102CA000AF92BF92CF92DF92EF92FF920F931F935A
:102CB000CF93DF93EC01988019810E94312BA12ED4
:102CC000BB24CC24DD24292D2F77E22EFF24E10E16
:102CD000F11C0027F7FC0095102F20E831E541E0BA
:102CE00050E00E949C33CA01B901A60195010E94DF
:102CF0009C33E61AF70A080B190BC801B701A601A5
:102D000095010E949C33892D8078862B8883DF91E2
:102D1000CF911F910F91FF90EF90DF90CF90BF90D8
:102D2000AF909F900895CF92DF92EF92FF920F9312
:102D30001F93CF93DF93EC01D880C9800E94312B81
:102D400020E831E541E050E00E949C3379018A019E
:102D50008D2D8F77E80EF11C011D111D2C2D30E0FB
:102D600040E050E0C801B7010E949C338D2D80786F
:102D7000862B8883DF91CF911F910F91FF90EF9069
:102D8000DF90CF9008952091790630E08091780609
:102D9000281B3109C9010895809178069091790620
:102DA000891750F4E82FF0E0E85AF94F208130E01D
:102DB0008F5F8093780602C02FEF3FEFC90108951F
:102DC000E091780680917906E81730F4F0E0E85A4F
:102DD000F94F208130E002C02FEF3FEFC901089585
:102DE0000895CF92DF92EF92FF920F931F93CF93AC
:102DF000DF936C01CB017A0120919C062223A9F07C
:102E0000062F192FC0E0D0E00CC0D8016D918D01C4
:102E1000D601ED91FC910190F081E02DC60109955C
:102E20002196CE15DF0588F303C0642F0E94E82D9C
:102E3000DF91CF911F910F91FF90EF90DF90CF9096
:102E40000895DF93CF930F92CDB7DEB7698380915A
:102E50009C06882389F080919B06803290F48091B3
:102E60009A06E82FF0E0E658F94F60838F5F809371
:102E70009A0680939B0605C0CE01019661E00E94F0
:102E8000E82D0F90CF91DF9108951092780610925F
:102E9000790610929A0610929B060E94CF2D0895F3
:102EA0008BEF91E090939E0680939D060895E091AC
:102EB000AC06F091AD068193F093AD06E093AC06BD
:102EC00008951F93CF93DF93182FEB0104C08991CE
:102ED0000E94571711501123D1F7DF91CF911F9105
:102EE00008951F93CF93DF93182F0E94441A8823CD
:102EF00009F492C010939F06C8E4D2E086E191E005
:102F0000FE019C01119221503040E1F784E490E0F1
:102F100069E277E043E450E00E948B1DCE01069603
:102F200063E277E00E94442DCE0169E072E00E94E6
:102F3000442D82E88093590281E180935F02CE01A3
:102F40004E9669E072E00E94392DAA9681E0809346
:102F50007202898386E08A838091A8069091A906EF
:102F6000A091AA06B091AB068C839D83AE83BF83EC
:102F70008EE892E063E277E00E94442D8EE593E0D4
:102F80009093AD068093AC0686E066E971E00E94FE
:102F9000611710919F06812F0E9457178DE30E94A1
:102FA000571787E00E94571781E00E94571786E065
:102FB00063E277E00E9461178CE00E9457178AE075
:102FC0000E9457178AE065E871E00E94611713308C
:102FD000B1F482E30E94571784E00E94571784E0FF
:102FE00069E277E00E94611786E30E94571784E048
:102FF0000E94571784E065E377E00E94611786E03E
:1030000060E971E00E9461178091AC069091AD0675
:10301000825792400E94CB1DDF91CF911F9108955E
:10302000CF92DF92EF92FF920F931F93CF93DF9394
:103030000E949A306093A8067093A9068093AA060E
:103040009093AB0680912807982F92959F709F5B75
:1030500090938D018F708F5B80938E011092290762
:103060000E94F61A10E010929F060E949A306B019F
:10307000C8C00E94921AEC0180919F06882309F42F
:10308000DDC0209709F4BDC0CE010E94F91D009754
:1030900009F4D4C0B6C081E095C0C634D10508F4A7
:1030A000A0C080916B02833409F09BC080917202B2
:1030B000823009F096C020917602309177024091DB
:1030C0007802509179028091A8069091A906A0916A
:1030D000AA06B091AB06281739074A075B0709F023
:1030E00080C080916203853309F07BC080916403C6
:1030F000823021F0853009F074C067C089E297E022
:1031000062E872E00E94392DA2E6B3E058E4E52EB1
:1031100052E0F52EEC0EFD1E11960C911197ED016B
:1031200022968C91863099F0873030F4813049F0C6
:10313000833009F03FC008C0833361F08633D1F596
:1031400034C08DE297E033C081E397E030C089E37B
:1031500097E02DC01092A4061092A5061092A60624
:103160001092A706FD0132969D012A5F3F4F60E055
:1031700070E0CB014191640F711D811D911D982F4D
:10318000872F762F6627E217F307A1F728EE33E0A3
:1031900040E050E00E9456336093A4067093A50669
:1031A0008093A6069093A70605C085E397E0BE012D
:1031B0000E94392DDE01A00FB11DAE15BF0508F428
:1031C000ABCF83E00E9471170CC080939F060E94D2
:1031D0009A306093A0067093A1068093A206909304
:1031E000A30680912907882361F080913107882305
:1031F00021F081E397E00E94F01D0E94BA1B81E05C
:1032000014C080912907882339F50E949A306C19DF
:103210007D0987E260317807F8F40E94441A882318
:1032200081F327CF0E94BA1B80E0DF91CF911F91DD
:103230000F91FF90EF90DF90CF90089580919F06BF
:10324000813009F42ACF813008F425CF833009F486
:1032500024CF863031F61FCF1F5F133009F003CF24
:10326000E1CFF89425B181E090E0A0E0B0E00090DB
:10327000B00604C0880F991FAA1FBB1F0A94D2F77B
:103280008095822385B9089525B181E090E0A0E082
:10329000B0E00090B00604C0880F991FAA1FBB1FA2
:1032A0000A94D2F7282B25B9789408958EBD0DB4D1
:1032B00007FEFDCF08951F93DF93CF9300D0CDB7C6
:1032C000DEB7182F4A8369830E9431196981862FDE
:1032D0008F71812B0E9456194A81842F0E945619A2
:1032E0000E9444190F900F90CF91DF911F91089584
:1032F0000F931F93CF93DF93EC018B010E94311941
:103300008AE30E94561908C080E00E9456198EB5C3
:10331000F80181938F0121972097B1F70E944419FA
:10332000DF91CF911F910F9108950F931F93CF932A
:10333000DF93EC018B010E9431198AE70E94561934
:1033400006C0F80181918F010E945619219720979C
:10335000C1F70E944419DF91CF911F910F910895F9
:103360001F93182F282F30E0207630706091B1061F
:1033700070E02617370799F080EA6FE143E00E947A
:103380005B1910761093B106412F50E085E05595FA
:1033900047958A95E1F780E86FE10E945B191F91DC
:1033A00008951F93DF93CF930F92CDB7DEB7182FF9
:1033B00069830E94B01980E4612F49810E945B19E2
:1033C0000F90CF91DF911F9108951F93DF93CF93BB
:1033D0000F92CDB7DEB7182F79830E94D119812FB4
:1033E0008F5F7981672F0E94D1190F90CF91DF9164
:1033F0001F9108951F93DF93CF930F92CDB7DEB740
:10340000182F0E943119812F8F710E94561980E068
:103410000E94561917FF03C080E00E9456198EB50E
:1034200089830E94441989810F90CF91DF911F9168
:1034300008951F93182F0E94B019812F0E94FA1926
:103440001F9108958AE061E00E949D2F8BE061E06A
:103450000E949D2F8DE061E00E949D2F8CE060E036
:103460000E949D2F8BE061E00E94C12F8BE060E005
:103470000E94C12F8DE060E00E94C12F80E58CBDCD
:103480008DB581608DBD089584ED61E10E94D119F3
:1034900082ED61E00E94D1198AEE0E94191A80FD26
:1034A000FBCF82ED60E00E94D11989ED0E94191ACC
:1034B00091E082FF90E0892F0895CF93DF93EC0194
:1034C0000FC08CE10E94191A81FF0AC080E86FE1E9
:1034D00040E80E945B1980EA6FE140E80E945B19B6
:1034E0008FE10E94FA1983FDECCF82E060E07CE07E
:1034F0000E94E519BE016050744F86E00E94E519F4
:103500008AE760E040E00E945B19CE0168E472E067
:103510000E94951980E86FE148E00E945B19DF91F5
:10352000CF9108950F931F93DF93CF9300D000D0D6
:1035300000D0CDB7DEB789E30E94191A882309F4B9
:1035400047C06091B2067091B30680E00E94E51911
:1035500086E090E0BE016F5F7F4F0E9478198981FD
:103560009A819093B3068093B2068B819C810091DF
:10357000AE061091AF062D8127FF0DC004970150B4
:1035800010408017910708F48C01C80168E472E0CC
:103590000E94781902C000E010E0F801E85BFD4FDE
:1035A00010826091B2067091B3068CE061307807AA
:1035B00024F08CE06FEF7BE003C0615070408CE042
:1035C0000E94E51980E86EE140E40E945B1902C0A8
:1035D00000E010E0C80126960FB6F894DEBF0FBEDB
:1035E000CDBFCF91DF911F910F91089588E361EBDB
:1035F0000E94D11908950F931F93DF93CF930F92D9
:10360000CDB7DEB78B019093AF068093AE060CB4B6
:1036100006FC04C049830E94221A49814850409305
:10362000B00624B181E090E0A0E0B0E004C0880FD3
:10363000991FAA1FBB1F4A95D2F7282B24B90E94B5
:1036400044198FEF60E04FEF0E945B1962E070E079
:1036500080E090E00E94CE308DE10E94FA1988232C
:10366000D9F31092B3061092B20688E060E070E0E1
:103670000E94E5198CE060E070E00E94E5198AE0A4
:103680006FEF7BE00E94E51984E060E07CE00E943F
:10369000E51986E06FEF71E10E94E5190E94F61AC4
:1036A00088E26FE370E30E94E51980E369EF77EF4A
:1036B0000E94E51980EC6DE00E94D11981EC60E078
:1036C0000E94D11980E862EC42E30E945B1986EC0B
:1036D00062E17CE00E94E51984EC62E10E94D1196C
:1036E0008AEC6CED75E00E94E51984EEF8016081CA
:1036F0000E94D11985EEF80161810E94D11982EEF4
:10370000F80162810E94D11983EEF80163810E9461
:10371000D11980EEF80164810E94D11981EEF8017F
:1037200065810E94D11984ED60E10E94D11986ED76
:1037300060E071E00E94E5198AEE0E94191A80FD8E
:10374000FBCF8FE10E94B01980E86BE140EC0E9452
:103750005B1980E86FE144E00E945B1982E70E94F8
:10376000191A863008F08F5F0F90CF91DF911F916B
:103770000F91089588E360EB0E94D1190895CF92CC
:10378000DF92EF92FF920F931F93CF93DF93FA0193
:1037900070E0685B7D4F213021F49A01275F3F4F35
:1037A00005C0223031F49A012250304040E050E010
:1037B00003C020E030E0A901DB01EF0110C0DC9084
:1037C000CC241196EC901197FF24EC28FD2800E002
:1037D00010E02E0D3F1D401F511F12962297C23040
:1037E000D10568F7DF01AE7FA60FB71FE0FF0FC05E
:1037F000EC90FF2400E010E0102F0F2DFE2CEE24A3
:1038000002C040E050E02E0D3F1D401F511F7A01C5
:1038100000271127E114F1040105110591F7209506
:103820003095E82FF0E0E85BFD4F30832183DF9196
:10383000CF911F910F91FF90EF90DF90CF9008955F
:10384000109260021092610280E480935C021092F8
:103850005D0280935E0288E16EE044E150E020E08A
:103860000E94BF1B089520916C0230916A02309330
:103870006C0220936A0220916D0230916B023093AA
:103880006D0220936B02E2E7F2E02291820F911D1C
:1038900024818483662311F0208301C0108222E0FA
:1038A000EE36F20719F0892F9927EFCF10927A029E
:1038B00010927B0280E580937602089590915802E1
:1038C00080E02091590230E0282B392B809176023C
:1038D00090E0F4E095958795FA95E1F7880F991FA8
:1038E000880F991F281B390B2451304037FF02C025
:1038F00020E030E0C9010895CF93DF93BC01C8E414
:10390000D2E0CE010E94442DCE01069663E277E01C
:103910000E94442DDF91CF9108950F931F93CF9371
:10392000DF938B010E947C1CC6E6D2E0CE01B80179
:103930000E94392DCE01049769E277E00E94392D6B
:10394000DF91CF911F910F9108950F931F93CF9304
:10395000DF930EE412E0C8010E947C1CE80164962B
:10396000C8014896BE010E94392DCE0169E277E078
:103970000E94392D0E94201CDF91CF911F910F9141
:103980000895CF93DF93EC0188969093580280932B
:1039900059020E94201C10927A0210927B02AE0102
:1039A000445E5F4F82E36AE122E00E94BF1BCE01CA
:1039B000C6960E945D1ADF91CF910895262F20614F
:1039C00020937702643021F0009711F481E090E0B9
:1039D00061E00E94331C1092580288E280935902E1
:1039E0000E94A51C84E0809378021092790282E301
:1039F0006AE14CE150E022E00E94BF1B86E390E0C8
:103A00000E945D1A0895CF93DF93EC018091BF0669
:103A10009091C00660E00E94DE1C89E180937702ED
:103A2000CE010E94C11CDF91CF9108951F93CF93C7
:103A3000DF939C01162F81EC96E0B9010E948D1C4A
:103A4000C4E5D2E088E08093540210925502CE0182
:103A5000029664EC77E049E050E00E94E2338CE4A7
:103A60008093590281E180935F020E94201C109292
:103A70006C028BE780936D028AE080936A02109358
:103A80006B0210926E0288E380936F0210927002B4
:103A900010927102CE014E9620E3FC0111922A95FC
:103AA000E9F76DE978E04AE050E00E94E23388E20D
:103AB0006AE140E450E021E00E94BF1B8AE590E00B
:103AC0000E945D1ADF91CF911F910895662321F026
:103AD00020916D022617D9F420916E022223B9F4A9
:103AE00020916F02283399F420916B022B3789F4CF
:103AF000FC0180919A02838380919B028283809152
:103B00009C02818380919D02808381E0089580E002
:103B1000089580E00895EF92FF920F931F93CF9343
:103B2000DF93182F092FEB01F42EE52E81EC96E0A0
:103B30000E948D1C8881807F803E31F488E492E071
:103B40006FE072E00E94442D88E08093540210924E
:103B5000550286E592E064EC77E049E050E00E948F
:103B6000E2331092580281E180935F02E0926C028E
:103B7000F0926D0200936A0210936B0210926E0233
:103B80001092700210927102DF91CF911F910F91EC
:103B9000FF90EF9008951F93CF93DF93EC014C9625
:103BA00090935802CE011C2F845E809359020E948C
:103BB000201CCE01089690936E02185F10936F023E
:103BC000AE01405F5F4F88E26AE121E00E94BF1BC7
:103BD000CE018A960E945D1ADF91CF911F910895C0
:103BE000BC0181E08093B40681E397E00E94392D07
:103BF0000895DF92EF92FF920F931F93CF93DF937D
:103C00008C01009709F0B5C08091B4068570E9F188
:103C100080919C0190919D010097B9F50E94441AF2
:103C2000882399F18FE092E00E947C1C88E08093C9
:103C3000540216E01093550286E592E06CEB77E0B3
:103C400048E050E00E94E233C8E6D2E0DE011D9277
:103C50001A95E9F7CE010A9763E277E00E94442DB6
:103C6000CE01069661E377E00E94392DCE010497DC
:103C700069E277E00E94392D8091B40688608093D4
:103C8000B4068AE290E00E945D1A80919C019091B6
:103C90009D01019690939D0180939C018091B506B2
:103CA000813009F024C28091B40681FF20C212E065
:103CB0001093B50680919E018F5F80939E018F7156
:103CC0000091B6060295000F007E082BD090B70633
:103CD000F090B80681EC96E06DE377E00E948D1CD1
:103CE000E8E0EE2EE09254021092550286E592E052
:103CF00064EC77E049E050E00E94E2338CE280938C
:103D0000590286E080935F020E94201CD0926C02D0
:103D1000F0926D028BE080936A0200936B02EEE6F4
:103D2000F2E0DF011D92EA94E9F780919F01809310
:103D300070028D5F80939F0180E6809376021093DE
:103D4000770283E0809378021092790210927A02CF
:103D500010927B0210927C0210927D0210937E02E0
:103D600084E080937F021093800286E28093810238
:103D70008DC18932910508F4BAC1E0905402BE2D7C
:103D8000B83009F0BFC180915502863009F0BAC140
:103D90008EE692E069E277E044E050E00E94EB3387
:103DA000009709F0AFC180915D02813029F58EE462
:103DB00092E00E947C1C10925C0282E080935D0283
:103DC00088E692E06EE572E00E94442D8EE592E076
:103DD00063E277E00E94442D8EE692E064E672E0B2
:103DE0000E94392D84E692E069E277E00E94392D45
:103DF0008AE290E00E945D1A8091B40683FF77C149
:103E000010915D02123009F072C184E692E061E324
:103E100077E044E050E00E94EB33009709F067C17F
:103E200081EC96E06EE572E00E94442D1093B4069A
:103E30005EC1EE2DE83009F05AC180915502882309
:103E400009F055C180915602853409F050C186E6CB
:103E500092E069E277E044E050E00E94EB330097A3
:103E600009F045C180915F028130F9F490916A02B6
:103E70009830D9F4E091B906F091BA06309719F06C
:103E800082E692E009950E94A51C10926A02909128
:103E90006C02983F28F080916D028F5F80936D02D5
:103EA000985F90936C02C801FAC00633110518F4AC
:103EB000863009F01CC120916C022B3009F0A4C09F
:103EC00082E692E06DE377E044E050E00E94EB335D
:103ED000009709F00CC1E0907702FF24E2FE13C0C6
:103EE000E091BB06F091BC06309709F484C0809144
:103EF0006D0282958695877063E040E050E020E097
:103F000030E0099578C00E945E1CEC018091B506F6
:103F1000823079F5C7018271907082319105E9F4A0
:103F200080E090E060E00E94DE1C88E180937702F0
:103F3000E091BD06F091BE06309739F080916B029A
:103F4000829586958770099502C080E090E023E015
:103F50002093B5060E94C11CCAC081E08093B506BB
:103F6000E4FC03C0CE01019602C080E090E064E072
:103F7000BCC0833091F5209781F1E091BB06F091B0
:103F8000BC06309751F14091760250E074E05595AF
:103F900047957A95E1F7440F551F440F551FC80107
:103FA00008974E5D5F4F8417950708F4AC01CE016A
:103FB000840F951F0817190720F49801241B350B4F
:103FC00001C09E0180916D0282958695877060E0A8
:103FD0000995882311F0CE010BC08091B50685307C
:103FE00009F485C08091770280FF09C0CE01019657
:103FF00069E00E94DE1C85E08093B50678C02097BA
:1040000009F477C0CE0170C04091E70130E08091A3
:10401000E80190E02817390709F069C080916D0226
:10402000841709F064C0F0907702F1FE3BC0109253
:1040300058028CE2809359020E94A51C82E1809371
:10404000770281E090E060E00E94331C10926E02E3
:1040500010926F0280919F01809370021092710202
:104060008D5F80939F0182E080937E0284E0809345
:104070007F0285E0809380021092810290E6909307
:1040800076028093780288E78093790282E36AE17E
:1040900040E250E022E00E94BF1B8AE390E00E94D1
:1040A0005D1A25C0F4FE23C00E945E1C9093C006DA
:1040B0008093BF060097A1F080917602C82FD0E0D0
:1040C00054E0D595C7955A95E1F7CC0FDD1FCC0F7D
:1040D000DD1FA296085010400C171D0750F407C0B2
:1040E000F0FE05C080E090E060E00E94DE1CC0E0D1
:1040F000D0E0CE01DF91CF911F910F91FF90EF9013
:10410000DF9008950A32110508F093CEF0CF1F9288
:104110000F920FB60F9211248F939F9386E0809396
:10412000B2008091A0019091A10101979093A1010B
:104130008093A001009739F48DE790E09093A1015E
:104140008093A001A8959F918F910F900FBE0F9023
:104150001F901895E091E306F091E4060995089503
:104160000E94B32B90E0059667E070E00E948933CF
:104170000895EF92FF920F931F93CF93DF9387E001
:1041800060E00E94C12FCEEDD6E08091DA06982F34
:104190009370913041F49091B001992311F082FD18
:1041A00002C0888101C080E007E010E0E82EFF2413
:1041B00086E060E00E94C12FB701002E02C0759515
:1041C00067950A94E2F76170707085E00E94C12FD4
:1041D00086E061E00E94C12F015010408FEF0F3F39
:1041E000180731F7219786E0CA3DD80771F687E0B6
:1041F00061E00E94C12FDF91CF911F910F91FF903D
:10420000EF9008952091AE01222311F130E021506A
:10421000304081E090E002C0880F991F2A95E2F7B4
:10422000282F20953091DB0623232093DB06409135
:10423000AD0130E0E32FF0E0E552F94F5081552316
:1042400021F0822B8093DB0608953F5F431790F7A0
:1042500008959091AD0180E0E82FF0E0E552F94F2C
:1042600010828F5F9817C0F70E940221089587E09F
:1042700061E00E949D2F86E061E00E949D2F85E015
:1042800061E00E949D2F87E061E00E94C12F0E94A3
:1042900029210E94B92083E060E00E949D2F83E0E5
:1042A00061E00E94C12F8DE996E00E9445171092AF
:1042B000DA0687EC96E060E142E020E00E941628F2
:1042C0001092B000E1EBF0E0808186608083089579
:1042D000E82FE695E695E6958770F0E0662361F0B5
:1042E000E552F94F21E030E002C0220F331F8A95DA
:1042F000E2F78081822B0CC0E552F94F21E030E0DB
:1043000002C0220F331F8A95E2F720958081822315
:1043100080830E94022108950F931F93CF93DF9310
:1043200002EA11E0C0E0D0E0CE010E947434F8014E
:1043300081938F012196C131D105B1F7DF91CF91E2
:104340001F910F9108950F931F93CF93DF9303EB6A
:1043500011E0C0E1D0E0CE01F80162918F010E942E
:1043600086342197FFEFCF3FDF07A9F7DF91CF9189
:104370001F910F910895FC01EC56F64F849108951A
:10438000FC01E955F74F849108958091DA06816028
:104390008093DA060E94B92008958091DA068E7F14
:1043A0008093DA060E94B92008958DE790E09093FB
:1043B000A1018093A00186E08093B200E0E7F0E0E5
:1043C0008081816080830895DF92EF92FF920F9346
:1043D0001F93D82E882309F10E94312B7B018C0179
:1043E0006D2D70E080E090E020E13EE040E050E0A4
:1043F0000E945633E60EF71E081F191FE092DF06D3
:10440000F092E0060093E1061093E2068091DA064E
:1044100082608093DA060E94B9201F910F91FF906D
:10442000EF90DF9008958091DA068D7F8093DA0611
:104430000E94B9200895EF92FF921F93CF93DF93CC
:10444000182FE12EE7017E01F92EE70103C0C09687
:104450000E948634AE01411B6991842F90E066234F
:10446000B1F7C0960E948634DF91CF911F91FF90E3
:10447000EF900895EF92FF921F93CF93DF93182F41
:10448000E12EE7017E01F92EE701CE01811B282FE5
:1044900030E0C901C0960E947434803209F48BE286
:1044A0008993882391F7DF91CF911F91FF90EF902F
:1044B0000895CF93DF93EC0106C087EC96E040E0CF
:1044C00050E00E944533FE01219664916623A9F7CE
:1044D000DF91CF910895EF92FF920F931F93CF93A7
:1044E000DF93182F092F462F87EC96E060E00E949B
:1044F000E027C801E92EE7017E01F82EE70106C09A
:1045000087EC96E040E050E00E9445337E01E11ADE
:104510008E2DFE0121966491662391F7992787FDE0
:104520009095C0E1D0E0C81BD90B08C087EC96E09D
:1045300060E240E050E00E9445332197D7FFF6CF7C
:10454000DF91CF911F910F91FF90EF9008951F93EE
:10455000CF93DF9310E023C08BE59AE061E00E94E7
:104560006B2287EC96E060E041E00E94E027BE010C
:104570006F5F7F4F87EC96E04AE050E00E943B334C
:104580000E942921812F61E00E9468210E94B920A8
:1045900068E873E180E090E00E94CE301F5F2091D8
:1045A000AD0130E02F5F3F4F83E0220F331F8A952C
:1045B000E1F7C12FD0E0C217D30774F210E0F9CFB2
:1045C000CF93DF93EB0160E00E946B22CE0161E0AC
:1045D0000E946B22DF91CF910895EF92FF920F938B
:1045E0001F93DF93CF93CDB7DEB728970FB6F8941C
:1045F000DEBF0FBECDBF7C018B018CE69AE06CE57F
:104600007AE00E94E0221093E8010093E7018CEB2E
:1046100092E0B70148E00E94F02C882349F1809194
:10462000A401882319F00E94101823C08091A501CD
:1046300089838091A6018A838091A7018B838091D1
:10464000A8018C838091A9018D838091AA018E831A
:104650008091AB018F838091AC018887CE01019658
:10466000BE016B5F7F4F40E050E00E94182D01C0FB
:1046700080E028960FB6F894DEBF0FBECDBFCF9175
:10468000DF911F910F91FF90EF9008957F928F928D
:104690009F92AF92BF92CF92DF92EF92FF920F93D1
:1046A0001F93DF93CF93CDB7DEB761970FB6F89422
:1046B000DEBF0FBECDBF782E0E94312B7B018C0157
:1046C0000E941E2A5AE0C52ED12CB6010E948933C1
:1046D000605D6983C801B7010E941E2AB6010E946D
:1046E0008933805D8A838AE38B83C801B7010E9486
:1046F000182AB6010E948933605D6C83C801B70136
:104700000E94182AB6010E948933805D8D8380E261
:104710008E838F830E94B020E82FF0E0EE0FFF1F02
:10472000EB52FE4F8081918138E0C32ED12CCC0E0C
:10473000DD1E03C0D601EC936401FC010196E491F7
:1047400046010894811C911CEE23A1F780E2F6013A
:104750008083C801B7010E94062A2AE0A22EB12C4C
:10476000B5010E948933605DD60111966C93640196
:104770000894C11CD11CC801B7010E94062AB501CA
:104780000E948933805DF401818346010894811C75
:10479000911C8DE2D60111968C9364010894C11C82
:1047A000D11CC801B7010E94122AB5010E948933A9
:1047B000605DF401618346010894811C911CC8016D
:1047C000B7010E94122AB5010E948933805DD6018B
:1047D00011968C93F401118287EC96E060E0472DEE
:1047E0000E94E02787EC96E0BE016F5F7F4F0E943A
:1047F000613261960FB6F894DEBF0FBECDBFCF9188
:10480000DF911F910F91FF90EF90DF90CF90BF90BD
:10481000AF909F908F907F900895DF92EF92FF92DC
:104820000F931F93CF93DF938C017B0187EC96E06E
:104830000E940E2887EC96E060E040E00E94E027AE
:10484000E80163E0D62E699187EC96E04AE050E0FB
:104850000E94FD3287EC96E06EE240E050E00E945C
:104860004533DA9481F787EC96E0F80163814AE0FA
:1048700050E00E94FD3287EC96E060E041E00E944B
:10488000E02787EC96E063E571E00E94613287ECF7
:1048900096E0B7014AE050E00E943B33DF91CF91B0
:1048A0001F910F91FF90EF90DF90089508950F935F
:1048B0001F93CF93DF93482F162F87EC96E060E08D
:1048C0000E94E0278091DA06807E29F487EC96E04A
:1048D0006AE571E016C087EC96E06EE571E00E9433
:1048E00061326091DA0662956695677087EC96E0B2
:1048F00070E04AE050E00E943B3387EC96E060E6CF
:1049000071E00E9461328091DA0680FD03C089EE79
:1049100099E00AC081FD06C082FF0AC08091B00103
:10492000882331F088ED99E061E00E946B222DC070
:10493000E091DA06E295E695E770F0E0E552F94F8E
:104940000081C0E0D0E08091DA06807E69F49E01AB
:104950002F5F3F4F8091AE0190E02817390721F477
:1049600087EC96E06DE407C000FF02C0612F01C034
:104970006FE587EC96E040E050E00E9445332196D9
:10498000C830D10511F00695DECF82ED99E00E9486
:104990005922DF91CF911F910F910895CF93DF930B
:1049A000EC01FC01EE0FFF1FED54FE4F8081918161
:1049B00060E00E946B2287EC96E060E041E00E949C
:1049C000E027C130D105C1F48091A301C82FD0E008
:1049D0002C97D7FD07C087EC96E06BE240E050E0F3
:1049E0000E94453387EC96E0BE014AE050E00E9409
:1049F0003B338EEC99E010C0FE01EC56F64FE4918B
:104A0000CE55DE4FE1FF0BC08881882319F08AEC78
:104A100099E002C087EC99E00E94592208C06881A1
:104A200087EC96E070E04AE050E00E943B3381EC76
:104A300099E00E945922DF91CF910895AF92BF92E1
:104A4000CF92DF92EF92FF920F931F93DF93CF935A
:104A50000F92CDB7DEB77C01D62EC22E80E04983FF
:104A60000E9425308C014981DD2041F08D2D82305E
:104A700011F4CC2019F4AA24BB240AC0E016F106D4
:104A80006CF5CC2011F080E801C080E0482B27C0F5
:104A9000E016F106D4F4ED2DE13039F0E230A9F45E
:104AA000F0E2AF16F3E0BF0684F480E049830E9491
:104AB00025308C0161E070E080E090E00E94CE3013
:104AC0000894A11CB11C4981E3CFCC2029F480E2D9
:104AD000A81683E0B8061CF0406801C040E0842FAF
:104AE0000F90CF91DF911F910F91FF90EF90DF908A
:104AF000CF90BF90AF900895EF92FF921F93DF93F6
:104B0000CF930F92CDB7DEB7182F2091E50620780E
:104B100080E029830E9425307C0161E070E080E024
:104B200090E00E94CE30298183ECE81681E0F806FF
:104B30002CF082EC91E0612F41E012C0EDE2EE1624
:104B4000E1E0FE062CF08CE291E0612F42E008C02B
:104B5000F7E9EF16F1043CF086E990E0612F44E0BC
:104B60000E941E2501C080E02091E50630E02F70F4
:104B70003070482F50E02115310541F44F705070CE
:104B80004115510559F0982F906409C04F7050702D
:104B90004115510519F4982F906201C0982F809308
:104BA000E506892F0F90CF91DF911F91FF90EF9035
:104BB0000895EF92FF920F931F93DF93CF930F927D
:104BC000CDB7DEB7182F092F0E94CE24C801092FB8
:104BD000182FE1E1EE2EF12C82E00E947C25482F77
:104BE00050E09A012F70307022303105B1F024303E
:104BF0003105F9F02130310591F50115110591F1DB
:104C0000F801E955F74FE491D801AE55BE4F8C91AC
:104C1000E81741F18F5F8C9325C001151105F9F05C
:104C2000F801EE55FE4F90819923C9F09150908381
:104C300016C086FF14C087FF04C00E94A32121E094
:104C400012C00230110521F48091A4018823F9F4E7
:104C5000C8010196B7010E9489338C0103C08823E3
:104C600009F4BACF20E0C80129830E94CE2429810B
:104C7000222309F4B1CF87EC96E00E94CF270F9052
:104C8000CF91DF911F910F91FF90EF9008950BE06E
:104C900010E0E8CFEF92FF921F93CF93DF93182F8E
:104CA000E12EE7017E01F92EE70103C080960E9404
:104CB0008634AE01411B6991842F90E06623B1F7E1
:104CC00080960E948634DF91CF911F91FF90EF90E4
:104CD0000895CF93DF9380E090E00E947434803198
:104CE00031F480E190E00E9474348823E1F00E9466
:104CF000A32182E691E00E944A268BE691E00E9481
:104D00001B228AE49AE06BE37AE00E94E022C0E58D
:104D1000D0E0CE0160E00E948634219684E0C0306D
:104D2000D807B9F702C00E948C2180E00E947C2540
:104D300090E08F7090708230910571F08430910511
:104D400071F08130910599F58BE29AE060E00E9464
:104D50006B220E94A7222BC080E190E01DC08BE156
:104D60009AE060E00E946B2260ED77E080E090E0E6
:104D70000E94CE308AE09AE06AEF79E00E94E02259
:104D800060EA7FE080E090E00E94CE3087EC96E021
:104D90000E940E2880E090E00E94D9258091B20107
:104DA000882329F0E091E306F091E4060995DF916C
:104DB000CF910895EF92FF921F93CF93DF93182F17
:104DC000E12EE7017E01F92EE701CE01811B282F9C
:104DD00030E0C90180960E9474349991882329F0AB
:104DE000992329F0891789F302C081E0911180E0AD
:104DF000DF91CF911F91FF90EF900895CF92EF92A6
:104E00000F9387EC96E065E044E026E009E0A0E13E
:104E1000EA2EF1E1CF2E0E94CC280F91EF90CF9097
:104E20000895CF93DF93EC018C8160E00E94C12F45
:104E300081E090E00E94F5308C8161E00E94C12FFA
:104E400081E090E00E94F5308C8160E00E94C12FEB
:104E500084E690E00E94F530DF91CF910895AF9203
:104E6000BF92CF92DF92EF92FF920F931F93CF9357
:104E7000DF937C018C010B5F1F4FC0E0D0E0A62EBA
:104E8000BB246801F80181918F0161E00E949D2F90
:104E9000B5010C2E02C0759567950A94E2F7617012
:104EA000F60180810E94C12F2196C430D10549F7B7
:104EB000C7010E941127DF91CF911F910F91FF90A1
:104EC000EF90DF90CF90BF90AF900895AF92BF92D8
:104ED000CF92DF92EF92FF920F931F93CF93DF93C6
:104EE0007C018C010B5F1F4FC0E0D0E0A62EBB24DD
:104EF0006801F80181918F0161E00E949D2FB50149
:104F00000C2E02C0759567950A94E2F76170F60160
:104F100080810E94C12F2196C830D10549F7C70171
:104F20000E941127DF91CF911F910F91FF90EF9079
:104F3000DF90CF90BF90AF9008951F93CF93DF93F2
:104F4000EC01162F8A81642F0E94C12F8B818F3F25
:104F500019F060E00E94C12F8D8584FF05C0CE014D
:104F6000612F0E9466270FC0212F30E084E0359525
:104F700027958A95E1F7CE01622F0E942F27CE0157
:104F8000612F0E942F27DF91CF911F91089541E05B
:104F90000E949D27089540E00E949D270895FC01EE
:104FA00066856E7F668768600E94CB270895FC0146
:104FB0006685262F246026876C600E94CB27089583
:104FC000DF93CF93CDB7DEB728970FB6F894DEBF47
:104FD0000FBECDBFFE013196AFE1B2E028E00D90EB
:104FE00001922150E1F7FC012189241710F4422F8E
:104FF0004150E42FF0E0EE0FFF1FEC0FFD1F218169
:10500000260F2068622F0E94CB2728960FB6F894AF
:10501000DEBF0FBECDBFCF91DF91089561E00E944A
:10502000CB2780ED97E00E94F5300895CF93DF9372
:10503000EC01423018F08D8588608D87498B1A8A83
:10504000222329F0413019F48D8584608D8780E515
:1050500093EC0E94F5308A8160E00E94C12F8C8120
:1050600060E00E94C12F8B818F3F19F060E00E94A9
:10507000C12F6D8564FD1DC0CE0163E00E942F2706
:1050800084E991E10E94F530CE0163E00E942F2770
:1050900084E991E10E94F530CE0163E00E942F2760
:1050A00086E990E00E94F530CE0162E00E942F2751
:1050B00016C06062CE010E94CB2784E991E10E9474
:1050C000F5306D856062CE010E94CB2786E990E0C5
:1050D0000E94F5306D856062CE010E94CB276D8500
:1050E0006062CE010E94CB2784E08E87CE010E94B1
:1050F000D727CE010E940E2882E08F87CE0166E07E
:105100000E94CB27DF91CF9108956F927F928F926B
:10511000AF92CF92EF920F931F93DF93CF93CDB7C0
:10512000DEB73C01162F842FF301428323830483CF
:10513000E582C682A78280869D8591879E8592871B
:105140009F8593879889948761E00E949D2FF30142
:1051500083818F3F19F061E00E949D2FF3018481CC
:1051600061E00E949D2F112319F0F301158603C001
:1051700080E1F3018587C30160E141E020E00E9406
:105180001628CF91DF911F910F91EF90CF90AF90A4
:105190008F907F906F9008958F92AF92CF92EF9201
:1051A0000F93CF93DF93A62F742F522F302FAE2C57
:1051B0008C2CE9E1F2E0EC01F983E88300D000D027
:1051C000EDB7FEB73196CDB7DEB7198211821282E4
:1051D000138261E04A2F2FEF072FE52EC32E0E9486
:1051E00085280F900F900F900F90DF91CF910F9126
:1051F000EF90CF90AF908F9008956F927F928F92A3
:105200009F92AF92BF92CF92DF92EF92FF920F9355
:105210001F93CF93DF93EA012CE3E22EF12C012DB3
:10522000112DA80197010E949C336883CA01B9011E
:10523000A80197010E949C336983CA01B90128E142
:1052400030E040E050E00E949C3359016A016A83DB
:10525000CA01B9016C5F7F4F8F4F9F4F27E030E04D
:1052600040E050E00E949C336F5F6B83EE24FF248C
:10527000870140E0E4E6F0E090E9892E91E0992E84
:1052800001C04F5F242F30E02E54384F83E0682E4A
:10529000712C622273226114710461F4C901BF018F
:1052A0000E948933009759F4C901B4010E948933DF
:1052B000009729F08DE691E0A0E0B0E004C08EE612
:1052C00091E0A0E0B0E0E80EF91E0A1F1B1FC70125
:1052D000A0E0B0E0A816B906CA06DB0690F64E8339
:1052E0006114710471F4C90164E670E00E948933AD
:1052F000009761F4C90160E971E00E948933009769
:1053000029F08DE691E0A0E0B0E004C08EE691E0E7
:10531000A0E0B0E0E81AF90A0A0B1B0BD601C501A0
:105320008E199F09A00BB10B7C018D01C90164E6A8
:1053300070E00E9489336C01C90160E971E00E944C
:105340008933E7E2F2E060E0613049F4611471040E
:1053500041F4C114D10439F4009729F002C020812E
:1053600003C02CE101C02DE130E040E050E0E21646
:10537000F3060407150740F0E21AF30A040B150BB5
:105380006F5F31966C3001F76F5F6D83E394EC8251
:10539000DF91CF911F910F91FF90EF90DF90CF9011
:1053A000BF90AF909F908F907F906F900895EF92F5
:1053B000FF920F931F937B018C018091FF069091C8
:1053C0000007A0910107B0910207E816F9060A0745
:1053D0001B0771F0C801B70144EF56E00E94FD2899
:1053E000E092FF06F0920007009301071093020776
:1053F0001F910F91FF90EF9008950E94D72920915F
:10540000FA0630E02E54384FC90108950E94D7297A
:105410008091F90690E008950E94D7298091F706BF
:1054200090E008950E94D7298091F80690E00895B1
:105430000E94D7298091F50690E008950E94D7290F
:105440008091F60690E008954F925F926F927F925E
:105450008F929F92AF92BF92CF92DF92EF92FF9284
:105460000F931F93CF93DF934C01DC011696EC90C2
:1054700016976E2D70E080E090E020E833E341EE77
:1054800051E00E9456335B016C01FF2487010E54EA
:10549000184F22EB37E0E4E6F0E0C0E9D1E01BC0B2
:1054A000C901837090700097A1F4C901BF010E94E7
:1054B0008933009731F4C901BE010E9489330097F6
:1054C00041F480E891E5A1E0B0E0A80EB91ECA1E43
:1054D000DB1E2F5F3F4F2017310711F7D4011596C0
:1054E0004C901597552497012E54384FC90164E606
:1054F00070E00E9489337C01C90160E971E00E947B
:1055000089338C01C1E0D0E043E0642E712C62222B
:10551000732227C0C230D10591F46114710479F46B
:10552000E114F10419F40115110549F480E89BE335
:10553000A6E2B0E0A80EB91ECA1EDB1E11C0FE0115
:10554000EA5DFD4F608170E080E090E020E831E5A9
:1055500041E050E00E945633A60EB71EC81ED91E69
:105560002196C415D505B4F2D40112966C9170E061
:1055700080E090E020E13EE040E050E00E945633C1
:105580007B018C01F401618170E080E090E02CE30C
:1055900030E040E050E00E945633E60EF71E081F50
:1055A000191FD4018C91E80EF11C011D111D1496D8
:1055B0006C91149770E061507040882777FD80955A
:1055C000982F20E831E541E050E00E945633E60E86
:1055D000F71E081F191FEA0CFB1C0C1D1D1DB7012F
:1055E000C801DF91CF911F910F91FF90EF90DF9055
:1055F000CF90BF90AF909F908F907F906F905F9073
:105600004F9008959B01AC016093EA067093EB06FE
:105610008093EC069093ED068091E3019091E40174
:10562000A091E501B091E601820F931FA41FB51F61
:105630008093EE069093EF06A093F006B093F106E8
:1056400082E090E09093F3068093F2060E949A30F5
:105650006093FB067093FC068093FD069093FE0614
:105660000895EF92FF920F931F931AC02F5F3F4F41
:105670004F4F5F4F2093EA063093EB064093EC06C2
:105680005093ED06D801C70188519C4FAF4FBF4FD3
:105690008093FB069093FC06A093FD06B093FE0654
:1056A0000E949A30E090FB06F090FC060091FD0607
:1056B0001091FE066E197F09800B910B2091EA066E
:1056C0003091EB064091EC065091ED06683EE3E028
:1056D0007E07E0E08E07E0E09E0740F68091EE0650
:1056E0009091EF06A091F006B091F10628173907C6
:1056F0004A075B0758F1E091E806F091E906309718
:1057000029F10995611571058105910539F010920E
:10571000E7061092E6060E94022B18C081E090E096
:105720002091F2063091F3062115310511F480E045
:1057300090E09093F3068093F2068091E6069091B4
:10574000E70601969093E7068093E6066091EA06E5
:105750007091EB068091EC069091ED061F910F91F0
:10576000FF90EF9008950E94312B0E94D7298091DD
:10577000F70690E008950E94312B0E94D72980916E
:10578000F50690E00895EF92FF920F93F701E4364B
:10579000F1051CF0E25BF74001C07E96E093FA064B
:1057A0000093F9062093F8068093F6066093F506B9
:1057B0004093F40684EF96E00E94242A0E94022B74
:1057C0000F91FF90EF9008959093E9068093E8067B
:1057D0008091EA069091EB06A091EC06B091ED065F
:1057E0008093EE069093EF06A093F006B093F10637
:1057F0000E94312B08956093E3017093E40180933C
:10580000E5019093E601089590E0FC0123E0F59511
:10581000E7952A95E1F7ED5FF84F8770907021E0EA
:1058200030E040E050E004C0220F331F441F551FFA
:105830008A95D2F78081822B808308951F93182F39
:1058400003C0812F0E94042C1150D9F71F91089595
:10585000CF92DF92EF92FF920F931F93DF93CF933C
:1058600000D0CDB7DEB70D851E85EF84F8889E0188
:105870002F5E3F4FF7018491882309F4A6C0089456
:10588000E11CF11C843259F0D8011496ED91FC9181
:10589000159781931596FC93EE931497EBCFF70130
:1058A0000894E11CF11C8491863409F442C08734C9
:1058B00034F4843451F0853409F06BC04CC08C341E
:1058C000A1F0833509F065C024C052E0C52ED12C6B
:1058D000C20ED31EF80164817581D9018D919C910E
:1058E0004AE050E00E9416345BC044E0C42ED12C44
:1058F000C20ED31EF9016081718182819381D8012A
:1059000014964D915C9115972AE030E00E943F3447
:1059100047C092E0C92ED12CC20ED31EF90160817E
:105920007181D80114968D919C9115970E94013434
:1059300037C0F9012E5F3F4F8081918106C0F80189
:10594000A481B5814D93B583A483FC010196449154
:105950004423A9F78FCFF9012E5F3F4F80819181BA
:105960000BC0D8011496ED91FC9115978193159673
:10597000FC93EE931497C6016C010894C11CD11CD2
:1059800029833A830E94743429813A81882349F714
:1059900071CFF801A481B5818D93B583A4836ACFBB
:1059A000D80114968D919C911597FC0101900020CF
:1059B000E9F73197E81BF90BE80FF91FD8011596A5
:1059C000FC93EE931497960155CF0F900F90CF91C3
:1059D000DF911F910F91FF90EF90DF90CF9008958E
:1059E000CF92DF92EF92FF920F931F93DF93CF93AB
:1059F0000F92CDB7DEB77C018B0188E349830E940B
:105A00001E2C63E2C62E67E0D62EC601B8010E94A6
:105A1000442DC701B60149810E94FB1A0F90CF9116
:105A2000DF911F910F91FF90EF90DF90CF9008953D
:105A30000F931F93CF93DF939C018B01EA01009793
:105A400029F089E297E0B9010E94392D011511056D
:105A500019F0C8010E94F01D209729F089E397E012
:105A6000BE010E94392D81E0DF91CF911F910F91EE
:105A70000895FB012081318142815381FC01208303
:105A80003183428353830895282F392FD901862FDC
:105A9000972FFC0186E001900D928150E1F7089567
:105AA000FC01A22FB32F90E00CC011968C9188239B
:105AB00039F4319680818D3381F4A22FB32F91E098
:105AC00031968081882361F0803251F08A3041F034
:105AD000992341F45C91851741F3A22FB32FF0CFA6
