:100000000C94CB050C94F3050C94F3050C94F305B8
:100010000C94F3050C94F3050C94F3050C94F30580
:100020000C94F3050C9413060C94F3050C94F3054F
:100030000C94F3050C94F3050C94F3050C94F30560
:100040000C94FD280C94F3050C947E2A0C94F30573
:100050000C94F3050C94F3050C94F3050C94F30540
:100060000C94FB260C94F305485454502F312E3039
:1000700020323030204F4B0D0A436F6E74656E7422
:100080002D547970653A20746578742F68746D6C9E
:100090000D0A507261676D613A206E6F2D63616366
:1000A00068650D0A0D0A00485454502F312E302037
:1000B000323030204F4B0D0A436F6E74656E742DD5
:1000C000547970653A206170706C69636174696F0E
:1000D0006E2F782D6A6176617363726970740D0A90
:1000E000507261676D613A206E6F2D636163686560
:1000F0000D0A0D0A003C6D657461206E616D653DF1
:1001000076696577706F727420636F6E74656E7454
:100110003D2277696474683D343830223E0A0048D5
:100120005454502F312E3020343034204E6F7420F0
:10013000466F756E640D0A436F6E74656E742D5450
:100140007970653A20746578742F68746D6C0D0A47
:100150000D0A3C68313E343034204E6F7420466FB7
:10016000756E643C2F68313E00485454502F312E38
:100170003020333031204D6F766564205065726DCC
:10018000616E656E746C790D0A4C6F636174696F92
:100190006E3A20687474703A2F2F72617973686FA9
:1001A0006262792E6E65742F72617973686F626214
:1001B000792E69636F0D0A0D0A436F6E74656E7454
:1001C0002D547970653A20746578742F68746D6C5D
:1001D0000D0A0D0A3C68313E333031204D6F766593
:1001E00064205065726D616E656E746C793C2F6829
:1001F000313E0A00485454502F312E3020343031D3
:1002000020556E617574686F72697A65640D0A4372
:100210006F6E74656E742D547970653A20746578CC
:10022000742F68746D6C0D0A0D0A3C68313E3430D1
:100230003120556E617574686F72697A65643C2F00
:1002400068313E002446002446002446002446002F
:1002500024463C6D65746120687474702D657175F9
:1002600069763D22726566726573682220636F6EDF
:1002700074656E743D22343B2075726C3D2F223EB6
:100280000024463C6D65746120687474702D65713E
:100290007569763D22726566726573682220636FA8
:1002A0006E74656E743D22343B2075726C3D2F2256
:1002B0003E002446003029293B0A3C2F73637269B3
:1002C00070743E0A0024442C0030292C206E65777F
:1002D000204172726179280024442C006974286ED0
:1002E0006577204172726179280030293B6E643D48
:1002F00024443B0A7728223C666F726D206E616D44
:10030000653D6620616374696F6E3D736574206D31
:100310006574686F643D6765743E3C696E707574A2
:1003200020747970653D68696464656E206E616DE6
:10033000653D623E3C696E70757420747970653DF0
:1003400068696464656E206E616D653D763E3C69EA
:100350006E70757420747970653D68696464656E4B
:10036000206E616D653D683E3C696E7075742074E9
:100370007970653D68696464656E206E616D653D88
:100380006D3E3C2F666F726D3E22293B0A666F728E
:1003900028693D303B693C6E642A383B692B2B2928
:1003A0007B77282253746174696F6E20222B282872
:1003B000692B31292F31303E3E30292B2828692BDB
:1003C0003129253130292B223A203C696E70757411
:1003D00020747970653D627574746F6E2069643D38
:1003E00062222B692B22206F6E436C69636B3D7315
:1003F0006628222B692B22293E20222B2828763E94
:100400003E692926313F22696E223A226475726163
:1004100074696F6E22292B22203C696E70757420DE
:10042000747970653D746578742069643D68222B29
:10043000692B222073697A653D32206D61786C6585
:100440006E6774683D32202F3E3A3C696E70757459
:1004500020747970653D746578742069643D6D22FF
:100460002B692B222073697A653D32206D61786C8F
:10047000656E6774683D32202F3E3C6872202F3EC7
:1004800022297D0A0024442C003C73637269707435
:100490003E0A763D6E6577204172726179280024AC
:1004A0004624463C736372697074207372633D70B6
:1004B000312E6A733E3C2F7363726970743E0A3C3E
:1004C000666F726D206E616D653D72206163746947
:1004D0006F6E3D7265736574206D6574686F643D01
:1004E0006765743E3C7374726F6E673E44657669EF
:1004F00063652074696D653A20244424443A244499
:10050000244420244620244424442D244424443CD0
:100510002F7374726F6E673E203C696E7075742025
:10052000747970653D7375626D69742076616C7560
:10053000653D22526573657420416C6C2220737492
:10054000796C653D226865696768743A3332223E8A
:100550003C2F666F726D3E0066756E6374696F6ED8
:1005600020772873297B646F63756D656E742E77B1
:10057000726974656C6E2873297D0A66756E637482
:10058000696F6E2073662869297B683D646F6375A7
:100590006D656E742E676574456C656D656E74422D
:1005A000794964282268222B69293B6D3D646F6379
:1005B000756D656E742E676574456C656D656E74DA
:1005C0004279496428226D222B69293B662E656C8D
:1005D000656D656E74735B305D2E76616C75653D1F
:1005E000693B662E656C656D656E74735B315D2E5F
:1005F00076616C75653D28765B693E3E335D3E3EB7
:1006000028692538292926313F303A313B662E6545
:100610006C656D656E74735B325D2E76616C7565AD
:100620003D682E76616C75653B662E656C656D6503
:100630006E74735B335D2E76616C75653D6D2E76E1
:10064000616C75653B662E7375626D697428297DD2
:100650000A66756E6374696F6E2069742873742CF2
:100660007274297B0A666F7228643D303B643C6E6D
:10067000643B642B2B297B666F7228733D303B7380
:100680003C383B732B2B297B0A693D642A382B733A
:100690003B623D646F63756D656E742E676574456E
:1006A0006C656D656E7442794964282262222B69FB
:1006B000293B683D646F63756D656E742E67657464
:1006C000456C656D656E7442794964282268222BF9
:1006D00069293B6D3D646F63756D656E742E67654A
:1006E00074456C656D656E744279496428226D228B
:1006F0002B69293B622E7374796C652E6865696776
:1007000068743D33323B0A69662828765B645D3E37
:100710003E73292631297B622E7374796C652E62B3
:1007200061636B67726F756E64436F6C6F723D22AD
:1007300023433032303230223B622E76616C756555
:100740003D225475726E206974204F6666223B68A4
:100750002E76616C75653D72745B695D2F36303E37
:100760003E303B6D2E76616C75653D2873745B6918
:100770005D3F313A30292B2872745B695D25363034
:10078000293E3E303B682E64697361626C65643D4E
:10079000747275653B6D2E64697361626C65643D4E
:1007A000747275653B7D0A656C73657B622E73742C
:1007B000796C652E6261636B67726F756E64436FEF
:1007C0006C6F723D2223323043303230223B622E36
:1007D00076616C75653D225475726E206974204F88
:1007E0006E223B682E76616C75653D73745B695D46
:1007F0002F333630303E3E303B6D2E76616C756562
:100800003D2873745B695D2533363030292F3630CF
:100810003E3E303B682E64697361626C65643D6680
:10082000616C73653B6D3D64697361626C65643DC9
:1008300066616C73653B7D0A7D7D7D0A0024460000
:100840004E545020656E61626C65642E00207468A1
:1008500065206E6574776F726B2E2E2E00436F6E5F
:100860006E656374696E6720746F00206661696CE1
:10087000656421004E6574776F726B20696E6974D0
:10088000000001080006040001450000820000404D
:100890000020504F535420244620485454502F31A8
:1008A0002E310D0A486F73743A2024460D0A2446EF
:1008B00024534163636570743A202A2F2A0D0A433A
:1008C0006F6E6E656374696F6E3A20636C6F7365EB
:1008D0000D0A436F6E74656E742D4C656E67746897
:1008E0003A2024440D0A436F6E74656E742D54795A
:1008F00070653A206170706C69636174696F6E2F06
:10090000782D7777772D666F726D2D75726C656EA9
:10091000636F6465640D0A0D0A2453004745542033
:100920002446245320485454502F312E310D0A4868
:100930006F73743A2024460D0A4163636570743AFC
:1009400020746578742F68746D6C0D0A436F6E6E39
:10095000656374696F6E3A20636C6F73650D0A0D81
:100960000A00E30004FA000100000001001801FF82
:10097000FFFFFFFFFFFFFF010C182003010801012B
:1009800046570054696D65207A6F6E653A0055735D
:100990006520444843503A20005374617469632EC3
:1009A0006970313A20005374617469632E69703242
:1009B0003A20005374617469632E6970333A2000E1
:1009C0005374617469632E6970343A20004761740E
:1009D000657761792E6970313A0047617465776196
:1009E000792E6970323A00476174657761792E69B2
:1009F00070333A00476174657761792E6970343AD3
:100A0000004E54502073796E633A20005374617223
:100A10007420686F75723A00456E6420686F757255
:100A200020203A004D756C74692073746174696F8D
:100A30006E3A004578742E20426F617264733A20DA
:100A40000052657175697265206E65743A20004DBB
:100A500061737465722073746E3A005261696E201E
:100A600073656E736F723A00526573657420616CC2
:100A70006C3F20000003110101010101010101117E
:100A800003030303110111114D6F6E0054756500CE
:100A900057656400546875004672690053617400BC
:100AA00053756E005365742063757272656E7420A1
:100AB00074696D650020686F7572732020002020B6
:100AC0002020004E6F00596573003A3030003A30F4
:100AD00030002020202020002D44454C4159454421
:100AE0002D002D53544F505045442D0020202020E0
:100AF000003D3D4F7074696F6E2053657475703D95
:100B00003D0053656C662074657374696E672E2EA4
:100B10002E00506C6561736520776169742E2E2EEE
:100B200000526573657474696E6720454550524F75
:100B30004D000000000000240027002A00000000F3
:100B400000250028002B00000000002300260029BB
:100B50000004040404040404040202020202020366
:100B60000303030303010204081020408001020470
:100B700008102001020408102000000007000201F4
:100B80000000030406000000000000000000BC0C90
:100B90006D0DCD1FA62A11241FBECFEFD8E0DEBFFA
:100BA000CDBF12E0A0E0B1E0EEE5FAE502C00590AD
:100BB0000D92AE32B107D9F718E0AEE2B2E001C053
:100BC0001D92AE30B107E1F71BE0C6E9DBE004C0DF
:100BD0002297FE010E94772CCE38D107C9F70E94D8
:100BE000062C0C942D2D0C940000FC01A481B581E1
:100BF0006D93B583A48308951092B2051092B30546
:100C00001092B4051092B5058DE790E090934801DD
:100C10008093470186E08093B200E0E7F0E08081B6
:100C20008160808308951F920F920FB60F92112456
:100C30008F939F93AF93BF9386E08093B200809190
:100C40004701909148010197909348018093470193
:100C50000097C9F48DE790E0909348018093470195
:100C60008091B2059091B305A091B405B091B505FE
:100C70000196A11DB11D8093B2059093B305A09379
:100C8000B405B093B505BF91AF919F918F910F902F
:100C90000FBE0F901F90189584E798E06BE678E000
:100CA0000E94121860ED77E080E090E00E948529B4
:100CB0000E94A4160895EF92FF920F931F93DF9363
:100CC000CF93CDB7DEB728970FB6F894DEBF0FBE2F
:100CD000CDBF8DE598E06DE478E00E94121884E8BD
:100CE00093E061E471E048E00E94D325882311F489
:100CF0000E944C0680916A01882319F00E942D0EF3
:100D000021C080916B01898380916C018A838091DD
:100D10006D018B8380916E018C8380916F018D8337
:100D2000809170018E83809171018F838091720117
:100D30008887CE010196BE016B5F7F4F40E050E097
:100D40000E94FB25882311F40E944C068CE090E061
:100D500060E070E040E050E021E030E001E010E0D1
:100D6000EBEDEE2EE7E0FE2E0E94BC248091730195
:100D7000813051F460E871E581E090E00E94F42454
:100D800084E99AE00E94DD240E94FC0580E00E9434
:100D9000721A28960FB6F894DEBF0FBECDBFCF9162
:100DA000DF911F910F91FF90EF90089582E00E94D4
:100DB0007919282F30E086FF35C02F703070213030
:100DC000310521F02430310569F50AC08AEE96E03C
:100DD00060E00E941F1860ED77E080E090E00FC0B7
:100DE00087FF13C080917301882361F080E498E04D
:100DF00060E00E949D1768EE73E080E090E00E9442
:100E0000852908950E94681B089580915C0690E0F2
:100E100001966091770170E06F5F7F4F0E942C2CEC
:100E200080935C0608950E94A41E0E94591F109290
:100E3000B000E1EBF0E08081866080830E945B0679
:100E40000895CF93DF9300D000D000D0EDB7FEB768
:100E50003196C6EBD5E0ADB7BEB71296DC93CE9314
:100E600011978DE398E09383828387EA90E09583DE
:100E700084830E9421250F900F90EDB7FEB7D28397
:100E8000C18388E595E0948383830E9421250F9098
:100E90000F900F900F90DF91CF9108952F923F9276
:100EA0004F925F926F927F928F929F92AF92BF927A
:100EB000CF92DF92EF92FF920F931F93DF93CF9326
:100EC00000D000D0CDB7DEB70E94B4247C010E94D0
:100ED000B4246C010E94AC245C010E94AC244C013F
:100EE0000E94691AE82FF0E0EE0FFF1FEC55FE4F4D
:100EF000608071800E9494242C010E9494241C0123
:100F00000E94A4249A8389830E94A4249C838B83B7
:100F10002DB73EB72A5130400FB6F8943EBF0FBEF2
:100F20002DBFEDB7FEB7319606EB15E0ADB7BEB7F6
:100F300012961C930E9311978FE994E0938382830A
:100F400088E690E09583848385EF90E0978386839D
:100F50002AE030E0C701B9010E942C2C718760871C
:100F6000C601B9010E942C2C93878287C501B90163
:100F70000E942C2C75876487C401B9010E942C2C17
:100F800097878687718A608AC201B9010E942C2CDA
:100F9000738B628BC101B9010E942C2C958B848BC1
:100FA00089819A81B9010E942C2C778B668B8B8169
:100FB0009C81B9010E942C2C918F808F0E94212549
:100FC000EDB7FEB776960FB6F894FEBF0FBEEDBF35
:100FD0001283018389E894E0948383830E9421250E
:100FE0000F900F900F900F90EE24A02EC12E65E869
:100FF000862E64E0962E21C000D000D000D0EDB740
:10100000FEB73196ADB7BEB71196AC921197129656
:10101000CC9293828282AE2DB0E0A15AB94F8C91CE
:10102000848315820E942125E394EDB7FEB736969E
:101030000FB6F894FEBF0FBEEDBF8091770106EBAF
:1010400015E08E15C8F600D000D000D0EDB7FEB781
:101050003196ADB7BEB712961C930E9311972AEE38
:1010600032E03383228390E00196958384830E944B
:1010700021250F900F90EDB7FEB7128301838CED01
:1010800092E0948383830E9421250F900F900F900C
:101090000F90EE24A02EC12E58ED852E52E0952EF5
:1010A00027C08E2D0E94431E2DB73EB728503040DA
:1010B0000FB6F8943EBF0FBE2DBFEDB7FEB7319609
:1010C000ADB7BEB71196AC9211971296CC9293829F
:1010D000828264837583868397830E942125E394AB
:1010E000EDB7FEB738960FB6F894FEBF0FBEEDBF52
:1010F0002E2D30E08091770190E0019643E0880F3B
:10110000991F4A95E1F706EB15E0281739074CF2CD
:1011100000D000D0ADB7BEB712961C930E931197B6
:1011200089EC92E014969C938E9313970E9421254C
:101130000F900F900F900F90EE24A02EC12E05EC73
:10114000802E02E0902E28C000D000D000D02DB715
:101150003EB72F5F3F4FADB7BEB71196AC92119718
:101160001296CC92D90113969C928E921297EE0F02
:10117000FF1FED59F94F8081918115969C938E93B5
:1011800014970E942125E394EDB7FEB736960FB66B
:10119000F894FEBF0FBEEDBFEE2DF0E08091770119
:1011A00090E00196A3E0880F991FAA95E1F706EB5E
:1011B00015E0E817F90744F200D000D0ADB7BEB78C
:1011C00012961C930E93119785EB92E014969C93C4
:1011D0008E9313970E9421250F900F900F900F90E0
:1011E0000F900F900F900F90CF91DF911F910F9163
:1011F000FF90EF90DF90CF90BF90AF909F908F9037
:101200007F906F905F904F903F902F900895BF9286
:10121000CF92DF92EF92FF920F931F93CF93DF93C2
:101220007C016CEB75E044E120E031E00E94332664
:10123000882331F08CEB95E00E947B2CD82E02C0E5
:10124000DD24DA94C7016CEB75E044E122E031E083
:101250000E943326882331F08CEB95E00E947B2C92
:10126000C82E02C0CC24CA94C7016CEB75E044E1DF
:1012700024E031E00E943326882331F08CEB95E0A6
:101280000E947B2CB82E02C0BB24BA94C7016CEB21
:1012900075E044E126E031E00E943326882329F0FE
:1012A0008CEB95E00E947B2C01C08FEF9D2D91323D
:1012B00070F4C7FC0CC0AC2DA2304CF4B7FC07C0D6
:1012C000BB2DB93724F487FD02C08D33ACF000D0BC
:1012D00000D000D0EDB7FEB7319686EB95E0ADB704
:1012E000BEB712969C938E93119782EB92E09383F4
:1012F000828384EF91E062C09C2D913009F044C05C
:10130000682F772767FD7095872F972F2CE330E0A4
:1013100040E050E00E940D2C7B018C016B2D772763
:1013200067FD7095872F972F20E13EE040E050E069
:101330000E940D2CE60EF71E081F191F8D2DB801F7
:10134000A7010E94871ECD2DDD27C7FDD095CC0FAC
:10135000DD1FCD59D94FC801B7012CE330E040E083
:1013600050E00E943F2C398328834091B205509170
:10137000B3056091B4057091B5054E0D5F1D601FFA
:10138000711F8D2D0E94691E8D2D6C2D0E940417DA
:101390000E94361700D000D000D0EDB7FEB73196CE
:1013A00086EB95E0ADB7BEB712969C938E931197DE
:1013B00081E892E09383828388E690E0958384833A
:1013C0000E9421258DB79EB706960FB6F8949EBF52
:1013D0000FBE8DBFDF91CF911F910F91FF90EF90C6
:1013E000DF90CF90BF9008950E9428170E94361773
:1013F00000D000D000D0EDB7FEB7319686EB95E077
:10140000ADB7BEB712969C938E93119780E592E08C
:101410009383828388E690E0958384830E942125CC
:101420008DB79EB706960FB6F8949EBF0FBE8DBFC0
:10143000089500D000D000D0EDB7FEB7319686EB0E
:1014400095E0ADB7BEB712969C938E9311978DE43D
:1014500092E09383828389E691E0958384830E945E
:1014600021258DB79EB706960FB6F8949EBF0FBE86
:101470008DBF0895CF92DF92EF92FF920F931F934B
:10148000DF93CF9300D000D0CDB7DEB7F0EAEF2ED8
:10149000F6E8FF2EF1E00F2F112D6E010894C11C0C
:1014A000D11C0E94AF100E941614C6016091D10594
:1014B0000E9483138823E1F0E980FA800B811C816C
:1014C00080EC98EDA4E5BCE7E80EF91E0A1F1B1F8F
:1014D0006091690170E080E090E020E13EE040E052
:1014E00050E00E940D2CE60EF71E081F191F0DC0BC
:1014F0000894E108F10801091109E114F10401055A
:10150000110579F6EE24FF248701B701C8010F9079
:101510000F900F900F90CF91DF911F910F91FF903F
:10152000EF90DF90CF900895EF92FF920F931F936B
:10153000DF93CF930F92CDB7DEB720E08DE391E03C
:101540006091D10529830E9433130E943A0A7B01DE
:101550008C016AEF70E080E090E00E94852929818B
:10156000E114F1040105110519F42F5F2F3031F753
:10157000B701C8010F90CF91DF911F910F91FF909C
:10158000EF9008950F931F93CF93DF93EC0188E0C2
:1015900091E0BE0145E050E00E94B62C009709F0B2
:1015A0004EC08E010B5F1F4F90910E018D819817D9
:1015B00019F40E944E0763C080E191E0B8014BE04E
:1015C00050E00E94B62C009719F40E94190A57C0E7
:1015D0008CE191E0B80143E050E00E94B62C009706
:1015E00029F4CE0108960E94070949C080E291E0E3
:1015F000B80145E050E00E94B62C009719F40E9413
:1016000021073DC086E291E0B80145E050E00E942C
:10161000B62C009719F40E94F40931C000D000D014
:1016200000D0EDB7FEB7319686EB95E0ADB7BEB70B
:1016300012969C938E93119787E492E010C000D08D
:1016400000D000D0EDB7FEB7319686EB95E0ADB790
:10165000BEB712969C938E93119784E492E0938385
:10166000828384EF91E0958384830E9421258DB746
:101670009EB706960FB6F8949EBF0FBE8DBF80E052
:1016800090E0DF91CF911F910F9108952F923F929B
:101690005F926F927F928F929F92AF92BF92CF9202
:1016A000EF92FF920F931F93DF93CF93CDB7DEB7E7
:1016B00028970FB6F894DEBF0FBECDBF44E6242EA8
:1016C00042E0342E05E010E00E94AF100E94161494
:1016D0009093D4058093D3050097C1F03092B9055B
:1016E0002092B8053092BB052092BA05825D9D4FCD
:1016F0000E94C20A8091BA059091BB052091B8055D
:101700003091B905821B930B0E94201380914701F1
:10171000909148012091490130914A0128173907D9
:1017200009F410C190934A0180934901B8010E94C5
:101730002C2C009709F006C10E94D6068091B205B4
:101740009091B305A091B405B091B5052091D50550
:101750003091D6054091D7055091D8052817390703
:101760004A075B0709F4B0CF8093D5059093D6055F
:10177000A093D705B093D805CC245524B9C0E52D46
:10178000F0E0E15AF94F8081AA24BB24282F30E0F1
:101790003A832983EC2CEA0C8E2D0E94431E9B0178
:1017A000AC018E2D2B833C834D835E830E94251ECE
:1017B0003B014C0189819A810A2C02C0959587953D
:1017C0000A94E2F72B813C814D815E8180FF85C0C8
:1017D000211531054105510509F47FC08091B205FD
:1017E0009091B305A091B405B091B5058615970504
:1017F000A805B90598F19C01AD01261937094809DA
:1018000059096E2D70E078876F8357FD0DC08E2DBE
:1018100060E00E940417EF81F885EE0FFF1FED597D
:10182000F94F118210821AC0EF81F885EE0FFF1F69
:10183000ED59F94FF887EF83A4019301281B390B69
:101840004A0B5B0BCA01B9012CE330E040E050E0E9
:101850000E943F2CEF81F885318320838091B2056F
:101860009091B305A091B405B091B50568167906BD
:101870008A069B0690F1A4019301281B390B4A0BA1
:101880005B0BCA01B9014E2D50E058874F836F3F63
:101890005FEF75075FEF85075FE7950768F08E2DAF
:1018A00060E00E940417EF81F885EE0FFF1FED59ED
:1018B000F94F1182108211C0EF80F884EE0CFF1CEA
:1018C000E3E6F6E0EE0EFF1E2CE330E040E050E0F1
:1018D0000E943F2CF701318320830894A11CB11C86
:1018E000F8E0AF16B10409F055CF539428E0C20ECA
:1018F00080917701851508F042CF0E94361780E06D
:101900000E94721A6091D5057091D6058091D70515
:101910009091D80523E030E040E050E00E943F2C59
:101920006D537E4F81E0FB0160810E9450188091D1
:10193000A7069091A806863091050CF4C5CE0E94AA
:10194000A416C2CE28960FB6F894DEBF0FBECDBF48
:10195000CF91DF911F910F91FF90EF90CF90BF90AB
:10196000AF909F908F907F906F905F903F902F905F
:1019700008950E94460B08958DEB91E09093B70572
:101980008093B60508952091FA0530E08091F9051D
:10199000281B3109C90108958091F9059091FA0534
:1019A000891750F4E82FF0E0E752FA4F208130E039
:1019B0008F5F8093F90502C02FEF3FEFC9010895B3
:1019C000E091F9058091FA05E81730F4F0E0E7526C
:1019D000FA4F208130E002C02FEF3FEFC901089598
:1019E0000895CF92DF92EF92FF920F931F93CF93C0
:1019F000DF936C01CB017A0120911E062223A9F00E
:101A0000062F192FC0E0D0E00CC0D8016D918D01D8
:101A1000D601ED91FC910190F081E02DC601099570
:101A20002196CE15DF0588F303C0642F0E94C926D6
:101A3000DF91CF911F910F91FF90EF90DF90CF90AA
:101A40000895DF93CF930F92CDB7DEB7698380916E
:101A50001E06882389F080911D06803290F48091C3
:101A60001C06E82FF0E0E450FA4F60838F5F80930C
:101A70001C0680931D0605C0CE01019661E00E9400
:101A8000C9260F90CF91DF9108951092F905109219
:101A9000FA0510921C0610921D060E9470260895E9
:101AA00081E080931E066093FB0510921C06109245
:101AB0001D0608950E94500D08958091FB056CEF5E
:101AC00075E040911D0621E00E94892610921C06B7
:101AD00010921D0610921E0608958AEC91E09093D4
:101AE000200680931F060895E0912E06F0912F06A0
:101AF0008193F0932F06E0932E0608951F93CF93C2
:101B0000DF93182FEB0104C089910E94740D1150CE
:101B10001123D1F7DF91CF911F9108951F93CF9398
:101B2000DF93182F0E946110882309F492C010934C
:101B30002106CEE2D2E086E191E0FE019C01119205
:101B400021503040E1F784E490E06AEE76E043E42F
:101B500050E00E94A813CE01069664EE76E00E9443
:101B60002726CE0168ED71E00E94272682E8809347
:101B70003F0281E180934502CE014E9668ED71E00F
:101B80000E941C26AA9681E080935802898386E0F1
:101B90008A8380912A0690912B06A0912C06B09101
:101BA0002D068C839D83AE83BF8384E792E064EE31
:101BB00076E00E94272684E493E090932F0680939A
:101BC0002E0686E06CE571E00E947E0D10912106E4
:101BD000812F0E94740D8DE30E94740D87E00E9496
:101BE000740D81E00E94740D86E064EE76E00E9440
:101BF0007E0D8CE00E94740D8AE00E94740D8AE0D4
:101C00006BE471E00E947E0D1330B1F482E30E9418
:101C1000740D84E00E94740D84E06AEE76E00E9408
:101C20007E0D86E30E94740D84E00E94740D84E0B2
:101C300066EF76E00E947E0D86E066E571E00E9428
:101C40007E0D80912E0690912F06885592400E941D
:101C5000E813DF91CF911F910895CF92DF92EF9219
:101C6000FF920F931F93CF93DF930E9451296093AC
:101C70002A0670932B0680932C0690932D06809154
:101C8000E906982F92959F709F5B909353018F70F8
:101C90008F5B809354011092EA060E94131110E0AA
:101CA000109221060E9451296B01C8C00E94AF10FA
:101CB000EC0180912106882309F4DDC0209709F406
:101CC000BDC0CE010E941614009709F4D4C0B6C05E
:101CD00081E095C0C634D10508F4A0C080915102BE
:101CE000833409F09BC080915802823009F096C07D
:101CF00020915C0230915D0240915E0250915F0242
:101D000080912A0690912B06A0912C06B0912D0669
:101D1000281739074A075B0709F080C080914803FC
:101D2000853309F07BC080914A03823021F08530F1
:101D300009F074C067C08AEE96E068E672E00E941F
:101D40001C26A8E4B3E05EE2E52E52E0F52EEC0E90
:101D5000FD1E11960C911197ED0122968C91863003
:101D600099F0873030F4813049F0833009F03FC07A
:101D700008C0833361F08633D1F534C08EEE96E02F
:101D800033C082EF96E030C08AEF96E02DC010920B
:101D90002606109227061092280610922906FD01A9
:101DA00032969D012A5F3F4F60E070E0CB01419188
:101DB000640F711D811D911D982F872F762F662727
:101DC000E217F307A1F728EE33E040E050E00E946D
:101DD0000D2C609326067093270680932806909317
:101DE000290605C086EF96E0BE010E941C26DE0192
:101DF000A00FB11DAE15BF0508F4ABCF83E00E9464
:101E00008E0D0CC0809321060E94512960932206FA
:101E10007093230680932406909325068091EA060A
:101E2000882361F08091F206882321F082EF96E00A
:101E30000E940D140E94D71181E014C08091EA061F
:101E4000882339F50E9451296C197D0987E2603198
:101E50007807F8F40E946110882381F327CF0E944D
:101E6000D71180E0DF91CF911F910F91FF90EF90FC
:101E7000DF90CF90089580912106813009F42ACF18
:101E8000813008F425CF833009F424CF863031F631
:101E90001FCF1F5F133009F003CFE1CFF89425B1B6
:101EA00081E090E0A0E0B0E00090320604C0880F2E
:101EB000991FAA1FBB1F0A94D2F78095822385B968
:101EC000089525B181E090E0A0E0B0E000903206F6
:101ED00004C0880F991FAA1FBB1F0A94D2F7282B92
:101EE00025B9789408958EBD0DB407FEFDCF0895F1
:101EF0001F93DF93CF9300D0CDB7DEB7182F4A835F
:101F000069830E944E0F6981862F8F71812B0E94F9
:101F1000730F4A81842F0E94730F0E94610F0F90EC
:101F20000F90CF91DF911F9108950F931F93CF933F
:101F3000DF93EC018B010E944E0F8AE30E94730F26
:101F400008C080E00E94730F8EB5F80181938F0165
:101F500021972097B1F70E94610FDF91CF911F91D8
:101F60000F9108950F931F93CF93DF93EC018B0193
:101F70000E944E0F8AE70E94730F06C0F8018191FC
:101F80008F010E94730F21972097C1F70E94610F64
:101F9000DF91CF911F910F9108951F93182F282F34
:101FA00030E0207630706091330670E026173707F6
:101FB00099F080EA6FE143E00E94780F1076109369
:101FC0003306412F50E085E0559547958A95E1F716
:101FD00080E86FE10E94780F1F9108951F93DF93AF
:101FE000CF930F92CDB7DEB7182F69830E94CD0F24
:101FF00080E4612F49810E94780F0F90CF91DF918B
:102000001F9108951F93DF93CF930F92CDB7DEB743
:10201000182F79830E94EE0F812F8F5F7981672FB0
:102020000E94EE0F0F90CF91DF911F9108951F93A3
:10203000DF93CF930F92CDB7DEB7182F0E944E0FCC
:10204000812F8F710E94730F80E00E94730F17FF22
:1020500003C080E00E94730F8EB589830E94610FD8
:1020600089810F90CF91DF911F9108951F93182FB1
:102070000E94CD0F812F0E9417101F9108958AE0B2
:1020800061E00E947E288BE061E00E947E288DE066
:1020900061E00E947E288CE060E00E947E288BE058
:1020A00061E00E94A2288BE060E00E94A2288DE0FF
:1020B00060E00E94A22880E58CBD8DB581608DBD59
:1020C000089584ED61E10E94EE0F82ED61E00E94CF
:1020D000EE0F8AEE0E94361080FDFBCF82ED60E0AD
:1020E0000E94EE0F89ED0E94361091E082FF90E091
:1020F000892F0895CF93DF93EC010FC08CE10E94EC
:10210000361081FF0AC080E86FE140E80E94780F36
:1021100080EA6FE140E80E94780F8FE10E9417107B
:1021200083FDECCF82E060E07CE00E940210BE0103
:102130006050744F86E00E9402108AE760E040E041
:102140000E94780FCE016EE272E00E94B20F80E82A
:102150006FE148E00E94780FDF91CF9108950F93CF
:102160001F93DF93CF9300D000D000D0CDB7DEB760
:1021700089E30E943610882309F447C06091340631
:102180007091350680E00E94021086E090E0BE016A
:102190006F5F7F4F0E94950F89819A8190933506DA
:1021A000809334068B819C8100913006109131061A
:1021B0002D8127FF0DC00497015010408017910713
:1021C00008F48C01C8016EE272E00E94950F02C013
:1021D00000E010E0F801E25DFD4F108260913406EE
:1021E000709135068CE06130780724F08CE06FEF59
:1021F0007BE003C0615070408CE00E94021080E8D8
:102200006EE140E40E94780F02C000E010E0C801D7
:1022100026960FB6F894DEBF0FBECDBFCF91DF91EB
:102220001F910F91089588E361EB0E94EE0F0895CE
:102230000F931F93DF93CF930F92CDB7DEB78B0130
:1022400090933106809330060CB406FC04C0498399
:102250000E943F10498148504093320624B181E0EA
:1022600090E0A0E0B0E004C0880F991FAA1FBB1F38
:102270004A95D2F7282B24B90E94610F8FEF60E0B6
:102280004FEF0E94780F62E070E080E090E00E94E3
:1022900085298DE10E9417108823D9F31092350605
:1022A0001092340688E060E070E00E9402108CE03A
:1022B00060E070E00E9402108AE06FEF7BE00E9415
:1022C000021084E060E07CE00E94021086E06FEF84
:1022D00071E10E9402100E94131188E26FE370E323
:1022E0000E94021080E369EF77EF0E94021080ECF9
:1022F0006DE00E94EE0F81EC60E00E94EE0F80E83E
:1023000062EC42E30E94780F86EC62E17CE00E947E
:10231000021084EC62E10E94EE0F8AEC6CED75E035
:102320000E94021084EEF80160810E94EE0F85EE9B
:10233000F80161810E94EE0F82EEF80162810E9435
:10234000EE0F83EEF80163810E94EE0F80EEF8013C
:1023500064810E94EE0F81EEF80165810E94EE0F0C
:1023600084ED60E10E94EE0F86ED60E071E00E9476
:1023700002108AEE0E94361080FDFBCF8FE10E9492
:10238000CD0F80E86BE140EC0E94780F80E86FE1B0
:1023900044E00E94780F82E70E943610863008F0F1
:1023A0008F5F0F90CF91DF911F910F91089588E378
:1023B00060EB0E94EE0F0895CF92DF92EF92FF92B2
:1023C0000F931F93CF93DF93FA0170E0625D7D4F0F
:1023D000213021F49A01275F3F4F05C0223031F4AC
:1023E0009A012250304040E050E003C020E030E04D
:1023F000A901DB01EF0110C0DC90CC241196EC9018
:102400001197FF24EC28FD2800E010E02E0D3F1D61
:10241000401F511F12962297C230D10568F7DF0185
:10242000AE7FA60FB71FE0FF0FC0EC90FF2400E0C7
:1024300010E0102F0F2DFE2CEE2402C040E050E0E3
:102440002E0D3F1D401F511F7A0100271127E11457
:10245000F1040105110591F720953095E82FF0E082
:10246000E25DFD4F30832183DF91CF911F910F916A
:10247000FF90EF90DF90CF90089510924602109257
:10248000470280E480934202109243028093440208
:1024900088E16EE044E150E020E00E94DC11089504
:1024A00020915202309150023093520220935002F8
:1024B00020915302309151023093530220935102E4
:1024C000E8E5F2E02291820F911D24818483662346
:1024D00011F0208301C0108222E0E435F20719F0E8
:1024E000892F9927EFCF109260021092610280E548
:1024F00080935C02089590913E0280E020913F021B
:1025000030E0282B392B80915C0290E0F4E0959527
:102510008795FA95E1F7880F991F880F991F281B57
:10252000390B2451304037FF02C020E030E0C901B0
:102530000895CF93DF93BC01CEE2D2E0CE010E949A
:102540002726CE01069664EE76E00E942726DF91CC
:10255000CF9108950F931F93CF93DF938B010E9428
:102560009912CCE4D2E0CE01B8010E941C26CE0123
:1025700004976AEE76E00E941C26DF91CF911F91AE
:102580000F9108950F931F93CF93DF9304E312E00D
:10259000C8010E949912E8016496C8014896BE01DC
:1025A0000E941C26CE016AEE76E00E941C260E9444
:1025B0003D12DF91CF911F910F910895CF93DF933B
:1025C000EC01889690933E0280933F020E943D1258
:1025D0001092600210926102AE01445E5F4F82E38E
:1025E0006AE122E00E94DC11CE01C6960E947A10B8
:1025F000DF91CF910895262F206120935D026430F2
:1026000021F0009711F481E090E061E00E94501207
:1026100010923E0288E280933F020E94C21284E040
:1026200080935E0210925F0282E36AE14CE150E027
:1026300022E00E94DC1186E390E00E947A10089567
:10264000CF93DF93EC01809141069091420660E0C8
:102650000E94FB1289E180935D02CE010E94DE128E
:10266000DF91CF9108951F93CF93DF939C01162F95
:1026700083E496E0B9010E94AA12CAE3D2E088E09E
:1026800080933A0210923B02CE01029669E878E00C
:1026900049E050E00E94992C8CE480933F0281E154
:1026A000809345020E943D12109252028BE7809364
:1026B00053028AE080935002109351021092540208
:1026C00088E3809355021092560210925702CE0171
:1026D0004E9620E3FC0111922A95E9F762E679E033
:1026E0004AE050E00E94992C88E26AE140E450E020
:1026F00021E00E94DC118AE590E00E947A10DF91CF
:10270000CF911F910895662321F02091530226173F
:10271000D9F4209154022223B9F420915502283390
:1027200099F4209151022B3789F4FC0180918002A9
:102730008383809181028283809182028183809150
:102740008302808381E0089580E0089580E0089509
:10275000EF92FF920F931F93CF93DF93182F092FC0
:10276000EB01F42EE52E83E496E00E94AA12888104
:10277000807F803E31F48EE292E06EED71E00E9447
:10278000272688E080933A0210923B028CE392E085
:1027900069E878E049E050E00E94992C10923E02EE
:1027A00081E180934502E0925202F092530200933D
:1027B000500210935102109254021092560210923D
:1027C0005702DF91CF911F910F91FF90EF900895E5
:1027D0001F93CF93DF93EC014C9690933E02CE0172
:1027E0001C2F845E80933F020E943D12CE0108960A
:1027F00090935402185F10935502AE01405F5F4FF3
:1028000088E26AE121E00E94DC11CE018A960E94F2
:102810007A10DF91CF911F910895BC0181E08093E0
:10282000360682EF96E00E941C260895DF92EF9212
:10283000FF920F931F93CF93DF938C01009709F0C2
:10284000B5C0809136068570E9F180916201909162
:1028500063010097B9F50E946110882399F18EED0C
:1028600091E00E94991288E080933A0216E010935A
:102870003B028CE392E061E878E048E050E00E949F
:10288000992CCEE4D2E0DE011D921A95E9F7CE0133
:102890000A9764EE76E00E942726CE01069662EF44
:1028A00076E00E941C26CE0104976AEE76E00E9434
:1028B0001C26809136068860809336068AE290E076
:1028C0000E947A1080916201909163010196909329
:1028D00063018093620180913706813009F024C240
:1028E0008091360681FF20C212E010933706809156
:1028F00064018F5F809364018F71009138060295A7
:10290000000F007E082BD0903906F0903A0683E441
:1029100096E06EEF76E00E94AA12E8E0EE2EE092DA
:102920003A0210923B028CE392E069E878E049E0D9
:1029300050E00E94992C8CE280933F0286E08093C5
:1029400045020E943D12D0925202F09253028BE057
:102950008093500200935102E4E5F2E0DF011D9202
:10296000EA94E9F780916501809356028D5F809328
:10297000650180E680935C0210935D0283E08093A2
:102980005E0210925F021092600210926102109239
:102990006202109263021093640284E080936502E5
:1029A0001093660286E2809367028DC18932910599
:1029B00008F4BAC1E0903A02BE2DB83009F0BFC1A8
:1029C00080913B02863009F0BAC184E592E06AEE5C
:1029D00076E044E050E00E94A22C009709F0AFC1DD
:1029E00080914302813029F584E392E00E9499129C
:1029F0001092420282E0809343028EE492E064E40B
:102A000072E00E94272684E492E064EE76E00E9461
:102A1000272684E592E06AE472E00E941C268AE49C
:102A200092E06AEE76E00E941C268AE290E00E9424
:102A30007A108091360683FF77C1109143021230DD
:102A400009F072C18AE492E062EF76E044E050E07F
:102A50000E94A22C009709F067C183E496E064E429
:102A600072E00E942726109336065EC1EE2DE830F4
:102A700009F05AC180913B02882309F055C1809129
:102A80003C02853409F050C18CE492E06AEE76E0B5
:102A900044E050E00E94A22C009709F045C18091CB
:102AA00045028130F9F4909150029830D9F4E091C8
:102AB0003B06F0913C06309719F088E492E00995C6
:102AC0000E94C2121092500290915202983F28F038
:102AD000809153028F5F80935302985F90935202CC
:102AE000C801FAC00633110518F4863009F01CC17C
:102AF000209152022B3009F0A4C088E492E06EEFDE
:102B000076E044E050E00E94A22C009709F00CC14E
:102B1000E0905D02FF24E2FE13C0E0913D06F091DB
:102B20003E06309709F484C08091530282958695C1
:102B3000877063E040E050E020E030E0099578C025
:102B40000E947B12EC0180913706823079F5C70133
:102B50008271907082319105E9F480E090E060E04C
:102B60000E94FB1288E180935D02E0913F06F091A4
:102B70004006309739F08091510282958695877092
:102B8000099502C080E090E023E0209337060E9480
:102B9000DE12CAC081E080933706E4FC03C0CE0198
:102BA000019602C080E090E064E0BCC0833091F503
:102BB000209781F1E0913D06F0913E06309751F16A
:102BC00040915C0250E074E0559547957A95E1F7A5
:102BD000440F551F440F551FC80108974E5D5F4FA6
:102BE0008417950708F4AC01CE01840F951F0817D0
:102BF000190720F49801241B350B01C09E01809118
:102C0000530282958695877060E00995882311F0BC
:102C1000CE010BC080913706853009F485C08091C4
:102C20005D0280FF09C0CE01019669E00E94FB129F
:102C300085E08093370678C0209709F477C0CE01ED
:102C400070C04091B60130E08091B70190E0281744
:102C5000390709F069C080915302841709F064C0F4
:102C6000F0905D02F1FE3BC010923E028CE2809338
:102C70003F020E94C21282E180935D0281E090E0F7
:102C800060E00E94501210925402109255028091FE
:102C9000650180935602109257028D5F8093650103
:102CA00082E08093640284E08093650285E08093F3
:102CB00066021092670290E690935C0280935E0237
:102CC00088E780935F0282E36AE140E250E022E01D
:102CD0000E94DC118AE390E00E947A1025C0F4FE85
:102CE00023C00E947B129093420680934106009776
:102CF000A1F080915C02C82FD0E054E0D595C79533
:102D00005A95E1F7CC0FDD1FCC0FDD1FA2960850BE
:102D100010400C171D0750F407C0F0FE05C080E0FE
:102D200090E060E00E94FB12C0E0D0E0CE01DF91B5
:102D3000CF911F910F91FF90EF90DF9008950A328D
:102D4000110508F093CEF0CFE091A306F091A40610
:102D5000099508950F931F93CF93DF9308E611E031
:102D6000C0E0D0E086EA96E0BE010E94D521F801DD
:102D700081938F012196C431D105A1F7DF91CF91C5
:102D80001F910F9108950F931F93CF93DF930CE73B
:102D900011E0C3E1D0E086EA96E0BE01F80142917D
:102DA0008F010E94D9212197FFEFCF3FDF0799F7CD
:102DB000DF91CF911F910F910895209179012223E6
:102DC00011F130E02150304081E090E002C0880FE6
:102DD000991F2A95E2F7282F209530915F0623232B
:102DE00020935F064091770130E0E32FF0E0E15A55
:102DF000F94F5081552321F0822B80935F0608956F
:102E00003F5F431790F70895E82FE695E695E6951E
:102E10008770F0E0662361F0E15AF94F21E030E07D
:102E200002C0220F331F8A95E2F78081822B0CC0EB
:102E3000E15AF94F21E030E002C0220F331F8A959A
:102E4000E2F720958081822380830E94DD16089519
:102E50009091770180E0E82FF0E0E15AF94F10827D
:102E60008F5F9817C0F70E94DD160895EF92FF92CA
:102E70000F931F93CF93DF9387E060E00E94A22817
:102E8000C2E6D6E080916701882331F080915D062B
:102E9000882311F4888101C080E007E010E0E82E6B
:102EA000FF2486E060E00E94A228B701002E02C045
:102EB000759567950A94E2F76170707085E00E94DD
:102EC000A22886E061E00E94A228015010408FEF06
:102ED0000F3F180731F7219786E0CE35D80791F6D6
:102EE00087E061E00E94A228DF91CF911F910F91AE
:102EF000FF90EF9008959091770180E0E82FF0E047
:102F0000E15AF94F10828F5F9817C0F70E94DD16C3
:102F10000E9436170895CF93DF93EC0106C089E431
:102F200096E040E050E00E94FC2BFE012196649167
:102F30006623A9F7DF91CF910895EF92FF920F9347
:102F40001F93CF93DF93182F092F462F89E496E024
:102F500060E00E94B820C801E92EE7017E01F82E4A
:102F6000E70106C089E496E040E050E00E94FC2BB7
:102F70007E01E11A8E2DFE0121966491662391F760
:102F8000992787FD9095C0E1D0E0C81BD90B08C0F8
:102F900089E496E060E240E050E00E94FC2B21973B
:102FA000D7FFF6CFDF91CF911F910F91FF90EF9058
:102FB00008951F93CF93DF9310E023C082E39BE03B
:102FC00061E00E949D1789E496E060E041E00E9484
:102FD000B820BE016F5F7F4F89E496E04AE050E081
:102FE0000E94F22B0E942817812F61E00E94041793
:102FF0000E94361768E873E180E090E00E9485291E
:103000001F5F2091770130E02F5F3F4F73E0220F69
:10301000331F7A95E1F7C12FD0E0C217D30774F2BE
:1030200010E0F9CFCF93DF93EB0160E00E949D1792
:10303000CE0161E00E949D17DF91CF910895FF922C
:103040000F931F93CF93DF938C01462F89E496E073
:1030500060E00E94B820E801E3E0FE2E699189E477
:1030600096E04AE050E00E94B42B89E496E06EE2DC
:1030700040E050E00E94FC2BFA9481F789E496E04E
:10308000F80163814AE050E00E94B42B8CEE9AE094
:103090000E948B17DF91CF911F910F91FF900895A0
:1030A0000F931F93CF93DF93482F162F89E496E059
:1030B00060E00E94B82080915C06882329F489E4AE
:1030C00096E06CE271E013C089E496E060E371E0A1
:1030D0000E94182B60915C0689E496E070E04AE05B
:1030E00050E00E94F22B89E496E062E371E00E94D6
:1030F000182B80916701882319F482EE9AE006C0AC
:1031000080915D06882329F088ED9AE00E948B1754
:103110001BC0E0915C06F0E0E15AF94F808108E0C5
:10312000C82FD0E09E0120FF02C0612F01C06FE5D3
:1031300089E496E040E050E00E94FC2B015021F031
:10314000D595C7958C2FECCF82ED9AE00E948B1716
:1031500083E0DF91CF911F910F910895CF93DF937B
:10316000EC0189E496E060E040E00E94B820FE01B6
:10317000EE0FFF1FE458FE4F808191810E948B1754
:10318000C130D10549F0C130D1055CF1CE010C97B9
:103190008230910530F518C080916901C82FD0E0C8
:1031A0002C97D7FD07C089E496E06BE240E050E041
:1031B0000E94FC2B89E496E0BE014AE050E00E94A8
:1031C000F22B8EEC9AE01DC0C859DE4F688189E46D
:1031D00096E070E04AE050E00E94F22B8AEC9AE020
:1031E00010C0FE01EC58F54FE491C859DE4FE4FFE2
:1031F0000BC08881882319F086EC9AE002C083EC2A
:103200009AE00E948B1708C0688189E496E070E01C
:103210004AE050E00E94F22B8EEB9AE00E948B175E
:1032200089E496E06FE040E00E94B820DF91CF9102
:103230000895AF92BF92DF92EF92FF920F931F9388
:10324000DF93CF9300D0CDB7DEB77C01D22E80E0E4
:103250004A8369830E94DC288C0169814A8162303B
:1032600009F443C0662321F020E0AA24BB240AC04D
:10327000E016F10664F5DD2011F080E801C080E081
:10328000482B26C0E016F106CCF42223B9F080E2E8
:10329000A81683E0B80691F080E029834A830E9453
:1032A000DC288C0161E070E080E090E00E948529DC
:1032B0000894A11CB11C29814A81E4CFDD2029F4A6
:1032C000E0E2AE16E3E0BE061CF0406801C040E05C
:1032D000842F0F900F90CF91DF911F910F91FF904E
:1032E000EF90DF90BF90AF900895DD2009F621E0C8
:1032F000BCCFEF92FF921F93DF93CF930F92CDB786
:10330000DEB7182F2091A506207880E029830E943F
:10331000DC287C0161E070E080E090E00E9485297B
:10332000298183ECE81681E0F8062CF082EC91E02C
:10333000612F41E012C0EDE2EE16E1E0FE062CF056
:103340008CE291E0612F42E008C0F7E9EF16F1044A
:103350003CF086E990E0612F44E00E94191901C019
:1033600080E02091A50630E02F703070482F50E0AB
:103370002115310541F44F7050704115510559F038
:10338000982F906409C04F7050704115510519F481
:10339000982F906201C0982F8093A506892F0F90D7
:1033A000CF91DF911F91FF90EF900895FF920F93BF
:1033B0001F93CF93DF93F82E092F0E94AE18802F12
:1033C0000F2D182FC4E1D0E082E00E947919482F18
:1033D00050E09A012F7030702230310599F024307E
:1033E0003105C9F02130310561F5F801E459F64F96
:1033F000E491D801A859BE4F8C91E81729F18F5F4D
:103400008C9322C0F801E859FE4F90819923C9F0AE
:103410009150908316C086FF14C087FF05C00E949C
:10342000C316FF24F39411C0C8010196BE010E9487
:103430002C2C8C01FC01EC58F54FE491E0FFF4CF0B
:1034400003C0882309F4C0CFFF24F801EC58F54FDE
:10345000E491E0FF05C089E496E00E949E2004C04C
:1034600089E496E00E94A720C8010E94AE18FF20C0
:1034700009F4AACF89E496E00E94A720DF91CF91BA
:103480001F910F91FF900895EF92FF921F93CF939A
:10349000DF93182FE12EE7017E01F92EE70106C028
:1034A00060587F4F86EA96E00E94D921CE01811BA9
:1034B0004991682F70E0442399F760587F4F86EA5E
:1034C00096E00E94D921DF91CF911F91FF90EF905C
:1034D00008950E949C2490E0059667E070E00E94A9
:1034E0002C2C08957F928F929F92AF92BF92CF9291
:1034F000DF92EF92FF920F931F93DF93CF93CDB79D
:10350000DEB761970FB6F894DEBF0FBECDBF782E41
:103510000E9412247B018C010E94FF222AE0C22E0D
:10352000D12CB6010E942C2C605D6983C801B701C3
:103530000E94FF22B6010E942C2C805D8A838AE3C0
:103540008B83C801B7010E94F922B6010E942C2C7E
:10355000605D6C83C801B7010E94F922B6010E9428
:103560002C2C805D8D8380E28E839091660199235F
:10357000B1F5C801B7010E94DE2268EE73E00E9437
:103580002C2C605D6F83C801B7010E94DE2264E6C7
:1035900070E00E942C2CCB01B6010E942C2C805D87
:1035A0008887C801B7010E94DE22B6010E942C2C38
:1035B000CB01B6010E942C2C805D8987C801B70120
:1035C0000E94DE22B6010E942C2C805D8A878DE24B
:1035D0008B879CE0892E912C8C0E9D1E1BC08F83A7
:1035E0000E94691AE82FF0E0EE0FFF1FEC55FE4F26
:1035F00080819181DE01189602C0EC93D401FC0118
:103600000196E4914D010894811C911CEE23A9F7C9
:1036100080E28C93C801B7010E94E722BAE0AB2E8A
:10362000B12CB5010E942C2C605DF40161936F01F7
:10363000C801B7010E94E722B5010E942C2C805DD1
:10364000F401818346010894811C911C8DE2F601EE
:10365000818364010894C11CD11CC801B7010E9478
:10366000ED22B5010E942C2C605DF40161834601BE
:103670000894811C911CC801B7010E94ED22B5017C
:103680000E942C2C805DF6018183F401118289E473
:1036900096E060E0472D0E94B82089E496E0BE01E4
:1036A0006F5F7F4F0E94182B61960FB6F894DEBFB4
:1036B0000FBECDBFCF91DF911F910F91FF90EF9083
:1036C000DF90CF90BF90AF909F908F907F900895A4
:1036D0002F923F924F925F926F927F928F929F9222
:1036E000AF92BF92CF92DF92EF92FF920F931F9310
:1036F000DF93CF93CDB7DEB765970FB6F894DEBFF3
:103700000FBECDBF80916601898B1092660180E06B
:103710000E94721A84EA9AE061E00E949D1789E48F
:1037200096E00E949E2089E496E060E040E00E94DE
:10373000B820DE011196E4EFF1E08AE001900D92ED
:103740008150E1F789E496E0698140E00E94B82069
:103750000E9412245B016C010E94512928EE33E083
:1037600040E050E00E943F2CDA01C9010896A11DFB
:10377000B11D8B879C87AD87BE87882499240CC296
:103780008114910439F5C601B5010E94FF223C0164
:10379000C601B5010E94F9222C01C601B5010E94A3
:1037A000F3221C01C601B5010E94ED229C01C60155
:1037B000B5012C8B3D8B0E94E7228C01C601B5011F
:1037C0000E94DE227C01C301019668E170E00E9444
:1037D0002C2C82C091E08916910449F5C601B501EF
:1037E0000E94FF222C01C601B5010E94F9223C0172
:1037F000C601B5010E94F3221C01C601B5010E9459
:10380000ED229C01C601B5012C8B3D8B0E94E72265
:103810008C01C601B5010E94DE227C01C301019624
:103820006CE370E00E942C2CBC01C20156C0A2E0E7
:103830008A16910421F5C601B5010E94FF223C01C0
:10384000C601B5010E94F9222C01C601B5010E94F2
:10385000F3221C01C601B5010E94ED229C01C601A4
:10386000B5012C8B3D8B0E94E7228C01C601B5016E
:103870000E94DE227C010894E11CF11C2CC0B3E004
:103880008B16910471F5C601B5010E94FF223C011F
:10389000C601B5010E94F9222C01C601B5010E94A2
:1038A000F3221C01C601B5010E94ED229C01C60154
:1038B000B5012C8B3D8B0E94E7228C01C601B5011E
:1038C0000E94DE227C01C8016CE070E00E942C2C7A
:1038D0008C010F5F1F4FC301B201A1012C893D89EB
:1038E0002BC0C601B5010E94FF222C01C601B50103
:1038F0000E94F9221C01C601B5010E94F3229C8797
:103900008B87C601B5010E94ED223C01C601B501BD
:103910000E94E7228C01C601B5010E94DE227C01D3
:10392000C3016FE170E00E942C2C9C012F5F3F4F80
:10393000C201B1014B855C850E94BC2400C1811489
:10394000910439F5C601B5010E94FF223C01C60170
:10395000B5010E94F9222C01C601B5010E94F32293
:103960001C01C601B5010E94ED229C01C601B501F2
:103970002C8B3D8B0E94E7228C01C601B5010E9471
:10398000DE227C01C301479668E170E00E942C2C86
:1039900083C081E08816910449F5C601B5010E94F3
:1039A000FF222C01C601B5010E94F9223C01C6018B
:1039B000B5010E94F3221C01C601B5010E94ED224F
:1039C0009C01C601B5012C8B3D8B0E94E7228C0126
:1039D000C601B5010E94DE227C01C301CB966CE3D7
:1039E00070E00E942C2CBC01C20157C092E08916E5
:1039F000910421F5C601B5010E94FF223C01C601D8
:103A0000B5010E94F9222C01C601B5010E94F322E2
:103A10001C01C601B5010E94ED229C01C601B50141
:103A20002C8B3D8B0E94E7228C01C601B5010E94C0
:103A3000DE227C010894E108F1082DC0A3E08A167B
:103A4000910489F5C601B5010E94FF223C01C6011F
:103A5000B5010E94F9222C01C601B5010E94F32292
:103A60001C01C601B5010E94ED229C01C601B501F1
:103A70002C8B3D8B0E94E7228C01C601B5010E9470
:103A8000DE227C01C8010A966CE070E00E942C2CBA
:103A90008C010F5F1F4FC301B201A1012C893D8929
:103AA0000E94BC2449C0C601B5010E94FF222C011E
:103AB000C601B5010E94F9221C01C601B5010E9490
:103AC000F3229B8B8A8BC601B5010E94ED223C013B
:103AD000C601B5010E94E7228C01C601B5010E9412
:103AE000DE227C01C3014D966FE170E00E942C2C18
:103AF0009C012F5F3F4FC201B1014A895B89D0CF42
:103B000026FF1AC0BF85B7FD71C0C401019665E0EC
:103B100070E00E942C2C4C01FC01EE0FFF1F81E095
:103B200090E08C0F9D1FE80FF91F89E496E06081FB
:103B300040E00E94B82003C09F85992351F100E026
:103B40000E9412245B016C0180E00E94721AF40151
:103B5000EE0FFF1FA1E0B0E0AC0FBD1FEA0FFB1F8F
:103B600089E496E0608140E00E94B8200E945129DB
:103B700028EE33E040E050E00E943F2CDA01C9011A
:103B80000896A11DB11D8B879C87AD87BE8700233A
:103B900079F59889992361F50E94512928EE33E03F
:103BA00040E050E00E943F2CA1E0A88B8B859C85D3
:103BB000AD85BE85281739074A075B0709F0188AC3
:103BC00082E00E9479198F87282F30E0C9018F7019
:103BD00090708230910509F4B2CE8430910509F4D9
:103BE0008FCF8130910509F0A7CFCACD01E0A8CFD2
:103BF00089E496E00E94A72089E496E00E94E620EE
:103C000099899093660165960FB6F894DEBF0FBE52
:103C1000CDBFCF91DF911F910F91FF90EF90DF907B
:103C2000CF90BF90AF909F908F907F906F905F905C
:103C30004F903F902F9008959B01BC0160567F4F9D
:103C4000C90150E00E94ED2C0895DF93CF9300D07E
:103C500000D0CDB7DEB790E053E0880F991F5A959A
:103C6000E1F70496BE016F5F7F4F44E00E941C1E87
:103C700069817A818B819C810F900F900F900F90BA
:103C8000CF91DF910895DF93CF9300D000D0CDB7CF
:103C9000DEB790E063E0880F991F6A95E1F7BE01F7
:103CA0006F5F7F4F44E00E941C1E69817A818B8187
:103CB0009C810F900F900F900F90CF91DF910895FE
:103CC0009B01BC0160567F4FC90150E00E94052D49
:103CD0000895DF93CF9300D000D0CDB7DEB74983EE
:103CE0005A836B837C8390E073E0880F991F7A95E9
:103CF000E1F70496BE016F5F7F4F44E00E94601EB3
:103D00000F900F900F900F90CF91DF910895DF9358
:103D1000CF9300D000D0CDB7DEB749835A836B83F1
:103D20007C8390E0E3E0880F991FEA95E1F7BE01FC
:103D30006F5F7F4F44E00E94601E0F900F900F90C6
:103D40000F90CF91DF9108951F93CF93DF9387E07A
:103D500061E00E947E2887E061E00E94A22886E060
:103D600061E00E947E2885E061E00E947E280E943A
:103D70007B178FE196E00E94450D10925C0681E072
:103D80008093660110925E068093670110925D0633
:103D9000C3E6D6E010E0812F40E050E0BA010E9477
:103DA000871E199219921F5F1032A9F789E496E0D5
:103DB00060E142E020E00E94EE20DF91CF911F9170
:103DC0000895DF92EF92FF920F931F93CF93DF93AB
:103DD000F82EE92E162F072FD42E8FE196E060E5FE
:103DE00070E00E945A0D8FE196E06E2D0E94210D29
:103DF0008FE196E06F2D0E94210DC801E92EE701A9
:103E00007E01F82EE70105C069918FE196E00E94DE
:103E1000210D7E01E11AED14B8F38FE196E00E94C6
:103E20005D0D6AE070E080E090E00E948529DF91FE
:103E3000CF911F910F91FF90EF90DF900895CF9257
:103E4000DF92EF92FF920F931F93DF93CF93CDB743
:103E5000DEB760970FB6F894DEBF0FBECDBF6B0123
:103E6000DE011196E4EEF1E020E101900D92215087
:103E7000E1F7082F192F7E010894E11CF11C07C0FF
:103E8000C801B70140E10E94E11E005F1F4F0C1501
:103E90001D05B0F360960FB6F894DEBF0FBECDBF20
:103EA000CF91DF911F910F91FF90EF90DF90CF9016
:103EB000089586EA96E060E070E00E94D5218F3098
:103EC00049F486EA96E063E170E00E94D5218823F8
:103ED00009F45FC00E94C31684E391E00E94441A73
:103EE00081E29BE062E17BE00E94121880E090E0BA
:103EF0006EEF7FE30E941F1F83E061E00E947E2837
:103F000083E061E00E94A22864EF71E080E090E02D
:103F10000E94852983E060E00E94A22883E060E09F
:103F20000E947E2883E061E00E94A22880E00E9437
:103F3000791990E08F7090708230910571F0843023
:103F4000910571F08130910539F582E09BE060E0E8
:103F50000E949D170E94D917089583E190E00DC03B
:103F600081EF9AE060E00E949D1760ED77E080E0CD
:103F700090E00E94852981E090E00E94D61980910E
:103F80007B01882349F0E091A306F091A4060995EE
:103F900008950E94AA16CACF0895CF92EF920F9368
:103FA00089E496E065E044E026E009E0A0E1EA2E3D
:103FB000F1E1CF2E0E94A4210F91EF90CF900895B0
:103FC000CF93DF93EC018C8160E00E94A22881E016
:103FD00090E00E94AC298C8161E00E94A22881E0DF
:103FE00090E00E94AC298C8160E00E94A22884E6C7
:103FF00090E00E94AC29DF91CF910895AF92BF92DB
:10400000CF92DF92EF92FF920F931F93CF93DF93A4
:104010007C018C010B5F1F4FC0E0D0E0A62EBB24BB
:104020006801F80181918F0161E00E947E28B5014D
:104030000C2E02C0759567950A94E2F76170F6013F
:1040400080810E94A2282196C430D10549F7C7017A
:104050000E94E01FDF91CF911F910F91FF90EF9091
:10406000DF90CF90BF90AF900895AF92BF92CF9264
:10407000DF92EF92FF920F931F93CF93DF937C0118
:104080008C010B5F1F4FC0E0D0E0A62EBB2468015F
:10409000F80181918F0161E00E947E28B5010C2E0C
:1040A00002C0759567950A94E2F76170F601808108
:1040B0000E94A2282196C830D10549F7C7010E9465
:1040C000E01FDF91CF911F910F91FF90EF90DF9054
:1040D000CF90BF90AF9008951F93CF93DF93EC01E3
:1040E000162F8A81642F0E94A2288B818F3F19F09E
:1040F00060E00E94A2288D8584FF05C0CE01612F5B
:104100000E9435200FC0212F30E084E0359527959F
:104110008A95E1F7CE01622F0E94FE1FCE01612F2A
:104120000E94FE1FDF91CF911F91089541E00E94F0
:104130006C20089540E00E946C200895FC01668583
:10414000262F2160268769600E949A200895FC012D
:1041500066856E7F668768600E949A200895FC01DC
:104160006685262F246026876C600E949A20089519
:10417000DF93CF93CDB7DEB728970FB6F894DEBFA5
:104180000FBECDBFFE013196A8E0B2E028E00D9051
:1041900001922150E1F7FC012189241710F4422FEC
:1041A0004150E42FF0E0EE0FFF1FEC0FFD1F2181C7
:1041B000260F2068622F0E949A2028960FB6F89446
:1041C000DEBF0FBECDBFCF91DF91089561E00E94A9
:1041D0009A2080ED97E00E94AC290895CF93DF9359
:1041E000EC01423018F08D8588608D87498B1A8AE2
:1041F000222329F0413019F48D8584608D8780E574
:1042000093EC0E94AC298A8160E00E94A2288C81F4
:1042100060E00E94A2288B818F3F19F060E00E942D
:10422000A2286D8564FD1DC0CE0163E00E94FE1FC3
:1042300084E991E10E94AC29CE0163E00E94FE1F57
:1042400084E991E10E94AC29CE0163E00E94FE1F47
:1042500086E990E00E94AC29CE0162E00E94FE1F38
:1042600016C06062CE010E949A2084E991E10E940A
:10427000AC296D856062CE010E949A2086E990E0AB
:104280000E94AC296D856062CE010E949A206D85E6
:104290006062CE010E949A2084E08E87CE010E9447
:1042A000AF20CE010E94E62082E08F87CE0166E03B
:1042B0000E949A20DF91CF9108956F927F928F9202
:1042C000AF92CF92EF920F931F93DF93CF93CDB71F
:1042D000DEB73C01162F842FF3014283238304832E
:1042E000E582C682A78280869D8591879E8592877A
:1042F0009F8593879889948761E00E947E28F301C7
:1043000083818F3F19F061E00E947E28F301848150
:1043100061E00E947E28112319F0F301158603C085
:1043200080E1F3018587C30160E141E020E00E9464
:10433000EE20CF91DF911F910F91EF90CF90AF9032
:104340008F907F906F9008958F92AF92CF92EF925F
:104350000F93CF93DF93A62F742F522F302FAE2CB5
:104360008C2CE2E0F2E0EC01F983E88300D000D08D
:10437000EDB7FEB73196CDB7DEB719821182128242
:10438000138261E04A2F2FEF072FE52EC32E0E94E4
:104390005D210F900F900F900F90DF91CF910F91B3
:1043A000EF90CF90AF908F900895CB010E94FD2C9D
:1043B0000895CB01642F0E940F2D08956F927F9274
:1043C0008F929F92AF92BF92CF92DF92EF92FF9225
:1043D0000F931F93CF93DF93EA012CE3E22EF12C8E
:1043E000012D112DA80197010E943F2C6883CA015D
:1043F000B901A80197010E943F2C6983CA01B90144
:1044000028E130E040E050E00E943F2C59016A0171
:104410006A83CA01B9016C5F7F4F8F4F9F4F27E0BE
:1044200030E040E050E00E943F2C6F5F6B83EE2451
:10443000FF24870140E0E4E6F0E090E9892E91E076
:10444000992E01C04F5F242F30E02E54384F83E067
:10445000682E712C622273226114710461F4C90107
:10446000BF010E942C2C009759F4C901B4010E948D
:104470002C2C009729F08DE691E0A0E0B0E004C07C
:104480008EE691E0A0E0B0E0E80EF91E0A1F1B1FC7
:10449000C701A0E0B0E0A816B906CA06DB0690F690
:1044A0004E836114710471F4C90164E670E00E94E6
:1044B0002C2C009761F4C90160E971E00E942C2C5A
:1044C000009729F08DE691E0A0E0B0E004C08EE610
:1044D00091E0A0E0B0E0E81AF90A0A0B1B0BD60144
:1044E000C5018E199F09A00BB10B7C018D01C9017B
:1044F00064E670E00E942C2C6C01C90160E971E057
:104500000E942C2CE0E1F2E060E0613049F461149B
:10451000710441F4C114D10439F4009729F002C0A8
:10452000208103C02CE101C02DE130E040E050E0EB
:10453000E216F3060407150740F0E21AF30A040B2B
:10454000150B6F5F31966C3001F76F5F6D83E394ED
:10455000EC82DF91CF911F910F91FF90EF90DF9050
:10456000CF90BF90AF909F908F907F906F90089565
:10457000EF92FF920F931F937B018C018091C006F5
:104580009091C106A091C206B091C306E816F90643
:104590000A071B0771F0C801B70145EB56E00E94FE
:1045A000DE21E092C006F092C1060093C20610938D
:1045B000C3061F910F91FF90EF9008950E94B822BB
:1045C0002091BB0630E02E54384FC90108950E9457
:1045D000B8228091BA0690E008950E94B822809196
:1045E000B90690E008950E94B8228091B50690E047
:1045F00008950E94B8228091B60690E008950E9426
:10460000B8228091B70690E008954F925F926F9222
:104610007F928F929F92AF92BF92CF92DF92EF9252
:10462000FF920F931F93CF93DF934C01DC011696FB
:10463000EC9016976E2D70E080E090E020E833E378
:1046400041EE51E00E940D2C5B016C01FF248701BB
:104650000E54184F22EB37E0E4E6F0E0C0E9D1E079
:104660001BC0C901837090700097A1F4C901BF01FC
:104670000E942C2C009731F4C901BE010E942C2C01
:10468000009741F480E891E5A1E0B0E0A80EB91EE2
:10469000CA1EDB1E2F5F3F4F2017310711F7D401D1
:1046A00015964C901597552497012E54384FC901F3
:1046B00064E670E00E942C2C7C01C90160E971E085
:1046C0000E942C2C8C01C1E0D0E043E0642E712CC0
:1046D0006222732227C0C230D10591F461147104A3
:1046E00079F4E114F10419F40115110549F480E895
:1046F0009BE3A6E2B0E0A80EB91ECA1EDB1E11C0E5
:10470000FE01E15FFD4F608170E080E090E020E815
:1047100031E541E050E00E940D2CA60EB71EC81EE8
:10472000D91E2196C415D505B4F2D40112966C9108
:1047300070E080E090E020E13EE040E050E00E9448
:104740000D2C7B018C01F401618170E080E090E030
:104750002CE330E040E050E00E940D2CE60EF71E06
:10476000081F191FD4018C91E80EF11C011D111DA9
:1047700014966C91149770E061507040882777FD13
:104780008095982F20E831E541E050E00E940D2C03
:10479000E60EF71E081F191FEA0CFB1C0C1D1D1D41
:1047A000B701C801DF91CF911F910F91FF90EF905A
:1047B000DF90CF90BF90AF909F908F907F906F9041
:1047C0005F904F9008959B01AC016093AB0670938E
:1047D000AC068093AD069093AE068091B2019091A5
:1047E000B301A091B401B091B501820F931FA41F32
:1047F000B51F8093AF069093B006A093B106B09317
:10480000B20682E090E09093B4068093B3060E94D3
:1048100051296093BC067093BD068093BE069093A9
:10482000BF060895EF92FF920F931F931AC02F5F58
:104830003F4F4F4F5F4F2093AB063093AC064093F2
:10484000AD065093AE06D801C70188519C4FAF4FBB
:10485000BF4F8093BC069093BD06A093BE06B09355
:10486000BF060E945129E090BC06F090BD06009161
:10487000BE061091BF066E197F09800B910B209127
:10488000AB063091AC064091AD065091AE06683E45
:10489000E3E07E07E0E08E07E0E09E0740F68091CF
:1048A000AF069091B006A091B106B091B20628175C
:1048B00039074A075B0758F1E091A906F091AA066B
:1048C000309729F10995611571058105910539F038
:1048D0001092A8061092A7060E94E32318C081E058
:1048E00090E02091B3063091B4062115310511F402
:1048F00080E090E09093B4068093B3068091A70681
:104900009091A80601969093A8068093A7066091BF
:10491000AB067091AC068091AD069091AE061F91EA
:104920000F91FF90EF9008950E9412240E94B822E8
:104930008091BA0690E008950E9412240E94B82245
:104940008091B80690E008950E9412240E94B82237
:104950008091B90690E008950E9412240E94B82226
:104960008091B60690E008950E9412240E94B82219
:104970008091B70690E00895EF92FF920F93F701B0
:10498000E436F1051CF0E25BF74001C07E96E0934F
:10499000BB060093BA062093B9068093B7066093CE
:1049A000B6064093B50685EB96E00E9405230E946B
:1049B000E3230F91FF90EF9008959093AA068093C0
:1049C000A9068091AB069091AC06A091AD06B0917E
:1049D000AE068093AF069093B006A093B106B09355
:1049E000B2060E94122408956093B2017093B3013D
:1049F0008093B4019093B501089590E0FC0123E009
:104A0000F595E7952A95E1F7EC53F94F877090708B
:104A100021E030E040E050E004C0220F331F441F8B
:104A2000551F8A95D2F78081822B808308951F932A
:104A3000182F03C0812F0E94FD241150D9F71F9118
:104A40000895CF92DF92EF92FF920F931F93DF931F
:104A5000CF9300D0CDB7DEB70D851E85EF84F888E3
:104A60009E012F5E3F4FF7018491882309F490C087
:104A70000894E11CF11C843259F0D8011496ED9190
:104A8000FC91159781931596FC93EE931497EBCFB9
:104A9000F7010894E11CF11C8491853409F43EC0AF
:104AA000863424F4843409F057C006C0863421F1DA
:104AB000833509F051C010C0B2E0CB2ED12CC20E0C
:104AC000D31EF80164817581D9018D919C914AE0D2
:104AD00050E00E94C42C47C0A2E0CA2ED12CC20EC6
:104AE000D31EF90160817181D80114968D919C913A
:104AF00015970E94AF2C37C0F9012E5F3F4F808180
:104B0000918106C0F801A481B5814D93B583A4833A
:104B1000FC01019644914423A9F7A5CFF9012E5F2A
:104B20003F4F808191810BC0D8011496ED91FC918B
:104B3000159781931596FC93EE931497C6016C011B
:104B40000894C11CD11C29833A830E94FD2C298121
:104B50003A81882349F787CFF801A481B5818D93E5
:104B6000B583A48380CFD80114968D919C9115971D
:104B7000FC0101900020E9F73197E81BF90BE80FE1
:104B8000F91FD8011596FC93EE93149796016BCFFD
:104B90000F900F90CF91DF911F910F91FF90EF90A9
:104BA000DF90CF900895CF92DF92EF92FF920F9314
:104BB0001F93DF93CF930F92CDB7DEB77C018B01AC
:104BC00088E349830E94172584EEC82E86E0D82EFC
:104BD000C601B8010E942726C701B60149810E947B
:104BE00018110F90CF91DF911F910F91FF90EF90CF
:104BF000DF90CF9008950F931F93CF93DF939C0185
:104C00008B01EA01009729F08AEE96E0B9010E9433
:104C10001C260115110519F0C8010E940D142097DA
:104C200029F08AEF96E0BE010E941C2681E0DF9108
:104C3000CF911F910F910895FB0120813181428115
:104C40005381FC0120833183428353830895282FAD
:104C5000392FD901862F972FFC0186E001900D9204
:104C60008150E1F70895FC01A22FB32F90E00CC012
:104C700011968C91882339F4319680818D3381F49B
:104C8000A22FB32F91E031968081882361F080328A
:104C900051F08A3041F0992341F45C91851741F33A
:104CA000A22FB32FF0CF9130C9F4A62FB72F50E029
:104CB000415050408A2F861B9191992369F0903280
:104CC00059F09A3049F0963239F0282F30E0241705
:104CD000350714F49D93EECF1C92089580E008955B
:104CE0001092260782E161E00E94A22883E161E040
:104CF0000E94A228E9EBF0E080818E7F8083808192
:104D00008D7F808380E28093B80085E48093BC002F
:104D100008954132B0F5909126079923E1F792E08A
:104D2000909326079FEF90932507109203074093D7
:104D30000407DB01E5E0F7E050E04E0F5F1F02C023
:104D40009D919193E417F507D9F790E0880F991F8B
:104D50008093020785EE8093BC00222321F080918E
:104D600026078230E1F3809125078F3F61F0809123
:104D70002507803251F080912507803341F483E08C
:104D8000089581E0089580E0089582E0089584E028
:104D900008956132A0F420912607243091F46093A5
:104DA0004B07DC01EEE4F7E070E06E0F7F1F02C0FE
:104DB0008D918193E617F707D9F780E0089581E098
:104DC000089582E00895882311F085EC01C085E8FC
:104DD0008093BC00089585ED8093BC008091BC0059
:104DE00084FDFCCF10922607089585EC8093BC00CB
:104DF0001092260708951F920F920FB60F9211245A
:104E00002F933F934F935F936F937F938F939F93D2
:104E1000AF93BF93EF93FF938091B90090E0887FA9
:104E200090708036910509F4C2C081369105E4F591
:104E30008832910509F47EC089329105C4F480312D
:104E4000910509F472C08131910544F4009709F489
:104E500013C18830910509F013C167C088319105ED
:104E600009F468C08032910509F00AC178C0803425
:104E7000910509F48AC0813491054CF48033910581
:104E800009F46FC08833910509F0FAC06EC080350F
:104E9000910509F46EC08835910509F47BC088340A
:104EA000910509F0EDC0EAC08839910509F4DAC02E
:104EB00089399105ECF48837910509F478C0893770
:104EC00091054CF48836910509F471C0803791053D
:104ED00009F0D6C06CC08838910509F4C3C0803988
:104EE000910509F46AC08038910509F0C9C065C010
:104EF000803B910509F48EC0813B91054CF4803ACA
:104F0000910509F46CC0883A910509F0B9C082C0D6
:104F1000803C910509F4AAC0883C910509F4A6C01B
:104F2000883B910509F0ACC08AC08091020780934C
:104F3000BB0013C09091030780910407981708F0F5
:104F40009DC080910307E82FF0E0EB5FF84F908160
:104F50009093BB008F5F8093030781E084C080E261
:104F600001C080E38093250789C088E380932507EB
:104F70004EC0809103079091BB00E82FF0E0EB5FFB
:104F8000F84F90838F5F8093030790910307809180
:104F9000040765C0809103079091BB00E82FF0E003
:104FA000EB5FF84F90838F5F8093030767C083E0C8
:104FB0008093260710922707D0CF80912707803251
:104FC00008F050C0809127079091BB00E82FF0E0D7
:104FD000E85DF84F90838F5F80932707BECF809165
:104FE0002707803230F4E0912707F0E0E85DF84FC2
:104FF00010820E94EB2660912707E0914807F0910C
:10500000490788E297E070E00995109227070E940F
:10501000F52636C084E08093260710924A07109246
:105020004B07E0914C07F0914D07099580914B0794
:10503000882329F481E080934B0710924E078091DA
:105040004A07E82FF0E0E25BF84F90819093BB00B5
:105050008F5F80934A0790914A0780914B0798177A
:1050600008F47BCF80E00E94E3260AC081E00E9422
:10507000E3261092260704C0109225070E94EB2613
:10508000FF91EF91BF91AF919F918F917F916F9120
:105090005F914F913F912F910F900FBE0F901F90F6
:1050A0001895833071F0843028F48130A1F082307B
:1050B00021F514C08630B1F08730D1F08430E9F4A6
:1050C00004C0809180008F7703C0809180008F7D25
:1050D00080938000089584B58F7702C084B58F7D5A
:1050E00084BD08958091B0008F778093B0000895BB
:1050F0008091B0008F7D8093B000089590E0FC0116
:10510000EB59F44F2491FC01EF5AF44FE491EE2354
:10511000C1F0F0E0EE0FFF1FED5CF44F859194912C
:10512000DC01662341F49FB7F8948C91209582238B
:105130008C939FBF08959FB7F8948C91822B8C938A
:105140009FBF08950F931F93DF93CF930F92CDB717
:10515000DEB7282F30E0F901E758F44F8491F901C8
:10516000EB59F44F14912F5A344FF9010491002355
:10517000E9F0882321F069830E9451286981E02F9A
:10518000F0E0EE0FFF1FE35CF44F85919491DC019A
:10519000662331F49FB7F8948C911095812304C055
:1051A0009FB7F8948C91812B8C939FBF0F90CF91D8
:1051B000DF911F910F9108958E3008F08E50877007
:1051C0009091B8019295990F990F907C982B90939C
:1051D0007C0080917A00806480937A0080917A00CC
:1051E00086FDFCCF2091780030917900932F80E0EC
:1051F00030E0282B392BC90108951F920F920FB66A
:105200000F9211242F933F934F935F936F937F934C
:105210008F939F93AF93BF93209172073091730741
:10522000409174075091750770917607DA01C901B2
:105230000296A11DB11D672F6A5F6D3730F06D5763
:10524000DA01C9010396A11DB11D60937607809311
:10525000720790937307A0937407B09375078091BA
:105260006E0790916F07A0917007B091710701963A
:10527000A11DB11D80936E0790936F07A0937007D7
:10528000B0937107BF91AF919F918F917F916F9173
:105290005F914F913F912F910F900FBE0F901F90F4
:1052A00018958FB7F8942091720730917307409149
:1052B0007407509175078FBFB901CA0108959FB750
:1052C000F89420916E0730916F07409170075091CC
:1052D000710786B5A89B06C08F3F21F02F5F3F4F17
:1052E0004F4F5F4F9FBF542F432F322F2227280F3E
:1052F000311D411D511D83E0220F331F441F551FD7
:105300008A95D1F7B901CA010895EF92FF920F93E0
:105310001F93CF93DF937B018C010E945F29EB01E8
:105320000FC00E945F296C1B7D0B83E0683E7807ED
:1053300038F00894E108F10801091109C851DC4F5F
:10534000E114F1040105110561F7DF91CF911F917F
:105350000F91FF90EF900895019739F0019729F090
:10536000880F991F01970197F1F70895789484B5F4
:10537000826084BD84B5816084BD85B5826085BD51
:1053800085B5816085BDEEE6F0E080818160808337
:10539000E1E8F0E01082808182608083808181601A
:1053A0008083E0E8F0E0808181608083E1EBF0E0E1
:1053B000808184608083E0EBF0E080818160808385
:1053C000EAE7F0E08081846080838081826080836E
:1053D0008081816080838081806880831092C10099
:1053E0000895FC0182819381FC01E058FF4F2081E8
:1053F00031818E579F4FFC0180819181281B390B91
:105400002F773070C9010895FC0182819381FC01DE
:10541000EE57FF4F20813181FC01E058FF4F408162
:1054200051814217530731F0820F931FFC012081F5
:1054300030E002C02FEF3FEFC9010895DC01129662
:105440002D913C911397F901EE57FF4F8081918187
:10545000D901A058BF4F4D915C911197481759073A
:1054600059F0280F391FD9012C9101968F77907030
:105470009183808330E002C02FEF3FEFC901089590
:10548000DC0112968D919C911397FC01E058FF4F1F
:105490008E579F4FDC018D919C9111979183808352
:1054A0000895FC01A085B18521898C9190E0022EA0
:1054B00002C0959587950A94E2F780FFF6CF0484A1
:1054C000F585E02D60830895FB01E058FF4F408192
:1054D00051819A012F5F3F4F2F773070DB01AE571C
:1054E000BF4F0D90BC91A02D2A173B0731F0640FE0
:1054F000751FDB018C933183208308951F920F92D7
:105500000FB60F9211242F933F934F935F936F9396
:105510007F938F939F93AF93BF93EF93FF9380916C
:10552000C60067E777E00E94642AFF91EF91BF9180
:10553000AF919F918F917F916F915F914F913F912B
:105540002F910F900FBE0F901F90189580E292E060
:105550009093FC078093FB0787E797E09093FE0703
:105560008093FD0785EC90E0909300088093FF07FF
:1055700084EC90E0909302088093010880EC90E026
:10558000909304088093030881EC90E090930608C0
:105590008093050886EC90E09093080880930708B4
:1055A00084E08093090883E080930A0887E0809371
:1055B0000B0885E080930C0881E080930D08089526
:1055C0000F931F93CF93DF93EC01062F172F07C084
:1055D000E881F9810190F081E02DCE010995F80173
:1055E00061918F016623A1F7DF91CF911F910F91F8
:1055F0000895EF92FF920F931F93CF93DF937C0157
:10560000EB018A010BC06991D701ED91FC910190EA
:10561000F081E02DC70109950150104001151105D9
:1056200091F7DF91CF911F910F91FF90EF90089527
:10563000DC01ED91FC910280F381E02D0995089544
:105640006F927F928F929F92AF92BF92CF92DF9292
:10565000EF92FF920F931F93DF93CF93CDB7DEB7F7
:10566000A0970FB6F894DEBF0FBECDBF5C01CB0193
:10567000BA01611571058105910551F4C50140E339
:1056800050E060E070E020E030E00E94BC2B48C0B9
:105690006E010894C11CD11CEE24FF248701622EE8
:1056A000772488249924A40193010E943F2CF601B9
:1056B00061936F010894E11CF11C011D111DB901DA
:1056C000CA01611571058105910569F7D801C70106
:1056D0000197A109B1096E010894C11CD11CC80E23
:1056E000D91E19C0F60140814A3010F4405D01C056
:1056F000495C552747FD5095652F752FC50120E062
:1057000030E00E94BC2B0894E108F108010911095E
:105710000894C108D108E114F1040105110511F73D
:10572000A0960FB6F894DEBF0FBECDBFCF91DF912C
:105730001F910F91FF90EF90DF90CF90BF90AF90AF
:105740009F908F907F906F9008952115310549F4B7
:10575000DC01ED91FC910190F081E02D642F099521
:1057600008950E94202B08959A01462F50E060E092
:1057700070E00E94A52B0895EF92FF920F931F9364
:10578000CF93DF93EC017A018B012115310541F4B0
:10579000E881F9810190F081E02D642F09951BC00B
:1057A0002A303105B1F477FF10C04DE250E060E0DF
:1057B00070E020E030E00E94BC2B10950095F09442
:1057C000E094E11CF11C011D111DCE01B801A701DF
:1057D0002AE00E94202BDF91CF911F910F91FF9023
:1057E000EF9008959A01FB01AF01662757FD609580
:1057F000762F0E94BC2B08959A01462F552747FD0E
:105800005095652F752F0E94BC2B08950E94B629D4
:105810000E9413070E94B90CFDCF629FD001739FB5
:10582000F001829FE00DF11D649FE00DF11D929F3C
:10583000F00D839FF00D749FF00D659FF00D99277B
:10584000729FB00DE11DF91F639FB00DE11DF91F9F
:10585000BD01CF011124089597FB092E07260AD018
:1058600077FD04D02ED006D000201AF470956195F3
:105870007F4F0895F6F7909581959F4F0895A1E287
:105880001A2EAA1BBB1BFD010DC0AA1FBB1FEE1FBA
:10589000FF1FA217B307E407F50720F0A21BB30B05
:1058A000E40BF50B661F771F881F991F1A9469F781
:1058B00060957095809590959B01AC01BD01CF01DD
:1058C0000895AA1BBB1B51E107C0AA1FBB1FA61747
:1058D000B70710F0A61BB70B881F991F5A95A9F799
:1058E00080959095BC01CD010895EE0FFF1F0590A6
:1058F000F491E02D0994FC0188279927E8942191DF
:105900002032E9F3293010F02E30C8F32B3241F069
:105910002D3239F4689404C00E94E52C820F911D49
:10592000219120532A30C0F31EF4909581959F4F0A
:105930000895FB01DC0102C005900D9241505040DA
:10594000D8F70895FB01DC0104C08D910190801906
:1059500021F441505040C8F7881B990B0895FB0172
:10596000DC0101900D920020E1F70895FB01DC01BC
:105970004150504030F08D910190801919F4002071
:10598000B9F7881B990B0895FB019F01E8944230F9
:10599000C4F04532B4F44A3029F497FB1EF49095D4
:1059A00081959F4F642F77270E94612C805D8A33F9
:1059B0000CF0895D8193CB010097A1F716F45DE2AD
:1059C00051931082C9010C941D2D7AE0979F902D60
:1059D000879F802D910D11240895DC01CB01FC01DE
:1059E000F999FECF06C0F2BDE1BDF89A319600B438
:1059F0000D9241505040B8F70895F999FECF92BDED
:105A000081BDF89A992780B50895DC01CB0103C0C8
:105A10002D910E94102D41505040D0F70895262F0F
:105A2000F999FECF1FBA92BD81BD20BD0FB6F89483
:105A3000FA9AF99A0FBE01960895DC01FC01672FCE
:105A400071917723E1F7329704C07C916D93708355
:0E5A50006291AE17BF07C8F30895F894FFCF18
:105A5E006200760068006D00474554202F0020003C
:105A6E0066617669636F6E2E69636F00736574008D
:105A7E0070312E6A73007265736574004D433A007F
:105A8E0045003A006F70656E646F6F7200CC093618
:105A9E00770069692D30307D00FFFF4172647569B2
:105AAE006E6F2D3030003703010306FF63825363A0
:105ABE0035010100010A01010F0801C0A80116C03D
:105ACE00A8010101061502000100000080098309EA
